:020000040800F2
:10000000C0070024AD020008E92C000851270008B1
:10001000E12C0008C9030008193A0008000000009C
:10002000000000000000000000000000692F000830
:10003000D103000800000000212D0008A12F0008B6
:10004000C7020008C7020008C7020008C70200086C
:10005000C7020008C7020008C7020008C70200085C
:10006000C7020008C7020008C7020008C70200084C
:10007000C7020008C7020008C7020008C70200083C
:10008000C7020008C7020008C7020008C70200082C
:10009000C7020008C7020008C7020008C70200081C
:1000A000C7020008C7020008C7020008C70200080C
:1000B000C7020008C7020008C7020008C7020008FC
:1000C000C7020008C7020008C7020008C7020008EC
:1000D000C7020008C7020008C7020008C7020008DC
:1000E000C7020008C702000800000000C70200089D
:1000F000C7020008C7020008C7020008C7020008BC
:10010000C7020008C7020008C7020008C7020008AB
:10011000C7020008C7020008C7020008C70200089B
:10012000C7020008C7020008C7020008C70200088B
:10013000C7020008C7020008C7020008C70200087B
:1001400000000000000000000000000000000000AF
:10015000C7020008C7020008C7020008C70200085B
:10016000C7020008C7020008C7020008C70200084B
:10017000C7020008C7020008C7020008C70200083B
:10018000C7020008C7020008C7020008C70200082B
:10019000C7020008C7020008C7020008C70200081B
:1001A000C7020008C7020008C7020008C70200080B
:1001B000C7020008C7020008C7020008C7020008FB
:1001C000C7020008C7020008C7020008C7020008EB
:1001D000C7020008C7020008C7020008C7020008DB
:1001E000C7020008C7020008C7020008C7020008CB
:1001F000C7020008C7020008C7020008C7020008BB
:10020000C7020008C7020008C7020008C7020008AA
:10021000C7020008C7020008C7020008C70200089A
:10022000C7020008C7020008C7020008000000005B
:10023000C7020008C702000800000000C70200084B
:10024000C7020008C7020008C7020008C70200086A
:10025000C7020008C7020008C7020008C70200085A
:10026000C7020008C7020008C7020008C70200084A
:10027000C7020008C7020008C7020008000000000B
:10028000C7020008C7020008C702000800000000FB
:1002900000000000C7020008DFF80CD000F080F872
:1002A0000048004731450008C00700240648804741
:1002B00006480047FEE7FEE7FEE7FEE7FEE7FEE74B
:1002C000FEE7FEE7FEE7FEE7B1300008990200080E
:1002D0002DE9F05F0546002092469B46884606467B
:1002E000814640241BE0284641464746224600F00E
:1002F00046F853465A46C01A914110D31146184643
:10030000224600F02DF82D1A67EB01084F462246D1
:100310000120002100F024F817EB00094E41201EB7
:10032000A4F10104DFDC484631462A464346BDE8D5
:10033000F09F000000487047E0520008D2B201E090
:1003400000F8012B491EFBD270470022F6E710B5DA
:1003500013460A4604461946FFF7F0FF204610BD33
:10036000202A04DB203A00FA02F100207047914075
:10037000C2F1200320FA03F3194390407047202A6A
:1003800004DB203A21FA02F00021704721FA02F33F
:10039000D040C2F120029140084319467047000046
:1003A000064C074D06E0E06840F0010394E80700C2
:1003B00098471034AC42F6D3FFF772FFC0570008DD
:1003C000E057000800000000FEE700000000000009
:1003D0007047000000000000EFF3108072B600BF0D
:1003E000FEE70000000000002DE9F04F83B00C682C
:1003F000002C00F0C68000F1264242F2004702F1D4
:10040000FF72C5F602074FEAB22201920A22B842F1
:1004100008BF0922002500274FF0010A009209E0D9
:100420000C68043734FA0AF20AF1010A05F10205F0
:1004300000F0A780AAF10109012202FA09FE14EADC
:100440000E08EDD0D1F804B00BF00304A4F1010CB8
:10045000BCF1010F11D803228668AA40CB6826EAB6
:100460000202AB401A438260CBF30013426822EAD7
:100470000E0203FA09F31A434260032C1ED0032331
:10048000C268AB40022C22EA03028B6803FA05F330
:1004900042EA0302C26011D16FF0030207F01C06AA
:1004A00002EA59020F23024403FA06F4D2F820C0EC
:1004B0000B692CEA0404B34023431362032302684C
:1004C000AB404E689A4306F00303AB4016F4403F3E
:1004D00042EA03020260A3D044F2F44340F2084E21
:1004E000C5F60203C5F6000E1A6842F002021A6051
:1004F0001A6807F00C0302F002020292029A29F035
:100500000302019C009E092C38BF26460F2452F896
:100510000EC09C402CEA040406FA03F34FF0B04CE2
:10052000234342F80E30DCF800204B6842EA08060C
:10053000DC0258BF22EA08069C02CCF8006040F2B8
:10054000040CC5F6000CDCF8002042EA080658BF8F
:1005500022EA08069C03CCF80060DCF8802042EA1E
:10056000080658BF22EA0806DB03CCF88060DCF8F6
:100570007C2042EA080658BF22EA0806CCF87C60D4
:100580004EE703B0BDE8F08F426902EA01039143F0
:1005900041EA034181617047002A08BF0904816173
:1005A000704700000000000041F20000C5F6004066
:1005B0000068000C7047000040F2BC30C2F20040FE
:1005C000006870470000000090F84120202A03D105
:1005D00090F84020012A01D102207047242280F89F
:1005E00041200268136823F001031360136823F4A9
:1005F00080531360136819431160116841F00101C1
:100600001160202180F84110002180F84010084638
:10061000704700000000000090F84120202A03D11C
:1006200090F84020012A01D102207047242280F84E
:1006300041200268136823F001031360136823F458
:10064000706343EA01211160116841F001011160FA
:10065000202180F84110002180F8401008467047A2
:1006600000284CD010B5044690F8410028B900206D
:1006700084F84000204600F0C7F9242084F84100A7
:1006800094E80310E36821F070610268012B22F006
:100690000102026001614FF40442816808BF4FF417
:1006A0000042022B21F4004181604CEA020181608A
:1006B00002D14FF400614160416804F1100C41F037
:1006C000007141F400414160C16821F40041C16002
:1006D0009CE80E10114341EA0321C160216A41EAFE
:1006E0000C010160016841F00101016000206064BB
:1006F000202184F84110206384F8420010BD0120BD
:1007000070470000000000002DE9F04F83B0044660
:1007100090F8410020280FD1DDF83080B8F1000FAB
:100720000CD0DDF834B0BBF1000F07D094F84000D6
:10073000012808D1022533E0022531E04FF4007092
:10074000606401252CE01F4616468A46012584F880
:100750004050FFF731FF81464FF400410122192339
:100760000090204602F030F9D0B9222084F84100F0
:10077000402084F842002046514632463B46002540
:100780006564C4F82480DDF83880A4F82AB0656375
:10079000CDE9008902F088F830B184F84050012595
:1007A000284603B0BDE8F08F608DB0F5807F42F23F
:1007B0000040C8F2000005D3FF212185FF224FF041
:1007C000807304E0618D4FF000732185CAB2009000
:1007D0002046514602F0E0F80025FF260BE0608D30
:1007E0004FF000732085C2B220465146009502F0BA
:1007F000D3F8608D78B30421002220464346CDF81B
:10080000009002F0E1F820BB2068616A406A08703D
:10081000218D606A0130606201392185608D090493
:10082000A0F101006085608DE3D10028E1D0802136
:10083000002220464346CDF8009002F0C5F890B95A
:10084000608DB0F5807FCAD32685FF224FF080737C
:10085000CAE70125A4E7204641464A4602F0FCF8D3
:1008600018B101259CE701259AE7206820214EF662
:1008700000030025C161CFF6006342681A40426060
:1008800084F8411084F8425084F8405088E7000012
:100890002DE9F04F83B0044690F8410020280FD195
:1008A000DDF83080B8F1000F0CD0DDF834B0BBF1CA
:1008B000000F07D094F84000012808D1022533E04A
:1008C000022531E04FF40070606401252CE01F46E2
:1008D00016468A46012584F84050FFF76DFE814692
:1008E0004FF40041012219230090204602F06CF8D9
:1008F000D0B9212084F84100402084F842002046ED
:10090000514632463B4600256564C4F82480DDF834
:100910003880A4F82AB06563CDE9008902F000F8B8
:1009200030B184F840500125284603B0BDE8F08F6F
:10093000608DB0F5807F05D3FF202085FF224FF02A
:10094000807304E0608D4FF000732085C2B20020F8
:1009500000902046514602F01FF80025FF260BE0CC
:10096000608D4FF000732085C2B22046514600953D
:1009700002F012F8608D50B3204641464A4602F01C
:100980009FF810BB606A216810F8012B8A626062D0
:10099000608D01386085208D411E2185608D0904A0
:1009A000E8D10028E6D08021002220464346CDF839
:1009B000009002F009F890B9608DB0F5807FCFD338
:1009C0002685FF224FF08073CFE70125ACE7204654
:1009D00041464A4602F040F818B10125A4E7012536
:1009E000A2E7206820214EF600030025C161CFF662
:1009F000006342681A40426084F8411084F8425013
:100A000084F8405090E70000B0B5B8B0044602A8A2
:100A1000C0210025CDE93655CDE934553395FFF792
:100A200094FC45F200412068C4F20001884201D0E4
:100A300038B0B0BD0820029002A80395239500F0BD
:100A400073FA08B1FFF7C8FC44F2E04433A9C5F6D5
:100A50000204206840F002002060206800F00200DC
:100A600001900198C02033901220349001203590DD
:100A7000032036900420379040F20040C5F6020073
:100A8000FFF7B2FCA06840F40010A060A06800F47A
:100A900000100190019838B0B0BD000000000000C7
:100AA00040F20D0040F2BC31C2F20040C2F20041FF
:100AB00000780A68104408607047000000000000D9
:100AC00080B5032000F0CCF801F0B2F844F21841F0
:100AD00045F2E423C5F60201C0F600030A6809687E
:100AE00001F00F01C2F30322595C9A5C01F01F016F
:100AF00002F01F02D04040F20802C2F2004220FA87
:100B000001F1116040F20401C2F2004108600F20BF
:100B100000F00AF800281CBF012080BD00F080F81A
:100B2000002080BD00000000B0B540F20D01C2F20F
:100B30000041097801B3044640F20400C2F20040CB
:100B40004FF47A72B2FBF1F10068B0FBF1F001F002
:100B500037FC0F2C4FF001050CD858B94FF0FF307F
:100B600000222146002500F06BF840F21000C2F28E
:100B7000004004602846B0BD0120B0BD0000000068
:100B8000B0B502784EF69C5CCEF2000C43784CF87F
:100B9000043CF2B14368CCF80030037BC17A90F892
:100BA0000AE0457B447A42EA0372837B42EA0161B0
:100BB000C27B41EACE41007A41EA854141EA4341A4
:100BC00041EA024141EA042141EA4000CCF8040034
:100BD000B0BD0020CCF80000CCF80400B0BD00008F
:100BE0004EF62450CEF20000BFF35F8F016821F46F
:100BF00080310160002101677047000000000000A3
:100C00004EF6245140F00100CEF20001086708685A
:100C100040F480300860BFF34F8FBFF36F8F704791
:100C200081B044F2F440C5F60200016841F00201CF
:100C30000160006800F002000090009801B0704769
:100C400070B514460D46064602F0EAFE29462246D5
:100C500002F04EF80146304602F0EAFE70BD000098
:100C600080B502F0F9FE80BDB0B544F60C05C5F6BE
:100C7000020529684907296805D401F00701081A07
:100C800018BF0120B0BD21F0070108432860FFF71D
:100C900093FC044655F8080C800407D4FFF78CFC3D
:100CA000001BB0F57A7FF5D90120B0BD0020B0BDA2
:100CB00080B500F06DFF44F2204145F2E422C5F614
:100CC0000201C0F600020968C1F30211515C01F093
:100CD0001F01C84080BD000080B544F2384EC5F603
:100CE000020E5EF8103C5EF8101CC1F3053C5EF885
:100CF0000C1CBCF1000FDEF8042014D0C1F300116D
:100D0000C2F3CC02514300EE101A03F00301022992
:100D1000B8EE400A0CD071B95EF8381C89060DD4C3
:100D20009FED341A18E000218160C0E9001180BDF8
:100D30009FED2F1A10E09FED2D1A0DE05EF8381C84
:100D400049F20002C0F2D032C1F3C10122FA01F12E
:100D500001EE101AB8EE411ADEF800109FED263AA7
:100D60006FF35F2102EE101ADEF80010C1F3462186
:100D7000B8EE422A00EE032A00EE10CAB7EE003A9F
:100D8000B8EE400A81EE000A32EE031A02EE101AA3
:100D9000B8EE422A20EE010A32EE031A80EE011A62
:100DA000BCEEC11A80ED001ADEF80010C1F3064156
:100DB00001EE101AB8EE411A31EE031A80EE011A54
:100DC000BCEEC11A80ED011ADEF80010C1F3066115
:100DD00001EE101AB8EE411A31EE031A80EE010A44
:100DE000BCEEC00A10EE101A816080BD0024744A67
:100DF00020BCBE4B0024744C0000003900000000F1
:100E000080B544F2404EC5F6020E5EF8183C5EF81E
:100E1000181CC1F3055C5EF8141CBCF1000FDEF871
:100E2000042014D0C1F30021C2F3CC02514300EEE0
:100E3000101A03F003010229B8EE400A0CD071B970
:100E40005EF8401C89060DD49FED341A18E000218D
:100E50008160C0E9001180BD9FED2F1A10E09FED69
:100E60002D1A0DE05EF8401C49F20002C0F2D032AB
:100E7000C1F3C10122FA01F101EE101AB8EE411AD4
:100E8000DEF800109FED263A6FF35F2102EE101A94
:100E9000DEF80010C1F34621B8EE422A00EE032A24
:100EA00000EE10CAB7EE003AB8EE400A81EE000A32
:100EB00032EE031A02EE101AB8EE422A20EE010AB0
:100EC00032EE031A80EE011ABCEEC11A80ED001A50
:100ED000DEF80010C1F3064101EE101AB8EE411A17
:100EE00031EE031A80EE011ABCEEC11A80ED011A30
:100EF000DEF80010C1F3066101EE101AB8EE411AD7
:100F000031EE031A80EE010ABCEEC00A10EE101A90
:100F1000816080BD0024744A20BCBE4B0024744C08
:100F200000000039000000002DE9F04381B00446C4
:100F3000C07844F22C490007C5F6020901D4002507
:100F40002EE0A06E4FEA305003280DD80025DFE8D0
:100F500000F0020E1714D9F80000002540F400300C
:100F6000C9F8000055B913E001253DB910E004F1BE
:100F70000800022101F0D8FE05464DB1A84611E057
:100F800004F12800022101F05FFF0546002DF5D194
:100F9000D9F82400A16E20F440100843C9F82400B9
:100FA0004FF000086078C00730D0A06D042807D843
:100FB000DFE800F00A131C030300FDB1A84625E09A
:100FC0000125002DFAD119E0D9F8000040F40030D5
:100FD000C9F80000002DF1D110E004F10800002153
:100FE00001F0A2FE0546002DE8D107E004F128003B
:100FF000002101F029FF0546002DDFD1D9F824009A
:10100000A16D20F007000843C9F82400607880072C
:1010100032D5E06D4FEAB010042807D8DFE800F0C1
:101020000A131C030300FDB1A84625E00125002D8D
:10103000FAD119E0D9F8000040F40030C9F80000F6
:10104000002DF1D110E004F10800002101F06CFE48
:101050000546002DE8D107E004F12800002101F049
:10106000F3FE0546002DDFD1D9F82400E16D20F410
:10107000E0700843C9F824006078400734D5D4F8FC
:10108000A8004FEA7050042807D8DFE800F00A13E0
:101090001C030300FDB1A84626E00125002DFAD16E
:1010A00019E0D9F8000040F40030C9F80000002D24
:1010B000F1D110E004F10800002101F035FE0546F1
:1010C000002DE8D107E004F12800002101F0BCFE6A
:1010D0000546002DDFD1D9F82C00D4F8A81020F453
:1010E00060000843C9F82C006078000734D5D4F8B4
:1010F000AC004FEA3060042807D8DFE800F00A139C
:101100001C030300FDB1A84626E00125002DFAD1FD
:1011100019E0D9F8000040F40030C9F80000002DB3
:10112000F1D110E004F10800002101F0FDFD0546B9
:10113000002DE8D107E004F12800002101F084FE31
:101140000546002DDFD1D9F82C00D4F8AC1020F0E2
:10115000E0600843C9F82C00E078800728D5E06CEF
:101160004FEA3010032806D8DFE800F00209120227
:10117000B5B1A8461CE00125002DFAD110E0D9F840
:10118000000040F40030C9F80000002DF1D107E064
:1011900004F10800022101F0C7FD0546002DE8D149
:1011A000D9F82000E16C20F030000843C9F8200095
:1011B0006078C00632D5206E4FEA3030042807D858
:1011C000DFE800F00A131C030300FDB1A84625E088
:1011D0000125002DFAD119E0D9F8000040F40030C3
:1011E000C9F80000002DF1D110E004F10800002141
:1011F00001F09AFD0546002DE8D107E004F1280032
:10120000002101F021FE0546002DDFD1D9F8240090
:10121000216E20F4E0400843C9F82400607880067D
:1012200026D5606E4FEA3040052807D8DFE800F089
:10123000030A100303039DB1A84619E00125002D00
:10124000FAD10DE004F10800012101F06DFD04E088
:1012500004F12800012101F0F7FD0546002DEBD136
:10126000D9F82400616E20F4E0200843C9F8240076
:101270006078400628D5D4F8B0004FEA30700528D1
:1012800007D8DFE800F0030A100303039DB1A84666
:101290001AE00125002DFAD10DE004F1080001212A
:1012A00001F042FD04E004F12800012101F0CCFD31
:1012B0000546002DEBD1D9F82C00D4F8B01020F061
:1012C000E0400843C9F82C006078000620D5206F64
:1012D000D8B1B0F1005F12D0B0F1805F25D1D9F85C
:1012E000000040F40030C9F8000085B9D9F82400A6
:1012F000216F20F040500843C9F8240008E004F1B1
:101300000800012101F010FD0546002DEED0A84691
:10131000E078C0072AD0A06C03280AD8DFE800F0E4
:10132000020D1602D5B1A84620E00125002DEED110
:10133000DCE70125002DF6D110E0D9F8000040F4DB
:101340000030C9F80000002DEDD107E004F10800DD
:10135000022101F0E9FC0546002DE4D1D9F8200076
:10136000A16C20F003000843C9F82000A0784006D3
:1013700042D5D9F8D40340F48070C9F8D403FFF7FC
:101380001BF90646D9F8D403C00505D4FFF714F9B4
:10139000801B6528F6D303256DBBD9F84410D4F81B
:1013A000B400414011F4407F11D0D9F84410D9F86D
:1013B000442042F48032C9F84420D9F8442021F472
:1013C000407122F48032C9F84420C9F84410B0F5C5
:1013D000807F0FD1FFF7F0F8064641F2893700BF52
:1013E000D9F84400800705D4FFF7E6F8801BB8421F
:1013F000F6D3032585B1A8462078C00742D0E06F18
:101400004FEAF000052823D8DFE800F003262C037C
:1014100003037DB3A84635E04FF6CF73D4F8B4008C
:1014200059F81C2CC0F2FF0300F4407122F47C52E6
:1014300003EA1013B1F5407F08BF1A436FF31F3062
:1014400049F81C2CD9F844100843C9F84400D3E7E4
:101450000125002DDED10DE004F10800012101F08D
:1014600063FC04E004F12800012101F0EDFC0546D5
:10147000002DCFD1D9F82800E16F20F038000843C3
:10148000C9F828002078800724D5A06F052807D840
:10149000DFE800F0030A100303039DB1A84619E03A
:1014A0000125002DFAD10DE004F10800012101F021
:1014B0003BFC04E004F12800012101F0C5FC0546D5
:1014C000002DEBD1D9F82800A16F20F007000843C8
:1014D000C9F828002078400726D5D4F894000528BC
:1014E00007D8DFE800F0030A100303039DB1A84604
:1014F0001AE00125002DFAD10DE004F108000121C8
:1015000001F012FC04E004F12800012101F09CFC30
:101510000546002DEBD1D9F82C00D4F8941020F01A
:1015200007000843C9F82C002078800628D5D4F895
:1015300090004FEA3070052807D8DFE800F0030A72
:10154000100303039DB1A8461AE00125002DFAD12E
:101550000DE004F10800002101F0E6FB04E004F1D5
:101560002800022101F070FC0546002DEBD1D9F8CE
:101570002800D4F8901020F0E0400843C9F8280073
:101580002078400628D5D4F89C004FEAB0200528E2
:1015900007D8DFE800F0030A100303039DB1A84653
:1015A0001AE00125002DFAD10DE004F10800002118
:1015B00001F0BAFB04E004F12800022101F044FC30
:1015C0000546002DEBD1D9F82C00D4F89C1020F45E
:1015D000E0500843C9F82C002078000628D5D4F83C
:1015E000A0004FEA7030052807D8DFE800F0030AB2
:1015F000100303039DB1A8461AE00125002DFAD17E
:101600000DE004F10800002101F08EFB04E004F17C
:101610002800022101F018FC0546002DEBD1D9F875
:101620002C00D4F8A01020F460400843C9F82C0026
:101630002078000716D5D4F88400B0F5805F08D173
:1016400004F12800022101F0FFFB002818BF4FF031
:101650000108D9F82800D4F8841020F44050084339
:10166000C9F828002078C00616D5D4F89800B0F53F
:10167000807F08D104F12800022101F0E5FB002859
:1016800018BF4FF00108D9F82C00D4F8981020F4B6
:1016900040700843C9F82C00A078000722D5D4F880
:1016A000A400B0F5003F1AD0B0F5803F11D0C8BB00
:1016B00004F10800002101F037FB05468DB9D9F887
:1016C0002C00D4F8A41020F440300843C9F82C00B2
:1016D00008E004F12800022101F0B6FB0546002DC8
:1016E000EDD0A846A078400729D5D4F88800B0F5F9
:1016F000401F21D0B0F5001F18D0B0F5801F40F07A
:10170000BF80D9F8000040F40030C9F80000ADB93E
:10171000D9F82800D4F8881020F440100843C9F8FC
:1017200028000CE00125002DDBD1C8E704F12800DA
:10173000012101F089FB0546002DE9D0A846A078DB
:10174000C00720D0206DB0F5803F10D0B8B9D9F8CF
:10175000000040F40030C9F800009DB9D9F820001D
:10176000216D20F480300843C9F820000BE004F11B
:101770000800022101F0D8FA05461DB9EEE701255F
:10178000002DEBD0A846E078800608D504F12800AB
:10179000022101F059FB002818BF4FF00108D4E9DD
:1017A00000108A037BD5D4F880206FF0010303EB8F
:1017B0003223022B0AD34FEA32233BB1012B64D1EF
:1017C000D9F8003043F40033C9F80030002D5FD061
:1017D000CA0267D4CA006FD48A0279D44A0000F1E1
:1017E0008280B1F1FF3F40F38F80090200F19780C2
:1017F000C00707D004F10800002101F095FA002885
:1018000018BF05462079800707D504F1080001219B
:1018100001F08AFA002818BF05462079400707D54D
:1018200004F10800022101F07FFA002818BF0546E4
:101830002079000707D504F12800002101F004FBFE
:10184000002818BF05462079C00607D504F12800F6
:10185000012101F0F9FA002818BF05462079800619
:1018600007D504F12800022101F0EEFA002818BF84
:101870000125002D18BF0125284601B0BDE8F083E1
:101880000125002D7FF45AAF42E70125002D9FD19D
:10189000D9F8283023F440731A43C9F82820454664
:1018A000CA0297D5D9F82420636F22F000421A4368
:1018B000C9F82420CA008FD559F81C2CD4F8B830A8
:1018C00022F480421A4349F81C2C8A027FF586AF25
:1018D000D9F82420E36E22F080721A43C9F824203C
:1018E0004A007FF57EAF59F81C2C22F4004249F8DB
:1018F0001C2CD4F8BC2059F81C3C1A4349F81C2C69
:10190000B1F1FF3F3FF771AFD9F82020636D22F0AE
:1019100040521A43C9F8202009027FF569AFD9F86F
:101920002810D4F88C2021F440011143C9F8281064
:10193000C0077FF45FAF65E72DE9F04381B0002871
:1019400000F0F48042F200080446C5F200288946FF
:10195000D8F8000000F00F0088420ED2D8F800003E
:1019600020F00F0040EA0900C8F80000D8F8000095
:1019700000F00F00484540F0D980206844F2184735
:101980004107C5F602070AD521693A6802F07002DC
:10199000914204D93A6822F070021143396001077C
:1019A0000AD561697A6802F07002914204D97A68B6
:1019B00022F0700211437960C1060AD5A1697A68E4
:1019C00002F4E062914204D97A6822F4E0621143A1
:1019D000796081060AD5E169BA6802F07002914225
:1019E00004D9BA6822F070021143B96081070AD5A0
:1019F000E1683A6802F00F02914204D93A6822F095
:101A00000F0211433960C0077ED1206881070AD5D3
:101A1000E1683A6802F00F02914204D23A6822F07B
:101A20000F0211433960D8F8001001F00F01494549
:101A30000DD9D8F8001021F00F0141EA0901C8F8CA
:101A40000010D8F8001001F00F0149456ED1410790
:101A50000AD521693A6802F07002914204D23A68CC
:101A600022F070021143396001070AD561697A6872
:101A700002F07002914204D27A6822F0700211439F
:101A80007960C1060AD5A1697A6802F4E0629142E0
:101A900004D27A6822F4E0621143796080060AD5A4
:101AA000E069B96801F07001884204D2B96821F098
:101AB00070010843B86000F0BBF8396845F2E422D1
:101AC000C0F600023B68C1F3032103F00F03515C31
:101AD000D25C01F01F01C84002F01F0140F2080271
:101AE00020FA01F1C2F20042116040F2040140F21A
:101AF0001002C2F20041C2F2004208601068FFF713
:101B000013F801B0BDE8F083386820F47061D4E9BF
:101B10000102012841EA020139600BD003282BD0D1
:101B200002282ED157F8181C890307D4012001B0D0
:101B3000BDE8F08357F8181CC905F7D557F8081CFD
:101B400021F00701084347F8080CFEF735FD06466B
:101B500041F2883557F8080C616800F03800B0EBA6
:101B6000C10F3FF452AFFEF727FD801BA842F1D909
:101B7000032001B0BDE8F08357F8181C8901D5D5C2
:101B8000DCE757F8181C4907D0D5D7E7000000005C
:101B900080B500F04DF844F2184145F2E423C5F653
:101BA0000201C0F600030A68096801F00F01C2F3E0
:101BB0000322595C9A5C02F01F0220FA02F201F043
:101BC0001F0040F2080122FA00F0C2F20041086052
:101BD00040F20401C2F200410A6080BD0000000032
:101BE00080B5FFF7D5FF44F21C4145F2E422C5F66B
:101BF0000201C0F600020968C1F30211515C01F054
:101C00001F01C84080BD000080B5FFF7C1FF44F24E
:101C10001C4145F2E422C5F60201C0F60002096843
:101C2000C1F30221515C01F01F01C84080BD0000DA
:101C300044F20041C5F602010869C0F3C20003285E
:101C40000FD002282AD070BB0868800649F2000035
:101C5000C0F2D03058BF70470968C1F3C101C84015
:101C600070478A6A886AC0F3051CC86ABCF1000F15
:101C70004B6B1DD0C3F3CC0300F00100584302F0BE
:101C80000302022A00EE100AB8EE400A12D0A2B9EE
:101C90000868800614D49FED261A1EE047F640001F
:101CA000C0F27D10704740F60010C0F23D00704752
:101CB000002070479FED1D1A0FE09FED1B1A0CE0EE
:101CC000086849F20002C0F2D032C0F3C10022FA23
:101CD00000F001EE100AB8EE411A086B9FED153ABC
:101CE0006FF35F2002EE100A086BC0F34620B8EED7
:101CF000422A013000EE032A00EE10CAB7EE003A85
:101D0000B8EE400A81EE000A32EE031A20EE010A14
:101D100001EE100AB8EE411A80EE010ABCEEC00ACC
:101D200010EE100A704700BF0024744A20BCBE4B5E
:101D30000024744C000000392DE9F04381B0F8B163
:101D40008046007844F20049C007C5F602095AD01F
:101D5000D9F8100000F03801D9F82800102905D072
:101D600018290FD100F0030002280BD1D9F8000088
:101D7000800344D5D8F80400002840D101272FE083
:101D8000012718E3D8F804402CB1B4F5A02F0DD0EA
:101D9000B4F5803F10D0D9F8000020F48030C9F8A5
:101DA0000000D9F8000020F4802009E0D9F80000F4
:101DB00040F48020C9F80000D9F8000040F48030D9
:101DC000C9F80000FEF7F8FB0546A4B1D9F80000F9
:101DD000800314D4FEF7F0FB401B6428F6D90327D8
:101DE0000020002800F0E7820DE000BFFEF7E4FBD2
:101DF000401B6428F3D8D9F800008003F6D40120F2
:101E0000002800F0D88298F80000800740F1848014
:101E1000D9F8100010F03801D9F828001CD0182982
:101E200008BF5FEA807017D0D8F80C00D9F800100E
:101E3000002847D021F019010843C9F80000FEF737
:101E4000BBFB0546D9F8000040072AD4FEF7B4FBD7
:101E5000401B0228F6D91EE0D9F80000400704D53F
:101E6000D8F80C00002800F09681D9F80000D8F8C6
:101E70000C1020F019000843C9F80000FEF79CFB85
:101E8000054600BFD9F8000040070AD4FEF794FBCE
:101E9000401B0228F6D903270024002C00F08B8277
:101EA0003AE0FEF781FB41F20301884223D8D8F8DB
:101EB0001000D9F80410402821F47C3124D141F4D9
:101EC000003023E021F00100C9F80000FEF774FBA8
:101ED00005460126D9F8000010F0040086EA9004B7
:101EE00017D0FEF769FB401B0328F3D30327002C10
:101EF00000F0618210E0D9F80400D8F8101020F04A
:101F0000FE4040EA016001E041EA0030C9F8040007
:101F10000124002C00F04F8298F80000C00674D510
:101F2000D9F8100000F03801D9F82800082905D0A8
:101F300018291CD100F00300012818D1D9F800009D
:101F4000C00503D5D8F81C00802859D1FEF72CFB1A
:101F500041F20301884222D8D8F82000D9F80410B1
:101F6000202821F0F84142D141F0804041E0D8F8EA
:101F70001C000028D9F8000020D040F08000C9F8EB
:101F80000000FEF719FB0546D9F80000C005DDD4B6
:101F9000FEF712FB401B0228F6D9032731E0D9F8DF
:101FA0000C00D8F8201020F07C50012440EA016099
:101FB000C9F80C00002C00F0FE8126E020F0800023
:101FC000C9F80000FEF7F8FA05460126D9F8000026
:101FD00010F4807086EA10240ED0FEF7EDFA401B54
:101FE0000328F3D30327002C00F0E5810DE041EA3C
:101FF0008060C9F804000124002C00F0DC8104E0BA
:1020000001270024002C00F0D68198F8000000077A
:102010001CD498F80000800631D498F800004007DE
:1020200045D4D8F82440002C00F09180D9F8100055
:1020300000F03800182840F08C80012CD9F82810C6
:10204000D9F8300040F0A9800127B4E1D8F8140095
:102050000028D9F874003ED040F00100C9F874009F
:10206000FEF7AAFA054600BFD9F874008007D0D45D
:10207000FEF7A2FA401B0228F6D903279BE1D8F805
:1020800018000028D9F800004DD040F48050C9F85D
:102090000000FEF791FA0546D9F800008004BCD490
:1020A000FEF78AFA401B0228F6D9032783E1D9F804
:1020B000000440F48070C9F80004FEF77DFA05467C
:1020C000D9F80004C0051AD4FEF776FA401B64283C
:1020D000F6D903276FE120F00100C9F87400FEF77C
:1020E0006BFA0546032700BFD9F8740080077FF517
:1020F00090AFFEF761FA401B0228F5D95BE1D8F8F2
:1021000008402CB1052C00F08280012C00F0858065
:10211000D9F8700020F00100C9F87000D9F87000FB
:1021200020F004007DE020F48050C9F80000FEF7A4
:1021300043FA0546032700BFD9F8000080047FF565
:102140006CAFFEF739FA401B0228F5D933E10027BE
:1021500031E1D9F8000020F08070C9F80000FEF7E6
:102160002BFA022C05464FF0030709D1D9F80000DD
:10217000800178D5FEF720FA401B0228F6D91AE133
:10218000D9F80000800140F1E780FEF715FA401B06
:102190000228F5D90FE101277EE601F00302D8F805
:1021A00028309A4240F0DA80C1F30511D8F82C208B
:1021B000914240F0D7800146D8F830206FF35F217C
:1021C000013A914240F0D080C0F34622D8F8341052
:1021D00001398A4240F0CA80C0F30642D8F838106C
:1021E00001398A4240F0C480C0F30660D8F83C1040
:1021F0000139884240F0BE80D9F83400D8F8481040
:10220000C0F3CC00814240F0B7800027D3E0D9F87A
:10221000700040F00400C9F87000D9F8700040F078
:102220000100C9F87000FEF7C7F9002C054641F21D
:1022300088344FF0030711D0D9F8700080073FF5BC
:10224000F0AEFEF7B9F9401BA042F5D9B3E000BFEC
:10225000FEF7B2F9401BA04200F2AD80D9F8700041
:102260008007F5D4DDE608F12807D9F8280040F208
:10227000F33188438ECF0843591E40EA02104FF4D1
:102280007E426FF35F21C9F8280002EB47204FF42C
:10229000FE0280B2D8F83C300844D8F8381002EB7F
:1022A00001414FF0FE4201F4FE0102EB03620844DB
:1022B00002F0FE410844C9F83000D9F82C004FF66E
:1022C000F87120F00100C9F82C00D9F83400D8F8D2
:1022D0004820884340EAC200C9F83400D9F82C00ED
:1022E000D8F8401020F00C000843C9F82C00D9F8A9
:1022F0002C00D8F8441020F002000843C9F82C0044
:10230000D9F82C0040F48030C9F82C00D9F82C0002
:1023100040F40030C9F82C00D9F82C0040F480209B
:10232000C9F82C00D9F82C0040F00100C9F82C00A5
:10233000D9F8000040F08070C9F80000FEF73CF9C1
:1023400004460327D9F80000800109D4FEF734F9C8
:10235000001B0228F6D92EE000272CE001272AE0F6
:10236000002728E0012726E0012724E0012722E0BA
:10237000012720E001271EE0D9F82C0020F0010001
:10238000C9F82C00FEF718F90546FEF715F9A84222
:10239000FBD0D9F834004FF6F871D8F848208843BC
:1023A000002740EAC200C9F83400D9F82C0040F0F8
:1023B0000100C9F82C00F8B201B0BDE8F0830000BC
:1023C00080B500F0D5FD80BD90F88410012901D1C1
:1023D000022070472421C0F8881002681368116831
:1023E00023F0005321F001011160002141661360C8
:1023F0002022C0F8882080F884100846704700002A
:10240000B0B5044690F88400012801D10220B0BD87
:10241000012084F884002420C4F88800206805681E
:10242000026822F001020260826822F060621143B9
:102430008160204600F0A4FE206805602020C4F8DA
:102440008800002084F88400B0BD00000000000077
:10245000B0B5044690F88400012801D10220B0BD37
:10246000012084F884002420C4F8880020680568CE
:10247000026822F001020260826822F06042114389
:102480008160204600F07CFE206805602020C4F8B2
:102490008800002084F88400B0BD00000000000027
:1024A00010B5B0B10446D0F8880028B9002084F8EF
:1024B0008400204600F028F82420C4F88800206812
:1024C000016821F001010160204600F081FF012830
:1024D00001D1012010BDA06A10B1204600F07CFEA1
:1024E0002068416821F490414160816821F02A010F
:1024F0008160016841F001010160204600F0DCFECE
:1025000010BD000000000000B0B5B8B0044602A83D
:10251000C0210025CDE93655CDE934553395FDF779
:1025200014FF41F200012068C4F20101884201D089
:1025300038B0B0BD0120029002A803952195FEF7A6
:10254000F3FC08B1FDF748FF44F2E040C5F6020095
:10255000016941F010010161016901F0100101916F
:102560000199016841F001010160006833A900F0A0
:102570000100019001984FF4C06033900220349024
:102580000020CDE93500072037900020C5F6020075
:10259000FDF72AFF38B0B0BD2DE9F04381B0044605
:1025A000D0F88C00202823D10E4600294FF00100DE
:1025B0005FD01746002A5CD099460020C4F89000EE
:1025C0002221C4F88C10E066FDF7F6FFA4F85C70D9
:1025D0008046A4F85E70A16871B1B1F1805F0FD040
:1025E000B1F5805F10D1206940B940F2FF100EE0D4
:1025F000022001B0BDE8F083206938B9FF2006E071
:10260000206918B13F2002E0002000E07F20B1F5F2
:10261000805F4FF00007A4F8600004D12069002813
:1026200004BF37460646B4F860500AE0206800262A
:10263000406A284027F8020BB4F85E000138A4F87D
:102640005E00B4F85E0080B120210022204643469F
:10265000CDF8009001F080F970B9002EE6D0206826
:10266000406A284006F8010BE6E72020C4F88C00F9
:10267000002001B0BDE8F0832020C4F88C000320C6
:1026800001B0BDE8F08300002DE9F04182B00446BE
:10269000D0F8880020283FD10E4600294FF00100D5
:1026A0004BD01746002A48D01D464FF00008C4F80A
:1026B00090802120C4F88800FDF77EFFA4F85470B4
:1026C000A4F856700746A168B1F5805F0FD1206964
:1026D000002814BF3046B046064608E0206816F8C9
:1026E000011B8162B4F856000138A4F85600B4F812
:1026F0005600A8B18021002220463B46009501F0FB
:102700002BF9E8B9002EE9D138F8020B2168002630
:102710006FF35F208862E5E7022002B0BDE8F08138
:102720004021002220463B46009501F015F920216A
:102730000028C4F8881018BF032002B0BDE8F0815B
:102740002020C4F88800032002B0BDE8F08100001A
:10275000FEE700000000000000688169890701D5DC
:10276000002181628169C90718BF7047816941F002
:1027700001018161704700002DE9F04381B00446FA
:1027800000688369DB0602D4002600254DE00D4673
:102790001021C16120688169890638D41646002756
:1027A00005F101094FF0000806E000BF20688169CB
:1027B00001F0200139432FD1B9F1000FF6D0FDF718
:1027C000FBFE15B1801BA842F0D92068416894F83F
:1027D0004220202A82690DD011F480410AD112F4DE
:1027E000004107D0416841F480414160FDF7E4FEBB
:1027F000064600BF206880698006D7D4FDF7DCFE5E
:10280000801B1A28F6D348F020080127CEE70121C3
:102810004FF0000821B905E0B7FA87F1490909B17D
:102820002021C16148F00406012520688169CA059C
:102830001ED44A0524D489052AD4ADB12046FFF719
:102840008BFF20684EF60002CFF60062416811400F
:102850004160606C30436064202084F841000020B7
:1028600084F8420084F84000284601B0BDE8F083B7
:1028700046F0010601254FF48072C2614A05DAD59F
:1028800046F0080601254FF48062C2618905D4D55F
:1028900046F0020601254FF40071C161002DCDD133
:1028A000E2E70000000000002DE9F04182B004469C
:1028B00042F200001D461746DAB2C8F200000023BB
:1028C00000902046DDE9086800F066F820463146B1
:1028D000424600F0F5F818B1012002B0BDE8F081E1
:1028E000012D09D02068390A4246816220463146CE
:1028F00000F0E6F80028EFD1F9B220680022334654
:10290000816240212046CDF8008000F05DF800286B
:1029100018BF012002B0BDE8F081000000000000F7
:102920002DE9F04182B0044642F200001D461746F0
:10293000DAB2C8F200004FF0807300902046DDE963
:10294000086800F029F820463146424600F0B8F801
:1029500018B1012002B0BDE8F081012D09D0206836
:10296000390A424681622046314600F0A9F8002823
:10297000EFD1F9B2206800223346816280212046DF
:10298000CDF8008000F020F8002818BF012002B028
:10299000BDE8F081000000006FF39F21006819433B
:1029A000DDF800C041EA0241426849F6004341EACD
:1029B0000C0122EA5C52CFF6004321F000411A409C
:1029C00011434160704700002DE9F04381B0044697
:1029D000006880690840401AB0FA80F040099042CF
:1029E00026D10D4616461F46DDF8208003F1010969
:1029F00012E000BF206880692840401BB0FA80F0D8
:102A00004009B04218D0206880692840401BB0FAC5
:102A100080F04009B0420BD1B9F1000FF3D0FDF7BF
:102A2000CBFD002FE6D0A0EB0800B842EBD9E1E7E0
:102A3000002001B0BDE8F083606C40F020006064CD
:102A4000202084F84100002084F8420084F84000EF
:102A5000012001B0BDE8F08370B5044600688069CC
:102A6000800619D415460E4608E000BF206880692C
:102A7000800615D52068806980060DD42046314631
:102A80002A46FFF779FE48B9FDF796FD002EEDD0F6
:102A9000401BB042EED9E9E7002070BD012070BDB7
:102AA000606C40F020006064202084F84100002029
:102AB00084F8420084F84000012070BD000000004E
:102AC000F0B581B004460068806980071CD41546C3
:102AD0000E464F1C08E000BF20688069800716D5AD
:102AE0002068806980070FD4204631462A46FFF7C8
:102AF00043FEC0B9002FF3D0FDF75EFD002EEBD0F2
:102B0000401BB042ECD9E7E7002001B0F0BD606C9B
:102B100040F020006064202084F84100002084F808
:102B2000420084F84000012001B0F0BD0000000028
:102B300010B584B00024CDE90244CDE90044FEF78D
:102B40004FF80120ADF8000048F21F70029040F2EB
:102B50000110039068460194FEF712F80420FEF776
:102B60004FF804B010BD0000F0B587B044F2E0406B
:102B70000025C5F602000695CDE90455CDE90255BC
:102B8000016840F6000441F0020101600168C5F6E9
:102B9000020401F0020101910199016841F0010173
:102BA00001600168012201F00101019101990168B0
:102BB00041F00401016001684FF4005601F0040186
:102BC00001910199016841F08001016000684FF4B2
:102BD000005100F080000190019820460127FDF788
:102BE000DBFC02A92046CDE90267CDE90475FDF7BB
:102BF000FBFB07B0F0BD000080B540F2681045F265
:102C00000041C2F2004047F2B152C4F20001C3F2E7
:102C10007002C0E90012002181600122C0E9032195
:102C2000C0E90511C0E90711FDF71AFD08B1FDF76C
:102C3000D3FB40F268100021C2F20040FDF7C4FC53
:102C400008B1FDF7C9FB40F268100021C2F2004054
:102C5000FDF7E2FC002808BF80BDFDF7BDFB80BD8D
:102C600080B540F2043041F20001C2F20040C4F2EB
:102C700001010C2201604FF4E13141600021C0E903
:102C800002110161C0E90521C0E90711C0E909117C
:102C9000FFF706FC08B1FDF79FFB40F2043000216E
:102CA000C2F20040FFF7D4FB08B1FDF795FB40F2FC
:102CB00004300021C2F20040FFF7A2FB08B1FDF78B
:102CC0008BFB40F20430C2F20040FFF77DFB00288E
:102CD00008BF80BDFDF780FB80BD00000000000044
:102CE000FEE7000000000000FEE70000000000001A
:102CF00000F007004FF0FF3C80F00703042B28BFD3
:102D00000423033838BF00200CFA03F399430CFA6C
:102D100000F301FA00F022EA0301084370470000C3
:102D20007047000000000000F0B581B044F22C476D
:102D3000C5F6020757F8042C02F00302032A02D159
:102D4000012001B0F0BD054657F82C0C0C4620F0D0
:102D5000806047F82C0CFDF72FFC064657F82C0C2A
:102D6000000105D5FDF728FC801B0228F6D964E098
:102D700057F8040CEE6895E80E0020F47C30012C26
:102D800040EA0130A2F101016FF35F214FF47E426E
:102D900002EB432247F8040C92B24FF0FE4302EBE1
:102DA00001004FF4FE012A6901EB064101F4FE0126
:102DB00003EB0262084402F0FE410844F860386800
:102DC000696920F0C00040EA010038603868A969EC
:102DD00020F0200040EA0100386038684FF6F871B2
:102DE00020F0100038603869EA6920EA01004FF4E9
:102DF000001140EAC2003861386808BF4FF4801102
:102E000040F01000002C386008BF4FF400213868F3
:102E10000843386057F82C0C40F0806047F82C0CC1
:102E2000FDF7CAFB044600BF57F82C0C000107D47D
:102E3000FDF7C2FB001B0328F6D3032001B0F0BD51
:102E4000002001B0F0BD0000F0B581B044F22C4785
:102E5000C5F6020757F8042C02F00302032A02D138
:102E6000012001B0F0BD054657F82C0C0C4620F0AF
:102E7000805047F82C0CFDF79FFB064657F82C0CAA
:102E8000800005D5FDF798FB801B0228F6D964E089
:102E900057F8040CEE6895E80E0020F07C70012CC9
:102EA00040EA0150A2F101016FF35F214FF47E422D
:102EB00002EB432247F8040C92B24FF0FE4302EBC0
:102EC00001004FF4FE012A6901EB064101F4FE0105
:102ED00003EB0262084402F0FE410844786138685E
:102EE000696920F4406040EA010038603868A969E7
:102EF00020F4007040EA0100386038684FF6F8713D
:102F000020F480703860B869EA6920EA01004FF067
:102F1000807140EAC200B861386808BF4FF4000110
:102F200040F48070002C386008BF4FF4800138688E
:102F30000843386057F82C0C40F0805047F82C0CB0
:102F4000FDF73AFB044600BF57F82C0C800007D46D
:102F5000FDF732FB001B0328F6D3032001B0F0BDC0
:102F6000002001B0F0BD000070470000000000002C
:102F7000B0B501380024B4EB106F01D00120B0BD12
:102F80004EF210050F21CEF2000568604FF0FF30C1
:102F900000F04EFDAC60072028602046B0BD000068
:102FA00080B5FDF77DFD80BD70B59CB044F618047A
:102FB00040F22C4509A84C21C5F60204C5F60005CF
:102FC000FDF7C3F902200026CDE90766CDE90566C5
:102FD000CDE90366CDE90166FDF746FE0096286857
:102FE00020F001002860286800F0010000902068AF
:102FF00040F440402060206800F440400090009879
:1030000020688004FCD54FF6DC40CFF6FF702158D5
:1030100041F002012150205800F002000090009879
:1030200000200090206840F440402060206800F4B8
:1030300040400090286840F001002860286800F0B7
:1030400001000090009800BF20688004FCD501209A
:1030500009904FF480300A9002200521CDE912003A
:103060001491C021CDE91510CDE9170009A8082455
:1030700019940025CDE91A55FEF75EFEA0B93F2050
:10308000019003204FF48061CDE9020540200494B3
:10309000CDE90500CDE9071001A80421FEF74CFC9D
:1030A000002804BF1CB070BDFDF796F900000000B9
:1030B0004EF6885042F2000CCEF20000C5F2002C11
:1030C000016841F470010160DCF8000000F00F00BD
:1030D000062806D8DCF80000072161F30300CCF8CD
:1030E000000044F200404EF67F52C5F60200CEF6D4
:1030F000F622016841F001010160002101610368CD
:103100001A400260DCF80020120706D5DCF8002027
:10311000072363F30302CCF8002040F20022816110
:10312000C161C0F20222016282620022C0F2FF127B
:10313000C26240F28022C0F20112026341638263E4
:10314000C16302644164026822F480220260016665
:1031500041F20000C5F600400068B1EB507F05D198
:1031600048F208100121C5F20010016044F200008D
:1031700043F2D201C5F20020016070470000000058
:1031800010B5416E01B3016845F20C3CC0F6000C6D
:1031900045F2143E8A68C0F6000E8968C2F34262A6
:1031A0004C0F1CF802301EF802101A011EF80430F1
:1031B000B2FBF1F11CF80420A0F868101201B2FB78
:1031C000F3F2A0F86A2010BD0121A0F86A10A0F85F
:1031D000681010BD00000000816ACA070CD18A0780
:1031E00015D44A071ED40A0727D4CA0630D48A0643
:1031F00039D44A0655D541E00268D0F82CC053684E
:1032000023F4003343EA0C0353608A07E9D50268CC
:10321000D0F830C0536823F4803343EA0C03536082
:103220004A07E0D50268D0F834C0536823F48023FD
:1032300043EA0C0353600A07D7D50268D0F838C0B8
:10324000536823F4004343EA0C035360CA06CED507
:103250000268D0F83CC0936823F4805343EA0C031F
:1032600093608A06C5D50268D0F840C0936823F4FD
:10327000005343EA0C0393604A0612D50268D0F863
:1032800044C0BCF5801F536823F4801343EA0C0349
:10329000536006D1536823F4C00C836C43EA0C03DB
:1032A0005360090658BF70470168C06C4A6822F431
:1032B0000022104348607047B0B582B00446002039
:1032C000C4F89000FDF778F92168054609680907F8
:1032D00019D54FF4001100226FF07E400090204677
:1032E0002B4600F039FB70B1206850E8000F2168D0
:1032F00020F0800041E80002002AF5D12020C4F827
:10330000880003202FE020680068400723D54FF491
:10331000800100226FF07E40009020462B4600F096
:103320001BFBC0B1206850E8000F216820F49070AA
:1033300041E80002002AF5D1206850E8020F216818
:1033400020F0010041E80202002AF5D12020C4F853
:103350008C00032007E02020C4F88800C4F88C000B
:103360000020E0662067002184F8841002B0B0BD20
:10337000016851E8001F026821F4907142E80013CF
:10338000002BF5D14FF6FE7CCEF6FF7C026852E8AA
:10339000022F036802EA0C0243E802210029F5D15A
:1033A000C16E01290AD100BF016851E8001F0268FF
:1033B00021F0100142E80013002BF5D12021C0F8C4
:1033C0008C100021C16641677047000000000000BA
:1033D000F0B583B004460368806846F6F316D4E976
:1033E0000312104362691043E2691F68CCF6FF764E
:1033F000104307EA06021043186058684FF2FF476F
:1034000020F4405240F6004011435960C5F60000D8
:10341000A1698342C1F2FF171CBF226A11439A6857
:1034200047F2FF763A40C4F2000611439960DA6A27
:1034300044F2544122F00F02676AC5F602013A4392
:10344000B342DA624FF0800225DD40F6FF77C4F226
:103450000107BB423FDD834200F0718041F200472B
:10346000C4F20107BB4200F0758041F20007C4F2CC
:103470000107BB4240F0A5800A68C2F3C203052BD6
:1034800000F296800122DFE813F09C009100950085
:10349000970099009B0044F6FF37C4F20007BB4237
:1034A00033DC44F20047C4F20007BB4200F05D8009
:1034B00044F60007C4F20007BB4240F082800A686D
:1034C00002F00703052B00F273800022DFE803F00F
:1034D000796E7274767847F60007C4F20007BB4233
:1034E00000F04E8047F60047C4F20007BB4240F0B0
:1034F00068800A6802F00703052B00F25980002259
:10350000DFE803F05F54585A5C5E44F60047C4F2AB
:103510000007BB4200F03F8045F20007C4F20007FD
:10352000BB4240F04E800A6802F00703052B00F210
:103530003F800022DFE803F0453A3E4042444A68BB
:1035400002F00703052B33D80222DFE803F03A2FFD
:10355000333537390A68C2F3C203052B28D8012254
:10356000DFE803F02F24282A2C2E0A6802F0070334
:10357000052B1DD80022DFE803F024191D1F21238D
:103580000A6802F00703052B12D80022DFE803F0D7
:10359000190E121416180A6802F00703052B07D833
:1035A0000022DFE803F00E0307090B0D042208E0F8
:1035B000802206E0082204E0102202E0202200E03F
:1035C00040222368834240F60010C0F23D0000F024
:1035D0005380E369B3F5004F40F07880402A00F251
:1035E0001A810025DFE812F04100120117011701CE
:1035F0001B011701170117011F01170117011701FF
:1036000017011701170117012601170117011701EB
:1036100017011701170117011701170117011701EA
:1036200017011701170117013401170117011701BD
:1036300017011701170117011701170117011701CA
:1036400017011701170117011701170117011701BA
:1036500017011701170117011701170117011701AA
:10366000170117011701170131010025FEF7B8FAFC
:10367000002840F0EF8049E1931E1E2B00F2748079
:103680000027DFE813F01F0077007A00770077004B
:1036900077007E007700770077007700770077006B
:1036A0007700B80077007700770077007700770021
:1036B0007700770077007700770077007700770052
:1036C000770083000027FDF7F3FA5FE0402A00F25D
:1036D000E6800025DFE812F04100DE00E300E300B1
:1036E000E700E300E300E300EB00E300E300E300B6
:1036F000E300E300E300E300F200E300E300E300A3
:10370000E300E300E300E300E300E300E300E300A1
:10371000E300E300E300E3000001E300E300E30073
:10372000E300E300E300E300E300E300E300E30081
:10373000E300E300E300E300E300E300E300E30071
:10374000E300E300E300E300E300E300E300E30061
:10375000E300E300E300E300FD000025FEF740FA8C
:10376000002840F0BA80D1E0402A03D14FF4004055
:1037700000270BE00020012708E06846FDF7ACFABF
:1037800002E06846FDF73CFB0027019878B3616AC8
:1037900045F2F422C0F600026668012532F81120D5
:1037A00006EB4603B0FBF2F19942C0F0AF80330361
:1037B000994200F2AB8000210023FCF789FD090249
:1037C000002341EA10613246000210EB560041F13D
:1037D0000001FCF77DFD4FF6FF42A0F54071C0F2FD
:1037E0000F02914205D821683D46C8608EE03D46F3
:1037F0008CE001258AE051F8540C800649F2000063
:10380000C0F2D03000F18B800027BFE70025FEF723
:10381000FBF9F8B97AE000200125D8B976E06846CE
:10382000FDF75AFA02E06846FDF7EAFA002501982A
:1038300080B96BE051F8540C800649F20000C0F2E8
:10384000D03073D4002528B960E04FF40040002543
:1038500000285BD0616A45F2F422C0F6000232F81B
:1038600011106268B0FBF1F0510801EB4000B0FBB1
:10387000F2F0A0F110014FF6EF72914208D84FF626
:10388000F07122680140C0F342000844D0603DE07E
:1038900001253BE00025FEF7B7F9F0B936E000203E
:1038A0000125D0B932E06846FDF716FA02E0684615
:1038B000FDF7A6FA0025019878B927E051F8540CD5
:1038C000800649F20000C0F2D03039D4002520B97A
:1038D0001CE04FF400400025C0B1616A45F2F422BB
:1038E000C0F6000232F811106268B0FBF1F000EB94
:1038F0005200B0FBF2F0A0F110014FF6EF729142CE
:1039000003D880B22168C86000E001254FF00110A3
:10391000A0660020C4E91D00284603B0F0BD51F8A0
:10392000541C0027C1F3C101C8402FE751F8541CB3
:103930000025C1F3C101C84000287FF48BAFE5E743
:1039400051F8541C0025C1F3C101C8400028C4D15E
:10395000DCE70000000000002DE9F04381B00446E0
:103960000068C0690840401AB0FA80F040099042EF
:1039700039D1DDF820800D461646994608F1010739
:1039800009E000BF2068C0692840401BB0FA80F001
:103990004009B0422BD1002FF4D0FCF70DFEB8F156
:1039A000000F01464FF0030022D0A1EB0901414571
:1039B0001ED8206801684907E4D5C16909071AD4EF
:1039C000C1690905DED54FF4006101622046FFF7A9
:1039D000CFFC2020C4F89000002084F8840003204D
:1039E00001B0BDE8F083002001B0BDE8F083002005
:1039F00001B0BDE8F083082505622046FFF7B8FC5A
:103A0000C4F89050002084F88400012001B0BDE883
:103A1000F083000000000000FEE70000000000004E
:103A20004EF60C50CEF200000068C0F30220704742
:103A30004EF6145300F00F02CEF20003B0F1FF3F38
:103A40001A4400F16043C8BF03F5644208011070D6
:103A500070470000000000004EF60C514FF6FF03C7
:103A6000CEF200010A681A4060F30A2242F0806038
:103A700040F0FD70086070470178F9B1421C0020E9
:103A800008E000BF6FF02F030B4412F8011B43EA5C
:103A9000001091B1A1F130030A2BF3D3A1F161031E
:103AA000062B03D26FF05603EEE700BFA1F14103EE
:103AB000052B02D86FF03603E6E770470020704709
:103AC000017859B1421E002000EB800001EB40005C
:103AD0009178303801320029F6D1704700207047C4
:103AE000A0F141011A2938BF2030704700000000C2
:103AF0008C464AB10138ACF1010300BF13F8011F35
:103B0000013A00F8011FF9D160467047000000003B
:103B100010B504462AB1CBB2204611461A46FCF72E
:103B20000DFC204610BD000002784AB1013000BFF4
:103B30000B789A4204D110F8012B0131002AF7D1F9
:103B40000878101A70470000002100BF425C013164
:103B5000002AFBD1481E70472DE9F04715468A46DA
:103B600006464AB1A81E222806D901F019F90521F6
:103B700001600020BDE8F087FCF7DCFB076800BFB0
:103B800016F8010B395CC907FAD12B2807D02D286C
:103B900004D14FF001084FF0004904E0013E4FF01E
:103BA00000086FF00049317821B3302924D37A29F5
:103BB0004FF0000000F2A680A1F13A02072AC0F0FF
:103BC000A180082D08BF302919D015B3102D42D17E
:103BD00030293FD1304610F8011F41F020017829EB
:103BE00038D116F8021F472934D3CAF80000002044
:103BF000BDE8F087CAF800600020BDE8F0873446D1
:103C0000082514F8010F40F020006F2808BFB41CED
:103C100022E0302909D1344614F8010F6E280BDC5C
:103C20004F280DD0582811D06EE0A1F131000025A9
:103C3000092838BF0A250EE0782807D06F2863D1FD
:103C400016F8020F382863D2082504E016F8020F90
:103C500047285DD2102534462678B6B3B9FBF5FE69
:103C6000BEFBF5F000FB15EC0020012307E000BFD0
:103C700000FB0510012214F8016F13464EB3BA5D24
:103C8000202A03D1A6F130010FE000BF12F0980FF7
:103C90001ED0A6F1570102F00802A94200DA22B9AB
:103CA000A6F13701A94213DA92B90022704588BF04
:103CB000012262EA0302D2074FF00002DBD1704515
:103CC000D6D16145D4DD0022D5E70122002000E0F5
:103CD0001A46D10704D101F063F802210160484679
:103CE000B8F1000F18BF4042BAF1000F08BFBDE89D
:103CF000F087214611F8012BBA5CD20708BF214694
:103D0000CAF80010BDE8F087382801D20825A3E7DB
:103D10000020CAF80040BDE8F08700000000000065
:103D200010B540F29C30C2F200400078002808BF75
:103D300010BD40F2C01446F26761C2F20044C6F200
:103D40006661206850FB01F18A0802EBD1712022E4
:103D500001EB8101A0EB410040F2C411C2F200412D
:103D600001EB401040F29C31C2F20041FFF7C0FE6F
:103D700020680130206040F2BC102168C2F200408F
:103D8000016010BD0000000010B5022813D1486882
:103D9000FFF796FEC0B2022817D001281FD050BBF3
:103DA00040F600004FF40051C5F602000122FCF776
:103DB000F3FB002010BD45F22C300968C0F600006E
:103DC00000F0DEFF4FF0FF3010BD40F600004FF472
:103DD0000051C5F60200FCF7D7FB002010BD40F6ED
:103DE00000004FF40051C5F6020000220024FCF749
:103DF000D3FB204610BD002010BD000000000000D5
:103E000080B502A000F0BCFF002080BD1B5B324AE1
:103E10001B5B48000000000010B5002808BF10BD63
:103E2000044600BF00F030F8013CFBD110BD00009B
:103E300070B5017891B14EF2C656451E0024CBF202
:103E4000334600BF0846FFF74BFEA97884EA060216
:103E5000841801350029F5D1204670BD002070BDC1
:103E600070B54D1E461E00BF16F8010FFFF738FE55
:103E700015F8011F04460846FFF732FE0CB18442D4
:103E8000F2D0201A70BD000080B502A000F078FFCB
:103E900080BD00BF0820080080B540F20810C2F2C3
:103EA0000040016802A000F06BFF002080BD00BF51
:103EB00025640A000000000080B582B00A28019045
:103EC0000CD10D208DF8030040F204300DF10301F8
:103ED000C2F200400122FF23FEF7D6FB40F204307D
:103EE00001A9C2F200400122FF23FEF7CDFB019899
:103EF00002B080BD00000000B0B540F29C3000214F
:103F0000C2F2004020220024FFF702FE40F2983562
:103F100040F2BC10C2F2004540F2C011C2F20040B3
:103F2000C2F200412C60026809688A4208BFB0BD35
:103F3000016846F267620131C6F2666251FB02F225
:103F400040F29C34C2F2004401609308204603EB27
:103F5000D27240F2C413C2F2004302EB8202A1EB20
:103F6000420203EB42112022FFF7C2FD2046FFF779
:103F7000EBFD286045F26C70C0F60000214600F0B1
:103F8000FFFEB0BD000000002DE9F04381B040F21B
:103F90009839C2F20049B9F1000F49D040F26010DF
:103FA00040F26417C2F20040C2F200470468386869
:103FB000844217D200250FF28008002604E000BFDB
:103FC0001034386884420FD2D9F80000216800F01C
:103FD00087FB0028F4D021684046013600F0D0FE6F
:103FE0002546EDE70026002516B3012E0DD140F23F
:103FF0009C342968C2F2004420222046FFF778FD55
:104000002046FFF7A1FDC9F800000A2001F00EF9D3
:1040100045F20270C0F6000000F0B2FE45F26C708E
:1040200040F29C31C0F60000C2F2004100F0A8FE50
:1040300001B0BDE8F08300BF0A2573000000000056
:10404000B0B540F2BC1540F2C010C2F20045C2F259
:104050000040296800680A3881422CDB286850B388
:1040600040F29C340021C2F2004420222046FFF797
:104070004FFD286846F267610138C6F2666150FB61
:1040800001F128608A0802EBD17140F2C412C2F239
:10409000004201EB8101A0EB4101204602EB4111FE
:1040A0002022FFF725FD2046FFF74EFD40F2983114
:1040B000C2F20041086045F26C7040F29C31C0F6DB
:1040C0000000C2F2004100F05BFEB0BD0000000045
:1040D0002DE9F04105460A200C4601F0A7F8022D13
:1040E00004DB60681AA1FFF71FFD20B119A001F0E1
:1040F000A3F8012600E0002640F2601040F26417A9
:10410000C2F20040C2F2004705683868854219D201
:1041100045F26C740FF25C08C0F6000407E000BFC3
:104120000A2001F083F81035386885420AD22968E0
:10413000204600F025FE002EF2D06968404600F0CF
:104140001FFEEDE70A2001F071F80020BDE8F081C4
:104150002D6C00007573653A2068656C70202D6CBD
:1041600020666F72206C697374206F6E6C792E0AF2
:10417000000000000A092573000000000000000094
:104180002DE9F04FC7B001280C4607DC45F2C040CE
:104190002168C0F6000000F0F3FD24E005466068E9
:1041A0000DF21B1100F0D8F900281CD49DF81B015A
:1041B000032D4FEA40068DF81B6119DBA0686FA143
:1041C000FFF7B2FCA0B1A0686DA1FFF7ADFC00281D
:1041D00000F0D280A0686BA1FFF7A6FCB0FA80F0D7
:1041E0004009450005E04FF0FF3047B0BDE8F08FD3
:1041F000002545F2AF30C0F6000001F01DF8F0B226
:1042000045F27F3645F283380021C0F600060DF1F5
:104210001B07C0F600084FF0000A04905AA0039153
:1042200000F0AEFD4FF0000916E000BF304600F090
:10423000A7FD304600F0A4FD09F10209304600F068
:104240009FFD09F10109304600F09AFD09F10109CD
:104250001FFA89F010285DD209EB0A0082B2B2F58C
:10426000807F07D9002DEED0012DE7D0022DDDD0C3
:10427000ECE700BF022D3C4617FA80FB07D0012D6A
:1042800009D00598ADB9CDF800B0012006E00420B2
:10429000CDF800B002E0CDF800B002200190FF2080
:1042A000029040F268100123C2F200400499FCF72A
:1042B0002BFA059030B135B3012D26D0022D2746BB
:1042C000B4D0C3E7C5B1012D0FD0022D1FD19BF88B
:1042D0000010404600F054FD9BF8011040460BF1E1
:1042E000020B00F04DFD09F102091BF8011B4046CD
:1042F00000F046FD09F101099BF80010404600F06E
:104300003FFD2746A2E727469DE7274696E7274633
:104310009CE700BF304600F033FD002404EB0A00A8
:1043200081B25820B1F5807F88BF20200FD8059A30
:104330006AB9785C411CC9B2212907D3A0F12001D8
:104340005E2904D97F38802803D200BF2E2000F0D8
:104350006DFF0134102CE1D10A2000F067FF0398B3
:1043600000F1100A1FFA8AF1B1F5807FFFF456AF11
:10437000002047B0BDE8F08F01253AE76200000059
:104380007700000064770000253032583A200000A2
:10439000B0B584B002280C4609DC45F2F73021683C
:1043A000C0F6000000F0ECFC4FF0FF3435E0606830
:1043B0000DF10F0100F0D0F8002829D49DF80F006E
:1043C0004500A0688DF80F5000F02AF9002822D48B
:1043D0000DF10E02009282B2B0F5807F40F26810BB
:1043E0004FF001014FF002030191E9B2C2F2004027
:1043F000B8BF0123FF250295FCF786F99DF80E1042
:10440000044645F27730C0F6000000F0B9FC04E045
:104410004FF0FF3401E04FF0FF34204604B0B0BD50
:1044200006A000F009FF0DA000F006FF45F27F3462
:10443000C0F60004204600F0A3FCFBE76932636489
:10444000657620372D6269742061646472657373C8
:10445000206465746563746F723A00002020202028
:1044600020302020312020322020332020342020F2
:104470003520203620203720203820203920206188
:1044800020206220206320206420206520206600F8
:1044900070B586B003280C4609DC45F25840216807
:1044A000C0F6000000F06CFC4FF0FF343BE06068A9
:1044B0000DF1170100F050F800282CD49DF81700DA
:1044C0004600A0688DF8176000F0AAF8002825D4EF
:1044D0000546E06800F0D4F80028049021D40120BB
:1044E000019040F2681004A900910223F1B2C2F2D7
:1044F0000040AAB2B5F5807FB8BF0123FF2602961F
:10450000FCF7C6F9044645F277300499C0F600007E
:1045100000F036FC07E04FF0FF3404E04FF0FF34CA
:1045200001E04FF0FF34204606B070BD00000000EF
:10453000FEF7FEFAFCF7C4FAFEF736FDFEF714FBB1
:10454000FEF78EFBFEF758FB00F026FA00F050FA5B
:10455000FCE7000000000000B0B582B00D4601A9E4
:1045600000220446FFF7F8FA01992870097831B162
:104570001DA000F005FC4FF0FF3002B0B0BD217867
:104580000029F5D06FF0070151FA80F0702808D3A8
:1045900005A00821772200F0F3FB6FF0010002B0C4
:1045A000B0BD002002B0B0BD1B5B33316D457272EF
:1045B0006F723A2044657669636520616464726550
:1045C0007373206F7574206F662072616E6765204B
:1045D000283078253032582D30782530325829212E
:1045E0000A1B5B306D0000001B5B33316D4572723E
:1045F0006F723A2044657669636520616464726510
:104600007373206973206E6F742061206E756D6204
:104610006572210A1B5B306D000000000000000085
:1046200010B582B001A900220446FFF795FA01995E
:10463000097819B9217809B102B010BD03A000F0C2
:104640009FFB4FF0FF3002B010BD00BF1B5B33314A
:104650006D4572726F723A20526567697374657244
:104660002061646472657373206973206E6F7420B7
:1046700061206E756D626572210A1B5B306D0000F2
:1046800010B582B001A900220446FFF765FA01992E
:10469000097819B9217809B102B010BD03A000F062
:1046A0006FFB4FF0FF3002B010BD00BF1B5B33311A
:1046B0006D4572726F723A205265676973746572E4
:1046C0002076616C7565206973206E6F742061209F
:1046D0006E756D626572210A1B5B306D0000000013
:1046E000B0B5012807DB0D4629B104462846FFF77F
:1046F0002BFAA04201D20020B0BD0020002CC8BF80
:104700000120012C16DB40F29C3C2B78C2F2004CBD
:104710009CF800209A420DD1012200BF0020A24245
:10472000B8BF0120944205D01CF80230A95C0132C8
:104730008B42F3D080F00100B0BD0000000000000B
:1047400080B5012806DC096809A000F019FB4FF0CC
:10475000FF3080BD4868FFF78FF90146026845F2D7
:104760003A60C0F6000000F00BFB002080BD00BFE7
:1047700055736167653A202573203C6164647265F6
:1047800073733E2028696E20686578290A0000004E
:10479000B0B503280C460BDB6068FFF76DF90546E2
:1047A000A068FFF78DF920280CD312A000F044FD7B
:1047B00045F297502168C0F6000000F0E1FA4FF092
:1047C000FF30B0BD01462868C8402A4600F001030A
:1047D00002A000F0D5FA0020B0BD00BF42697420ED
:1047E00025752040203078253038783A2025750A04
:1047F000000000004572726F723A20496E76616C5B
:10480000696420626974206C6F636174696F6E20E3
:10481000617267756D656E74000000000000000035
:10482000F0B581B002280C4607DC216810A000F02A
:10483000A7FA4FF0FF3001B0F0BD6068FFF71CF938
:104840000546A068FFF73CF978B145F23A660446A0
:10485000C0F600062F4600BF57F8042B3046294605
:1048600000F08EFA013C3D46F6D1002001B0F0BDCB
:1048700055736167653A202573203C6164647265F5
:1048800073733E2028696E2068657829203C6E7518
:104890006D5F776F7264733E2028696E2064656374
:1048A000696D616C290A00002DE9F04190B0014664
:1048B000684600F039F940F208180128C2F20048B1
:1048C0002CDB04460098FFF7B3FA40F2601140F287
:1048D0006416C2F20041C2F200460F6831688F428E
:1048E00014D2054604E000BF1037306887420DD26D
:1048F000B8688542F8D100983968FFF7B1FA002806
:10490000F2D1FA6869462046904705E0009906A072
:1049100000F036FA4FF0FF30C8F80000D8F8000079
:1049200010B0BDE8F08100BF222573223A20636FEA
:104930006D6D616E64206E6F7420666F756E642E8F
:1049400020557365202268656C702220746F206C7E
:1049500069737420616C6C20636F6D6D616E642E81
:104960000A0000000000000080B582B040F2043070
:104970000DF10701C2F200400122FF23FDF70CFEFA
:104980009DF80710002818BF4FF0FF31084602B00D
:1049900080BD000000000000B0B540F2601140F2A0
:1049A0001400C2F20041C2F2004040F264140860F8
:1049B00040F20411C2F20041C2F200448842216078
:1049C0000CD2A0F1100500BF55F8100FFFF730FA18
:1049D000216805F110028A42A860F5D345F2027001
:1049E000C0F6000000F0CCF9B0BD000000000000EF
:1049F0002DE9F04F81B0FFF7B7FF411C00F08E802A
:104A000040F20C0B40F2983640F29C394FF000080F
:104A10006FF0070AC2F2004BC2F20046C2F2004930
:104A2000002406E0FFF7B0FAFFF79EFF411C00F0FC
:104A300075805AFA80F1C5B213290DD80127DFE835
:104A400001F00D1F5A1F1F5A1F1F1F1F1F1F1F1F5F
:104A50001F1F1F1F1F5300BF7F2D11D19BF8000088
:104A600018B9FFF711FAFFF70FFA30680028DBD00A
:104A70000138306009F80080FFF706FA16E000BF41
:104A8000012C01D15B2D1DD01CB1A5F143010229E0
:104A900029D3022C03D1A5F14101012914D9092DF3
:104AA000C0D0316809F80100481C30609BF8000054
:104AB0000028B9D0082D18BF7F2DB5D0284600F0AA
:104AC0005FF8B1E702270FE09BF80010306800297B
:104AD00008BF0430FFF7A0F9412D02D1FFF7B0FA6B
:104AE00001E0FFF709FA0027FFF73EFF411C3C46B3
:104AF0007FF49FAF12E03068002409F800400A20DC
:104B000000F03EF8FFF70CF94846FFF7CDFE45F2FE
:104B100002703460C0F6000000F032F901B0BDE868
:104B2000F08F000000000000F0B581B00746084695
:104B30000C46FFF709F800284FF000024FF000067E
:104B400018D40023E55C55B1092D18BF202D06D0DF
:104B5000711CE51847F826500E4600E00133E55C6D
:104B600025B1092D18BF202DF8D1E254834203F15D
:104B70000103E7DB304601B0F0BD0000000000009B
:104B800080B582B00A288DF8070008D140F20430C1
:104B900009A1C2F200400122FF23FDF775FD40F29A
:104BA00004300DF10701C2F200400122FF23FDF79E
:104BB0006BFD02B080BD00BF0D00000000000000D2
:104BC0002DE9F04740F2C010C2F2004001680268CF
:104BD000A1F1010A0B2A03DB0068A0F10A0600E03C
:104BE00000260A2000F022FB56451FD840F2C410D0
:104BF0004CF6CD49C2F20040002400EB4615CCF63D
:104C0000CC490FF234083746A7FB0901C8082146F2
:104C100000EB8000404205EB8012404600F0B0F807
:104C200001340137301920355045EDD90A2000F004
:104C3000FDFA0020BDE8F0872532642E2025730A96
:104C4000000000000000000080B502A000F0F4FAAF
:104C5000002080BD4275696C642054696D653A20FE
:104C60004465632032332032303233202D203030FF
:104C70003A33353A32390000B0B502280C4606DC2A
:104C8000216808A000F07CF84FF0FF30B0BD6068EC
:104C9000FEF7F2FE0546A068FEF7EEFE2860002053
:104CA000B0BD00BF55736167653A202573203C6134
:104CB0006464726573733E2028696E206865782984
:104CC000203C76616C75653E2028696E20686578A9
:104CD000290A00000000000070B504280C461EDB05
:104CE0006068FEF7C9FE0546A068FEF7E9FE0646C5
:104CF000E068FEF7E5FE1F2E01D90EA00DE00128A9
:104D00000AD8B0FA80F12A684909B0401043B1408E
:104D100088432860002070BD10A000F08DFA45F295
:104D2000DE502168C0F6000000F02AF84FF0FF3096
:104D300070BD00BF4572726F723A20496E76616C29
:104D4000696420626974206C6F636174696F6E209E
:104D5000617267756D656E74000000004572726F58
:104D6000723A20496E76616C6964206269742076BB
:104D7000616C756520617267756D656E7400000009
:104D80000FB4054B10B503A9044A029800F01CF8B3
:104D900010BC5DF814FB0000B93E00080C010024B3
:104DA000004870470000002402E008C8121F08C134
:104DB000002AFAD170477047002001E001C1121F9C
:104DC000002AFBD1704700002DE9FF4F8DB00F4640
:104DD0000546002606E025280BD0DDE90F12904796
:104DE0006D1C761C28780028F5D111B03046BDE83E
:104DF000F08F0024A246A1460122EC4900E00443C2
:104E000015F8013F203B02FA03F00842F7D1287859
:104E10002A2810D06FF02F022878A0F1300109293C
:104E200014D80AEB8A0102EB410144F0020400EBC2
:104E3000010A6D1CF0E701CF5FEA000A03D544F4D4
:104E40000054CAF1000A44F002046D1C28782E2890
:104E500017D115F8010F44F004042A280ED06FF082
:104E60002F022878A0F1300109290AD809EB89011D
:104E700002EB410100EB01096D1CF2E757F8049BBE
:104E80006D1C28786C280FD006DC4C2817D06828B9
:104E90000DD06A2814D104E0742810D07A280FD1DC
:104EA0000DE044F400140AE044F4801401E044F4FA
:104EB00040146978814202D104F580146D1C6D1C88
:104EC0002A786E2A1FD00CDC632A31D004DC002A39
:104ED0008BD0582A11D1A3E0642A68D0692A0CD15A
:104EE00065E0732A2ED004DC6F2A73D0702A04D1B7
:104EF0009BE0752A6FD0782A6ED01046DDE90F123C
:104F00009047761C50E1C4F30250022806D00328D3
:104F100009D0042801CF09D0066045E101CFF1177F
:104F2000C0E9006140E101CF06803DE106703BE150
:104F300017F8040B8DF8000000208DF80100EB46F7
:104F4000012003E057F804BB4FF0FF3061074FF03A
:104F5000000102D40DE008F10101884649450FDA4D
:104F60008045F8DB1BF808100029F4D108E008F1AF
:104F7000010188468142FADB1BF808100029F6D1AE
:104F8000DDE90F23AAEB08008146214600F036F93F
:104F9000304400EB080604E0DDE90F121BF8010BBA
:104FA0009047B8F10108F7D221464846F7E00A21B8
:104FB000C4F302534FF0000B0891022B04D001CF31
:104FC000C117032B09D00AE0FF1D27F00707F7E8F8
:104FD000020108E032E01FE020E000B2C117042B1C
:104FE00001D140B2C117031E71F1000307DA4FF07F
:104FF000000CD0EB0C006CEB01012D2302E023052B
:1050000004D52B238DF82430012303E0E30701D0DE
:105010002023F7E7984658E00A2110E010210EE01F
:1050200010204FF0000B08900CE010214FF0000B07
:1050300044F004044FF00809089103E008214FF000
:10504000000B0891C4F30253022B04D001CF0021BE
:10505000032B06D006E0FF1D27F00707F7E8020143
:1050600003E080B2042B00D1C0B24FF00008230748
:105070002BD5702A07D0DDF820C08CF0100C5CEA2C
:105080000B0C05D00EE040238DF82430012308E0FE
:1050900050EA010306D030238DF824308DF8252006
:1050A00002239846DDF820C08CF0080C5CEA0B0C5B
:1050B0000BD150EA010301D1630706D530238DF8E7
:1050C00024304FF00108A9F10109582A04D038A270
:1050D0000B9208AA0A920BE03AA2F9E75B46089AFB
:1050E000FBF7F6F80B9B9B5C0A9A521E0A92137010
:1050F00050EA0102F2D10A98ADEB000000F1200B5A
:10510000600702D524F4803401E04FF00109D9454D
:1051100002DDA9EB0B0000E0002000EB0B01414495
:105120000890AAEB010AE00306D4DDE90F2321462B
:10513000504600F063F806444FF0000908E009A962
:1051400011F80900DDE90F12904709F10109761CF9
:10515000C145F4DBE0030CD5DDE90F2321465046C1
:1051600000F04CF8064404E0DDE90F1230209047CF
:10517000761C0899481E08900029F5DC08E00A987A
:105180000A990078491C0A91DDE90F129047761CB4
:10519000BBF10001ABF1010BF1DC21465046DDE92A
:1051A0000F2300F019F806446D1C1BE609280100C6
:1051B000303132333435363738396162636465668D
:1051C000000000003031323334353637383941424F
:1051D00043444546000000002DE9F0410446002507
:1051E0001E461746880404D405E039462020B047FF
:1051F0006D1C641EF9D52846BDE8F0812DE9F0410B
:10520000044600251E469046C80301D5302700E01D
:105210002027880404D505E041463846B0476D1C78
:10522000641EF9D52846BDE8F08100000149FEF76B
:1052300043BE00000C01002410B5044601E0FEF757
:105240003BFE14F8010B04490028F8D1BDE81040DA
:105250000A20FEF731BE00000C010024004040404F
:105260004040404040404141414141404040404039
:1052700040404040404040404040404040050202E5
:1052800002020202020202020202020202202020A4
:105290002020202020202002020202020202909000
:1052A00090909090101010101010101010101010FE
:1052B0001010101010101010020202020202888852
:1052C000888888880808080808080808080808085E
:1052D0000808080808080808020202024000000046
:1052E0005D520008000000000102030401020304F3
:1052F00006070809010002000400060008000A0071
:105300000C0010002000400080000001010101039A
:105310000701000008040204080101016C65640033
:105320006C656420636F6E74726F6C001B5B333648
:105330006D55736167653A20257320535441544578
:105340000A205354415445206973206F6E65206FC5
:105350006620202D20303A206F66660A202D2031ED
:105360003A206F6E0A202D20323A20746F67676CE6
:10537000650A1B5B306D003078253032580A0020FA
:105380002020002530325820006765742072656740
:1053900069737465722076616C756500736574203D
:1053A00072656769737465722076616C756500203B
:1053B00020202020302020312020322020332020A7
:1053C0003420203520203620203720203820203956
:1053D000202061202062202063202064202065207E
:1053E00020662020202030313233343536373839AA
:1053F000616263646566001B5B33366D557361677C
:10540000653A2025732041444452200A20414444F7
:105410005220697320616E20696E74656765722021
:105420002830783038202D2030783737290A20521C
:10543000454720697320616E20696E7465676572E7
:105440002028307830303030202D203078464646C5
:1054500046290A1B5B306D001B5B33366D5573614B
:1054600067653A2025732041444452205245472025
:1054700056414C0A204144445220697320616E20F9
:10548000696E7465676572202830783038202D2069
:1054900030783737290A2052454720697320616EDA
:1054A00020696E746567657220283078303030303E
:1054B000202D20307846464646290A1B5B306D0079
:1054C0001B5B33366D55736167653A202573204148
:1054D000444452205B4D4F44455D0A2041444452B0
:1054E00020697320616E20696E746567657220287B
:1054F00030783038202D2030783737290A204D4F2A
:105500004445206973206F6E65206F663A0A202D2E
:1055100020622028627974652C2064656661756C50
:1055200074290A202D20772028776F7264290A2099
:105530002D2064772028646F75626C6520776F7208
:1055400064290A1B5B306D006932637363616E000E
:1055500069326364756D700064756D7020693263C3
:105560002064657669636520726567697374657226
:10557000007363616E2069326320646576696365D8
:1055800020616464726573730069326367657400D7
:105590006932637365740055736167653A202573DA
:1055A000203C616464726573735F696E5F686578DF
:1055B0002833322D62697473293E203C6269745F1E
:1055C0006C6F636174696F6E5F696E5F6465636958
:1055D0006D616C283020746F203331290A005573B7
:1055E0006167653A202573203C616464726573735A
:1055F0005F696E5F6865782833322D62697473293C
:105600003E203C6269745F6C6F636174696F6E5FAA
:10561000696E5F646563696D616C283020746F200A
:105620003331293E203C6269745F76616C75652870
:1056300030206F722031293E0A00307825783A20D8
:10564000307825780A007233320077333200726284
:105650000077620072656164007772697465732017
:1056600061203332206269742076616C7565207424
:105670006F2061206D656D6F7279206C6F6361744E
:10568000696F6E00726561642061206269742074C4
:105690006F206D656D6F7279206C6F636174696FD7
:1056A0006E00777269746520612062697420746F7E
:1056B000206D656D6F7279206C6F636174696F6EB8
:1056C0000072656164732061203332206269742046
:1056D0006D656D6F7279206C6F636174696F6E00B8
:1056E0005265616473206E756D626572206F66200D
:1056F00062797465732066726F6D206D656D6F726F
:1057000079007559616E6B6940726F6F743A200051
:105710005072696E74732064657461696C73206F74
:105720006620746865206275696C640052657475E2
:10573000726E732065786974207374617475732058
:105740006F66206C61737420657865637574656439
:1057500020636F6D6D616E640076657273696F6E44
:105760000068656C7000636C6561720025730050A1
:1057700072696E747320616C6C20617661696C6112
:10578000626C6520636F6D6D616E6473007374612C
:1057900074757300436C656172207465726D696E17
:1057A000616C20636F6E74656E740053686F772050
:1057B000636F6D6D616E6420686973746F727900D8
:1057C000E05700080000002408010000A84D000870
:1057D000E858000808010024B8060000B84D000889
:1057E000000000000090D0030090D00301010000F1
:1057F000100000001C5300082053000800000000A7
:10580000893D000848550008715500080000000057
:1058100021440008505500085855000800000000B9
:1058200081410008905500089C53000800000000CA
:1058300091440008895500088953000800000000C1
:105840009143000851560008A256000800000000CD
:10585000D94C00084E56000884560008000000008D
:105860009147000846560008C15600080000000095
:10587000414700084A560008595600080000000039
:10588000794C000854560008E0560008000000005B
:1058900021480008B8570008AB5700080000000076
:1058A000C14B0008595700081057000800000000BD
:1058B000494C0008615700086F57000800000000BD
:1058C000D14000088D5700082C5700080000000048
:1058D000993E000866570008945700080000000031
:0858E000013E00080000000079
:040000050800029954
:00000001FF
