:020000040800F2
:10000000B00E0024AD020008C93E000831390008D6
:10001000C13E0008810F0008F94B000800000000F5
:10002000000000000000000000000000494100083E
:10003000890F000800000000013F0008814100080E
:10004000C7020008C7020008C7020008C70200086C
:10005000C7020008C7020008C7020008C70200085C
:10006000C7020008C7020008C7020008C70200084C
:10007000C7020008C7020008C7020008C70200083C
:10008000C7020008C7020008C7020008C70200082C
:10009000C7020008C7020008C7020008C70200081C
:1000A000C7020008C7020008C7020008C70200080C
:1000B000C7020008C7020008C7020008C7020008FC
:1000C000C7020008C7020008C7020008C7020008EC
:1000D000C7020008C7020008C7020008C7020008DC
:1000E000C7020008C702000800000000C70200089D
:1000F000C7020008C7020008C7020008C7020008BC
:10010000C7020008C7020008C7020008C7020008AB
:10011000C7020008C7020008C7020008C70200089B
:10012000C7020008C7020008C7020008C70200088B
:10013000C7020008C7020008C7020008C70200087B
:1001400000000000000000000000000000000000AF
:10015000C7020008C7020008C7020008C70200085B
:10016000C7020008C7020008C7020008C70200084B
:10017000C7020008C7020008C7020008C70200083B
:10018000C7020008C7020008C7020008C70200082B
:10019000C7020008C7020008C7020008C70200081B
:1001A000C7020008C7020008C7020008C70200080B
:1001B000C7020008C7020008C7020008C7020008FB
:1001C000C7020008C7020008C7020008C7020008EB
:1001D000C7020008C7020008C7020008C7020008DB
:1001E000C7020008C7020008C7020008C7020008CB
:1001F000C7020008C7020008C7020008C7020008BB
:10020000C7020008C7020008C7020008C7020008AA
:10021000C7020008C7020008C7020008C70200089A
:10022000C7020008C7020008C7020008000000005B
:10023000C7020008C702000800000000C70200084B
:10024000C7020008C7020008C7020008C70200086A
:10025000C7020008C7020008C7020008C70200085A
:10026000C7020008C7020008C7020008C70200084A
:10027000C7020008C7020008C7020008000000000B
:10028000C7020008C7020008C702000800000000FB
:1002900000000000C7020008DFF80CD000F09CFB53
:1002A00000480047215F0008B00E00240648804740
:1002B00006480047FEE7FEE7FEE7FEE7FEE7FEE74B
:1002C000FEE7FEE7FEE7FEE791420008990200081C
:1002D0002DE9F05F0546002092469B46884606467B
:1002E000814640241BE0284641464746224600F00E
:1002F00013F953465A46C01A914110D31146184675
:10030000224600F0FAF82D1A67EB01084F46224604
:100310000120002100F0F1F817EB00094E41201EEA
:10032000A4F10104DFDC484631462A464346BDE8D5
:10033000F09F000000487047087C000810B5044694
:10034000FFF7F8FF0068005D00F0010010BDA0F1AC
:100350004101192900D82030704740EA01039B076A
:1003600003D009E008C9121F08C0042AFAD203E02A
:1003700011F8013B00F8013B521EF9D27047D2B28E
:1003800001E000F8012B491EFBD270470022F6E77E
:1003900010B513460A4604461946FFF7F0FF2046FB
:1003A00010BD421C10F8011B0029FBD1801A7047B8
:1003B00010B5002200E0521C835C8C5CA34201D18A
:1003C000002BF8D1D8B2E1B2401A10BD034611F8A3
:1003D000012B00F8012B002AF9D11846704730B5DF
:1003E00005460020034600E05B1C934205D2EC5C0E
:1003F000C85C201A01D1002CF6D130BD2DE9F047A0
:1004000091460F4680460446002614F8015B2DB144
:10041000FFF790FF0068405DC007F6D12B2D02D09A
:100420002D2D18D0641E4A463946204600F084F827
:1004300027B13968A14201D1C7F8008071054FF09A
:1004400002040BD54042002803DD06F00BFF0460D8
:10045000A007BDE8F08746F48066E4E70028F8DAF4
:1004600006F000FF04606FF00040F2E770B506464A
:1004700006F0F8FE046805460A2200213046FFF720
:10048000BDFF2C6070BD0EB540F2334202920022D7
:10049000CDE90022134600F0B1F803B000BDC1F36E
:1004A0000A52C1F3130140F2FF3341F480119A4222
:1004B00002DA00200146704740F233439A42A2F22A
:1004C000334202DC524200F027B800F016B830B5D3
:1004D0000B46014600202022012409E021FA02F502
:1004E0009D4205D303FA02F5491B04FA02F528449C
:1004F000151EA2F10102F1DC30BD202A04DB203AF6
:1005000000FA02F1002070479140C2F1200320FA66
:1005100003F3194390407047202A04DB203A21FA64
:1005200002F00021704721FA02F3D040C2F120020C
:1005300091400843194670472DE9F05F82460078E4
:10054000002715468B460AF10104B946302801D030
:100550009DB113E014F8010B0127782803D0582827
:1005600001D045B10AE00DB1102D07D100271025AB
:1005700014F8010B02E0082500E00A250026B04629
:100580000EE005FB080005FB06F1012701EB104614
:100590001FFA80F8B6F5803F00D3B94614F8010B76
:1005A000294600F03DFA0028EBDABBF1000F05D038
:1005B0000FB1641E00E05446CBF80040B9F1000FC3
:1005C00006D006F04FFE02210160C81EBDE8F09F74
:1005D00048EA0640FAE70023036000F04EBA10B57F
:1005E000141E73F1000408DA401C41F10001921856
:1005F0005B411A4301D120F0010010BD2DE9F04DFF
:1006000092469B4611B1B1FA81F202E0B0FA80F253
:1006100020329046FFF771FF04460F4640EA0A0079
:1006200041EA0B0153465A46084313D0114653EA98
:10063000010019D0C8F140025046FFF76DFF054692
:100640000E46504659464246FFF757FF084305D02D
:10065000012004E020463946BDE8F08D0020054326
:1006600046EAE0762C4337430A986305E40AA0EB98
:1006700008000022FD0A44EA47540A3002D500204F
:100680000146E9E7010510196941DDE9084500194E
:100690006941BDE8F04DA2E72DE9FE4F804681EAB1
:1006A0000300C00F0C46009021F0004123F00045EC
:1006B000B8EB0200A94105D24046214690461C46AF
:1006C0000B46024623F00040104347D0270DC7F3E6
:1006D0000A00C3F30A510290401A019040286BDAD5
:1006E000C3F3130040F4801B0098924620B100230E
:1006F000D2EB030A63EB0B0B01985946C0F14002A1
:100700005046FFF7FAFE06460D4650465946019AF6
:1007100000F074F910EB08006141002487EA1152DF
:1007200084EAE7731A4340D0009A62B3019A012A1F
:100730004FEA075215DC001B61EB02014FF000424B
:1007400002EA0752CDE90042001C41F58011324611
:100750002B46FFF753FF03B0BDE8F08F404621461C
:10076000F9E7001B61EB0201001C41F58013001842
:100770005B412018A2F5001747EB030140EAD57052
:10078000B6196D4111E06D084FEA360645EAC075AD
:100790004FEA0752001B61EB0201001C41F580117A
:1007A00049084FEA30000019514132462B4603B048
:1007B000BDE8F04FFFF713BF00980122400000236F
:1007C000D0EB020263EBE073009821464FEAE0743D
:1007D000B8EB000061EB0401E9E783F000435BE75D
:1007E00081F0004158E72DE9FE4F81EA030404F04F
:1007F000004421F0004100944FF0000B23F000432F
:1008000050EA01045ED052EA03045BD0C3F30A54F9
:10081000C1F30A552C44A4F2F3340194A0FB025412
:10082000C1F3130141F48011C3F3130343F48013A4
:1008300001FB024400FB034E840A970A44EA8154F8
:1008400047EA8357A4FB076802958D0A05FB0785D5
:100850004FEA932C04FB0C542705029D4FEA0658DF
:1008600047EA1637B5EB08056EEB070C870E920EBC
:1008700047EA811742EA8312A7FB0201B6EB0B019C
:1008800064EB00042B0D43EA0C335E1844EB1C5060
:10089000DA465146E7FB0201C5F313044FEA0B3376
:1008A00043EA14534FEA0432019C43EA0603A4F1DD
:1008B0000C040294009CCDE900B4FFF79FFE03B046
:1008C000BDE8F08F00200146F9E72DE9F04D81EAFF
:1008D000030404F0004B21F0004514464FF0000AD9
:1008E00023F0004150EA050220D054EA01021DD055
:1008F000C5F30A570246C5F31303C1F31300C1F34E
:100900000A5640F4801543F48013A7EB0608101B29
:10091000D64608F2FD3873EB050002D308F1010852
:1009200001E092185B41B8F1000F03DA00200146A4
:10093000BDE8F08D00204FF48011064684460EE09D
:10094000171B73EB050705D3121B63EB0503064367
:100950004CEA010C49084FEA300092185B4150EA1A
:100960000107EDD152EA030012D082EA040083EAC3
:100970000501084305D0101BAB4106D2012200231C
:1009800006E000224FF0004302E06FF00102531036
:100990001AEB06004CEB085110EB0A0041EB0B017F
:1009A000BDE8F04DFFF71BBE30B5041E71F1000429
:1009B00004DB4FF00044404264EB0101141E73F16C
:1009C000000405DB1C464FF00043524263EB040376
:1009D000994208BF904230BD064C074D06E0E068E2
:1009E00040F0010394E8070098471034AC42F6D376
:1009F000FFF756FC2C9300084C930008202A06DBD6
:100A0000CB17203A41FA02F043EAE07306E041FADC
:100A100002F3D040C2F120029140084319467047CA
:100A20003A2800D2303820F02002412A01D3A2F126
:100A30003700884201D34FF0FF3070470FB40B00EE
:100A400010B58AB00FA900910E994FF00004234A07
:100A5000CC60214CCDE9064200D004236FF0004267
:100A6000CDE901321E4A089202466B46002000F092
:100A7000CDF80AB010BC5DF814FBF0B585B00746A0
:100A80004FF0FF300091CDE901011E4600201546D0
:100A90000C4604903B466A46314604A8FFF7CEFF59
:100AA00004990346601825B109B1024600E02246C8
:100AB0002A6000290ED0002B02DD0099814209D066
:100AC0000094001BCDE901043B466A46314604A868
:100AD000FFF7B4FF05B0F0BD450E0008630E000837
:100AE0003D0300082DE9FF4F087883B09946FF28A1
:100AF00005D0491C2D2804D00024002008E0002047
:100B00000BE00124F9E700EB800003EB4000491CF7
:100B10000B78FF2BF7D104B14042002302931478E5
:100B200019461D462D2C01D02B2C04D1521C2D2CE6
:100B300013D000240294AA461478FF2C0FD00A2563
:100B4000A3FB057801FB05814FF0000C03FB0C11A2
:100B5000521CE3194AEB0101EEE70124EAE7814464
:100B600053EA010002D019F5C87F06DA0398002184
:100B7000C0E9001107B0BDE8F08F0025AE4E2F464A
:100B8000DFF8B8821846FFF77EFCCDE90001B9F125
:100B9000000002DAC9F1000400E004460023A74A7D
:100BA0001AEB030B42EB045A12E0E00707D02A4687
:100BB000334638464146FFF716FE074688462A4622
:100BC000334610461946FFF70EFE05460E466410E2
:100BD000002CEAD1DDE90001B9F1000F5A46534675
:100BE00006DAFFF772FE3A464346FFF76EFE05E06F
:100BF000FFF7F9FD3A464346FFF7F5FD029A0AB1C1
:100C000081F00041039AC2E90001B3E72DE9FF4FEB
:100C10001F468DB0D7E901464FF0FF382E204546DC
:100C20004FF000090B90B9696D1C0E988847396A1E
:100C3000824688470028F6D1BAF1FF3F0AD024F453
:100C4000D064002E11DDBAF12B0F08D0BAF12D0FB0
:100C50000BD102E0404611B08DE744F48064B969DD
:100C60006D1C0E9888478246761E6946600501D540
:100C70002D2000E02B208DF8000001F1010B0DF17B
:100C8000200809E0B9696D1C0E98884782460F98C4
:100C900044F40074761E0560002E02DDBAF1300FB8
:100CA000F0D00B998A453ED144F0800406E00F99BC
:100CB000681CA9F1010944F400740860B9696D1C4D
:100CC000761E0E98884782463028F0D02BE00B998C
:100CD0008A4505D1200603D444F08004761E18E02E
:100CE000504606F0A5FB08B30DF11302761EAAF1DB
:100CF000300044F40074934506D20BF8010B200633
:100D000007D5A9F1010003E0200602D409F1010092
:100D10008146A00502D50F99681C0860B9696D1C51
:100D20000E9888478246002ED1DC53E0002E51DD1C
:100D3000BAF1650F02D0BAF1450F4BD1A00549D5E4
:100D4000B9696D1C24F44074761E0E98884782465B
:100D5000002E0CDD2B2804D0BAF12D0F07D144F45E
:100D60008074B9696D1C0E9888478246761EE0052E
:100D700001D52D2100E02B2108F8011BCDF82C8096
:100D800021E00DF12901761E44F4007488450CD24F
:100D9000AAF1300010F0FF0088F8000002D10B9992
:100DA000884509D908F1010806E0E00501D5244885
:100DB00001E042F20F708146B9696D1C0E988847B8
:100DC00082460F980560002E04DD504606F030FB89
:100DD0000028D6D1F9690E988847FF208BF80000CB
:100DE00088F800000020069007904B466A4608A944
:100DF00006A8FFF777FEA00502D46FF001002AE7EE
:100E000014F0240F0AD0E00714D1DDE90612386887
:100E1000031D3B600068C0E900120BE0DDE906013C
:100E200000F030F80146E00704D13868021D3A604E
:100E30000068016028460EE7000014400000F03F03
:100E4000F1D8FFFF426842B1016811F8013B23B1BC
:100E5000521EC0E90012184670470121C160881E69
:100E6000704742685AB1C368016843B983688B42CE
:100E700005D0491E521CC0E90012002070474FF0F7
:100E8000FF30704701F0004330B421F0004150EAD8
:100E9000010206D00A0DA2F56072C1F31301002A07
:100EA00002DC30BC00207047440F44EAC104C1009A
:100EB000E01830BC00EBC250AFF300800029A8BF9F
:100EC0007047401C490008BF20F00100704710B473
:100ED000B0FA80FC00FA0CF050EA010404BF10BC28
:100EE000704749B1CCF1200421FA04F411FA0CF155
:100EF00018BF012121430843A3EB0C01CB1D4FEA8E
:100F000000614FEA102042BF002010BC704700EB88
:100F1000C35010440029A4BF10BC7047401C4900B6
:100F200008BF20F0010010BC704770B58C1810F895
:100F3000015B15F0070301D110F8013B2A1106D11E
:100F400010F8012B03E010F8016B01F8016B5B1E38
:100F5000F9D12B0705D40023521E0DD401F8013B13
:100F6000FAE710F8013BCB1A921C03E013F8015B7F
:100F700001F8015B521EF9D5A142D8D3002070BD03
:100F8000FEE70000000000007047000000000000C5
:100F9000EFF3108072B600BFFEE700000000000013
:100FA0002DE9F04F83B00C68002C00F0C68000F1F2
:100FB000264242F2004702F1FF72C5F602074FEAED
:100FC000B22201920A22B84208BF09220025002756
:100FD0004FF0010A009209E00C68043734FA0AF273
:100FE0000AF1010A05F1020500F0A780AAF1010942
:100FF000012202FA09FE14EA0E08EDD0D1F804B07D
:101000000BF00304A4F1010CBCF1010F11D8032271
:101010008668AA40CB6826EA0202AB401A43826087
:10102000CBF30013426822EA0E0203FA09F31A43D3
:101030004260032C1ED00323C268AB40022C22EA7C
:1010400003028B6803FA05F342EA0302C26011D17E
:101050006FF0030207F01C0602EA59020F23024454
:1010600003FA06F4D2F820C00B692CEA0404B3405A
:101070002343136203230268AB404E689A4306F091
:101080000303AB4016F4403F42EA03020260A3D0E0
:1010900044F2F44340F2084EC5F60203C5F6000ED2
:1010A0001A6842F002021A601A6807F00C0302F094
:1010B00002020292029A29F00302019C009E092C6E
:1010C00038BF26460F2452F80EC09C402CEA040478
:1010D00006FA03F34FF0B04C234342F80E30DCF82D
:1010E00000204B6842EA0806DC0258BF22EA0806E4
:1010F0009C02CCF8006040F2040CC5F6000CDCF851
:10110000002042EA080658BF22EA08069C03CCF8F1
:101110000060DCF8802042EA080658BF22EA080690
:10112000DB03CCF88060DCF87C2042EA080658BF7C
:1011300022EA0806CCF87C604EE703B0BDE8F08FE9
:10114000426902EA0103914341EA03418161704728
:10115000002A08BF090481617047000000000000F8
:10116000032070470000000041F20000C5F6004077
:1011700000686FF31F30704741F20000C5F6004071
:101180000068000C7047000040F2AC60C2F2004002
:1011900000687047000000004EF60000C1F6F170D4
:1011A00000687047000000004EF60400C1F6F170C0
:1011B00000687047000000004EF60800C1F6F170AC
:1011C000006870470000000090F84120202A03D1F9
:1011D00090F84020012A01D102207047242280F893
:1011E00041200268136823F001031360136823F49D
:1011F00080531360136819431160116841F00101B5
:101200001160202180F84110002180F8401008462C
:10121000704700000000000090F84120202A03D110
:1012200090F84020012A01D102207047242280F842
:1012300041200268136823F001031360136823F44C
:10124000706343EA01211160116841F001011160EE
:10125000202180F84110002180F840100846704796
:1012600000284CD010B5044690F8410028B9002061
:1012700084F84000204600F063FA242084F84100FE
:1012800094E80310E36821F070610268012B22F0FA
:101290000102026001614FF40442816808BF4FF40B
:1012A0000042022B21F4004181604CEA020181607E
:1012B00002D14FF400614160416804F1100C41F02B
:1012C000007141F400414160C16821F40041C160F6
:1012D0009CE80E10114341EA0321C160216A41EAF2
:1012E0000C010160016841F00101016000206064AF
:1012F000202184F84110206384F8420010BD0120B1
:1013000070470000000000002DE9F04F83B0002777
:101310000297044690F84100202807D12068806990
:10132000000403D494F84000012803D1022003B044
:10133000BDE8F08F012084F84000242084F84100AB
:10134000002060640A20894660F39F298A4648F29B
:1013500008001D4660F39F2A90465F1C06E000BF10
:10136000029801300290029840454BD2E068216813
:101370000128484608BF50464860FFF705FF21682E
:10138000064651F8182F0B681B0943EA5212D20780
:1013900008D012E0206881698269120942EA51117D
:1013A000C90708D1002FF5D0FFF7EEFE55B3801B1B
:1013B000A842EFD926E000F11801D1F800B02021B1
:1013C000002220462B46009602F0EEFB5FEACB613E
:1013D00026D508BB20681021C1612021C161029976
:1013E0004145BDD14168002241F480414160202146
:1013F00020462B46009602F0D7FB68B920682021D2
:10140000C161ADE7202084F84100606C40F020000D
:101410006064002084F84000012003B0BDE8F08F34
:101420000028F9D120682021C161002084F84110F2
:1014300084F8400003B0BDE8F08F00000000000019
:101440002DE9F04F83B0044690F8410020280FD1D9
:10145000DDF83080B8F1000F0CD0DDF834B0BBF10E
:10146000000F07D094F84000012808D1022533E08E
:10147000022531E04FF40070606401252CE01F4626
:1014800016468A46012584F84050FFF77DFE8146C6
:101490004FF40041012219230090204602F084FB02
:1014A000D0B9222084F84100402084F84200204630
:1014B000514632463B4600256564C4F82480DDF879
:1014C0003880A4F82AB06563CDE9008902F0DCFA1F
:1014D00030B184F840500125284603B0BDE8F08FB4
:1014E000608DB0F5807F42F20040C8F2000005D365
:1014F000FF212185FF224FF0807304E0618D4FF0C2
:1015000000732185CAB200902046514602F034FB98
:101510000025FF260BE0608D4FF000732085C2B2DE
:1015200020465146009502F027FB608D78B30421D8
:10153000002220464346CDF8009002F035FB20BB48
:101540002068616A406A0870218D606A01306062BB
:1015500001392185608D0904A0F101006085608D4D
:10156000E3D10028E1D08021002220464346CDF877
:10157000009002F019FB90B9608DB0F5807FCAD35E
:101580002685FF224FF08073CAE70125A4E7204695
:1015900041464A4602F050FB18B101259CE701255F
:1015A0009AE7206820214EF600030025C161CFF69E
:1015B000006342681A40426084F8411084F8425047
:1015C00084F8405088E700002DE9F04F83B00446CE
:1015D00090F8410020280FD1DDF83080B8F1000FDD
:1015E0000CD0DDF834B0BBF1000F07D094F8400008
:1015F000012808D1022533E0022531E04FF40070C4
:10160000606401252CE01F4616468A46012584F8B1
:101610004050FFF7B9FD81464FF4004101221923E4
:101620000090204602F0C0FAD0B9212084F8410091
:10163000402084F842002046514632463B46002571
:101640006564C4F82480DDF83880A4F82AB06563A6
:10165000CDE9008902F054FA30B184F840500125F8
:10166000284603B0BDE8F08F608DB0F5807F05D3CC
:10167000FF202085FF224FF0807304E0608D4FF043
:1016800000732085C2B2002000902046514602F02F
:1016900073FA0025FF260BE0608D4FF00073208564
:1016A000C2B220465146009502F066FA608D50B3F2
:1016B000204641464A4602F0F3FA10BB606A2168B0
:1016C00010F8012B8A626062608D01386085208D80
:1016D000411E2185608D0904E8D10028E6D08021D3
:1016E000002220464346CDF8009002F05DFA90B902
:1016F000608DB0F5807FCFD32685FF224FF08073B9
:10170000CFE70125ACE7204641464A4602F094FA6D
:1017100018B10125A4E70125A2E7206820214EF693
:1017200000030025C161CFF6006342681A404260A1
:1017300084F8411084F8425084F8405090E700004B
:10174000B0B5B8B0044602A8C0210025CDE9365591
:10175000CDE934553395FEF719FE45F20041206876
:10176000C4F20001884201D038B0B0BD0820029018
:1017700002A80395239500F0C7FC08B1FFF708FC09
:1017800044F2E04433A9C5F60204206840F00200A8
:101790002060206800F0020001900198C020339082
:1017A0001220349001203590032036900420379089
:1017B00040F20040C5F60200FFF7F2FBA06840F4DB
:1017C0000010A060A06800F400100190019838B0EB
:1017D000B0BD00000000000040F2840040F2AC61A7
:1017E000C2F20040C2F2004100780A68104408606A
:1017F000704700000000000080B5032000F0CCF826
:1018000001F006FB44F2184147F69043C5F6020189
:10181000C0F600030A68096801F00F01C2F3032251
:10182000595C9A5C01F01F0102F01F02D04040F2A7
:101830000802C2F2004220FA01F1116040F20401F4
:10184000C2F2004108600F2000F00AF800281CBF17
:10185000012080BD00F080F8002080BD0000000065
:10186000B0B540F28401C2F20041097801B30446E8
:1018700040F20400C2F200404FF47A72B2FBF1F180
:101880000068B0FBF1F001F08BFE0F2C4FF001056A
:101890000CD858B94FF0FF3000222146002500F047
:1018A0006BF840F28800C2F2004004602846B0BDE8
:1018B0000120B0BD00000000B0B502784EF69C5C7F
:1018C000CEF2000C43784CF8043CF2B14368CCF8FB
:1018D0000030037BC17A90F80AE0457B447A42EA03
:1018E0000372837B42EA0161C27B41EACE41007A06
:1018F00041EA854141EA434141EA024141EA04218A
:1019000041EA4000CCF80400B0BD0020CCF8000053
:10191000CCF80400B0BD00004EF62450CEF200001A
:10192000BFF35F8F016821F48031016000210167FE
:1019300070470000000000004EF6245140F0010006
:10194000CEF200010867086840F480300860BFF3F9
:101950004F8FBFF36F8F704781B044F2F440C5F6EC
:101960000200016841F002010160006800F002001D
:101970000090009801B0704770B514460D460646B9
:1019800003F03EF92946224602F0A2FA014630460B
:1019900003F03EF970BD000080B503F04DF980BD45
:1019A000B0B544F60C05C5F6020529684907296853
:1019B00005D401F00701081A18BF0120B0BD21F0BD
:1019C000070108432860FFF7DFFB044655F8080CC1
:1019D000800407D4FFF7D8FB001BB0F57A7FF5D958
:1019E0000120B0BD0020B0BD80B501F0C1F944F2C6
:1019F000184147F69042C5F60201C0F60002096898
:101A0000C1F30211515C01F01F01C84080BD00000C
:101A100080B501F0ADF944F2204147F69042C5F699
:101A20000201C0F600020968C1F30211515C01F025
:101A30001F01C84080BD000080B544F2304EC5F69D
:101A4000020E5EF8083C5EF8081CC1F3051C5EF847
:101A5000041CBCF1000FDEF8042016D0C2F3CC0247
:101A600001F00101514303F00303022B00EE101AB1
:101A7000B8EE400A0ED0012B0FD01BB95EF8301C17
:101A800089060DD49FED341A18E000218160C0E969
:101A9000001180BD9FED2F1A10E09FED2D1A0DE073
:101AA0005EF8301C49F20002C0F2D032C1F3C1012D
:101AB00022FA01F101EE101AB8EE411ADEF8001018
:101AC0009FED263A6FF35F2102EE101ADEF8001048
:101AD000C1F34621B8EE422A00EE032A00EE10CAF6
:101AE000B7EE003AB8EE400A81EE000A32EE031A71
:101AF00002EE101AB8EE422A20EE010A32EE031A64
:101B000080EE011ABCEEC11A80ED001ADEF800105A
:101B1000C1F3064101EE101AB8EE411A31EE031A74
:101B200080EE011ABCEEC11A80ED011ADEF8001039
:101B3000C1F3066101EE101AB8EE411A31EE031A34
:101B400080EE010ABCEEC00A10EE101A816080BD62
:101B50000024744A20BCBE4B0024744C00000039A1
:101B600080B544F2384EC5F6020E5EF8103C5EF8C1
:101B7000101CC1F3053C5EF80C1CBCF1000FDEF834
:101B8000042014D0C1F30011C2F3CC02514300EE83
:101B9000101A03F003010229B8EE400A0CD071B903
:101BA0005EF8381C89060DD49FED341A18E0002128
:101BB0008160C0E9001180BD9FED2F1A10E09FEDFC
:101BC0002D1A0DE05EF8381C49F20002C0F2D03246
:101BD000C1F3C10122FA01F101EE101AB8EE411A67
:101BE000DEF800109FED263A6FF35F2102EE101A27
:101BF000DEF80010C1F34621B8EE422A00EE032AB7
:101C000000EE10CAB7EE003AB8EE400A81EE000AC4
:101C100032EE031A02EE101AB8EE422A20EE010A42
:101C200032EE031A80EE011ABCEEC11A80ED001AE2
:101C3000DEF80010C1F3064101EE101AB8EE411AA9
:101C400031EE031A80EE011ABCEEC11A80ED011AC2
:101C5000DEF80010C1F3066101EE101AB8EE411A69
:101C600031EE031A80EE010ABCEEC00A10EE101A23
:101C7000816080BD0024744A20BCBE4B0024744C9B
:101C8000000000390000000080B544F2404EC5F667
:101C9000020E5EF8183C5EF8181CC1F3055C5EF895
:101CA000141CBCF1000FDEF8042014D0C1F3002195
:101CB000C2F3CC02514300EE101A03F003010229D3
:101CC000B8EE400A0CD071B95EF8401C89060DD4FC
:101CD0009FED341A18E000218160C0E9001180BD39
:101CE0009FED2F1A10E09FED2D1A0DE05EF8401CBD
:101CF00049F20002C0F2D032C1F3C10122FA01F16F
:101D000001EE101AB8EE411ADEF800109FED263AE7
:101D10006FF35F2102EE101ADEF80010C1F34621C6
:101D2000B8EE422A00EE032A00EE10CAB7EE003ADF
:101D3000B8EE400A81EE000A32EE031A02EE101AE3
:101D4000B8EE422A20EE010A32EE031A80EE011AA2
:101D5000BCEEC11A80ED001ADEF80010C1F3064196
:101D600001EE101AB8EE411A31EE031A80EE011A94
:101D7000BCEEC11A80ED011ADEF80010C1F3066155
:101D800001EE101AB8EE411A31EE031A80EE010A84
:101D9000BCEEC00A10EE101A816080BD0024744AA7
:101DA00020BCBE4B0024744C000000390000000031
:101DB00080B584B0024641F6FF7300209B1A70EB99
:101DC000010329DB40F2FF339B1A70EB01034FDA6A
:101DD00082F480630B4300F0AD8082F400630B4318
:101DE00000F0BB8082F48052114340F07A8144F2CB
:101DF0000041C5F60201086DC0F30232042A00F268
:101E00005D8148F20000C0F2BB00DFE812F0B900CB
:101E1000E000E7006A01F00047F6FF739B1A70EBE1
:101E2000010343DA82F400430B4300F0AD8082F4F7
:101E300080330B4300F0C08082F40022114340F055
:101E4000508144F20040C5F60200816D01F440313A
:101E5000B1F5003F00F01A81B1F5803F00F022811A
:101E6000002940F02B810068000140F12781B1E09A
:101E700082F480730B4335D082F40072114340F03A
:101E8000308144F20041C5F60201086DC0F38212B0
:101E9000042A00F2138148F20000C0F2BB00DFE820
:101EA00012F06F0096009D002001A60082F40053FE
:101EB0000B432CD082F48042114340F0128144F253
:101EC0000040C5F60200816DC1F30271052900F2E0
:101ED000F580DFE801F003ACB3BAC86AFFF798FDFC
:101EE00004B080BD44F20041C5F60201086D00F067
:101EF0000702042A00F2E28048F20000C0F2BB00B0
:101F0000DFE812F03E0065006C00EF00750044F25F
:101F10000040C5F60200016DC1F30241052900F23F
:101F2000CD80DFE801F003848B92A04200F048FFEF
:101F300004B080BD44F20041C5F60201886DC0F3D3
:101F40004252042A00F2BA8048F20000C0F2BB00FC
:101F5000DFE802F0163D44C74D0044F20041C5F6EB
:101F60000201886DC0F30262042A00F2A78048F2E1
:101F70000000C0F2BB00DFE802F0032A31B43A00EF
:101F8000086880017CD499E044F20040C5F6020064
:101F9000016D01F04051B1F1005F00F08C80B1F1B2
:101FA000805F6AD0002940F08980006847F64001D0
:101FB0008003C0F27D115CE044F20040C5F60200EF
:101FC000C16C0068C9032CD4800177D558E008683B
:101FD000000173D501A8FFF7C3FD05E00868800084
:101FE0006CD501A8FFF750FE019804B080BDC86C05
:101FF0000B6810F04052086802D113F0040328D196
:10200000B2F1805F02D110F4807060D1086810F4E2
:1020100000301CBF47F64000C0F27D10B2F1005FF7
:102020006BE000014AD501A8FFF79AFD40E0006887
:10203000000143D501A8FFF793FD24E0006880006C
:102040003CD501A8FFF720FE1DE00168490735D502
:102050000068C0F3C10049F20001C0F2D03121FA9A
:1020600000F004B080BD006840F60011C005C0F269
:102070003D0101EAE07004B080BD006880011DD51B
:1020800001A8FFF7D9FC029804B080BDC16C0368B9
:1020900011F04051026814D113F0040311D0C2F3BF
:1020A000C100D8E70068800008D501A8FFF7ECFD63
:1020B000039804B080BD006800010ED4002004B075
:1020C00080BDB1F1805F0ED112F480720BD040F66A
:1020D0000010C0F23D0004B080BD01A8FFF740FD34
:1020E000029804B080BD006810F400301CBF47F6B1
:1020F0004000C0F27D10B1F1005F18BF002004B0B5
:1021000080BD0000000000002DE9F04381B00446CE
:10211000C07844F22C490007C5F6020901D4002515
:102120002EE0A06E4FEA305003280DD80025DFE8DE
:1021300000F0020E1714D9F80000002540F400301A
:10214000C9F8000055B913E001253DB910E004F1CC
:102150000800022101F0D8FE05464DB1A84611E065
:1021600004F12800022101F05FFF0546002DF5D1A2
:10217000D9F82400A16E20F440100843C9F82400C7
:102180004FF000086078C00730D0A06D042807D851
:10219000DFE800F00A131C030300FDB1A84625E0A8
:1021A0000125002DFAD119E0D9F8000040F40030E3
:1021B000C9F80000002DF1D110E004F10800002161
:1021C00001F0A2FE0546002DE8D107E004F1280049
:1021D000002101F029FF0546002DDFD1D9F82400A8
:1021E000A16D20F007000843C9F82400607880073B
:1021F00032D5E06D4FEAB010042807D8DFE800F0D0
:102200000A131C030300FDB1A84625E00125002D9B
:10221000FAD119E0D9F8000040F40030C9F8000004
:10222000002DF1D110E004F10800002101F06CFE56
:102230000546002DE8D107E004F12800002101F057
:10224000F3FE0546002DDFD1D9F82400E16D20F41E
:10225000E0700843C9F824006078400734D5D4F80A
:10226000A8004FEA7050042807D8DFE800F00A13EE
:102270001C030300FDB1A84626E00125002DFAD17C
:1022800019E0D9F8000040F40030C9F80000002D32
:10229000F1D110E004F10800002101F035FE0546FF
:1022A000002DE8D107E004F12800002101F0BCFE78
:1022B0000546002DDFD1D9F82C00D4F8A81020F461
:1022C00060000843C9F82C006078000734D5D4F8C2
:1022D000AC004FEA3060042807D8DFE800F00A13AA
:1022E0001C030300FDB1A84626E00125002DFAD10C
:1022F00019E0D9F8000040F40030C9F80000002DC2
:10230000F1D110E004F10800002101F0FDFD0546C7
:10231000002DE8D107E004F12800002101F084FE3F
:102320000546002DDFD1D9F82C00D4F8AC1020F0F0
:10233000E0600843C9F82C00E078800728D5E06CFD
:102340004FEA3010032806D8DFE800F00209120235
:10235000B5B1A8461CE00125002DFAD110E0D9F84E
:10236000000040F40030C9F80000002DF1D107E072
:1023700004F10800022101F0C7FD0546002DE8D157
:10238000D9F82000E16C20F030000843C9F82000A3
:102390006078C00632D5206E4FEA3030042807D866
:1023A000DFE800F00A131C030300FDB1A84625E096
:1023B0000125002DFAD119E0D9F8000040F40030D1
:1023C000C9F80000002DF1D110E004F1080000214F
:1023D00001F09AFD0546002DE8D107E004F1280040
:1023E000002101F021FE0546002DDFD1D9F824009F
:1023F000216E20F4E0400843C9F82400607880068C
:1024000026D5606E4FEA3040052807D8DFE800F097
:10241000030A100303039DB1A84619E00125002D0E
:10242000FAD10DE004F10800012101F06DFD04E096
:1024300004F12800012101F0F7FD0546002DEBD144
:10244000D9F82400616E20F4E0200843C9F8240084
:102450006078400628D5D4F8B0004FEA30700528DF
:1024600007D8DFE800F0030A100303039DB1A84674
:102470001AE00125002DFAD10DE004F10800012138
:1024800001F042FD04E004F12800012101F0CCFD3F
:102490000546002DEBD1D9F82C00D4F8B01020F06F
:1024A000E0400843C9F82C006078000620D5206F72
:1024B000D8B1B0F1005F12D0B0F1805F25D1D9F86A
:1024C000000040F40030C9F8000085B9D9F82400B4
:1024D000216F20F040500843C9F8240008E004F1BF
:1024E0000800012101F010FD0546002DEED0A846A0
:1024F000E078C0072AD0A06C03280AD8DFE800F0F3
:10250000020D1602D5B1A84620E00125002DEED11E
:10251000DCE70125002DF6D110E0D9F8000040F4E9
:102520000030C9F80000002DEDD107E004F10800EB
:10253000022101F0E9FC0546002DE4D1D9F8200084
:10254000A16C20F003000843C9F82000A0784006E1
:1025500042D5D9F8D40340F48070C9F8D403FEF70B
:1025600013FE0646D9F8D403C00505D4FEF70CFEC9
:10257000801B6528F6D303256DBBD9F84410D4F829
:10258000B400414011F4407F11D0D9F84410D9F87B
:10259000442042F48032C9F84420D9F8442021F480
:1025A000407122F48032C9F84420C9F84410B0F5D3
:1025B000807F0FD1FEF7E8FD064641F2893700BF64
:1025C000D9F84400800705D4FEF7DEFD801BB84231
:1025D000F6D3032585B1A8462078C00742D0E06F26
:1025E0004FEAF000052823D8DFE800F003262C038B
:1025F00003037DB3A84635E04FF6CF73D4F8B4009B
:1026000059F81C2CC0F2FF0300F4407122F47C52F4
:1026100003EA1013B1F5407F08BF1A436FF31F3070
:1026200049F81C2CD9F844100843C9F84400D3E7F2
:102630000125002DDED10DE004F10800012101F09B
:1026400063FC04E004F12800012101F0EDFC0546E3
:10265000002DCFD1D9F82800E16F20F038000843D1
:10266000C9F828002078800724D5A06F052807D84E
:10267000DFE800F0030A100303039DB1A84619E048
:102680000125002DFAD10DE004F10800012101F02F
:102690003BFC04E004F12800012101F0C5FC0546E3
:1026A000002DEBD1D9F82800A16F20F007000843D6
:1026B000C9F828002078400726D5D4F894000528CA
:1026C00007D8DFE800F0030A100303039DB1A84612
:1026D0001AE00125002DFAD10DE004F108000121D6
:1026E00001F012FC04E004F12800012101F09CFC3F
:1026F0000546002DEBD1D9F82C00D4F8941020F029
:1027000007000843C9F82C002078800628D5D4F8A3
:1027100090004FEA3070052807D8DFE800F0030A80
:10272000100303039DB1A8461AE00125002DFAD13C
:102730000DE004F10800002101F0E6FB04E004F1E3
:102740002800022101F070FC0546002DEBD1D9F8DC
:102750002800D4F8901020F0E0400843C9F8280081
:102760002078400628D5D4F89C004FEAB0200528F0
:1027700007D8DFE800F0030A100303039DB1A84661
:102780001AE00125002DFAD10DE004F10800002126
:1027900001F0BAFB04E004F12800022101F044FC3E
:1027A0000546002DEBD1D9F82C00D4F89C1020F46C
:1027B000E0500843C9F82C002078000628D5D4F84A
:1027C000A0004FEA7030052807D8DFE800F0030AC0
:1027D000100303039DB1A8461AE00125002DFAD18C
:1027E0000DE004F10800002101F08EFB04E004F18B
:1027F0002800022101F018FC0546002DEBD1D9F884
:102800002C00D4F8A01020F460400843C9F82C0034
:102810002078000716D5D4F88400B0F5805F08D181
:1028200004F12800022101F0FFFB002818BF4FF03F
:102830000108D9F82800D4F8841020F44050084347
:10284000C9F828002078C00616D5D4F89800B0F54D
:10285000807F08D104F12800022101F0E5FB002867
:1028600018BF4FF00108D9F82C00D4F8981020F4C4
:1028700040700843C9F82C00A078000722D5D4F88E
:10288000A400B0F5003F1AD0B0F5803F11D0C8BB0E
:1028900004F10800002101F037FB05468DB9D9F895
:1028A0002C00D4F8A41020F440300843C9F82C00C0
:1028B00008E004F12800022101F0B6FB0546002DD6
:1028C000EDD0A846A078400729D5D4F88800B0F507
:1028D000401F21D0B0F5001F18D0B0F5801F40F088
:1028E000BF80D9F8000040F40030C9F80000ADB94D
:1028F000D9F82800D4F8881020F440100843C9F80B
:1029000028000CE00125002DDBD1C8E704F12800E8
:10291000012101F089FB0546002DE9D0A846A078E9
:10292000C00720D0206DB0F5803F10D0B8B9D9F8DD
:10293000000040F40030C9F800009DB9D9F820002B
:10294000216D20F480300843C9F820000BE004F129
:102950000800022101F0D8FA05461DB9EEE701256D
:10296000002DEBD0A846E078800608D504F12800B9
:10297000022101F059FB002818BF4FF00108D4E9EB
:1029800000108A037BD5D4F880206FF0010303EB9D
:102990003223022B0AD34FEA32233BB1012B64D1FD
:1029A000D9F8003043F40033C9F80030002D5FD06F
:1029B000CA0267D4CA006FD48A0279D44A0000F1EF
:1029C0008280B1F1FF3F40F38F80090200F19780D0
:1029D000C00707D004F10800002101F095FA002893
:1029E00018BF05462079800707D504F108000121AA
:1029F00001F08AFA002818BF05462079400707D55C
:102A000004F10800022101F07FFA002818BF0546F2
:102A10002079000707D504F12800002101F004FB0C
:102A2000002818BF05462079C00607D504F1280004
:102A3000012101F0F9FA002818BF05462079800627
:102A400007D504F12800022101F0EEFA002818BF92
:102A50000125002D18BF0125284601B0BDE8F083EF
:102A60000125002D7FF45AAF42E70125002D9FD1AB
:102A7000D9F8283023F440731A43C9F82820454672
:102A8000CA0297D5D9F82420636F22F000421A4376
:102A9000C9F82420CA008FD559F81C2CD4F8B830B6
:102AA00022F480421A4349F81C2C8A027FF586AF33
:102AB000D9F82420E36E22F080721A43C9F824204A
:102AC0004A007FF57EAF59F81C2C22F4004249F8E9
:102AD0001C2CD4F8BC2059F81C3C1A4349F81C2C77
:102AE000B1F1FF3F3FF771AFD9F82020636D22F0BD
:102AF00040521A43C9F8202009027FF569AFD9F87E
:102B00002810D4F88C2021F440011143C9F8281072
:102B1000C0077FF45FAF65E72DE9F04381B000287F
:102B200000F0F48042F200080446C5F2002889460D
:102B3000D8F8000000F00F0088420ED2D8F800004C
:102B400020F00F0040EA0900C8F80000D8F80000A3
:102B500000F00F00484540F0D980206844F2184743
:102B60004107C5F602070AD521693A6802F07002EA
:102B7000914204D93A6822F070021143396001078A
:102B80000AD561697A6802F07002914204D97A68C4
:102B900022F0700211437960C1060AD5A1697A68F2
:102BA00002F4E062914204D97A6822F4E0621143AF
:102BB000796081060AD5E169BA6802F07002914233
:102BC00004D9BA6822F070021143B96081070AD5AE
:102BD000E1683A6802F00F02914204D93A6822F0A3
:102BE0000F0211433960C0077ED1206881070AD5E2
:102BF000E1683A6802F00F02914204D23A6822F08A
:102C00000F0211433960D8F8001001F00F01494557
:102C10000DD9D8F8001021F00F0141EA0901C8F8D8
:102C20000010D8F8001001F00F0149456ED141079E
:102C30000AD521693A6802F07002914204D23A68DA
:102C400022F070021143396001070AD561697A6880
:102C500002F07002914204D27A6822F070021143AD
:102C60007960C1060AD5A1697A6802F4E0629142EE
:102C700004D27A6822F4E0621143796080060AD5B2
:102C8000E069B96801F07001884204D2B96821F0A6
:102C900070010843B86000F0BBF8396847F690420D
:102CA000C0F600023B68C1F3032103F00F03515C3F
:102CB000D25C01F01F01C84002F01F0140F208027F
:102CC00020FA01F1C2F20042116040F2040140F228
:102CD0008802C2F20041C2F2004208601068FEF7AA
:102CE000BFFD01B0BDE8F083386820F47061D4E91D
:102CF0000102012841EA020139600BD003282BD0E0
:102D000002282ED157F8181C890307D4012001B0DE
:102D1000BDE8F08357F8181CC905F7D557F8081C0B
:102D200021F00701084347F8080CFEF72DFA064684
:102D300041F2883557F8080C616800F03800B0EBB4
:102D4000C10F3FF452AFFEF71FFA801BA842F1D922
:102D5000032001B0BDE8F08357F8181C8901D5D5D0
:102D6000DCE757F8181C4907D0D5D7E7000000006A
:102D700080B500F04DF844F2184147F69043C5F68F
:102D80000201C0F600030A68096801F00F01C2F3EE
:102D90000322595C9A5C02F01F0220FA02F201F051
:102DA0001F0040F2080122FA00F0C2F20041086060
:102DB00040F20401C2F200410A6080BD0000000040
:102DC00080B5FFF7D5FF44F21C4147F69042C5F6A7
:102DD0000201C0F600020968C1F30211515C01F062
:102DE0001F01C84080BD000080B5FFF7C1FF44F25D
:102DF0001C4147F69042C5F60201C0F60002096880
:102E0000C1F30221515C01F01F01C84080BD0000E8
:102E100044F20041C5F602010869C0F3C20003286C
:102E20000FD002282AD070BB0868800649F2000043
:102E3000C0F2D03058BF70470968C1F3C101C84023
:102E400070478A6A886AC0F3051CC86ABCF1000F23
:102E50004B6B1DD0C3F3CC0300F00100584302F0CC
:102E60000302022A00EE100AB8EE400A12D0A2B9FC
:102E70000868800614D49FED261A1EE047F640002D
:102E8000C0F27D10704740F60010C0F23D00704760
:102E9000002070479FED1D1A0FE09FED1B1A0CE0FC
:102EA000086849F20002C0F2D032C0F3C10022FA31
:102EB00000F001EE100AB8EE411A086B9FED153ACA
:102EC0006FF35F2002EE100A086BC0F34620B8EEE5
:102ED000422A013000EE032A00EE10CAB7EE003A93
:102EE000B8EE400A81EE000A32EE031A20EE010A23
:102EF00001EE100AB8EE411A80EE010ABCEEC00ADB
:102F000010EE100A704700BF0024744A20BCBE4B6C
:102F10000024744C000000392DE9F04381B0F8B171
:102F20008046007844F20049C007C5F602095AD02D
:102F3000D9F8100000F03801D9F82800102905D080
:102F400018290FD100F0030002280BD1D9F8000096
:102F5000800344D5D8F80400002840D101272FE091
:102F6000012718E3D8F804402CB1B4F5A02F0DD0F8
:102F7000B4F5803F10D0D9F8000020F48030C9F8B3
:102F80000000D9F8000020F4802009E0D9F8000002
:102F900040F48020C9F80000D9F8000040F48030E7
:102FA000C9F80000FEF7F0F80546A4B1D9F8000012
:102FB000800314D4FEF7E8F8401B6428F6D90327F1
:102FC0000020002800F0E7820DE000BFFEF7DCF8EB
:102FD000401B6428F3D8D9F800008003F6D4012000
:102FE000002800F0D88298F80000800740F1848023
:102FF000D9F8100010F03801D9F828001CD0182991
:1030000008BF5FEA807017D0D8F80C00D9F800101C
:10301000002847D021F019010843C9F80000FEF745
:10302000B3F80546D9F8000040072AD4FEF7ACF8FB
:10303000401B0228F6D91EE0D9F80000400704D54D
:10304000D8F80C00002800F09681D9F80000D8F8D4
:103050000C1020F019000843C9F80000FEF794F89E
:10306000054600BFD9F8000040070AD4FEF78CF8E7
:10307000401B0228F6D903270024002C00F08B8285
:103080003AE0FEF779F841F20301884223D8D8F8F4
:103090001000D9F80410402821F47C3124D141F4E7
:1030A000003023E021F00100C9F80000FEF76CF8C1
:1030B00005460126D9F8000010F0040086EA9004C5
:1030C00017D0FEF761F8401B0328F3D30327002C29
:1030D00000F0618210E0D9F80400D8F8101020F058
:1030E000FE4040EA016001E041EA0030C9F8040016
:1030F0000124002C00F04F8298F80000C00674D51F
:10310000D9F8100000F03801D9F82800082905D0B6
:1031100018291CD100F00300012818D1D9F80000AB
:10312000C00503D5D8F81C00802859D1FEF724F833
:1031300041F20301884222D8D8F82000D9F80410BF
:10314000202821F0F84142D141F0804041E0D8F8F8
:103150001C000028D9F8000020D040F08000C9F8F9
:103160000000FEF711F80546D9F80000C005DDD4CF
:10317000FEF70AF8401B0228F6D9032731E0D9F8F8
:103180000C00D8F8201020F07C50012440EA0160A7
:10319000C9F80C00002C00F0FE8126E020F0800031
:1031A000C9F80000FDF7F0FF05460126D9F8000038
:1031B00010F4807086EA10240ED0FDF7E5FF401B66
:1031C0000328F3D30327002C00F0E5810DE041EA4A
:1031D0008060C9F804000124002C00F0DC8104E0C8
:1031E00001270024002C00F0D68198F80000000789
:1031F0001CD498F80000800631D498F800004007ED
:1032000045D4D8F82440002C00F09180D9F8100063
:1032100000F03800182840F08C80012CD9F82810D4
:10322000D9F8300040F0A9800127B4E1D8F81400A3
:103230000028D9F874003ED040F00100C9F87400AD
:10324000FDF7A2FF054600BFD9F874008007D0D46F
:10325000FDF79AFF401B0228F6D903279BE1D8F817
:1032600018000028D9F800004DD040F48050C9F86B
:103270000000FDF789FF0546D9F800008004BCD4A2
:10328000FDF782FF401B0228F6D9032783E1D9F816
:10329000000440F48070C9F80004FDF775FF05468E
:1032A000D9F80004C0051AD4FDF76EFF401B64284E
:1032B000F6D903276FE120F00100C9F87400FDF78B
:1032C00063FF0546032700BFD9F8740080077FF528
:1032D00090AFFDF759FF401B0228F5D95BE1D8F804
:1032E00008402CB1052C00F08280012C00F0858074
:1032F000D9F8700020F00100C9F87000D9F870000A
:1033000020F004007DE020F48050C9F80000FDF7B3
:103310003BFF0546032700BFD9F8000080047FF576
:103320006CAFFDF731FF401B0228F5D933E10027D0
:1033300031E1D9F8000020F08070C9F80000FDF7F5
:1033400023FF022C05464FF0030709D1D9F80000EE
:10335000800178D5FDF718FF401B0228F6D91AE145
:10336000D9F80000800140F1E780FDF70DFF401B18
:103370000228F5D90FE101277EE601F00302D8F813
:1033800028309A4240F0DA80C1F30511D8F82C2099
:10339000914240F0D7800146D8F830206FF35F218A
:1033A000013A914240F0D080C0F34622D8F8341060
:1033B00001398A4240F0CA80C0F30642D8F838107A
:1033C00001398A4240F0C480C0F30660D8F83C104E
:1033D0000139884240F0BE80D9F83400D8F848104E
:1033E000C0F3CC00814240F0B7800027D3E0D9F889
:1033F000700040F00400C9F87000D9F8700040F087
:103400000100C9F87000FDF7BFFE002C054641F22F
:1034100088344FF0030711D0D9F8700080073FF5CA
:10342000F0AEFDF7B1FE401BA042F5D9B3E000BFFE
:10343000FDF7AAFE401BA04200F2AD80D9F8700053
:103440008007F5D4DDE608F12807D9F8280040F216
:10345000F33188438ECF0843591E40EA02104FF4DF
:103460007E426FF35F21C9F8280002EB47204FF43A
:10347000FE0280B2D8F83C300844D8F8381002EB8D
:1034800001414FF0FE4201F4FE0102EB03620844E9
:1034900002F0FE410844C9F83000D9F82C004FF67C
:1034A000F87120F00100C9F82C00D9F83400D8F8E0
:1034B0004820884340EAC200C9F83400D9F82C00FB
:1034C000D8F8401020F00C000843C9F82C00D9F8B7
:1034D0002C00D8F8441020F002000843C9F82C0052
:1034E000D9F82C0040F48030C9F82C00D9F82C0011
:1034F00040F40030C9F82C00D9F82C0040F48020AA
:10350000C9F82C00D9F82C0040F00100C9F82C00B3
:10351000D9F8000040F08070C9F80000FDF734FED3
:1035200004460327D9F80000800109D4FDF72CFEDA
:10353000001B0228F6D92EE000272CE001272AE004
:10354000002728E0012726E0012724E0012722E0C8
:10355000012720E001271EE0D9F82C0020F001000F
:10356000C9F82C00FDF710FE0546FDF70DFEA84238
:10357000FBD0D9F834004FF6F871D8F848208843CA
:10358000002740EAC200C9F83400D9F82C0040F006
:103590000100C9F82C00F8B201B0BDE8F0830000CA
:1035A00080B500F0D5FD80BD90F88410012901D1CF
:1035B000022070472421C0F888100268136811683F
:1035C00023F0005321F001011160002141661360D6
:1035D0002022C0F8882080F8841008467047000038
:1035E000B0B5044690F88400012801D10220B0BD96
:1035F000012084F884002420C4F88800206805682D
:10360000026822F001020260826822F060621143C7
:103610008160204600F0A4FE206805602020C4F8E8
:103620008800002084F88400B0BD00000000000085
:10363000B0B5044690F88400012801D10220B0BD45
:10364000012084F884002420C4F8880020680568DC
:10365000026822F001020260826822F06042114397
:103660008160204600F07CFE206805602020C4F8C0
:103670008800002084F88400B0BD00000000000035
:1036800010B5B0B10446D0F8880028B9002084F8FD
:103690008400204600F028F82420C4F88800206820
:1036A000016821F001010160204600F081FF01283E
:1036B00001D1012010BDA06A10B1204600F07CFEAF
:1036C0002068416821F490414160816821F02A011D
:1036D0008160016841F001010160204600F0DCFEDC
:1036E00010BD000000000000B0B5B8B0044602A84C
:1036F000C0210025CDE93655CDE934553395FCF789
:1037000045FE41F200012068C4F20101884201D067
:1037100038B0B0BD0120029002A803952195FEF7B4
:10372000F3FC08B1FDF734FC44F2E040C5F60200BA
:10373000016941F010010161016901F0100101917D
:103740000199016841F001010160006833A900F0AE
:103750000100019001984FF4C06033900220349032
:103760000020CDE93500072037900020C5F6020083
:10377000FDF716FC38B0B0BD2DE9F04381B004462A
:10378000D0F88C00202823D10E4600294FF00100EC
:103790005FD01746002A5CD099460020C4F89000FC
:1037A0002221C4F88C10E066FDF7EEFCA4F85C70F2
:1037B0008046A4F85E70A16871B1B1F1805F0FD04E
:1037C000B1F5805F10D1206940B940F2FF100EE0E2
:1037D000022001B0BDE8F083206938B9FF2006E07F
:1037E000206918B13F2002E0002000E07F20B1F501
:1037F000805F4FF00007A4F8600004D12069002822
:1038000004BF37460646B4F860500AE02068002638
:10381000406A284027F8020BB4F85E000138A4F88B
:103820005E00B4F85E0080B12021002220464346AD
:10383000CDF8009001F080F970B9002EE6D0206834
:10384000406A284006F8010BE6E72020C4F88C0007
:10385000002001B0BDE8F0832020C4F88C000320D4
:1038600001B0BDE8F08300002DE9F04182B00446CC
:10387000D0F8880020283FD10E4600294FF00100E3
:103880004BD01746002A48D01D464FF00008C4F818
:1038900090802120C4F88800FDF776FCA4F85470CD
:1038A000A4F856700746A168B1F5805F0FD1206972
:1038B000002814BF3046B046064608E0206816F8D7
:1038C000011B8162B4F856000138A4F85600B4F820
:1038D0005600A8B18021002220463B46009501F009
:1038E0002BF9E8B9002EE9D138F8020B216800263F
:1038F0006FF35F208862E5E7022002B0BDE8F08147
:103900004021002220463B46009501F015F9202178
:103910000028C4F8881018BF032002B0BDE8F08169
:103920002020C4F88800032002B0BDE8F081000028
:10393000FEE700000000000000688169890701D5EA
:10394000002181628169C90718BF7047816941F010
:1039500001018161704700002DE9F04381B0044608
:1039600000688369DB0602D4002600254DE00D4681
:103970001021C16120688169890638D41646002764
:1039800005F101094FF0000806E000BF20688169D9
:1039900001F0200139432FD1B9F1000FF6D0FDF726
:1039A000F3FB15B1801BA842F0D92068416894F858
:1039B0004220202A82690DD011F480410AD112F4EC
:1039C000004107D0416841F480414160FDF7DCFBD4
:1039D000064600BF206880698006D7D4FDF7D4FB77
:1039E000801B1A28F6D348F020080127CEE70121D2
:1039F0004FF0000821B905E0B7FA87F1490909B18C
:103A00002021C16148F00406012520688169CA05AA
:103A10001ED44A0524D489052AD4ADB12046FFF727
:103A20008BFF20684EF60002CFF60062416811401D
:103A30004160606C30436064202084F841000020C5
:103A400084F8420084F84000284601B0BDE8F083C5
:103A500046F0010601254FF48072C2614A05DAD5AD
:103A600046F0080601254FF48062C2618905D4D56D
:103A700046F0020601254FF40071C161002DCDD141
:103A8000E2E70000000000002DE9F04182B00446AA
:103A900042F200001D461746DAB2C8F200000023C9
:103AA00000902046DDE9086800F066F820463146BF
:103AB000424600F0F5F818B1012002B0BDE8F081EF
:103AC000012D09D02068390A4246816220463146DC
:103AD00000F0E6F80028EFD1F9B220680022334662
:103AE000816240212046CDF8008000F05DF800287A
:103AF00018BF012002B0BDE8F08100000000000006
:103B00002DE9F04182B0044642F200001D461746FE
:103B1000DAB2C8F200004FF0807300902046DDE971
:103B2000086800F029F820463146424600F0B8F80F
:103B300018B1012002B0BDE8F081012D09D0206844
:103B4000390A424681622046314600F0A9F8002831
:103B5000EFD1F9B2206800223346816280212046ED
:103B6000CDF8008000F020F8002818BF012002B036
:103B7000BDE8F081000000006FF39F210068194349
:103B8000DDF800C041EA0241426849F6004341EADB
:103B90000C0122EA5C52CFF6004321F000411A40AA
:103BA00011434160704700002DE9F04381B00446A5
:103BB000006880690840401AB0FA80F040099042DD
:103BC00026D10D4616461F46DDF8208003F1010977
:103BD00012E000BF206880692840401BB0FA80F0E6
:103BE0004009B04218D0206880692840401BB0FAD4
:103BF00080F04009B0420BD1B9F1000FF3D0FDF7CE
:103C0000C3FA002FE6D0A0EB0800B842EBD9E1E7F9
:103C1000002001B0BDE8F083606C40F020006064DB
:103C2000202084F84100002084F8420084F84000FD
:103C3000012001B0BDE8F08370B5044600688069DA
:103C4000800619D415460E4608E000BF206880693A
:103C5000800615D52068806980060DD4204631463F
:103C60002A46FFF779FE48B9FDF78EFA002EEDD00F
:103C7000401BB042EED9E9E7002070BD012070BDC5
:103C8000606C40F020006064202084F84100002037
:103C900084F8420084F84000012070BD000000005C
:103CA000F0B581B004460068806980071CD41546D1
:103CB0000E464F1C08E000BF20688069800716D5BB
:103CC0002068806980070FD4204631462A46FFF7D6
:103CD00043FEC0B9002FF3D0FDF756FA002EEBD00B
:103CE000401BB042ECD9E7E7002001B0F0BD606CAA
:103CF00040F020006064202084F84100002084F817
:103D0000420084F84000012001B0F0BD0000000036
:103D100010B584B00024CDE90244CDE90044FDF79C
:103D2000FBFD0120ADF8000048F21F70029040F248
:103D30000110039068460194FDF7BEFD0420FDF7D5
:103D4000FBFD04B010BD0000F0B587B044F2E040C8
:103D50000025C5F602000695CDE90455CDE90255CA
:103D6000016840F6000441F0020101600168C5F6F7
:103D7000020401F0020101910199016841F0010181
:103D800001600168012201F00101019101990168BE
:103D900041F00401016001684FF4005601F0040194
:103DA00001910199016841F08001016000684FF4C0
:103DB000005100F080000190019820460127FDF796
:103DC000C7F902A92046CDE90267CDE90475FDF7E0
:103DD000E7F807B0F0BD000080B540F2004045F2C2
:103DE0000041C2F2004047F2B152C4F20001C3F2F6
:103DF0007002C0E90012002181600122C0E90321A4
:103E0000C0E90511C0E90711FDF72AFA08B1FDF76D
:103E1000BFF840F200400021C2F20040FDF7D4F9A3
:103E200008B1FDF7B5F840F200400021C2F20040B1
:103E3000FDF7F2F9002808BF80BDFDF7A9F880BDA5
:103E400080B540F2544041F20001C2F20040C4F299
:103E500001010C2201604FF4E13141600021C0E911
:103E600002110161C0E90521C0E90711C0E909118A
:103E7000FFF706FC08B1FDF78BF840F25440002133
:103E8000C2F20040FFF7D4FB08B1FDF781F840F221
:103E900054400021C2F20040FFF7A2FB08B1FDF739
:103EA00077F840F25440C2F20040FFF77DFB002853
:103EB00008BF80BDFDF76CF880BD00000000000069
:103EC000FEE7000000000000FEE700000000000028
:103ED00000F007004FF0FF3C80F00703042B28BFE1
:103EE0000423033838BF00200CFA03F399430CFA7B
:103EF00000F301FA00F022EA0301084370470000D2
:103F00007047000000000000F0B581B044F22C477B
:103F1000C5F6020757F8042C02F00302032A02D167
:103F2000012001B0F0BD054657F82C0C0C4620F0DE
:103F3000806047F82C0CFDF727F9064657F82C0C43
:103F4000000105D5FDF720F9801B0228F6D964E0B1
:103F500057F8040CEE6895E80E0020F47C30012C34
:103F600040EA0130A2F101016FF35F214FF47E427C
:103F700002EB432247F8040C92B24FF0FE4302EBEF
:103F800001004FF4FE012A6901EB064101F4FE0134
:103F900003EB0262084402F0FE410844F86038680E
:103FA000696920F0C00040EA010038603868A969FA
:103FB00020F0200040EA0100386038684FF6F871C0
:103FC00020F0100038603869EA6920EA01004FF4F7
:103FD000001140EAC2003861386808BF4FF4801110
:103FE00040F01000002C386008BF4FF40021386802
:103FF0000843386057F82C0C40F0806047F82C0CD0
:10400000FDF7C2F8044600BF57F82C0C000107D496
:10401000FDF7BAF8001B0328F6D3032001B0F0BD6A
:10402000002001B0F0BD0000F0B581B044F22C4793
:10403000C5F6020757F8042C02F00302032A02D146
:10404000012001B0F0BD054657F82C0C0C4620F0BD
:10405000805047F82C0CFDF797F8064657F82C0CC3
:10406000800005D5FDF790F8801B0228F6D964E0A2
:1040700057F8040CEE6895E80E0020F07C70012CD7
:1040800040EA0150A2F101016FF35F214FF47E423B
:1040900002EB432247F8040C92B24FF0FE4302EBCE
:1040A00001004FF4FE012A6901EB064101F4FE0113
:1040B00003EB0262084402F0FE410844786138686C
:1040C000696920F4406040EA010038603868A969F5
:1040D00020F4007040EA0100386038684FF6F8714B
:1040E00020F480703860B869EA6920EA01004FF076
:1040F000807140EAC200B861386808BF4FF400011F
:1041000040F48070002C386008BF4FF4800138689C
:104110000843386057F82C0C40F0805047F82C0CBE
:10412000FDF732F8044600BF57F82C0C800007D486
:10413000FDF72AF8001B0328F6D3032001B0F0BDD9
:10414000002001B0F0BD000070470000000000003A
:10415000B0B501380024B4EB106F01D00120B0BD20
:104160004EF210050F21CEF2000568604FF0FF30CF
:1041700000F04EFDAC60072028602046B0BD000076
:1041800080B5FDF729FB80BD70B59CB044F61804DE
:1041900040F22C4509A84C21C5F60204C5F60005DD
:1041A000FCF7F4F802200026CDE90766CDE90566A4
:1041B000CDE90366CDE90166FDF7F2FB00962868BC
:1041C00020F001002860286800F0010000902068BD
:1041D00040F440402060206800F440400090009887
:1041E00020688004FCD54FF6DC40CFF6FF702158E4
:1041F00041F002012150205800F002000090009888
:1042000000200090206840F440402060206800F4C6
:1042100040400090286840F001002860286800F0C5
:1042200001000090009800BF20688004FCD50120A8
:1042300009904FF480300A9002200521CDE9120048
:104240001491C021CDE91510CDE9170009A8082463
:1042500019940025CDE91A55FEF75EFEA0B93F205E
:10426000019003204FF48061CDE9020540200494C1
:10427000CDE90500CDE9071001A80421FEF74CFCAB
:10428000002804BF1CB070BDFCF782FE00000000D7
:104290004EF6885042F2000CCEF20000C5F2002C1F
:1042A000016841F470010160DCF8000000F00F00CB
:1042B000062806D8DCF80000072161F30300CCF8DB
:1042C000000044F200404EF67F52C5F60200CEF6E2
:1042D000F622016841F001010160002101610368DB
:1042E0001A400260DCF80020120706D5DCF8002036
:1042F000072363F30302CCF8002040F2002281611F
:10430000C161C0F20222016282620022C0F2FF1289
:10431000C26240F28022C0F20112026341638263F2
:10432000C16302644164026822F480220260016673
:1043300041F20000C5F600400068B1EB507F05D1A6
:1043400048F208100121C5F20010016044F200009B
:1043500043F2D201C5F20020016070470000000066
:1043600010B5416E01B3016847F6117CC0F6000C30
:1043700047F6197E8A68C0F6000E8968C2F3426269
:104380004C0F1CF802301EF802101A011EF80430FF
:10439000B2FBF1F11CF80420A0F868101201B2FB86
:1043A000F3F2A0F86A2010BD0121A0F86A10A0F86D
:1043B000681010BD00000000816ACA070CD18A078E
:1043C00015D44A071ED40A0727D4CA0630D48A0651
:1043D00039D44A0655D541E00268D0F82CC053685C
:1043E00023F4003343EA0C0353608A07E9D50268DB
:1043F000D0F830C0536823F4803343EA0C03536091
:104400004A07E0D50268D0F834C0536823F480230B
:1044100043EA0C0353600A07D7D50268D0F838C0C6
:10442000536823F4004343EA0C035360CA06CED515
:104430000268D0F83CC0936823F4805343EA0C032D
:1044400093608A06C5D50268D0F840C0936823F40B
:10445000005343EA0C0393604A0612D50268D0F871
:1044600044C0BCF5801F536823F4801343EA0C0357
:10447000536006D1536823F4C00C836C43EA0C03E9
:104480005360090658BF70470168C06C4A6822F43F
:104490000022104348607047B0B582B00446002047
:1044A000C4F89000FCF770FE21680546096809070A
:1044B00019D54FF4001100226FF07E400090204685
:1044C0002B4600F039FB70B1206850E8000F2168DE
:1044D00020F0800041E80002002AF5D12020C4F835
:1044E000880003202FE020680068400723D54FF4A0
:1044F000800100226FF07E40009020462B4600F0A5
:104500001BFBC0B1206850E8000F216820F49070B8
:1045100041E80002002AF5D1206850E8020F216826
:1045200020F0010041E80202002AF5D12020C4F861
:104530008C00032007E02020C4F88800C4F88C0019
:104540000020E0662067002184F8841002B0B0BD2E
:10455000016851E8001F026821F4907142E80013DD
:10456000002BF5D14FF6FE7CCEF6FF7C026852E8B8
:10457000022F036802EA0C0243E802210029F5D168
:10458000C16E01290AD100BF016851E8001F02680D
:1045900021F0100142E80013002BF5D12021C0F8D2
:1045A0008C100021C16641677047000000000000C8
:1045B000F0B583B004460368806846F6F316D4E984
:1045C0000312104362691043E2691F68CCF6FF765C
:1045D000104307EA06021043186058684FF2FF477D
:1045E00020F4405240F6004011435960C5F60000E7
:1045F000A1698342C1F2FF171CBF226A11439A6866
:1046000047F2FF763A40C4F2000611439960DA6A35
:1046100044F2544122F00F02676AC5F602013A43A0
:10462000B342DA624FF0800225DD40F6FF77C4F234
:104630000107BB423FDD834200F0718041F2004739
:10464000C4F20107BB4200F0758041F20007C4F2DA
:104650000107BB4240F0A5800A68C2F3C203052BE4
:1046600000F296800122DFE813F09C009100950093
:10467000970099009B0044F6FF37C4F20007BB4245
:1046800033DC44F20047C4F20007BB4200F05D8017
:1046900044F60007C4F20007BB4240F082800A687B
:1046A00002F00703052B00F273800022DFE803F01D
:1046B000796E7274767847F60007C4F20007BB4241
:1046C00000F04E8047F60047C4F20007BB4240F0BE
:1046D00068800A6802F00703052B00F25980002267
:1046E000DFE803F05F54585A5C5E44F60047C4F2BA
:1046F0000007BB4200F03F8045F20007C4F200070C
:10470000BB4240F04E800A6802F00703052B00F21E
:104710003F800022DFE803F0453A3E4042444A68C9
:1047200002F00703052B33D80222DFE803F03A2F0B
:10473000333537390A68C2F3C203052B28D8012262
:10474000DFE803F02F24282A2C2E0A6802F0070342
:10475000052B1DD80022DFE803F024191D1F21239B
:104760000A6802F00703052B12D80022DFE803F0E5
:10477000190E121416180A6802F00703052B07D841
:104780000022DFE803F00E0307090B0D042208E006
:10479000802206E0082204E0102202E0202200E04D
:1047A00040222368834240F60010C0F23D0000F032
:1047B0005380E369B3F5004F40F07880402A00F25F
:1047C0001A810025DFE812F04100120117011701DC
:1047D0001B011701170117011F011701170117010D
:1047E00017011701170117012601170117011701FA
:1047F00017011701170117011701170117011701F9
:1048000017011701170117013401170117011701CB
:1048100017011701170117011701170117011701D8
:1048200017011701170117011701170117011701C8
:1048300017011701170117011701170117011701B8
:10484000170117011701170131010025FEF7B8FA0A
:10485000002840F0EF8049E1931E1E2B00F2748087
:104860000027DFE813F01F0077007A007700770059
:1048700077007E0077007700770077007700770079
:104880007700B8007700770077007700770077002F
:104890007700770077007700770077007700770060
:1048A000770083000027FDF7B3F85FE0402A00F2AD
:1048B000E6800025DFE812F04100DE00E300E300BF
:1048C000E700E300E300E300EB00E300E300E300C4
:1048D000E300E300E300E300F200E300E300E300B1
:1048E000E300E300E300E300E300E300E300E300B0
:1048F000E300E300E300E3000001E300E300E30082
:10490000E300E300E300E300E300E300E300E3008F
:10491000E300E300E300E300E300E300E300E3007F
:10492000E300E300E300E300E300E300E300E3006F
:10493000E300E300E300E300FD000025FEF740FA9A
:10494000002840F0BA80D1E0402A03D14FF4004063
:1049500000270BE00020012708E06846FDF700F97A
:1049600002E06846FDF790F90027019878B3616A84
:1049700047F6A042C0F600026668012532F8112011
:1049800006EB4603B0FBF2F19942C0F0AF8033036F
:10499000994200F2AB8000210023FBF799FC090249
:1049A000002341EA10613246000210EB560041F14B
:1049B0000001FBF78DFC4FF6FF42A0F54071C0F2FD
:1049C0000F02914205D821683D46C8608EE03D4601
:1049D0008CE001258AE051F8540C800649F2000071
:1049E000C0F2D03000F18B800027BFE70025FEF732
:1049F000FBF9F8B97AE000200125D8B976E06846DD
:104A0000FDF7AEF802E06846FDF73EF90025019893
:104A100080B96BE051F8540C800649F20000C0F2F6
:104A2000D03073D4002528B960E04FF40040002551
:104A300000285BD0616A47F6A042C0F6000232F857
:104A400011106268B0FBF1F0510801EB4000B0FBBF
:104A5000F2F0A0F110014FF6EF72914208D84FF634
:104A6000F07122680140C0F342000844D0603DE08C
:104A700001253BE00025FEF7B7F9F0B936E000204C
:104A80000125D0B932E06846FDF76AF802E06846D1
:104A9000FDF7FAF80025019878B927E051F8540C91
:104AA000800649F20000C0F2D03039D4002520B988
:104AB0001CE04FF400400025C0B1616A47F6A042F7
:104AC000C0F6000232F811106268B0FBF1F000EBA2
:104AD0005200B0FBF2F0A0F110014FF6EF729142DC
:104AE00003D880B22168C86000E001254FF00110B2
:104AF000A0660020C4E91D00284603B0F0BD51F8AF
:104B0000541C0027C1F3C101C8402FE751F8541CC1
:104B10000025C1F3C101C84000287FF48BAFE5E751
:104B200051F8541C0025C1F3C101C8400028C4D16C
:104B3000DCE70000000000002DE9F04381B00446EE
:104B40000068C0690840401AB0FA80F040099042FD
:104B500039D1DDF820800D461646994608F1010747
:104B600009E000BF2068C0692840401BB0FA80F00F
:104B70004009B0422BD1002FF4D0FCF705FBB8F16F
:104B8000000F01464FF0030022D0A1EB090141457F
:104B90001ED8206801684907E4D5C16909071AD4FD
:104BA000C1690905DED54FF4006101622046FFF7B7
:104BB000CFFC2020C4F89000002084F8840003205B
:104BC00001B0BDE8F083002001B0BDE8F083002013
:104BD00001B0BDE8F083082505622046FFF7B8FC68
:104BE000C4F89050002084F88400012001B0BDE892
:104BF000F083000000000000FEE70000000000005D
:104C00004EF60C50CEF200000068C0F30220704750
:104C10004EF6145300F00F02CEF20003B0F1FF3F46
:104C20001A4400F16043C8BF03F5644208011070E4
:104C300070470000000000004EF60C514FF6FF03D5
:104C4000CEF200010A681A4060F30A2242F0806046
:104C500040F0FD70086070474EF60C500422CEF212
:104C60000000C0F2FA52BFF34F8F016801F4E06117
:104C700011430160BFF34F8F00BFFDE7000000004C
:104C8000B0B582B0154601AA044600F0FDFA01282D
:104C90000ED10198A0F10801702911D31AA10822A0
:104CA0007723204601F0ACFE6FF0010002B0B0BDEA
:104CB00006A1204601F0A4FE4FF0FF3002B0B0BDC7
:104CC000400001902870002002B0B0BD1B5B333162
:104CD0006D4572726F723A20446576696365206132
:104CE000646472657373206973206E6F7420612031
:104CF000706F736974697665206E756D6265722177
:104D00000D0A1B5B306D00001B5B33316D45727209
:104D10006F723A20446576696365206164647265E8
:104D20007373206F7574206F662072616E676520E3
:104D3000283078253032582D3078253032582921C6
:104D40000D0A1B5B306D0000B0B582B0144601AA9D
:104D5000054600F099FA012804D10198208000202E
:104D600002B0B0BD03A1284601F04AFE4FF0FF306B
:104D700002B0B0BD1B5B33316D4572726F723A2069
:104D800052656769737465722061646472657373D8
:104D9000206973206E6F74206120706F736974696D
:104DA0007665206E756D626572210D0A1B5B306D34
:104DB000000000000000000002784AB1013000BF8E
:104DC0000B789A4204D110F8012B0131002AF7D157
:104DD0000878101A7047000070B58AB001AE0D4611
:104DE000044622213046FBF7D1FA022228463146FA
:104DF00001F05EF80FA12046324601F001FE10A13D
:104E000020462A4601F0FCFD10A120462A4601F06A
:104E1000F7FD11A120462A4601F0F2FD284600F0D8
:104E20006FFC02460FA1204601F0EAFD00200AB007
:104E300070BD00BF42494E3A20306225730D0A0012
:104E40004F43543A2030256F0D0A00004445433A41
:104E50002025640D0A0000004845583A2030782586
:104E6000580D0A004243443A2025640D0A00000010
:104E700010B5022913D15068FBF7F8FAC0B2022826
:104E800017D001281FD050BB40F600004FF400514E
:104E9000C5F602000122FCF75BF9002010BD48F2C4
:104EA000A1611268C0F6000101F0AAFD4FF0FF30C9
:104EB00010BD40F600004FF40051C5F60200FCF7AB
:104EC0003FF9002010BD40F600004FF40051C5F638
:104ED000020000220024FCF73BF9204610BD002010
:104EE00010BD00000000000070B50C46501E0860A8
:104EF000181D486004990020E060C4E90600C4E978
:104F000008008A6820610598A16060615AB1183173
:104F100012782D2A1FD051F8102BE368002A03F1D4
:104F20000103E360F4D100F10C0509E0FBF702FA9C
:104F30000068805D20280ED0E06914350130E06102
:104F400055F8040C08B9297839B100782D281CBF10
:104F50002E782D2EEAD1002070BD012070BD0000FA
:104F60002DE9F04F83B0D1F800B00D6A5D4504D152
:104F70004FF0FF3003B0BDE8F08FD1F804906F1C04
:104F80000F620C4659F825604E6230782D2806D104
:104F9000FBF7D0F971780068405C202822D1D4E971
:104FA0000310884219DAA16801EB00100021029178
:104FB0000079022868D0012868D0002840F0A3803A
:104FC00002AA314600F060F900286FD0022800F0F4
:104FD0009480012840F097806DE06FF0670003B087
:104FE000BDE8F08F002900F0B5802D2905D0B078FC
:104FF000002863D02D2940F0AD8016F8020F00285C
:1050000000F0A88065694FF0000A4FF0000804E046
:10501000287B002800F087801435A9680029F7D084
:10502000304601F07DFF01281CDB315C39B13D29A0
:105030001CD1304410F8011F002918BF80462846B3
:1050400000F01AF940B1206A584505DA59F82010E5
:105050000A782D2A10D100BF0820AA460A2808D1B4
:10506000DAE700BF00200A2803D1D5E70A200A2882
:10507000D2D00028D0D056E0013020620820AA46C5
:1050800088460A28F5D1C7E7A6623CE002AA314665
:1050900000F0FAF850B102280DD0012833D19DED6F
:1050A000020AB8EE400A84ED0A0A2CE06FF06500AF
:1050B00003B0BDE8F08F0298A06224E0D4F814A0F9
:1050C00004E0DAF8080038B30AF1140A9AF80C0080
:1050D0000028F6D08842F7D1504600F0CDF85F4561
:1050E0004FF000081FDAF0B159F8278098F8000057
:1050F0002D2816D14FF0000815E09DED020ABDEEF7
:10510000C00A84ED0A0A2069A16802010130206109
:10511000885803B0BDE8F08F4FF0000A4FF0000848
:1051200001E0A81C2062BAF1000F13D0B8F1000F03
:1051300015D09AF8040000210191062819D00528FD
:105140001AD0042828D101A900224046FBF756F9BD
:10515000A06217E06FF0630003B0BDE8F08F9AF82B
:105160000400043803281AD26FF0660003B0BDE8CB
:10517000F08FC4F8288005E001A9404602F076F8D7
:1051800084ED0A0A019828B1007818B16FF0650023
:10519000002103E0012101E06FF0670021B1A06967
:1051A0000130A061DAF8000003B0BDE8F08F000024
:1051B00000F16801042908D80FF20400DFE801F0CB
:1051C00003080A0C0E000DA0704760B908A07047D4
:1051D00011A0704717A070471EA0704748F60350F3
:1051E000C0F60000704749F22B30C0F6000070474F
:1051F0006E6F206572726F72000000006572726FD0
:10520000723A20746F6F206D616E792061726775DC
:105210006D656E74730000006572726F723A20746F
:105220006F6F2066657720617267756D656E747348
:10523000000000006572726F723A20696E76616CD0
:10524000696420617267756D656E742076616C7536
:10525000650000006572726F723A20696E76616C4B
:10526000696420617267756D656E7420747970650C
:1052700000000000000000000079011F0020032949
:1052800038BF0120704700002DE9F04381B0087855
:105290000D4691460091302840F08C80284610F849
:1052A000011F0090782900F2BF800A244FF0000807
:1052B000082600270020DFE811F0BD00B700B70086
:1052C000B700B700B700B700B700B700B700B70026
:1052D000B700B700B700B700B700B700B700B70016
:1052E000B700B700B700B700B700B700B700B70006
:1052F000B700B700B700B700B700B700B700B700F6
:10530000B700B700B700B700B700B700B700B700E5
:10531000B700B700B7009B00B7007E007E007E009C
:105320007E007E007E007E007E00B700B700B700E2
:10533000B700B700B700B700B700B700B7007900F3
:10534000B700B7008F00B700B700B700B700B700CD
:10535000B700B700B700B700B700B700B700B70095
:10536000B700B700B700B700B700F600B700B70046
:10537000B700B700B700B700B700B700B7007900B3
:10538000B700B7008F00B700B700B700B700B7008D
:10539000B700B700B700B700B700B700B700B70055
:1053A000B700B700B700B700B700F600A81C009020
:1053B000022600E00A2600980178A9B36946324621
:1053C000FBF71CF80099804609782E290FD0652933
:1053D00018BF452923D13446009810F8011FF1B1B8
:1053E000694622460090FBF709F8002719E0344689
:1053F000009810F8011F91B1694622460090FAF713
:10540000FDFF009907460A7842F02002652A07D17D
:10541000481C694622460090FAF7F0FF01E0002799
:1054200000200099097829B1C9F80050002001B086
:10543000BDE8F08300EE107AB8EE400A5FB1B2EE3C
:10544000041AB7EE002A00BF80EE010AB4EE420A49
:10545000F1EE10FAF8DA01EE108A0128B8EEC11A5E
:1054600030EE010A07DBB2EE041A00BF20EE010A9B
:105470000138FBD108E0B0F1FF3F05DCB2EE041AC1
:1054800080EE010A0130FBD32FB189ED000A022022
:1054900001B0BDE8F083BDEEC00A012089ED000A2D
:1054A00001B0BDE8F0831026A81C009083E700003F
:1054B00010B50446416F48F6F140C0F60000884739
:1054C00060690021C4F81A100170204601F0A8FCA0
:1054D00010BD00000000000080B5416F01A08847AA
:1054E00080BD00BF1B5B324A1B5B314800000000DF
:1054F00070B50446868B408B864228BF70BD608B9A
:1055000086420AD248F66175C0F60005616F2846EA
:105510008847608B01368642F8D3A68B608B864223
:105520000BD248F2FA65C0F6000500BF616F28464D
:105530008847608B01368642F8D3A08B00226169D0
:1055400060830A5470BD0000B0B50446808B00280B
:1055500008BFB0BD48F2FA65C0F60005616F284685
:105560008847A08B0138A0830104F7D1B0BD0000AB
:1055700010B50446808B618B884228BF10BD6169DD
:10558000626F08449047608BA08310BD000000004C
:1055900080B5416F01A0884780BD00BF082008008A
:1055A00080B5002101F058FA80BD00000000000025
:1055B00080B5012101F050FA80BD0000000000001C
:1055C00080B5012100F0B8F980BD000000000000A6
:1055D00010B5044600F01CFF204601F021FC10BD70
:1055E00080B5818B002908BF80BD01398183416F5F
:1055F00048F2FA60C0F60000884780BD0000000055
:1056000080B5818B428B914228BF80BD42694B1C83
:105610008383525C48F60051C0F6000101F0F0F9B6
:1056200080BD0000000000002DE9F0470446408BDB
:1056300050B32089D4F80490A0B348F6F46800274A
:10564000C0F600084E464FF0000A00250BE000BFF0
:1056500020463146013501F03FFBBA46208901372B
:105660001436874221D2304600F042FF0028F5D0A0
:10567000628B6169FAF7B3FE0028EFD12804E7D105
:10568000616F40468847E3E748F6F460616FC0F613
:1056900000008847204601F05BF8204601F0C0FB7F
:1056A000BDE8F08700254FF0000AA8B2002808BF27
:1056B000BDE8F087012812D11FFA8AF065698000E1
:1056C00010FA8AF009EB800000F012FF014628462C
:1056D000FAF77CFE6069FAF764FE6083A0832046D7
:1056E00001F09EFB6069616F8847BDE8F0870000AC
:1056F00080B5002100F020F980BD0000000000000E
:1057000010B5E0B14CF6CD4C01460022CCF6CC4CA5
:10571000002000BF1FFA81FEAEFB0C34BEF1090F62
:105720004FEAD40303EB8304A1EB440189B201FAED
:1057300002F102F1040208441946EBD810BD002022
:1057400010BD000000000000017861B14EF2C653A8
:10575000421E0020CBF23343584008449178013276
:105760000029F9D1704700207047000000000000B8
:105770002DE9F047AEB0044647F67040C0F6000091
:105780000E460DAD904601682691416827918168CB
:105790002891C168299101692A9141692B918169F8
:1057A0002C9147F60C41C0692D90C0F6000164228F
:1057B0002846FAF7D2FD02AF26A8009020463946C7
:1057C000324643460195FFF78FFB4FF4B879042525
:1057D0004FF000084FF0010A20463946FFF7C0FBA2
:1057E00006466830052821D3701C0528F4D8DFE868
:1057F00000F02C040711033FEEE7DDF83080EBE703
:105800000C9DE8B204283FD80AFA00F010F0160FF9
:10581000E2D139E0DDF83090B9F1000FDCD11EA102
:10582000204601F0EDF86FF065060AE070B2FFF770
:10583000BFFC49F2C0210246C0F60001204601F03B
:10584000DFF830462EB0BDE8F087DDE90501814282
:1058500010DA6FF066006FF06606FFF7A9FC49F2F8
:10586000C0210246C0F60001204601F0C9F8E8E771
:105870000026E6E7E8B200902046414642464B4605
:1058800000F076FB0026DCE70AA1204601F0B8F81C
:105890006FF06506D5E700BF1B5B33316D496E764F
:1058A000616C6964206C656E6774680D0A1B5B30FF
:1058B0006D0000001B5B33316D496E76616C69646D
:1058C0002073697A650D0A1B5B306D0000000000D3
:1058D00010B50446B0F86C0000284FF00000A4F8A2
:1058E0006A000BD0B4F868006169013800F0030069
:1058F00004EB8000806DFAF75BFDC8B1B4F8680076
:1059000004EB80010130A4F86800886D6169FAF742
:105910005DFDB4F86C00032802D80130A4F86C00D7
:10592000B4F86800042818BF10BD0020A4F868006F
:1059300010BD000000000000B0B50129044609D0E8
:1059400079BBB4F96A00B4F86C10C84229D080B2AF
:10595000013805E0B4F86A00002808BFB0BD013086
:10596000A4F86A002046FFF7A3FDB4F96A00C8B1A5
:10597000B4F868100844043000EB907121F0030182
:10598000401A04EB80016069896DFAF71FFD6569B3
:105990002846FAF706FD60832946A083204601F0D9
:1059A0002FF8B0BD0020C4F81A00B0BD0000000000
:1059B0002DE9F04FC7B002291546044609DA49F22D
:1059C00077012A68C0F60001204601F019F8002787
:1059D00004E10E4669680DF21B122046FFF750F9EC
:1059E0000746002800F1FA80032E15DBA86881A184
:1059F000FFF7E2F980B1A8687FA1FFF7DDF9002881
:105A000000F0F080A8687DA1FFF7D6F9002800F02B
:105A1000ED804FF0FF37E1E004974FF0000848F6C3
:105A20000F70616FC0F6000088479DF81B6148F653
:105A300059770022C0F600074FF0000B0CE000BFC2
:105A4000616F74A08847059800F1100B1FFA8BF264
:105A5000B2F5807F80F0C180204669A1059200F0F8
:105A6000CFFF00250BE000BF616F38468847013546
:105A7000616F384688470135A8B2102876D205EB09
:105A80000B0082B2B2F5807F26D80DF11B01B8F170
:105A9000020F11FA80FA09D0B8F1010F0AD0B8F15B
:105AA000000F16D1CDF800A0012006E00420CDF8AB
:105AB00000A002E0CDF800A002200190FF2002909B
:105AC00040F200400123C2F200403146FBF7B8FC2F
:105AD0008146B9F1000F10D0B8F1000FC8D0B8F16D
