:020000040800F2
:1000000008210024AD020008B92E0008292D00089F
:10001000B12E0008390800086952000800000000ED
:10002000000000000000000000000000393300085C
:10003000E108000800000000F130000879330008F2
:10004000C7020008C7020008C7020008C70200086C
:10005000C7020008C7020008C7020008C70200085C
:10006000C7020008C7020008C7020008C70200084C
:10007000C7020008C7020008C7020008C70200083C
:10008000C7020008C7020008C7020008C70200082C
:10009000C7020008C7020008C7020008C70200081C
:1000A000C7020008C7020008C7020008C70200080C
:1000B000C7020008C7020008C7020008C7020008FC
:1000C000C7020008C7020008C7020008C7020008EC
:1000D000C7020008C7020008C7020008C7020008DC
:1000E000C7020008C702000800000000C70200089D
:1000F000C7020008C7020008C7020008C7020008BC
:10010000C7020008C7020008C7020008C7020008AB
:10011000C7020008C7020008C7020008C70200089B
:10012000C7020008C7020008C7020008C70200088B
:10013000C7020008C7020008C7020008C70200087B
:1001400000000000000000000000000000000000AF
:10015000C7020008C7020008C7020008C70200085B
:10016000C7020008C7020008C7020008C70200084B
:10017000C7020008C7020008C7020008C70200083B
:10018000C7020008C7020008C7020008C70200082B
:10019000C7020008C7020008C7020008C70200081B
:1001A000C7020008C7020008C7020008C70200080B
:1001B000C7020008C7020008C7020008C7020008FB
:1001C000C7020008C7020008C7020008C7020008EB
:1001D000C7020008F12E0008C7020008C702000885
:1001E000C7020008C7020008C7020008C7020008CB
:1001F000C7020008C7020008C7020008C7020008BB
:10020000C7020008C7020008C7020008C7020008AA
:10021000C7020008C7020008C7020008C70200089A
:10022000C7020008C7020008C7020008000000005B
:10023000C7020008C702000800000000C70200084B
:10024000C7020008C7020008C7020008C70200086A
:10025000C7020008C7020008C7020008C70200085A
:10026000C7020008C7020008C7020008C70200084A
:10027000C7020008C7020008C7020008000000000B
:10028000C7020008C7020008C702000800000000FB
:1002900000000000C7020008DFF80CD000F02AFAC6
:1002A00000480047E952000808210024064880471A
:1002B00006480047FEE7FEE7FEE7FEE7FEE7FEE74B
:1002C000FEE7FEE7FEE7FEE7393400089902000882
:1002D000D2B201E000F8012B491EFBD27047002288
:1002E000F6E710B513460A4604461946FFF7F0FF35
:1002F000204610BD30B50B460146002020220124C7
:1003000009E021FA02F59D4205D303FA02F5491BE3
:1003100004FA02F52844151EA2F10102F1DC30BDF9
:100320002DE9F05F0546002092469B46884606462A
:10033000814640241BE0284641464746224600F0BD
:10034000FAF953465A46C01A914110D3114618463D
:10035000224600F0E1F92D1A67EB01084F462246CC
:100360000120002100F0D8F917EB00094E41201EB2
:10037000A4F10104DFDC484631462A464346BDE885
:10038000F09F2DE9FE4F804681EA0300C00F0C4626
:10039000009021F0004123F00045B8EB0200A94194
:1003A00005D24046214690461C460B46024623F0A5
:1003B0000040104347D0270DC7F30A00C3F30A518A
:1003C0000290401A019040286BDAC3F3130040F406
:1003D000801B0098924620B10023D2EB030A63EB06
:1003E0000B0B01985946C0F14002504600F094F9B9
:1003F00006460D4650465946019A00F0ACF910EBFE
:1004000008006141002487EA115284EAE7731A4325
:1004100040D0009A62B3019A012A4FEA075215DCD4
:10042000001B61EB02014FF0004202EA0752CDE9E6
:100430000042001C41F5801132462B4600F0ACF919
:1004400003B0BDE8F08F40462146F9E7001B61EBA1
:100450000201001C41F5801300185B412018A2F531
:10046000001747EB030140EAD570B6196D4111E062
:100470006D084FEA360645EAC0754FEA0752001B81
:1004800061EB0201001C41F5801149084FEA300080
:100490000019514132462B4603B0BDE8F04F00F041
:1004A0006CB90098012240000023D0EB020263EBFC
:1004B000E073009821464FEAE074B8EB000061EB6E
:1004C0000401E9E783F000435BE781F0004158E76E
:1004D0002DE9FE4F81EA030404F0004421F00041BD
:1004E00000944FF0000B23F0004350EA01045ED06B
:1004F00052EA03045BD0C3F30A54C1F30A552C44F7
:10050000A4F2F3340194A0FB0254C1F3130141F4AB
:100510008011C3F3130343F4801301FB024400FB77
:10052000034E840A970A44EA815447EA8357A4FB9E
:10053000076802958D0A05FB07854FEA932C04FB9B
:100540000C542705029D4FEA065847EA1637B5EBCB
:1005500008056EEB070C870E920E47EA811742EAF8
:100560008312A7FB0201B6EB0B0164EB00042B0D19
:1005700043EA0C335E1844EB1C50DA465146E7FB65
:100580000201C5F313044FEA0B3343EA14534FEA55
:100590000432019C43EA0603A4F10C040294009C7B
:1005A000CDE900B400F0F8F803B0BDE8F08F00200A
:1005B0000146F9E72DE9F04D81EA030404F0004B10
:1005C00021F0004514464FF0000A23F0004150EAA4
:1005D000050220D054EA01021DD0C5F30A57024695
:1005E000C5F31303C1F31300C1F30A5640F4801599
:1005F00043F48013A7EB0608101BD64608F2FD381B
:1006000073EB050002D308F1010801E092185B4189
:10061000B8F1000F03DA00200146BDE8F08D00209C
:100620004FF48011064684460EE0171B73EB050756
:1006300005D3121B63EB050306434CEA010C490882
:100640004FEA300092185B4150EA0107EDD152EABF
:10065000030012D082EA040083EA0501084305D0B2
:10066000101BAB4106D20122002306E000224FF00E
:10067000004302E06FF0010253101AEB06004CEB4E
:10068000085110EB0A0041EB0B01BDE8F04D00F002
:1006900074B8C1F30A52C1F3130140F2FF3341F4BD
:1006A00080119A4202DA00200146704740F233433B
:1006B0009A42A2F2334202DC524200F03CB800F00F
:1006C0002BB8000030B5041E71F1000404DB4FF0BC
:1006D0000044404264EB0101141E73F1000405DB89
:1006E0001C464FF00043524263EB0403994208BF9B
:1006F000904230BD064C074D06E0E06840F0010333
:1007000094E8070098471034AC42F6D3FFF7C8FDD1
:10071000B45C0008D45C0008202A04DB203A00FA0C
:1007200002F1002070479140C2F1200320FA03F348
:10073000194390407047202A04DB203A21FA02F046
:100740000021704721FA02F3D040C2F1200291400B
:10075000084319467047202A06DBCB17203A41FA96
:1007600002F043EAE07306E041FA02F3D040C2F13E
:100770002002914008431946704710B5141E73F1CA
:10078000000408DA401C41F1000192185B411A4351
:1007900001D120F0010010BD2DE9F04D92469B469D
:1007A00011B1B1FA81F202E0B0FA80F22032904643
:1007B000FFF7B2FF04460F4640EA0A0041EA0B0188
:1007C00053465A46084313D0114653EA010019D044
:1007D000C8F140025046FFF7AEFF05460E465046B0
:1007E00059464246FFF798FF084305D0012004E030
:1007F00020463946BDE8F08D0020054346EAE07604
:100800002C4337430A986305E40AA0EB0800002252
:10081000FD0A44EA47540A3002D500200146E9E7C0
:10082000010510196941DDE9084500196941BDE874
:10083000F04DA2E700000000FEE70000000000000D
:1008400000207047000000000020704700000000FA
:1008500010B541F21C5440F61C51C2F20044C2F2E1
:1008600000410022204603F027F840F21C512046A8
:10087000C2F2004103F010F8002010BD000000009B
:1008800010B541F21C540146C2F20044204603F068
:1008900003F8204602F0DCFF002010BD000000003D
:1008A000002070470000000010B541F21C52C2F257
:1008B0000042D2F8BC22D2F81422002A1CBF012028
:1008C00010BD41F21C540A46C2F2004401462046C3
:1008D00002F0F2FF204603F08FF810BD0000000088
:1008E0007047000000000000EFF3108072B600BFF8
:1008F000FEE7000000000000B0B54EF60001C1F6B2
:10090000F17108688A68801808BFB0BD40F2D80548
:100910004C68C2F200450822A91C02F009FA05F150
:1009200012010422204602F003FAB0BD00000000CC
:10093000B0B5044600F0F0F840F2F2010546C2F20C
:100940000041621C097818BF0C4400BF00F0E4F8B5
:10095000401BA042FAD3B0BD2DE9F04F83B00C6824
:10096000002C00F0C68000F1264242F2004702F15E
:10097000FF72C5F602074FEAB22201920A22B8427C
:1009800008BF0922002500274FF0010A009209E064
:100990000C68043734FA0AF20AF1010A05F102057B
:1009A00000F0A780AAF10109012202FA09FE14EA67
:1009B0000E08EDD0D1F804B00BF00304A4F1010C43
:1009C000BCF1010F11D803228668AA40CB6826EA41
:1009D0000202AB401A438260CBF30013426822EA62
:1009E0000E0203FA09F31A434260032C1ED00323BC
:1009F000C268AB40022C22EA03028B6803FA05F3BB
:100A000042EA0302C26011D16FF0030207F01C0634
:100A100002EA59020F23024403FA06F4D2F820C076
:100A20000B692CEA0404B3402343136203230268D6
:100A3000AB404E689A4306F00303AB4016F4403FC8
:100A400042EA03020260A3D044F2F44340F2084EAB
:100A5000C5F60203C5F6000E1A6842F002021A60DB
:100A60001A6807F00C0302F002020292029A29F0BF
:100A70000302019C009E092C38BF26460F2452F821
:100A80000EC09C402CEA040406FA03F34FF0B04C6D
:100A9000234342F80E30DCF800204B6842EA080697
:100AA000DC0258BF22EA08069C02CCF8006040F243
:100AB000040CC5F6000CDCF8002042EA080658BF1A
:100AC00022EA08069C03CCF80060DCF8802042EAA9
:100AD000080658BF22EA0806DB03CCF88060DCF881
:100AE0007C2042EA080658BF22EA0806CCF87C605F
:100AF0004EE703B0BDE8F08F002A08BF090481610A
:100B0000704700000000000041F20000C5F6004000
:100B10000068000C7047000041F60450C2F200402B
:100B2000006870470000000040F2F20041F60451F6
:100B3000C2F20040C2F2004100780A681044086026
:100B4000704700000000000080B5032000F0D0F8DE
:100B500001F04EFD44F2184145F6A443C5F60201EA
:100B6000C0F600030A68096801F00F01C2F303220E
:100B7000595C9A5C01F01F0102F01F02D04040F264
:100B80002002C2F2004220FA01F1116040F21C0181
:100B9000C2F2004108600F2000F00AF800281CBFD4
:100BA000012080BD00F080F8002080BD0000000022
:100BB000B0B540F2F201C2F20041097801B3044637
:100BC00040F21C00C2F200404FF47A72B2FBF1F125
:100BD0000068B0FBF1F002F0A3F80F2C4FF0010514
:100BE0000CD858B94FF0FF3000222146002500F004
:100BF0006FF840F2F400C2F2004004602846B0BD35
:100C00000120B0BD00000000B0B502784EF69C5C3B
:100C1000CEF2000C43784CF8043CF2B14368CCF8B7
:100C20000030037BC17A90F80AE0457B447A42EABF
:100C30000372837B42EA0161C27B41EACE41007AC2
:100C400041EA854141EA434141EA024141EA042146
:100C500041EA4000CCF80400B0BD0020CCF8000010
:100C6000CCF80400B0BD00004EF62450CEF20000D7
:100C7000BFF35F8F016821F48031016000210167BB
:100C800070470000000000004EF6245140F00100C3
:100C9000CEF200010867086840F480300860BFF3B6
:100CA0004F8FBFF36F8F704781B044F2F440C5F6A9
:100CB0000200016841F002010160006800F00200DA
:100CC0000090009801B0704780B504F0D1FA80BD63
:100CD00070B514460D46064604F0DAFA2946224657
:100CE00002F0EEF80146304604F0DAFA70BD00007A
:100CF00080B504F0E9FA80BD01680122C0F8002542
:100D0000002280F8F424886940F000608861486D12
:100D100040F08052002042F003024A657047000014
:100D20007047000000000000026800205162704718
:100D300010B5D0F800C0DCF82400D9B1DCF82830B8
:100D4000B1F1010E00EB13430CD00021002000BFD5
:100D50000CEB81010130D1F80441C1B28E4503EBA7
:100D60001443F5D80CEB8E0043EA0241C0F804119D
:100D7000002010BD40EA0240CCF82800002010BD41
:100D800080B5D0F8080503F02FF980BD0000000001
:100D900080B501EBC10200EB8202D0F80805D26CED
:100DA00003F08EF880BD000080B501EBC10200EBBE
:100DB0008202D0F80805D2F88C2203F0D9F880BD61
:100DC00080B5D0F8080503F013F980BD00000000DD
:100DD00080B501F00F02090602EBC20200EB8203AC
:100DE00003F13C0258BF03F51F720068114604F07E
:100DF0003BF880BD0000000010B5044601F00F0074
:100E00000A0600EBC00104EB810205D402F51F7154
:100E1000002382F87D3204E002F13C01012382F8D4
:100E20003D3094F8BC240870012A01D1022010BD85
:100E3000012084F8BC04206803F01AFD002084F827
:100E4000BC0410BD00000000B0B5044601F00F0066
:100E50006268904201D90120B0BD090609D400EBB7
:100E6000C001002304EB810202F51F7182F87D327C
:100E700008E000EBC001012304EB810202F13C0118
:100E800082F83D3094F8BC2400258D70012A08704A
:100E900001D10220B0BD012084F8BC04206803F019
:100EA000B7FE284684F8BC54B0BD00000000000026
:100EB00001F00F0101EBC10100EB8100D0F89C02B1
:100EC0007047000000000000B0B5054601F00F00BB
:100ED0000C0600EBC00105EB810C05D40CF51F716D
:100EE00000248CF87D4204E00CF13C0101248CF8D4
:100EF0003D404C780870CA60002C0B7118BF088107
:100F0000022B01D10020487195F8BC04012801D1C1
:100F10000220B0BD012085F8BC04286803F0DCFB8A
:100F2000002085F8BC04B0BD80B501F00F0C0CEBBF
:100F3000CC0100EB810E0021CEF894320369CEF88B
:100F40008C22012BCEF89C128EF87D120EF51F71AB
:100F50008EF87CC208BFCEF89022BCF1000F00686A
:100F6000DAB203D003F0A4FE002080BD03F0A0FDA0
:100F7000002080BD00000000B0B5044601F00F0560
:100F80004068854201D90120B0BD080609D401EBB3
:100F9000C100002204EB800000F51F7180F87D2263
:100FA00008E005EBC500012204EB800000F13C01E4
:100FB00080F83D2094F8BC2401208870012A0D702F
:100FC00001D10220B0BD84F8BC04206803F048FEC3
:100FD0002DB9217C04F2C442206803F0E9FD002011
:100FE00084F8BC04B0BD000010B501F00F0C012462
:100FF0000CEBCC0100EB810E714601F83CCF8B610C
:1010000000230B6203694C70012B0A6108BFCEF804
:101010005020BCF1000F0068DAB203D003F048FEA4
:10102000002010BD03F044FD002010BD00000000B2
:101030002DE9F04F83B006688246304603F0C0FFCA
:1010400010B103B0BDE8F08FDAF8000003F0E8FF5C
:101050000028F6D0D6F80808C0F30D20CAF8FC0422
:10106000DAF8000003F0DCFF800705D5DAF80000AD
:10107000416901F002014161DAF8000006F50067FC
:1010800003F0CEFFC00640D5DAF80000816921F0F8
:1010900010018161346A04F00F05C4F3434006284F
:1010A0001CD002282BD147F6F070044027D005EB66
:1010B000C50022090AEB80053046D5F88C1203F0F2
:1010C000B3FFD5F88C02D5F89C1200EB1410C5F8CC
:1010D0008C0201EB1410C5F89C0210E00AF2C44126
:1010E0000822304603F0A0FF05EBC500C4F30A1147
:1010F0000AEB8000D0F89C221144C0F89C12DAF868
:101100000000816941F010018161DAF80000CDE949
:10111000017603F085FF000370D5DAF8000003F0D4
:101120005BFF00286AD00646029800F530654FF054
:10113000000940F27F2400270BE000BFB9EB560FF7
:1011400007F101074FEA560605F1200504F12404D2
:1011500054D0F007F2D05FFA87F8DAF80000414681
:1011600003F056FF8346C00710D15FEA0B7016D418
:101170005FEACB601CD45FEA8B701ED45FEA8B60A1
:1011800033D45FEA8B40D9D534E000BF0120A8609A
:101190005046394601F0DCFE5FEA0B70E8D50820C6
:1011A000A8605046394601F0ABFE5FEACB60E2D55D
:1011B0001020A8605FEA8B70E0D5029840690006B5
:1011C00004D50199486840F4806048601AF804002A
:1011D000012805D1504641460AF8049000F050FA23
:1011E0000220A8605FEA8B60CBD52020A8605FEA70
:1011F0008B40A3D54FF40050A8609FE7DAF80000B9
:1012000003F00EFF400340F18780DAF8000003F09E
:10121000DBFE002800F0808006460AF2C440009001
:10122000029800F510680AF13F0B4FF00009002703
:101230000BE000BFB9EB560F07F101074FEA560666
:1012400008F120080BF1240B66D0F007F2D0FCB2B5
:10125000DAF80000214603F0C7FE0546C0070BD1AF
:10126000280731D4E80634D4680637D4A8073AD41E
:101270002806DFD54BE000BF019A07F00F000123DD
:1012800003FA00F0516B21EA00005063C8F80830FF
:10129000DAF81000012811D1DBF80900DBF80D1095
:1012A0000844CBF80D004FB9DBF8150030B9DAF877
:1012B00000000121009A03F07BFC00BF504621464C
:1012C000FFF766FD2807CDD50820C8F80800E80616
:1012D000CAD51020C8F808006806C7D54020C8F84D
:1012E0000800A807C4D50298394603F031FE9BF8E0
:1012F0000000012805D1504621468BF8009000F0EF
:10130000B7F90220C8F8080028067FF593AF5046C9
:10131000394601F089FE8DE7DAF8000003F080FE1F
:10132000B0F1FF3FDDE901981ADCD9F8040020F0A4
:101330000100C9F804009AF8F404012807D100203C
:101340008AF8F40400215046FFF7EAFC02E0504618
:1013500000F0AEFADAF80000416901F000414161A5
:10136000DAF8000003F05CFE00050CD5D9F808009F
:10137000C00702D0504600F0EBFADAF800004169ED
:1013800001F400614161DAF8000003F049FE000158
:1013900018D5DAF80000416901F0006141619AF85E
:1013A000F41419B1504600F0D3FA0BE001218AF889
:1013B000F414406D0121C0F38300CAF8F8045046CC
:1013C000FFF7AEFCDAF8000003F02AFEC00460D597
:1013D000D9F80400102120F00100C9F80400DAF85F
:1013E000000003F0B5FDDAF80400F8B108F510606C
:1013F000DAF8041000224FF67F3300BF8360013219
:1014000007688A4227F400170760C0F80832D0F84E
:10141000007227F40017C0F80072D0F8007247F08D
:101420000067C0F8007200F12000E7D3D9F81C0073
:1014300040F00110C9F81C00DAF8300040B1D9F8CA
:10144000840040F00B00C9F8840009F1440008E072
:10145000D9F8140042F22B010843C9F8140009F12D
:10146000100001680AF2C44241F00B010160D9F892
:10147000000020F4FE60C9F800009AF81010DAF8B5
:10148000000003F095FBDAF80000416901F4805197
:101490004161DAF8000003F0C3FD80041CD5DAF8DE
:1014A000000003F065F9DAF8000003F079FDCAF8EE
:1014B0000C00DAF8004001F073F89AF80C200146AD
:1014C000204603F029FE504600F0DAF9DAF8000071
:1014D000416901F400514161DAF8000003F0A0FD18
:1014E000000708D5504600F0EBF9DAF80000416932
:1014F00001F008014161DAF8000003F091FD0006F7
:101500001ED5D8F8180020F08000C8F81800DAF8C6
:101510000400022814D3012440F2A32507E000BFF1
:101520000134DAF80400844205F1240508D21AF8DF
:1015300005000128F4D1E1B25046FFF749FCEFE77E
:10154000DAF8000003F06CFDC0022AD5DAF80400D6
:10155000022820D308F512640AF164050126012748
:1015600009E000BF0137DAF80400874204F12004E3
:1015700005F124050FD22068B0F1FF3FF2DC287896
:101580000128EFD147F0800005F8016CC1B2504648
:10159000FFF71EFCE6E7DAF80000416901F480116C
:1015A0004161DAF8000003F03BFD80023AD5DAF839
:1015B0000400022830D308F532600AF529710122AF
:1015C000012308E00133DAF80470BB4200F1200087
:1015D00001F1240120D20768B7F1FF3FF2DC0E7859
:1015E000012EEFD1DAF8FC6407F4803706F001062B
:1015F000B742E7D101F8012CD8F8187047F08007FE
:10160000C8F81870D8F814703F06DBD4D9F8040075
:1016100040F40070C9F80400DAF80000416901F4F0
:1016200000114161DAF8000003F0FAFC400008D52F
:101630005046FFF7A5FBDAF80000416901F0804150
:101640004161DAF8000003F0EBFC40077FF5F9ACEC
:10165000DAF800004468600702D55046FFF7B0FB97
:10166000DAF8000041682143416003B0BDE8F08F23
:1016700080B5D0F8080502F01BFD80BD0000000019
:1016800080B5D0F8080502F027FD80BD00000000FD
:101690002DE9F04F8BB0002800F0878004460568E4
:1016A00090F8BD0428B9002084F8BC04204600F05E
:1016B00093F8032084F8BD04E86BC00501D4002032
:1016C0002061206803F0ECF920680A9004F1040E10
:1016D00004F11C0AD4E90C509EE80E589AE8C007A1
:1016E000CDE9085003A88DE8005880E8C0070A98A3
:1016F00003F04EF8002855D120680021002503F0A2
:10170000BBFC6168C1B1616801200023002200BFF9
:1017100003EBC30304EB8307D3B287F83C20013209
:10172000A7F84430D3B287F83D00994287F840507B
:10173000BD64FD647D65EBD8B1B1002000230022BB
:1017400003EBC30304EB830787F87C220132D3B297
:1017500087F87D02994287F88002C7F88802C7F8A7
:101760008C02C7F89402EBD804F1140E04F1240A99
:101770002268A0680A90D4E903379EE840589AE8A6
:101780000007D4E90C50CDE9085002A8CDE9007655
:1017900080E8005805A880E8000710460A9A03F080
:1017A000CFF830B1022084F8BD0401200BB0BDE8B1
:1017B000F08F002084F83800012084F8BD04606AAE
:1017C000012802D12046FFF797FA206803F0A8F815
:1017D00000200BB0BDE8F08F10B5B6B00021044674
:1017E000CDE93411CDE93211319102A8BC21FEF7C7
:1017F00076FD00212068C4F20801884201D036B08D
:1018000010BD4FF4802002904FF48010239002A866
:1018100000F0EAF808B1FFF767F800F0D9F844F2F1
:10182000D84431A9C5F60204A06840F00100A060C8
:10183000A06800F00100019001984FF4C050319071
:10184000022032900020CDE933000A20359000209C
:10185000C5F60200FFF780F82068002140F0006024
:1018600020602068002200F000600190019865204F
:10187000FFF72EFA6520FFF727FA36B010BD0000FB
:1018800010B50446C06818B1022803D1012104E054
:10189000002102E0FFF728F80121D4F8080502F042
:1018A00093FCD4F8080502F03FFC10BD00000000D6
:1018B00080B5D0F8080502F06BFC80BD0000000088
:1018C00080B5D0F8080502F06FFC80BD0000000074
:1018D00010B5044690F8BC04012801D1022010BDC7
:1018E000012084F8BC0484F83810206803F0F8FB69
:1018F000002084F8BC0410BD80B5D0F8082500F2A3
:10190000C441104602F06CFC80BD000000000000E5
:1019100010B5044690F8BC04012801D1022010BD86
:10192000A16A206801294FF0010184F8BC1406D196
:10193000A169012903D0816B41F48031816303F0F7
:10194000D7FA206802F0DCFF002084F8BC0410BD48
:1019500010B50446D0F8080502F07EFC2068D0F8E7
:10196000001E41F00101C0F8001E206A002808BFD7
:1019700010BD4EF61050CEF20000016841F0060195
:10198000016010BD00000000B0B544F60C05C5F6BE
:10199000020529684907296805D401F00701081ADA
:1019A00018BF0120B0BD21F0070108432860FFF7F0
:1019B000B3F8044655F8080C800407D4FFF7ACF8D8
:1019C000001BB0F57A7FF5D90120B0BD0020B0BD75
:1019D00044F60C00C5F60200016841F08071016018
:1019E00070470000000000002DE9F04381B004467C
:1019F000C07844F22C490007C5F6020901D400263C
:101A00002DE0606E4FEA305003280DD80026DFE845
:101A100000F0020E1613D9F80000002640F4003042
:101A2000C9F800004EB912E0012636B90FE0201DBA
:101A3000022101F061FB06464EB1B04611E004F10F
:101A40002400022101F0E8FB0646002EF5D1D9F86A
:101A50002400616E20F440100843C9F824004FF0C0
:101A600000086078C0072FD0606D042807D8DFE831
:101A700000F00A131B030300F6B1B04624E0012670
:101A8000002EFAD118E0D9F8000040F40030C9F86F
:101A90000000002EF1D10FE0201D002101F02CFBF1
:101AA0000646002EE9D107E004F12400002101F0F0
:101AB000B3FB0646002EE0D1D9F82400616D20F07A
:101AC00007000843C9F824006078800731D5A06D6D
:101AD0004FEAB010042807D8DFE800F00A131B0310
:101AE0000300F6B1B04624E00126002EFAD118E03A
:101AF000D9F8000040F40030C9F80000002EF1D100
:101B00000FE0201D002101F0F7FA0646002EE9D172
:101B100007E004F12400002101F07EFB0646002EC0
:101B2000E0D1D9F82400A16D20F4E0700843C9F891
:101B300024006078400733D5D4F8A4004FEA7050F1
:101B4000042807D8DFE800F00A131B030300F6B1EE
:101B5000B04625E00126002EFAD118E0D9F80000A1
:101B600040F40030C9F80000002EF1D10FE0201D34
:101B7000002101F0C1FA0646002EE9D107E004F188
:101B80002400002101F048FB0646002EE0D1D9F8E0
:101B90002C00D4F8A41020F460000843C9F82C00ED
:101BA0006078000733D5D4F8A8004FEA30600428E5
:101BB00007D8DFE800F00A131B030300F6B1B046B4
:101BC00025E00126002EFAD118E0D9F8000040F4F3
:101BD0000030C9F80000002EF1D10FE0201D0021D7
:101BE00001F08AFA0646002EE9D107E004F124004C
:101BF000002101F011FB0646002EE0D1D9F82C009F
:101C0000D4F8A81020F0E0600843C9F82C00E07870
:101C1000800727D5A06C4FEA3010032806D8DFE8EC
:101C200000F002091202AEB1B0461BE00126002E00
:101C3000FAD10FE0D9F8000040F40030C9F80000F4
:101C4000002EF1D106E0201D022101F055FA0646D2
:101C5000002EE9D1D9F82000A16C20F03000084313
:101C6000C9F820006078C00631D5E06D4FEA303009
:101C7000042807D8DFE800F00A131B030300F6B1BD
:101C8000B04624E00126002EFAD118E0D9F8000071
:101C900040F40030C9F80000002EF1D10FE0201D03
:101CA000002101F029FA0646002EE9D107E004F1EF
:101CB0002400002101F0B0FA0646002EE0D1D9F848
:101CC0002400E16D20F4E0400843C9F82400607866
:101CD000800625D5206E4FEA3040052807D8DFE87A
:101CE00000F0030A0F03030396B1B04618E0012683
:101CF000002EFAD10CE0201D012101F0FDF904E0D5
:101D000004F12400012101F087FA0646002EECD1EF
:101D1000D9F82400216E20F4E0200843C9F82400FB
:101D20006078400627D5D4F8AC004FEA307005281B
:101D300007D8DFE800F0030A0F03030396B1B046AB
:101D400019E00126002EFAD10CE0201D012101F03E
:101D5000D3F904E004F12400012101F05DFA064604
:101D6000002EECD1D9F82C00D4F8AC1020F0E040D3
:101D70000843C9F82C00607800061FD5E06ED0B18A
:101D8000B0F1005F12D0B0F1805F24D1D9F800002B
:101D900040F40030C9F800007EB9D9F82400E16EA3
:101DA00020F040500843C9F8240007E0201D01211D
:101DB00001F0A2F90646002EEFD0B046E078C00749
:101DC00029D0606C03280AD8DFE800F0020D160263
:101DD000CEB1B0461FE00126002EEED1DDE7012690
:101DE000002EF6D10FE0D9F8000040F40030C9F819
:101DF0000000002EEDD106E0201D022101F07CF94B
:101E00000646002EE5D1D9F82000616C20F00300D1
:101E10000843C9F82000A078400643D5D9F8D40378
:101E200040F48070C9F8D403FEF776FE074600BF81
:101E3000D9F8D403C00505D4FEF76EFEC01B652893
:101E4000F6D303266EBBD9F84410D4F8B000414055
:101E500011F4407F11D0D9F84410D9F8442042F44D
:101E60008032C9F84420D9F8442021F4407122F48A
:101E70008032C9F84420C9F84410B0F5807F0FD1F2
:101E8000FEF74AFE074641F2893500BFD9F8440003
:101E9000800705D4FEF740FEC01BA842F6D30326F8
:101EA00086B1B0462078C00741D0A06F4FEAF0005D
:101EB000052823D8DFE800F003262B03030376B3BD
:101EC000B04634E04FF6CF73D4F8B00059F81C2C6C
:101ED000C0F2FF0300F4407122F47C5203EA1013B5
:101EE000B1F5407F08BF1A436FF31F3049F81C2C2F
:101EF000D9F844100843C9F84400D3E70126002E5E
:101F0000DED10CE0201D012101F0F6F804E004F11F
:101F10002400012101F080F90646002ED0D1D9F825
:101F20002800A16F20F038000843C9F82800207865
:101F3000800723D5606F052807D8DFE800F0030A83
:101F40000F03030396B1B04618E00126002EFAD124
:101F50000CE0201D012101F0CFF804E004F1240081
:101F6000012101F059F90646002EECD1D9F82800DC
:101F7000616F20F007000843C9F828002078400767
:101F800025D5D4F89000052807D8DFE800F0030A2B
:101F90000F03030396B1B04619E00126002EFAD1D3
:101FA0000CE0201D012101F0A7F804E004F1240059
:101FB000012101F031F90646002EECD1D9F82C00B0
:101FC000D4F8901020F007000843C9F82C002078BE
:101FD000800627D5D4F88C004FEA3070052807D842
:101FE000DFE800F0030A0F03030396B1B04619E0DF
:101FF0000126002EFAD10CE0201D002101F07CF812
:1020000004E004F12400022101F006F90646002E46
:10201000ECD1D9F82800D4F88C1020F0E040084327
:10202000C9F828002078400627D5D4F898004FEA50
:10203000B020052807D8DFE800F0030A0F030303E8
:1020400096B1B04619E00126002EFAD10CE0201D11
:10205000002101F051F804E004F12400022101F014
:10206000DBF80646002EECD1D9F82C00D4F89810F5
:1020700020F4E0500843C9F82C002078000627D54A
:10208000D4F89C004FEA7030052807D8DFE800F04C
:10209000030A0F03030396B1B04619E00126002E90
:1020A000FAD10CE0201D002101F026F804E004F133
:1020B0002400022101F0B0F80646002EECD1D9F838
:1020C0002C00D4F89C1020F460400843C9F82C0080
:1020D0002078000716D5D4F88000B0F5805F08D1CD
:1020E00004F12400022101F097F8002818BF4FF0F6
:1020F0000108D9F82800D4F8801020F44050084393
:10210000C9F828002078C00616D5D4F89400B0F598
:10211000807F08D104F12400022101F07DF800281D
:1021200018BF4FF00108D9F82C00D4F8941020F40F
:1021300040700843C9F82C00A078000721D5D4F8D6
:10214000A000B0F5003F19D0B0F5803F10D0C0BB63
:10215000201D002100F0D0FF06468EB9D9F82C00D2
:10216000D4F8A01020F440300843C9F82C0008E04F
:1021700004F12400022101F04FF80646002EEDD0B4
:10218000B046A078400729D5D4F88400B0F5401FA8
:1021900021D0B0F5001F18D0B0F5801F40F0C180ED
:1021A000D9F8000040F40030C9F80000AEB9D9F801
:1021B0002800D4F8841020F440100843C9F82800FF
:1021C0000CE00126002EDBD1C8E704F12400012138
:1021D00001F022F80646002EE9D0B046A078C007EC
:1021E0001FD0E06CB0F5803F10D0B0B9D9F8000036
:1021F00040F40030C9F8000096B9D9F82000E16C2D
:1022000020F480300843C9F820000AE0201D022194
:1022100000F072FF06461EB9EFE70126002EECD053
:10222000B046E078800608D504F12400022100F0D1
:10223000F3FF002818BF4FF00108206881031ED467
:10224000C10234D4C1003CD4810245D441004DD4F4
:10225000B0F1FF3F5ADD000208D5D9F82800D4F8C4
:10226000881020F440000843C9F82800B8F1000F96
:1022700018BF4FF00108404601B0BDE8F083E16FA0
:102280006FF0010202EB3122022A0AD34FEA312217
:102290003AB1012A4AD1D9F8002042F40032C9F8F3
:1022A0000020002E45D04FF00108C102CAD5D9F850
:1022B0002410226F21F000411143C9F82410C100FD
:1022C000C2D559F81C1CD4F8B42021F48041114324
:1022D00049F81C1C8102B9D5D9F82410A26E21F04E
:1022E00080711143C9F824104100B1D559F81C1C64
:1022F00021F4004149F81C1CD4F8B81059F81C2CE2
:10230000114349F81C1CB0F1FF3FA4DCD9F82010A0
:10231000226D21F040511143C9F820100002A5D5CB
:102320009BE70126002E7FF458AF40E70126002EE0
:10233000B9D1D9F8282022F440721143C9F82810E5
:10234000C1027FF57FAFB2E72DE9F04381B00028ED
:1023500000F0F48042F200080446C5F200288946E5
:10236000D8F8000000F00F0088420ED2D8F8000024
:1023700020F00F0040EA0900C8F80000D8F800007B
:1023800000F00F00484540F0D980206844F218471B
:102390004107C5F602070AD521693A6802F07002C2
:1023A000914204D93A6822F0700211433960010762
:1023B0000AD561697A6802F07002914204D97A689C
:1023C00022F0700211437960C1060AD5A1697A68CA
:1023D00002F4E062914204D97A6822F4E062114387
:1023E000796081060AD5E169BA6802F0700291420B
:1023F00004D9BA6822F070021143B96081070AD586
:10240000E1683A6802F00F02914204D93A6822F07A
:102410000F0211433960C0077ED1206881070AD5B9
:10242000E1683A6802F00F02914204D23A6822F061
:102430000F0211433960D8F8001001F00F0149452F
:102440000DD9D8F8001021F00F0141EA0901C8F8B0
:102450000010D8F8001001F00F0149456ED1410776
:102460000AD521693A6802F07002914204D23A68B2
:1024700022F070021143396001070AD561697A6858
:1024800002F07002914204D27A6822F07002114385
:102490007960C1060AD5A1697A6802F4E0629142C6
:1024A00004D27A6822F4E0621143796080060AD58A
:1024B000E069B96801F07001884204D2B96821F07E
:1024C00070010843B86000F093F8396845F6A442FB
:1024D000C0F600023B68C1F3032103F00F03515C17
:1024E000D25C01F01F01C84002F01F0140F220023F
:1024F00020FA01F1C2F20042116040F21C0140F2E8
:10250000F402C2F20041C2F2004208601068FEF715
:102510004FFB01B0BDE8F083386820F47061D4E966
:102520000102012841EA020139600BD003282BD0B7
:1025300002282ED157F8181C890307D4012001B0B6
:10254000BDE8F08357F8181CC905F7D557F8081CE3
:1025500021F00701084347F8080CFEF7DDFA0646AC
:1025600041F2883557F8080C616800F03800B0EB8C
:10257000C10F3FF452AFFEF7CFFA801BA842F1D94A
:10258000032001B0BDE8F08357F8181C8901D5D5A8
:10259000DCE757F8181C4907D0D5D7E70000000042
:1025A00080B500F025F844F2184145F6A443C5F67D
:1025B0000201C0F600030A68096801F00F01C2F3C6
:1025C0000322595C9A5C02F01F0220FA02F201F029
:1025D0001F0040F2200122FA00F0C2F20041086020
:1025E00040F21C01C2F200410A6080BD0000000000
:1025F00044F20041C5F602010869C0F3C200032895
:102600000FD002282AD070BB0868800649F200006B
:10261000C0F2D03058BF70470968C1F3C101C8404B
:1026200070478A6A886AC0F3051CC86ABCF1000F4B
:102630004B6B1DD0C3F3CC0300F00100584302F0F4
:102640000302022A00EE100AB8EE400A12D0A2B924
:102650000868800614D49FED261A1EE047F6400055
:10266000C0F27D10704740F60010C0F23D00704788
:10267000002070479FED1D1A0FE09FED1B1A0CE024
:10268000086849F20002C0F2D032C0F3C10022FA59
:1026900000F001EE100AB8EE411A086B9FED153AF2
:1026A0006FF35F2002EE100A086BC0F34620B8EE0D
:1026B000422A013000EE032A00EE10CAB7EE003ABB
:1026C000B8EE400A81EE000A32EE031A20EE010A4B
:1026D00001EE100AB8EE411A80EE010ABCEEC00A03
:1026E00010EE100A704700BF0024744A20BCBE4B95
:1026F0000024744C000000392DE9F04381B0F8B19A
:102700008046007844F20049C007C5F602095AD055
:10271000D9F8100000F03801D9F82800102905D0A8
:1027200018290FD100F0030002280BD1D9F80000BE
:10273000800344D5D8F80400002840D101272FE0B9
:10274000012735E2D8F804402CB1B4F5A02F0DD004
:10275000B4F5803F10D0D9F8000020F48030C9F8DB
:102760000000D9F8000020F4802009E0D9F800002A
:1027700040F48020C9F80000D9F8000040F480300F
:10278000C9F80000FEF7C8F90546A4B1D9F8000061
:10279000800314D4FEF7C0F9401B6428F6D9032740
:1027A0000020002800F004820DE000BFFEF7B4F91D
:1027B000401B6428F3D8D9F800008003F6D4012028
:1027C000002800F0F58198F80000800740F184802F
:1027D000D9F8100010F03801D9F828001CD01829B9
:1027E00008BF5FEA807017D0D8F80C00D9F8001045
:1027F000002847D021F019010843C9F80000FEF76E
:102800008BF90546D9F8000040072AD4FEF784F971
:10281000401B0228F6D91EE0D9F80000400704D575
:10282000D8F80C00002800F09181D9F80000D8F801
:102830000C1020F019000843C9F80000FEF76CF9ED
:10284000054600BFD9F8000040070AD4FEF764F936
:10285000401B0228F6D903270024002C00F0A88191
:102860003AE0FEF751F941F20301884223D8D8F843
:102870001000D9F80410402821F47C3124D141F40F
:10288000003023E021F00100C9F80000FEF744F910
:1028900005460126D9F8000010F0040086EA9004ED
:1028A00017D0FEF739F9401B0328F3D30327002C78
:1028B00000F07E8110E0D9F80400D8F8101020F064
:1028C000FE4040EA016001E041EA0030C9F804003E
:1028D0000124002C00F06C8198F80000C00674D52B
:1028E000D9F8100000F03801D9F82800082905D0DF
:1028F00018291CD100F00300012818D1D9F80000D4
:10290000C00503D5D8F81C00802859D1FEF7FCF883
:1029100041F20301884222D8D8F82000D9F80410E7
:10292000202821F0F84142D141F0804041E0D8F820
:102930001C000028D9F8000020D040F08000C9F821
:102940000000FEF7E9F80546D9F80000C005DDD41F
:10295000FEF7E2F8401B0228F6D9032731E0D9F848
:102960000C00D8F8201020F07C50012440EA0160CF
:10297000C9F80C00002C00F01B8126E020F080003C
:10298000C9F80000FEF7C8F805460126D9F800008E
:1029900010F4807086EA10240ED0FEF7BDF8401BBC
:1029A0000328F3D30327002C00F002810DE041EA55
:1029B0008060C9F804000124002C00F0F98004E0D4
:1029C00001270024002C00F0F38098F80000000795
:1029D0001CD498F80000800631D498F80000400715
:1029E00045D4D8F82440002C00F0E180D9F810003C
:1029F00000F03800182840F08880012CD9F8281001
:102A0000D9F8300040F0A4800127D1E0D8F81400B4
:102A10000028D9F874003ED040F00100C9F87400D5
:102A2000FEF77AF8054600BFD9F874008007D0D4C5
:102A3000FEF772F8401B0228F6D90327B8E0D8F851
:102A400018000028D9F800004BD040F48050C9F895
:102A50000000FEF761F80546D9F800008004BCD4F8
:102A6000FEF75AF8401B0228F6D90327A0E0D9F850
:102A7000000440F48070C9F80004FEF74DF80546E4
:102A8000D9F80004C0051AD4FEF746F8401B6428A4
:102A9000F6D903278CE020F00100C9F87400FEF796
:102AA0003BF80546032700BFD9F8740080077FF57F
:102AB00090AFFEF731F8401B0228F5D978E0D8F83E
:102AC00008401CB1052C77D0012C7BD0D9F87000C0
:102AD00020F00100C9F87000D9F8700020F004005F
:102AE00074E020F48050C9F80000FEF715F80546A0
:102AF000032700BFD9F8000080047FF56EAFFEF712
:102B00000BF8401B0228F5D952E0D9F8000020F05C
:102B10008070C9F80000FDF7FFFF022C05464FF05A
:102B2000030709D1D9F80000800171D5FDF7F4FF42
:102B3000401B0228F6D93BE0D9F80000800136D5C9
:102B4000FDF7EAFF401B0228F6D931E0012783E6B2
:102B500001F00302D8F828309A4240F0D380C1F344
:102B60000511D8F82C20914240F0CE800146D8F8CB
:102B700030206FF35F21013A914240F0C780C0F3EB
:102B80004622D8F8341001398A4240F0C180C0F39F
:102B90000642D8F8381001398A4240F0BB80C0F3B1
:102BA0000660D8F83C100139884240F0B580002713
:102BB000F8B201B0BDE8F083D9F8700040F004002D
:102BC000C9F87000D9F8700040F00100C9F8700031
:102BD000FDF7A2FF002C054641F288344FF00307B1
:102BE00011D000BFD9F8700080073FF5FAAEFDF7AD
:102BF00093FF401BA042F5D9DAE700BFFDF78CFF39
:102C0000401BA042D4D8D9F870008007F6D4E8E67B
:102C100008F12807D9F8280040F2F33188438ECF15
:102C20000843591E40EA02104FF47E426FF35F21C1
:102C3000C9F8280002EB47204FF4FE0280B2D8F812
:102C40003C300844D8F8381002EB01414FF0FE4206
:102C500001F4FE0102EB0362084402F0FE41084465
:102C6000C9F83000D9F82C004FF6F87120F00100B7
:102C7000C9F82C00D9F83400D8F84820884340EA35
:102C8000C200C9F83400D9F82C00D8F8401020F060
:102C90000C000843C9F82C00D9F82C00D8F84410CF
:102CA00020F002000843C9F82C00D9F82C0040F4A9
:102CB0008030C9F82C00D9F82C0040F40030C9F855
:102CC0002C00D9F82C0040F48020C9F82C00D9F849
:102CD0002C0040F00100C9F82C00D9F8000040F0A9
:102CE0008070C9F80000FDF717FF04460327D9F8E4
:102CF000000080013FF55BAFFDF70EFF001B0228CF
:102D0000F5D955E7012753E7012751E701274FE799
:102D100001274DE701274BE7012749E700000000A5
:102D200080B500F011FB80BDFEE700000000000050
:102D300010B5002A08BF10BD02394FF0370C4FF014
:102D4000000E00BF030FB0F1204F0CEB107438BF22
:102D500003F13004013A4FEA001001F8024F81F804
:102D600001E0EFD110BD000010B584B00024CDE922
:102D70000244CDE90044FDF777FF0120ADF80000E3
:102D800048F21F70029040F20110039068460194CF
:102D9000FDF73AFF0420FDF777FF04B010BD0000F7
:102DA0002DE9F04186B044F2E0400026C5F602006D
:102DB0000596CDE90366CDE90166016840F6000499
:102DC00041F0010101600168C5F6020401F0010152
:102DD00000910099016841F004010160016801223D
:102DE00001F0040100910099016841F08001016047
:102DF00000684FF4005100F08000009000982046D9
:102E00004FF400580127FDF777FE01AD4FF4C06085
:102E100001900220CDE9020607200590A4F500608C
:102E200029460496FDF798FD20462946CDE90187FD
:102E3000CDE90376FDF790FD06B0BDE8F081000016
:102E400080B541F21C5040F20001C2F20040C2F2D3
:102E50000041002201F00CF808B1FDF745FD41F2F8
:102E60001C5040F22401C2F20040C2F2004101F0C5
:102E70001BFA08B1FDF738FD41F21C5040F2C001C9
:102E8000C2F20040C2F2004100F0FAFC08B1FDF7C6
:102E90002BFD41F21C50C2F2004001F0CDFA08B106
:102EA000FDF722FDFEF794FD80BD0000000000004C
:102EB000FEE7000000000000FEE700000000000048
:102EC00000F007004FF0FF3C80F00703042B28BF01
:102ED0000423033838BF00200CFA03F399430CFA9B
:102EE00000F301FA00F022EA0301084370470000F2
:102EF00080B541F2F870C2F20040FEF799F880BD4B
:102F000070B50446006843F20B06056C00EB4110F7
:102F1000C4F65476B542D0F8081B07D311F400412B
:102F20001EBF00F530604FF4004181602046FEF77F
:102F3000E3FCB54209D32069012818BF70BD2068A1
:102F400004F2C442012101F033FE70BD0000000014
:102F500070B5044600680E4600EB4111036CD1F8D1
:102F6000082B2569012D01F5306127D1150737D4CC
:102F7000950650D412F0280F18BF70BD43F20B0510
:102F8000C4F65475AB4202D312F4004231D106EBC1
:102F9000C60204EB8202D2F8983209696FF3DF416E
:102FA000A3EB0101C2F89C12AEB9D2F89432ABB3D4
:102FB000D2F88C020844C2F88C020CE043F20B05F4
:102FC000C4F65475FF35AB4217D1100411D49006E6
:102FD00001D520208860F1B22046FDF7E5FE70BDE6
:102FE00043F20B00C4F65470834213D312F4004032
:102FF00010D04FF40040886070BD3EB9D4F89412F0
:1030000021B904F2C442002101F0D2FDF1B2204600
:10301000FDF7CAFE70BD2020886070BD04F2C44276
:10302000012101F0C5FDD6E72DE9F04F83B001EB9A
:10303000C102064600EB8200054655F8543F2C4677
:1030400054F8082F934250D30746D6F800C09A1A76
:1030500057F8483F9A4288BF1A46CDE9011C0CEB4D
:1030600041110332D1F818399BB2B3EB920F2BD335
:1030700000F14C0801985FFA80FA01F5106B00BF6F
:103080002068296881421FD9A1EB00093868814571
:10309000327C88BF8146D8F8001000921FFA89F36D
:1030A0000298524602F0C4F8D8F800004844C8F824
:1030B000000020684844206009F10300DBF8181084
:1030C00089B2B1EB900FDBD2286821688842019861
:1030D0000BD8029A00F00F00012101FA00F0D2F89B
:1030E000341821EA0000C2F8340803B0BDE8F08FBC
:1030F0007047000000000000F0B581B044F22C479A
:10310000C5F6020757F8042C02F00302032A02D185
:10311000012001B0F0BD054657F82C0C0C4620F0FC
:10312000806047F82C0CFDF7F7FC064657F82C0C8E
:10313000000105D5FDF7F0FC801B0228F6D964E0FC
:1031400057F8040CEE6895E80E0020F47C30012C52
:1031500040EA0130A2F101016FF35F214FF47E429A
:1031600002EB432247F8040C92B24FF0FE4302EB0D
:1031700001004FF4FE012A6901EB064101F4FE0152
:1031800003EB0262084402F0FE410844F86038682C
:10319000696920F0C00040EA010038603868A96918
:1031A00020F0200040EA0100386038684FF6F871DE
:1031B00020F0100038603869EA6920EA01004FF415
:1031C000001140EAC2003861386808BF4FF480112E
:1031D00040F01000002C386008BF4FF40021386820
:1031E0000843386057F82C0C40F0806047F82C0CEE
:1031F000FDF792FC044600BF57F82C0C000107D4E1
:10320000FDF78AFC001B0328F6D3032001B0F0BDB4
:10321000002001B0F0BD0000F0B581B044F22C47B1
:10322000C5F6020757F8042C02F00302032A02D164
:10323000012001B0F0BD054657F82C0C0C4620F0DB
:10324000805047F82C0CFDF767FC064657F82C0C0D
:10325000800005D5FDF760FC801B0228F6D964E0EC
:1032600057F8040CEE6895E80E0020F07C70012CF5
:1032700040EA0150A2F101016FF35F214FF47E4259
:1032800002EB432247F8040C92B24FF0FE4302EBEC
:1032900001004FF4FE012A6901EB064101F4FE0131
:1032A00003EB0262084402F0FE410844786138688A
:1032B000696920F4406040EA010038603868A96913
:1032C00020F4007040EA0100386038684FF6F87169
:1032D00020F480703860B869EA6920EA01004FF094
:1032E000807140EAC200B861386808BF4FF400013D
:1032F00040F48070002C386008BF4FF480013868BB
:103300000843386057F82C0C40F0805047F82C0CDC
:10331000FDF702FC044600BF57F82C0C800007D4D0
:10332000FDF7FAFB001B0328F6D3032001B0F0BD24
:10333000002001B0F0BD0000704700000000000058
:103340000088704700000000B0B501380024B4EBDD
:10335000106F01D00120B0BD4EF210050F21CEF24A
:10336000000568604FF0FF3001F09AFFAC60072065
:1033700028602046B0BD000080B5FDF7D5FB80BDBC
:10338000B0B59CB044F6180409A84C21C5F6020457
:10339000FCF7A5FF02200025CDE90755CDE905552D
:1033A000CDE90355CDE90155FEF7EEFA0095206809
:1033B00040F440402060206800F44040009040F21B
:1033C0002C40C5F60000016841F001010160006871
:1033D00000F001000090009820688004FCD50120D6
:1033E00009904FF480300A9002200521CDE91200A7
:1033F00030221491CDE91520CDE91710082019903D
:1034000009A80024CDE91A44FFF776F988B93F20CE
:10341000019003200121CDE9020401A80894CDE91F
:103420000444CDE90644FEF78FFF002804BF1CB01A
:10343000B0BDFDF759FA00004EF6885042F2000C7C
:10344000CEF20000C5F2002C016841F47001016069
:10345000DCF8000000F00F00062806D8DCF80000B9
:10346000072161F30300CCF8000044F200404EF65F
:103470007F52C5F60200CEF6F622016841F0010146
:1034800001600021016103681A400260DCF800203D
:10349000120706D5DCF80020072363F30302CCF8FB
:1034A000002040F200228161C161C0F2022201626B
:1034B00082620022C0F2FF12C26240F28022C0F299
:1034C0000112026341638263C16302644164026862
:1034D00022F480220260016641F20000C5F600403D
:1034E0000068B1EB507F05D148F208100121C5F208
:1034F0000010016044F2000043F2D201C5F2002046
:10350000016070470000000070B5D0F8D42200EBD5
:103510008203D3F8C0222AB301F00F0E8C460EEBC3
:103520008E0100EB810151F8184F5CB1D0F8C862F0
:103530000EEBCE0506EB8506B66CB4FBF6F505FB87
:1035400016468EB10024C2F81442D3F8C4020369AF
:1035500033B1D2F8080202F504716246984700249C
:10356000204670BD032070BD00240C6000220023A3
:10357000614600F07DFE204670BD000000000000A6
:10358000B0B50446D0F8D40204EB8000D0F8C052A5
:1035900095B1204600F03CFDD4F8D412C5F80C02D9
:1035A000D5F8040204EB8101D1F8C42205F50371BA
:1035B000D26890470020B0BD0320B0BD00000000DD
:1035C00070B58121044600F073FC012120460025DE
:1035D000258700F06DFC82212046A4F8785100F088
:1035E00067FCD4F8D402E56404EB8000D0F8C01284
:1035F00089B1D0F8C40240688047D4F8D40204F5F9
:10360000307656F8200001F05BF8D4F8D40246F882
:103610002050C4F8BC52002070BD00000000000023
:1036200010B5D0F8D41200EB8100D0F8C04284B1BC
:10363000D0F8C41279B194F80002FF280BD094F8A6
:1036400001228B6821469847FF2084F80002002061
:1036500010BD032010BD002010BD000000000000C0
:1036600040F2A0010A22C2F20041028008467047DF
:10367000F0B581B040F25C070446C2F200478221F7
:10368000384600F065FB06460121384600F060FB35
:1036900005468121384600F05BFB002E1CBF10213F
:1036A000B171002D1CBF4021A98000281CBF402102
:1036B000818040F25C004321C2F20040218001B0D1
:1036C000F0BD000000000000F0B581B040F25C07E2
:1036D0000446C2F200478221384600F039FB064614
:1036E0000121384600F034FB05468121384600F0C0
:1036F0002FFB002E1CBF1021B171002D1CBF4FF4F9
:103700000071A98000281CBF4FF40071818040F235
:103710005C004321C2F20040218001B0F0BD0000F6
:10372000F0B581B040F25C070446C2F20047822146
:10373000384600F00DFB06460121384600F008FB34
:1037400005468121384600F003FB002E1CBF1021E6
:10375000B171002D1CBF4021A98000281CBF402151
:10376000818040F25C004321C2F20040218001B020
:10377000F0BD0000000000002DE9F04104464FF4C8
:10378000077000F0A1FF00284FD04FF407710546E5
:10379000FCF7A5FDD4F8D402217C4027022204EBDB
:1037A000800000294FF081014FF00206C0F8C0529E
:1037B0002046C4F8BC5208BF4FF400773B4600F0E7
:1037C0009FFC0121022220463B464FF00108A4F84D
:1037D000388000F095FC1020A4F84E0082210322CE
:1037E00008232046A4F8788100F08AFCD4F8D4029B
:1037F0000027C5F8047204EB8000A4F84C80D0F8D0
:10380000C40200688047C5F81472C5F81872D5F86C
:1038100004223AB1207C012188B14023204600F0E7
:103820007BFC00263046BDE8F081D4F8D4020021AC
:1038300004EB8000C0F8C0120220BDE8F0814FF414
:103840000073204600F068FC0020BDE8F081000015
:1038500080B5D0F8D41200EB8101D1F8C01269B163
:10386000027C4023002AD1F804224FF0010108BF56
:103870004FF4007300F050FC002080BD032080BD99
:1038800039B1D0F8D42200EB8200C0F8C412002075
:103890007047032070470000D0F8D42200EB82006C
:1038A000D0F8C00218B1C0F80412002070470320FD
:1038B0007047000000000000D0F8D43200EB830015
:1038C000D0F8C00228B1C0F80812C0F810220020B9
:1038D000704703207047000070B582B00446D0F8EE
:1038E000D40200228DF8072004EB8000ADF80420FC
:1038F000D0F8C062CEB10D46097811F0600216D042
:10390000202A2BD1EA88002A2ED0090635D46878DF
:10391000402A86F80002204628BF4022314686F819
:10392000012200F0CDF8002660E003265EE0687812
:103930000B2844D80026DFE800F0065942424242F4
:1039400042424242303C94F89C0203283DD101A9F6
:103950000222204600F0D0F8002647E02046294603
:1039600000F0A2F8032641E0D0F8C41268780022E3
:1039700000268B682946984738E0D0F8C41268784A
:103980008B6831469847EA8820463146072A28BF87
:10399000072200F0B1F8002628E094F89C020328E2
:1039A00019D10DF107010122204600F0A5F80026EB
:1039B0001CE094F89C02032813D1002616E0204650
:1039C000294600F071F8032610E02046294600F051
:1039D0006BF803260AE02046294600F065F8032626
:1039E00004E02046294600F05FF80326304602B086
:1039F00070BD00000000000080B5D0F8D41200EBCC
:103A00008101D1F8C0323BB1D3F8141200294FF034
:103A1000010103D0084680BD032080BDC3F8141205
:103A20008121D3F80822D3F81032C36200F020FCC1
:103A30000021084680BD000080B5D0F8B822526849
:103A40009047002818BF032080BD00000000000040
:103A500080B590F89C22013A022A09D849880129A8
:103A600018BF80BD0021C0F8A41200F055F880BD39
:103A700000F01AF880BD0000002070470000000030
:103A8000002070470000000080B513460A46002160
:103A900000F042FB002080BD80B513460A4600219D
:103AA00000F0E6FB002080BD10B58021044600F048
:103AB000C3FB0021204600F0BFFB10BD000000004A
:103AC00080B50323C0F894321346C0F858210A4643
:103AD0000021C0F85C3100F01FFB002080BD000019
:103AE00080B50521C0F8941200210022002300F0C7
:103AF00013FB002080BD000080B50223C0F8943283
:103B0000134682610A460021C36100F0B1FB002028
:103B100080BD00000000000080B50421C0F89412B0
:103B200000210022002300F0A3FB002080BD000044
:103B300010B540F2FC040A46C2F2004402A021463D
:103B400000F062F9204610BD43444320436F6E6687
:103B5000696700000000000040F2AC001222C2F2CF
:103B600000400A807047000010B540F2FC040A468D
:103B7000C2F2004402A0214600F046F9204610BDE2
:103B800043444320496E74657266616365000000BA
:103B900040F2D4000422C2F200400A8070470000C4
:103BA00010B540F2FC040A46C2F2004402A02146CD
:103BB00000F02AF9204610BD53544D6963726F65B9
:103BC0006C656374726F6E696373000000000000BF
:103BD00010B540F2FC040A46C2F2004402A021469D
:103BE00000F012F9204610BD53544D33322056696F
:103BF000727475616C20436F6D506F7274000000B9
:103C000080B51A200880FCF777FE40F2D800C2F297
:103C1000004080BD0000000080B5C988012910D196
:103C200090F89C124A1E022A04D20146002241F852
:103C3000082F02E0032904D1011D0122FFF75CFFD8
:103C400080BDFFF731FF80BDB0B582B00D46498819
:103C50004FF0FF3204460020ADF8060002EB1122BF
:103C6000062A62D8DFE802F00415096161222B0000
:103C7000D4F8B412207C0A6842E0C8B2052854D8AF
:103C8000DFE800F003292D313539D4F8B402426859
:103C900034E0207C0028D4F8B8020CBF816AC16AE5
:103CA0000DF1060088470146022012E0207CE0BBAF
:103CB000D4F8B802416B0DF10600884723E0207C60
:103CC00098BBD4F8B802016B0DF106008847014695
:103CD0000720487018E0D4F8B40282680EE0D4F8E7
:103CE000B402C2680AE0D4F8B402026906E0D4F86B
:103CF000B402426902E0D4F8B4028269AAB1207C1D
:103D00000DF10601904701460120A8B1EA88AAB149
:103D1000BDF80600B8B1904238BF02462046ADF863
:103D20000620FFF7E9FE02B0B0BD2046FFF7BCFE5B
:103D3000002100200028E9D102B0B0BD2046FFF7E5
:103D4000EBFE02B0B0BD2046FFF7AEFE02B0B0BD44
:103D500070B582B004464288007882421AD90D4676
:103D60006188ADF80600814214D90DF1060620469F
:103D700005E000BFBDF80610628891420AD23146C4
:103D800000F01EF841780529F4D18178A942F1D1DB
:103D900002B070BD002002B070BD00000000000045
:103DA000017841B1411E00208A7801300131002A9A
:103DB000FAD1C0B270470020C0B2704700000000C6
:103DC00002780B8810441A440A80704700000000F3
:103DD00080B590F89C22013A022A0FD8C98802299E
:103DE0000CD1D0F8A41203220029014608BF0122F9
:103DF00041F80C2F0222FFF77FFE80BDFFF754FE33
:103E000080BD00000000000070B5E8B10546164610
:103E10000C46FFF7C5FF022101EB40003080207007
:103E2000032060702878002808BF70BD691E022238
:103E3000002300BFD6B2023246F00105A0556355FB
:103E4000887801310028F5D170BD00000000000025
:103E5000032808D840F20031C000C0F2013121FA35
:103E600000F0C0B27047032070470000000000005F
:103E700090B180B50023C0F8B832C0F8C432002930
:103E8000C0F8D03218BFC0F8B412012180F89C12DB
:103E9000027000F0C5F880BD0320704700000000EC
:103EA00080B5D0F8C802FCF7CFFFFFF7D1FF80BD87
:103EB00080B5D0F8C802FCF79FFFFFF7C9FF80BDAF
:103EC000B0B5044689B194F89C0203284ED1D4F8C9
:103ED000B8024269002A49D00020C4F8D402204622
:103EE0009047002808BF0020B0BDD4F894020228F3
:103EF00036D1D4E9071081420DD90B1A204611465C
:103F00001A46E361FFF7C8FD002100220023204686
:103F100000F002F924E00FD1A16981420CD3D4F85A
:103F20009802814208D20021002220460025FFF796
:103F3000B3FDC4F89852E7E794F89C02032808D12F
:103F4000D4F8B802C16821B10020C4F8D4022046D8
:103F500088478021204600F06FF92046FFF7C0FD1A
:103F600094F8A00210B1002084F8A0020020B0BD97
:103F700010B5044669B194F89C0203281DD1D4F809
:103F8000B80282690020CAB1C4F8D4022046904722
:103F900014E0D4F89402032824D1D4E957039842BA
:103FA00010D9C01AC4F85C019842114638BF0346C4
:103FB00020461A46FFF768FD14E00020002808BFDD
:103FC000002010BD94F89C02032808D1D4F8B80250
:103FD000016921B10020C4F8D40220468847204658
:103FE000FFF79AFD002010BD002070470000000080
:103FF00080B5012180F89C12D0F8B82232B1017945
:1040000052689047002818BF032080BD002080BD63
:1040100080B5D0F8C802FCF74BFF80BD000000005F
:1040200010B5017809B1002010BD41F2F8710022ED
:10403000C2F20041C0F8C812C1F808050020C4F25D
:1040400008000860092048600220C860C1E9060233
:1040500008460A61C1E90822C1E90A220A63FDF79C
:1040600017FB08B1FCF740FC41F2F8748021C2F262
:1040700000442046FCF758FE002140222046FCF771
:1040800057FE012180222046FCF752FE002010BD81
:1040900001F07F02D0F8C802090602EBC20200EB71
:1040A000820000F13E0258BF00F27E221078704775
:1040B00080B5D0F8D42200EB8202D2F8B82242B107
:1040C00090F89C32032B02D1126A02B19047002073
:1040D00080BD032080BD000080B5D0F8D42200EB65
:1040E0008202D2F8B82242B190F89C32032B02D15E
:1040F000526A02B19047002080BD032080BD0000BD
:1041000080B59446D0F8C8021A466346FCF7DCFE38
:10411000FFF79EFE80BD000080B5D0F8C802FCF716
:1041200003FFFFF795FE80BDF0B581B0012680F852
:104130009C620025C0F8945204464560D0F8B8024D
:10414000C4F8A45284F8A05250B142683AB1002198
:10415000204690470546002818BF032500E00025AB
:1041600000210022402320464027FFF7C9FF80217D
:10417000002240232046A4F86461C4F86071FFF770
:10418000BFFFA6842846276201B0F0BD00000000F2
:1041900090F89C12042903D190F89D1280F89C128B
:1041A000002070470000000080B590F89C120329A1
:1041B00005D1D0F8B81211B1C96901B18847002002
:1041C00080BD00000000000002460020117470470E
:1041D00080B5D0F8C802FDF77BFBFFF739FE80BD44
:1041E000B0B500F2AA250446284600F049F801209F
:1041F000C4F8940294F8AA02B4F8B02200F01F01A7
:10420000C4F89822022907D001290AD071B92046A2
:10421000294600F015F9B0BD2046294600F04CF9BA
:10422000B0BD2046294600F00BFAB0BD00F0800179
:10423000204600F001F8B0BD80B5D0F8C802FCF708
:104240009BFEFFF705FE80BD80B5D0F8C802FDF7E4
:104250005FFBFFF7FDFD80BD014690F89C02042244
:1042600081F89D02002081F89C2270470000000028
:1042700080B5D0F8C802FCF7B7FEFFF7E9FD80BDB6
:10428000B0B50C4609780546017060786870A01CCE
:10429000FFF756F86880201DFFF752F8A880A01D90
:1042A000FFF74EF8E880B0BD10B582B004464FF07D
:1042B0000000ADF80600B1B1D4F8D40204F52E72B6
:1042C000C4F8B81252F82000C16A21B10DF10600FD
:1042D0008847C4F8D002D4F8D8020130C4F8D80214
:1042E000002002B010BD032002B010BD000000008D
:1042F000B0B58A88044642B9C88830B948887F2852
:1043000003D894F89C12032903D12046FFF7CCFB75
:10431000B0BD00F07F052046294684F89E52FFF785
:1043200057FF2046FFF7F8FB002D14BF02200120A5
:1043300084F89C02B0BD000080B5D0F8B82212B15C
:104340001268904780BD002080BD00000000000082
:10435000B0B5498840F2F805C2F20045044611F0B4
:10436000FE0F297004D02046FFF79EFB0320B0BD4E
:10437000C9B294F89C0203280CD0022822D189B338
:1043800020466160FFF7D8FF054680B32046FFF75F
:104390008BFB15E0F9B16068884223D0C1B220469A
:1043A000FFF74AFB297820466160FFF7C5FF054605
:1043B00028B32046FFF778FB21792046FFF73CFB26
:1043C000022018E02046FFF76FFB29782046FFF710
:1043D00033FB0320B0BD022084F89C0220466160BC
:1043E000FFF72AFB2046FFF797FB0020B0BD2046D1
:1043F000FFF792FB032084F89C022846B0BD2046BC
:10440000FFF78AFB2846B0BD80B54A88022A07D04C
:10441000012A0BD10121C0F8A412FFF77DFB80BD5A
:10442000497980F8A012FFF777FB80BDFFF73CFBCE
:1044300080BD00000000000080B5FFF705FF80BDD3
:1044400080B50A7812F060020CD0402A18BF202AEA
:1044500016D1D0F8D42200EB8202D2F8B8229268AA
:10446000904780BD4A78092A0AD8DFE802F0050D96
:10447000091109152009191DFFF7AAFC002080BDAC
:10448000FFF712FB002080BDFFF7E2FA002080BD9D
:10449000FFF7BAFF002080BDFFF72AFF002080BD94
:1044A000FFF7BAFB002080BDFFF752FF80BDFFF78A
:1044B000CBFB002080BD000070B50E460978044695
:1044C000357911F060010CD0402918BF202923D183
:1044D00020462946FFF7D0FA4FF0000500B32846E2
:1044E00070BD707838B3012845D0032840F0928021
:1044F00094F89C02032842D1708848B945F08000A6
:10450000802805D0F08818B920462946FFF794FE88
:104510002046FFF701FB80E02046FFF7C5FA7CE06C
:10452000D4F8B802C4F8D4528268002AD7D0204602
:104530003146904770BD94F89C0203282ED0022883
:1045400068D145F08000802864D105F07F002A06FC
:104550004FF002024FF0000500EB800004EB8000FA
:1045600000F1140158BF00F5AA7120460D60FFF755
:10457000C3FA284670BD94F89C0203281AD002287A
:1045800048D145F08000802844D020462946FFF7D6
:1045900053FE80212046FFF74FFE3EE005F00F015D
:1045A00015F0800001EB810104EB81011ED1B1F80F
:1045B00064111CE0708880BB680603D02046294641
:1045C000FFF76EFC2046FFF7A7FA20462946FFF7C3
:1045D00053FA00284FF000057FF481AFD4F8B802F9
:1045E000C4F8D4528268002AA1D178E7898C89B1B5
:1045F00005F07F01002845F0800001EB810104EB0C
:10460000810101F1140608BF01F5AA76802807D1BF
:1046100000200CE02046FFF747FA0025284670BD31
:1046200020462946FFF734FD0028F1D001203060F4
:10463000022220463146FFF75FFAEEE70000000055
:1046400070B50D460978044611F0600118BF402985
:104650000ED194F89C020138022803D8A88810F0E3
:10466000FE0F0DD02046FFF71FFA0026304670BD22
:104670002029EED02046FFF717FA0026304670BDFD
:10468000C1B22046FFF7FCF910B1032676B1F5E779
:10469000D4F8B8028268002AF7D00020C4F8D40207
:1046A0002046294690470646002EE7D1E888002894
:1046B000E4D12046FFF730FA304670BD000000001C
:1046C000704700000000000040F2FC20C2F20040F1
:1046D000704700000000000010B54B7891F800E032
:1046E000012B0EF00F0321D10122D0F81C489A4073
:1046F00000F5106C4FEA4E132243C0F81C285CF8FA
:104700000300000430D4C8686FF3DF20097953F840
:104710000C2040EA8E50104340EA814040F0805027
:1047200040F4004043F80C00002010BD4FF48032EC
:10473000D0F81C4802FA03FC00F530634FEA4E1231
:1047400044EA0C04C0F81C48985800040CD4C8680B
:104750006FF3DF200979D458204340EA814040F0CC
:10476000805040F40040D050002010BD00000000F8
:104770000146D0F8000940F2FF729043C1F80009E9
:10478000D1F80428002042F48072C1F80428704750
:1047900070B5069904460129049D19D1A16B4FF605
:1047A000BF7221F48031A163E168CFF6BD720D982C
:1047B0001140E1600128E16821F44010E06003D17C
:1047C000E06840F48010E060204600F029F80FE037
:1047D000E0680A9E40F04000E060204600F020F8CB
:1047E000A16B16B121F4803101E041F48031A16365
:1047F000012D18BF70BDE16D89B2E165E16D41F039
:10480000007141F0F771E165A16841F00601A16016
:10481000A16841F02001A16070BD0000000000000F
:1048200081B040F640510022C0F20301009200BF67
:10483000009A01320092009A8A4215D80269B2F1B8
:10484000FF3FF5DC00220092026942F001020261A2
:10485000009A01320092009A8A4205D80269D20772
:10486000F6D1002001B07047032001B0704700006E
:104870000A7847F6000C4B78CEF6334C012B00EB50
:10488000421108D1D1F80039B3F1FF3F01F51063AF
:104890000DDD01211FE0D1F8003B0CF1707CB3F17C
:1048A000FF3F01F530630CDD4FF4803113E01968F0
:1048B00041F000611960196841F0804119600121DF
:1048C00009E0196841F000611960196841F0804100
:1048D00019604FF4803102F00F029140D0F83C286B
:1048E0008A43C0F83C28D0F81C2822EA0101C0F80D
:1048F0001C181968002001EA0C01196070470000BB
:104900000146D0F8000E20F00300C1F8000E002090
:10491000D1F8042822F00202C1F8042870470000F0
:104920000146D0F8000E20F00300C1F8000E002070
:10493000D1F8042842F00202C1F8042870470000B0
:104940002DE9F04F81B00D460446DDF844A00C98E7
:10495000DDF828904121002244F82120013150291E
:10496000FAD1BAF1000F04D004F138014FF400126B
:104970000FE0D4F80418802241F00201C4F80418B2
:10498000A16B21F40011A163216841F04001216075
:1049900021460F684FF000083A430A60C4F8008EC1
:1049A000002BD4F8001818BF01230128C4F8001800
:1049B00018BF03232046194600F0A6FB102120460D
:1049C00000F0C6FA8346204600F09AFAC4F8108830
:1049D000C4F81488C4F81C8885B304F510614FF638
:1049E0007F3200234FF09046002B08BF4FF0006647
:1049F0000F68013306EAE7770F60C1F810809D4227
:104A00008A6001F12001EDD104F530614FF0000C16
:104A10004FF67F33002600BF4FF09047002E08BFAF
:104A20004FF000670A68013607EAE2720A60C1F8CF
:104A300010C0B5428B6001F12001EDD1D4F81018FF
:104A4000B9F1000F21F48071C4F81018C4F818806F
:104A50006FF08041616103D1A16941F01001A16152
:104A600043F600020D9BA169C8F23C0241EA020133
:104A7000A1611BB1A16941F00801A161BAF1010F67
:104A800005D1A16941F0804141F00401A16150EAE2
:104A90000B0018BF012001B0BDE8F08F000000003E
:104AA00001468268002022F001028A6070470000FF
:104AB000F0B54B7891F800C0012B23D100EB4C1ED0
:104AC00000258E694FF6FF74CFF6F875CEF2070415
:104AD000002E0EF51063DEF8107940D03D401D61C8
:104AE0001D6925401D61CD6804F10054AE4288BFA8
:104AF0008D611D6945F400251D618D692C401D697E
:104B00002C4334E000EB4C13D3F8100B6FF312007E
:104B1000C3F8100BD3F8100B6FF3DC40C3F8100B85
:104B2000886903F5306300284FF6FF701CBFCF681B
:104B30008F61CF68CF61CEF207001E6946F4002670
:104B400000F100501E6138401F69012A40EA070049
:104B5000186113D10869002818BF58610EE03C4065
:104B60001C611C6944F400241C611C692C40012A4E
:104B70001C610AD1486908B1CEF814094FF004410C
:104B80001868084318600020F0BDDEF8002942F0E4
:104B90000442CEF8002989690029F4D00CF00F01F5
:104BA000012202FA01F100F63403E9E700000000F7
:104BB00043F20B03D0F840C0C4F654739C4503D3B2
:104BC000D0F8003B002B1ED40023C0F8103BD0F8D7
:104BD000103B012943F40023C0F8103BD0F8103BF0
:104BE00043F01803C0F8103BD0F8103B43F0C0412D
:104BF000C0F8101B07D1C0F8142BD0F8001B41F0EF
:104C00008021C0F8001B0020704700000000000059
:104C10004B780A78012B11D100F5106052018358AE
:104C200023F400138350097901F0FE01022915D104
:104C3000115841F0805111500020704700F530604C
:104C40005201835823F400138350097901F0FE01C7
:104C5000022903D1115841F08051115000207047B2
:104C60004A780978012A00EB41100CD1002900F59F
:104C70001061D0F8000912D0002810D4086820F084
:104C8000804008600BE0002900F53061D0F8000B8F
:104C900005D000285EBF086820F0804008600A68E0
:104CA000002042F400120A6070470000000000007B
:104CB00070B582B04B7891F800C0012B30D100EB79
:104CC0004C13D1F818E0BEF1000F03F51064D3F8CF
:104CD00010594BD06FF31205256125696FF3DC4540
:104CE0002561CD680EEB0506013EB6FBF5F5002605
:104CF000C1F6F87606EAC54526693543256175464D
:104D000026696FF3DF45354325610D79012D38D1D3
:104D1000256925F0C0452561256945F000552FE03E
:104D200000EB4C13D3F8106B6FF31206C3F8106B43
:104D3000D3F8106B6FF3DC46C3F8106B8D6903F585
:104D40003063002DCC6858D02E19013EB6FBF4F626
:104D5000B5B26C430025CC61C1F6F87505EAC646CC
:104D60001D696FF3DF442E431E614DE06FF3DC4598
:104D70002561256945F40025256125696FF3120534
:104D80002561012A1BD14A69002A18BFC3F81429DA
:104D9000097901290CD1D0F80808C0054FF08050DE
:104DA00058BF4FF00050D3F800190843C3F800096A
:104DB000D3F8000940F00440C3F8000940E000F5D2
:104DC00010634FEA4C141D5945F004451D510D79EF
:104DD000012D38D1D0F80858ED054FF0805558BF57
:104DE0004FF00055E6583543E5501FFA8EF3096938
:104DF0000092624600F01CFA22E06FF3DF441E6965
:104E000026431E614FF400241E69012A46EA04026B
:104E10001A6103D10A69002A18BF5A610979012968
:104E20000AD1D0F80808C0054FF0805058BF4FF0A5
:104E30000050196808431860186840F00440186072
:104E4000002002B070BDBEF1000FF9D00CF00F01D0
:104E5000012202FA01F1D0F834281143C0F83418C5
:104E6000EEE700000000000081B0002200924A78C6
:104E7000012A1BD1097800F5106049014258B2F1AE
:104E8000FF3F2EDC0A5842F000620A500A5842F0F6
:104E900080420A5042F21072009B01330093009B43
:104EA000934221D80B58002BF6D41AE0097800F56C
:104EB000306049014258B2F1FF3F12DC0A5842F01B
:104EC00000620A500A5842F080420A5042F21072C0
:104ED000009B01330093009B934205D80B58002B95
:104EE000F6D4002001B07047012001B070470000E7
:104EF00001468268002042F001028A60704700008B
:104F000081B040F640510022C0F20301009200BF80
:104F1000009A01320092009A8A4213D80269B2F1D3
:104F2000FF3FF5DC0022009210220261009A01325C
:104F30000092009A8A4205D80269D206F6D400206F
:104F400001B07047032001B070470000000000006E
:104F500081B040F640520023C0F20302009300BF2C
:104F6000009B01330093009B934215D80369B3F172
:104F7000FF3FF5DC8901002300932031016100BF70
:104F80000099013100910099914205D80169890683
:104F9000F6D4002001B07047032001B07047000034
:104FA000D0F8080810F0060F05D080074FF0020077
:104FB00058BF0F207047002070470000000000001D
:104FC000406900F001007047D0F81818D0F81C08AC
:104FD000084080B270470000D0F81818D0F81C08BC
:104FE0000840000C70470000D0F810C8D0F83438E2
:104FF00001F00F0200EB411023FA02F2D201D0F8C7
:105000000809D1B241EA0C010840704700000000D5
:1050100000EB4111D1F8081BD0F814080840704784
:10502000416980690840704780B5002302F0030E93
:10503000B3EB920F0BD0920804394FF4805C00BFA1
:10504000013A50F80C3041F8043FF9D10431BEF177
:10505000000F0ED04FF4805280580022AEF1010EA6
:1050600020FA02F301F8013B5FEA0E4302F1080265
:10507000F4D1084680BD000070B50446C06820F039
:10508000C040E06099B1012928D1E068002540F0D6
:105090000050E06001202E46FBF74AFC2046013517
:1050A000FFF78EFF302E13D80128F3D110E0E0680F
:1050B000002540F08040E06001202E46FBF738FCE0
:1050C00020460135FFF77CFF302E01D80028F3D1B0
:1050D000A5F13200B0FA80F0400970BD012070BD2A
:1050E0000246D0F8000820F4FE6001F07F01C2F80B
:1050F00000080020D2F8003843EA0111C2F8001875
:1051000070470000000000000246D0F80038002080
:105110001943C2F800187047022A02460DD145F221
:10512000403043F20053CFF62770C0F20C0308441E
:1051300098420DD24FF4705101E04FF41051D068F5
:1051400020F47050D060D36800201943D1607047BC
:1051500041F6406044F24023CFF61B70C0F20F03CB
:105160000844984202D24FF46051E8E7A1F5740078
:1051700044F68073A0F51050C0F21203984202D298
:105180004FF45051DBE7A1F183704DF22063A0F59D
:10519000E740C0F21303984202D24FF44051CEE7E9
:1051A0004BF260604EF26033CFF6E560C0F216035A
:1051B0000844984202D24FF43051C0E74DF200301B
:1051C00047F24073CFF6CE60C0F21B03084498420A
:1051D00002D24FF42051B2E745F6C03049F2C01375
:1051E000CFF6B360C0F221030844984202D24FF4D4
:1051F0001051A4E7A1F1B77047F22053A0F5585021
:10520000C0F23803984202D24FF4005197E745F2BA
:10521000E04049F6E043CFF65960C0F2410308444C
:105220004FF4C051984238BF4FF4E05187E7000077
:10523000DDF800C0BCF1000F12D103F1030C002314
:10524000B3EB9C0F0CD04FEA9C0300F5805C12037B
:10525000043900BF013B51F8040F42F80C00F9D1AA
:105260000020704700000000FEE700000000000082
:10527000002848BF704700F01F01012202FA01F127
:105280004EF200124009CEF2000242F820107047A0
:105290004EF60C50CEF200000068C0F302207047BA
:1052A0004EF6145300F00F02CEF20003B0F1FF3FB0
:1052B0001A4400F16043C8BF03F56442080110704E
:1052C00070470000000000004EF60C514FF6FF033F
:1052D000CEF200010A681A4060F30A2242F08060B0
:1052E00040F0FD7008607047FDF73EFDFBF72CFCB9
:1052F000FEF746F8FDF754FDFDF7A2FD04A400BF3C
:105300004FF47A70FBF714FB204600F009F8F7E73A
:1053100068656C6C6F2077726F6C640D0A0000001A
:1053200083B070B581B0CDE90512024640F61C503D
:10533000079305ABC2F200404FF40061009300F008
:1053400023F841F21C510446C2F2004191F89C221C
:10535000032A0CD1D1F8BC52FBF7DEFBC61C00BF00
:10536000D5F8140218B1FBF7D7FBB042F8D9A1B2B7
:1053700040F61C50C2F20040FBF796FA01B0BDE8BF
:10538000704003B0704700007CB50C001D46164607
:10539000014601D0601E00E00020CDE90010064B60
:1053A0006A462946304600F0DBF8002C02D0009A0D
:1053B000002111707CBD00008F5C000802E008C86D
:1053C000121F08C1002AFAD170477047002001E07F
:1053D00001C1121F002AFBD1704700002DE9FF5FB9
:1053E00082B00021DDE90430020DDDF840B0034356
:1053F00018D044F61050A2F2FF324243151411980F
:1054000001281FD0A5EB0B00401C5FEA000A4FF0FB
:1054100000064E4FDFF83891B046504615D5CAF118
:10542000000413E0119801244AA3012801D16FEA76
:105430000B010298119AC0E90031C0E9024206B09E
:10544000BDE8F09FCBF10000DFE704460021404AB1
:10545000491842EB0450CDE9001012E0E00707D0F4
:1054600032463B4640464946FBF732F8804689467D
:1054700032463B4610461946FBF72AF806460F46C9
:105480006410002CEAD1DDE90401DDE90023BAF162
:10549000000F06DAFBF71CF842464B46FBF718F8FC
:1054A00005E0FBF787F842464B46FBF783F80446D6
:1054B0000E460022284BFBF705F903D84FF0FF30CA
:1054C000014607E00022254B20463146FAF759FFF6
:1054D000FBF7DFF8102409E0002C0ADB0A22002386
:1054E000FAF71EFF039B30321A55641E50EA010280
:1054F000F2D1641C039AC4F111031444119A012AD5
:1055000003D0012208430DD10AE0084304D0002053
:105510004FF0110B119072E7A3EB0B056D1E0DE020
:105520005B4504DD4FF0000205F1010504E003DAFC
:105530004FF00002A5F10105002AECD00298119964
:10554000C0E90231C0E9004579E7000000001440DD
:105550000000F03F300000000000F0430000E03F9A
:105560002DE9FF4F95B09B468946064600250FE280
:10557000252877D100242746F84A0121059400E028
:10558000044316F8013F203B01FA03F01042F7D123
:1055900030782A2811D06FF02F033078A0F1300234
:1055A000092A16D8059A44F0020402EB820203EBA2
:1055B00042021044761C0590EFE759F8042B05923F
:1055C000002A03DA504244F40054059044F00204E7
:1055D000761C30782E2816D116F8010F44F00404FA
:1055E0002A280DD06FF02F023078A0F13003092B5C
:1055F00009D807EB870302EB4303C718761CF3E7D0
:1056000059F8047B761C30786C280FD006DC4C28C7
:1056100017D068280DD06A2814D104E0742810D05F
:105620007A280FD10DE044F400140AE044F4801409
:1056300001E044F440147278824202D104F58014EF
:10564000761C761C307866280BD013DC582877D06F
:1056500009DC002875D04528F6D04628F4D0472824
:105660001AD19DE118E0632835D0642879D06528E7
:1056700012D195E1702873D008DC6728F1D0692831
:105680006FD06E280DD06F2806D1B5E073282CD0CE
:10569000752875D0782874D05A46179990476D1C94
:1056A00075E1C4F30250022809D003280DD0D9F8BF
:1056B000001004280DD00D6009F1040967E1D9F844
:1056C0000010EA17C1E90052F6E7D9F800100D8082
:1056D000F2E70D70F0E719F8041B8DF800100020B8
:1056E0008DF80100EA46012003E059F804AB4FF0C1
:1056F000FF3061074FF0000102D40DE008F1010115
:105700008846B9420FDA8045F8DB1AF808100029FC
:10571000F4D108E008F1010188468142FADB1AF869
:1057200008100029F6D105985B46A0EB0807214632
:105730003846179A00F094FA284400EB080507E071
:105740004DE029E10DE01AF8010B5A4617999047F0
:10575000B8F10108F7D25B4621463846179A13E1A3
:1057600042E00A220092C4F302524FF0000A022AD9
:1057700008D059F804CB032A4FEAEC710AD00DE0A7
:1057800029E02AE009F1070121F00702F2E802C14D
:10579000914609E00FFA8CFC4FEAEC71042A03D120
:1057A0004FFA8CFC4FEAEC71002907DA0A46002117
:1057B000DCF1000C61EB02012D2202E0220504D590
:1057C0002B228DF80420012203E0E20701D02022E1
:1057D000F7E7904659E00A2102E010220DE010217F
:1057E0004FF0000A00910BE010224FF0000A44F045
:1057F00004040827009203E008224FF0000A0092F8
:10580000C4F30252022A05D059F804CB0021032A1E
:1058100008D009E009F1070121F00702F2E802C10E
:10582000914605E01FFA8CFC042A01D10CF0FF0C14
:105830004FF00008220728D5702806D0009B83F07F
:10584000100353EA0A0305D00EE040228DF804202D
:10585000012208E05CEA010206D030228DF8042023
:105860008DF8050002229046009B83F0080353EA5E
:105870000A030AD15CEA010201D1620705D5302290
:105880008DF804204FF001087F1E582804D034A062
:1058900003900EA802900DE036A0F9E7534660464B
:1058A000009AFAF73DFD84460398825C0298401EF8
:1058B000029002705CEA0100F0D1029806A9081A71
:1058C00000F1200A600702D524F4803400E00127AB
:1058D000574502DDA7EB0A0000E0002000EB0A01BB
:1058E000009005984144401A0590E00306D45B46B9
:1058F0002146179A059800F0B3F90544002706E001
:1059000001A85A46C05D179990476D1C7F1C4745FA
:10591000F6DBE0030CD55B462146179A059800F0AC
:105920009FF9054404E030205A46179990476D1CB2
:105930000099481E00900029F5DC08E002980299C1
:105940005A460078491C0291179990476D1CBAF18C
:105950000001AAF1010AF1DC65E10000092801005B
:1059600030313233343536373839616263646566D5
:105970000000000030313233343536373839414297
:10598000434445460000000000F058F90544761CE9
:10599000307800287FF4ECAD19B02846BDE8F08FD0
:1059A000620700D4062709F1070222F0070CFCE881
:1059B0000223E14603F000485FEA080C02D00FF230
:1059C000702C0DE05FEA045C02D50FF2682C07E052
:1059D0005FEAC47C02D00FF2602C01E0AFF2700CE1
:1059E0004FF0FF3823F00043CDF850C065280CD0AD
:1059F00006DC452809D046281DD047283DD13DE08A
:105A0000662818D067287ED138E00021112F01DBED
:105A1000112000E0781CCDE9000106A90EA8FFF7CF
:105A2000DDFCDDE90F010E9A03910021009207F1E0
:105A3000010A04914DE04FF000400097CDE90110BC
:105A400006A90EA8FFF7CAFCDDE90F0203920E9B20
:105A500011990022DDF80CA00093049211B9791C71
:105A600000EB010AB7EB0A0004D4C0F1FF3007F1E4
:105A7000010A0490AAEB0700019044E0012F00DA2C
:105A800001270021112F01DD112000E03846CDE96A
:105A9000000106A90EA8FFF7A1FCDDE90F010E9A8F
:105AA0000391002104910092BA4621070CD4039976
:105AB000514500DA8A46BAF1010F05DD009AAAF1D4
:105AC0000101515C302908D0B84202DA10F1040F0C
:105AD00006DA0121CDE9011015E0AAF10101E9E79B
