:020000040800F2
:1000000098050124AD020008D9310008612F0008CD
:10001000D1310008610800083944000800000000E0
:10002000000000000000000000000000593400083B
:10003000690800080000000011320008913400082F
:10004000C7020008C7020008C7020008C70200086C
:10005000C7020008C7020008C7020008C70200085C
:10006000C7020008C7020008C7020008C70200084C
:10007000C7020008C7020008C7020008C70200083C
:10008000C7020008C7020008C7020008C70200082C
:10009000C7020008C7020008C7020008C70200081C
:1000A000C7020008C7020008C7020008713600082E
:1000B000C7020008C7020008C7020008C7020008FC
:1000C000C7020008C7020008C7020008C7020008EC
:1000D000C7020008C7020008C7020008C7020008DC
:1000E000C7020008C702000800000000C70200089D
:1000F000C7020008C7020008C7020008C7020008BC
:10010000C7020008C7020008C7020008C7020008AB
:10011000C7020008C7020008C7020008C70200089B
:10012000C7020008C7020008C7020008C70200088B
:10013000C7020008C7020008C7020008C70200087B
:1001400000000000000000000000000000000000AF
:10015000C7020008C7020008C7020008C70200085B
:10016000C7020008C7020008C7020008C70200084B
:10017000C7020008C7020008C7020008C70200083B
:10018000C7020008C7020008C7020008C70200082B
:10019000C7020008C7020008C7020008C70200081B
:1001A000C7020008C7020008C7020008C70200080B
:1001B000C7020008C7020008C7020008C7020008FB
:1001C000C7020008C7020008C7020008C7020008EB
:1001D000C7020008C7020008C7020008C7020008DB
:1001E000C7020008C7020008C7020008C7020008CB
:1001F000C7020008C7020008C7020008C7020008BB
:10020000C7020008C7020008C7020008C7020008AA
:10021000C7020008C7020008C7020008C70200089A
:10022000C7020008C7020008C7020008000000005B
:10023000C7020008C702000800000000C70200084B
:10024000C7020008C7020008C7020008C70200086A
:10025000C7020008C7020008C7020008C70200085A
:10026000C7020008C7020008C7020008C70200084A
:10027000C7020008C7020008C7020008000000000B
:10028000C7020008C7020008C702000800000000FB
:1002900000000000C7020008DFF80CD000F0BCFA34
:1002A0000048004759470008980501240648804740
:1002B00006480047FEE7FEE7FEE7FEE7FEE7FEE74B
:1002C000FEE7FEE7FEE7FEE7A13500089902000819
:1002D0002DE9F05F0546002092469B46884606467B
:1002E000814640241BE0284641464746224600F00E
:1002F0006FF853465A46C01A914110D3114618461A
:10030000224600F056F82D1A67EB01084F462246A8
:100310000120002100F04DF817EB00094E41201E8E
:10032000A4F10104DFDC484631462A464346BDE8D5
:10033000F09FD2B201E000F8012B491EFBD27047BA
:100340000022F6E710B513460A4604461946FFF7A1
:10035000F0FF204610BDC1F30A52C1F3130140F271
:10036000FF3341F480119A4202DA002001467047BF
:1003700040F233439A42A2F2334202DC524200F08E
:1003800027B800F016B830B50B46014600202022F1
:10039000012409E021FA02F59D4205D303FA02F592
:1003A000491B04FA02F52844151EA2F10102F1DCF2
:1003B00030BD202A04DB203A00FA02F10020704709
:1003C0009140C2F1200320FA03F319439040704793
:1003D000202A04DB203A21FA02F00021704721FA9A
:1003E00002F3D040C2F12002914008431946704701
:1003F00010B5141E73F1000408DA401C41F100012D
:1004000092185B411A4301D120F0010010BD2DE983
:10041000F04D92469B4611B1B1FA81F202E0B0FA7A
:1004200080F220329046FFF7C4FF04460F4640EAB0
:100430000A0041EA0B0153465A46084313D01146BD
:1004400053EA010019D0C8F140025046FFF7C0FF3F
:1004500005460E46504659464246FFF7AAFF084356
:1004600005D0012004E020463946BDE8F08D00208B
:10047000054346EAE0762C4337430A986305E40ACD
:10048000A0EB08000022FD0A44EA47540A3002D5D6
:1004900000200146E9E7010510196941DDE9084539
:1004A00000196941BDE8F04DA2E72DE9FE4F8046F5
:1004B00081EA0300C00F0C46009021F0004123F0B8
:1004C0000045B8EB0200A94105D2404621469046BE
:1004D0001C460B46024623F00040104347D0270D30
:1004E000C7F30A00C3F30A510290401A0190402852
:1004F0006BDAC3F3130040F4801B0098924620B1DE
:100500000023D2EB030A63EB0B0B01985946C0F1B1
:1005100040025046FFF74DFF06460D4650465946ED
:10052000019A00F08BF910EB08006141002487EA82
:10053000115284EAE7731A4340D0009A62B3019AD9
:10054000012A4FEA075215DC001B61EB02014FF054
:10055000004202EA0752CDE90042001C41F5801139
:1005600032462B46FFF753FF03B0BDE8F08F4046FD
:100570002146F9E7001B61EB0201001C41F58013E5
:1005800000185B412018A2F5001747EB030140EA71
:10059000D570B6196D4111E06D084FEA360645EA8F
:1005A000C0754FEA0752001B61EB0201001C41F5C8
:1005B000801149084FEA30000019514132462B465C
:1005C00003B0BDE8F04FFFF713BF009801224000D1
:1005D0000023D0EB020263EBE073009821464FEA60
:1005E000E074B8EB000061EB0401E9E783F000433D
:1005F0005BE781F0004158E72DE9FE4F81EA0304F3
:1006000004F0004421F0004100944FF0000B23F06F
:10061000004350EA01045ED052EA03045BD0C3F306
:100620000A54C1F30A552C44A4F2F3340194A0FBFC
:100630000254C1F3130141F48011C3F3130343F4D3
:10064000801301FB024400FB034E840A970A44EA2C
:10065000815447EA8357A4FB076802958D0A05FB7E
:1006600007854FEA932C04FB0C542705029D4FEAA3
:10067000065847EA1637B5EB08056EEB070C870EF0
:10068000920E47EA811742EA8312A7FB0201B6EBFA
:100690000B0164EB00042B0D43EA0C335E1844EBB2
:1006A0001C50DA465146E7FB0201C5F313044FEA3A
:1006B0000B3343EA14534FEA0432019C43EA060326
:1006C000A4F10C040294009CCDE900B4FFF79FFE56
:1006D00003B0BDE8F08F00200146F9E72DE9F04DA9
:1006E00081EA030404F0004B21F0004514464FF06A
:1006F000000A23F0004150EA050220D054EA01022A
:100700001DD0C5F30A570246C5F31303C1F3130006
:10071000C1F30A5640F4801543F48013A7EB060892
:10072000101BD64608F2FD3873EB050002D308F122
:10073000010801E092185B41B8F1000F03DA0020D4
:100740000146BDE8F08D00204FF480110646844636
:100750000EE0171B73EB050705D3121B63EB0503B4
:1007600006434CEA010C49084FEA300092185B41FD
:1007700050EA0107EDD152EA030012D082EA0400E8
:1007800083EA0501084305D0101BAB4106D20122C4
:10079000002306E000224FF0004302E06FF0010268
:1007A00053101AEB06004CEB085110EB0A0041EB1A
:1007B0000B01BDE8F04DFFF71BBE70B521F0004303
:1007C00003430CD0C1F30A550024D5EB040564EBB8
:1007D0000403D617AD1AB34102DB0020014670BDF9
:1007E000201841EB025170BD30B5041E71F10004B8
:1007F00004DB4FF00044404264EB0101141E73F12E
:10080000000405DB1C464FF00043524263EB040337
:10081000994208BF904230BD064C074D06E0E068A3
:1008200040F0010394E8070098471034AC42F6D337
:10083000FFF736FD185E0008385E0008202A06DB48
:10084000CB17203A41FA02F043EAE07306E041FA9E
:1008500002F3D040C2F1200291400843194670478C
:10086000FEE70000000000007047000000000000EC
:10087000B0B50C46054600F00BF86942A84238BFF7
:10088000E94301440020A14228BF0120B0BD00007F
:1008900080B500F0EDF880BD70470000000000005A
:1008A000EFF3108072B600BFFEE70000000000000A
:1008B0002DE9F04F83B00C68002C00F0C68000F1E9
:1008C000264242F2004702F1FF72C5F602074FEAE4
:1008D000B22201920A22B84208BF0922002500274D
:1008E0004FF0010A009209E00C68043734FA0AF26A
:1008F0000AF1010A05F1020500F0A780AAF1010939
:10090000012202FA09FE14EA0E08EDD0D1F804B073
:100910000BF00304A4F1010CBCF1010F11D8032268
:100920008668AA40CB6826EA0202AB401A4382607E
:10093000CBF30013426822EA0E0203FA09F31A43CA
:100940004260032C1ED00323C268AB40022C22EA73
:1009500003028B6803FA05F342EA0302C26011D175
:100960006FF0030207F01C0602EA59020F2302444B
:1009700003FA06F4D2F820C00B692CEA0404B34051
:100980002343136203230268AB404E689A4306F088
:100990000303AB4016F4403F42EA03020260A3D0D7
:1009A00044F2F44340F2084EC5F60203C5F6000EC9
:1009B0001A6842F002021A601A6807F00C0302F08B
:1009C00002020292029A29F00302019C009E092C65
:1009D00038BF26460F2452F80EC09C402CEA04046F
:1009E00006FA03F34FF0B04C234342F80E30DCF824
:1009F00000204B6842EA0806DC0258BF22EA0806DB
:100A00009C02CCF8006040F2040CC5F6000CDCF847
:100A1000002042EA080658BF22EA08069C03CCF8E8
:100A20000060DCF8802042EA080658BF22EA080687
:100A3000DB03CCF88060DCF87C2042EA080658BF73
:100A400022EA0806CCF87C604EE703B0BDE8F08FE0
:100A5000002A08BF090481617047000000000000FF
:100A600041F20000C5F600400068000C704700002D
:100A700040F29410C2F2004000687047000000008D
:100A800040F2150040F29411C2F20040C2F200415F
:100A900000780A68104408607047000000000000F9
:100AA00080B5032000F0D0F801F0B6F844F2184108
:100AB00045F6E053C5F60201C0F600030A6809686E
:100AC00001F00F01C2F30322595C9A5C01F01F018F
:100AD00002F01F02D04040F21002C2F2004220FA9F
:100AE00001F1116040F20C01C2F2004108600F20D8
:100AF00000F00AF800281CBF012080BD00F080F83B
:100B0000002080BD00000000B0B540F21501C2F227
:100B10000041097801B3044640F20C00C2F20040E3
:100B20004FF47A72B2FBF1F10068B0FBF1F001F022
:100B30003BFC0F2C4FF001050CD858B94FF0FF309B
:100B400000222146002500F06FF840F21800C2F2A2
:100B5000004004602846B0BD0120B0BD0000000088
:100B6000B0B502784EF69C5CCEF2000C43784CF89F
:100B7000043CF2B14368CCF80030037BC17A90F8B2
:100B80000AE0457B447A42EA0372837B42EA0161D0
:100B9000C27B41EACE41007A41EA854141EA4341C4
:100BA00041EA024141EA042141EA4000CCF8040054
:100BB000B0BD0020CCF80000CCF80400B0BD0000AF
:100BC0004EF62450CEF20000BFF35F8F016821F48F
:100BD00080310160002101677047000000000000C3
:100BE0004EF6245140F00100CEF20001086708687B
:100BF00040F480300860BFF34F8FBFF36F8F7047B2
:100C000081B044F2F440C5F60200016841F00201EF
:100C10000160006800F002000090009801B0704789
:100C200080B503F00DFC80BD70B514460D46064638
:100C300003F016FC2946224602F0D2FA014630465D
:100C400003F016FC70BD000080B503F025FC80BDEC
:100C5000B0B544F60C05C5F60205296849072968B0
:100C600005D401F00701081A18BF0120B0BD21F01A
:100C7000070108432860FFF7FBFE044655F8080CFF
:100C8000800407D4FFF7F4FE001BB0F57A7FF5D996
:100C90000120B0BD0020B0BD80B500F06DFF44F272
:100CA000204145F6E052C5F60201C0F6000209688F
:100CB000C1F30211515C01F01F01C84080BD00006A
:100CC00080B544F2384EC5F6020E5EF8103C5EF870
:100CD000101CC1F3053C5EF80C1CBCF1000FDEF8E3
:100CE000042014D0C1F30011C2F3CC02514300EE32
:100CF000101A03F003010229B8EE400A0CD071B9B2
:100D00005EF8381C89060DD49FED341A18E00021D6
:100D10008160C0E9001180BD9FED2F1A10E09FEDAA
:100D20002D1A0DE05EF8381C49F20002C0F2D032F4
:100D3000C1F3C10122FA01F101EE101AB8EE411A15
:100D4000DEF800109FED263A6FF35F2102EE101AD5
:100D5000DEF80010C1F34621B8EE422A00EE032A65
:100D600000EE10CAB7EE003AB8EE400A81EE000A73
:100D700032EE031A02EE101AB8EE422A20EE010AF1
:100D800032EE031A80EE011ABCEEC11A80ED001A91
:100D9000DEF80010C1F3064101EE101AB8EE411A58
:100DA00031EE031A80EE011ABCEEC11A80ED011A71
:100DB000DEF80010C1F3066101EE101AB8EE411A18
:100DC00031EE031A80EE010ABCEEC00A10EE101AD2
:100DD000816080BD0024744A20BCBE4B0024744C4A
:100DE000000000390000000080B544F2404EC5F616
:100DF000020E5EF8183C5EF8181CC1F3055C5EF844
:100E0000141CBCF1000FDEF8042014D0C1F3002143
:100E1000C2F3CC02514300EE101A03F00301022981
:100E2000B8EE400A0CD071B95EF8401C89060DD4AA
:100E30009FED341A18E000218160C0E9001180BDE7
:100E40009FED2F1A10E09FED2D1A0DE05EF8401C6B
:100E500049F20002C0F2D032C1F3C10122FA01F11D
:100E600001EE101AB8EE411ADEF800109FED263A96
:100E70006FF35F2102EE101ADEF80010C1F3462175
:100E8000B8EE422A00EE032A00EE10CAB7EE003A8E
:100E9000B8EE400A81EE000A32EE031A02EE101A92
:100EA000B8EE422A20EE010A32EE031A80EE011A51
:100EB000BCEEC11A80ED001ADEF80010C1F3064145
:100EC00001EE101AB8EE411A31EE031A80EE011A43
:100ED000BCEEC11A80ED011ADEF80010C1F3066104
:100EE00001EE101AB8EE411A31EE031A80EE010A33
:100EF000BCEEC00A10EE101A816080BD0024744A56
:100F000020BCBE4B0024744C0000003900000000DF
:100F10002DE9F04381B00446C07844F22C49000723
:100F2000C5F6020901D400252EE0A06E4FEA30502C
:100F300003280DD80025DFE800F0020E1714D9F8B9
:100F40000000002540F40030C9F8000055B913E056
:100F500001253DB910E004F10800022102F05CF91E
:100F600005464DB1A84611E004F12800022102F027
:100F7000E3F90546002DF5D1D9F82400A16E20F43F
:100F800040100843C9F824004FF000086078C007FB
:100F900030D0A06D042807D8DFE800F00A131C0346
:100FA0000300FDB1A84625E00125002DFAD119E086
:100FB000D9F8000040F40030C9F80000002DF1D14C
:100FC00010E004F10800002102F026F90546002D8A
:100FD000E8D107E004F12800002102F0ADF9054650
:100FE000002DDFD1D9F82400A16D20F007000843BF
:100FF000C9F824006078800732D5E06D4FEAB01060
:10100000042807D8DFE800F00A131C030300FDB131
:10101000A84625E00125002DFAD119E0D9F80000F5
:1010200040F40030C9F80000002DF1D110E004F1C7
:101030000800002102F0F0F80546002DE8D107E095
:1010400004F12800002102F077F90546002DDFD1D8
:10105000D9F82400E16D20F4E0700843C9F82400B9
:101060006078400734D5D4F8A8004FEA70500428BF
:1010700007D8DFE800F00A131C030300FDB1A846FF
:1010800026E00125002DFAD119E0D9F8000040F43E
:101090000030C9F80000002DF1D110E004F1080083
:1010A000002102F0B9F80546002DE8D107E004F16F
:1010B0002800002102F040F90546002DDFD1D9F8C3
:1010C0002C00D4F8A81020F460000843C9F82C00C4
:1010D0006078000734D5D4F8AC004FEA30600428BB
:1010E00007D8DFE800F00A131C030300FDB1A8468F
:1010F00026E00125002DFAD119E0D9F8000040F4CE
:101100000030C9F80000002DF1D110E004F1080012
:10111000002102F081F80546002DE8D107E004F136
:101120002800002102F008F90546002DDFD1D9F88A
:101130002C00D4F8AC1020F0E0600843C9F82C0073
:10114000E078800728D5E06C4FEA3010032806D8F5
:10115000DFE800F002091202B5B1A8461CE0012543
:10116000002DFAD110E0D9F8000040F40030C9F8A1
:101170000000002DF1D107E004F10800022102F087
:101180004BF80546002DE8D1D9F82000E16C20F09D
:1011900030000843C9F820006078C00632D5206EC0
:1011A0004FEA3030042807D8DFE800F00A131C03A8
:1011B0000300FDB1A84625E00125002DFAD119E074
:1011C000D9F8000040F40030C9F80000002DF1D13A
:1011D00010E004F10800002102F01EF80546002D81
:1011E000E8D107E004F12800002102F0A5F8054647
:1011F000002DDFD1D9F82400216E20F4E04008430F
:10120000C9F824006078800626D5606E4FEA304029
:10121000052807D8DFE800F0030A100303039DB197
:10122000A84619E00125002DFAD10DE004F10800CF
:10123000012101F0F1FF04E004F12800012102F096
:101240007BF80546002DEBD1D9F82400616E20F41F
:10125000E0200843C9F824006078400628D5D4F877
:10126000B0004FEA3070052807D8DFE800F0030A25
:10127000100303039DB1A8461AE00125002DFAD101
:101280000DE004F10800012101F0C6FF04E004F1C3
:101290002800012102F050F80546002DEBD1D9F8C5
:1012A0002C00D4F8B01020F0E0400843C9F82C001E
:1012B0006078000620D5206FD8B1B0F1005F12D061
:1012C000B0F1805F25D1D9F8000040F40030C9F8B2
:1012D000000085B9D9F82400216F20F04050084360
:1012E000C9F8240008E004F10800012101F094FF8E
:1012F0000546002DEED0A846E078C0072AD0A06CA5
:1013000003280AD8DFE800F0020D1602D5B1A8467E
:1013100020E00125002DEED1DCE70125002DF6D1DE
:1013200010E0D9F8000040F40030C9F80000002DAA
:10133000EDD107E004F10800022101F06DFF054640
:10134000002DE4D1D9F82000A16C20F0030008435F
:10135000C9F82000A078400642D5D9F8D40340F45B
:101360008070C9F8D403FFF783FB0646D9F8D4038D
:10137000C00505D4FFF77CFB801B6528F6D3032549
:101380006DBBD9F84410D4F8B400414011F4407F4B
:1013900011D0D9F84410D9F8442042F48032C9F869
:1013A0004420D9F8442021F4407122F48032C9F855
:1013B0004420C9F84410B0F5807F0FD1FFF758FBE7
:1013C000064641F2893700BFD9F84400800705D4AA
:1013D000FFF74EFB801BB842F6D3032585B1A84624
:1013E0002078C00742D0E06F4FEAF000052823D8EC
:1013F000DFE800F003262C0303037DB3A84635E0A5
:101400004FF6CF73D4F8B40059F81C2CC0F2FF0388
:1014100000F4407122F47C5203EA1013B1F5407FCE
:1014200008BF1A436FF31F3049F81C2CD9F8441039
:101430000843C9F84400D3E70125002DDED10DE0B3
:1014400004F10800012101F0E7FE04E004F12800A6
:10145000012101F071FF0546002DCFD1D9F82800F8
:10146000E16F20F038000843C9F828002078800791
:1014700024D5A06F052807D8DFE800F0030A100381
:1014800003039DB1A84619E00125002DFAD10DE016
:1014900004F10800012101F0BFFE04E004F128007E
:1014A000012101F049FF0546002DEBD1D9F82800B4
:1014B000A16F20F007000843C9F8280020784007F2
:1014C00026D5D4F89400052807D8DFE800F0030AF1
:1014D000100303039DB1A8461AE00125002DFAD19F
:1014E0000DE004F10800012101F096FE04E004F192
:1014F0002800012101F020FF0546002DEBD1D9F88D
:101500002C00D4F8941020F007000843C9F82C00F0
:101510002078800628D5D4F890004FEA307005284E
:1015200007D8DFE800F0030A100303039DB1A846C3
:101530001AE00125002DFAD10DE004F10800002188
:1015400001F06AFE04E004F12800022101F0F4FE3B
:101550000546002DEBD1D9F82800D4F8901020F0E2
:10156000E0400843C9F828002078400628D5D4F880
:101570009C004FEAB020052807D8DFE800F0030AF6
:10158000100303039DB1A8461AE00125002DFAD1EE
:101590000DE004F10800002101F03EFE04E004F13A
:1015A0002800022101F0C8FE0546002DEBD1D9F834
:1015B0002C00D4F89C1020F4E0500843C9F82C000B
:1015C0002078000628D5D4F8A0004FEA703005280E
:1015D00007D8DFE800F0030A100303039DB1A84613
:1015E0001AE00125002DFAD10DE004F108000021D8
:1015F00001F012FE04E004F12800022101F09CFE3B
:101600000546002DEBD1D9F82C00D4F8A01020F419
:1016100060400843C9F82C002078000716D5D4F89C
:101620008400B0F5805F08D104F12800022101F0A8
:1016300083FE002818BF4FF00108D9F82800D4F81D
:10164000841020F440500843C9F828002078C006D0
:1016500016D5D4F89800B0F5807F08D104F12800A1
:10166000022101F069FE002818BF4FF00108D9F8E7
:101670002C00D4F8981020F440700843C9F82C00CE
:10168000A078000722D5D4F8A400B0F5003F1AD006
:10169000B0F5803F11D0C8BB04F10800002101F073
:1016A000BBFD05468DB9D9F82C00D4F8A41020F460
:1016B00040300843C9F82C0008E004F1280002215A
:1016C00001F03AFE0546002DEDD0A846A07840076F
:1016D00029D5D4F88800B0F5401F21D0B0F5001FFF
:1016E00018D0B0F5801F40F0BF80D9F8000040F45A
:1016F0000030C9F80000ADB9D9F82800D4F8881036
:1017000020F440100843C9F828000CE00125002D02
:10171000DBD1C8E704F12800012101F00DFE0546E8
:10172000002DE9D0A846A078C00720D0206DB0F5E4
:10173000803F10D0B8B9D9F8000040F40030C9F8A3
:1017400000009DB9D9F82000216D20F480300843B5
:10175000C9F820000BE004F10800022101F05CFD53
:1017600005461DB9EEE70125002DEBD0A846E0782F
:10177000800608D504F12800022101F0DDFD0028D3
:1017800018BF4FF00108D4E900108A037BD5D4F8C4
:1017900080206FF0010303EB3223022B0AD34FEAC0
:1017A00032233BB1012B64D1D9F8003043F400332C
:1017B000C9F80030002D5FD0CA0267D4CA006FD4C8
:1017C0008A0279D44A0000F18280B1F1FF3F40F3F0
:1017D0008F80090200F19780C00707D004F108004C
:1017E000002101F019FD002818BF05462079800767
:1017F00007D504F10800012101F00EFD002818BFF3
:1018000005462079400707D504F10800022101F0C0
:1018100003FD002818BF05462079000707D504F10D
:101820002800002101F088FD002818BF0546207916
:10183000C00607D504F12800012101F07DFD002834
:1018400018BF05462079800607D504F1280002213B
:1018500001F072FD002818BF0125002D18BF0125D9
:10186000284601B0BDE8F0830125002D7FF45AAF72
:1018700042E70125002D9FD1D9F8283023F4407389
:101880001A43C9F828204546CA0297D5D9F824201A
:10189000636F22F000421A43C9F82420CA008FD592
:1018A00059F81C2CD4F8B83022F480421A4349F875
:1018B0001C2C8A027FF586AFD9F82420E36E22F033
:1018C00080721A43C9F824204A007FF57EAF59F888
:1018D0001C2C22F4004249F81C2CD4F8BC2059F8E6
:1018E0001C3C1A4349F81C2CB1F1FF3F3FF771AF84
:1018F000D9F82020636D22F040521A43C9F8202005
:1019000009027FF569AFD9F82810D4F88C2021F4AA
:1019100040011143C9F82810C0077FF45FAF65E7A5
:101920002DE9F04381B0002800F0F48042F2000875
:101930000446C5F200288946D8F8000000F00F00E0
:1019400088420ED2D8F8000020F00F0040EA0900CB
:10195000C8F80000D8F8000000F00F00484540F03B
:10196000D980206844F218474107C5F602070AD516
:1019700021693A6802F07002914204D93A6822F073
:1019800070021143396001070AD561697A6802F073
:101990007002914204D97A6822F070021143796092
:1019A000C1060AD5A1697A6802F4E062914204D9BD
:1019B0007A6822F4E0621143796081060AD5E16910
:1019C000BA6802F07002914204D9BA6822F070023B
:1019D0001143B96081070AD5E1683A6802F00F0245
:1019E000914204D93A6822F00F0211433960C007CE
:1019F0007ED1206881070AD5E1683A6802F00F02BB
:101A0000914204D23A6822F00F0211433960D8F8AB
:101A1000001001F00F0149450DD9D8F8001021F050
:101A20000F0141EA0901C8F80010D8F8001001F0D0
:101A30000F0149456ED141070AD521693A6802F084
:101A40007002914204D23A6822F070021143396068
:101A500001070AD561697A6802F07002914204D2E6
:101A60007A6822F0700211437960C1060AD5A16933
:101A70007A6802F4E062914204D27A6822F4E06269
:101A80001143796080060AD5E069B96801F07001F8
:101A9000884204D2B96821F070010843B86000F0B0
:101AA000BBF8396845F6E052C0F600023B68C1F366
:101AB000032103F00F03515CD25C01F01F01C84009
:101AC00002F01F0140F2100220FA01F1C2F20042BE
:101AD000116040F20C0140F21802C2F20041C2F261
:101AE000004208601068FFF70FF801B0BDE8F0830E
:101AF000386820F47061D4E90102012841EA02014A
:101B000039600BD003282BD002282ED157F8181C8F
:101B1000890307D4012001B0BDE8F08357F8181CF1
:101B2000C905F7D557F8081C21F00701084347F805
:101B3000080CFEF79DFF064641F2883557F8080C61
:101B4000616800F03800B0EBC10F3FF452AFFEF710
:101B50008FFF801BA842F1D9032001B0BDE8F083BC
:101B600057F8181C8901D5D5DCE757F8181C490728
:101B7000D0D5D7E70000000080B500F04DF844F262
:101B8000184145F6E053C5F60201C0F600030A68A5
:101B9000096801F00F01C2F30322595C9A5C02F05C
:101BA0001F0220FA02F201F01F0040F2100122FA97
:101BB00000F0C2F20041086040F20C01C2F20041A4
:101BC0000A6080BD0000000080B5FFF7D5FF44F239
:101BD0001C4145F6E052C5F60201C0F60002096854
:101BE000C1F30211515C01F01F01C84080BD00002B
:101BF00080B5FFF7C1FF44F21C4145F6E052C5F63F
:101C00000201C0F600020968C1F30221515C01F033
:101C10001F01C84080BD000044F20041C5F602012A
:101C20000869C0F3C20003280FD002282AD070BB75
:101C30000868800649F20000C0F2D03058BF7047F3
:101C40000968C1F3C101C84070478A6A886AC0F355
:101C5000051CC86ABCF1000F4B6B1DD0C3F3CC034D
:101C600000F00100584302F00302022A00EE100ABD
:101C7000B8EE400A12D0A2B90868800614D49FEDCD
:101C8000261A1EE047F64000C0F27D10704740F66D
:101C90000010C0F23D007047002070479FED1D1AF4
:101CA0000FE09FED1B1A0CE0086849F20002C0F239
:101CB000D032C0F3C10022FA00F001EE100AB8EEF3
:101CC000411A086B9FED153A6FF35F2002EE100A80
:101CD000086BC0F34620B8EE422A013000EE032A1A
:101CE00000EE10CAB7EE003AB8EE400A81EE000AE4
:101CF00032EE031A20EE010A01EE100AB8EE411A84
:101D000080EE010ABCEEC00A10EE100A704700BF58
:101D10000024744A20BCBE4B0024744C00000039DF
:101D20002DE9F04381B0F8B18046007844F20049D3
:101D3000C007C5F602095AD0D9F8100000F03801E2
:101D4000D9F82800102905D018290FD100F0030078
:101D500002280BD1D9F80000800344D5D8F804003C
:101D6000002840D101272FE0012718E3D8F80440CC
:101D70002CB1B4F5A02F0DD0B4F5803F10D0D9F818
:101D8000000020F48030C9F80000D9F8000020F4E9
:101D9000802009E0D9F8000040F48020C9F8000054
:101DA000D9F8000040F48030C9F80000FEF760FE6A
:101DB0000546A4B1D9F80000800314D4FEF758FEFC
:101DC000401B6428F6D903270020002800F0E78292
:101DD0000DE000BFFEF74CFE401B6428F3D8D9F895
:101DE00000008003F6D40120002800F0D88298F883
:101DF0000000800740F18480D9F8100010F038010D
:101E0000D9F828001CD0182908BF5FEA807017D0C5
:101E1000D8F80C00D9F80010002847D021F019019B
:101E20000843C9F80000FEF723FE0546D9F8000074
:101E300040072AD4FEF71CFE401B0228F6D91EE0FC
:101E4000D9F80000400704D5D8F80C00002800F0AD
:101E50009681D9F80000D8F80C1020F0190008433A
:101E6000C9F80000FEF704FE054600BFD9F80000DF
:101E700040070AD4FEF7FCFD401B0228F6D90327D1
:101E80000024002C00F08B823AE0FEF7E9FD41F2DD
:101E90000301884223D8D8F81000D9F8041040284C
:101EA00021F47C3124D141F4003023E021F0010001
:101EB000C9F80000FEF7DCFD05460126D9F8000050
:101EC00010F0040086EA900417D0FEF7D1FD401B05
:101ED0000328F3D30327002C00F0618210E0D9F827
:101EE0000400D8F8101020F0FE4040EA016001E044
:101EF00041EA0030C9F804000124002C00F04F82B0
:101F000098F80000C00674D5D9F8100000F0380128
:101F1000D9F82800082905D018291CD100F00300A1
:101F2000012818D1D9F80000C00503D5D8F81C0045
:101F3000802859D1FEF794FD41F20301884222D84E
:101F4000D8F82000D9F80410202821F0F84142D117
:101F500041F0804041E0D8F81C000028D9F800008A
:101F600020D040F08000C9F80000FEF781FD054652
:101F7000D9F80000C005DDD4FEF77AFD401B022829
:101F8000F6D9032731E0D9F80C00D8F8201020F05A
:101F90007C50012440EA0160C9F80C00002C00F0DC
:101FA000FE8126E020F08000C9F80000FEF760FD09
:101FB00005460126D9F8000010F4807086EA102446
:101FC0000ED0FEF755FD401B0328F3D30327002C4A
:101FD00000F0E5810DE041EA8060C9F804000124C9
:101FE000002C00F0DC8104E001270024002C00F02C
:101FF000D68198F8000000071CD498F800008006ED
:1020000031D498F80000400745D4D8F82440002C7B
:1020100000F09180D9F8100000F03800182840F046
:102020008C80012CD9F82810D9F8300040F0A98014
:102030000127B4E1D8F814000028D9F874003ED084
:1020400040F00100C9F87400FEF712FD054600BF1C
:10205000D9F874008007D0D4FEF70AFD401B02288F
:10206000F6D903279BE1D8F818000028D9F800001A
:102070004DD040F48050C9F80000FEF7F9FC054649
:10208000D9F800008004BCD4FEF7F2FC401B022803
:10209000F6D9032783E1D9F8000440F48070C9F829
:1020A0000004FEF7E5FC0546D9F80004C0051AD483
:1020B000FEF7DEFC401B6428F6D903276FE120F011
:1020C0000100C9F87400FEF7D3FC0546032700BFE2
:1020D000D9F8740080077FF590AFFEF7C9FC401B6C
:1020E0000228F5D95BE1D8F808402CB1052C00F0A6
:1020F0008280012C00F08580D9F8700020F001006A
:10210000C9F87000D9F8700020F004007DE020F4D8
:102110008050C9F80000FEF7ABFC0546032700BF5E
:10212000D9F8000080047FF56CAFFEF7A1FC401BDE
:102130000228F5D933E1002731E1D9F8000020F079
:102140008070C9F80000FEF793FC022C05464FF0A2
:10215000030709D1D9F80000800178D5FEF788FC83
:10216000401B0228F6D91AE1D9F80000800140F19D
:10217000E780FEF77DFC401B0228F5D90FE101271F
:102180007EE601F00302D8F828309A4240F0DA8067
:10219000C1F30511D8F82C20914240F0D7800146B8
:1021A000D8F830206FF35F21013A914240F0D0809F
:1021B000C0F34622D8F8341001398A4240F0CA8070
:1021C000C0F30642D8F8381001398A4240F0C48082
:1021D000C0F30660D8F83C100139884240F0BE8058
:1021E000D9F83400D8F84810C0F3CC00814240F050
:1021F000B7800027D3E0D9F8700040F00400C9F898
:102200007000D9F8700040F00100C9F87000FEF7C6
:102210002FFC002C054641F288344FF0030711D003
:10222000D9F8700080073FF5F0AEFEF721FC401BA7
:10223000A042F5D9B3E000BFFEF71AFC401BA04254
:1022400000F2AD80D9F870008007F5D4DDE608F122
:102250002807D9F8280040F2F33188438ECF08438D
:10226000591E40EA02104FF47E426FF35F21C9F815
:10227000280002EB47204FF4FE0280B2D8F83C3031
:102280000844D8F8381002EB01414FF0FE4201F447
:10229000FE0102EB0362084402F0FE410844C9F863
:1022A0003000D9F82C004FF6F87120F00100C9F881
:1022B0002C00D9F83400D8F84820884340EAC200FE
:1022C000C9F83400D9F82C00D8F8401020F00C00E0
:1022D0000843C9F82C00D9F82C00D8F8441020F095
:1022E00002000843C9F82C00D9F82C0040F48030D3
:1022F000C9F82C00D9F82C0040F40030C9F82C00A3
:10230000D9F82C0040F48020C9F82C00D9F82C0012
:1023100040F00100C9F82C00D9F8000040F08070AE
:10232000C9F80000FEF7A4FB04460327D9F8000013
:10233000800109D4FEF79CFB001B0228F6D92EE091
:1023400000272CE001272AE0002728E0012726E0CB
:10235000012724E0012722E0012720E001271EE0D9
:10236000D9F82C0020F00100C9F82C00FEF780FB02
:102370000546FEF77DFBA842FBD0D9F834004FF6A6
:10238000F871D8F848208843002740EAC200C9F80D
:102390003400D9F82C0040F00100C9F82C00F8B244
:1023A00001B0BDE8F083000080B501F059F880BDB0
:1023B00070470000000000007047000000000000AF
:1023C000704700000000000010B590F83C20012A82
:1023D00001D1022010BDCB6848F2FF7ED1E901C2D5
:1023E00023F47C5322F47052CFF6F07E1A430CEAA9
:1023F0000E03D1F800C042EA030E2CF477230A69D9
:1024000043EA0E0322F47622D0F800E01A434B6927
:102410001A434EF4806322F4742C40F20042C4F25A
:1024200001028C6993428A6A22F470224FF0010300
:1024300042EA0C0280F83C3042EA044310D140F2F8
:10244000000C23F07C724B6ACFF6F04CCC690CEA9E
:1024500003531A4324F00073096A1A4342EA010342
:102460000021CEF8443080F83C10084610BD000032
:10247000B0B590F83C20012A4FF002025CD0012355
:1024800080F83C3080F83D2040F2004C0268C4F2F5
:10249000010C42F4806363455368D2F808E002BF40
:1024A00023F470034C68234341F2FF740D68C4F2B7
:1024B000000423F07003A24243EA050353600BDCDF
:1024C00040F2FF73C4F200039A4215DCB2F1804F70
:1024D00027D040F2004317E040F2FF33C4F201037B
:1024E0009A4216DC41F60003C4F200039A4218D067
:1024F0000023C4F2010309E040F60003C4F2000324
:102500009A420ED040F60043C4F200039A4208D02B
:102510000CE044F20003C4F201039A4201D0624588
:1025200004D12EF0800389681943916000220121B3
:1025300080F83D1080F83C201046B0BD000000003F
:10254000704700000000000010B5044600680169F3
:10255000890744BFC1685FEA817140D4206801697E
:10256000490744BFC1685FEA417144D420680169EA
:10257000090744BFC1685FEA017149D42068016955
:10258000C90644BFC1685FEAC1614DD420680169D2
:10259000C9071CBFC1685FEAC17152D120680169D7
:1025A000090644BFC1685FEA016151D4206801692E
:1025B000C90544BFC1685FEA016150D42068016960
:1025C000490644BFC1685FEA41614FD42068016990
:1025D000890644BFC1685FEA81614ED410BD6FF0C7
:1025E0000201016101212177806980074CD02046DA
:1025F000FFF7A6FF4EE06FF0040101610221217791
:10260000806910F4407F48D02046FFF799FF4AE0E8
:102610006FF00801016104212177C069800745D06E
:102620002046FFF78DFF47E06FF0100101610821A0
:102630002177C06910F4407F41D02046FFF780FF2A
:1026400043E06FF001010161204600F035FBA5E792
:102650006FF0800101612046FFF7AEFEA6E76FF440
:10266000807101612046FFF7A3FEA7E76FF04001EC
:102670000161204600F024FBA8E76FF02001016112
:102680002046FFF79DFE10BD204600F081F8204651
:1026900000F00EFB0020207760E7204600F078F87D
:1026A000204600F005FB002020775FE7204600F081
:1026B0006FF8204600F0FCFA002020775EE7204605
:1026C00000F066F8204600F0F3FA002020775DE77E
:1026D00080B586B000220068C4F201020021904259
:1026E0000591CDE903110291019101D006B080BDA1
:1026F00044F2E040C5F60200026842F001020260C6
:10270000006800F00100009000984FF48070019084
:102710000220CDE902010120059000200491C5F6B8
:10272000020001A9FEF7C4F806B080BD0000000059
:1027300010B5044690F83C00012801D1022010BDDC
:102740004FEAB2020120052A84F83C001CD8DFE8D9
:1027500002F003070B0F1317206801F041F812E095
:10276000206801F0A1F80EE0206801F0F5F80AE019
:10277000206801F049F906E0206801F089F902E0DB
:10278000206801F0C9F90020002184F83C1010BD38
:10279000B0B584B040F220010020C2F200410390A5
:1027A000029040F2A8040190C2F200440A7801327B
:1027B0000A700A78022A4DD1087040F2A400C2F2D1
:1027C000004040F21405C2F2004501680131016089
:1027D0002978B1B304293DD040F27C000329C2F22C
:1027E0000040426A02F10102426243D0022968D0ED
:1027F00001292FD140F278019FED471AC2F2004122
:102800000A6801320A608169436A826891ED000AB0
:10281000043181EE000A93428DED010AB6EE000A02
:1028200081619DED011A21EE000ABCEEC00A10EE96
:10283000101A21800EDB006903F0E2F902202870F3
:1028400008E040F2AC000021C2F2004000F0ACF918
:102850000420287040F2AC00C2F200400068416AD7
:10286000039103992288114489B20291029941632C
:1028700004B0B0BD40F278019FED271AC2F20041CA
:102880000A6801320A608169436A026A91ED000AAE
:10289000043181EE000A93428DED010AB6EE000A82
:1028A00081619DED011A21EE000ABCEEC00A10EE16
:1028B000101A2180CEDB406903F0A2F900202870B5
:1028C000C8E740F27801C2F200419FED111B0A688F
:1028D00001320A6090ED010AB8EEC00B81EE000BE8
:1028E000B6EE001AB7EEC00B8DED010A9DED010AA0
:1028F00020EE010ABCEEC00A10EE101A2180416AD7
:10290000C2699142A6DB4169816103202870A1E779
:102910000000000080842E41002474490000000063
:1029200060B310B5044690F83D0028B9002084F843
:102930003C00204600F024F8022084F83D00206886
:10294000211D00F09DFE012084F8480084F83E001F
:1029500084F83F0084F8400084F8410084F8420085
:1029600084F8430084F8440084F8450084F8460065
:1029700084F8470084F83D00002010BD0120704716
:1029800080B582B000210068C4F20101884201D004
:1029900002B080BD44F2F0400022C5F6020001689A
:1029A00041F0010101600068002100F00100019088
:1029B00001981B20FEF738F91B20FEF731F902B011
:1029C00080BD000000000000B0B5054659B1081FE9
:1029D0004FEAB000032809D8DFE800F0020B0E111F
:1029E00005F13F000DE005F13E000AE005F143006E
:1029F00007E005F1400004E005F1410001E005F1C8
:102A00004200007801280DD171B1081F4FEAB000D3
:102A100003280DD8DFE800F002101418022085F812
:102A20003F0014E00120B0BD022085F83E000EE01A
:102A3000022085F843000AE0022085F8400006E005
:102A4000022085F8410002E0022085F842004FEAAA
:102A5000B10003280AD850A22B6852F82020DC6865
:102A600022430024DA60032804D98CE001240328DF
:102A700000F289802868012200F0A2FE4FF6FF7163
:102A80002868C4F20001884216DC40F2FF71C4F2EB
:102A90000001884240DD40F60001C4F20001884296
:102AA00067D040F60041C4F20001884261D041F68F
:102AB0000001C4F200015AE043F6FF71C4F20101C3
:102AC00088420EDD44F20001C4F20101884213D0B5
:102AD00044F60001C4F2010188420DD044F20041E5
:102AE00006E00021C4F20101884205D040F2004115
:102AF000C4F20101884248D141F2FF71426CC4F234
:102B00000001884242F4004141640DDC40F2FF7153
:102B1000C4F20001884215DCB0F1804F29D040F2A8
:102B20000041C4F2000122E040F2FF31C4F2010191
:102B3000884212DC41F60001C4F20001884218D03C
:102B4000002112E040F60001C4F20001884210D0DA
:102B500040F60041C4F2000109E044F20001C4F271
:102B60000101884205D040F20041C4F201018842CF
:102B70000BD107228168C0F201021140062918BF5B
:102B8000B1F5803F01D12046B0BD016841F001019F
:102B900001602046B0BD00BF02000000040000003C
:102BA000080000001000000070B54FEAB1060546AD
:102BB000032E0BD83AA02A68002450F82600D368C8
:102BC0001840D060032E04D9204670BD0124032E86
:102BD000FAD82868002200F0F3FD43F6FF71286858
:102BE000C4F2010188420EDD44F20001C4F2010189
:102BF000884213D044F60001C4F2010188420DD08E
:102C000044F2004106E00021C4F20101884205D0EF
:102C100040F20041C4F2010188420DD1016A41F243
:102C20001112114208D1016A40F24442114203D10B
:102C3000416C21F400414164016A41F211121142D8
:102C400008D1016A40F24442114203D1016821F0E7
:102C500001010160042E09D8DFE806F0030D121708
:102C60001C00012085F83E00204670BD012085F83B
:102C70004300204670BD012085F83F00204670BD0E
:102C8000012085F84000204670BD012085F84100F4
:102C9000204670BD012085F84200204670BD00BF6F
:102CA000FDFFFFFFFBFFFFFFF7FFFFFFEFFFFFFF52
:102CB00070470000000000007047000000000000A6
:102CC000704700000000000090F88410012901D135
:102CD000022070472421C0F8881002681368116828
:102CE00023F0005321F001011160002141661360BF
:102CF0002022C0F8882080F8841008467047000021
:102D0000B0B5044690F88400012801D10220B0BD7E
:102D1000012084F884002420C4F888002068056815
:102D2000026822F001020260826822F060621143B0
:102D30008160204600F034FF206805602020C4F840
:102D40008800002084F88400B0BD0000000000006E
:102D5000B0B5044690F88400012801D10220B0BD2E
:102D6000012084F884002420C4F8880020680568C5
:102D7000026822F001020260826822F06042114380
:102D80008160204600F00CFF206805602020C4F818
:102D90008800002084F88400B0BD0000000000001E
:102DA00010B5B0B10446D0F8880028B9002084F8E6
:102DB0008400204600F028F82420C4F88800206809
:102DC000016821F001010160204601F011F801289D
:102DD00001D1012010BDA06A10B1204600F00CFF07
:102DE0002068416821F490414160816821F02A0106
:102DF0008160016841F001010160204600F06CFF34
:102E000010BD000000000000B0B5B8B0044602A834
:102E1000C0210025CDE93655CDE934553395FDF770
:102E20008FFA41F200012068C4F20101884201D00A
:102E300038B0B0BD0120029002A803952195FEF79D
:102E400067F808B1FDF72CFD44F2E040C5F602003A
:102E5000016941F010010161016901F01001019166
:102E60000199016841F001010160006833A900F097
:102E70000100019001984FF4C0603390022034901B
:102E80000020CDE93500072037900020C5F602006C
:102E9000FDF70EFD38B0B0BD2DE9F04182B004461B
:102EA000D0F8880020283FD10E4600294FF00100BD
:102EB0004BD01746002A48D01D464FF00008C4F8F2
:102EC00090802120C4F88800FDF7D2FDA4F854704A
:102ED000A4F856700746A168B1F5805F0FD120694C
:102EE000002814BF3046B046064608E0206816F8B1
:102EF000011B8162B4F856000138A4F85600B4F8FA
:102F00005600A8B18021002220463B46009501F0E2
:102F100033FAE8B9002EE9D138F8020B216800260F
:102F20006FF35F208862E5E7022002B0BDE8F08120
:102F30004021002220463B46009501F01DFA202149
:102F40000028C4F8881018BF032002B0BDE8F08143
:102F50002020C4F88800032002B0BDE8F081000002
:102F6000FEE700000000000010B584B00024CDE9A9
:102F70000244CDE90044FDF723FE0120ADF8000036
:102F800048F21F70029040F20110039068460194CD
:102F9000FDF7E6FD0420FDF723FE04B010BD0000A0
:102FA0002DE9F04786B044F2E0400027C5F6020064
:102FB0000597CDE90377CDE90177016840F6000474
:102FC00041F0010101600168C5F6020401F0010150
:102FD00000910099016841F004010160016801223B
:102FE00001F0040100910099016841F08001016045
:102FF00001684FF4005601F08001009100990168CA
:1030000041F00201016000684FF4005100F002003D
:103010000090009820464FF00108FDF719FD80212F
:10302000002220464FF08009FDF712FDA4F58065CF
:103030004FF40061002228464FF4006AFDF708FDB6
:10304000CDE9016801AE20463146CDE90387FDF7A1
:103050002FFC20463146CDE90198CDE90377FDF7F5
:1030600027FC28463146CDE901A8CDE90377FDF7D5
:103070001FFC06B0BDE8F08710B596B001A82C2162
:103080000024CDE91444CDE91244CDE91044CDE942
:103090000E44CDE90C44FDF753F940F2AC00002199
:1030A000C2F20040C4F201010160EF21C0E9011445
:1030B0004FF6FE714461C0E9031480218161FFF77E
:1030C0002FFC08B1FDF7ECFB40F2AC0013A9C2F2F3
:1030D00000401594CDE91344FFF7CAF908B1FDF794
:1030E000DFFB30200C9040F2AC000CA9C2F2004093
:1030F00000220024CDE90D44CDE90F44CDE911446F
:10310000FFF716FB08B1FDF7CBFB4FF4005001A908
:10311000CDE906044FF000700594CDE9090440F2B2
:10312000AC000894C2F200400B94CDE90344CDE911
:103130000144FFF749F908B1FDF7B2FB40F2AC00DA
:10314000C2F20040FFF7C4FA16B010BD0000000044
:1031500080B540F2F80041F20001C2F20040C4F232
:1031600001010C2201604FF4E13141600021C0E90E
:1031700002110161C0E90521C0E90711C0E9091187
:10318000FFF70EFE08B1FDF78BFB40F2F8000021BF
:10319000C2F20040FFF7DCFD08B1FDF781FB40F211
:1031A000F8000021C2F20040FFF7AAFD08B1FDF7C8
:1031B00077FB40F2F800C2F20040FFF785FD0028DF
:1031C00008BF80BDFDF76CFB80BD00000000000063
:1031D000FEE7000000000000FEE700000000000025
:1031E00000F007004FF0FF3C80F00703042B28BFDE
:1031F0000423033838BF00200CFA03F399430CFA78
:1032000000F301FA00F022EA0301084370470000CE
:103210007047000000000000F0B581B044F22C4778
:10322000C5F6020757F8042C02F00302032A02D164
:10323000012001B0F0BD054657F82C0C0C4620F0DB
:10324000806047F82C0CFDF713FC064657F82C0C51
:10325000000105D5FDF70CFC801B0228F6D964E0BF
:1032600057F8040CEE6895E80E0020F47C30012C31
:1032700040EA0130A2F101016FF35F214FF47E4279
:1032800002EB432247F8040C92B24FF0FE4302EBEC
:1032900001004FF4FE012A6901EB064101F4FE0131
:1032A00003EB0262084402F0FE410844F86038680B
:1032B000696920F0C00040EA010038603868A969F7
:1032C00020F0200040EA0100386038684FF6F871BD
:1032D00020F0100038603869EA6920EA01004FF4F4
:1032E000001140EAC2003861386808BF4FF480110D
:1032F00040F01000002C386008BF4FF400213868FF
:103300000843386057F82C0C40F0806047F82C0CCC
:10331000FDF7AEFB044600BF57F82C0C000107D4A4
:10332000FDF7A6FB001B0328F6D3032001B0F0BD78
:10333000002001B0F0BD0000F0B581B044F22C4790
:10334000C5F6020757F8042C02F00302032A02D143
:10335000012001B0F0BD054657F82C0C0C4620F0BA
:10336000805047F82C0CFDF783FB064657F82C0CD1
:10337000800005D5FDF77CFB801B0228F6D964E0B0
:1033800057F8040CEE6895E80E0020F07C70012CD4
:1033900040EA0150A2F101016FF35F214FF47E4238
:1033A00002EB432247F8040C92B24FF0FE4302EBCB
:1033B00001004FF4FE012A6901EB064101F4FE0110
:1033C00003EB0262084402F0FE4108447861386869
:1033D000696920F4406040EA010038603868A969F2
:1033E00020F4007040EA0100386038684FF6F87148
:1033F00020F480703860B869EA6920EA01004FF073
:10340000807140EAC200B861386808BF4FF400011B
:1034100040F48070002C386008BF4FF48001386899
:103420000843386057F82C0C40F0805047F82C0CBB
:10343000FDF71EFB044600BF57F82C0C800007D494
:10344000FDF716FB001B0328F6D3032001B0F0BDE7
:10345000002001B0F0BD0000704700000000000037
:10346000B0B501380024B4EB106F01D00120B0BD1D
:103470004EF210050F21CEF2000568604FF0FF30CC
:1034800000F0F6FFAC60072028602046B0BD0000C9
:1034900080B5FDF7F5FA80BD70B59CB044F6180410
:1034A00040F22C4509A84C21C5F60204C5F60005DA
:1034B000FCF746FF02200026CDE90766CDE9056648
:1034C000CDE90366CDE90166FDF7C2FB00962868E9
:1034D00020F001002860286800F0010000902068BA
:1034E00040F440402060206800F440400090009884
:1034F00020688004FCD54FF6DC40CFF6FF702158E1
:1035000041F002012150205800F002000090009884
:1035100000200090206840F440402060206800F4C3
:1035200040400090286840F001002860286800F0C2
:1035300001000090009800BF20688004FCD50120A5
:1035400009904FF480300A9002200521CDE9120045
:103550001491C021CDE91510CDE9170009A8082460
:1035600019940025CDE91A55FEF7DAFBA0B93F20E2
:10357000019003204FF48061CDE9020540200494BE
:10358000CDE90500CDE9071001A80421FEF7C8F92F
:10359000002804BF1CB070BDFDF782F900000000D8
:1035A0004EF6885042F2000CCEF20000C5F2002C1C
:1035B000016841F470010160DCF8000000F00F00C8
:1035C000062806D8DCF80000072161F30300CCF8D8
:1035D000000044F200404EF67F52C5F60200CEF6DF
:1035E000F622016841F001010160002101610368D8
:1035F0001A400260DCF80020120706D5DCF8002033
:10360000072363F30302CCF8002040F2002281611B
:10361000C161C0F20222016282620022C0F2FF1286
:10362000C26240F28022C0F20112026341638263EF
:10363000C16302644164026822F480220260016670
:1036400041F20000C5F600400068B1EB507F05D1A3
:1036500048F208100121C5F20010016044F2000098
:1036600043F2D201C5F20020016070470000000063
:1036700080B540F2AC00C2F20040FEF765FF80BDAD
:1036800010B540F6FF32C4F20002904202680FDC2F
:10369000B0F1804F1DD040F20043C4F200039842C5
:1036A00017D040F60003C4F20003984211D014E092
:1036B00040F60043C4F2000398420AD040F20043AF
:1036C000C4F20103984204D00023C4F201039842DB
:1036D00003D122F070024B681A434FF6FF7343F692
:1036E000FF7CC4F20003C4F2010C984210DD604577
:1036F0001ADD44F20003C4F2010398422CD044F6D0
:103700000003C4F20103984226D044F2004312E0C1
:1037100040F2FF73C4F20003984211DCB0F1804F15
:103720001AD040F2004313E00023C4F20103984290
:1037300012D040F20043C4F2010398420CD00FE0D3
:1037400040F60003C4F20003984205D040F600435F
:10375000C4F20003984203D122F44072CB681A43AA
:1037600022F080024C696045D1F800E08B6842EAA3
:1037700004020260C362C0F828E00EDD44F20002D9
:10378000C4F20102904213D044F60002C4F20102D6
:1037900090420DD044F2004206E00022C4F2010241
:1037A000904205D040F20042C4F20102904201D1A1
:1037B000096901630121416110BD000000000000A2
:1037C00001F01F01012303FA01FC036A23EA0C0341
:1037D000036202FA01F1026A1143016270470000BC
:1037E00070B5026A43F6FF7522F001020262036AB5
:1037F0004268D0F818E08C6823F00203C4F2010597
:10380000234344F20004D1F800C0A842C4F20104EA
:103810000ADDA04213D044F60006C4F20106B0420D
:103820000DD044F2004606E00026C4F20106B04284
:1038300005D040F20046C4F20106B04205D1CE6880
:1038400023F00C0326F004063343A8420ADDA0420D
:1038500013D044F60004C4F20104A0420DD044F297
:10386000004406E00024C4F20104A04205D040F266
:103870000044C4F20104A04205D122F44072D1E90F
:10388000054522432A434FF68C744260CFF6FE74FE
:103890000EEA040646EA0C0282614968416303624B
:1038A00070BD00000000000070B5026A40F20046E2
:1038B00022F010020262036A4268D0F818C08C68D5
:1038C00040F48065C4F2010623F02003B54243EAC8
:1038D000041307D1CD686FF0400423F0C00304EA5D
:1038E00005152B4343F6FF75D1F800E0C4F201053E
:1038F000A84212DD44F20004C4F20104A04213D035
:1039000044F60004C4F20104A0420DD044F2004485
:10391000C4F20104A04207D00EE00024C4F2010466
:10392000A04201D0B04207D14C6922F440628D69B7
:1039300042EA840242EA850248F6FF444260CFF63A
:10394000FF640CEA040646EA0E228261496881633C
:10395000036270BD0000000070B5026A40F20046CC
:1039600022F480720262036A4268D0F81CC08C683C
:1039700040F48065C4F2010623F40073B54243EAC3
:10398000042307D1CD6840F2FF442D0223F44063A5
:10399000A5432B4343F6FF75D1F800E0C4F20105BF
:1039A000A84212DD44F20004C4F20104A04213D084
:1039B00044F60004C4F20104A0420DD044F20044D5
:1039C000C4F20104A04207D00EE00024C4F20104B6
:1039D000A04201D0B04207D14C6922F440528D6917
:1039E00042EA041242EA05124FF68C744260CFF6A6
:1039F000FE740CEA040646EA0E02C2614968C1631D
:103A0000036270BD00000000B0B5026A22F480526B
:103A1000026243F6FF72D0F820C0C4F2010243688C
:103A2000C46990420A68D1F808E00EDD44F200054E
:103A3000C4F20105A84213D044F60005C4F2010502
:103A4000A8420DD044F2004506E00025C4F201056D
:103A5000A84205D040F20045C4F20105A84204D1B5
:103A60004D6923F4804343EA851348F6FF454360DC
:103A7000CFF6FF652C402CF4005544EA0222C261C7
:103A80004968016445EA0E310162B0BD00000000E2
:103A9000B0B5026A22F48032026243F6FF72D0F8B7
:103AA00020C0C4F201024368446D90420A68D1F814
:103AB00008E00EDD44F20005C4F20105A84213D06F
:103AC00044F60005C4F20105A8420DD044F20045B9
:103AD00006E00025C4F20105A84205D040F20045E9
:103AE000C4F20105A84204D14D6923F4803343EAAE
:103AF00005234FF68F754360CFF6FE752C402CF4EE
:103B00000035224342654968816545EA0E410162FC
:103B1000B0BD000000000000B0B5026A22F48012BF
:103B2000026243F6FF72D0F820C0C4F2010243687B
:103B3000446D90420A68D1F808E00EDD44F20005B9
:103B4000C4F20105A84213D044F60005C4F20105F1
:103B5000A8420DD044F2004506E00025C4F201055C
:103B6000A84205D040F20045C4F20105A84204D1A4
:103B70004D6923F4802343EA852348F6FF754360AB
:103B8000CFF6FF652C402CF4001544EA0222426572
:103B90004968C16545EA0E510162B0BD00000000F0
:103BA00010B5416E01B3016845F6086CC0F6000C13
:103BB00045F6106E8A68C0F6000E8968C2F342624C
:103BC0004C0F1CF802301EF802101A011EF80430C7
:103BD000B2FBF1F11CF80420A0F868101201B2FB4E
:103BE000F3F2A0F86A2010BD0121A0F86A10A0F835
:103BF000681010BD00000000816ACA070CD18A0756
:103C000015D44A071ED40A0727D4CA0630D48A0618
:103C100039D44A0655D541E00268D0F82CC0536823
:103C200023F4003343EA0C0353608A07E9D50268A2
:103C3000D0F830C0536823F4803343EA0C03536058
:103C40004A07E0D50268D0F834C0536823F48023D3
:103C500043EA0C0353600A07D7D50268D0F838C08E
:103C6000536823F4004343EA0C035360CA06CED5DD
:103C70000268D0F83CC0936823F4805343EA0C03F5
:103C800093608A06C5D50268D0F840C0936823F4D3
:103C9000005343EA0C0393604A0612D50268D0F839
:103CA00044C0BCF5801F536823F4801343EA0C031F
:103CB000536006D1536823F4C00C836C43EA0C03B1
:103CC0005360090658BF70470168C06C4A6822F407
:103CD0000022104348607047B0B582B0044600200F
:103CE000C4F89000FCF7C4FE21680546096809077E
:103CF00019D54FF4001100226FF07E40009020464D
:103D00002B4600F039FB70B1206850E8000F2168A5
:103D100020F0800041E80002002AF5D12020C4F8FC
:103D2000880003202FE020680068400723D54FF467
:103D3000800100226FF07E40009020462B4600F06C
:103D40001BFBC0B1206850E8000F216820F4907080
:103D500041E80002002AF5D1206850E8020F2168EE
:103D600020F0010041E80202002AF5D12020C4F829
:103D70008C00032007E02020C4F88800C4F88C00E1
:103D80000020E0662067002184F8841002B0B0BDF6
:103D9000016851E8001F026821F4907142E80013A5
:103DA000002BF5D14FF6FE7CCEF6FF7C026852E880
:103DB000022F036802EA0C0243E802210029F5D130
:103DC000C16E01290AD100BF016851E8001F0268D5
:103DD00021F0100142E80013002BF5D12021C0F89A
:103DE0008C100021C1664167704700000000000090
:103DF000F0B583B004460368806846F6F316D4E94C
:103E00000312104362691043E2691F68CCF6FF7623
:103E1000104307EA06021043186058684FF2FF4744
:103E200020F4405240F6004011435960C5F60000AE
:103E3000A1698342C1F2FF171CBF226A11439A682D
:103E400047F2FF763A40C4F2000611439960DA6AFD
:103E500044F2544122F00F02676AC5F602013A4368
:103E6000B342DA624FF0800225DD40F6FF77C4F2FC
:103E70000107BB423FDD834200F0718041F2004701
:103E8000C4F20107BB4200F0758041F20007C4F2A2
:103E90000107BB4240F0A5800A68C2F3C203052BAC
:103EA00000F296800122DFE813F09C00910095005B
:103EB000970099009B0044F6FF37C4F20007BB420D
:103EC00033DC44F20047C4F20007BB4200F05D80DF
:103ED00044F60007C4F20007BB4240F082800A6843
:103EE00002F00703052B00F273800022DFE803F0E5
:103EF000796E7274767847F60007C4F20007BB4209
:103F000000F04E8047F60047C4F20007BB4240F085
:103F100068800A6802F00703052B00F2598000222E
:103F2000DFE803F05F54585A5C5E44F60047C4F281
:103F30000007BB4200F03F8045F20007C4F20007D3
:103F4000BB4240F04E800A6802F00703052B00F2E6
:103F50003F800022DFE803F0453A3E4042444A6891
:103F600002F00703052B33D80222DFE803F03A2FD3
:103F7000333537390A68C2F3C203052B28D801222A
:103F8000DFE803F02F24282A2C2E0A6802F007030A
:103F9000052B1DD80022DFE803F024191D1F212363
:103FA0000A6802F00703052B12D80022DFE803F0AD
:103FB000190E121416180A6802F00703052B07D809
:103FC0000022DFE803F00E0307090B0D042208E0CE
:103FD000802206E0082204E0102202E0202200E015
:103FE00040222368834240F60010C0F23D0000F0FA
:103FF0005380E369B3F5004F40F07880402A00F227
:104000001A810025DFE812F04100120117011701A3
:104010001B011701170117011F01170117011701D4
:1040200017011701170117012601170117011701C1
:1040300017011701170117011701170117011701C0
:104040001701170117011701340117011701170193
:1040500017011701170117011701170117011701A0
:104060001701170117011701170117011701170190
:104070001701170117011701170117011701170180
:10408000170117011701170131010025FDF79CFDEC
:10409000002840F0EF8049E1931E1E2B00F274804F
:1040A0000027DFE813F01F0077007A007700770021
:1040B00077007E0077007700770077007700770041
:1040C0007700B800770077007700770077007700F7
:1040D0007700770077007700770077007700770028
:1040E000770083000027FCF7D7FD5FE0402A00F24D
:1040F000E6800025DFE812F04100DE00E300E30087
:10410000E700E300E300E300EB00E300E300E3008B
:10411000E300E300E300E300F200E300E300E30078
:10412000E300E300E300E300E300E300E300E30077
:10413000E300E300E300E3000001E300E300E30049
:10414000E300E300E300E300E300E300E300E30057
:10415000E300E300E300E300E300E300E300E30047
:10416000E300E300E300E300E300E300E300E30037
:10417000E300E300E300E300FD000025FDF724FD7C
:10418000002840F0BA80D1E0402A03D14FF400402B
:1041900000270BE00020012708E06846FCF790FDAF
:1041A00002E06846FCF720FE0027019878B3616AB8
:1041B00045F6F052C0F600026668012532F811207B
:1041C00006EB4603B0FBF2F19942C0F0AF80330337
:1041D000994200F2AB8000210023FCF779F8090234
:1041E000002341EA10613246000210EB560041F113
:1041F0000001FCF76DF84FF6FF42A0F54071C0F2E8
:104200000F02914205D821683D46C8608EE03D46C8
:104210008CE001258AE051F8540C800649F2000038
:10422000C0F2D03000F18B800027BFE70025FDF7FA
:10423000DFFCF8B97AE000200125D8B976E06846BD
:10424000FCF73EFD02E06846FCF7CEFD0025019834
:1042500080B96BE051F8540C800649F20000C0F2BE
:10426000D03073D4002528B960E04FF40040002519
:1042700000285BD0616A45F6F052C0F6000232F8C1
:1042800011106268B0FBF1F0510801EB4000B0FB87
:10429000F2F0A0F110014FF6EF72914208D84FF6FC
:1042A000F07122680140C0F342000844D0603DE054
:1042B00001253BE00025FDF79BFCF0B936E000202E
:1042C0000125D0B932E06846FCF7FAFC02E0684606
:1042D000FCF78AFD0025019878B927E051F8540CC5
:1042E000800649F20000C0F2D03039D4002520B950
:1042F0001CE04FF400400025C0B1616A45F6F05261
:10430000C0F6000232F811106268B0FBF1F000EB69
:104310005200B0FBF2F0A0F110014FF6EF729142A3
:1043200003D880B22168C86000E001254FF0011079
:10433000A0660020C4E91D00284603B0F0BD51F876
:10434000541C0027C1F3C101C8402FE751F8541C89
:104350000025C1F3C101C84000287FF48BAFE5E719
:1043600051F8541C0025C1F3C101C8400028C4D134
:10437000DCE70000000000002DE9F04381B00446B6
:104380000068C0690840401AB0FA80F040099042C5
:1043900039D1DDF820800D461646994608F101070F
:1043A00009E000BF2068C0692840401BB0FA80F0D7
:1043B0004009B0422BD1002FF4D0FCF759FBB8F1E3
:1043C000000F01464FF0030022D0A1EB0901414547
:1043D0001ED8206801684907E4D5C16909071AD4C5
:1043E000C1690905DED54FF4006101622046FFF77F
:1043F000CFFC2020C4F89000002084F88400032023
:1044000001B0BDE8F083002001B0BDE8F0830020DA
:1044100001B0BDE8F083082505622046FFF7B8FC2F
:10442000C4F89050002084F88400012001B0BDE859
:10443000F083000000000000FEE700000000000024
:10444000002848BF704700F01F01012202FA01F165
:104450004EF200124009CEF2000242F820107047DE
:104460004EF60C50CEF200000068C0F302207047F8
:104470004EF6145300F00F02CEF20003B0F1FF3FEE
:104480001A4400F16043C8BF03F56442080110708C
:1044900070470000000000004EF60C514FF6FF037D
:1044A000CEF200010A681A4060F30A2242F08060EE
:1044B00040F0FD70086070472DE9F0472DED0A8B44
:1044C0008A46054688425246C8BF08464FF4C8612E
:1044D00048F68903C8BF2A464843C8F688035143B3
:1044E000B6EE009A53FB000040F27C0953FB011129
:1044F000C2F20049421120EE098A02EBD0704A1143
:1045000002EE100A02EBD1714218B8EEC22A02EB99
:10451000D272C9E90001C0EB620201EE102AB8EEC6
:10452000C11A31EE010A28EE081A80EE010A28EEBF
:10453000021AB0EEC0AAB7EEC1BAB0EE081BB7EED1
:10454000C80AB7EECACA00F00FFA20EE0C0BB1EEA3
:10455000081BD9E90001084480EE010B01EE100AA6
:1045600030EE0B0BB8EEC11ABDEEC00BB8EEC02A90
:1045700010EE104A18EE012ABDEEC21A11EE100A12
:10458000204400F0010101EB0008042000EB880743
:10459000384601F05DFB002872D0B1EE080A0646ED
:1045A0009FED511B80EE0A0AB7EEC00A00F0DCF95D
:1045B000B7EEC00B2AEE091A9FED4D5BB7EEC02A8D
:1045C000B7EEC11A22EE022B22EE012BB7EEC23B50
:1045D00099ED002AB8EEC22A32EE033AB7EEC34A8A
:1045E000B4EE454B9FED444AF1EE10FA33FE043A27
:1045F000B8F1020F86ED003A4CDB99ED013AB7EEC7
:10460000004AB8EEC33AA8F10100A11E321D0023F2
:104610001AE000BF38EE405AB0EEC55AB7EEC55AA0
:1046200025EE055B25EE015BB7EEC55B33EE455A23
:1046300082ED005AB4EE435AF1EE10FA29DAB8428C
:1046400002F104023B4625D012ED015A5F1C84EEB4
:10465000055AA74230EE050ADCDAB7EEC05A994295
:1046600025EE055B25EE015BB7EEC55B32EE055A24
:1046700082ED005AE3D130EE480AB0EEC00ADEE720
:104680001EA0394600F046F90020BDEC0A8BBDE8BB
:10469000F087B846554516DDB8F1020F09F10C0058
:1046A00009F1140113DB08EBD872331F06EB8807FE
:1046B0005210043F53F8045F013A3C681C6047F80D
:1046C0000459F7D103E009F1080009F11001C0F81D
:1046D000008030460E6001F093FA0120BDEC0A8B99
:1046E000BDE8F08700BF00BF000000605555D53F12
:1046F0009F849E849E842E40F4247441C4DAB4E6E0
:10470000B2BBD7E321C7EBD0DEB8C4B2CECAFD3A04
:104710002025640A0000000080B582B00A280190BC
:104720000CD10D208DF8030040F2F8000DF10301CB
:10473000C2F200400122FF23FEF7AEFB40F2F80078
:1047400001A9C2F200400122FF23FEF7A5FB019858
:1047500002B080BD0000000082B0FEF705FCFCF74F
:104760009FF9FEF799FEFEF71BFCFEF7F1FCFEF742
:1047700083FCFCF791F8B0EE0C8AB7EE089A40F291
:104780008C1540F278089FED20AB40F29017C2F2F2
:104790000045C2F200481EA4C2F200474FF01409BF
:1047A0004FF4C8660F20ADF8060000BF2868C82186
:1047B000FCF75EF868B198ED000A2046B8EE400BB1
:1047C00020EE0A0B53EC102B00F0A4F8FCF760F875
:1047D000286038684FF47A71FCF74AF80028E5D071
:1047E000ADF80690B0EE480ABDF80600F0EE490AB2
:1047F0004FF4967100FB06F2002000F00DF8FCF774
:1048000047F83860D2E700BFCDCCCCCCCCCCCC3F85
:1048100025660A000000000070B52DED028B1546DC
:10482000B0EE608A0E460446FFF746FE38B3B0EE9F
:10483000480A30462146FFF73FFE00B340F20044ED
:10484000E943C5F602042E4604F58060CA0F8021B4
:10485000002D48BF6E42FCF7FBF840F27C05C2F227
:104860000045D5E9021001448E420BDA286901F0B7
:10487000C7F9686901F0C4F91FA001F01FFABDEC87
:10488000028B70BD2969301A9FED191B91ED000A4A
:10489000E861B7EEC00A40F21400C2F20040012302
:1048A0002E62002281EE000B037040F2A8036A62C0
:1048B000C2F200430431BCEEC00B10EE100A1880A7
:1048C00040F2AC00C2F20040A96106687262198829
:1048D000490871630021FEF777F84FF40061002268
:1048E0002046FCF7B5F8BDEC028B70BD00BF00BFE1
:1048F0000000000080842E41B2BDCAFDB2BBD7E3E8
:10490000A3ACB2CECAFDC9E8D6C3B4EDCEF3210D37
:10491000000000000FB4054B10B503A9044A02982B
:1049200000F0CAFD10BC5DF814FB00001947000838
:104930002400002403B401984100009850EAC120EB
:1049400018BF04204A0D18BF40F0010040F2FF726A
:10495000B2EB515F08BF40F00200012808BF0520FC
:1049600002B07047000000002DE9F04D2DED040B62
:104970002DED0A8B9AB0DDE92550279CDDF890A03B
:1049800025F0004624F00048BAF1000F14BF0121C1
:10499000002101EB4502F84953184A10934228D3ED
:1049A000002814BF0123002303EB44030B44F34905
:1049B0008B421ED358EA000172D0DFF8C4B35D45C4
:1049C00003D1BAF1000F05D186E0BAF1000F08BF9C
:1049D000002100D0012101EB450111F5001F08D88D
:1049E000002814BF0121002101EB440111F5001F33
:1049F0000BD99DED261B9DED240B1AB0BDEC0A8B47
:104A000004B0BDE8F04D00F057BC0027002DBCBF3E
:104A1000DC49884521DADC498845A8BF02271CDA31
:104A2000C3451ADCD94901EB2851142908DDC1F12D
:104A3000340220FA02F101FA02F282420DD108E0BA
:104A400058B9C1F1140228FA02F101FA02F2424502
:104A500003D101F00101C1F1020756EA0A0120D198
:104A6000002C1EDA002D18BF022F01D0012F0AD012
:104A7000022000F059FC1AB0BDEC0A8B04B0BDE86E
:104A8000F04D00F00DBC022000F04EFC00F008FCE0
:104A9000B1EE400B1AB0BDEC0A8B04B0BDE8F08D4E
:104AA0001AE09FEDBB9B9FEDBC8BB7EE00AB0028DF
:104AB0007DD1B44880451CD105F1804010F58010AF
:104AC00008BFBAF1000F07D0B34508DC002CA8BF1F
:104AD0009DED260BDEDA07E0B7EE000BDAE7002CDF
:104AE000B8BF9DED260BD3DBAD48784490ED000BAD
:104AF000D0E7D84548D1002C43DA2EB186423AD1CE
:104B0000BAF1000F3DD126E0BAF1000F13D0022018
:104B100000F00AFC00F0E0FB8DED020B9DED240B94
:104B20008DED000B10EE900A039961F31E000390C7
:104B30009DED020BAEE78DED029B9DED240B19EE72
:104B4000901A10EE900A8DED000B61F31E00039099
:104B50009DED020B9EE78DED028B9DED240B18EE73
:104B6000901A10EE900A8DED000B61F31E00039079
:104B70009DED020B8EE704DA9DED241B8AEE010BFE
:104B800088E79DED240B85E786421ADAB4F1804F61
:104B900004BF9DED240B20EE000B3FF47BAFA4F18E
:104BA0000050B0F1FF500CD1002D0ADB00E008E00E
:104BB0009DED240B51EC100B01F092F841EC100B21
:104BC00068E79DED240B51EC100B01F00CF8BAF1E5
:104BD000000FCDE90E0140D19FED730B46B3A6F156
:104BE000E040B0F17F600ED05E4536D1002D00DA96
:104BF00097B3022F0CBF01204FF0FF3000EE100AD8
:104C0000B8EEC00B46E7002D01DD002C0DDA002DBB
:104C100001DD002C1DDB002D14DA002C12DB012F2E
:104C200008BF9FED630B3FF435AFB0EE490B31E7A2
:104C3000022F18BF002D0CD0012F0AD1002DFFF636
:104C400029AF06E0002DB8BF002C06DA012F3FF493
:104C500021AFB0EE480B1DE719E0012000EBE57035
:104C600050EA070113D0B0EE4A8B791E084308BF03
:104C7000BFEE008B5048002580457ADD4F495048F3
:104C8000884514DDB0420DDB002C19DB2CE001203F
:104C900000F04AFB1AB0BDEC0A8B04B0BDE8F04D41
:104CA00000F00EBBB34502DC002C09DC1CE08642A0
:104CB00002DA002C18DA03E05E4528DD002C13DD53
:104CC000022000F031FB00F007FB8DED020B28EE17
:104CD000090B8DED000B10EE900A039961F31E0095
:104CE00003909DED020BD5E6022000F01DFB00F0C5
:104CF000FFFA10EE901A18EE900A8DED020B8DED72
:104D0000008B61F31E0003909DED020BC2E69DED4A
:104D10000E0B30EE4A0B8DED040B20EE002B9DEDBB
:104D2000041B9FED290BB5EE003B01EE430B9DEDFF
:104D3000043BB6EE001B03EE401B22EE012B9DED63
:104D4000040B9FED231B20EE011B9FED233B20EE68
:104D5000030B9FED233B02EE430B31EE002B8DED59
:104D6000022B02959DED022B32EE411B30EE411BD2
:104D700011E139E000000000FFFF1F00FFFF0F00FE
:104D80000000F03F0000F07F0000404301FCFFFF07
:104D9000000000000000F07F0000000000000000A4
:104DA000EA12000000000000000000000000008087
:104DB000000000000000F0FF0000E0410000F043B0
:104DC000FFFFEF3F00000000555555555555D53FA5
:104DD000000000604715F73F44DF5DF80BAE543E1E
:104DE000FE822B654715F73F0020B6F5801F0BDAD2
:104DF0009DED0E0B9FEDEC1B20EE010B10EE906A6B
:104E00008DED0E0B6FF0340000EB2650C6F313014E
:104E1000A0F2FF37E64A41F07F6040F040509142F7
:104E2000D8BF002408DDE34A8A42C8BF012403DC5E
:104E30000024A0F580107F1CDF49794401EBC401F8
:104E40000F9091ED001B9DED0E0B30EE410B9DED93
:104E50000E2B31EE023B8AEE032B20EE029BD7494C
:104E60008DED029B7944029591ED003B4FF000518E
:104E700041EA600000EB84408DED043B00F500202A
:104E800005909DED043B33EE411B9DED0E3B33EE53
:104E9000411B9DED023B9DED044B03EE440B03EEE5
:104EA000410B20EE02BB29EE09CBB0EE4C0BC448FF
:104EB0000621784400F0BAF92CEE0C1B20EE010B11
:104EC0009DED021B31EE091B0BEE010B9DED021B4C
:104ED00021EE011BB0EE082B31EE023B33EE003B1E
:104EE0008DED043B04959DED043B33EE422B32EEF9
:104EF000411B30EE412B9DED020B9DED041B20EE7E
:104F0000011B9DED040B2BEE000B02EE090B31EEA5
:104F1000002B8DED022B02959DED022B32EE411BF5
:104F200030EE411B9DED020B9FEDA72B20EE020BF7
:104F30009DED022B9FEDA63B22EE032B9FEDA63BA2
:104F400001EE032BA648784400EBC40090ED001B53
:104F500032EE011B02EE107AB8EEC22B8DED042B5F
:104F600030EE013B9F48784400EBC40090ED002BED
:104F700033EE023B9DED044B33EE043B8DED023BE3
:104F800002959DED023B33EE443B33EE422B32EE75
:104F9000400B31EE401B9DED260B8DED000B009577
:104FA0009DED260B9DED002B30EE420B9DED022B6F
:104FB00020EE020B9DED262B02EE010B9DED001B5A
:104FC0009DED022B21EE021B8DED021B30EE011B2D
:104FD00011EE900A11EE101A834A8DED001B9042DB
:104FE00024DB821A11430ED19FED811B30EE011B91
:104FF0009DED002B9DED023B32EE432BB4EEC21B28
:10500000F1EE10FA26DD022000F08EF900F064F9CE
:1050100010EE901A18EE900A8DED020B8DED008BBC
:1050200061F31E0003909DED020B33E5724B20F0FF
:1050300000429A420ED3714A024411437FF454AEA7
:105040009DED022B31EE421BB4EEC01BF1EE10FAC7
:10505000BFF64AAE20F00041694A6A4B002402EBD9
:1050600021529942D8BF9DED021B27DD511C4FF400
:10507000801222FA01F10144634BC1F30A527B44CE
:10508000A2F2FF3293ED001B604B8DED041BD34069
:1050900021EA0303C1F3130141F48011C2F11402A8
:1050A00021FA02F405930028B8BF64429DED021B6B
:1050B0009DED042B31EE421B8DED021B30EE011BEA
:1050C0008DED041B04959DED041B9FED512B21EEEE
:1050D000021B9DED042B9DED023B32EE432B30EE87
:1050E000420B9FED4D2B20EE020B9DED042B9FED0F
:1050F0004C3B02EE030B31EE002B8DED002B32EE1C
:10510000411B30EE419B9DED000B20EE000B46480D
:105110008DED040B0521784400F088F89DED001B0F
:105120009DED042B02EE401B8DED021B9DED000B4F
:1051300020EE010BB0EE002B31EE422B80EE021B75
:105140009DED002BB0EE490B02EE090B31EE400B4A
:105150009DED001B30EE410B3AEE400B10EE900A35
:105160008DED000B00EB045001150029C8BF019024
:1051700013DC224651EC100BFBF71FFBFFF7DAFBA9
:10518000042808BF00F0B4F822469DED000B51EC56
:10519000100BFBF712FBCDE900019DED000B28EE93
:1051A000000B77E400000000000000000000404316
:1051B0008E9803007AB60B00120F0000700F0000EB
:1051C000CA0E000000000000000000E009C7EE3F2A
:1051D000F5015B14E02F3EBEFD033ADC09C7EE3F4C
:1051E000260E0000F60D00000000904000000000B8
:1051F000FE822B654715973C00CC904000346F3FF2
:1052000001FCFFFF0000E03F560D0000FFFF0F0014
:1052100000000000432EE63FEF39FAFE422EE63F43
:10522000396CA80C615C20BE960C0000B0EE401BEF
:10523000491E00EBC10292ED000B31F006020DD0C9
:10524000491E00EBC10292ED002BB0EE403BB0EEE8
:10525000420B03EE010B31F00602F1D1022914D00A
:1052600004290AD0062918BF704790ED0A2B00EEDA
:10527000012B90ED080B02EE010B90ED062B00EEDA
:10528000012B90ED040B02EE010B90ED022B00EED2
:10529000012B90ED000B02EE010B704700000000A7
:1052A0009FED031BB7EE002B82EE010B7047000051
:1052B000000000000000000030EE010B704700000D
:1052C0009FED031B81EE010B704700000000000002
:1052D00000000000000000009FED030B20EE000B1B
:1052E0007047000000000000000000000000007097
:1052F0009FED030B20EE000B704700000000000044
:10530000000000000000001002E008C8121F08C1E1
:10531000002AFAD170477047002001E001C1121F36
:10532000002AFBD170470000014908607047000067
:10533000080000242DE9FF5F82B00021DDE9043080
:10534000020DDDF840B0034318D044F61050A2F22D
:10535000FF3242431514119801281FD0A5EB0B0012
:10536000401C5FEA000A4FF000064E4FDFF838910C
:10537000B046504615D5CAF1000413E01198012437
:105380004AA3012801D16FEA0B010298119AC0E9E2
:105390000031C0E9024206B0BDE8F09FCBF1000049
:1053A000DFE704460021404A491842EB0450CDE9AA
:1053B000001012E0E00707D032463B46404649461F
:1053C000FBF71AF98046894632463B461046194695
:1053D000FBF712F906460F466410002CEAD1DDE90E
:1053E0000401DDE90023BAF1000F06DAFBF704F946
:1053F00042464B46FBF700F905E0FBF76FF94246E2
:105400004B46FBF76BF904460E460022284BFBF790
:10541000EBF903D84FF0FF30014607E00022254B9F
:1054200020463146FBF741F8FAF795FF102409E0D2
:10543000002C0ADB0A220023FAF74AFF039B3032D2
:105440001A55641E50EA0102F2D1641C039AC4F199
:1054500011031444119A012A03D0012208430DD1EB
:105460000AE0084304D000204FF0110B119072E7BE
:10547000A3EB0B056D1E0DE05B4504DD4FF0000254
:1054800005F1010504E003DA4FF00002A5F1010582
:10549000002AECD002981199C0E90231C0E9004518
:1054A00079E70000000014400000F03F30000000E9
:1054B0000000F0430000E03F2DE9FF4F95B09B4610
:1054C0008946064600250FE2252877D10024274685
:1054D000F84A0121059400E0044316F8013F203BFF
:1054E00001FA03F01042F7D130782A2811D06FF07A
:1054F0002F033078A0F13002092A16D8059A44F01B
:10550000020402EB820203EB42021044761C059077
:10551000EFE759F8042B0592002A03DA504244F4CD
:105520000054059044F00204761C30782E2816D1E1
:1055300016F8010F44F004042A280DD06FF02F0252
:105540003078A0F13003092B09D807EB870302EB71
:105550004303C718761CF3E759F8047B761C3078B0
:105560006C280FD006DC4C2817D068280DD06A288C
:1055700014D104E0742810D07A280FD10DE044F43F
:1055800000140AE044F4801401E044F440147278FA
:10559000824202D104F58014761C761C307866288D
:1055A0000BD013DC582877D009DC002875D04528AB
:1055B000F6D04628F4D047281AD19DE118E0632898
:1055C00035D0642879D0652812D195E1702873D040
:1055D00008DC6728F1D069286FD06E280DD06F28BD
:1055E00006D1B5E073282CD0752875D0782874D0F2
:1055F0005A46179990476D1C75E1C4F30250022872
:1056000009D003280DD0D9F8001004280DD00D6062
:1056100009F1040967E1D9F80010EA17C1E900525D
:10562000F6E7D9F800100D80F2E70D70F0E719F8F1
:10563000041B8DF8001000208DF80100EA460120BF
:1056400003E059F804AB4FF0FF3061074FF0000161
:1056500002D40DE008F101018846B9420FDA804515
:10566000F8DB1AF808100029F4D108E008F101016C
:1056700088468142FADB1AF808100029F6D105980D
:105680005B46A0EB080721463846179A00F094FACB
:10569000284400EB080507E04DE029E10DE01AF889
:1056A000010B5A4617999047B8F10108F7D25B46AB
:1056B00021463846179A13E142E00A220092C4F3C9
:1056C00002524FF0000A022A08D059F804CB032AEC
:1056D0004FEAEC710AD00DE029E02AE009F1070158
:1056E00021F00702F2E802C1914609E00FFA8CFCB2
:1056F0004FEAEC71042A03D14FFA8CFC4FEAEC71AB
:10570000002907DA0A460021DCF1000C61EB0201F6
:105710002D2202E0220504D52B228DF8042001223F
:1057200003E0E20701D02022F7E7904659E00A2182
:1057300002E010220DE010214FF0000A00910BE072
:1057400010224FF0000A44F004040827009203E0FE
:1057500008224FF0000A0092C4F30252022A05D038
:1057600059F804CB0021032A08D009E009F1070108
:1057700021F00702F2E802C1914605E01FFA8CFC15
:10578000042A01D10CF0FF0C4FF00008220728D5A5
:10579000702806D0009B83F0100353EA0A0305D05B
:1057A0000EE040228DF80420012208E05CEA0102AC
:1057B00006D030228DF804208DF805000222904694
:1057C000009B83F0080353EA0A030AD15CEA010252
:1057D00001D1620705D530228DF804204FF0010871
:1057E0007F1E582804D034A003900EA802900DE02C
:1057F00036A0F9E753466046009AFAF769FD8446F9
:105800000398825C0298401E029002705CEA0100DC
:10581000F0D1029806A9081A00F1200A600702D503
:1058200024F4803400E00127574502DDA7EB0A008D
:1058300000E0002000EB0A01009005984144401A66
:105840000590E00306D45B462146179A059800F0C0
:10585000B3F90544002706E001A85A46C05D179930
:1058600090476D1C7F1C4745F6DBE0030CD55B467B
:105870002146179A059800F09FF9054404E030206E
:105880005A46179990476D1C0099481E00900029B0
:10589000F5DC08E0029802995A460078491C02910A
:1058A000179990476D1CBAF10001AAF1010AF1DCC9
:1058B00065E10000092801003031323334353637D4
:1058C000383961626364656600000000303132334C
:1058D00034353637383941424344454600000000EC
:1058E00000F058F90544761C307800287FF4ECADC0
:1058F00019B02846BDE8F08F620700D4062709F1E9
:10590000070222F0070CFCE80223E14603F00048FE
:105910005FEA080C02D00FF2702C0DE05FEA045C25
:1059200002D50FF2682C07E05FEAC47C02D00FF2C8
:10593000602C01E0AFF2700C4FF0FF3823F0004311
:10594000CDF850C065280CD006DC452809D0462883
:105950001DD047283DD13DE0662818D067287ED16C
:1059600038E00021112F01DB112000E0781CCDE987
:10597000000106A90EA8FFF7DDFCDDE90F010E9A74
:1059800003910021009207F1010A04914DE04FF0CC
:1059900000400097CDE9011006A90EA8FFF7CAFC48
:1059A000DDE90F0203920E9B11990022DDF80CA095
:1059B0000093049211B9791C00EB010AB7EB0A00BD
:1059C00004D4C0F1FF3007F1010A0490AAEB0700EC
:1059D000019044E0012F00DA01270021112F01DDA1
:1059E000112000E03846CDE9000106A90EA8FFF716
:1059F000A1FCDDE90F010E9A0391002104910092B0
:105A0000BA4621070CD40399514500DA8A46BAF107
:105A1000010F05DD009AAAF10101515C302908D07F
:105A2000B84202DA10F1040F06DA0121CDE90110C3
:105A300015E0AAF10101E9E7002805DC0499014419
:105A40000491AAEB000102E0411C514500DD8A46A9
:105A50000499401A401C01904FF00040029020072A
:105A600004D40198504501DBCDF8048000208DF866
:105A70004F0002980DF14F07B0F1004F25D02B20B9
:105A80000E9002984FF0020800280CDA4042029073
:105A90002D200E9007E00A210298FAF774FC3031AD
:105AA000029007F8011DB8F10001A8F10108F2DC2D
:105AB00002980028EFD1791E0E980870307800F017
:105AC000200040F0450007F8020D12A8C01B00F1AD
:105AD00007081498007800B1012000EB0A01019832
