:020000040800F2
:1000000050050024AD020008A92D0008D9290008D8
:10001000492C0008E90300083140000800000000F6
:100020000000000000000000000000005130000847
:10003000F103000800000000E12D000889300008ED
:10004000C7020008C7020008C7020008C70200086C
:10005000C7020008C7020008C7020008C70200085C
:10006000C7020008C7020008C7020008C70200084C
:10007000C7020008C7020008C7020008C70200083C
:10008000C7020008C7020008C7020008C70200082C
:10009000C7020008C7020008C7020008C70200081C
:1000A000C702000869320008C7020008C70200083A
:1000B000C7020008C7020008C7020008C7020008FC
:1000C000C7020008C7020008C7020008C7020008EC
:1000D000C7020008C7020008C7020008C7020008DC
:1000E000C7020008C702000800000000C70200089D
:1000F000C7020008C7020008C7020008C7020008BC
:10010000C7020008C7020008C7020008C7020008AB
:10011000C7020008C7020008C7020008C70200089B
:10012000C7020008C7020008C7020008C70200088B
:10013000C7020008C7020008C7020008C70200087B
:1001400000000000000000000000000000000000AF
:10015000C7020008C7020008C7020008C70200085B
:10016000C7020008C7020008C7020008C70200084B
:10017000C7020008C7020008C7020008C70200083B
:10018000C7020008C7020008C7020008C70200082B
:10019000C7020008C7020008C7020008C70200081B
:1001A000C7020008C7020008C7020008C70200080B
:1001B000C7020008C7020008C7020008C7020008FB
:1001C000C7020008C7020008C7020008C7020008EB
:1001D000C7020008C7020008C7020008C7020008DB
:1001E000C7020008C7020008C7020008C7020008CB
:1001F000C7020008C7020008C7020008C7020008BB
:10020000C7020008C7020008C7020008C7020008AA
:10021000C7020008C7020008C7020008C70200089A
:10022000C7020008C7020008C7020008000000005B
:10023000C7020008C702000800000000C70200084B
:10024000C7020008C7020008C7020008C70200086A
:10025000C7020008C7020008C7020008C70200085A
:10026000C7020008C7020008C7020008C70200084A
:10027000C7020008C7020008C7020008000000000B
:10028000C7020008C7020008C702000800000000FB
:1002900000000000C7020008DFF80CD000F090F862
:1002A00000480047F14000085005002406488047F8
:1002B00006480047FEE7FEE7FEE7FEE7FEE7FEE74B
:1002C000FEE7FEE7FEE7FEE7993100089902000825
:1002D0002DE9F05F0546002092469B46884606467B
:1002E000814640241BE0284641464746224600F00E
:1002F00057F853465A46C01A914110D31146184632
:10030000224600F03EF82D1A67EB01084F462246C0
:100310000120002100F035F817EB00094E41201EA6
:10032000A4F10104DFDC484631462A464346BDE8D5
:10033000F09FD2B201E000F8012B491EFBD27047BA
:100340000022F6E710B513460A4604461946FFF7A1
:10035000F0FF204610BD30B50B460146002020229C
:10036000012409E021FA02F59D4205D303FA02F5C2
:10037000491B04FA02F52844151EA2F10102F1DC22
:1003800030BD202A04DB203A00FA02F10020704739
:100390009140C2F1200320FA03F3194390407047C3
:1003A000202A04DB203A21FA02F00021704721FACA
:1003B00002F3D040C2F12002914008431946704731
:1003C000064C074D06E0E06840F0010394E80700A2
:1003D00098471034AC42F6D3FFF762FF5043000851
:1003E0007043000800000000FEE70000000000006D
:1003F0007047000000000000EFF3108072B600BFED
:10040000FEE7000000000000B0B5044600F0F0F880
:1004100040F208010546C2F20041621C097818BF8B
:100420000C4400BF00F0E4F8401BA042FAD3B0BD7A
:100430002DE9F04F83B00C68002C00F0C68000F16D
:10044000264242F2004702F1FF72C5F602074FEA68
:10045000B22201920A22B84208BF092200250027D1
:100460004FF0010A009209E00C68043734FA0AF2EE
:100470000AF1010A05F1020500F0A780AAF10109BD
:10048000012202FA09FE14EA0E08EDD0D1F804B0F8
:100490000BF00304A4F1010CBCF1010F11D80322ED
:1004A0008668AA40CB6826EA0202AB401A43826003
:1004B000CBF30013426822EA0E0203FA09F31A434F
:1004C0004260032C1ED00323C268AB40022C22EAF8
:1004D00003028B6803FA05F342EA0302C26011D1FA
:1004E0006FF0030207F01C0602EA59020F230244D0
:1004F00003FA06F4D2F820C00B692CEA0404B340D6
:100500002343136203230268AB404E689A4306F00C
:100510000303AB4016F4403F42EA03020260A3D05B
:1005200044F2F44340F2084EC5F60203C5F6000E4D
:100530001A6842F002021A601A6807F00C0302F00F
:1005400002020292029A29F00302019C009E092CE9
:1005500038BF26460F2452F80EC09C402CEA0404F3
:1005600006FA03F34FF0B04C234342F80E30DCF8A8
:1005700000204B6842EA0806DC0258BF22EA08065F
:100580009C02CCF8006040F2040CC5F6000CDCF8CC
:10059000002042EA080658BF22EA08069C03CCF86D
:1005A0000060DCF8802042EA080658BF22EA08060C
:1005B000DB03CCF88060DCF87C2042EA080658BFF8
:1005C00022EA0806CCF87C604EE703B0BDE8F08F65
:1005D000002A08BF09048161704700000000000084
:1005E00041F20000C5F600400068000C70470000B2
:1005F00040F24810C2F2004000687047000000005E
:1006000040F2080040F24811C2F20040C2F200413C
:1006100000780A681044086070470000000000007D
:1006200080B5032000F0D0F801F0B6F844F218418C
:1006300044F20C33C5F60201C0F600030A680968EB
:1006400001F00F01C2F30322595C9A5C01F01F0113
:1006500002F01F02D04040F20402C2F2004220FA2F
:1006600001F1116040F20001C2F2004108600F2068
:1006700000F00AF800281CBF012080BD00F080F8BF
:10068000002080BD00000000B0B540F20801C2F2B9
:100690000041097801B3044640F20000C2F2004074
:1006A0004FF47A72B2FBF1F10068B0FBF1F001F0A7
:1006B0003BFC0F2C4FF001050CD858B94FF0FF3020
:1006C00000222146002500F06FF840F20C00C2F233
:1006D000004004602846B0BD0120B0BD000000000D
:1006E000B0B502784EF69C5CCEF2000C43784CF824
:1006F000043CF2B14368CCF80030037BC17A90F837
:100700000AE0457B447A42EA0372837B42EA016154
:10071000C27B41EACE41007A41EA854141EA434148
:1007200041EA024141EA042141EA4000CCF80400D8
:10073000B0BD0020CCF80000CCF80400B0BD000033
:100740004EF62450CEF20000BFF35F8F016821F413
:100750008031016000210167704700000000000047
:100760004EF6245140F00100CEF2000108670868FF
:1007700040F480300860BFF34F8FBFF36F8F704736
:1007800081B044F2F440C5F60200016841F0020174
:100790000160006800F002000090009801B070470E
:1007A00080B503F049FC80BD70B514460D46064681
:1007B00003F052FC2946224602F0FAFA014630467E
:1007C00003F052FC70BD000080B503F061FC80BDF9
:1007D000B0B544F60C05C5F6020529684907296835
:1007E00005D401F00701081A18BF0120B0BD21F09F
:1007F000070108432860FFF7FBFE044655F8080C84
:10080000800407D4FFF7F4FE001BB0F57A7FF5D91A
:100810000120B0BD0020B0BD80B500F06DFF44F2F6
:10082000204144F20C32C5F60201C0F6000209680C
:10083000C1F30211515C01F01F01C84080BD0000EE
:1008400080B544F2384EC5F6020E5EF8103C5EF8F4
:10085000101CC1F3053C5EF80C1CBCF1000FDEF867
:10086000042014D0C1F30011C2F3CC02514300EEB6
:10087000101A03F003010229B8EE400A0CD071B936
:100880005EF8381C89060DD49FED341A18E000215B
:100890008160C0E9001180BD9FED2F1A10E09FED2F
:1008A0002D1A0DE05EF8381C49F20002C0F2D03279
:1008B000C1F3C10122FA01F101EE101AB8EE411A9A
:1008C000DEF800109FED263A6FF35F2102EE101A5A
:1008D000DEF80010C1F34621B8EE422A00EE032AEA
:1008E00000EE10CAB7EE003AB8EE400A81EE000AF8
:1008F00032EE031A02EE101AB8EE422A20EE010A76
:1009000032EE031A80EE011ABCEEC11A80ED001A15
:10091000DEF80010C1F3064101EE101AB8EE411ADC
:1009200031EE031A80EE011ABCEEC11A80ED011AF5
:10093000DEF80010C1F3066101EE101AB8EE411A9C
:1009400031EE031A80EE010ABCEEC00A10EE101A56
:10095000816080BD0024744A20BCBE4B0024744CCE
:10096000000000390000000080B544F2404EC5F69A
:10097000020E5EF8183C5EF8181CC1F3055C5EF8C8
:10098000141CBCF1000FDEF8042014D0C1F30021C8
:10099000C2F3CC02514300EE101A03F00301022906
:1009A000B8EE400A0CD071B95EF8401C89060DD42F
:1009B0009FED341A18E000218160C0E9001180BD6C
:1009C0009FED2F1A10E09FED2D1A0DE05EF8401CF0
:1009D00049F20002C0F2D032C1F3C10122FA01F1A2
:1009E00001EE101AB8EE411ADEF800109FED263A1B
:1009F0006FF35F2102EE101ADEF80010C1F34621FA
:100A0000B8EE422A00EE032A00EE10CAB7EE003A12
:100A1000B8EE400A81EE000A32EE031A02EE101A16
:100A2000B8EE422A20EE010A32EE031A80EE011AD5
:100A3000BCEEC11A80ED001ADEF80010C1F30641C9
:100A400001EE101AB8EE411A31EE031A80EE011AC7
:100A5000BCEEC11A80ED011ADEF80010C1F3066188
:100A600001EE101AB8EE411A31EE031A80EE010AB7
:100A7000BCEEC00A10EE101A816080BD0024744ADA
:100A800020BCBE4B0024744C000000390000000064
:100A90002DE9F04381B00446C07844F22C490007A8
:100AA000C5F6020901D400252EE0A06E4FEA3050B1
:100AB00003280DD80025DFE800F0020E1714D9F83E
:100AC0000000002540F40030C9F8000055B913E0DB
:100AD00001253DB910E004F10800022102F098F967
:100AE00005464DB1A84611E004F12800022102F0AC
:100AF0001FFA0546002DF5D1D9F82400A16E20F487
:100B000040100843C9F824004FF000086078C0077F
:100B100030D0A06D042807D8DFE800F00A131C03CA
:100B20000300FDB1A84625E00125002DFAD119E00A
:100B3000D9F8000040F40030C9F80000002DF1D1D0
:100B400010E004F10800002102F062F90546002DD2
:100B5000E8D107E004F12800002102F0E9F9054698
:100B6000002DDFD1D9F82400A16D20F00700084343
:100B7000C9F824006078800732D5E06D4FEAB010E4
:100B8000042807D8DFE800F00A131C030300FDB1B6
:100B9000A84625E00125002DFAD119E0D9F800007A
:100BA00040F40030C9F80000002DF1D110E004F14C
:100BB0000800002102F02CF90546002DE8D107E0DD
:100BC00004F12800002102F0B3F90546002DDFD121
:100BD000D9F82400E16D20F4E0700843C9F824003E
:100BE0006078400734D5D4F8A8004FEA7050042844
:100BF00007D8DFE800F00A131C030300FDB1A84684
:100C000026E00125002DFAD119E0D9F8000040F4C2
:100C10000030C9F80000002DF1D110E004F1080007
:100C2000002102F0F5F80546002DE8D107E004F1B7
:100C30002800002102F07CF90546002DDFD1D9F80B
:100C40002C00D4F8A81020F460000843C9F82C0048
:100C50006078000734D5D4F8AC004FEA306004283F
:100C600007D8DFE800F00A131C030300FDB1A84613
:100C700026E00125002DFAD119E0D9F8000040F452
:100C80000030C9F80000002DF1D110E004F1080097
:100C9000002102F0BDF80546002DE8D107E004F17F
:100CA0002800002102F044F90546002DDFD1D9F8D3
:100CB0002C00D4F8AC1020F0E0600843C9F82C00F8
:100CC000E078800728D5E06C4FEA3010032806D87A
:100CD000DFE800F002091202B5B1A8461CE00125C8
:100CE000002DFAD110E0D9F8000040F40030C9F826
:100CF0000000002DF1D107E004F10800022102F00C
:100D000087F80546002DE8D1D9F82000E16C20F0E5
:100D100030000843C9F820006078C00632D5206E44
:100D20004FEA3030042807D8DFE800F00A131C032C
:100D30000300FDB1A84625E00125002DFAD119E0F8
:100D4000D9F8000040F40030C9F80000002DF1D1BE
:100D500010E004F10800002102F05AF80546002DC9
:100D6000E8D107E004F12800002102F0E1F805468F
:100D7000002DDFD1D9F82400216E20F4E040084393
:100D8000C9F824006078800626D5606E4FEA3040AE
:100D9000052807D8DFE800F0030A100303039DB11C
:100DA000A84619E00125002DFAD10DE004F1080054
:100DB000012102F02DF804E004F12800012102F0E5
:100DC000B7F80546002DEBD1D9F82400616E20F468
:100DD000E0200843C9F824006078400628D5D4F8FC
:100DE000B0004FEA3070052807D8DFE800F0030AAA
:100DF000100303039DB1A8461AE00125002DFAD186
:100E00000DE004F10800012102F002F804E004F111
:100E10002800012102F08CF80546002DEBD1D9F80D
:100E20002C00D4F8B01020F0E0400843C9F82C00A2
:100E30006078000620D5206FD8B1B0F1005F12D0E5
:100E4000B0F1805F25D1D9F8000040F40030C9F836
:100E5000000085B9D9F82400216F20F040500843E4
:100E6000C9F8240008E004F10800012101F0D0FFD6
:100E70000546002DEED0A846E078C0072AD0A06C29
:100E800003280AD8DFE800F0020D1602D5B1A84603
:100E900020E00125002DEED1DCE70125002DF6D163
:100EA00010E0D9F8000040F40030C9F80000002D2F
:100EB000EDD107E004F10800022101F0A9FF054689
:100EC000002DE4D1D9F82000A16C20F003000843E4
:100ED000C9F82000A078400642D5D9F8D40340F4E0
:100EE0008070C9F8D403FFF783FB0646D9F8D40312
:100EF000C00505D4FFF77CFB801B6528F6D30325CE
:100F00006DBBD9F84410D4F8B400414011F4407FCF
:100F100011D0D9F84410D9F8442042F48032C9F8ED
:100F20004420D9F8442021F4407122F48032C9F8D9
:100F30004420C9F84410B0F5807F0FD1FFF758FB6B
:100F4000064641F2893700BFD9F84400800705D42E
:100F5000FFF74EFB801BB842F6D3032585B1A846A8
:100F60002078C00742D0E06F4FEAF000052823D870
:100F7000DFE800F003262C0303037DB3A84635E029
:100F80004FF6CF73D4F8B40059F81C2CC0F2FF030D
:100F900000F4407122F47C5203EA1013B1F5407F53
:100FA00008BF1A436FF31F3049F81C2CD9F84410BE
:100FB0000843C9F84400D3E70125002DDED10DE038
:100FC00004F10800012101F023FF04E004F12800EE
:100FD000012101F0ADFF0546002DCFD1D9F8280041
:100FE000E16F20F038000843C9F828002078800716
:100FF00024D5A06F052807D8DFE800F0030A100306
:1010000003039DB1A84619E00125002DFAD10DE09A
:1010100004F10800012101F0FBFE04E004F12800C6
:10102000012101F085FF0546002DEBD1D9F82800FC
:10103000A16F20F007000843C9F828002078400776
:1010400026D5D4F89400052807D8DFE800F0030A75
:10105000100303039DB1A8461AE00125002DFAD123
:101060000DE004F10800012101F0D2FE04E004F1DA
:101070002800012101F05CFF0546002DEBD1D9F8D5
:101080002C00D4F8941020F007000843C9F82C0075
:101090002078800628D5D4F890004FEA30700528D3
:1010A00007D8DFE800F0030A100303039DB1A84648
:1010B0001AE00125002DFAD10DE004F1080000210D
:1010C00001F0A6FE04E004F12800022101F030FF47
:1010D0000546002DEBD1D9F82800D4F8901020F067
:1010E000E0400843C9F828002078400628D5D4F805
:1010F0009C004FEAB020052807D8DFE800F0030A7B
:10110000100303039DB1A8461AE00125002DFAD172
:101110000DE004F10800002101F07AFE04E004F182
:101120002800022101F004FF0546002DEBD1D9F87B
:101130002C00D4F89C1020F4E0500843C9F82C008F
:101140002078000628D5D4F8A0004FEA7030052892
:1011500007D8DFE800F0030A100303039DB1A84697
:101160001AE00125002DFAD10DE004F1080000215C
:1011700001F04EFE04E004F12800022101F0D8FE47
:101180000546002DEBD1D9F82C00D4F8A01020F49E
:1011900060400843C9F82C002078000716D5D4F821
:1011A0008400B0F5805F08D104F12800022101F02D
:1011B000BFFE002818BF4FF00108D9F82800D4F866
:1011C000841020F440500843C9F828002078C00655
:1011D00016D5D4F89800B0F5807F08D104F1280026
:1011E000022101F0A5FE002818BF4FF00108D9F830
:1011F0002C00D4F8981020F440700843C9F82C0053
:10120000A078000722D5D4F8A400B0F5003F1AD08A
:10121000B0F5803F11D0C8BB04F10800002101F0F7
:10122000F7FD05468DB9D9F82C00D4F8A41020F4A8
:1012300040300843C9F82C0008E004F128000221DE
:1012400001F076FE0546002DEDD0A846A0784007B7
:1012500029D5D4F88800B0F5401F21D0B0F5001F83
:1012600018D0B0F5801F40F0BF80D9F8000040F4DE
:101270000030C9F80000ADB9D9F82800D4F88810BA
:1012800020F440100843C9F828000CE00125002D87
:10129000DBD1C8E704F12800012101F049FE054631
:1012A000002DE9D0A846A078C00720D0206DB0F569
:1012B000803F10D0B8B9D9F8000040F40030C9F828
:1012C00000009DB9D9F82000216D20F4803008433A
:1012D000C9F820000BE004F10800022101F098FD9C
:1012E00005461DB9EEE70125002DEBD0A846E078B4
:1012F000800608D504F12800022101F019FE00281B
:1013000018BF4FF00108D4E900108A037BD5D4F848
:1013100080206FF0010303EB3223022B0AD34FEA44
:1013200032233BB1012B64D1D9F8003043F40033B0
:10133000C9F80030002D5FD0CA0267D4CA006FD44C
:101340008A0279D44A0000F18280B1F1FF3F40F374
:101350008F80090200F19780C00707D004F10800D0
:10136000002101F055FD002818BF054620798007AF
:1013700007D504F10800012101F04AFD002818BF3B
:1013800005462079400707D504F10800022101F045
:101390003FFD002818BF05462079000707D504F156
:1013A0002800002101F0C4FD002818BF054620795F
:1013B000C00607D504F12800012101F0B9FD00287D
:1013C00018BF05462079800607D504F128000221C0
:1013D00001F0AEFD002818BF0125002D18BF012522
:1013E000284601B0BDE8F0830125002D7FF45AAFF7
:1013F00042E70125002D9FD1D9F8283023F440730E
:101400001A43C9F828204546CA0297D5D9F824209E
:10141000636F22F000421A43C9F82420CA008FD516
:1014200059F81C2CD4F8B83022F480421A4349F8F9
:101430001C2C8A027FF586AFD9F82420E36E22F0B7
:1014400080721A43C9F824204A007FF57EAF59F80C
:101450001C2C22F4004249F81C2CD4F8BC2059F86A
:101460001C3C1A4349F81C2CB1F1FF3F3FF771AF08
:10147000D9F82020636D22F040521A43C9F8202089
:1014800009027FF569AFD9F82810D4F88C2021F42F
:1014900040011143C9F82810C0077FF45FAF65E72A
:1014A0002DE9F04381B0002800F0F48042F20008FA
:1014B0000446C5F200288946D8F8000000F00F0065
:1014C00088420ED2D8F8000020F00F0040EA090050
:1014D000C8F80000D8F8000000F00F00484540F0C0
:1014E000D980206844F218474107C5F602070AD59B
:1014F00021693A6802F07002914204D93A6822F0F8
:1015000070021143396001070AD561697A6802F0F7
:101510007002914204D97A6822F070021143796016
:10152000C1060AD5A1697A6802F4E062914204D941
:101530007A6822F4E0621143796081060AD5E16994
:10154000BA6802F07002914204D9BA6822F07002BF
:101550001143B96081070AD5E1683A6802F00F02C9
:10156000914204D93A6822F00F0211433960C00752
:101570007ED1206881070AD5E1683A6802F00F023F
:10158000914204D23A6822F00F0211433960D8F830
:10159000001001F00F0149450DD9D8F8001021F0D5
:1015A0000F0141EA0901C8F80010D8F8001001F055
:1015B0000F0149456ED141070AD521693A6802F009
:1015C0007002914204D23A6822F0700211433960ED
:1015D00001070AD561697A6802F07002914204D26B
:1015E0007A6822F0700211437960C1060AD5A169B8
:1015F0007A6802F4E062914204D27A6822F4E062EE
:101600001143796080060AD5E069B96801F070017C
:10161000884204D2B96821F070010843B86000F034
:10162000BBF8396844F20C32C0F600023B68C1F3E3
:10163000032103F00F03515CD25C01F01F01C8408D
:1016400002F01F0140F2040220FA01F1C2F200424E
:10165000116040F2000140F20C02C2F20041C2F2FD
:10166000004208601068FFF70FF801B0BDE8F08392
:10167000386820F47061D4E90102012841EA0201CE
:1016800039600BD003282BD002282ED157F8181C14
:10169000890307D4012001B0BDE8F08357F8181C76
:1016A000C905F7D557F8081C21F00701084347F88A
:1016B000080CFEF79DFF064641F2883557F8080CE6
:1016C000616800F03800B0EBC10F3FF452AFFEF795
:1016D0008FFF801BA842F1D9032001B0BDE8F08341
:1016E00057F8181C8901D5D5DCE757F8181C4907AD
:1016F000D0D5D7E70000000080B500F04DF844F2E7
:10170000184144F20C33C5F60201C0F600030A6822
:10171000096801F00F01C2F30322595C9A5C02F0E0
:101720001F0220FA02F201F01F0040F2040122FA27
:1017300000F0C2F20041086040F20001C2F2004134
:101740000A6080BD0000000080B5FFF7D5FF44F2BD
:101750001C4144F20C32C5F60201C0F600020968D1
:10176000C1F30211515C01F01F01C84080BD0000AF
:1017700080B5FFF7C1FF44F21C4144F20C32C5F6BC
:101780000201C0F600020968C1F30221515C01F0B8
:101790001F01C84080BD000044F20041C5F60201AF
:1017A0000869C0F3C20003280FD002282AD070BBFA
:1017B0000868800649F20000C0F2D03058BF704778
:1017C0000968C1F3C101C84070478A6A886AC0F3DA
:1017D000051CC86ABCF1000F4B6B1DD0C3F3CC03D2
:1017E00000F00100584302F00302022A00EE100A42
:1017F000B8EE400A12D0A2B90868800614D49FED52
:10180000261A1EE047F64000C0F27D10704740F6F1
:101810000010C0F23D007047002070479FED1D1A78
:101820000FE09FED1B1A0CE0086849F20002C0F2BD
:10183000D032C0F3C10022FA00F001EE100AB8EE77
:10184000411A086B9FED153A6FF35F2002EE100A04
:10185000086BC0F34620B8EE422A013000EE032A9E
:1018600000EE10CAB7EE003AB8EE400A81EE000A68
:1018700032EE031A20EE010A01EE100AB8EE411A08
:1018800080EE010ABCEEC00A10EE100A704700BFDD
:101890000024744A20BCBE4B0024744C0000003964
:1018A0002DE9F04381B0F8B18046007844F2004958
:1018B000C007C5F602095AD0D9F8100000F0380167
:1018C000D9F82800102905D018290FD100F00300FD
:1018D00002280BD1D9F80000800344D5D8F80400C1
:1018E000002840D101272FE0012718E3D8F8044051
:1018F0002CB1B4F5A02F0DD0B4F5803F10D0D9F89D
:10190000000020F48030C9F80000D9F8000020F46D
:10191000802009E0D9F8000040F48020C9F80000D8
:10192000D9F8000040F48030C9F80000FEF760FEEE
:101930000546A4B1D9F80000800314D4FEF758FE80
:10194000401B6428F6D903270020002800F0E78216
:101950000DE000BFFEF74CFE401B6428F3D8D9F819
:1019600000008003F6D40120002800F0D88298F807
:101970000000800740F18480D9F8100010F0380191
:10198000D9F828001CD0182908BF5FEA807017D04A
:10199000D8F80C00D9F80010002847D021F0190120
:1019A0000843C9F80000FEF723FE0546D9F80000F9
:1019B00040072AD4FEF71CFE401B0228F6D91EE081
:1019C000D9F80000400704D5D8F80C00002800F032
:1019D0009681D9F80000D8F80C1020F019000843BF
:1019E000C9F80000FEF704FE054600BFD9F8000064
:1019F00040070AD4FEF7FCFD401B0228F6D9032756
:101A00000024002C00F08B823AE0FEF7E9FD41F261
:101A10000301884223D8D8F81000D9F804104028D0
:101A200021F47C3124D141F4003023E021F0010085
:101A3000C9F80000FEF7DCFD05460126D9F80000D4
:101A400010F0040086EA900417D0FEF7D1FD401B89
:101A50000328F3D30327002C00F0618210E0D9F8AB
:101A60000400D8F8101020F0FE4040EA016001E0C8
:101A700041EA0030C9F804000124002C00F04F8234
:101A800098F80000C00674D5D9F8100000F03801AD
:101A9000D9F82800082905D018291CD100F0030026
:101AA000012818D1D9F80000C00503D5D8F81C00CA
:101AB000802859D1FEF794FD41F20301884222D8D3
:101AC000D8F82000D9F80410202821F0F84142D19C
:101AD00041F0804041E0D8F81C000028D9F800000F
:101AE00020D040F08000C9F80000FEF781FD0546D7
:101AF000D9F80000C005DDD4FEF77AFD401B0228AE
:101B0000F6D9032731E0D9F80C00D8F8201020F0DE
:101B10007C50012440EA0160C9F80C00002C00F060
:101B2000FE8126E020F08000C9F80000FEF760FD8D
:101B300005460126D9F8000010F4807086EA1024CA
:101B40000ED0FEF755FD401B0328F3D30327002CCE
:101B500000F0E5810DE041EA8060C9F8040001244D
:101B6000002C00F0DC8104E001270024002C00F0B0
:101B7000D68198F8000000071CD498F80000800671
:101B800031D498F80000400745D4D8F82440002C00
:101B900000F09180D9F8100000F03800182840F0CB
:101BA0008C80012CD9F82810D9F8300040F0A98099
:101BB0000127B4E1D8F814000028D9F874003ED009
:101BC00040F00100C9F87400FEF712FD054600BFA1
:101BD000D9F874008007D0D4FEF70AFD401B022814
:101BE000F6D903279BE1D8F818000028D9F800009F
:101BF0004DD040F48050C9F80000FEF7F9FC0546CE
:101C0000D9F800008004BCD4FEF7F2FC401B022887
:101C1000F6D9032783E1D9F8000440F48070C9F8AD
:101C20000004FEF7E5FC0546D9F80004C0051AD407
:101C3000FEF7DEFC401B6428F6D903276FE120F095
:101C40000100C9F87400FEF7D3FC0546032700BF66
:101C5000D9F8740080077FF590AFFEF7C9FC401BF0
:101C60000228F5D95BE1D8F808402CB1052C00F02A
:101C70008280012C00F08580D9F8700020F00100EE
:101C8000C9F87000D9F8700020F004007DE020F45D
:101C90008050C9F80000FEF7ABFC0546032700BFE3
:101CA000D9F8000080047FF56CAFFEF7A1FC401B63
:101CB0000228F5D933E1002731E1D9F8000020F0FE
:101CC0008070C9F80000FEF793FC022C05464FF027
:101CD000030709D1D9F80000800178D5FEF788FC08
:101CE000401B0228F6D91AE1D9F80000800140F122
:101CF000E780FEF77DFC401B0228F5D90FE10127A4
:101D00007EE601F00302D8F828309A4240F0DA80EB
:101D1000C1F30511D8F82C20914240F0D78001463C
:101D2000D8F830206FF35F21013A914240F0D08023
:101D3000C0F34622D8F8341001398A4240F0CA80F4
:101D4000C0F30642D8F8381001398A4240F0C48006
:101D5000C0F30660D8F83C100139884240F0BE80DC
:101D6000D9F83400D8F84810C0F3CC00814240F0D4
:101D7000B7800027D3E0D9F8700040F00400C9F81C
:101D80007000D9F8700040F00100C9F87000FEF74B
:101D90002FFC002C054641F288344FF0030711D088
:101DA000D9F8700080073FF5F0AEFEF721FC401B2C
:101DB000A042F5D9B3E000BFFEF71AFC401BA042D9
:101DC00000F2AD80D9F870008007F5D4DDE608F1A7
:101DD0002807D9F8280040F2F33188438ECF084312
:101DE000591E40EA02104FF47E426FF35F21C9F89A
:101DF000280002EB47204FF4FE0280B2D8F83C30B6
:101E00000844D8F8381002EB01414FF0FE4201F4CB
:101E1000FE0102EB0362084402F0FE410844C9F8E7
:101E20003000D9F82C004FF6F87120F00100C9F805
:101E30002C00D9F83400D8F84820884340EAC20082
:101E4000C9F83400D9F82C00D8F8401020F00C0064
:101E50000843C9F82C00D9F82C00D8F8441020F019
:101E600002000843C9F82C00D9F82C0040F4803057
:101E7000C9F82C00D9F82C0040F40030C9F82C0027
:101E8000D9F82C0040F48020C9F82C00D9F82C0097
:101E900040F00100C9F82C00D9F8000040F0807033
:101EA000C9F80000FEF7A4FB04460327D9F8000098
:101EB000800109D4FEF79CFB001B0228F6D92EE016
:101EC00000272CE001272AE0002728E0012726E050
:101ED000012724E0012722E0012720E001271EE05E
:101EE000D9F82C0020F00100C9F82C00FEF780FB87
:101EF0000546FEF77DFBA842FBD0D9F834004FF62B
:101F0000F871D8F848208843002740EAC200C9F891
:101F10003400D9F82C0040F00100C9F82C00F8B2C8
:101F200001B0BDE8F083000080B501F095F880BDF8
:101F30007047000000000000704700000000000033
:101F4000704700000000000010B590F83C20012A06
:101F500001D1022010BDCB6848F2FF7ED1E901C259
:101F600023F47C5322F47052CFF6F07E1A430CEA2D
:101F70000E03D1F800C042EA030E2CF477230A695D
:101F800043EA0E0322F47622D0F800E01A434B69AC
:101F90001A434EF4806322F4742C40F20042C4F2DF
:101FA00001028C6993428A6A22F470224FF0010385
:101FB00042EA0C0280F83C3042EA044310D140F27D
:101FC000000C23F07C724B6ACFF6F04CCC690CEA23
:101FD00003531A4324F00073096A1A4342EA0103C7
:101FE0000021CEF8443080F83C10084610BD0000B7
:101FF000B0B590F83C20012A4FF002025CD00123DA
:1020000080F83C3080F83D2040F2004C0268C4F279
:10201000010C42F4806363455368D2F808E002BFC4
:1020200023F470034C68234341F2FF740D68C4F23B
:10203000000423F07003A24243EA050353600BDC63
:1020400040F2FF73C4F200039A4215DCB2F1804FF4
:1020500027D040F2004317E040F2FF33C4F20103FF
:102060009A4216DC41F60003C4F200039A4218D0EB
:102070000023C4F2010309E040F60003C4F20003A8
:102080009A420ED040F60043C4F200039A4208D0B0
:102090000CE044F20003C4F201039A4201D062450D
:1020A00004D12EF080038968194391600022012138
:1020B00080F83D1080F83C201046B0BD00000000C4
:1020C000704700000000000010B504460068016978
:1020D000890744BFC1685FEA817140D42068016903
:1020E000490744BFC1685FEA417144D4206801696F
:1020F000090744BFC1685FEA017149D420680169DA
:10210000C90644BFC1685FEAC1614DD42068016956
:10211000C9071CBFC1685FEAC17152D1206801695B
:10212000090644BFC1685FEA016151D420680169B2
:10213000C90544BFC1685FEA016150D420680169E4
:10214000490644BFC1685FEA41614FD42068016914
:10215000890644BFC1685FEA81614ED410BD6FF04B
:102160000201016101212177806980074CD020465E
:10217000FFF7A6FF4EE06FF0040101610221217715
:10218000806910F4407F48D02046FFF799FF4AE06D
:102190006FF00801016104212177C069800745D0F3
:1021A0002046FFF78DFF47E06FF010010161082125
:1021B0002177C06910F4407F41D02046FFF780FFAF
:1021C00043E06FF001010161204600F0A1FAA5E7AC
:1021D0006FF0800101612046FFF7AEFEA6E76FF4C5
:1021E000807101612046FFF7A3FEA7E76FF0400171
:1021F0000161204600F0A0FAA8E76FF0200101611C
:102200002046FFF79DFE10BD204600F051F8204605
:1022100000F006F90020207760E7204600F048F83B
:10222000204600F0FDF8002020775FE7204600F010
:102230003FF8204600F0F4F8002020775EE72046C3
:1022400000F036F8204600F0EBF8002020775DE73C
:1022500080B586B000220068C4F2010200219042DD
:102260000591CDE903110291019101D006B080BD25
:1022700044F2E040C5F60200026842F0010202604A
:10228000006800F00100009000984FF48070019009
:102290000220CDE902010120059000200491C5F63D
:1022A000020001A9FEF7C4F806B080BD00000000DE
:1022B0007047000000000000B0B5044690F83C00F4
:1022C000012801D10220B0BD0D464FEAB201052917
:1022D0004FF0010084F83C0048D8DFE801F0030B20
:1022E000131B23332068294601F076F8206850F844
:1022F000181F1EE02068294601F0D2F8206850F827
:10230000181F26E02068294601F022F9206850F8BD
:102310001C1F0EE02068294601F072F9206850F871
:102320001C1F16E02068294601F0AEF9206850F81D
:10233000541F41F008010160016821F004010160AF
:1023400029690FE02068294601F0E2F9206850F879
:10235000541F41F400610160016821F48061016053
:10236000296909020268114301600020002184F8F4
:102370003C10B0BD0000000060B310B5044690F8FA
:102380003D0028B9002084F83C00204600F024F8E5
:10239000022084F83D002068211D00F06DFF01201F
:1023A00084F8480084F83E0084F83F0084F8400038
:1023B00084F8410084F8420084F8430084F8440023
:1023C00084F8450084F8460084F8470084F83D000E
:1023D000002010BD0120704780B582B00021006848
:1023E000C4F20101884201D002B080BD44F2F04045
:1023F0000022C5F60200016841F001010160006899
:10240000002100F00100019001981920FEF7CCF99D
:102410001920FEF7C5F902B080BD000000000000E1
:102420007047000000000000B0B5054659B1081F14
:102430004FEAB000032809D8DFE800F0020B0E11C4
:1024400005F13F000DE005F13E000AE005F1430013
:1024500007E005F1400004E005F1410001E005F16D
:102460004200007801280DD171B1081F4FEAB00079
:1024700003280DD8DFE800F002101418022085F8B8
:102480003F0014E00120B0BD022085F83E000EE0C0
:10249000022085F843000AE0022085F8400006E0AB
:1024A000022085F8410002E0022085F842004FEA50
:1024B000B10003280AD850A22B6852F82020DC680B
:1024C00022430024DA60032804D98CE00124032885
:1024D00000F289802868012200F06EFF4FF6FF713C
:1024E0002868C4F20001884216DC40F2FF71C4F291
:1024F0000001884240DD40F60001C4F2000188423C
:1025000067D040F60041C4F20001884261D041F634
:102510000001C4F200015AE043F6FF71C4F2010168
:1025200088420EDD44F20001C4F20101884213D05A
:1025300044F60001C4F2010188420DD044F200418A
:1025400006E00021C4F20101884205D040F20041BA
:10255000C4F20101884248D141F2FF71426CC4F2D9
:102560000001884242F4004141640DDC40F2FF71F9
:10257000C4F20001884215DCB0F1804F29D040F24E
:102580000041C4F2000122E040F2FF31C4F2010137
:10259000884212DC41F60001C4F20001884218D0E2
:1025A000002112E040F60001C4F20001884210D080
:1025B00040F60041C4F2000109E044F20001C4F217
:1025C0000101884205D040F20041C4F20101884275
:1025D0000BD107228168C0F201021140062918BF01
:1025E000B1F5803F01D12046B0BD016841F0010145
:1025F00001602046B0BD00BF0200000004000000E2
:10260000080000001000000070B54FEAB106054652
:10261000032E0BD83AA02A68002450F82600D3686D
:102620001840D060032E04D9204670BD0124032E2B
:10263000FAD82868002200F0BFFE43F6FF71286830
:10264000C4F2010188420EDD44F20001C4F201012E
:10265000884213D044F60001C4F2010188420DD033
:1026600044F2004106E00021C4F20101884205D095
:1026700040F20041C4F2010188420DD1016A41F2E9
:102680001112114208D1016A40F24442114203D1B1
:10269000416C21F400414164016A41F2111211427E
:1026A00008D1016A40F24442114203D1016821F08D
:1026B00001010160042E09D8DFE806F0030D1217AE
:1026C0001C00012085F83E00204670BD012085F8E1
:1026D0004300204670BD012085F83F00204670BDB4
:1026E000012085F84000204670BD012085F841009A
:1026F000204670BD012085F84200204670BD00BF15
:10270000FDFFFFFFFBFFFFFFF7FFFFFFEFFFFFFFF7
:1027100080B540F24410C2F20040016859B101682E
:102720000139016018BF80BD40F264000021C2F28F
:102730000040FFF769FF80BD704700000000000007
:1027400090F88410012901D1022070472421C0F89B
:10275000881002681368116823F0005321F001010A
:1027600011600021416613602022C0F8882080F8A3
:102770008410084670470000B0B5044690F8840005
:10278000012801D10220B0BD012084F8840024205A
:10279000C4F8880020680568026822F0010202601F
:1027A000826822F0606211438160204600F0F4FFED
:1027B000206805602020C4F88800002084F8840088
:1027C000B0BD000000000000B0B5044690F88400E1
:1027D000012801D10220B0BD012084F8840024200A
:1027E000C4F8880020680568026822F001020260CF
:1027F000826822F0604211438160204600F0CCFFE5
:10280000206805602020C4F88800002084F8840037
:10281000B0BD00000000000010B5B0B10446D0F813
:10282000880028B9002084F88400204600F028F8A9
:102830002420C4F888002068016821F001010160AB
:10284000204601F0D1F8012801D1012010BDA06A75
:1028500010B1204600F0CCFF2068416821F490417F
:102860004160816821F02A018160016841F0010125
:102870000160204601F02CF810BD000000000000AF
:10288000B0B5B8B0044602A8C0210025CDE9365540
:10289000CDE934553395FDF753FD41F20001206831
:1028A000C4F20101884201D038B0B0BD01200290CD
:1028B00002A803952195FEF7EBF808B1FDF79CFD02
:1028C00044F2E040C5F60200016941F010010161E7
:1028D000016901F0100101910199016841F00101C4
:1028E0000160006833A900F00100019001984FF4E5
:1028F000C0603390022034900020CDE935000720DD
:1029000037900020C5F60200FDF792FD38B0B0BD4B
:102910002DE9F04182B00446D0F8880020283FD14C
:102920000E4600294FF001004BD01746002A48D030
:102930001D464FF00008C4F890802120C4F888009C
:10294000FDF756FEA4F85470A4F856700746A16827
:10295000B1F5805F0FD12069002814BF3046B04622
:10296000064608E0206816F8011B8162B4F856009C
:102970000138A4F85600B4F85600A8B1802100220E
:1029800020463B46009501F0F3FAE8B9002EE9D164
:1029900038F8020B216800266FF35F208862E5E7B4
:1029A000022002B0BDE8F0814021002220463B46D3
:1029B000009501F0DDFA20210028C4F8881018BF26
:1029C000032002B0BDE8F0812020C4F88800032075
:1029D00002B0BDE8F0810000FEE70000000000004A
:1029E00010B584B00024CDE90244CDE90044FDF7E0
:1029F000A7FE0120ADF8000048F21F70029040F2DF
:102A00000110039068460194FDF76AFE0420FDF76B
:102A1000A7FE04B010BD00002DE9F04786B044F2D7
:102A2000E0400027C5F602000597CDE90377CDE920
:102A30000177016840F6000441F00101016001687E
:102A4000C5F6020401F0010100910099016841F00E
:102A5000040101600168012201F004010091009964
:102A6000016841F08001016001684FF4005601F0F7
:102A7000800100910099016841F002010160006845
:102A80004FF4005100F002000090009820464FF0F3
:102A90000108FDF79DFD8021002220464FF08009AE
:102AA000FDF796FDA4F580654FF4006101222846EC
:102AB0004FF4006AFDF78CFDCDE9016801AE2046B8
:102AC0003146CDE90387FDF7B3FC20463146CDE919
:102AD0000198CDE90377FDF7ABFC28463146CDE9F7
:102AE00001A8CDE90377FDF7A3FC06B0BDE8F087A8
:102AF00010B596B001A82C210024CDE91444CDE9ED
:102B00001244CDE91044CDE90E44CDE90C44FDF763
:102B100017FC40F264000021C2F20040C4F201013F
:102B20000160EF21C0E9011440F2E731C0E903146C
:102B3000C0E90544FFF720FC08B1FDF75DFC40F259
:102B4000640013A9C2F200401594CDE91344FFF7C5
:102B50004FFA08B1FDF750FC60200C904FF4FA706A
:102B60000D9040F264000CA9C2F200400022002443
:102B70001294CDE90E44CDE91044FFF79DFB08B156
:102B8000FDF73AFC4FF4005001A9CDE906044FF0DF
:102B900000700594CDE9090440F264000894C2F283
:102BA00000400B94CDE90344CDE90144FFF7CCF993
:102BB00008B1FDF721FC40F26400C2F20040FFF7CB
:102BC00047FB16B010BD000080B540F2B00041F2E6
:102BD0000001C2F20040C4F201010C2201604FF476
:102BE000E13141600021C0E902110161C0E9052124
:102BF000C0E90711C0E90911FFF70EFE08B1FDF7A2
:102C0000FBFB40F2B0000021C2F20040FFF7DCFD08
:102C100008B1FDF7F1FB40F2B0000021C2F2004024
:102C2000FFF7AAFD08B1FDF7E7FB40F2B000C2F2E2
:102C30000040FFF785FD002808BF80BDFDF7DCFBE5
:102C400080BD000000000000FEE700000000000062
:102C500010B514A001F048FBFDF7CAFC44F244345F
:102C60000146C0F60004204601F074FA40F6B83080
:102C70004FF4FA7100F028F8FDF7BAFC014620463F
:102C800001F068FA4FF248404FF47A71CFF6FF70C6
:102C900000F01AF8FDF7ACFC0146204601F05AFAA4
:102CA00010BD00BF4D6F746F72506F736974696FA0
:102CB0006E44656D6F00000040F24410C2F20040A7
:102CC0000068704700000000002808BF704770B51A
:102CD000054600EBE03040F200440E4680EAE53065
:102CE000C5F6020480B200F023F82846314600F011
:102CF0007BF800F025F84FF4006100222046FDF734
:102D000067FC40F264000021C2F20040FFF78CFB38
:102D1000FFF7D2FF0028FBD14FF4006101222046CB
:102D2000FDF756FCBDE87040704700000000000051
:102D300040F24411C2F200410860704700000000F8
:102D400010B500EBE031002881EAE0304FF00002DE
:102D500004B240F60000C5F602004FF08001C8BF83
:102D60000122FDF735FC00EE104A40F264009FEDB1
:102D70000C1BC2F20040B8EEC00B016881EE000BE4
:102D8000BCEEC00B10EE102A531ECB62C3604FF096
:102D9000FF3000EB5200486310BD00BF00BF00BF12
:102DA0000000000080842E41FEE7000000000000CB
:102DB00000F007004FF0FF3C80F00703042B28BF12
:102DC0000423033838BF00200CFA03F399430CFAAC
:102DD00000F301FA00F022EA030108437047000003
:102DE00070470000000000004FF47A7201EE101AE4
:102DF000504300EE100AB8EE411AB8EEC00A80EE59
:102E0000010ABDEEC00A10EE100A70470000000073
:102E1000F0B581B044F22C47C5F6020757F8042CF0
:102E200002F00302032A02D1012001B0F0BD0546E1
:102E300057F82C0C0C4620F0806047F82C0CFDF75E
:102E4000D7FB064657F82C0C000105D5FDF7D0FB43
:102E5000801B0228F6D964E057F8040CEE6895E868
:102E60000E0020F47C30012C40EA0130A2F1010177
:102E70006FF35F214FF47E4202EB432247F8040CCC
:102E800092B24FF0FE4302EB01004FF4FE012A69BB
:102E900001EB064101F4FE0103EB0262084402F07B
:102EA000FE410844F8603868696920F0C00040EAD3
:102EB000010038603868A96920F0200040EA01006C
:102EC000386038684FF6F87120F0100038603869C3
:102ED000EA6920EA01004FF4001140EAC2003861BB
:102EE000386808BF4FF4801140F01000002C3860A3
:102EF00008BF4FF4002138680843386057F82C0C9D
:102F000040F0806047F82C0CFDF772FB044600BFD0
:102F100057F82C0C000107D4FDF76AFB001B0328AF
:102F2000F6D3032001B0F0BD002001B0F0BD0000D9
:102F3000F0B581B044F22C47C5F6020757F8042CCF
:102F400002F00302032A02D1012001B0F0BD0546C0
:102F500057F82C0C0C4620F0805047F82C0CFDF74D
:102F600047FB064657F82C0C800005D5FDF740FBC3
:102F7000801B0228F6D964E057F8040CEE6895E847
:102F80000E0020F07C70012C40EA0150A2F10101FA
:102F90006FF35F214FF47E4202EB432247F8040CAB
:102FA00092B24FF0FE4302EB01004FF4FE012A699A
:102FB00001EB064101F4FE0103EB0262084402F05A
:102FC000FE41084478613868696920F4406040EA4D
:102FD000010038603868A96920F4007040EA0100F7
:102FE000386038684FF6F87120F480703860B8693E
:102FF000EA6920EA01004FF0807140EAC200B8613E
:10300000386808BF4FF4000140F48070002C38602D
:1030100008BF4FF4800138680843386057F82C0C1B
:1030200040F0805047F82C0CFDF7E2FA044600BF50
:1030300057F82C0C800007D4FDF7DAFA001B0328A0
:10304000F6D3032001B0F0BD002001B0F0BD0000B8
:103050007047000000000000B0B501380024B4EB58
:10306000106F01D00120B0BD4EF210050F21CEF23D
:10307000000568604FF0FF3000F0F6FFAC600720FD
:1030800028602046B0BD000080B5FDF7B9FA80BDCC
:1030900070B59CB044F6180440F22C4509A84C21A8
:1030A000C5F60204C5F60005FDF74AF90220002620
:1030B000CDE90766CDE90566CDE90366CDE9016690
:1030C000FDF786FB0096286820F00100286028683C
:1030D00000F001000090206840F44040206020682B
:1030E00000F440400090009820688004FCD54FF622
:1030F000DC40CFF6FF70215841F0020121502058EA
:1031000000F002000090009800200090206840F439
:1031100040402060206800F440400090286840F063
:1031200001002860286800F001000090009800BFAE
:1031300020688004FCD5012009904FF480300A906B
:1031400002200521CDE912001491C021CDE915100E
:10315000CDE9170009A8082419940025CDE91A55CE
:10316000FEF79EFBA0B93F20019003204FF4806141
:10317000CDE9020540200494CDE90500CDE9071012
:1031800001A80421FEF78CF9002804BF1CB070BD13
:10319000FDF732F9000000004EF6885042F2000CB4
:1031A000CEF20000C5F2002C016841F4700101600C
:1031B000DCF8000000F00F00062806D8DCF800005C
:1031C000072161F30300CCF8000044F200404EF602
:1031D0007F52C5F60200CEF6F622016841F00101E9
:1031E00001600021016103681A400260DCF80020E0
:1031F000120706D5DCF80020072363F30302CCF89E
:10320000002040F200228161C161C0F2022201620D
:1032100082620022C0F2FF12C26240F28022C0F23B
:103220000112026341638263C16302644164026804
:1032300022F480220260016641F20000C5F60040DF
:103240000068B1EB507F05D148F208100121C5F2AA
:103250000010016044F2000043F2D201C5F20020E8
:10326000016070470000000080B540F26400C2F2C7
:103270000040FEF729FF80BD10B540F6FF32C4F2D2
:103280000002904202680FDCB0F1804F1DD040F286
:103290000043C4F20003984217D040F60003C4F282
:1032A0000003984211D014E040F60043C4F200033A
:1032B00098420AD040F20043C4F20103984204D07D
:1032C0000023C4F20103984203D122F070024B683C
:1032D0001A434FF6FF7343F6FF7CC4F20003C4F2B7
:1032E000010C984210DD60451ADD44F20003C4F27F
:1032F000010398422CD044F60003C4F20103984223
:1033000026D044F2004312E040F2FF73C4F20003FF
:10331000984211DCB0F1804F1AD040F2004313E024
:103320000023C4F20103984212D040F20043C4F2D9
:10333000010398420CD00FE040F60003C4F20003F2
:10334000984205D040F60043C4F20003984203D1EE
:1033500022F44072CB681A4322F080024C69604527
:10336000D1F800E08B6842EA04020260C362C0F850
:1033700028E00EDD44F20002C4F20102904213D0B4
:1033800044F60002C4F2010290420DD044F2004221
:1033900006E00022C4F20102904205D040F2004251
:1033A000C4F20102904201D1096901630121416126
:1033B00010BD00000000000001F01F01012303FA0E
:1033C00001FC036A23EA0C03036202FA01F1026AB8
:1033D000114301627047000070B5026A43F6FF7541
:1033E00022F001020262036A4268D0F818E08C6899
:1033F00023F00203C4F20105234344F20004D1F890
:1034000000C0A842C4F201040ADDA04213D044F671
:103410000006C4F20106B0420DD044F2004606E0B8
:103420000026C4F20106B04205D040F20046C4F2C4
:103430000106B04205D1CE6823F00C0326F0040645
:103440003343A8420ADDA04213D044F60004C4F27C
:103450000104A0420DD044F2004406E00024C4F26E
:103460000104A04205D040F20044C4F20104A0428D
:1034700005D122F44072D1E9054522432A434FF693
:103480008C744260CFF6FE740EEA040646EA0C0223
:10349000826149684163036270BD00000000000062
:1034A00070B5026A40F2004622F010020262036A1E
:1034B0004268D0F818C08C6840F48065C4F20106F8
:1034C00023F02003B54243EA041307D1CD686FF01F
:1034D000400423F0C00304EA05152B4343F6FF75AF
:1034E000D1F800E0C4F20105A84212DD44F2000464
:1034F000C4F20104A04213D044F60004C4F2010453
:10350000A0420DD044F20044C4F20104A04207D00E
:103510000EE00024C4F20104A04201D0B04207D161
:103520004C6922F440628D6942EA840242EA8502D3
:1035300048F6FF444260CFF6FF640CEA040646EA10
:103540000E22826149688163036270BD0000000041
:1035500070B5026A40F2004622F480720262036A89
:103560004268D0F81CC08C6840F48065C4F2010643
:1035700023F40073B54243EA042307D1CD6840F237
:10358000FF442D0223F44063A5432B4343F6FF750C
:10359000D1F800E0C4F20105A84212DD44F20004B3
:1035A000C4F20104A04213D044F60004C4F20104A2
:1035B000A0420DD044F20044C4F20104A04207D05E
:1035C0000EE00024C4F20104A04201D0B04207D1B1
:1035D0004C6922F440528D6942EA041242EA051213
:1035E0004FF68C744260CFF6FE740CEA040646EA8D
:1035F0000E02C2614968C163036270BD0000000031
:10360000B0B5026A22F48052026243F6FF72D0F82B
:1036100020C0C4F201024368C46990420A68D1F82C
:1036200008E00EDD44F20005C4F20105A84213D003
:1036300044F60005C4F20105A8420DD044F200454D
:1036400006E00025C4F20105A84205D040F200457D
:10365000C4F20105A84204D14D6923F4804343EA32
:10366000851348F6FF454360CFF6FF652C402CF4E8
:10367000005544EA0222C2614968016445EA0E31FC
:103680000162B0BD00000000B0B5026A22F48032D1
:10369000026243F6FF72D0F820C0C4F20102436810
:1036A000446D90420A68D1F808E00EDD44F200054E
:1036B000C4F20105A84213D044F60005C4F2010586
:1036C000A8420DD044F2004506E00025C4F20105F1
:1036D000A84205D040F20045C4F20105A84204D139
:1036E0004D6923F4803343EA05234FF68F75436019
:1036F000CFF6FE752C402CF4003522434265496814
:10370000816545EA0E410162B0BD00000000000085
:10371000B0B5026A22F48012026243F6FF72D0F85A
:1037200020C0C4F201024368446D90420A68D1F897
:1037300008E00EDD44F20005C4F20105A84213D0F2
:1037400044F60005C4F20105A8420DD044F200453C
:1037500006E00025C4F20105A84205D040F200456C
:10376000C4F20105A84204D14D6923F4802343EA41
:10377000852348F6FF754360CFF6FF652C402CF497
:10378000001544EA022242654968C16545EA0E51C6
:103790000162B0BD0000000010B5416E01B30168C8
:1037A00044F2343CC0F6000C44F23C3E8A68C0F659
:1037B000000E8968C2F342624C0F1CF802301EF8FA
:1037C00002101A011EF80430B2FBF1F11CF80420BB
:1037D000A0F868101201B2FBF3F2A0F86A2010BD45
:1037E0000121A0F86A10A0F8681010BD00000000C8
:1037F000816ACA070CD18A0715D44A071ED40A0762
:1038000027D4CA0630D48A0639D44A0655D541E0B1
:103810000268D0F82CC0536823F4003343EA0C0349
:1038200053608A07E9D50268D0F830C0536823F4A2
:10383000803343EA0C0353604A07E0D50268D0F8AE
:1038400034C0536823F4802343EA0C0353600A070F
:10385000D7D50268D0F838C0536823F4004343EA50
:103860000C035360CA06CED50268D0F83CC09368FA
:1038700023F4805343EA0C0393608A06C5D502689B
:10388000D0F840C0936823F4005343EA0C039360DC
:103890004A0612D50268D0F844C0BCF5801F5368B0
:1038A00023F4801343EA0C03536006D1536823F4D6
:1038B000C00C836C43EA0C035360090658BF704781
:1038C0000168C06C4A6822F40022104348607047C7
:1038D000B0B582B004460020C4F89000FCF788FE22
:1038E000216805460968090719D54FF4001100221F
:1038F0006FF07E40009020462B4600F039FB70B1FF
:10390000206850E8000F216820F0800041E80002A4
:10391000002AF5D12020C4F8880003202FE0206879
:103920000068400723D54FF4800100226FF07E40ED
:10393000009020462B4600F01BFBC0B1206850E8E9
:10394000000F216820F4907041E80002002AF5D1B0
:10395000206850E8020F216820F0010041E80202CF
:10396000002AF5D12020C4F88C00032007E0202095
:10397000C4F88800C4F88C000020E06620670021AD
:1039800084F8841002B0B0BD016851E8001F0268DD
:1039900021F4907142E80013002BF5D14FF6FE7C24
:1039A000CEF6FF7C026852E8022F036802EA0C029E
:1039B00043E802210029F5D1C16E01290AD100BFD7
:1039C000016851E8001F026821F0100142E800136D
:1039D000002BF5D12021C0F88C100021C166416771
:1039E0007047000000000000F0B583B00446036893
:1039F000806846F6F316D4E9031210436269104357
:103A0000E2691F68CCF6FF76104307EA060210430E
:103A1000186058684FF2FF4720F4405240F60040CB
:103A200011435960C5F60000A1698342C1F2FF1736
:103A30001CBF226A11439A6847F2FF763A40C4F2EB
:103A4000000611439960DA6A44F2544122F00F02F1
:103A5000676AC5F602013A43B342DA624FF0800268
:103A600025DD40F6FF77C4F20107BB423FDD83420C
:103A700000F0718041F20047C4F20107BB4200F040
:103A8000758041F20007C4F20107BB4240F0A580F7
:103A90000A68C2F3C203052B00F296800122DFE818
:103AA00013F09C0091009500970099009B0044F64C
:103AB000FF37C4F20007BB4233DC44F20047C4F2D4
:103AC0000007BB4200F05D8044F60007C4F2000727
:103AD000BB4240F082800A6802F00703052B00F227
:103AE00073800022DFE803F0796E7274767847F60F
:103AF0000007C4F20007BB4200F04E8047F60047C3
:103B0000C4F20007BB4240F068800A6802F0070375
:103B1000052B00F259800022DFE803F05F54585A69
:103B20005C5E44F60047C4F20007BB4200F03F80F1
:103B300045F20007C4F20007BB4240F04E800A681D
:103B400002F00703052B00F23F800022DFE803F0BC
:103B5000453A3E4042444A6802F00703052B33D8F9
:103B60000222DFE803F03A2F333537390A68C2F30F
:103B7000C203052B28D80122DFE803F02F24282ACE
:103B80002C2E0A6802F00703052B1DD80022DFE85F
:103B900003F024191D1F21230A6802F00703052BD7
:103BA00012D80022DFE803F0190E121416180A6862
:103BB00002F00703052B07D80022DFE803F00E030D
:103BC00007090B0D042208E0802206E0082204E029
:103BD000102202E0202200E040222368834240F6C7
:103BE0000010C0F23D0000F05380E369B3F5004FD0
:103BF00040F07880402A00F21A810025DFE812F0B8
:103C000041001201170117011B01170117011701CC
:103C10001F011701170117011701170117011701DC
:103C200026011701170117011701170117011701C5
:103C300017011701170117011701170117011701C4
:103C40003401170117011701170117011701170197
:103C500017011701170117011701170117011701A4
:103C60001701170117011701170117011701170194
:103C70001701170117011701170117011701170184
:103C800031010025FDF760FD002840F0EF8049E19B
:103C9000931E1E2B00F274800027DFE813F01F0034
:103CA00077007A007700770077007E007700770052
:103CB00077007700770077007700B800770077000B
:103CC000770077007700770077007700770077003C
:103CD0007700770077007700770083000027FCF7F4
:103CE0009BFD5FE0402A00F2E6800025DFE812F04D
:103CF0004100DE00E300E300E700E300E300E3004F
:103D0000EB00E300E300E300E300E300E300E30093
:103D1000F200E300E300E300E300E300E300E3007C
:103D2000E300E300E300E300E300E300E300E3007B
:103D30000001E300E300E300E300E300E300E3004D
:103D4000E300E300E300E300E300E300E300E3005B
:103D5000E300E300E300E300E300E300E300E3004B
:103D6000E300E300E300E300E300E300E300E3003B
:103D7000FD000025FDF7E8FC002840F0BA80D1E006
:103D8000402A03D14FF4004000270BE00020012718
:103D900008E06846FCF754FD02E06846FCF7E4FDE5
:103DA0000027019878B3616A44F21C32C0F6000221
:103DB0006668012532F8112006EB4603B0FBF2F1EC
:103DC0009942C0F0AF803303994200F2AB800021EA
:103DD0000023FCF77DFA0902002341EA1061324614
:103DE000000210EB560041F10001FCF771FA4FF6AA
:103DF000FF42A0F54071C0F20F02914205D8216840
:103E00003D46C8608EE03D468CE001258AE051F8D1
:103E1000540C800649F20000C0F2D03000F18B80D3
:103E20000027BFE70025FDF7A3FCF8B97AE00020E2
:103E30000125D8B976E06846FCF702FD02E0684645
:103E4000FCF792FD0025019880B96BE051F8540C05
:103E5000800649F20000C0F2D03073D4002528B9A2
:103E600060E04FF40040002500285BD0616A44F216
:103E70001C32C0F6000232F811106268B0FBF1F09B
:103E8000510801EB4000B0FBF2F0A0F110014FF639
:103E9000EF72914208D84FF6F07122680140C0F3EA
:103EA00042000844D0603DE001253BE00025FDF7DD
:103EB0005FFCF0B936E000200125D0B932E0684659
:103EC000FCF7BEFC02E06846FCF74EFD00250198B9
:103ED00078B927E051F8540C800649F20000C0F28E
:103EE000D03039D4002520B91CE04FF40040002523
:103EF000C0B1616A44F21C32C0F6000232F81110FF
:103F00006268B0FBF1F000EB5200B0FBF2F0A0F100
:103F100010014FF6EF72914203D880B22168C86059
:103F200000E001254FF00110A0660020C4E91D004B
:103F3000284603B0F0BD51F8541C0027C1F3C1015D
:103F4000C8402FE751F8541C0025C1F3C101C840F7
:103F500000287FF48BAFE5E751F8541C0025C1F32E
:103F6000C101C8400028C4D1DCE700000000000007
:103F70002DE9F04381B004460068C0690840401A4A
:103F8000B0FA80F04009904239D1DDF820800D462A
:103F90001646994608F1010709E000BF2068C0698C
:103FA0002840401BB0FA80F04009B0422BD1002FCE
:103FB000F4D0FCF71DFBB8F1000F01464FF00300F1
:103FC00022D0A1EB090141451ED8206801684907AC
:103FD000E4D5C16909071AD4C1690905DED54FF4D2
:103FE000006101622046FFF7CFFC2020C4F890005A
:103FF000002084F88400032001B0BDE8F083002095
:1040000001B0BDE8F083002001B0BDE8F0830825D1
:1040100005622046FFF7B8FCC4F89050002084F8F1
:104020008400012001B0BDE8F08300000000000022
:10403000FEE7000000000000002848BF704700F0C5
:104040001F01012202FA01F14EF200124009CEF2E4
:10405000000242F8201070474EF60C50CEF20000DD
:104060000068C0F3022070474EF6145300F00F02B0
:10407000CEF20003B0F1FF3F1A4400F16043C8BF25
:1040800003F5644208011070704700000000000052
:104090004EF60C514FF6FF03CEF200010A681A40AB
:1040A00060F30A2242F0806040F0FD7008607047C3
:1040B00080B582B00A2801900CD10D208DF8030044
:1040C00040F2B0000DF10301C2F200400122FF23D3
:1040D000FEF71EFC40F2B00001A9C2F2004001222E
:1040E000FF23FEF715FC019802B080BD0000000020
:1040F00040F60004C5F60204FEF772FCFCF790FAE5
:10410000FEF7C6FFFEF788FCFEF75EFDFEF7F0FC4B
:1041100040F26400C2F200400068C16841F0010151
:10412000C160FEF795FD00BF4FF40051002220460C
:10413000FCF74EFA4FF4FA70FCF766F94FF40051B1
:1041400001222046FCF744FA4FF4FA70FCF75CF9C0
:10415000EAE700000FB4054B10B503A9044A029822
:1041600000F018F810BC5DF814FB0000B140000826
:104170001000002402E008C8121F08C1002AFAD16A
:1041800070477047002001E001C1121F002AFBD1D7
:10419000704700002DE9FF4F89B09B46044600257B
:1041A00006E025280BD05A460B999047641C6D1CDD
:1041B00020780028F5D10DB02846BDE8F08F002703
:1041C000B8460122474900E0074314F8013F203B6D
:1041D00002FA03F00842F7D120782E2819D114F8FA
:1041E000010F47F004072A280ED06FF02F02207825
:1041F000A0F1300109290CD808EB880102EB41013C
:1042000000EB0108641CF2E70A98641C50F8048B68
:104210000A9020780028CED0642808D0692806D0DB
:1042200075281ED05A460B9990476D1C58E00A9984
:104230004FF00A0901C90A91002802DA40422D21F3
:1042400002E0390504D52B218DF82010012103E06F
:10425000F90704D02021F7E78A4608AE0DE00021D7
:10426000FAE70A994FF00A0901C90A91F7E74946A6
:10427000FCF771F8303106F8011D0028F7D1ADEBDD
:10428000060000F12009780701D44FF00108C84565
:1042900002DDA8EB090000E000208046002706E0D0
:1042A00008A85A46C05D0B9990476D1C7F1C574566
:1042B000F6DB04E030205A460B9990476D1CB8F1AC
:1042C0000001A8F10108F5DC05E016F8010B5A46DB
:1042D0000B9990476D1CB9F10001A9F10109F4DCBB
:1042E000641C65E70928010010B5044601E0FFF7EA
:1042F000DFFE14F8010B04490028F8D1BDE8104096
:104300000A20FFF7D5BE00001000002400000000C6
:104310000102030401020304060708090100020068
:104320000400060008000A000C00100020004000F5
:1043300080000001010101030701000008040204DC
:104340000801010174203D202564206D730A0000DE
:1043500070430008000000241000000074410008B1
:10436000804300081000002440050000844100083C
:104370000090D0030090D003010000001000000066
:040000050800029954
:00000001FF
