:020000040800F2
:10000000E0050024AD020008E9530008C94F0008CC
:10001000E1530008B90A0008596000080000000018
:100020000000000000000000000000006956000809
:10003000D11000080000000021540008A15600085B
:10004000C7020008C7020008C7020008C70200086C
:10005000C7020008C7020008C7020008C70200085C
:10006000C7020008C7020008C7020008C70200084C
:10007000C7020008C7020008C7020008C70200083C
:10008000C7020008C7020008C7020008C70200082C
:10009000C7020008C7020008C7020008C70200081C
:1000A000C7020008C7020008C7020008C70200080C
:1000B000C7020008C7020008C7020008C7020008FC
:1000C000C7020008C7020008C7020008C7020008EC
:1000D000C7020008C7020008C7020008C7020008DC
:1000E000C7020008C702000800000000C70200089D
:1000F000C7020008C7020008C7020008C7020008BC
:10010000C7020008C7020008C7020008C7020008AB
:10011000C7020008C7020008C7020008C70200089B
:10012000C7020008C7020008C7020008C70200088B
:10013000C7020008C7020008C7020008C70200087B
:1001400000000000000000000000000000000000AF
:10015000C7020008C7020008C7020008C70200085B
:10016000C7020008C7020008C7020008C70200084B
:10017000C7020008C7020008C7020008C70200083B
:10018000C7020008C7020008C7020008C70200082B
:10019000C7020008C7020008C7020008C70200081B
:1001A000C7020008C7020008C7020008C70200080B
:1001B000C7020008C7020008C7020008C7020008FB
:1001C000C7020008C7020008C7020008C7020008EB
:1001D000C7020008C7020008C7020008C7020008DB
:1001E000C7020008C7020008C7020008C7020008CB
:1001F000C7020008C7020008C7020008C7020008BB
:10020000C7020008C7020008C7020008C7020008AA
:10021000C7020008C7020008C7020008C70200089A
:10022000C7020008C7020008C7020008000000005B
:10023000C7020008C702000800000000C70200084B
:10024000C10A0008A90A0008C7020008C70200087E
:10025000C7020008C7020008C7020008C70200085A
:10026000C7020008C7020008C7020008C70200084A
:10027000C7020008C7020008C7020008000000000B
:10028000C7020008C7020008C702000800000000FB
:1002900000000000C7020008DFF80CD000F0A6FA4A
:1002A0000048004709620008E0050024064880472E
:1002B00006480047FEE7FEE7FEE7FEE7FEE7FEE74B
:1002C000FEE7FEE7FEE7FEE769570008990200082F
:1002D0002DE9F05F0546002092469B46884606467B
:1002E000814640241BE0284641464746224600F00E
:1002F0006FF853465A46C01A914110D3114618461A
:10030000224600F056F82D1A67EB01084F462246A8
:100310000120002100F04DF817EB00094E41201E8E
:10032000A4F10104DFDC484631462A464346BDE8D5
:10033000F09FD2B201E000F8012B491EFBD27047BA
:100340000022F6E710B513460A4604461946FFF7A1
:10035000F0FF204610BDC1F30A52C1F3130140F271
:10036000FF3341F480119A4202DA002001467047BF
:1003700040F233439A42A2F2334202DC524200F08E
:1003800027B800F016B830B50B46014600202022F1
:10039000012409E021FA02F59D4205D303FA02F592
:1003A000491B04FA02F52844151EA2F10102F1DCF2
:1003B00030BD202A04DB203A00FA02F10020704709
:1003C0009140C2F1200320FA03F319439040704793
:1003D000202A04DB203A21FA02F00021704721FA9A
:1003E00002F3D040C2F12002914008431946704701
:1003F00010B5141E73F1000408DA401C41F100012D
:1004000092185B411A4301D120F0010010BD2DE983
:10041000F04D92469B4611B1B1FA81F202E0B0FA7A
:1004200080F220329046FFF7C4FF04460F4640EAB0
:100430000A0041EA0B0153465A46084313D01146BD
:1004400053EA010019D0C8F140025046FFF7C0FF3F
:1004500005460E46504659464246FFF7AAFF084356
:1004600005D0012004E020463946BDE8F08D00208B
:10047000054346EAE0762C4337430A986305E40ACD
:10048000A0EB08000022FD0A44EA47540A3002D5D6
:1004900000200146E9E7010510196941DDE9084539
:1004A00000196941BDE8F04DA2E72DE9FE4F8046F5
:1004B00081EA0300C00F0C46009021F0004123F0B8
:1004C0000045B8EB0200A94105D2404621469046BE
:1004D0001C460B46024623F00040104347D0270D30
:1004E000C7F30A00C3F30A510290401A0190402852
:1004F0006BDAC3F3130040F4801B0098924620B1DE
:100500000023D2EB030A63EB0B0B01985946C0F1B1
:1005100040025046FFF74DFF06460D4650465946ED
:10052000019A00F075F910EB08006141002487EA98
:10053000115284EAE7731A4340D0009A62B3019AD9
:10054000012A4FEA075215DC001B61EB02014FF054
:10055000004202EA0752CDE90042001C41F5801139
:1005600032462B46FFF753FF03B0BDE8F08F4046FD
:100570002146F9E7001B61EB0201001C41F58013E5
:1005800000185B412018A2F5001747EB030140EA71
:10059000D570B6196D4111E06D084FEA360645EA8F
:1005A000C0754FEA0752001B61EB0201001C41F5C8
:1005B000801149084FEA30000019514132462B465C
:1005C00003B0BDE8F04FFFF713BF009801224000D1
:1005D0000023D0EB020263EBE073009821464FEA60
:1005E000E074B8EB000061EB0401E9E783F000433D
:1005F0005BE781F0004158E72DE9FE4F81EA0304F3
:1006000004F0004421F0004100944FF0000B23F06F
:10061000004350EA01045ED052EA03045BD0C3F306
:100620000A54C1F30A552C44A4F2F3340194A0FBFC
:100630000254C1F3130141F48011C3F3130343F4D3
:10064000801301FB024400FB034E840A970A44EA2C
:10065000815447EA8357A4FB076802958D0A05FB7E
:1006600007854FEA932C04FB0C542705029D4FEAA3
:10067000065847EA1637B5EB08056EEB070C870EF0
:10068000920E47EA811742EA8312A7FB0201B6EBFA
:100690000B0164EB00042B0D43EA0C335E1844EBB2
:1006A0001C50DA465146E7FB0201C5F313044FEA3A
:1006B0000B3343EA14534FEA0432019C43EA060326
:1006C000A4F10C040294009CCDE900B4FFF79FFE56
:1006D00003B0BDE8F08F00200146F9E72DE9F04DA9
:1006E00081EA030404F0004B21F0004514464FF06A
:1006F000000A23F0004150EA050220D054EA01022A
:100700001DD0C5F30A570246C5F31303C1F3130006
:10071000C1F30A5640F4801543F48013A7EB060892
:10072000101BD64608F2FD3873EB050002D308F122
:10073000010801E092185B41B8F1000F03DA0020D4
:100740000146BDE8F08D00204FF480110646844636
:100750000EE0171B73EB050705D3121B63EB0503B4
:1007600006434CEA010C49084FEA300092185B41FD
:1007700050EA0107EDD152EA030012D082EA0400E8
:1007800083EA0501084305D0101BAB4106D20122C4
:10079000002306E000224FF0004302E06FF0010268
:1007A00053101AEB06004CEB085110EB0A0041EB1A
:1007B0000B01BDE8F04DFFF71BBE000030B5041E75
:1007C00071F1000404DB4FF00044404264EB01018E
:1007D000141E73F1000405DB1C464FF00043524227
:1007E00063EB0403994208BF904230BD064C074DAD
:1007F00006E0E06840F0010394E8070098471034F1
:10080000AC42F6D3FFF74CFD446C0008646C000862
:10081000202A06DBCB17203A41FA02F043EAE073C4
:1008200006E041FA02F3D040C2F1200291400843B1
:100830001946704700000000B0B50446006842F257
:10084000001140F48070C4F20201884204D142F2E7
:100850000830C4F2020003E046F20830C5F6020098
:10086000006810F4403F10D003F06AFE616805464E
:10087000B1F5803F05D0B1F5403F21D0B1F5003F43
:100880001FD1080CB5FBF0F51BE04FF4002002F07F
:10089000FBFE61680546A1F580224FEAB2420A2AB2
:1008A0000FD8DFE802F0060606060606494B4D4F54
:1008B00051006FF0010000EA5140B5FBF0F500E097
:1008C000AD0802F0F5FB41F2030188420DD8206823
:1008D00042F60151C0F231118D4281682CBF41F4C2
:1008E000807121F480718160B0BD4BF62140C0F26F
:1008F000BE00854205D82068816821F4407181607E
:10090000B0BD47F64100C0F27D10854203D8206893
:100910000122816808E020684FF28101C0F2FA21CB
:100920008D42816804D8022262F309218160B0BD42
:1009300041F440718160B0BD2D09C2E76D09C0E787
:10094000AD09BEE7ED09BCE72D0ABAE700000000DB
:1009500010B5846B616D11F0500F616D05D0C90643
:100960000ED4E16CC96C884710BD41F4007060651D
:1009700020680168090707D4C068800716D10AE01B
:10098000204600F05DFD10BD04F05EFB70B12068F4
:10099000C06880040AD4606D20F480706065606D6A
:1009A000C00403D4606D40F001006065204600F093
:1009B0003FFD10BD0000000080B5806B416D41F02F
:1009C00040014165816D41F00401816500F038FD11
:1009D00080BD00000000000080B5806B00F02CFDA1
:1009E00080BD00000000000070B50446006804F0FF
:1009F0001FFB00281CBF002070BD20683F22C8F2EA
:100A000000028168114209D0606D40F010006065FD
:100A1000A06D40F00100A065012070BD04F0E0FA77
:100A200002F04EFB42F2000546F20031C4F202052C
:100A3000226805F5807605F54073C5F60201B242DD
:100A400008BF1946AA42054608BF1946084604F0E1
:100A5000E3FA21680A46B14204BF42F20002C4F23E
:100A60000202002818BF8A4203D121680868C00723
:100A700008D0002070BD00BF21680868C0074FF093
:100A8000000010D1084604F0D3FA10B9206804F031
:100A9000A7FA02F015FB401B0328EDD3206800687D
:100AA000C007E9D1B0E770BD80B540F2D000C2F216
:100AB000004000F075FF80BDFEE700000000000070
:100AC00080B540F2D000C2F2004000F039FF80BD96
:100AD00040F20F420168C4F20202914210DC6F2220
:100AE000C4F20202914220DC3F22C4F2020291428F
:100AF00036DC1022C4F20202914254D028224EE089
:100B000040F26F42C4F2020291421ADC40F23F42CC
:100B1000C4F2020291422ADC40F21042C4F2020204
:100B2000914240D040F2284239E09F22C4F20202B2
:100B3000914225DC7022C4F20202914233D0882215
:100B40002DE040F29F42C4F2020291421FDC40F2CB
:100B50007042C4F20202914225D040F288421EE067
:100B60004022C4F2020291421DD0582217E040F206
:100B70004042C4F20202914215D040F258420EE0C7
:100B8000A022C4F2020291420DD0B82207E040F246
:100B9000B842C4F20202914205D040F2A042C4F22F
:100BA000020291421AD1D0F800C06FF00F024AF64B
:100BB000AB2352FA8CF2CAF6AA23A2FB033109A393
:100BC0005F2AC1F302115B5C40F2FF312CEA0101A4
:100BD000C36588BF0431816508467047016821F00C
:100BE000FF01F8E7000610160006101600000000CE
:100BF00010B545F257420168C5F6020291420EDC7B
:100C000045F22F42C5F60202914217DC45F2084236
:100C1000C5F60202914226D045F21C421FE045F281
:100C20007F42C5F60202914211DC45F25842C5F6F8
:100C30000202914217D045F26C4210E045F2304278
:100C4000C5F6020291420ED045F2444207E045F259
:100C50009442C5F60202914205D045F28042C5F6A3
:100C60000202914219D101784CF6CD42CCF6CC4229
:100C700045F600030839C5F60203A1FB021203F191
:100C80008001120903EB820302F01F0203660123B5
:100C9000416603FA02F1816610BD02784AF6AB2381
:100CA000CAF6AA234FF0080E103AA2FB032340F223
:100CB0000F42C4F202024FEA131C914202F1AA044D
:100CC000624688BF0EEB131240F60003A142C4F245
:100CD000020303F1800128BF6246D3E70000000051
:100CE00010B50279511E072988BF10BD45F2574C37
:100CF00045F6FC0E0368C5F6020CC5F6020E634508
:100D00000EF1440C0EDC45F22F44C5F60204A3425A
:100D100017DC45F20844C5F60204A34226D045F28A
:100D20001C441FE045F27F44C5F60204A34211DCD7
:100D300045F25844C5F60204A34217D045F26C446C
:100D400010E045F23044C5F60204A3420ED045F24D
:100D5000444407E045F28044C5F60204A34205D0AE
:100D600045F29444C5F60204A34209D10EEB820277
:100D7000C2660122C0F870C002FA01F1416710BDDD
:100D800040F6FC0EC4F2020E0EF1440CEEE7000039
:100D90008169B1F5005F07D079B9816A022912D063
:100DA000012916D079B112E0816A03290FD8DFE852
:100DB00001F0020A021001207047816A03293CBF3A
:100DC0000120704703D1C06AC0F300607047002063
:100DD0007047C06AA0F1C070B0FA80F04009704757
:100DE00070B540F26F44D0F800E0C4F20204D0F8CD
:100DF00058C0A64519DC9F25C4F20205AE4531DC7A
:100E00005725C4F20205AE4556DC1025C4F2020592
:100E1000AE4500F092802825C4F20205AE4500F0F0
:100E20008C804025C4F2020584E045F22F45C5F6CA
:100E30000205AE452BDC40F2B745C4F20205AE45D3
:100E400048DC40F27045C4F20205AE4575D040F270
:100E50008845C4F20205AE456FD040F2A045C4F209
:100E6000020567E040F22745C4F20205AE4540DCCA
:100E7000A025C4F20205AE455FD0B825C4F2020534
:100E8000AE455AD040F21045C4F2020552E045F298
:100E90006B45C5F60205AE453CDC45F23045C5F66E
:100EA0000205AE4549D045F24445C5F60205AE45BA
:100EB00043D045F258453BE05825C4F20205AE4503
:100EC0003BD07025C4F20205AE4536D08825C4F269
:100ED00002052FE040F2B845C4F20205AE452CD021
:100EE00045F20845C5F60205AE4526D045F21C453B
:100EF0001EE040F22845C4F20205AE451DD040F286
:100F00004045C4F20205AE4517D040F25845C4F240
:100F100002050FE045F26C45C5F60205AE450CD062
:100F200045F29445C5F60205AE4506D045F280452A
:100F3000C5F60205AE4540F0C980456EC66E002E6E
:100F4000866E6E601CBFD0E91C566E60A64515DC2F
:100F50009F24C4F20204A6452BDC5724C4F20204E9
:100F6000A6454EDC1024C4F20204A64576D02824FF
:100F7000C4F20204A64571D040246BE045F22F4430
:100F8000C5F60204A64527DC40F2B744C4F20204C9
:100F9000A64542DC40F27044C4F20204A6455DD08E
:100FA00040F28844C4F20204A64557D040F2A0445F
:100FB00050E040F22744C4F20204A6453CDCA024E1
:100FC000C4F20204A64549D0B824C4F20204A645DE
:100FD00044D040F210443DE045F26B44C5F60204B3
:100FE000A6454FDC45F23044C5F60204A6455BD069
:100FF00045F24444C5F60204A64555D045F258448E
:101000004EE05824C4F20204A64527D07024C4F24E
:101010000204A64522D088241CE040F2B844C4F261
:101020000204A6451AD045F20844C5F60204A645B6
:101030003AD045F21C4433E040F22844C4F20204A2
:10104000A6450BD040F24044C4F20204A64505D0A8
:1010500040F25844C4F20204A64537D104683F2543
:101060008668C06D00F01F00402E05FA00F0CCF835
:101070000800206820F480202060636021D0A160F7
:10108000E26070BD45F26C44C5F60204A6450BD083
:1010900045F28044C5F60204A64505D045F29444C5
:1010A000C5F60204A64511D10468C66D806806F035
:1010B0001F060125402805FA06F6CCF80460636097
:1010C00002D1A260E16070BDA160E26070BD00006D
:1010D0007047000000000000B0B50C46054600F067
:1010E0000BF86942A84238BFE94301440020A142FD
:1010F00028BF0120B0BD000080B501F0E1FF80BD38
:101100007047000000000000EFF3108072B600BFCF
:10111000FEE70000000000002DE9F04782B0002249
:101120000192044690F85000012803D1022002B039
:10113000BDE8F08720680D46012684F8506003F072
:101140007FFF28B1606D40F0200060650120DEE087
:101150002A6892FAA2F0B0FA80F3100308BF930E47
:101160002068696803F01F0306FA03F3C7693B436D
:10117000C36103F079FF206803F062FF0646206830
:1011800003F04EFF304368D120682968AA6803F055
:101190008FFF41F20000C5F60040006800F070408B
:1011A000B0F1805F06D120686A690E21C06801EA4B
:1011B00050030CE02068C1686A69C068C9064FEA3C
:1011C000500002D400F00E0301E000F0080329698A
:1011D0002068042928D1016E2A6801F0F841B1EB9A
:1011E000826F4FEA826103D1026E22F000420266F2
:1011F000426E02F0F8428A4203D1426E22F000426F
:101200004266826E02F0F8428A4203D1826E22F078
:1012100000428266C26E02F0F8428A421DD1C16E5F
:1012200021F00041C16618E002FA03F32A6803F0D6
:1012300087FF687E0138B0FA80F120684A09296981
:10124000D20703F089FF287E0138B0FA80F12068C8
:101250004A092969D20203F067FF206803F0E8FE1B
:1012600008B1002053E020682968EA6803F034FFE1
:101270000021E868C4F2FF71884243D14FF6FF7045
:101280002968C0F20F004FF0806711EA000C91FA54
:10129000A1F0B0FA80F2134608BF8B0E20685E1CE6
:1012A00007EB836306F01E0E06F01F060127BEF152
:1012B000090F03F0F84307FA06F60DD8BCF1000F4A
:1012C00008BF8A0E511C43EA060201F01F0101EB20
:1012D000410142EA015112E0BCF1000F08BF8A0E41
:1012E000511C002201F01F01CFF6206201EB4101E9
:1012F00002EB015146EA0302114341F00071AA6872
:1013000003F0D6FE2868B0F1FF3F06DD0020002183
:1013100084F8501002B0BDE8F08746F2000842F2AF
:101320000007C5F60208C4F2020708F540792168F3
:1013300007F5807607F540724846B14208BF10466F
:10134000B94208BF104603F063FE216842F2001262
:1013500041F48071C4F202029142824608D13846BB
:1013600003F066FE0746304603F062FE384302E0B3
:10137000404603F05DFE00287FF4E4AE5FEA0A20F9
:10138000296809D40020CCF68430814204D1206839
:1013900040451DD00020BAE75FEACA1009D40020FA
:1013A000CCF25270814204D12068404531D00020F7
:1013B000ADE75FEA4A204FF00000A8D40022CCF647
:1013C000B8729142A3D12068404527D000209EE703
:1013D0004AF40001484603F09FFE40F2080042F63E
:1013E0006351C2F20040C0F23E5100688009A0FB88
:1013F00001018809022101EB40000190019858B1D8
:10140000019801380190019800284FF00000F7D1B1
:101410007DE74AF0807103E0002078E74AF480011C
:10142000484603F079FE002071E70000000000004C
:10143000704700000000000070470000000000003E
:101440007047000000000000F0B581B0044600289D
:101450004FF00000009019D0606D30B9204600F0C8
:101460000BF90020A06584F85000206803F0DCFD33
:1014700010B1206803F0ACFD206803F0DDFD38B149
:10148000206803F0D9FDE0B1002523E00125E3E069
:10149000206803F0B1FD40F2080042F66351C2F249
:1014A0000040C0F23E5100688009A0FB010101200C
:1014B00000EB9110009000980028E1D000980138CE
:1014C000F8E7606D012540F010006065A06D40F008
:1014D0000100A065206803F0B3FD616D01F010010B
:1014E0000843606D03D040F010000125B3E020F404
:1014F000817002306065206803F09AFD58BB206857
:1015000042F2001140F48070C4F2020142F200067F
:101510008842C4F2020640F0A280304603F088FD03
:10152000074606F5807003F083FD384398B906F549
:10153000807006F54072216846F20003C5F602038A
:101540008142104618BF03F54070B142616808BF80
:10155000104603F0D9FD01F0ABFD41F204018842D1
:101560000CD3A068102809D1607D216B227F41EA4D
:10157000403040EA024040F01C0108E0607D216BF1
:10158000227F41EA4030A168084340EA0241207FBF
:10159000012806D1206A0022CFF6FE7202EB4040FD
:1015A0000143606A28B100F47870A26A084340EAF7
:1015B000020120684CF20303CFF6F073C2681A40B0
:1015C0001143C16003F03CFD0646206803F028FD8E
:1015D000304331D1217D2068E26A44F20307C368B9
:1015E00042EA813123EA07021143C16094F83810BE
:1015F0000129016914D14FF61E020027CFF60042DF
:10160000CFF6FF771140D4E90F231943636C07EB42
:1016100002421143A26C1943114341F0010101E060
:1016200021F0010101610169626B21F070411143F8
:1016300001612046FFF700F92068E1680129026B8B
:1016400022F00F0102D1A269013A11430163012185
:10165000606D61F301006065284601B0F0BD46F29F
:101660000000C5F6020003F0E3FC00287FF473AF2E
:101670005DE700000000000070B586B046F2000192
:1016800004460068C5F6020100268842CDE90466DA
:1016900003960296019601D006B070BD44F2E04078
:1016A000C5F60200016841F080710160016801F037
:1016B000807100910099016841F0040101600068A7
:1016C00001A900F00400009000980620019003207A
:1016D000CDE9020640F60000C5F6020001F010FC5C
:1016E00040F2D00545F20840C2F20045C5F60200BE
:1016F00028601120C5E901064FF4806028614FF48D
:10170000006068614FF40050A8614FF48070EE6093
:10171000C5E90706284600F013FF08B1FFF7F4FCFF
:10172000E564AC6306B070BD2DE9F04142F20007FC
:101730000446C4F20207016846F2003007F58076DD
:1017400007F54072C5F60200B14208BF1046B94223
:1017500008BF104603F060FC8046206803F070FC70
:1017600018B994F85000012802D10220BDE8F08198
:10177000012084F850002046FFF736F9054628B1CD
:10178000002084F850002846BDE8F0812068616D93
:1017900040F60172B04221EA020118BF0746B8F1D3
:1017A000000F01F58071616518BF874203D1616D3B
:1017B00021F480116165616D0022C9044FF00001C0
:1017C00044BFA26D22F006028742A2654FF01C02C0
:1017D000026084F8501009D0B8F1090F13D8012124
:1017E00040F2212201FA08F111420CD0C1688901AE
:1017F00004D5616D012262F30D31616503F04CFC8B
:101800002846BDE8F081606D40F480106065F8689E
:101810008001B8D5606D012161F30D306065284607
:10182000BDE8F081000000002DE9F04742F200061B
:101830000446C4F20206036846F2003006F58077DB
:1018400006F54075C5F60200BB42904608BF284623
:10185000B342894608BF284603F0DEFB8246206873
:1018600003F0EEFB18B994F85000012802D10220D1
:10187000BDE8F087BAF1090F4FF0010084F850007D
:1018800058D800FA0AF040F22121084252D02046EE
:10189000FFF7AAF830B10546002084F8500028462A
:1018A000BDE8F0872068616D40F60172B84221EA18
:1018B000020118BF0646BAF1000F01F5807161659B
:1018C00018BF864203D1616D21F480116165616D9D
:1018D00040F6D917C9044FF0000144BFA16D21F0B3
:1018E0000601C0F600070022A16540F65111E36C25
:1018F000C0F60001C3E90F1740F6B917E16AC0F658
:101900000007DF641C23036084F85020426842F023
:101910001002426003F0A0FB2168E06C40314A46AF
:10192000434601F0BDF80546206803F0B5FB2846A4
:10193000BDE8F087002084F850000120BDE8F08762
:1019400010B50446406EA26E01680A4210D0236EA4
:10195000D4F84CC0BCF1000F196821F480711960F3
:101960004260606D40F40070606501D02046E04741
:10197000E06E98B1D4E91C120B681A420ED00368CD
:1019800023F4807303604A60606D40F4806060659A
:10199000E16C002908BF10BD2046884710BD00003B
:1019A0002DE9F04381B00021009140F20801044686
:1019B000C2F2004140F26F49A56DC4F20209086805
:1019C00048F2B511C1F64E312668A0FB01084E451C
:1019D0002F682A6815DC9F20C4F2020086422BDCA7
:1019E0005720C4F2020086424FDC1020C4F20200ED
:1019F000864278D02820C4F20200864273D040206C
:101A00006CE045F22F40C5F60200864227DC40F22A
:101A1000B740C4F20200864243DC40F27040C4F298
:101A2000020086425FD040F28840C4F20200864243
:101A300059D040F2A04051E040F22740C4F20200E9
:101A400086423DDCA020C4F2020086424BD0B82082
:101A5000C4F20200864246D040F210403EE045F219
:101A60006B40C5F60200864274DC45F23040C5F694
:101A70000200864200F0818045F24440C5F6020033
:101A800086427AD045F2584072E05820C4F20200F3
:101A9000864228D07020C4F20200864223D08820DB
:101AA0001CE040F2B840C4F2020086421BD045F26E
:101AB0000840C5F6020086425FD045F21C4057E060
:101AC00040F22840C4F2020086420CD040F240406E
:101AD000C4F20200864206D040F25840C4F202002E
:101AE000864240F0ED84E06D00F01F01082000FA0E
:101AF00001F23A4200F0148140F20F40C4F20200B9
:101B0000864213DC6F20C4F20200864200F38E800E
:101B10003F20C4F20200864200F3CF801020C4F2BE
:101B20000200864200F0ED802820E5E04E4500F3FB
:101B3000898040F23F40C4F20200864200F3C48034
:101B400040F21040C4F20200864200F0DA8040F217
:101B50002840D1E045F26C40C5F6020086420CD028
:101B600045F28040C5F60200864206D045F2944018
:101B7000C5F60200864240F0A3842068E16D01F0C2
:101B80001F010368580727D50420884010EA020780
:101B900022D01904686000F18780980600F18C84D7
:101BA00040F20F40C4F20200864200F3AB836F2084
:101BB000C4F20200864200F3E6833F20C4F2020032
:101BC000864200F350841020C4F20200864200F0E6
:101BD0006D84282000F066BC980742D5022088401A
:101BE00010EA02073DD01904686000F10E839806E0
:101BF00000F1988440F20F40C4F20200864200F3E4
:101C0000AF836F20C4F20200864200F311843F20AC
:101C1000C4F20200864200F356841020C4F202008F
:101C2000864200F07384282000F06CBC9F20C4F230
:101C30000200864251DC7020C4F20200864260D06D
:101C4000882059E040F29F40C4F2020086424BDCFB
:101C500040F27040C4F20200864252D040F2884006
:101C60004AE0180740F12C8408208840104000F01A
:101C7000278440F20F40C4F20200864200F32C8316
:101C80006F20C4F20200864200F34F833F20C4F26B
:101C90000200864200F393831020C4F202008642C1
:101CA00000F0B1832820A9E3D80300F1B482A16C2D
:101CB000002940F00C8300F003BC4020C4F2020075
:101CC00086421ED0582017E040F24040C4F2020085
:101CD000864216D040F258400EE0A020C4F2020026
:101CE00086420ED0B82007E040F2B840C4F20200AD
:101CF000864206D040F2A040C4F20200864240F084
:101D00008E82206804230068184209D02068036886
:101D100023F004030360AA60606D40F00100606579
:101D2000012000FA01F23A4270D040F20F40C4F2B2
:101D30000200864210DC6F20C4F2020086421CDCE6
:101D40003F20C4F20200864232DC1020C4F20200BE
:101D5000864251D028204AE04E451ADC40F23F40EE
:101D6000C4F2020086422ADC40F21040C4F20200B3
:101D7000864241D040F2284039E09F20C4F2020060
:101D8000864225DC7020C4F20200864234D08820CE
:101D90002DE040F29F40C4F2020086421FDC40F278
:101DA0007040C4F20200864226D040F288401EE015
:101DB0004020C4F2020086421ED0582017E040F2B4
:101DC0004040C4F20200864216D040F258400EE075
:101DD000A020C4F2020086420ED0B82007E040F2F4
:101DE000B840C4F20200864206D040F2A040C4F2DD
:101DF0000200864240F016822068406900F08000B0
:101E000020B1AA60606D40F002006065042000FA15
:101E100001F23A4270D040F20F40C4F20200864212
:101E200010DC6F20C4F2020086421CDC3F20C4F2AA
:101E30000200864232DC1020C4F20200864251D0F9
:101E400028204AE04E451ADC40F23F40C4F202002E
:101E500086422ADC40F21040C4F20200864241D0A1
:101E600040F2284039E09F20C4F20200864225DC7F
:101E70007020C4F20200864234D088202DE040F267
:101E80009F40C4F2020086421FDC40F27040C4F260
:101E90000200864226D040F288401EE04020C4F274
:101EA000020086421ED0582017E040F24040C4F2A3
:101EB0000200864216D040F258400EE0A020C4F244
:101EC000020086420ED0B82007E040F2B840C4F2CB
:101ED0000200864206D040F2A040C4F202008642D0
:101EE00040F0A6812068006800F0020020B1AA60DE
:101EF000606D40F004006065102000FA01F1394285
:101F00007ED040F20F40C4F20200864210DC6F2007
:101F1000C4F2020086421CDC3F20C4F2020086426A
:101F200032DC1020C4F20200864251D028204AE060
:101F30004E451ADC40F23F40C4F2020086422ADCE1
:101F400040F21040C4F20200864241D040F22840E4
:101F500039E09F20C4F20200864225DC7020C4F2E2
:101F60000200864234D088202DE040F29F40C4F227
:101F7000020086421FDC40F27040C4F2020086423A
:101F800026D040F288401EE04020C4F20200864283
:101F90001ED0582017E040F24040C4F202008642B2
:101FA00016D040F258400EE0A020C4F20200864253
:101FB0000ED0B82007E040F2B840C4F202008642DA
:101FC00006D040F2A040C4F20200864240F03681C2
:101FD000266808223068104212D0A9602068016883
:101FE0004903016806D4C90506D4016821F0080137
:101FF000016001E008034FD4216C09B120468847F5
:10200000E06D202100F01F008140394200F0AE80D9
:1020100040F20F432268C4F202039A4210DC6F239D
:10202000C4F202039A421CDC3F23C4F202039A4228
:1020300036DC1023C4F202039A4255D028234EE026
:102040004A451ADC40F23F43C4F202039A422EDCB6
:1020500040F21043C4F202039A4245D040F22843B2
:102060003DE09F23C4F202039A4229DC7023C4F2AC
:1020700002039A4238D0882331E040F29F43C4F2F1
:1020800002039A4223DC40F27043C4F202039A42F4
:102090002AD040F2884322E0A16C0029AED1AFE7FC
:1020A0004023C4F202039A421ED0582317E040F2A4
:1020B0004043C4F202039A4216D040F258430EE065
:1020C000A023C4F202039A420ED0B82307E040F2E4
:1020D000B843C4F202039A4206D040F2A043C4F2CD
:1020E00002039A4240F0AC802268102312681A4220
:1020F0003CD0A96094F835202168042A0A681DD1D3
:1021000022F016020A604A6922F080024A61226CBB
:102110000AB9A26C1AB10A6822F008020A603F21CB
:1021200001FA00F0A860012084F83500216D00203C
:10213000002984F8340040F0CA80C1E150030868E7
:102140000CD4C0050ED4086820F0100008600120EF
:1021500084F83500002084F8340003E0000301D443
:10216000616C00E0E16B09B120468847606D002892
:1021700000F0A681606DC00700F0A580042084F8FF
:10218000350040F20F412068C4F20201884210DCA1
:102190006F21C4F2020188421CDC3F21C4F202011B
:1021A00088424FDC1021C4F2020188426FD02821FE
:1021B00067E048451ADC40F23F41C4F20201884220
:1021C00047DC40F21041C4F2020188425FD040F285
:1021D000284156E09F21C4F20201884242DC70216E
:1021E000C4F20201884252D088214AE040F29F4165
:1021F000C4F2020188423CDC40F27041C4F20201A8
:10220000884244D040F288413BE0D80376D4616CE8
:1022100000295CD154E1216C002958D150E10823F8
:10222000304670E53068002000287FF4EAADEDE527
:102230003068002000287FF45AAE5DE60422C9E62B
:10224000022353E74021C4F2020188421FD05821E3
:1022500017E040F24041C4F20201884217D040F238
:1022600058410EE0A021C4F2020188420FD0B821EB
:1022700007E040F2B841C4F20201884207D040F2C0
:10228000A041C4F20201884208BF206800E0206833
:102290004FEA9821026822F00102026000980130A2
:1022A0000090884203D820680068C007F6D12068F3
:1022B0000068C0074FF0030008BF012084F8350014
:1022C000002084F83400E16C002900F0F9802046F9
:1022D000884701B0BDE8F0834E4532DC40F23F4014
:1022E000C4F20200864271DC40F21040C4F20200E7
:1022F000864200F0888040F228407FE0E16B0029B0
:10230000E5D1DDE04E454BDC40F23F40C4F2020037
:10231000864200F3AF8040F21040C4F202008642D1
:1023200000F0C48040F22840BCE09F20C4F20200CC
:10233000864254DC7020C4F20200864263D08820BA
:102340005CE040F29F40C4F2020086424EDC40F264
:102350007040C4F20200864255D040F288404DE001
:102360004E4571DC40F23F40C4F20200864200F369
:10237000B18040F21040C4F20200864200F0C680F4
:1023800040F22840BEE09F20C4F2020086427ADC80
:102390007020C4F20200864200F08880882081E02C
:1023A00040F29F40C4F20200864273DC40F270406B
:1023B000C4F20200864279D040F2884072E04020A8
:1023C000C4F2020086421ED0582017E040F240407E
:1023D000C4F20200864216D040F258400EE0A0201F
:1023E000C4F2020086420ED0B82007E040F2B840A6
:1023F000C4F20200864206D040F2A040C4F20200BD
:10240000864240F0948026686FF01C0230681040CD
:102410003060012000FA01F16960606584F83500E0
:102420000020E16C84F8340000297FF450AF47E0CD
:102430009F20C4F20200864255DC7020C4F20200E4
:10244000864263D088205DE040F29F40C4F20200E3
:1024500086424FDC40F27040C4F20200864255D002
:1024600040F288404EE04020C4F2020086421DD077
:10247000582017E040F24040C4F20200864215D0D6
:1024800040F258400EE0A020C4F2020086420DD077
:10249000B82007E040F2B840C4F20200864205D0FE
:1024A00040F2A040C4F20200864243D126686FF099
:1024B0000801306808403060216C00297FF407AFC4
:1024C00001B0BDE8F0834020C4F2020086421DD076
:1024D000582017E040F24040C4F20200864215D076
:1024E00040F258400EE0A020C4F2020086420DD017
:1024F000B82007E040F2B840C4F20200864205D09E
:1025000040F2A040C4F20200864216D126686FF065
:102510001401306808403060012084F83500002044
:1025200084F83400E16B00297FF4D1AEC8E76FF086
:102530000E026BE76FF00401BBE76FF00A01E8E7FA
:102540002DE9F04381B0044600F0BAFD002C00F004
:10255000738140F26F4805462068C4F20208404586
:1025600015DC9F21C4F2020188422BDC5721C4F202
:102570000201884251DC1021C4F2020188427AD063
:102580002821C4F20201884275D040216EE045F254
:102590002F41C5F60201884227DC40F2B741C4F260
:1025A0000201884245DC40F27041C4F202018842D7
:1025B00061D040F28841C4F2020188425BD040F20F
:1025C000A04153E040F22741C4F2020188423FDCBF
:1025D000A021C4F2020188424DD0B821C4F2020108
:1025E000884248D040F2104140E045F26B41C5F6C8
:1025F0000201884200F3908045F23041C5F60201A5
:10260000884200F09C8045F24441C5F602018842B0
:1026100000F0958045F258418CE05821C4F2020147
:10262000884228D07021C4F20201884223D0882138
:102630001CE040F2B841C4F2020188421BD045F2CE
:102640000841C5F60201884279D045F21C4171E08B
:1026500040F22841C4F2020188420CD040F24041CD
:10266000C4F20201884206D040F25841C4F202018D
:10267000884240F0118240F20F420221C4F202026D
:1026800084F8351090424FF0000184F8341012DCC9
:102690006F21C4F20201884220DC3F21C4F2020112
:1026A000884200F391801021C4F20201884200F0B8
:1026B000B0802821A7E040451EDC40F23F41C4F233
:1026C0000201884200F3878040F21041C4F2020107
:1026D000884200F09E8040F2284194E09F21C4F29D
:1026E0000201884200F380807021C4F20201884216
:1026F00000F08F80882186E040F29F41C4F2020101
:10270000884278DC40F27041C4F20201884200F055
:10271000808040F2884176E045F26C41C5F60201C6
:1027200088420CD045F28041C5F60201884206D0AD
:1027300045F29441C5F60201884240F0AD8104F1B2
:10274000080E022084F8350000209EE80640A1F122
:10275000800384F83400B3FA83F320685B094029CE
:10276000D4E90579D4E9076C05684FEA83336FF340
:10277000101508BF102345EAD2014AF6F832194372
:10278000CAF2FD7241EADE014CF6CD4341EAD701BF
:10279000024441EAD901CCF6CC4341EAD601A2FB7E
:1027A000032341EA1C1101606FF0030000EA93006B
:1027B000E0652046FEF78CF9E16D012201F01F0172
:1027C00002FA01F141609BE04021C4F2020188421B
:1027D0001FD0582117E040F24041C4F20201884264
:1027E00017D040F258410EE0A021C4F20201884205
:1027F0000FD0B82107E040F2B841C4F2020188428C
:1028000007D040F2A041C4F20201884208BF20680C
:1028100000E02068016821F0010101602768386844
:10282000C0070DD000F04CFC401B0628F6D320203A
:102830006065032084F83500012001B0BDE8F08315
:1028400048F23F0104F108053868CFF610610840EE
:102850002ECD0843A1691043E2691843236A05435A
:10286000606A2943042841EA020141EA030103D1D5
:10287000D4E90B231143194341F20002C5F600428B
:102880001268B2F1005F17D36268A2F12903202B0E
:1028900006D23F25CCF2C03525FA03F3DB0706D17B
:1028A000A2F14F030022042B38BF012200E00122D5
:1028B000002A18BF41F4801139600428796921F099
:1028C000070141EA000510D1D4E90A1045EA0105E3
:1028D00058B12046FEF75CFA38B14020606501200F
:1028E00084F8350001B0BDE8F08320467D61FEF735
:1028F000EFF8E16D3F2201F01F0102FA01F1816062
:102900002068404519DC9F21C4F20201884231DC75
:102910005721C4F20201884256DC1021C4F20201A0
:10292000884200F091802821C4F20201884200F020
:102930008B804021C4F2020184E045F22F41C5F6AC
:10294000020188422BDC40F2B741C4F20201884206
:1029500048DC40F27041C4F20201884274D040F277
:102960008841C4F2020188426ED040F2A041C4F214
:10297000020167E040F22741C4F20201884240DCD4
:10298000A021C4F2020188425ED0B821C4F2020143
:10299000884259D040F21041C4F2020152E045F29F
:1029A0006B41C5F6020188423CDC45F23041C5F678
:1029B0000201884248D045F24441C5F602018842EE
:1029C00042D045F258413BE05821C4F2020188420E
:1029D0003AD07021C4F20201884235D08821C4F275
:1029E00002012FE040F2B841C4F2020188422BD02C
:1029F00045F20841C5F60201884225D045F21C4146
:102A00001EE040F22841C4F2020188421CD040F28C
:102A10004041C4F20201884216D040F25841C4F24B
:102A200002010FE045F26C41C5F6020188420BD06D
:102A300045F29441C5F60201884205D045F2804135
:102A4000C5F6020188421FD12046FEF7D1F8A068E2
:102A5000802801D10020606004F160036068C7B283
:102A600001380ECB07280F60536009D82046FEF7C7
:102A700037F904F16C02002307CA03604A6003E0DF
:102A800000206067C4E91B0000206065012184F814
:102A9000351001B0BDE8F0834020C9E60000000019
:102AA000F0B581B0A8B3044690F83400012802D1F3
:102AB000022001B0F0BD012084F8340094F8350004
:102AC000012820D1022084F835000020606540F202
:102AD0000F462068C4F2020640F26F47B042C4F2CB
:102AE000020719DC6F25C4F20205A84225DC3F2548
:102AF000C4F20205A8423BDC1025C4F20205A8423C
:102B00005BD0282553E04FF400606065002084F816
:102B10003400012001B0F0BDB8421ADC40F23F455C
:102B2000C4F20205A8422ADC40F21045C4F20205B4
:102B3000A84242D040F2284539E09F25C4F2020560
:102B4000A84225DC7025C4F20205A84235D08825AC
:102B50002DE040F29F45C4F20205A8421FDC40F27E
:102B60007045C4F20205A84227D040F288451EE015
:102B70004025C4F20205A8421FD0582517E040F2B4
:102B80004045C4F20205A84217D040F258450EE075
:102B9000A025C4F20205A8420FD0B82507E040F2F4
:102BA000B845C4F20205A84207D040F2A045C4F2DD
:102BB0000205A84208BF206800E02068056825F0EB
:102BC000010505602046FEF70BF92068B04210DCD5
:102BD0006F21C4F2020188421CDC3F21C4F20201D1
:102BE000884232DC1021C4F20201884251D02821EF
:102BF0004AE0B8421ADC40F23F41C4F20201884286
:102C00002ADC40F21041C4F20201884241D040F275
:102C1000284139E09F21C4F20201884225DC70215D
:102C2000C4F20201884234D088212DE040F29F4155
:102C3000C4F2020188421FDC40F27041C4F202017A
:102C4000884226D040F288411EE04021C4F20201B1
:102C500088421ED0582117E040F24041C4F20201E0
:102C6000884216D040F258410EE0A021C4F2020181
:102C700088420ED0B82107E040F2B841C4F2020108
:102C8000884206D040F2A041C4F20201884240F0DE
:102C9000298121680B25226C0B6865F344030B60C6
:102CA0001AB10A6842F008020A60B84219DC9F2192
:102CB000C4F20201884231DC5721C4F20201884289
:102CC00056DC1021C4F20201884200F091802821D4
:102CD000C4F20201884200F08B804021C4F202015C
:102CE00084E045F22F41C5F6020188422BDC40F218
:102CF000B741C4F20201884248DC40F27041C4F29C
:102D00000201884274D040F28841C4F20201884234
:102D10006ED040F2A041C4F2020167E040F22741C8
:102D2000C4F20201884240DCA021C4F202018842C0
:102D30005ED0B821C4F20201884259D040F210415D
:102D4000C4F2020152E045F26B41C5F6020188422D
:102D50003CDC45F23041C5F60201884248D045F2DC
:102D60004441C5F60201884242D045F258413BE059
:102D70005821C4F2020188423AD07021C4F2020103
:102D8000884235D08821C4F202012FE040F2B841D8
:102D9000C4F2020188422BD045F20841C5F6020177
:102DA000884225D045F21C411EE040F22841C4F281
:102DB000020188421CD040F24041C4F20201884224
:102DC00016D040F25841C4F202010FE045F26C41C6
:102DD000C5F6020188420BD045F29441C5F60201C6
:102DE000884205D045F28041C5F60201884272D181
:102DF000216E0A68D20303D50A6842F480720A6021
:102E0000E16E19B10A6842F480720A60B04210DCC7
:102E10006F21C4F2020188421CDC3F21C4F202018E
:102E2000884232DC1021C4F20201884252D02821AB
:102E30004AE0B8421ADC40F23F41C4F20201884243
:102E40002ADC40F21041C4F20201884242D040F232
:102E5000284139E09F21C4F20201884225DC70211B
:102E6000C4F20201884235D088212DE040F29F4112
:102E7000C4F2020188421FDC40F27041C4F2020138
:102E8000884227D040F288411EE04021C4F202016E
:102E900088421FD0582117E040F24041C4F202019D
:102EA000884217D040F258410EE0A021C4F202013E
:102EB00088420FD0B82107E040F2B841C4F20201C5
:102EC000884207D040F2A041C4F20201884208BF04
:102ED000206800E02068016841F0010101600020E5
:102EE00001B0F0BD21680525226C0B68002A65F34E
:102EF00043030B603FF4D9AE0A6842F00402D3E604
:102F00002DE9F04F83B00C68002C00F0C68000F172
:102F1000264242F2004702F1FF72C5F602074FEA6D
:102F2000B22201920A22B84208BF092200250027D6
:102F30004FF0010A009209E00C68043734FA0AF2F3
:102F40000AF1010A05F1020500F0A780AAF10109C2
:102F5000012202FA09FE14EA0E08EDD0D1F804B0FD
:102F60000BF00304A4F1010CBCF1010F11D80322F2
:102F70008668AA40CB6826EA0202AB401A43826008
:102F8000CBF30013426822EA0E0203FA09F31A4354
:102F90004260032C1ED00323C268AB40022C22EAFD
:102FA00003028B6803FA05F342EA0302C26011D1FF
:102FB0006FF0030207F01C0602EA59020F230244D5
:102FC00003FA06F4D2F820C00B692CEA0404B340DB
:102FD0002343136203230268AB404E689A4306F012
:102FE0000303AB4016F4403F42EA03020260A3D061
:102FF00044F2F44340F2084EC5F60203C5F6000E53
:103000001A6842F002021A601A6807F00C0302F014
:1030100002020292029A29F00302019C009E092CEE
:1030200038BF26460F2452F80EC09C402CEA0404F8
:1030300006FA03F34FF0B04C234342F80E30DCF8AD
:1030400000204B6842EA0806DC0258BF22EA080664
:103050009C02CCF8006040F2040CC5F6000CDCF8D1
:10306000002042EA080658BF22EA08069C03CCF872
:103070000060DCF8802042EA080658BF22EA080611
:10308000DB03CCF88060DCF87C2042EA080658BFFD
:1030900022EA0806CCF87C604EE703B0BDE8F08F6A
:1030A000002A08BF09048161704700000000000089
:1030B00041F20000C5F600400068000C70470000B7
:1030C00040F2DC10C2F200400068704700000000CF
:1030D00040F2100040F2DC11C2F20040C2F20041A6
:1030E00000780A6810440860704700000000000083
:1030F00080B5032000F0D0F801F072FA44F21841D4
:1031000046F6C233C5F60201C0F600030A68096834
:1031100001F00F01C2F30322595C9A5C01F01F0118
:1031200002F01F02D04040F20C02C2F2004220FA2C
:1031300001F1116040F20801C2F2004108600F2065
:1031400000F00AF800281CBF012080BD00F080F8C4
:10315000002080BD00000000B0B540F21001C2F2B6
:103160000041097801B3044640F20800C2F2004071
:103170004FF47A72B2FBF1F10068B0FBF1F001F0AC
:10318000C7FD0F2C4FF001050CD858B94FF0FF3098
:1031900000222146002500F06FF840F21400C2F230
:1031A000004004602846B0BD0120B0BD0000000012
:1031B000B0B502784EF69C5CCEF2000C43784CF829
:1031C000043CF2B14368CCF80030037BC17A90F83C
:1031D0000AE0457B447A42EA0372837B42EA01615A
:1031E000C27B41EACE41007A41EA854141EA43414E
:1031F00041EA024141EA042141EA4000CCF80400DE
:10320000B0BD0020CCF80000CCF80400B0BD000038
:103210004EF62450CEF20000BFF35F8F016821F418
:10322000803101600021016770470000000000004C
:103230004EF6245140F00100CEF200010867086804
:1032400040F480300860BFF34F8FBFF36F8F70473B
:1032500081B044F2F440C5F60200016841F0020179
:103260000160006800F002000090009801B0704713
:1032700080B502F0F5FE80BD70B514460D460646D9
:1032800002F0FEFE2946224602F0B2F80146304620
:1032900002F0FEFE70BD000080B502F00DFF80BDA3
:1032A000B0B544F60C05C5F602052968490729683A
:1032B00005D401F00701081A18BF0120B0BD21F0A4
:1032C000070108432860FFF7FBFE044655F8080C89
:1032D000800407D4FFF7F4FE001BB0F57A7FF5D920
:1032E0000120B0BD0020B0BD80B501F029F944F245
:1032F000204146F6C232C5F60201C0F60002096856
:10330000C1F30211515C01F01F01C84080BD0000F3
:1033100080B544F2304EC5F6020E5EF8083C5EF809
:10332000081CC1F3051C5EF8041CBCF1000FDEF89C
:10333000042016D0C2F3CC0201F00101514303F086
:103340000303022B00EE101AB8EE400A0ED0012B38
:103350000FD01BB95EF8301C89060DD49FED341ACE
:1033600018E000218160C0E9001180BD9FED2F1A97
:1033700010E09FED2D1A0DE05EF8301C49F20002BE
:10338000C0F2D032C1F3C10122FA01F101EE101AEC
:10339000B8EE411ADEF800109FED263A6FF35F2178
:1033A00002EE101ADEF80010C1F34621B8EE422AF0
:1033B00000EE032A00EE10CAB7EE003AB8EE400A5B
:1033C00081EE000A32EE031A02EE101AB8EE422A1B
:1033D00020EE010A32EE031A80EE011ABCEEC11A89
:1033E00080ED001ADEF80010C1F3064101EE101A5C
:1033F000B8EE411A31EE031A80EE011ABCEEC11A82
:1034000080ED011ADEF80010C1F3066101EE101A1A
:10341000B8EE411A31EE031A80EE010ABCEEC00A82
:1034200010EE101A816080BD0024744A20BCBE4B8F
:103430000024744C0000003980B544F2384EC5F6C3
:10344000020E5EF8103C5EF8101CC1F3053C5EF8FD
:103450000C1CBCF1000FDEF8042014D0C1F30011E5
:10346000C2F3CC02514300EE101A03F0030102290B
:10347000B8EE400A0CD071B95EF8381C89060DD43C
:103480009FED341A18E000218160C0E9001180BD71
:103490009FED2F1A10E09FED2D1A0DE05EF8381CFD
:1034A00049F20002C0F2D032C1F3C10122FA01F1A7
:1034B00001EE101AB8EE411ADEF800109FED263A20
:1034C0006FF35F2102EE101ADEF80010C1F34621FF
:1034D000B8EE422A00EE032A00EE10CAB7EE003A18
:1034E000B8EE400A81EE000A32EE031A02EE101A1C
:1034F000B8EE422A20EE010A32EE031A80EE011ADB
:10350000BCEEC11A80ED001ADEF80010C1F30641CE
:1035100001EE101AB8EE411A31EE031A80EE011ACC
:10352000BCEEC11A80ED011ADEF80010C1F306618D
:1035300001EE101AB8EE411A31EE031A80EE010ABC
:10354000BCEEC00A10EE101A816080BD0024744ADF
:1035500020BCBE4B0024744C000000390000000069
:1035600080B544F2404EC5F6020E5EF8183C5EF897
:10357000181CC1F3055C5EF8141CBCF1000FDEF8EA
:10358000042014D0C1F30021C2F3CC02514300EE59
:10359000101A03F003010229B8EE400A0CD071B9E9
:1035A0005EF8401C89060DD49FED341A18E0002106
:1035B0008160C0E9001180BD9FED2F1A10E09FEDE2
:1035C0002D1A0DE05EF8401C49F20002C0F2D03224
:1035D000C1F3C10122FA01F101EE101AB8EE411A4D
:1035E000DEF800109FED263A6FF35F2102EE101A0D
:1035F000DEF80010C1F34621B8EE422A00EE032A9D
:1036000000EE10CAB7EE003AB8EE400A81EE000AAA
:1036100032EE031A02EE101AB8EE422A20EE010A28
:1036200032EE031A80EE011ABCEEC11A80ED001AC8
:10363000DEF80010C1F3064101EE101AB8EE411A8F
:1036400031EE031A80EE011ABCEEC11A80ED011AA8
:10365000DEF80010C1F3066101EE101AB8EE411A4F
:1036600031EE031A80EE010ABCEEC00A10EE101A09
:10367000816080BD0024744A20BCBE4B0024744C81
:10368000000000390000000080B584B00146B0F5AC
:10369000805F4FF0000023DBB1F5004F5BDB00F0F3
:1036A0007880B1F5803F00F0B380B1F5002F40F095
:1036B0001E8144F20040C5F60200816D01F44031E4
:1036C000B1F5003F00F01981B1F5803F00F0FF80B7
:1036D000002940F02F810068000140F12B81C5E0F6
:1036E000B1F5806F1CDAB1F5807F00F06B80B1F529
:1036F000007F40F0FC8044F20041C5F60201086DF5
:10370000C0F38212042A00F2158148F20000C0F2D0
:10371000BB00DFE812F09F00A800AF00EC00B8008B
:1037200000F06380B1F5006F40F0E18044F20041A9
:10373000C5F60201886DC0F30262042A00F2FA8025
:1037400048F20000C0F2BB00DFE812F084008D00F8
:103750009400D1009D00B1F5805F00F06880B1F564
:10376000804F40F0C48044F20040C5F60200816DF5
:10377000C1F30271052900F2DD80DFE811F00600D7
:10378000CA00D100D800DE001C00FFF7ADFD04B078
:1037900080BD44F20040C5F60200016D01F04051C9
:1037A000B1F1005F00F09C80B1F1805F00F0A1807A
:1037B000002940F0BF80006847F640018003C0F256
:1037C0007D11C0E044F20041C5F60201086D00F031
:1037D0000702042A00F2AE8048F20000C0F2BB00EB
:1037E000DFE802F038414885510044F20041C5F657
:1037F0000201886DC0F34252042A00F29B8048F215
:103800000000C0F2BB00DFE802F0252E35723E005A
:1038100044F20040C5F60200C16C0068C9031AD525
:10382000000140F1878001A8FFF706FE55E044F251
:103830000041C5F60201086DC0F30232042A00F20D
:10384000798048F20000C0F2BB00DFE802F0030C10
:1038500013501C00086880016CD501A8FFF758FDC3
:10386000029804B080BD0868000163D501A8FFF785
:10387000E3FD05E0086880005CD501A8FFF770FE55
:10388000019804B080BDC86C0B6810F04052086805
:103890000CD113F0040309D0C0F3C10049F20001B8
:1038A000C0F2D03121FA00F004B080BDB2F1805FE7
:1038B00002D110F4807050D1086810F400301CBFA1
:1038C00047F64000C0F27D10B2F1005F57E000689B
:1038D00080002FD501A8FFF743FE039804B080BDF8
:1038E0000068000126D501A8FFF7A6FD029804B0E4
:1038F00080BD006880011DD5AFE7C16C036811F081
:103900004051026823D113F0040320D0C2F3C10058
:10391000C4E7006800010DD501A8FFF78DFD9FE702
:103920000068800006D501A8FFF71AFE98E7016835
:10393000490718D4002004B080BD006840F600118B
:10394000C005C0F23D0101EAE07004B080BDB1F1F4
:10395000805F0AD112F4807207D040F60010C0F2E6
:103960003D0004B080BD006896E7006810F40030A8
:103970001CBF47F64000C0F27D10B1F1005F18BFD8
:10398000002004B080BD00002DE9F04381B0044662
:10399000C07844F22C490007C5F6020901D400267C
:1039A0002DE0606E4FEA305003280DD80026DFE886
:1039B00000F0020E1613D9F80000002640F4003083
:1039C000C9F800004EB912E0012636B90FE0201DFB
:1039D000022101F029FD06464EB1B04611E004F186
:1039E0002400022101F0B0FD0646002EF5D1D9F8E1
:1039F0002400616E20F440100843C9F824004FF001
:103A000000086078C0072FD0606D042807D8DFE871
:103A100000F00A131B030300F6B1B04624E00126B0
:103A2000002EFAD118E0D9F8000040F40030C9F8AF
:103A30000000002EF1D10FE0201D002101F0F4FC68
:103A40000646002EE9D107E004F12400002101F030
:103A50007BFD0646002EE0D1D9F82400616D20F0F0
:103A600007000843C9F824006078800731D5A06DAD
:103A70004FEAB010042807D8DFE800F00A131B0350
:103A80000300F6B1B04624E00126002EFAD118E07A
:103A9000D9F8000040F40030C9F80000002EF1D140
:103AA0000FE0201D002101F0BFFC0646002EE9D1E9
:103AB00007E004F12400002101F046FD0646002E37
:103AC000E0D1D9F82400A16D20F4E0700843C9F8D2
:103AD00024006078400733D5D4F8A4004FEA705032
:103AE000042807D8DFE800F00A131B030300F6B12F
:103AF000B04625E00126002EFAD118E0D9F80000E2
:103B000040F40030C9F80000002EF1D10FE0201D74
:103B1000002101F089FC0646002EE9D107E004F1FE
:103B20002400002101F010FD0646002EE0D1D9F856
:103B30002C00D4F8A41020F460000843C9F82C002D
:103B40006078000733D5D4F8A8004FEA3060042825
:103B500007D8DFE800F00A131B030300F6B1B046F4
:103B600025E00126002EFAD118E0D9F8000040F433
:103B70000030C9F80000002EF1D10FE0201D002117
:103B800001F052FC0646002EE9D107E004F12400C2
:103B9000002101F0D9FC0646002EE0D1D9F82C0016
:103BA000D4F8A81020F0E0600843C9F82C00E078B1
:103BB000800727D5A06C4FEA3010032806D8DFE82D
:103BC00000F002091202AEB1B0461BE00126002E41
:103BD000FAD10FE0D9F8000040F40030C9F8000035
:103BE000002EF1D106E0201D022101F01DFC064649
:103BF000002EE9D1D9F82000A16C20F03000084354
:103C0000C9F820006078C00631D5E06D4FEA303049
:103C1000042807D8DFE800F00A131B030300F6B1FD
:103C2000B04624E00126002EFAD118E0D9F80000B1
:103C300040F40030C9F80000002EF1D10FE0201D43
:103C4000002101F0F1FB0646002EE9D107E004F166
:103C50002400002101F078FC0646002EE0D1D9F8BE
:103C60002400E16D20F4E0400843C9F824006078A6
:103C7000800625D5206E4FEA3040052807D8DFE8BA
:103C800000F0030A0F03030396B1B04618E00126C3
:103C9000002EFAD10CE0201D012101F0C5FB04E04B
:103CA00004F12400012101F04FFC0646002EECD166
:103CB000D9F82400216E20F4E0200843C9F824003C
:103CC0006078400627D5D4F8AC004FEA307005285C
:103CD00007D8DFE800F0030A0F03030396B1B046EC
:103CE00019E00126002EFAD10CE0201D012101F07F
:103CF0009BFB04E004F12400012101F025FC0646B1
:103D0000002EECD1D9F82C00D4F8AC1020F0E04013
:103D10000843C9F82C00607800061FD5E06ED0B1CA
:103D2000B0F1005F12D0B0F1805F24D1D9F800006B
:103D300040F40030C9F800007EB9D9F82400E16EE3
:103D400020F040500843C9F8240007E0201D01215D
:103D500001F06AFB0646002EEFD0B046E078C007BF
:103D600029D0606C03280AD8DFE800F0020D1602A3
:103D7000CEB1B0461FE00126002EEED1DDE70126D0
:103D8000002EF6D10FE0D9F8000040F40030C9F859
:103D90000000002EEDD106E0201D022101F044FBC1
:103DA0000646002EE5D1D9F82000616C20F0030012
:103DB0000843C9F82000A078400643D5D9F8D403B9
:103DC00040F48070C9F8D403FFF77AF9074600BFC2
:103DD000D9F8D403C00505D4FFF772F9C01B6528D4
:103DE000F6D303266EBBD9F84410D4F8B000414096
:103DF00011F4407F11D0D9F84410D9F8442042F48E
:103E00008032C9F84420D9F8442021F4407122F4CA
:103E10008032C9F84420C9F84410B0F5807F0FD132
:103E2000FFF74EF9074641F2893500BFD9F8440043
:103E3000800705D4FFF744F9C01BA842F6D3032638
:103E400086B1B0462078C00741D0A06F4FEAF0009D
:103E5000052823D8DFE800F003262B03030376B3FD
:103E6000B04634E04FF6CF73D4F8B00059F81C2CAC
:103E7000C0F2FF0300F4407122F47C5203EA1013F5
:103E8000B1F5407F08BF1A436FF31F3049F81C2C6F
:103E9000D9F844100843C9F84400D3E70126002E9E
:103EA000DED10CE0201D012101F0BEFA04E004F196
:103EB0002400012101F048FB0646002ED0D1D9F89C
:103EC0002800A16F20F038000843C9F828002078A6
:103ED000800723D5606F052807D8DFE800F0030AC4
:103EE0000F03030396B1B04618E00126002EFAD165
:103EF0000CE0201D012101F097FA04E004F12400F8
:103F0000012101F021FB0646002EECD1D9F8280052
:103F1000616F20F007000843C9F8280020784007A7
:103F200025D5D4F89000052807D8DFE800F0030A6B
:103F30000F03030396B1B04619E00126002EFAD113
:103F40000CE0201D012101F06FFA04E004F12400CF
:103F5000012101F0F9FA0646002EECD1D9F82C0027
:103F6000D4F8901020F007000843C9F82C002078FE
:103F7000800627D5D4F88C004FEA3070052807D882
:103F8000DFE800F0030A0F03030396B1B04619E01F
:103F90000126002EFAD10CE0201D002101F044FA88
:103FA00004E004F12400022101F0CEFA0646002EBE
:103FB000ECD1D9F82800D4F88C1020F0E040084368
:103FC000C9F828002078400627D5D4F898004FEA91
:103FD000B020052807D8DFE800F0030A0F03030329
:103FE00096B1B04619E00126002EFAD10CE0201D52
:103FF000002101F019FA04E004F12400022101F08B
:10400000A3FA0646002EECD1D9F82C00D4F898106B
:1040100020F4E0500843C9F82C002078000627D58A
:10402000D4F89C004FEA7030052807D8DFE800F08C
:10403000030A0F03030396B1B04619E00126002ED0
:10404000FAD10CE0201D002101F0EEF904E004F1AA
:104050002400022101F078FA0646002EECD1D9F8AE
:104060002C00D4F89C1020F460400843C9F82C00C0
:104070002078000716D5D4F88000B0F5805F08D10D
:1040800004F12400022101F05FFA002818BF4FF06C
:104090000108D9F82800D4F8801020F440500843D3
:1040A000C9F828002078C00616D5D4F89400B0F5D9
:1040B000807F08D104F12400022101F045FA002894
:1040C00018BF4FF00108D9F82C00D4F8941020F450
:1040D00040700843C9F82C00A078000721D5D4F817
:1040E000A000B0F5003F19D0B0F5803F10D0C0BBA4
:1040F000201D002101F098F906468EB9D9F82C0050
:10410000D4F8A01020F440300843C9F82C0008E08F
:1041100004F12400022101F017FA0646002EEDD02A
:10412000B046A078400729D5D4F88400B0F5401FE8
:1041300021D0B0F5001F18D0B0F5801F40F0C1802D
:10414000D9F8000040F40030C9F80000AEB9D9F841
:104150002800D4F8841020F440100843C9F828003F
:104160000CE00126002EDBD1C8E704F12400012178
:1041700001F0EAF90646002EE9D0B046A078C00763
:104180001FD0E06CB0F5803F10D0B0B9D9F8000076
:1041900040F40030C9F8000096B9D9F82000E16C6D
:1041A00020F480300843C9F820000AE0201D0221D5
:1041B00001F03AF906461EB9EFE70126002EECD0D1
:1041C000B046E078800608D504F12400022101F011
:1041D000BBF9002818BF4FF00108206881031ED4E6
:1041E000C10234D4C1003CD4810245D441004DD435
:1041F000B0F1FF3F5ADD000208D5D9F82800D4F805
:10420000881020F440000843C9F82800B8F1000FD6
:1042100018BF4FF00108404601B0BDE8F083E16FE0
:104220006FF0010202EB3122022A0AD34FEA312257
:104230003AB1012A4AD1D9F8002042F40032C9F833
:104240000020002E45D04FF00108C102CAD5D9F890
:104250002410226F21F000411143C9F82410C1003D
:10426000C2D559F81C1CD4F8B42021F48041114364
:1042700049F81C1C8102B9D5D9F82410A26E21F08E
:1042800080711143C9F824104100B1D559F81C1CA4
:1042900021F4004149F81C1CD4F8B81059F81C2C22
:1042A000114349F81C1CB0F1FF3FA4DCD9F82010E1
:1042B000226D21F040511143C9F820100002A5D50C
:1042C0009BE70126002E7FF458AF40E70126002E21
:1042D000B9D1D9F8282022F440721143C9F8281026
:1042E000C1027FF57FAFB2E72DE9F04381B000282E
:1042F00000F0F48042F200080446C5F20028894626
:10430000D8F8000000F00F0088420ED2D8F8000064
:1043100020F00F0040EA0900C8F80000D8F80000BB
:1043200000F00F00484540F0D980206844F218475B
:104330004107C5F602070AD521693A6802F0700202
:10434000914204D93A6822F07002114339600107A2
:104350000AD561697A6802F07002914204D97A68DC
:1043600022F0700211437960C1060AD5A1697A680A
:1043700002F4E062914204D97A6822F4E0621143C7
:10438000796081060AD5E169BA6802F0700291424B
:1043900004D9BA6822F070021143B96081070AD5C6
:1043A000E1683A6802F00F02914204D93A6822F0BB
:1043B0000F0211433960C0077ED1206881070AD5FA
:1043C000E1683A6802F00F02914204D23A6822F0A2
:1043D0000F0211433960D8F8001001F00F01494570
:1043E0000DD9D8F8001021F00F0141EA0901C8F8F1
:1043F0000010D8F8001001F00F0149456ED14107B7
:104400000AD521693A6802F07002914204D23A68F2
:1044100022F070021143396001070AD561697A6898
:1044200002F07002914204D27A6822F070021143C5
:104430007960C1060AD5A1697A6802F4E062914206
:1044400004D27A6822F4E0621143796080060AD5CA
:10445000E069B96801F07001884204D2B96821F0BE
:1044600070010843B86000F0BBF8396846F6C23204
:10447000C0F600023B68C1F3032103F00F03515C57
:10448000D25C01F01F01C84002F01F0140F20C0293
:1044900020FA01F1C2F20042116040F2080140F23C
:1044A0001402C2F20041C2F2004208601068FEF736
:1044B00053FE01B0BDE8F083386820F47061D4E9A0
:1044C0000102012841EA020139600BD003282BD0F8
:1044D00002282ED157F8181C890307D4012001B0F7
:1044E000BDE8F08357F8181CC905F7D557F8081C24
:1044F00021F00701084347F8080CFEF7E1FD0646E6
:1045000041F2883557F8080C616800F03800B0EBCC
:10451000C10F3FF452AFFEF7D3FD801BA842F1D983
:10452000032001B0BDE8F08357F8181C8901D5D5E8
:10453000DCE757F8181C4907D0D5D7E70000000082
:1045400080B500F04DF844F2184146F6C233C5F686
:104550000201C0F600030A68096801F00F01C2F306
:104560000322595C9A5C02F01F0220FA02F201F069
:104570001F0040F20C0122FA00F0C2F20041086074
:1045800040F20801C2F200410A6080BD0000000054
:1045900080B5FFF7D5FF44F21C4146F6C232C5F69E
:1045A0000201C0F600020968C1F30211515C01F07A
:1045B0001F01C84080BD000080B5FFF7C1FF44F275
:1045C0001C4146F6C232C5F60201C0F60002096877
:1045D000C1F30221515C01F01F01C84080BD000001
:1045E00044F20041C5F602010869C0F3C200032885
:1045F0000FD002282AD070BB0868800649F200005C
:10460000C0F2D03058BF70470968C1F3C101C8403B
:1046100070478A6A886AC0F3051CC86ABCF1000F3B
:104620004B6B1DD0C3F3CC0300F00100584302F0E4
:104630000302022A00EE100AB8EE400A12D0A2B914
:104640000868800614D49FED261A1EE047F6400045
:10465000C0F27D10704740F60010C0F23D00704778
:10466000002070479FED1D1A0FE09FED1B1A0CE014
:10467000086849F20002C0F2D032C0F3C10022FA49
:1046800000F001EE100AB8EE411A086B9FED153AE2
:104690006FF35F2002EE100A086BC0F34620B8EEFD
:1046A000422A013000EE032A00EE10CAB7EE003AAB
:1046B000B8EE400A81EE000A32EE031A20EE010A3B
:1046C00001EE100AB8EE411A80EE010ABCEEC00AF3
:1046D00010EE100A704700BF0024744A20BCBE4B85
:1046E0000024744C000000392DE9F04381B0F8B18A
:1046F0008046007844F20049C007C5F602095AD046
:10470000D9F8100000F03801D9F82800102905D098
:1047100018290FD100F0030002280BD1D9F80000AE
:10472000800344D5D8F80400002840D101272FE0A9
:10473000012735E2D8F804402CB1B4F5A02F0DD0F4
:10474000B4F5803F10D0D9F8000020F48030C9F8CB
:104750000000D9F8000020F4802009E0D9F800001A
:1047600040F48020C9F80000D9F8000040F48030FF
:10477000C9F80000FEF7A4FC0546A4B1D9F8000072
:10478000800314D4FEF79CFC401B6428F6D9032751
:104790000020002800F004820DE000BFFEF790FC2E
:1047A000401B6428F3D8D9F800008003F6D4012018
:1047B000002800F0F58198F80000800740F184801F
:1047C000D9F8100010F03801D9F828001CD01829A9
:1047D00008BF5FEA807017D0D8F80C00D9F8001035
:1047E000002847D021F019010843C9F80000FEF75E
:1047F00067FC0546D9F8000040072AD4FEF760FCA4
:10480000401B0228F6D91EE0D9F80000400704D565
:10481000D8F80C00002800F09181D9F80000D8F8F1
:104820000C1020F019000843C9F80000FEF748FCFE
:10483000054600BFD9F8000040070AD4FEF740FC47
:10484000401B0228F6D903270024002C00F0A88181
:104850003AE0FEF72DFC41F20301884223D8D8F854
:104860001000D9F80410402821F47C3124D141F4FF
:10487000003023E021F00100C9F80000FEF720FC21
:1048800005460126D9F8000010F0040086EA9004DD
:1048900017D0FEF715FC401B0328F3D30327002C89
:1048A00000F07E8110E0D9F80400D8F8101020F054
:1048B000FE4040EA016001E041EA0030C9F804002E
:1048C0000124002C00F06C8198F80000C00674D51B
:1048D000D9F8100000F03801D9F82800082905D0CF
:1048E00018291CD100F00300012818D1D9F80000C4
:1048F000C00503D5D8F81C00802859D1FEF7D8FB95
:1049000041F20301884222D8D8F82000D9F80410D7
:10491000202821F0F84142D141F0804041E0D8F810
:104920001C000028D9F8000020D040F08000C9F811
:104930000000FEF7C5FB0546D9F80000C005DDD430
:10494000FEF7BEFB401B0228F6D9032731E0D9F859
:104950000C00D8F8201020F07C50012440EA0160BF
:10496000C9F80C00002C00F01B8126E020F080002C
:10497000C9F80000FEF7A4FB05460126D9F800009F
:1049800010F4807086EA10240ED0FEF799FB401BCD
:104990000328F3D30327002C00F002810DE041EA45
:1049A0008060C9F804000124002C00F0F98004E0C4
:1049B00001270024002C00F0F38098F80000000785
:1049C0001CD498F80000800631D498F80000400705
:1049D00045D4D8F82440002C00F0E180D9F810002C
:1049E00000F03800182840F08880012CD9F82810F1
:1049F000D9F8300040F0A4800127D1E0D8F81400A5
:104A00000028D9F874003ED040F00100C9F87400C5
:104A1000FEF756FB054600BFD9F874008007D0D4D6
:104A2000FEF74EFB401B0228F6D90327B8E0D8F862
:104A300018000028D9F800004BD040F48050C9F885
:104A40000000FEF73DFB0546D9F800008004BCD409
:104A5000FEF736FB401B0228F6D90327A0E0D9F861
:104A6000000440F48070C9F80004FEF729FB0546F5
:104A7000D9F80004C0051AD4FEF722FB401B6428B5
:104A8000F6D903278CE020F00100C9F87400FEF786
:104A900017FB0546032700BFD9F8740080077FF590
:104AA00090AFFEF70DFB401B0228F5D978E0D8F84F
:104AB00008401CB1052C77D0012C7BD0D9F87000B0
:104AC00020F00100C9F87000D9F8700020F004004F
:104AD00074E020F48050C9F80000FEF7F1FA0546B2
:104AE000032700BFD9F8000080047FF56EAFFEF702
:104AF000E7FA401B0228F5D952E0D9F8000020F06F
:104B00008070C9F80000FEF7DBFA022C05464FF072
:104B1000030709D1D9F80000800171D5FEF7D0FA5A
:104B2000401B0228F6D93BE0D9F80000800136D5B9
:104B3000FEF7C6FA401B0228F6D931E0012783E6CA
:104B400001F00302D8F828309A4240F0D380C1F334
:104B50000511D8F82C20914240F0CE800146D8F8BB
:104B600030206FF35F21013A914240F0C780C0F3DB
:104B70004622D8F8341001398A4240F0C180C0F38F
:104B80000642D8F8381001398A4240F0BB80C0F3A1
:104B90000660D8F83C100139884240F0B580002703
:104BA000F8B201B0BDE8F083D9F8700040F004001D
:104BB000C9F87000D9F8700040F00100C9F8700021
:104BC000FEF77EFA002C054641F288344FF00307C9
:104BD00011D000BFD9F8700080073FF5FAAEFEF79C
:104BE0006FFA401BA042F5D9DAE700BFFEF768FA7A
:104BF000401BA042D4D8D9F870008007F6D4E8E66C
:104C000008F12807D9F8280040F2F33188438ECF05
:104C10000843591E40EA02104FF47E426FF35F21B1
:104C2000C9F8280002EB47204FF4FE0280B2D8F802
:104C30003C300844D8F8381002EB01414FF0FE42F6
:104C400001F4FE0102EB0362084402F0FE41084455
:104C5000C9F83000D9F82C004FF6F87120F00100A7
:104C6000C9F82C00D9F83400D8F84820884340EA25
:104C7000C200C9F83400D9F82C00D8F8401020F050
:104C80000C000843C9F82C00D9F82C00D8F84410BF
:104C900020F002000843C9F82C00D9F82C0040F499
:104CA0008030C9F82C00D9F82C0040F40030C9F845
:104CB0002C00D9F82C0040F48020C9F82C00D9F839
:104CC0002C0040F00100C9F82C00D9F8000040F099
:104CD0008070C9F80000FEF7F3F904460327D9F8FD
:104CE000000080013FF55BAFFEF7EAF9001B0228E8
:104CF000F5D955E7012753E7012751E701274FE78A
:104D000001274DE701274BE7012749E70000000095
:104D100080B500F0ADFC80BD90F88010012901D174
:104D2000022070472421C0F88410026813681168BB
:104D300023F0005321F0010111600021416613604E
:104D40002022C0F8842080F88010084670470000B8
:104D5000B0B5044690F88000012801D10220B0BD12
:104D6000012084F880002420C4F8840020680568AD
:104D7000026822F001020260826822F06062114340
:104D80008160204600F058FD206805602020C4F8AE
:104D90008400002084F88000B0BD00000000000006
:104DA000B0B5044690F88000012801D10220B0BDC2
:104DB000012084F880002420C4F88400206805685D
:104DC000026822F001020260826822F06042114310
:104DD0008160204600F030FD206805602020C4F886
:104DE0008400002084F88000B0BD000000000000B6
:104DF00010B5B0B10446D0F8840028B9002084F87A
:104E00008000204600F028F82420C4F884002068A0
:104E1000016821F001010160204600F0E1FD012858
:104E200001D1012010BDA06A10B1204600F030FD74
:104E30002068416821F490414160816821F02A0195
:104E40008160016841F001010160204600F090FDA1
:104E500010BD000000000000B0B5B6B0044602A8C6
:104E6000BC210025CDE93455CDE932553195FBF70C
:104E700067FA41F200012068C4F20101884201D0C2
:104E800036B0B0BD0120029002A82095FEF77CFD4F
:104E900008B1FCF739F944F2E040C5F602000169B7
:104EA00041F010010161016901F0100101910199C6
:104EB000016841F001010160006831A900F00100C2
:104EC000019001984FF4C060319002203290002090
:104ED000CDE93300072035900020C5F60200FEF72B
:104EE0000FF836B0B0BD00002DE9F04381B00446A4
:104EF000D0F8840020280BD10E4600294FF0010085
:104F00005CD01746002A59D094F88000012803D1BC
:104F1000022001B0BDE8F0831D46012084F8800026
:104F20004FF00009C4F88C902120C4F88400FEF7EB
:104F3000C7F8A4F85470A4F856700746A168B1F5F4
:104F4000805F07D1206900281CBF30464E46B0461E
:104F5000064601E04FF0000884F8809009E000BFA9
:104F6000206816F8011B8162B4F856000138A4F8D5
:104F70005600B4F8560088B18021002220463B46F6
:104F8000009500F0F1FF88B9002EE9D138F8020B46
:104F9000216800266FF35F208862E5E74021002248
:104FA00020463B46009500F0DFFF18B1032001B01A
:104FB000BDE8F0832020C4F88400002001B0BDE8E3
:104FC000F083000000000000FEE700000000000089
:104FD0004FF6C0728168C5F6FF721140816070475C
:104FE0004FF6C0728168C7F6FF72114001318160CF
:104FF00070470000000000004FF6C0728168C6F6DE
:10500000FF72114001F18051816070470000000083
:10501000806800F0E0707047806800F01F00704703
:105020008068C0F3C00070478068C0F3407070476C
:10503000806800F0010070478068C0F3007070471E
:105040008068C0F380007047C06800F44060B0FA28
:1050500080F0400970470000C26822F0030211434B
:10506000C16070470000000080B5C1F3012301F06A
:105070001F01C2F384624FF01F0C00EB83000CFA97
:1050800001F3D0F830E002FA01F12EEA03031943EC
:10509000016380BD000000004FF6C0728168C7F652
:1050A000FF72114004318160704700000000000071
:1050B00080B5C1F340634FF0070CC1F3045100EB1E
:1050C00083000CFA01F3D0F814E002FA01F12EEAA1
:1050D00003031943416180BD80B54FF6FF7ECB438A
:1050E000C0F20F0E02F01802D0F8C0C063EA0E033F
:1050F0002EFA02F203EA0C0311401943C0F8C01063
:1051000080BD000000000000826822F47C12114380
:105110008160704700000000826822F0E072114355
:105120008160704700000000036901F01F0123F453
:10513000F04302FA01F119430161704700000000D9
:1051400000EB810002F0F8421A43016E01F00041C9
:10515000114301667047000000EB8100016E21F0F1
:10516000004111430166704710B584B00024CDE9B9
:105170000244CDE90044FEF74BF80120ADF80000F1
:1051800048F21F70029040F20110039068460194AB
:10519000FEF70EF80420FEF74BF804B010BD000037
:1051A000B0B588B040F26C0046F20001C2F2004097
:1051B00000240794C5F60201CDE90544CDE9034476
:1051C000CDE901440160012184600425C1604FF4F0
:1051D000807105618182032185610477C0E90944FA
:1051E000C1624FF48051C0E90C1480F83840FCF7DC
:1051F0002BF908B1FBF788FF40F6000001A9C2F6C1
:1052000030600190062002900720039040F2FF706A
:105210000694CDE9040540F26C008DF81D40C2F201
:105220000040FBF779FF08B1FBF76EFF41F2000089
:1052300001A9C3F2602001900C20029040F26C00A2
:10524000C2F20040FBF768FF08B1FBF75DFF0020EA
:1052500001A9CCF6B87001901220029040F26C00C7
:10526000C2F20040FBF758FF08B1FBF74DFF0020EA
:1052700001A9CCF6843001901820029040F26C0015
:10528000C2F20040FBF748FF08B1FBF73DFF08B052
:10529000B0BD00000000000080B582B044F2E040E4
:1052A0000022C5F60200016841F4001101600068A7
:1052B000002100F40010019001988020FDF7DCFF30
:1052C0008020FDF7D5FF812000210022FDF7D4FFCB
:1052D0008120FDF7CDFF02B080BD0000000000007E
:1052E000F0B587B044F2E0400025C5F6020006950F
:1052F000CDE90455CDE90255016840F6000441F0BE
:10530000010101600168C5F6020401F0010101918B
:105310000199016841F0040101600168012201F076
:10532000040101910199016841F080010160006868
:105330004FF4005100F080000190019820464FF496
:1053400000560127FDF7ACFE02A92046CDE9026711
:10535000CDE90475FDF7D4FD07B0F0BD00000000F5
:1053600080B540F2481041F20001C2F20040C4F2A0
:1053700001010C2201604FF4E13141600021C0E9DC
:1053800002110161C0E90521C0E90711C0E9091155
:10539000FFF72EFD08B1FBF7B7FE40F248100021E1
:1053A000C2F20040FFF7FCFC08B1FBF7ADFE40F293
:1053B00048100021C2F20040FFF7CAFC08B1FBF719
:1053C000A3FE40F24810C2F20040FFF7A5FC0028FF
:1053D00008BF80BDFBF798FE80BD00000000000004
:1053E000FEE7000000000000FEE7000000000000F3
:1053F00000F007004FF0FF3C80F00703042B28BFAC
:105400000423033838BF00200CFA03F399430CFA45
:1054100000F301FA00F022EA03010843704700009C
:105420007047000000000000F0B581B044F22C4746
:10543000C5F6020757F8042C02F00302032A02D132
:10544000012001B0F0BD054657F82C0C0C4620F0A9
:10545000806047F82C0CFDF733FE064657F82C0CFD
:10546000000105D5FDF72CFE801B0228F6D964E06B
:1054700057F8040CEE6895E80E0020F47C30012CFF
:1054800040EA0130A2F101016FF35F214FF47E4247
:1054900002EB432247F8040C92B24FF0FE4302EBBA
:1054A00001004FF4FE012A6901EB064101F4FE01FF
:1054B00003EB0262084402F0FE410844F8603868D9
:1054C000696920F0C00040EA010038603868A969C5
:1054D00020F0200040EA0100386038684FF6F8718B
:1054E00020F0100038603869EA6920EA01004FF4C2
:1054F000001140EAC2003861386808BF4FF48011DB
:1055000040F01000002C386008BF4FF400213868CC
:105510000843386057F82C0C40F0806047F82C0C9A
:10552000FDF7CEFD044600BF57F82C0C000107D450
:10553000FDF7C6FD001B0328F6D3032001B0F0BD24
:10554000002001B0F0BD0000F0B581B044F22C475E
:10555000C5F6020757F8042C02F00302032A02D111
:10556000012001B0F0BD054657F82C0C0C4620F088
:10557000805047F82C0CFDF7A3FD064657F82C0C7D
:10558000800005D5FDF79CFD801B0228F6D964E05C
:1055900057F8040CEE6895E80E0020F07C70012CA2
:1055A00040EA0150A2F101016FF35F214FF47E4206
:1055B00002EB432247F8040C92B24FF0FE4302EB99
:1055C00001004FF4FE012A6901EB064101F4FE01DE
:1055D00003EB0262084402F0FE4108447861386837
:1055E000696920F4406040EA010038603868A969C0
:1055F00020F4007040EA0100386038684FF6F87116
:1056000020F480703860B869EA6920EA01004FF040
:10561000807140EAC200B861386808BF4FF40001E9
:1056200040F48070002C386008BF4FF48001386867
:105630000843386057F82C0C40F0805047F82C0C89
:10564000FDF73EFD044600BF57F82C0C800007D440
:10565000FDF736FD001B0328F6D3032001B0F0BD93
:10566000002001B0F0BD0000704700000000000005
:10567000B0B501380024B4EB106F01D00120B0BDEB
:105680004EF210050F21CEF2000568604FF0FF309A
:1056900000F0FEFCAC60072028602046B0BD000092
:1056A00080B5FDF715FD80BDB0B59CB044F618047B
:1056B00009A84C21C5F60204FAF742FE0220002593
:1056C000CDE90755CDE90555CDE90355CDE901559E
:1056D000FDF7E6FD0095206840F44040206020681A
:1056E00000F44040009040F22C40C5F600000168F4
:1056F00041F001010160006800F001000090009895
:1057000020688004FCD5012009904FF480300A9075
:1057100002200521CDE912001491C021CDE9151018
:10572000CDE9170009A8082419940025CDE91A55D8
:10573000FEF7DAFFA0B93F20019003204FF480610B
:10574000CDE9020540200494CDE90500CDE907101C
:1057500001A80421FEF7C8FD002804BF1CB0B0BD9D
:10576000FBF7D2FC000000004EF6885042F2000C1D
:10577000CEF20000C5F2002C016841F47001016016
:10578000DCF8000000F00F00062806D8DCF8000066
:10579000072161F30300CCF8000044F200404EF60C
:1057A0007F52C5F60200CEF6F622016841F00101F3
:1057B00001600021016103681A400260DCF80020EA
:1057C000120706D5DCF80020072363F30302CCF8A8
:1057D000002040F200228161C161C0F20222016218
:1057E00082620022C0F2FF12C26240F28022C0F246
:1057F0000112026341638263C1630264416402680F
:1058000022F480220260016641F20000C5F60040E9
:105810000068B1EB507F05D148F208100121C5F2B4
:105820000010016044F2000043F2D201C5F20020F2
:10583000016070470000000010B5416E01B30168BF
:1058400046F6EA3CC0F6000C46F6F23E8A68C0F620
:10585000000E8968C2F342624C0F1CF802301EF839
:1058600002101A011EF80430B2FBF1F11CF80420FA
:10587000A0F868101201B2FBF3F2A0F86A2010BD84
:105880000121A0F86A10A0F8681010BD0000000007
:10589000816ACA070CD18A0715D44A071ED40A07A1
:1058A00027D4CA0630D48A0639D44A0655D541E0F1
:1058B0000268D0F82CC0536823F4003343EA0C0389
:1058C00053608A07E9D50268D0F830C0536823F4E2
:1058D000803343EA0C0353604A07E0D50268D0F8EE
:1058E00034C0536823F4802343EA0C0353600A074F
:1058F000D7D50268D0F838C0536823F4004343EA90
:105900000C035360CA06CED50268D0F83CC0936839
:1059100023F4805343EA0C0393608A06C5D50268DA
:10592000D0F840C0936823F4005343EA0C0393601B
:105930004A0612D50268D0F844C0BCF5801F5368EF
:1059400023F4801343EA0C03536006D1536823F415
:10595000C00C836C43EA0C035360090658BF7047C0
:105960000168C06C4A6822F4002210434860704706
:10597000B0B582B004460020C4F88C00FDF7A0FB4F
:1059800021680546096809070AD54FF4001100226D
:105990006FF07E40009020462B4600F0E5FA70B98B
:1059A0002068006840070DD54FF4800100226FF099
:1059B0007E40009020462B4600F0D6FA10B103201E
:1059C00002B0B0BD2020C4F88400C4F888000020D4
:1059D000E06684F8800002B0B0BD00000000000066
:1059E000F0B583B004460368806846F6F316D4E940
:1059F0000312104362691043E2691F68CCF6FF7618
:105A0000104307EA06021043186058684FF2FF4738
:105A100020F4405240F6004011435960C5F60000A2
:105A2000A1698342C1F2FF171CBF226A11439A6821
:105A300047F2FF763A40C4F2000611439960DA6AF1
:105A400044F2544122F00F02676AC5F602013A435C
:105A5000B342DA624FF0800225DD40F6FF77C4F2F0
:105A60000107BB423FDD834200F0718041F20047F5
:105A7000C4F20107BB4200F0758041F20007C4F296
:105A80000107BB4240F0A5800A68C2F3C203052BA0
:105A900000F296800122DFE813F09C00910095004F
:105AA000970099009B0044F6FF37C4F20007BB4201
:105AB00033DC44F20047C4F20007BB4200F05D80D3
:105AC00044F60007C4F20007BB4240F082800A6837
:105AD00002F00703052B00F273800022DFE803F0D9
