:020000040800F2
:1000000010180024AD020008095D000869560008B8
:10001000015D0008B90B0008096C00080000000031
:10002000000000000000000000000000D15F000898
:10003000F911000800000000415D00080960000897
:10004000C7020008C7020008C7020008C70200086C
:10005000C7020008C7020008C7020008C70200085C
:10006000C7020008C7020008C7020008C10B000849
:10007000D10B0008C7020008C7020008C702000829
:10008000C7020008C7020008C7020008C70200082C
:10009000C7020008C7020008C7020008C70200081C
:1000A000C7020008C7020008C7020008C70200080C
:1000B000C7020008C7020008C7020008C7020008FC
:1000C000C7020008C7020008C7020008C7020008EC
:1000D000C7020008C7020008C7020008C7020008DC
:1000E000C7020008C702000800000000C70200089D
:1000F000C7020008C7020008C7020008C7020008BC
:10010000C7020008C7020008C7020008C7020008AB
:10011000C7020008C7020008C7020008C70200089B
:10012000C7020008C7020008C7020008C70200088B
:10013000C7020008C7020008C7020008C70200087B
:1001400000000000000000000000000000000000AF
:10015000C7020008C7020008C7020008C70200085B
:10016000C7020008C7020008C7020008C70200084B
:10017000C7020008C7020008C7020008C70200083B
:10018000C7020008C7020008C7020008C70200082B
:10019000C7020008C7020008C7020008C70200081B
:1001A000C7020008C7020008C7020008C70200080B
:1001B000C7020008C7020008C7020008C7020008FB
:1001C000C7020008C7020008C7020008C7020008EB
:1001D000C7020008C7020008C7020008C7020008DB
:1001E000C7020008C7020008C7020008C7020008CB
:1001F000C7020008C7020008C7020008C7020008BB
:10020000C7020008C7020008C7020008C7020008AA
:10021000C7020008C7020008C7020008C70200089A
:10022000C7020008C7020008C7020008000000005B
:10023000C7020008C702000800000000C70200084B
:10024000E90B0008A90B0008C7020008C702000854
:10025000C7020008C7020008C7020008C70200085A
:10026000C7020008C7020008C7020008C70200084A
:10027000C7020008C7020008C7020008000000000B
:10028000C7020008C7020008C702000800000000FB
:1002900000000000C7020008DFF80CD000F0A6FA4A
:1002A00000480047C96C0008101800240648804721
:1002B00006480047FEE7FEE7FEE7FEE7FEE7FEE74B
:1002C000FEE7FEE7FEE7FEE7196100089902000875
:1002D0002DE9F05F0546002092469B46884606467B
:1002E000814640241BE0284641464746224600F00E
:1002F0006FF853465A46C01A914110D3114618461A
:10030000224600F056F82D1A67EB01084F462246A8
:100310000120002100F04DF817EB00094E41201E8E
:10032000A4F10104DFDC484631462A464346BDE8D5
:10033000F09FD2B201E000F8012B491EFBD27047BA
:100340000022F6E710B513460A4604461946FFF7A1
:10035000F0FF204610BDC1F30A52C1F3130140F271
:10036000FF3341F480119A4202DA002001467047BF
:1003700040F233439A42A2F2334202DC524200F08E
:1003800027B800F016B830B50B46014600202022F1
:10039000012409E021FA02F59D4205D303FA02F592
:1003A000491B04FA02F52844151EA2F10102F1DCF2
:1003B00030BD202A04DB203A00FA02F10020704709
:1003C0009140C2F1200320FA03F319439040704793
:1003D000202A04DB203A21FA02F00021704721FA9A
:1003E00002F3D040C2F12002914008431946704701
:1003F00010B5141E73F1000408DA401C41F100012D
:1004000092185B411A4301D120F0010010BD2DE983
:10041000F04D92469B4611B1B1FA81F202E0B0FA7A
:1004200080F220329046FFF7C4FF04460F4640EAB0
:100430000A0041EA0B0153465A46084313D01146BD
:1004400053EA010019D0C8F140025046FFF7C0FF3F
:1004500005460E46504659464246FFF7AAFF084356
:1004600005D0012004E020463946BDE8F08D00208B
:10047000054346EAE0762C4337430A986305E40ACD
:10048000A0EB08000022FD0A44EA47540A3002D5D6
:1004900000200146E9E7010510196941DDE9084539
:1004A00000196941BDE8F04DA2E72DE9FE4F8046F5
:1004B00081EA0300C00F0C46009021F0004123F0B8
:1004C0000045B8EB0200A94105D2404621469046BE
:1004D0001C460B46024623F00040104347D0270D30
:1004E000C7F30A00C3F30A510290401A0190402852
:1004F0006BDAC3F3130040F4801B0098924620B1DE
:100500000023D2EB030A63EB0B0B01985946C0F1B1
:1005100040025046FFF74DFF06460D4650465946ED
:10052000019A00F075F910EB08006141002487EA98
:10053000115284EAE7731A4340D0009A62B3019AD9
:10054000012A4FEA075215DC001B61EB02014FF054
:10055000004202EA0752CDE90042001C41F5801139
:1005600032462B46FFF753FF03B0BDE8F08F4046FD
:100570002146F9E7001B61EB0201001C41F58013E5
:1005800000185B412018A2F5001747EB030140EA71
:10059000D570B6196D4111E06D084FEA360645EA8F
:1005A000C0754FEA0752001B61EB0201001C41F5C8
:1005B000801149084FEA30000019514132462B465C
:1005C00003B0BDE8F04FFFF713BF009801224000D1
:1005D0000023D0EB020263EBE073009821464FEA60
:1005E000E074B8EB000061EB0401E9E783F000433D
:1005F0005BE781F0004158E72DE9FE4F81EA0304F3
:1006000004F0004421F0004100944FF0000B23F06F
:10061000004350EA01045ED052EA03045BD0C3F306
:100620000A54C1F30A552C44A4F2F3340194A0FBFC
:100630000254C1F3130141F48011C3F3130343F4D3
:10064000801301FB024400FB034E840A970A44EA2C
:10065000815447EA8357A4FB076802958D0A05FB7E
:1006600007854FEA932C04FB0C542705029D4FEAA3
:10067000065847EA1637B5EB08056EEB070C870EF0
:10068000920E47EA811742EA8312A7FB0201B6EBFA
:100690000B0164EB00042B0D43EA0C335E1844EBB2
:1006A0001C50DA465146E7FB0201C5F313044FEA3A
:1006B0000B3343EA14534FEA0432019C43EA060326
:1006C000A4F10C040294009CCDE900B4FFF79FFE56
:1006D00003B0BDE8F08F00200146F9E72DE9F04DA9
:1006E00081EA030404F0004B21F0004514464FF06A
:1006F000000A23F0004150EA050220D054EA01022A
:100700001DD0C5F30A570246C5F31303C1F3130006
:10071000C1F30A5640F4801543F48013A7EB060892
:10072000101BD64608F2FD3873EB050002D308F122
:10073000010801E092185B41B8F1000F03DA0020D4
:100740000146BDE8F08D00204FF480110646844636
:100750000EE0171B73EB050705D3121B63EB0503B4
:1007600006434CEA010C49084FEA300092185B41FD
:1007700050EA0107EDD152EA030012D082EA0400E8
:1007800083EA0501084305D0101BAB4106D20122C4
:10079000002306E000224FF0004302E06FF0010268
:1007A00053101AEB06004CEB085110EB0A0041EB1A
:1007B0000B01BDE8F04DFFF71BBE000030B5041E75
:1007C00071F1000404DB4FF00044404264EB01018E
:1007D000141E73F1000405DB1C464FF00043524227
:1007E00063EB0403994208BF904230BD064C074DAD
:1007F00006E0E06840F0010394E8070098471034F1
:10080000AC42F6D3FFF74CFD88780008A8780008C2
:10081000202A06DBCB17203A41FA02F043EAE073C4
:1008200006E041FA02F3D040C2F1200291400843B1
:1008300019467047000000000020C4F20200016861
:10084000490519D40068000558BF7047BFF34F8FA2
:100850004EF65C7040F22002CEF200000021C2F29F
:10086000004200BF53182031B1F5806F03F50063DB
:100870000360F7D1022012E0BFF34F8F4EF65C7099
:1008800040F22002CEF200000021C2F2004200BF7E
:100890008B182031B1F5806F0360F9D10120BFF3CF
:1008A0004F8F41F23001BFF36F8FC2F200410870E9
:1008B0007047000000000000B0B50446006842F236
:1008C000001140F48070C4F20201884204D142F267
:1008D0000830C4F2020003E046F20830C5F6020018
:1008E000006810F4403F10D004F04AF861680546F3
:1008F000B1F5803F05D0B1F5403F22D0B1F5003FC2
:1009000020D1080CB5FBF0F51CE04FF400200021CD
:1009100003F056F861680546A1F580224FEAB2421D
:100920000A2A0FD8DFE802F0060606060606494B3B
:100930004D4F51006FF0010000EA5140B5FBF0F55A
:1009400000E0AD0802F050FD41F2030188420DD8ED
:10095000206842F60151C0F231118D4281682CBFEE
:1009600041F4807121F480718160B0BD4BF621406B
:10097000C0F2BE00854205D82068816821F440712C
:100980008160B0BD47F64100C0F27D10854203D8BA
:1009900020680122816808E020684FF28101C0F2DE
:1009A000FA218D42816804D8022262F30921816014
:1009B000B0BD41F440718160B0BD2D09C2E76D0941
:1009C000C0E7AD09BEE7ED09BCE72D0ABAE70000B4
:1009D00010B5846B616D11F0500F616D05D0C906C3
:1009E0000ED4E16CC96C884710BD41F4007060659D
:1009F00020680168090707D4C068800716D10AE09B
:100A0000204600F07DFE10BD04F08AFE70B1206823
:100A1000C06880040AD4606D20F480706065606DE9
:100A2000C00403D4606D40F001006065204600F012
:100A30005FFE10BD0000000080B5806B416D41F08D
:100A400040014165816D41F00401816500F058FE6F
:100A500080BD00000000000080B5806B00F04CFEFF
:100A600080BD000000000000B0B50446006804F03E
:100A70003FFE0546206804F03FFE01464FF00000AF
:100A800085BB002908BFB0BD2068816801F00D0159
:100A900001291CD104F0ECFD20680321016002F063
:100AA000ABFC21688968C90701D10020B0BD0546AB
:100AB00004E000BF20688068C00712D002F09CFCF0
:100AC000401B0328F6D320688068C007F2D0606D11
:100AD00040F010006065A06D40F00100A0650120AD
:100AE000B0BD0020B0BD000070B50446006804F041
:100AF00003FE00281CBF002070BD20683F22C8F202
:100B000000028168114209D0606D40F010006065FC
:100B1000A06D40F00100A065012070BD04F0BCFD97
:100B200002F06AFC42F2000546F20031C4F202050E
:100B3000226805F5807605F54073C5F60201B242DC
:100B400008BF1946AA42054608BF1946084604F0E0
:100B5000BFFD21680A46B14204BF42F20002C4F25E
:100B60000202002818BF8A4203D121680868C00722
:100B700008D0002070BD00BF21680868C0074FF092
:100B8000000010D1084604F0B7FD10B9206804F049
:100B900083FD02F031FC401B0328EDD32068006880
:100BA000C007E9D1B0E770BD80B541F2A820C2F21C
:100BB000004001F091F880BDFEE700000000000059
:100BC00080B541F2B810C2F2004001F085F880BD56
:100BD00080B5FFF731FE41F23020C2F2004001F053
:100BE0007BF880BD0000000080B541F2A820C2F271
:100BF000004001F041F880BD40F20F420168C4F2AC
:100C00000202914210DC6F22C4F20202914220DC07
:100C10003F22C4F20202914236DC1022C4F20202E8
:100C2000914254D028224EE040F26F42C4F20202B8
:100C300091421ADC40F23F42C4F2020291422ADCA5
:100C400040F21042C4F20202914240D040F22842E7
:100C500039E09F22C4F20202914225DC7022C4F2E4
:100C60000202914233D088222DE040F29F42C4F22A
:100C7000020291421FDC40F27042C4F20202914231
:100C800025D040F288421EE04022C4F20202914286
:100C90001DD0582217E040F24042C4F202029142B5
:100CA00015D040F258420EE0A022C4F20202914256
:100CB0000DD0B82207E040F2B842C4F202029142DD
:100CC00005D040F2A042C4F2020291421AD1D0F8FB
:100CD00000C06FF00F024AF6AB2352FA8CF2CAF64C
:100CE000AA23A2FB033109A35F2AC1F302115B5CB3
:100CF00040F2FF312CEA0101C36588BF04318165F0
:100D000008467047016821F0FF01F8E70006101659
:100D1000000610160000000010B545F257420168A9
:100D2000C5F6020291420EDC45F22F42C5F60202E0
:100D3000914217DC45F20842C5F60202914226D0E4
:100D400045F21C421FE045F27F42C5F60202914285
:100D500011DC45F25842C5F60202914217D045F225
:100D60006C4210E045F23042C5F6020291420ED0CC
:100D700045F2444207E045F29442C5F60202914230
:100D800005D045F28042C5F60202914219D10178A0
:100D90004CF6CD42CCF6CC4245F600030839C5F6F8
:100DA0000203A1FB021203F18001120903EB82038B
:100DB00002F01F0203660123416603FA02F1816615
:100DC00010BD02784AF6AB23CAF6AA234FF0080EEC
:100DD000103AA2FB032340F20F42C4F202024FEA90
:100DE000131C914202F1AA04624688BF0EEB131253
:100DF00040F60003A142C4F2020303F1800128BFC0
:100E00006246D3E70000000010B50279511E0729A1
:100E100088BF10BD45F2574C45F6FC0E0368C5F679
:100E2000020CC5F6020E63450EF1440C0EDC45F2D1
:100E30002F44C5F60204A34217DC45F20844C5F668
:100E40000204A34226D045F21C441FE045F27F4431
:100E5000C5F60204A34211DC45F25844C5F602046B
:100E6000A34217D045F26C4410E045F23044C5F679
:100E70000204A3420ED045F2444407E045F2804408
:100E8000C5F60204A34205D045F29444C5F6020417
:100E9000A34209D10EEB8202C2660122C0F870C0E3
:100EA00002FA01F1416710BD40F6FC0EC4F2020ED9
:100EB0000EF1440CEEE700008169B1F5005F07D048
:100EC00079B9816A022912D0012916D079B112E0CC
:100ED000816A03290FD8DFE801F0020A021001201D
:100EE0007047816A03293CBF0120704703D1C06A63
:100EF000C0F30060704700207047C06AA0F1C07066
:100F0000B0FA80F04009704770B540F26F44D0F8F5
:100F100000E0C4F20204D0F858C0A64519DC9F25B1
:100F2000C4F20205AE4531DC5725C4F20205AE45D8
:100F300056DC1025C4F20205AE4500F0928028254B
:100F4000C4F20205AE4500F08C804025C4F20205D3
:100F500084E045F22F45C5F60205AE452BDC40F294
:100F6000B745C4F20205AE4548DC40F27045C4F214
:100F70000205AE4575D040F28845C4F20205AE4583
:100F80006FD040F2A045C4F2020567E040F2274569
:100F9000C4F20205AE4540DCA025C4F20205AE4510
:100FA0005FD0B825C4F20205AE455AD040F21045D4
:100FB000C4F2020552E045F26B45C5F60205AE45A6
:100FC0003CDC45F23045C5F60205AE4549D045F258
:100FD0004445C5F60205AE4543D045F258453BE0D1
:100FE0005825C4F20205AE453BD07025C4F2020577
:100FF000AE4536D08825C4F202052FE040F2B84550
:10100000C4F20205AE452CD045F20845C5F60205EE
:10101000AE4526D045F21C451EE040F22845C4F2FC
:101020000205AE451DD040F24045C4F20205AE4572
:1010300017D040F25845C4F202050FE045F26C4566
:10104000C5F60205AE450CD045F29445C5F602053D
:10105000AE4506D045F28045C5F60205AE4540F0E6
:10106000C980456EC66E002E866E6E601CBFD0E9CC
:101070001C566E60A64515DC9F24C4F20204A645EA
:101080002BDC5724C4F20204A6454EDC1024C4F223
:101090000204A64576D02824C4F20204A64571D0E5
:1010A00040246BE045F22F44C5F60204A64527DC38
:1010B00040F2B744C4F20204A64542DC40F2704458
:1010C000C4F20204A6455DD040F28844C4F2020492
:1010D000A64557D040F2A04450E040F22744C4F265
:1010E0000204A6453CDCA024C4F20204A64549D073
:1010F000B824C4F20204A64544D040F210443DE0B6
:1011000045F26B44C5F60204A6454FDC45F2304477
:10111000C5F60204A6455BD045F24444C5F6020478
:10112000A64555D045F258444EE05824C4F2020476
:10113000A64527D07024C4F20204A64522D08824F4
:101140001CE040F2B844C4F20204A6451AD045F2AD
:101150000844C5F60204A6453AD045F21C4433E0E3
:1011600040F22844C4F20204A6450BD040F24044A9
:10117000C4F20204A64505D040F25844C4F2020469
:10118000A64537D104683F258668C06D00F01F0072
:10119000402E05FA00F0CCF80800206820F48020EA
:1011A0002060636021D0A160E26070BD45F26C44B4
:1011B000C5F60204A6450BD045F28044C5F60204EC
:1011C000A64505D045F29444C5F60204A64511D1C2
:1011D0000468C66D806806F01F060125402805FAE0
:1011E00006F6CCF80460636002D1A260E16070BDD5
:1011F000A160E26070BD00007047000000000000C8
:10120000B0B50C46054600F00BF86942A84238BF5D
:10121000E94301440020A14228BF0120B0BD0000E5
:1012200080B502F0E9F880BD7047000000000000C2
:10123000EFF3108072B600BFFEE700000000000070
:10124000F0B581B000230093044690F850000128C7
:1012500001D1022535E0012084F8500020461646D1
:101260000F46FFF701FC05460028606D02D040F0F4
:10127000100022E041F20211324688433946023022
:101280006065206804F0DCFA4FF60006C2F2C3562F
:10129000206804F025FA60B10098013000900098B1
:1012A000B042F5D3606D012540F0100020F002003F
:1012B00003E0606D012161F301006065002084F8A6
:1012C0005000284601B0F0BD2DE9F04182B004463F
:1012D00090F85000012803D1022002B0BDE8F0814F
:1012E000012084F8500000200190009042F2000795
:1012F000C4F202072068B8420BD107F580780D468A
:10130000404604F009FA0646206804F005FA304326
:101310000AD0606D40F0200060650120002184F853
:10132000501002B0BDE8F08146F200002168C5F619
:1013300002004145064608BF3E46B94208BF0E4678
:101340002A6841F48071D6F80833002A23F4404219
:1013500015D042F2001C6B68C4F2020C614542EAEF
:101360000301C6F808131BD1384604F0C9F9074633
:10137000404604F0C5F93843B0B10020CEE742F250
:101380000013C6F80823C4F20203994216D1384666
:1013900004F0B6F90546404604F0B2F928430FE0E0
:1013A00004F0AEF90028E8D1D6F8080340F61F7122
:1013B00088432968AA680843104309E004F0A0F9AB
:1013C00008B10020AAE7D6F8080340F61F71884349
:1013D000C6F808030020A1E72DE9F04782B00022FB
:1013E0000192044690F85000012803D1022002B077
:1013F000BDE8F08720680D46012684F8506004F0AF
:1014000087F928B1606D40F0200060650120DEE0C2
:101410002A6892FAA2F0B0FA80F3100308BF930E84
:101420002068696803F01F0306FA03F3C7693B43AA
:10143000C36104F085F9206804F06AF90646206863
:1014400004F04AF9304368D120682968AA6804F09A
:101450009BF941F20000C5F60040006800F07040C2
:10146000B0F1805F06D120686A690E21C06801EA88
:1014700050030CE02068C1686A69C068C9064FEA79
:10148000500002D400F00E0301E000F008032969C7
:101490002068042928D1016E2A6801F0F841B1EBD7
:1014A000826F4FEA826103D1026E22F0004202662F
:1014B000426E02F0F8428A4203D1426E22F00042AC
:1014C0004266826E02F0F8428A4203D1826E22F0B6
:1014D00000428266C26E02F0F8428A421DD1C16E9D
:1014E00021F00041C16618E002FA03F32A6804F013
:1014F00093F9687E0138B0FA80F120684A092969B9
:10150000D20704F095F9287E0138B0FA80F12068FE
:101510004A092969D20204F073F9206804F0ECF852
:1015200008B1002053E020682968EA6804F040F917
:101530000021E868C4F2FF71884243D14FF6FF7082
:101540002968C0F20F004FF0806711EA000C91FA91
:10155000A1F0B0FA80F2134608BF8B0E20685E1C23
:1015600007EB836306F01E0E06F01F060127BEF18F
:10157000090F03F0F84307FA06F60DD8BCF1000F87
:1015800008BF8A0E511C43EA060201F01F0101EB5D
:10159000410142EA015112E0BCF1000F08BF8A0E7E
:1015A000511C002201F01F01CFF6206201EB410126
:1015B00002EB015146EA0302114341F00071AA68AF
:1015C00004F0E2F82868B0F1FF3F06DD00200021BA
:1015D00084F8501002B0BDE8F08746F2000842F2ED
:1015E0000007C5F60208C4F2020708F54079216831
:1015F00007F5807607F540724846B14208BF1046AD
:10160000B94208BF104604F05FF8216842F20012A8
:1016100041F48071C4F202029142824608D13846F8
:1016200004F06AF80746304604F066F8384302E0F2
:10163000404604F061F800287FF4E4AE5FEA0A2037
:10164000296809D40020CCF68430814204D1206876
:1016500040451DD00020BAE75FEACA1009D4002037
:10166000CCF25270814204D12068404531D0002034
:10167000ADE75FEA4A204FF00000A8D40022CCF684
:10168000B8729142A3D12068404527D000209EE740
:101690004AF40001484604F0ABF841F2200042F65B
:1016A0006351C2F20040C0F23E5100688009A0FBC5
:1016B00001018809022101EB40000190019858B115
:1016C000019801380190019800284FF00000F7D1EF
:1016D0007DE74AF0807103E0002078E74AF480015A
:1016E000484604F085F8002071E700000000000083
:1016F000704700000000000070470000000000007C
:101700007047000000000000F0B581B004460028DA
:101710004FF00000009019D0606D30B9204600F005
:101720000BF90020A06584F85000206803F0DCFF6E
:1017300010B1206803F0A8FF206803F0E5FF38B17E
:10174000206803F0E1FFE0B1002523E00125E3E09C
:10175000206803F0ADFF41F2200042F66351C2F26F
:101760000040C0F23E5100688009A0FB0101012049
:1017700000EB9110009000980028E1D0009801380B
:10178000F8E7606D012540F010006065A06D40F045
:101790000100A065206803F0BBFF616D01F010013E
:1017A0000843606D03D040F010000125B3E020F441
:1017B000817002306065206803F09EFF58BB20688E
:1017C00042F2001140F48070C4F2020142F20006BD
:1017D0008842C4F2020640F0A280304603F08CFF3B
:1017E000074606F5807003F087FF384398B906F581
:1017F000807006F54072216846F20003C5F60203C8
:101800008142104618BF03F54070B142616808BFBD
:10181000104603F0E5FF01F0E7FD41F204018842C4
:101820000CD3A068102809D1607D216B227F41EA8A
:10183000403040EA024040F01C0108E0607D216B2E
:10184000227F41EA4030A168084340EA0241207FFC
:10185000012806D1206A0022CFF6FE7202EB40403A
:101860000143606A28B100F47870A26A084340EA34
:10187000020120684CF20303CFF6F073C2681A40ED
:101880001143C16003F044FF0646206803F024FFC3
:10189000304331D1217D2068E26A44F20307C368F6
:1018A00042EA813123EA07021143C16094F83810FB
:1018B0000129016914D14FF61E020027CFF600421C
:1018C000CFF6FF771140D4E90F231943636C07EB80
:1018D00002421143A26C1943114341F0010101E09E
:1018E00021F0010101610169626B21F07041114336
:1018F00001612046FEF7E0FF2068E1680129026BE4
:1019000022F00F0102D1A269013A114301630121C2
:10191000606D61F301006065284601B0F0BD46F2DC
:101920000000C5F6020003F0E7FE00287FF473AF65
:101930005DE7000000000000F0B587B046F200014E
:1019400004460068C5F6020100268842CDE9056616
:1019500004960396029664D042F20011C4F202018A
:10196000884200F0A48042F20001C4F202018842E1
:1019700040F0F48041F2340144F2E040C2F2004110
:10198000C5F602000A68002A02F101020A600BD1C2
:1019900050F8081C41F0200140F8081C50F8081CC1
:1019A00001F02001019101990168002641F0040134
:1019B0000160006802A900F00400019001980C2069
:1019C00002900320039040F60000C5F60200049642
:1019D00001F032FC41F2B8151020C2F20045C4F209
:1019E000020028600920C5E901064FF480602861E3
:1019F0004FF4006068614FF40050A8614FF48070AC
:101A0000EE60C5E9070628466E6200F035FF002843
:101A100000F0A280FFF70CFC41F2B815C2F20045BD
:101A20009AE044F2E04702A9C5F60207386840F0A0
:101A300080703860386800F08070019001983868D4
:101A400040F004003860386800F00400019001980C
:101A5000062002900320CDE9030640F60000C5F6FB
:101A6000020001F0E9FB41F2A82507F62870C2F256
:101A7000004528601120C5E901064FF48060286107
:101A80004FF4006068614FF40050A8614FF480701B
:101A9000EE60C5E90706284600F0EEFE00285BD0A0
:101AA000FFF7C6FB41F2A825C2F2004554E041F21F
:101AB000340144F2E040C2F20041C5F602000A6877
:101AC000002A02F101020A600BD150F8081C41F013
:101AD000200140F8081C50F8081C01F02001019179
:101AE00001990168002641F004010160006802A923
:101AF00000F0040001900198202002900320039040
:101B000040F60000C5F60200049601F095FB41F294
:101B100030251020C2F20045C4F2020018302860BF
:101B20000A20C5E901064FF4806028614FF4006087
:101B300068614FF40050A8614FF48070EE60C5E911
:101B4000070628466E6200F097FE28B1FFF770FB8B
:101B500041F23025C2F20045E564AC6307B0F0BD48
:101B60002DE9F04742F200060446C4F2020603687B
:101B700046F2003006F5807706F54075C5F602009E
:101B8000BB42904608BF2846B342894608BF284654
:101B900003F09EFD8246206803F0BAFD18B994F860
:101BA0005000012802D10220BDE8F087BAF1090FE8
:101BB0004FF0010084F8500058D800FA0AF040F2C3
:101BC0002121084252D02046FEF78EFF30B1054653
:101BD000002084F850002846BDE8F0872068616D39
:101BE00040F60172B84221EA020118BF0646BAF176
:101BF000000F01F58071616518BF864203D1616DE8
:101C000021F480116165616D40F65927C9044FF0D8
:101C1000000144BFA16D21F00601C0F600070022BB
:101C2000A16540F6D111E36CC0F60001C3E90F17BE
:101C300040F63927E16AC0F60007DF641C23036021
:101C400084F85020426842F01002426003F070FDB8
:101C50002168E06C40314A46434601F0BDF8054634
:101C6000206803F085FD2846BDE8F087002084F851
:101C700050000120BDE8F08710B50446406EA26E0A
:101C800001680A4210D0236ED4F84CC0BCF1000F9A
:101C9000196821F4807119604260606D40F4007031
:101CA000606501D02046E047E06E98B1D4E91C128F
:101CB0000B681A420ED0036823F4807303604A60F5
:101CC000606D40F480606065E16C002908BF10BD64
:101CD0002046884710BD00002DE9F04381B0002167
:101CE000009141F220010446C2F2004140F26F49E6
:101CF000A56DC4F20209086848F2B511C1F64E316B
:101D00002668A0FB01084E452F682A6815DC9F2035
:101D1000C4F2020086422BDC5720C4F20200864245
:101D20004FDC1020C4F20200864278D02820C4F292
:101D30000200864273D040206CE045F22F40C5F689
:101D40000200864227DC40F2B740C4F2020086421D
:101D500043DC40F27040C4F2020086425FD040F2A1
:101D60008840C4F20200864259D040F2A04051E0BF
:101D700040F22740C4F2020086423DDCA020C4F2BB
:101D8000020086424BD0B820C4F20200864246D000
:101D900040F210403EE045F26B40C5F6020086423C
:101DA00074DC45F23040C5F60200864200F08180C6
:101DB00045F24440C5F6020086427AD045F25840CA
:101DC00072E05820C4F20200864228D07020C4F28B
:101DD0000200864223D088201CE040F2B840C4F2C2
:101DE000020086421BD045F20840C5F6020086423A
:101DF0005FD045F21C4057E040F22840C4F2020098
:101E000086420CD040F24040C4F20200864206D026
:101E100040F25840C4F20200864240F0ED84E06D8A
:101E200000F01F01082000FA01F23A4200F014818C
:101E300040F20F40C4F20200864213DC6F20C4F26D
:101E40000200864200F38E803F20C4F202008642E8
:101E500000F3CF801020C4F20200864200F0ED8033
:101E60002820E5E04E4500F3898040F23F40C4F26F
:101E70000200864200F3C48040F21040C4F2020027
:101E8000864200F0DA8040F22840D1E045F26C4012
:101E9000C5F6020086420CD045F28040C5F602002D
:101EA000864206D045F29440C5F60200864240F0D4
:101EB000A3842068E16D01F01F010368580727D54E
:101EC0000420884010EA020722D01904686000F15B
:101ED0008780980600F18C8440F20F40C4F2020023
:101EE000864200F3AB836F20C4F20200864200F307
:101EF000E6833F20C4F20200864200F350841020A3
:101F0000C4F20200864200F06D84282000F066BC16
:101F1000980742D50220884010EA02073DD01904F4
:101F2000686000F10E83980600F1988440F20F403B
:101F3000C4F20200864200F3AF836F20C4F20200B5
:101F4000864200F311843F20C4F20200864200F36F
:101F500056841020C4F20200864200F073842820C8
:101F600000F06CBC9F20C4F20200864251DC70205D
:101F7000C4F20200864260D0882059E040F29F40BF
:101F8000C4F2020086424BDC40F27040C4F2020010
:101F9000864252D040F288404AE0180740F12C8433
:101FA00008208840104000F0278440F20F40C4F21F
:101FB0000200864200F32C836F20C4F202008642A6
:101FC00000F34F833F20C4F20200864200F3938364
:101FD0001020C4F20200864200F0B1832820A9E359
:101FE000D80300F1B482A16C002940F00C8300F00A
:101FF00003BC4020C4F2020086421ED0582017E0E5
:1020000040F24040C4F20200864216D040F25840EE
:102010000EE0A020C4F2020086420ED0B82007E0F5
:1020200040F2B840C4F20200864206D040F2A0401E
:10203000C4F20200864240F08E82206804230068C9
:10204000184209D02068036823F004030360AA60E3
:10205000606D40F001006065012000FA01F23A4233
:1020600070D040F20F40C4F20200864210DC6F20B4
:10207000C4F2020086421CDC3F20C4F20200864209
:1020800032DC1020C4F20200864251D028204AE0FF
:102090004E451ADC40F23F40C4F2020086422ADC80
:1020A00040F21040C4F20200864241D040F2284083
:1020B00039E09F20C4F20200864225DC7020C4F281
:1020C0000200864234D088202DE040F29F40C4F2C6
:1020D000020086421FDC40F27040C4F202008642D9
:1020E00026D040F288401EE04020C4F20200864222
:1020F0001ED0582017E040F24040C4F20200864251
:1021000016D040F258400EE0A020C4F202008642F1
:102110000ED0B82007E040F2B840C4F20200864278
:1021200006D040F2A040C4F20200864240F016827F
:102130002068406900F0800020B1AA60606D40F026
:1021400002006065042000FA01F23A4270D040F2C9
:102150000F40C4F20200864210DC6F20C4F202007D
:1021600086421CDC3F20C4F20200864232DC102092
:10217000C4F20200864251D028204AE04E451ADCC3
:1021800040F23F40C4F2020086422ADC40F2104096
:10219000C4F20200864241D040F2284039E09F203C
:1021A000C4F20200864225DC7020C4F2020086429E
:1021B00034D088202DE040F29F40C4F202008642D5
:1021C0001FDC40F27040C4F20200864226D040F28A
:1021D00088401EE04020C4F2020086421ED05820F3
:1021E00017E040F24040C4F20200864216D040F2AE
:1021F00058400EE0A020C4F2020086420ED0B82063
:1022000007E040F2B840C4F20200864206D040F235
:10221000A040C4F20200864240F0A6812068006817
:1022200000F0020020B1AA60606D40F0040060651B
:10223000102000FA01F139427ED040F20F40C4F282
:102240000200864210DC6F20C4F2020086421CDCD1
:102250003F20C4F20200864232DC1020C4F20200A9
:10226000864251D028204AE04E451ADC40F23F40D9
:10227000C4F2020086422ADC40F21040C4F202009E
:10228000864241D040F2284039E09F20C4F202004B
:10229000864225DC7020C4F20200864234D08820B9
:1022A0002DE040F29F40C4F2020086421FDC40F263
:1022B0007040C4F20200864226D040F288401EE000
:1022C0004020C4F2020086421ED0582017E040F29F
:1022D0004040C4F20200864216D040F258400EE060
:1022E000A020C4F2020086420ED0B82007E040F2DF
:1022F000B840C4F20200864206D040F2A040C4F2C8
:102300000200864240F0368126680822306810427A
:1023100012D0A960206801684903016806D4C90584
:1023200006D4016821F00801016001E008034FD4E0
:10233000216C09B120468847E06D202100F01F0084
:102340008140394200F0AE8040F20F432268C4F26F
:1023500002039A4210DC6F23C4F202039A421CDC8F
:102360003F23C4F202039A4236DC1023C4F2020374
:102370009A4255D028234EE04A451ADC40F23F43AA
:10238000C4F202039A422EDC40F21043C4F202036C
:102390009A4245D040F228433DE09F23C4F2020315
:1023A0009A4229DC7023C4F202039A4238D088236F
:1023B00031E040F29F43C4F202039A4223DC40F230
:1023C0007043C4F202039A422AD040F2884322E0CA
:1023D000A16C0029AED1AFE74023C4F202039A42B8
:1023E0001ED0582317E040F24043C4F202039A4241
:1023F00016D040F258430EE0A023C4F202039A42E2
:102400000ED0B82307E040F2B843C4F202039A4268
:1024100006D040F2A043C4F202039A4240F0AC80DE
:102420002268102312681A423CD0A96094F8352023
:102430002168042A0A681DD122F016020A604A693E
:1024400022F080024A61226C0AB9A26C1AB10A68B1
:1024500022F008020A603F2101FA00F0A860012082
:1024600084F83500216D0020002984F8340040F004
:10247000CA80C1E1500308680CD4C0050ED40868B6
:1024800020F010000860012084F83500002084F856
:10249000340003E0000301D4616C00E0E16B09B19A
:1024A00020468847606D002800F0A681606DC00757
:1024B00000F0A580042084F8350040F20F41206828
:1024C000C4F20201884210DC6F21C4F2020188428A
:1024D0001CDC3F21C4F2020188424FDC1021C4F20F
:1024E000020188426FD0282167E048451ADC40F29B
:1024F0003F41C4F20201884247DC40F21041C4F27D
:10250000020188425FD040F2284156E09F21C4F288
:102510000201884242DC7021C4F20201884252D09A
:1025200088214AE040F29F41C4F2020188423CDC2B
:1025300040F27041C4F20201884244D040F2884126
:102540003BE0D80376D4616C00295CD154E1216C66
:10255000002958D150E10823304670E5306800204A
:1025600000287FF4EAADEDE53068002000287FF414
:102570005AAE5DE60422C9E6022353E74021C4F2C5
:10258000020188421FD0582117E040F24041C4F2B6
:102590000201884217D040F258410EE0A021C4F257
:1025A000020188420FD0B82107E040F2B841C4F2DE
:1025B0000201884207D040F2A041C4F202018842E1
:1025C00008BF206800E020684FEA9821026822F0E6
:1025D00001020260009801300090884203D8206810
:1025E0000068C007F6D120680068C0074FF00300FC
:1025F00008BF012084F83500002084F83400E16C25
:10260000002900F0F9802046884701B0BDE8F0833A
:102610004E4532DC40F23F40C4F20200864271DC9B
:1026200040F21040C4F20200864200F0888040F27E
:1026300028407FE0E16B0029E5D1DDE04E454BDC31
:1026400040F23F40C4F20200864200F3AF8040F205
:102650001040C4F20200864200F0C48040F22840DC
:10266000BCE09F20C4F20200864254DC7020C4F219
:102670000200864263D088205CE040F29F40C4F2B2
:10268000020086424EDC40F27040C4F202008642F4
:1026900055D040F288404DE04E4571DC40F23F405D
:1026A000C4F20200864200F3B18040F21040C4F24E
:1026B0000200864200F0C68040F22840BEE09F2023
:1026C000C4F2020086427ADC7020C4F20200864224
:1026D00000F08880882081E040F29F40C4F2020030
:1026E000864273DC40F27040C4F20200864279D028
:1026F00040F2884072E04020C4F2020086421ED0C0
:10270000582017E040F24040C4F20200864216D042
:1027100040F258400EE0A020C4F2020086420ED0E3
:10272000B82007E040F2B840C4F20200864206D06A
:1027300040F2A040C4F20200864240F09480266835
:102740006FF01C02306810403060012000FA01F187
:102750006960606584F835000020E16C84F834001D
:1027600000297FF450AF47E09F20C4F20200864268
:1027700055DC7020C4F20200864263D088205DE000
:1027800040F29F40C4F2020086424FDC40F27040AB
:10279000C4F20200864255D040F288404EE040200C
:1027A000C4F2020086421DD0582017E040F240409B
:1027B000C4F20200864215D040F258400EE0A0203C
:1027C000C4F2020086420DD0B82007E040F2B840C3
:1027D000C4F20200864205D040F2A040C4F20200DA
:1027E000864243D126686FF00801306808403060A7
:1027F000216C00297FF407AF01B0BDE8F0834020D1
:10280000C4F2020086421DD0582017E040F240403A
:10281000C4F20200864215D040F258400EE0A020DB
:10282000C4F2020086420DD0B82007E040F2B84062
:10283000C4F20200864205D040F2A040C4F2020079
:10284000864216D126686FF0140130680840306067
:10285000012084F83500002084F83400E16B002961
:102860007FF4D1AEC8E76FF00E026BE76FF00401A2
:10287000BBE76FF00A01E8E72DE9F04381B00446B9
:1028800000F0BAFD002C00F0738140F26F4805465D
:102890002068C4F20208404515DC9F21C4F2020101
:1028A00088422BDC5721C4F20201884251DC1021FE
:1028B000C4F2020188427AD02821C4F2020188427F
:1028C00075D040216EE045F22F41C5F602018842E5
:1028D00027DC40F2B741C4F20201884245DC40F2F5
:1028E0007041C4F20201884261D040F28841C4F2D2
:1028F000020188425BD040F2A04153E040F2274100
:10290000C4F2020188423FDCA021C4F202018842E5
:102910004DD0B821C4F20201884248D040F21041A3
:1029200040E045F26B41C5F60201884200F3908019
:1029300045F23041C5F60201884200F09C8045F224
:102940004441C5F60201884200F0958045F25841A5
:102950008CE05821C4F20201884228D07021C4F2D0
:102960000201884223D088211CE040F2B841C4F221
:10297000020188421BD045F20841C5F60201884297
:1029800079D045F21C4171E040F22841C4F20201C5
:1029900088420CD040F24041C4F20201884206D085
:1029A00040F25841C4F20201884240F0118240F2E4
:1029B0000F420221C4F2020284F8351090424FF017
:1029C000000184F8341012DC6F21C4F20201884245
:1029D00020DC3F21C4F20201884200F391801021E3
:1029E000C4F20201884200F0B0802821A7E04045EF
:1029F0001EDC40F23F41C4F20201884200F38780AE
:102A000040F21041C4F20201884200F09E8040F280
:102A1000284194E09F21C4F20201884200F38080A3
:102A20007021C4F20201884200F08F80882186E084
:102A300040F29F41C4F20201884278DC40F27041CA
:102A4000C4F20201884200F0808040F2884176E0C2
:102A500045F26C41C5F6020188420CD045F2804136
:102A6000C5F60201884206D045F29441C5F602013E
:102A7000884240F0AD8104F1080E022084F8350050
:102A800000209EE80640A1F1800384F83400B3FAE8
:102A900083F320685B094029D4E90579D4E9076C00
:102AA00005684FEA83336FF3101508BF102345EA1A
:102AB000D2014AF6F8321943CAF2FD7241EADE0148
:102AC0004CF6CD4341EAD701024441EAD901CCF6A4
:102AD000CC4341EAD601A2FB032341EA1C11016069
:102AE0006FF0030000EA9300E0652046FEF784F8EB
:102AF000E16D012201F01F0102FA01F141609BE04A
:102B00004021C4F2020188421FD0582117E040F250
:102B10004041C4F20201884217D040F258410EE011
:102B2000A021C4F2020188420FD0B82107E040F290
:102B3000B841C4F20201884207D040F2A041C4F279
:102B40000201884208BF206800E02068016821F087
:102B50000101016027683868C0070DD000F04CFC07
:102B6000401B0628F6D320206065032084F835003A
:102B7000012001B0BDE8F08348F23F0104F10805EF
:102B80003868CFF6106108402ECD0843A169104384
:102B9000E2691843236A0543606A2943042841EA2D
:102BA000020141EA030103D1D4E90B231143194384
:102BB00041F20002C5F600421268B2F1005F17D37D
:102BC0006268A2F12903202B06D23F25CCF2C03542
:102BD00025FA03F3DB0706D1A2F14F030022042BF1
:102BE00038BF012200E00122002A18BF41F4801101
:102BF00039600428796921F0070141EA000510D104
:102C0000D4E90A1045EA010558B12046FEF754F907
:102C100038B140206065012084F8350001B0BDE87E
:102C2000F08320467D61FDF7E7FFE16D3F2201F073
:102C30001F0102FA01F181602068404519DC9F21E3
:102C4000C4F20201884231DC5721C4F202018842F9
:102C500056DC1021C4F20201884200F09180282144
:102C6000C4F20201884200F08B804021C4F20201CC
:102C700084E045F22F41C5F6020188422BDC40F288
:102C8000B741C4F20201884248DC40F27041C4F20C
:102C90000201884274D040F28841C4F202018842A5
:102CA0006ED040F2A041C4F2020167E040F2274139
:102CB000C4F20201884240DCA021C4F20201884231
:102CC0005ED0B821C4F20201884259D040F21041CE
:102CD000C4F2020152E045F26B41C5F6020188429E
:102CE0003CDC45F23041C5F60201884248D045F24D
:102CF0004441C5F60201884242D045F258413BE0CA
:102D00005821C4F2020188423AD07021C4F2020173
:102D1000884235D08821C4F202012FE040F2B84148
:102D2000C4F2020188422BD045F20841C5F60201E7
:102D3000884225D045F21C411EE040F22841C4F2F1
:102D4000020188421CD040F24041C4F20201884294
:102D500016D040F25841C4F202010FE045F26C4136
:102D6000C5F6020188420BD045F29441C5F6020136
:102D7000884205D045F28041C5F6020188421FD144
:102D80002046FDF7C9FFA068802801D100206060BF
:102D900004F160036068C7B201380ECB07280F60EA
:102DA000536009D82046FEF72FF804F16C02002387
:102DB00007CA03604A6003E000206067C4E91B00A3
:102DC00000206065012184F8351001B0BDE8F08372
:102DD0004020C9E600000000F0B581B0A8B3044669
:102DE00090F83400012802D1022001B0F0BD01208A
:102DF00084F8340094F83500012820D1022084F8AA
:102E000035000020606540F20F462068C4F20206DB
:102E100040F26F47B042C4F2020719DC6F25C4F2DA
:102E20000205A84225DC3F25C4F20205A8423BDC8E
:102E30001025C4F20205A8425BD0282553E04FF4C8
:102E400000606065002084F83400012001B0F0BD0E
:102E5000B8421ADC40F23F45C4F20205A8422ADC1F
:102E600040F21045C4F20205A84242D040F2284583
:102E700039E09F25C4F20205A84225DC7025C4F282
:102E80000205A84235D088252DE040F29F45C4F2C6
:102E90000205A8421FDC40F27045C4F20205A842B8
:102EA00027D040F288451EE04025C4F20205A84222
:102EB0001FD0582517E040F24045C4F20205A84251
:102EC00017D040F258450EE0A025C4F20205A842F2
:102ED0000FD0B82507E040F2B845C4F20205A84279
:102EE00007D040F2A045C4F20205A84208BF2068FE
:102EF00000E02068056825F0010505602046FEF722
:102F000003F82068B04210DC6F21C4F2020188424D
:102F10001CDC3F21C4F20201884232DC1021C4F2E1
:102F20000201884251D028214AE0B8421ADC40F21E
:102F30003F41C4F2020188422ADC40F21041C4F24F
:102F40000201884241D040F2284139E09F21C4F279
:102F50000201884225DC7021C4F20201884234D08B
:102F600088212DE040F29F41C4F2020188421FDC1B
:102F700040F27041C4F20201884226D040F28841FA
:102F80001EE04021C4F2020188421ED0582117E001
:102F900040F24041C4F20201884216D040F258414A
:102FA0000EE0A021C4F2020188420ED0B82107E051
:102FB00040F2B841C4F20201884206D040F2A0417A
:102FC000C4F20201884240F0298121680B25226C5D
:102FD0000B6865F344030B601AB10A6842F00802FB
:102FE0000A60B84219DC9F21C4F20201884231DC38
:102FF0005721C4F20201884256DC1021C4F20201BA
:10300000884200F091802821C4F20201884200F039
:103010008B804021C4F2020184E045F22F41C5F6C5
:10302000020188422BDC40F2B741C4F2020188421F
:1030300048DC40F27041C4F20201884274D040F290
:103040008841C4F2020188426ED040F2A041C4F22D
:10305000020167E040F22741C4F20201884240DCED
:10306000A021C4F2020188425ED0B821C4F202015C
:10307000884259D040F21041C4F2020152E045F2B8
:103080006B41C5F6020188423CDC45F23041C5F691
:103090000201884248D045F24441C5F60201884207
:1030A00042D045F258413BE05821C4F20201884227
:1030B0003AD07021C4F20201884235D08821C4F28E
:1030C00002012FE040F2B841C4F2020188422BD045
:1030D00045F20841C5F60201884225D045F21C415F
:1030E0001EE040F22841C4F2020188421CD040F2A6
:1030F0004041C4F20201884216D040F25841C4F265
:1031000002010FE045F26C41C5F6020188420BD086
:1031100045F29441C5F60201884205D045F280414E
:10312000C5F60201884272D1216E0A68D20303D526
:103130000A6842F480720A60E16E19B10A6842F4CA
:1031400080720A60B04210DC6F21C4F20201884232
:103150001CDC3F21C4F20201884232DC1021C4F29F
:103160000201884252D028214AE0B8421ADC40F2DB
:103170003F41C4F2020188422ADC40F21041C4F20D
:103180000201884242D040F2284139E09F21C4F236
:103190000201884225DC7021C4F20201884235D048
:1031A00088212DE040F29F41C4F2020188421FDCD9
:1031B00040F27041C4F20201884227D040F28841B7
:1031C0001EE04021C4F2020188421FD0582117E0BE
:1031D00040F24041C4F20201884217D040F2584107
:1031E0000EE0A021C4F2020188420FD0B82107E00E
:1031F00040F2B841C4F20201884207D040F2A04137
:10320000C4F20201884208BF206800E0206801681B
:1032100041F001010160002001B0F0BD21680525E9
:10322000226C0B68002A65F343030B603FF4D9AEB0
:103230000A6842F00402D3E62DE9F04F83B00C682F
:10324000002C00F0C68000F1264242F2004702F155
:10325000FF72C5F602074FEAB22201920A22B84273
:1032600008BF0922002500274FF0010A009209E05B
:103270000C68043734FA0AF20AF1010A05F1020572
:1032800000F0A780AAF10109012202FA09FE14EA5E
:103290000E08EDD0D1F804B00BF00304A4F1010C3A
:1032A000BCF1010F11D803228668AA40CB6826EA38
:1032B0000202AB401A438260CBF30013426822EA59
:1032C0000E0203FA09F31A434260032C1ED00323B3
:1032D000C268AB40022C22EA03028B6803FA05F3B2
:1032E00042EA0302C26011D16FF0030207F01C062C
:1032F00002EA59020F23024403FA06F4D2F820C06E
:103300000B692CEA0404B3402343136203230268CD
:10331000AB404E689A4306F00303AB4016F4403FBF
:1033200042EA03020260A3D044F2F44340F2084EA2
:10333000C5F60203C5F6000E1A6842F002021A60D2
:103340001A6807F00C0302F002020292029A29F0B6
:103350000302019C009E092C38BF26460F2452F818
:103360000EC09C402CEA040406FA03F34FF0B04C64
:10337000234342F80E30DCF800204B6842EA08068E
:10338000DC0258BF22EA08069C02CCF8006040F23A
:10339000040CC5F6000CDCF8002042EA080658BF11
:1033A00022EA08069C03CCF80060DCF8802042EAA0
:1033B000080658BF22EA0806DB03CCF88060DCF878
:1033C0007C2042EA080658BF22EA0806CCF87C6056
:1033D0004EE703B0BDE8F08F002A08BF0904816101
:1033E000704700000000000041F20000C5F60040F8
:1033F0000068000C7047000041F20840C2F2004033
:10340000006870470000000041F2280041F20841C6
:10341000C2F20040C2F2004100780A68104408601D
:10342000704700000000000080B5032000F0D0F8D5
:1034300001F0F6FA44F2184147F64003C5F60201DE
:10344000C0F600030A68096801F00F01C2F3032205
:10345000595C9A5C01F01F0102F01F02D04041F25A
:103460002402C2F2004220FA01F1116041F220016F
:10347000C2F2004108600F2000F00AF800281CBFCB
:10348000012080BD00F080F8002080BD0000000019
:10349000B0B541F22801C2F20041097801B30446F7
:1034A00041F22000C2F200404FF47A72B2FBF1F117
:1034B0000068B0FBF1F001F07BFE0F2C4FF001052E
:1034C0000CD858B94FF0FF3000222146002500F0FB
:1034D0006FF841F22C00C2F2004004602846B0BDF3
:1034E0000120B0BD00000000B0B502784EF69C5C33
:1034F000CEF2000C43784CF8043CF2B14368CCF8AF
:103500000030037BC17A90F80AE0457B447A42EAB6
:103510000372837B42EA0161C27B41EACE41007AB9
:1035200041EA854141EA434141EA024141EA04213D
:1035300041EA4000CCF80400B0BD0020CCF8000007
:10354000CCF80400B0BD00004EF62450CEF20000CE
:10355000BFF35F8F016821F48031016000210167B2
:1035600070470000000000004EF6245140F00100BA
:10357000CEF200010867086840F480300860BFF3AD
:103580004F8FBFF36F8F704781B044F2F440C5F6A0
:103590000200016841F002010160006800F00200D1
:1035A0000090009801B0704780B503F031FB80BDFA
:1035B00070B514460D46064603F03AFB29462246EE
:1035C00002F0A6FB0146304603F03AFB70BD000056
:1035D00080B503F049FB80BDB0B544F60C05C5F6D7
:1035E000020529684907296805D401F00701081A6E
:1035F00018BF0120B0BD21F0070108432860FFF784
:10360000FBFE044655F8080C800407D4FFF7F4FECF
:10361000001BB0F57A7FF5D90120B0BD0020B0BD08
:1036200080B501F0ADF944F2204147F64002C5F6FD
:103630000201C0F600020968C1F30211515C01F0F9
:103640001F01C84080BD000080B544F2304EC5F671
:10365000020E5EF8083C5EF8081CC1F3051C5EF81B
:10366000041CBCF1000FDEF8042016D0C2F3CC021B
:1036700001F00101514303F00303022B00EE101A85
:10368000B8EE400A0ED0012B0FD01BB95EF8301CEB
:1036900089060DD49FED341A18E000218160C0E93D
:1036A000001180BD9FED2F1A10E09FED2D1A0DE047
:1036B0005EF8301C49F20002C0F2D032C1F3C10101
:1036C00022FA01F101EE101AB8EE411ADEF80010EC
:1036D0009FED263A6FF35F2102EE101ADEF800101C
:1036E000C1F34621B8EE422A00EE032A00EE10CACA
:1036F000B7EE003AB8EE400A81EE000A32EE031A45
:1037000002EE101AB8EE422A20EE010A32EE031A37
:1037100080EE011ABCEEC11A80ED001ADEF800102E
:10372000C1F3064101EE101AB8EE411A31EE031A48
:1037300080EE011ABCEEC11A80ED011ADEF800100D
:10374000C1F3066101EE101AB8EE411A31EE031A08
:1037500080EE010ABCEEC00A10EE101A816080BD36
:103760000024744A20BCBE4B0024744C0000003975
:1037700080B544F2384EC5F6020E5EF8103C5EF895
:10378000101CC1F3053C5EF80C1CBCF1000FDEF808
:10379000042014D0C1F30011C2F3CC02514300EE57
:1037A000101A03F003010229B8EE400A0CD071B9D7
:1037B0005EF8381C89060DD49FED341A18E00021FC
:1037C0008160C0E9001180BD9FED2F1A10E09FEDD0
:1037D0002D1A0DE05EF8381C49F20002C0F2D0321A
:1037E000C1F3C10122FA01F101EE101AB8EE411A3B
:1037F000DEF800109FED263A6FF35F2102EE101AFB
:10380000DEF80010C1F34621B8EE422A00EE032A8A
:1038100000EE10CAB7EE003AB8EE400A81EE000A98
:1038200032EE031A02EE101AB8EE422A20EE010A16
:1038300032EE031A80EE011ABCEEC11A80ED001AB6
:10384000DEF80010C1F3064101EE101AB8EE411A7D
:1038500031EE031A80EE011ABCEEC11A80ED011A96
:10386000DEF80010C1F3066101EE101AB8EE411A3D
:1038700031EE031A80EE010ABCEEC00A10EE101AF7
:10388000816080BD0024744A20BCBE4B0024744C6F
:10389000000000390000000080B544F2404EC5F63B
:1038A000020E5EF8183C5EF8181CC1F3055C5EF869
:1038B000141CBCF1000FDEF8042014D0C1F3002169
:1038C000C2F3CC02514300EE101A03F003010229A7
:1038D000B8EE400A0CD071B95EF8401C89060DD4D0
:1038E0009FED341A18E000218160C0E9001180BD0D
:1038F0009FED2F1A10E09FED2D1A0DE05EF8401C91
:1039000049F20002C0F2D032C1F3C10122FA01F142
:1039100001EE101AB8EE411ADEF800109FED263ABB
:103920006FF35F2102EE101ADEF80010C1F346219A
:10393000B8EE422A00EE032A00EE10CAB7EE003AB3
:10394000B8EE400A81EE000A32EE031A02EE101AB7
:10395000B8EE422A20EE010A32EE031A80EE011A76
:10396000BCEEC11A80ED001ADEF80010C1F306416A
:1039700001EE101AB8EE411A31EE031A80EE011A68
:10398000BCEEC11A80ED011ADEF80010C1F3066129
:1039900001EE101AB8EE411A31EE031A80EE010A58
:1039A000BCEEC00A10EE101A816080BD0024744A7B
:1039B00020BCBE4B0024744C000000390000000005
:1039C00080B584B0024641F6FF7300209B1A70EB6D
:1039D000010329DB40F2FF339B1A70EB01034FDA3E
:1039E00082F480630B4300F0AD8082F400630B43EC
:1039F00000F0BB8082F48052114340F07A8144F29F
:103A00000041C5F60201086DC0F30232042A00F23B
:103A10005D8148F20000C0F2BB00DFE812F0B9009F
:103A2000E000E7006A01F00047F6FF739B1A70EBB5
:103A3000010343DA82F400430B4300F0AD8082F4CB
:103A400080330B4300F0C08082F40022114340F029
:103A5000508144F20040C5F60200816D01F440310E
:103A6000B1F5003F00F01A81B1F5803F00F02281EE
:103A7000002940F02B810068000140F12781B1E06E
:103A800082F480730B4335D082F40072114340F00E
:103A9000308144F20041C5F60201086DC0F3821284
:103AA000042A00F2138148F20000C0F2BB00DFE8F4
:103AB00012F06F0096009D002001A60082F40053D2
:103AC0000B432CD082F48042114340F0128144F227
:103AD0000040C5F60200816DC1F30271052900F2B4
:103AE000F580DFE801F003ACB3BAC86AFFF798FDD0
:103AF00004B080BD44F20041C5F60201086D00F03B
:103B00000702042A00F2E28048F20000C0F2BB0083
:103B1000DFE812F03E0065006C00EF00750044F233
:103B20000040C5F60200016DC1F30241052900F213
:103B3000CD80DFE801F003848B92A04200F048FFC3
:103B400004B080BD44F20041C5F60201886DC0F3A7
:103B50004252042A00F2BA8048F20000C0F2BB00D0
:103B6000DFE802F0163D44C74D0044F20041C5F6BF
:103B70000201886DC0F30262042A00F2A78048F2B5
:103B80000000C0F2BB00DFE802F0032A31B43A00C3
:103B9000086880017CD499E044F20040C5F6020038
:103BA000016D01F04051B1F1005F00F08C80B1F186
:103BB000805F6AD0002940F08980006847F64001A4
:103BC0008003C0F27D115CE044F20040C5F60200C3
:103BD000C16C0068C9032CD4800177D558E008680F
:103BE000000173D501A8FFF7C3FD05E00868800058
:103BF0006CD501A8FFF750FE019804B080BDC86CD9
:103C00000B6810F04052086802D113F0040328D169
:103C1000B2F1805F02D110F4807060D1086810F4B6
:103C200000301CBF47F64000C0F27D10B2F1005FCB
:103C30006BE000014AD501A8FFF79AFD40E000685B
:103C4000000143D501A8FFF793FD24E00068800040
:103C50003CD501A8FFF720FE1DE00168490735D5D6
:103C60000068C0F3C10049F20001C0F2D03121FA6E
:103C700000F004B080BD006840F60011C005C0F23D
:103C80003D0101EAE07004B080BD006880011DD5EF
:103C900001A8FFF7D9FC029804B080BDC16C03688D
:103CA00011F04051026814D113F0040311D0C2F393
:103CB000C100D8E70068800008D501A8FFF7ECFD37
:103CC000039804B080BD006800010ED4002004B049
:103CD00080BDB1F1805F0ED112F480720BD040F63E
:103CE0000010C0F23D0004B080BD01A8FFF740FD08
:103CF000029804B080BD006810F400301CBF47F685
:103D00004000C0F27D10B1F1005F18BF002004B088
:103D100080BD0000000000002DE9F04381B00446A2
:103D2000C07844F22C490007C5F6020901D40025E9
:103D30002EE0A06E4FEA305003280DD80025DFE8B2
:103D400000F0020E1714D9F80000002540F40030EE
:103D5000C9F8000055B913E001253DB910E004F1A0
:103D60000800022102F014F805464DB1A84611E002
:103D700004F12800022102F09BF80546002DF5D140
:103D8000D9F82400A16E20F440100843C9F824009B
:103D90004FF000086078C00730D0A06D042807D825
:103DA000DFE800F00A131C030300FDB1A84625E07C
:103DB0000125002DFAD119E0D9F8000040F40030B7
:103DC000C9F80000002DF1D110E004F10800002135
:103DD00001F0DEFF0546002DE8D107E004F12800E0
:103DE000002102F065F80546002DDFD1D9F8240046
:103DF000A16D20F007000843C9F82400607880070F
:103E000032D5E06D4FEAB010042807D8DFE800F0A3
:103E10000A131C030300FDB1A84625E00125002D6F
:103E2000FAD119E0D9F8000040F40030C9F80000D8
:103E3000002DF1D110E004F10800002101F0A8FFED
:103E40000546002DE8D107E004F12800002102F02A
:103E50002FF80546002DDFD1D9F82400E16D20F4BC
:103E6000E0700843C9F824006078400734D5D4F8DE
:103E7000A8004FEA7050042807D8DFE800F00A13C2
:103E80001C030300FDB1A84626E00125002DFAD150
:103E900019E0D9F8000040F40030C9F80000002D06
:103EA000F1D110E004F10800002101F071FF054696
:103EB000002DE8D107E004F12800002101F0F8FF0F
:103EC0000546002DDFD1D9F82C00D4F8A81020F435
:103ED00060000843C9F82C006078000734D5D4F896
:103EE000AC004FEA3060042807D8DFE800F00A137E
:103EF0001C030300FDB1A84626E00125002DFAD1E0
:103F000019E0D9F8000040F40030C9F80000002D95
:103F1000F1D110E004F10800002101F039FF05465D
:103F2000002DE8D107E004F12800002101F0C0FFD6
:103F30000546002DDFD1D9F82C00D4F8AC1020F0C4
:103F4000E0600843C9F82C00E078800728D5E06CD1
:103F50004FEA3010032806D8DFE800F00209120209
:103F6000B5B1A8461CE00125002DFAD110E0D9F822
:103F7000000040F40030C9F80000002DF1D107E046
:103F800004F10800022101F003FF0546002DE8D1ED
:103F9000D9F82000E16C20F030000843C9F8200077
:103FA0006078C00632D5206E4FEA3030042807D83A
:103FB000DFE800F00A131C030300FDB1A84625E06A
:103FC0000125002DFAD119E0D9F8000040F40030A5
:103FD000C9F80000002DF1D110E004F10800002123
:103FE00001F0D6FE0546002DE8D107E004F12800D7
:103FF000002101F05DFF0546002DDFD1D9F8240036
:10400000216E20F4E0400843C9F82400607880065F
:1040100026D5606E4FEA3040052807D8DFE800F06B
:10402000030A100303039DB1A84619E00125002DE2
:10403000FAD10DE004F10800012101F0A9FE04E02D
:1040400004F12800012101F033FF0546002DEBD1DA
:10405000D9F82400616E20F4E0200843C9F8240058
:104060006078400628D5D4F8B0004FEA30700528B3
:1040700007D8DFE800F0030A100303039DB1A84648
:104080001AE00125002DFAD10DE004F1080001210C
:1040900001F07EFE04E004F12800012101F008FF98
:1040A0000546002DEBD1D9F82C00D4F8B01020F043
:1040B000E0400843C9F82C006078000620D5206F46
:1040C000D8B1B0F1005F12D0B0F1805F25D1D9F83E
:1040D000000040F40030C9F8000085B9D9F8240088
:1040E000216F20F040500843C9F8240008E004F193
:1040F0000800012101F04CFE0546002DEED0A84637
:10410000E078C0072AD0A06C03280AD8DFE800F0C6
:10411000020D1602D5B1A84620E00125002DEED1F2
:10412000DCE70125002DF6D110E0D9F8000040F4BD
:104130000030C9F80000002DEDD107E004F10800BF
:10414000022101F025FE0546002DE4D1D9F820001A
:10415000A16C20F003000843C9F82000A0784006B5
:1041600042D5D9F8D40340F48070C9F8D403FFF7DE
:1041700043F90646D9F8D403C00505D4FFF73CF946
:10418000801B6528F6D303256DBBD9F84410D4F8FD
:10419000B400414011F4407F11D0D9F84410D9F84F
:1041A000442042F48032C9F84420D9F8442021F454
:1041B000407122F48032C9F84420C9F84410B0F5A7
:1041C000807F0FD1FFF718F9064641F2893700BF0B
:1041D000D9F84400800705D4FFF70EF9801BB842D8
:1041E000F6D3032585B1A8462078C00742D0E06FFA
:1041F0004FEAF000052823D8DFE800F003262C035F
:1042000003037DB3A84635E04FF6CF73D4F8B4006E
:1042100059F81C2CC0F2FF0300F4407122F47C52C8
:1042200003EA1013B1F5407F08BF1A436FF31F3044
:1042300049F81C2CD9F844100843C9F84400D3E7C6
:104240000125002DDED10DE004F10800012101F06F
:104250009FFD04E004F12800012101F029FE05463C
:10426000002DCFD1D9F82800E16F20F038000843A5
:10427000C9F828002078800724D5A06F052807D822
:10428000DFE800F0030A100303039DB1A84619E01C
:104290000125002DFAD10DE004F10800012101F003
:1042A00077FD04E004F12800012101F001FE05463C
:1042B000002DEBD1D9F82800A16F20F007000843AA
:1042C000C9F828002078400726D5D4F8940005289E
:1042D00007D8DFE800F0030A100303039DB1A846E6
:1042E0001AE00125002DFAD10DE004F108000121AA
:1042F00001F04EFD04E004F12800012101F0D8FD99
:104300000546002DEBD1D9F82C00D4F8941020F0FC
:1043100007000843C9F82C002078800628D5D4F877
:1043200090004FEA3070052807D8DFE800F0030A54
:10433000100303039DB1A8461AE00125002DFAD110
:104340000DE004F10800002101F022FD04E004F179
:104350002800022101F0ACFD0546002DEBD1D9F873
:104360002800D4F8901020F0E0400843C9F8280055
:104370002078400628D5D4F89C004FEAB0200528C4
:1043800007D8DFE800F0030A100303039DB1A84635
:104390001AE00125002DFAD10DE004F108000021FA
:1043A00001F0F6FC04E004F12800022101F080FD98
:1043B0000546002DEBD1D9F82C00D4F89C1020F440
:1043C000E0500843C9F82C002078000628D5D4F81E
:1043D000A0004FEA7030052807D8DFE800F0030A94
:1043E000100303039DB1A8461AE00125002DFAD160
:1043F0000DE004F10800002101F0CAFC04E004F122
:104400002800022101F054FD0546002DEBD1D9F81A
:104410002C00D4F8A01020F460400843C9F82C0008
:104420002078000716D5D4F88400B0F5805F08D155
:1044300004F12800022101F03BFD002818BF4FF0D5
:104440000108D9F82800D4F8841020F4405008431B
:10445000C9F828002078C00616D5D4F89800B0F521
:10446000807F08D104F12800022101F021FD0028FD
:1044700018BF4FF00108D9F82C00D4F8981020F498
:1044800040700843C9F82C00A078000722D5D4F862
:10449000A400B0F5003F1AD0B0F5803F11D0C8BBE2
:1044A00004F10800002101F073FC05468DB9D9F82C
:1044B0002C00D4F8A41020F440300843C9F82C0094
:1044C00008E004F12800022101F0F2FC0546002D6D
:1044D000EDD0A846A078400729D5D4F88800B0F5DB
:1044E000401F21D0B0F5001F18D0B0F5801F40F05C
:1044F000BF80D9F8000040F40030C9F80000ADB921
:10450000D9F82800D4F8881020F440100843C9F8DE
:1045100028000CE00125002DDBD1C8E704F12800BC
:10452000012101F0C5FC0546002DE9D0A846A07880
:10453000C00720D0206DB0F5803F10D0B8B9D9F8B1
:10454000000040F40030C9F800009DB9D9F82000FF
:10455000216D20F480300843C9F820000BE004F1FD
:104560000800022101F014FC05461DB9EEE7012503
:10457000002DEBD0A846E078800608D504F128008D
:10458000022101F095FC002818BF4FF00108D4E982
:1045900000108A037BD5D4F880206FF0010303EB71
:1045A0003223022B0AD34FEA32233BB1012B64D1D1
:1045B000D9F8003043F40033C9F80030002D5FD043
:1045C000CA0267D4CA006FD48A0279D44A0000F1C3
:1045D0008280B1F1FF3F40F38F80090200F19780A4
:1045E000C00707D004F10800002101F0D1FB00282A
:1045F00018BF05462079800707D504F1080001217E
:1046000001F0C6FB002818BF05462079400707D5F2
:1046100004F10800022101F0BBFB002818BF054689
:104620002079000707D504F12800002101F040FCA3
:10463000002818BF05462079C00607D504F12800D8
:10464000012101F035FC002818BF054620798006BD
:1046500007D504F12800022101F02AFC002818BF28
:104660000125002D18BF0125284601B0BDE8F083C3
:104670000125002D7FF45AAF42E70125002D9FD17F
:10468000D9F8283023F440731A43C9F82820454646
:10469000CA0297D5D9F82420636F22F000421A434A
:1046A000C9F82420CA008FD559F81C2CD4F8B8308A
:1046B00022F480421A4349F81C2C8A027FF586AF07
:1046C000D9F82420E36E22F080721A43C9F824201E
:1046D0004A007FF57EAF59F81C2C22F4004249F8BD
:1046E0001C2CD4F8BC2059F81C3C1A4349F81C2C4B
:1046F000B1F1FF3F3FF771AFD9F82020636D22F091
:1047000040521A43C9F8202009027FF569AFD9F851
:104710002810D4F88C2021F440011143C9F8281046
:10472000C0077FF45FAF65E72DE9F04381B0002853
:1047300000F0F48042F200080446C5F200288946E1
:10474000D8F8000000F00F0088420ED2D8F8000020
:1047500020F00F0040EA0900C8F80000D8F8000077
:1047600000F00F00484540F0D980206844F2184717
:104770004107C5F602070AD521693A6802F07002BE
:10478000914204D93A6822F070021143396001075E
:104790000AD561697A6802F07002914204D97A6898
:1047A00022F0700211437960C1060AD5A1697A68C6
:1047B00002F4E062914204D97A6822F4E062114383
:1047C000796081060AD5E169BA6802F07002914207
:1047D00004D9BA6822F070021143B96081070AD582
:1047E000E1683A6802F00F02914204D93A6822F077
:1047F0000F0211433960C0077ED1206881070AD5B6
:10480000E1683A6802F00F02914204D23A6822F05D
:104810000F0211433960D8F8001001F00F0149452B
:104820000DD9D8F8001021F00F0141EA0901C8F8AC
:104830000010D8F8001001F00F0149456ED1410772
:104840000AD521693A6802F07002914204D23A68AE
:1048500022F070021143396001070AD561697A6854
:1048600002F07002914204D27A6822F07002114381
:104870007960C1060AD5A1697A6802F4E0629142C2
:1048800004D27A6822F4E0621143796080060AD586
:10489000E069B96801F07001884204D2B96821F07A
:1048A00070010843B86000F0BBF8396847F6400271
:1048B000C0F600023B68C1F3032103F00F03515C13
:1048C000D25C01F01F01C84002F01F0141F2240236
:1048D00020FA01F1C2F20042116041F2200141F2DE
:1048E0002C02C2F20041C2F2004208601068FEF7DA
:1048F000CFFD01B0BDE8F083386820F47061D4E9E1
:104900000102012841EA020139600BD003282BD0B3
:1049100002282ED157F8181C890307D4012001B0B2
:10492000BDE8F08357F8181CC905F7D557F8081CDF
:1049300021F00701084347F8080CFEF75DFD064625
:1049400041F2883557F8080C616800F03800B0EB88
:10495000C10F3FF452AFFEF74FFD801BA842F1D9C3
:10496000032001B0BDE8F08357F8181C8901D5D5A4
:10497000DCE757F8181C4907D0D5D7E7000000003E
:1049800080B500F04DF844F2184147F64003C5F6F3
:104990000201C0F600030A68096801F00F01C2F3C2
:1049A0000322595C9A5C02F01F0220FA02F201F025
:1049B0001F0041F2240122FA00F0C2F20041086017
:1049C00041F22001C2F200410A6080BD00000000F7
:1049D00080B5FFF7D5FF44F21C4147F64002C5F60B
:1049E0000201C0F600020968C1F30211515C01F036
:1049F0001F01C84080BD000080B5FFF7C1FF44F231
:104A00001C4147F64002C5F60201C0F600020968E3
:104A1000C1F30221515C01F01F01C84080BD0000BC
:104A200044F20041C5F602010869C0F3C200032840
:104A30000FD002282AD070BB0868800649F2000017
:104A4000C0F2D03058BF70470968C1F3C101C840F7
:104A500070478A6A886AC0F3051CC86ABCF1000FF7
:104A60004B6B1DD0C3F3CC0300F00100584302F0A0
:104A70000302022A00EE100AB8EE400A12D0A2B9D0
:104A80000868800614D49FED261A1EE047F6400001
:104A9000C0F27D10704740F60010C0F23D00704734
:104AA000002070479FED1D1A0FE09FED1B1A0CE0D0
:104AB000086849F20002C0F2D032C0F3C10022FA05
:104AC00000F001EE100AB8EE411A086B9FED153A9E
:104AD0006FF35F2002EE100A086BC0F34620B8EEB9
:104AE000422A013000EE032A00EE10CAB7EE003A67
:104AF000B8EE400A81EE000A32EE031A20EE010AF7
:104B000001EE100AB8EE411A80EE010ABCEEC00AAE
:104B100010EE100A704700BF0024744A20BCBE4B40
:104B20000024744C000000392DE9F04381B0F8B145
:104B30008046007844F20049C007C5F602095AD001
:104B4000D9F8100000F03801D9F82800102905D054
:104B500018290FD100F0030002280BD1D9F800006A
:104B6000800344D5D8F80400002840D101272FE065
:104B7000012718E3D8F804402CB1B4F5A02F0DD0CC
:104B8000B4F5803F10D0D9F8000020F48030C9F887
:104B90000000D9F8000020F4802009E0D9F80000D6
:104BA00040F48020C9F80000D9F8000040F48030BB
:104BB000C9F80000FEF720FC0546A4B1D9F80000B2
:104BC000800314D4FEF718FC401B6428F6D9032791
:104BD0000020002800F0E7820DE000BFFEF70CFC8B
:104BE000401B6428F3D8D9F800008003F6D40120D4
:104BF000002800F0D88298F80000800740F18480F7
:104C0000D9F8100010F03801D9F828001CD0182964
:104C100008BF5FEA807017D0D8F80C00D9F80010F0
:104C2000002847D021F019010843C9F80000FEF719
:104C3000E3FB0546D9F8000040072AD4FEF7DCFB69
:104C4000401B0228F6D91EE0D9F80000400704D521
:104C5000D8F80C00002800F09681D9F80000D8F8A8
:104C60000C1020F019000843C9F80000FEF7C4FB3F
:104C7000054600BFD9F8000040070AD4FEF7BCFB88
:104C8000401B0228F6D903270024002C00F08B8259
:104C90003AE0FEF7A9FB41F20301884223D8D8F895
:104CA0001000D9F80410402821F47C3124D141F4BB
:104CB000003023E021F00100C9F80000FEF79CFB62
:104CC00005460126D9F8000010F0040086EA900499
:104CD00017D0FEF791FB401B0328F3D30327002CCA
:104CE00000F0618210E0D9F80400D8F8101020F02C
:104CF000FE4040EA016001E041EA0030C9F80400EA
:104D00000124002C00F04F8298F80000C00674D5F2
:104D1000D9F8100000F03801D9F82800082905D08A
:104D200018291CD100F00300012818D1D9F800007F
:104D3000C00503D5D8F81C00802859D1FEF754FBD4
:104D400041F20301884222D8D8F82000D9F8041093
:104D5000202821F0F84142D141F0804041E0D8F8CC
:104D60001C000028D9F8000020D040F08000C9F8CD
:104D70000000FEF741FB0546D9F80000C005DDD470
:104D8000FEF73AFB401B0228F6D9032731E0D9F899
:104D90000C00D8F8201020F07C50012440EA01607B
:104DA000C9F80C00002C00F0FE8126E020F0800005
:104DB000C9F80000FEF720FB05460126D9F80000DF
:104DC00010F4807086EA10240ED0FEF715FB401B0D
:104DD0000328F3D30327002C00F0E5810DE041EA1E
:104DE0008060C9F804000124002C00F0DC8104E09C
:104DF00001270024002C00F0D68198F8000000075D
:104E00001CD498F80000800631D498F800004007C0
:104E100045D4D8F82440002C00F09180D9F8100037
:104E200000F03800182840F08C80012CD9F82810A8
:104E3000D9F8300040F0A9800127B4E1D8F8140077
:104E40000028D9F874003ED040F00100C9F8740081
:104E5000FEF7D2FA054600BFD9F874008007D0D417
:104E6000FEF7CAFA401B0228F6D903279BE1D8F8BF
:104E700018000028D9F800004DD040F48050C9F83F
:104E80000000FEF7B9FA0546D9F800008004BCD44A
:104E9000FEF7B2FA401B0228F6D9032783E1D9F8BE
:104EA000000440F48070C9F80004FEF7A5FA054636
:104EB000D9F80004C0051AD4FEF79EFA401B6428F6
:104EC000F6D903276FE120F00100C9F87400FEF75E
:104ED00093FA0546032700BFD9F8740080077FF5D1
:104EE00090AFFEF789FA401B0228F5D95BE1D8F8AC
:104EF00008402CB1052C00F08280012C00F0858048
:104F0000D9F8700020F00100C9F87000D9F87000DD
:104F100020F004007DE020F48050C9F80000FEF786
:104F20006BFA0546032700BFD9F8000080047FF51F
:104F30006CAFFEF761FA401B0228F5D933E1002778
:104F400031E1D9F8000020F08070C9F80000FEF7C8
:104F500053FA022C05464FF0030709D1D9F8000097
:104F6000800178D5FEF748FA401B0228F6D91AE1ED
:104F7000D9F80000800140F1E780FEF73DFA401BC0
:104F80000228F5D90FE101277EE601F00302D8F8E7
:104F900028309A4240F0DA80C1F30511D8F82C206D
:104FA000914240F0D7800146D8F830206FF35F215E
:104FB000013A914240F0D080C0F34622D8F8341034
:104FC00001398A4240F0CA80C0F30642D8F838104E
:104FD00001398A4240F0C480C0F30660D8F83C1022
:104FE0000139884240F0BE80D9F83400D8F8481022
:104FF000C0F3CC00814240F0B7800027D3E0D9F85D
:10500000700040F00400C9F87000D9F8700040F05A
:105010000100C9F87000FEF7EFF9002C054641F2D7
:1050200088344FF0030711D0D9F8700080073FF59E
:10503000F0AEFEF7E1F9401BA042F5D9B3E000BFA6
:10504000FEF7DAF9401BA04200F2AD80D9F87000FB
:105050008007F5D4DDE608F12807D9F8280040F2EA
:10506000F33188438ECF0843591E40EA02104FF4B3
:105070007E426FF35F21C9F8280002EB47204FF40E
:10508000FE0280B2D8F83C300844D8F8381002EB61
:1050900001414FF0FE4201F4FE0102EB03620844BD
:1050A00002F0FE410844C9F83000D9F82C004FF650
:1050B000F87120F00100C9F82C00D9F83400D8F8B4
:1050C0004820884340EAC200C9F83400D9F82C00CF
:1050D000D8F8401020F00C000843C9F82C00D9F88B
:1050E0002C00D8F8441020F002000843C9F82C0026
:1050F000D9F82C0040F48030C9F82C00D9F82C00E5
:1051000040F40030C9F82C00D9F82C0040F480207D
:10511000C9F82C00D9F82C0040F00100C9F82C0087
:10512000D9F8000040F08070C9F80000FEF764F97B
:1051300004460327D9F80000800109D4FEF75CF982
:10514000001B0228F6D92EE000272CE001272AE0D8
:10515000002728E0012726E0012724E0012722E09C
:10516000012720E001271EE0D9F82C0020F00100E3
:10517000C9F82C00FEF740F90546FEF73DF9A842B4
:10518000FBD0D9F834004FF6F871D8F8482088439E
:10519000002740EAC200C9F83400D9F82C0040F0DA
:1051A0000100C9F82C00F8B201B0BDE8F08300009E
:1051B00080B500F011FF80BDB0B590F83C20012A09
:1051C0004FF002025CD0012380F83C3080F83D2093
:1051D00040F2004C0268C4F2010C42F48063634563
:1051E0005368D2F808E002BF23F470034C682343ED
:1051F00041F2FF740D68C4F2000423F07003A24270
:1052000043EA050353600BDC40F2FF73C4F2000372
:105210009A4215DCB2F1804F27D040F2004317E0EC
:1052200040F2FF33C4F201039A4216DC41F6000358
:10523000C4F200039A4218D00023C4F2010309E02B
:1052400040F60003C4F200039A420ED040F6004339
:10525000C4F200039A4208D00CE044F20003C4F206
:1052600001039A4201D0624504D12EF0800389687F
:10527000194391600022012180F83D1080F83C2004
:105280001046B0BD0000000060B310B5044690F8B1
:105290003D0028B9002084F83C00204600F024F8A6
:1052A000022084F83D002068211D00F09DFF0120B0
:1052B00084F8480084F83E0084F83F0084F84000F9
:1052C00084F8410084F8420084F8430084F84400E4
:1052D00084F8450084F8460084F8470084F83D00CF
:1052E000002010BD0120704781B041F2000100682C
:1052F000C4F20001884201D001B0704744F2E84096
:10530000C5F60200016841F010010160006800F07C
:1053100010000090009801B07047000000000000ED
:1053200090F83D10012917D1022180F83D10016845
:1053300041F2FF70C4F2000081420FDC40F2FF70C6
:10534000C4F20000814217DCB1F1804F2BD040F253
:105350000040C4F2000024E00120704740F2FF301A
:10536000C4F20100814212DC41F60000C4F20000E8
:10537000814218D0002012E040F60000C4F2000084
:10538000814210D040F60040C4F2000009E044F22F
:105390000000C4F20100814205D040F20040C4F296
:1053A000010081420BD107228868C0F2010202404D
:1053B0000020062A18BFB2F5803F00D17047086868
:1053C00040F001000860002070470000000000006D
:1053D00090F88410012901D1022070472421C0F8DF
:1053E000881002681368116823F0005321F001014E
:1053F00011600021416613602022C0F8882080F8E7
:105400008410084670470000B0B5044690F8840048
:10541000012801D10220B0BD012084F8840024209D
:10542000C4F8880020680568026822F00102026062
:10543000826822F0606211438160204600F098FF8C
:10544000206805602020C4F88800002084F88400CB
:10545000B0BD000000000000B0B5044690F8840024
:10546000012801D10220B0BD012084F8840024204D
:10547000C4F8880020680568026822F00102026012
:10548000826822F0604211438160204600F070FF84
:10549000206805602020C4F88800002084F884007B
:1054A000B0BD00000000000010B5B0B10446D0F857
:1054B000880028B9002084F88400204600F028F8ED
:1054C0002420C4F888002068016821F001010160EF
:1054D000204601F075F8012801D1012010BDA06A15
:1054E00010B1204600F070FF2068416821F490411F
:1054F0004160816821F02A018160016841F0010169
:105500000160204600F0D0FF10BD00000000000048
:10551000B0B5B8B0044602A8C0210025CDE9365583
:10552000CDE934553395FAF70BFF41F200012068BD
:10553000C4F20101884201D038B0B0BD0120029010
:1055400002A803952195FEF7E7FB08B1FBF770FE73
:1055500044F2E040C5F60200016941F0100101612A
:10556000016901F0100101910199016841F0010107
:105570000160006833A900F00100019001984FF428
:10558000C0603390022034900020CDE93500072020
:1055900037900020C5F60200FDF74EFE38B0B0BDD2
:1055A0002DE9F04182B00446D0F8880020283FD190
:1055B0000E4600294FF001004BD01746002A48D074
:1055C0001D464FF00008C4F890802120C4F88800E0
:1055D000FDF712FFA4F85470A4F856700746A168AE
:1055E000B1F5805F0FD12069002814BF3046B04666
:1055F000064608E0206816F8011B8162B4F85600E0
:105600000138A4F85600B4F85600A8B18021002251
:1056100020463B46009501F097FAE8B9002EE9D103
:1056200038F8020B216800266FF35F208862E5E7F7
:10563000022002B0BDE8F0814021002220463B4616
:10564000009501F081FA20210028C4F8881018BFC5
:10565000032002B0BDE8F0812020C4F888000320B8
:1056600002B0BDE8F0810000FEE70000000000008D
:105670004FF6C0728168C7F6FF7211400231816037
:1056800070470000000000004FF6C0728168C5F648
:10569000FF721140816070474FF6C0728168C7F693
:1056A000FF7211400131816070470000000000006E
:1056B0004FF6C0728168C6F6FF72114001F1805149
:1056C0008160704700000000806800F0E070704763
:1056D000806800F01F0070478068C0F3C00070470A
:1056E0008068C00F704700008068C0F3407070474A
:1056F0008068C0F340007047806800F00100704788
:10570000806800F0010070478068C0F30070704747
:105710008068C0F3800070478068C0F380007047E5
:10572000C06800F44060B0FA80F0400970470000A3
:10573000C26822F003021143C160704700000000FC
:1057400080B5C1F3012301F01F01C2F384624FF061
:105750001F0C00EB83000CFA01F3D0F830E002FAE2
:1057600001F12EEA03031943016380BD000000002C
:105770004FF6C0728168C7F6FF7211400431816034
:10578000704700000000000080B5C1F340634FF097
:10579000070CC1F3045100EB83000CFA01F3D0F8BD
:1057A00014E002FA01F12EEA03031943416180BDBE
:1057B00080B54FF6FF7ECB43C0F20F0E02F0180209
:1057C000D0F8C0C063EA0E032EFA02F203EA0C031B
:1057D00011401943C0F8C01080BD00000000000057
:1057E000826822F47C12114381607047000000003F
:1057F000826822F0E072114381607047000000006F
:10580000036901F01F0123F4F04302FA01F1194387
:10581000016170470000000000EB810002F0F842D7
:105820001A43016E01F00041114301667047000008
:1058300000EB8100016E21F00041114301667047C9
:105840004FF6C07C8368C3F6FE7C01F4803102F021
:10585000804203EA0C031144194401F100418160C4
:10586000704700000000000010B584B00024CDE9AE
:105870000244CDE90044FDF767FE0120ADF80000C9
:1058800048F21F70029040F20110039068460194A4
:10589000FDF72AFE0420FDF767FE04B010BD0000EE
:1058A00010B58AB041F28C0042F20001C2F2004011
:1058B0000024CDE90844CDE90644CDE90444CDE90E
:1058C0000244CDE90044C4F202018460C0E900143E
:1058D0000121C160042202614FF48072828202229F
:1058E000826104770322C0E90944C2624FF4805206
:1058F000C0E90C2480F838104FF48062C2634FF482
:10590000A072C0E910248164FBF7FEFE08B1FBF72A
:105910008FFC41F28C0007A9C2F200400794FBF70C
:10592000D3FC08B1FBF784FC41F200006946C3F2E6
:1059300060200090062001900720029040F2FF7046
:10594000039004200490002005908DF8190041F286
:105950008C00C2F20040FBF73FFD08B1FBF768FC8A
:1059600042F200006946C3F2906000900C20019062
:1059700041F28C00C2F20040FBF72EFD08B1FBF7AC
:1059800057FC0AB010BD0000B0B588B041F2F0007D
:1059900042F20011C2F2004000240794C4F2020156
:1059A000CDE90544CDE90344CDE90144C0E9001443
:1059B000C0E90244042505618482012181614FF41C
:1059C000B461047741624FF4806181620321C16256
:1059D0004FF48051C0E90C1480F83840FBF794FE76
:1059E00008B1FBF725FC40F2001001A9C2F28010BB
:1059F0000190062002900720039040F2FF70069469
:105A0000CDE9040541F2F0008DF81D40C2F20040DE
:105A1000FBF7E2FC08B1FBF70BFC08B0B0BD0000DF
:105A2000B0B588B041F2541046F20001C2F2004015
:105A300000240794C5F60201CDE90544CDE90344ED
:105A4000CDE901440160012184600425C1604FF467
:105A5000807105618182032185610477C0E9094471
:105A6000C1624FF48051C0E90C1480F83840FBF754
:105A70004BFE08B1FBF7DCFB40F6000001A9C2F6C3
:105A800030600190062002900720039040F2FF70E2
:105A90000694CDE9040541F254108DF81D40C2F280
:105AA0000040FBF799FC08B1FBF7C2FB41F2000094
:105AB00001A9C3F2602001900C20029041F2541021
:105AC000C2F20040FBF788FC08B1FBF7B1FB0020F5
:105AD00001A9CCF6B87001901220029041F2541046
