:020000040800F2
:10000000680A0024AD020008194E0008614C00087F
:10001000E94D0008E1030008E15D00080000000070
:1000200000000000000000000000000099500008DF
:10003000090A000800000000514E0008D1500008D5
:10004000C7020008C7020008C7020008C70200086C
:10005000C7020008C7020008C7020008C70200085C
:10006000C7020008C7020008C7020008E903000829
:10007000F9030008C7020008C7020008C702000809
:10008000C7020008C7020008C7020008C70200082C
:10009000C7020008C7020008C7020008C70200081C
:1000A000C7020008C7020008C7020008C70200080C
:1000B000C7020008C7020008C7020008C7020008FC
:1000C000C7020008C7020008C7020008C7020008EC
:1000D000C7020008C15D0008C7020008C702000887
:1000E000C7020008C702000800000000C70200089D
:1000F000C7020008C7020008C7020008C7020008BC
:10010000C7020008C7020008C7020008C7020008AB
:10011000C7020008C7020008C7020008C70200089B
:10012000C7020008C7020008C7020008C70200088B
:10013000C7020008C7020008C7020008C70200087B
:1001400000000000000000000000000000000000AF
:10015000C7020008C7020008C7020008C70200085B
:10016000C7020008C7020008C7020008C70200084B
:10017000C7020008C7020008C7020008C70200083B
:10018000C7020008C7020008C7020008C70200082B
:10019000C7020008C7020008C7020008C70200081B
:1001A000C7020008C7020008C7020008C70200080B
:1001B000C7020008C7020008C7020008C7020008FB
:1001C000C7020008C7020008C7020008C7020008EB
:1001D000C7020008C7020008C7020008C7020008DB
:1001E000C7020008C7020008C7020008C7020008CB
:1001F000C7020008C7020008C7020008C7020008BB
:10020000C7020008C7020008C7020008C7020008AA
:10021000C7020008C7020008C7020008C70200089A
:10022000C7020008C7020008C7020008000000005B
:10023000C7020008C702000800000000C70200084B
:10024000C7020008C7020008C7020008C70200086A
:10025000C7020008C7020008C7020008C70200085A
:10026000C7020008C7020008C7020008C70200084A
:10027000C7020008C7020008C7020008000000000B
:10028000C7020008C7020008C702000800000000FB
:1002900000000000C7020008DFF80CD000F08CF866
:1002A00000480047B1670008680A002406488047F4
:1002B00006480047FEE7FEE7FEE7FEE7FEE7FEE74B
:1002C000FEE7FEE7FEE7FEE7E151000899020008BD
:1002D0002DE9F05F0546002092469B46884606467B
:1002E000814640241BE0284641464746224600F00E
:1002F00053F853465A46C01A914110D31146184636
:10030000224600F03AF82D1A67EB01084F462246C4
:100310000120002100F031F817EB00094E41201EAA
:10032000A4F10104DFDC484631462A464346BDE8D5
:10033000F09F40EA01039B0703D009E008C9121FA0
:1003400008C0042AFAD203E011F8013B00F8013B8F
:10035000521EF9D27047D2B201E000F8012B491EBB
:10036000FBD270470022F6E710B513460A46044652
:100370001946FFF7F0FF204610BD202A04DB203A83
:1003800000FA02F1002070479140C2F1200320FAE8
:1003900003F3194390407047202A04DB203A21FAE6
:1003A00002F00021704721FA02F3D040C2F120028E
:1003B0009140084319467047064C074D06E0E06837
:1003C00040F0010394E8070098471034AC42F6D39C
:1003D000FFF766FF5C6D00087C6D00080000000000
:1003E000FEE700000000000080B540F2F400C2F219
:1003F000004000F051FF80BD80B540F26C10C2F2A9
:10040000004000F049FF80BD40F20F420168C4F295
:100410000202914210DC6F22C4F20202914220DCFF
:100420003F22C4F20202914236DC1022C4F20202E0
:10043000914254D028224EE040F26F42C4F20202B0
:1004400091421ADC40F23F42C4F2020291422ADC9D
:1004500040F21042C4F20202914240D040F22842DF
:1004600039E09F22C4F20202914225DC7022C4F2DC
:100470000202914233D088222DE040F29F42C4F222
:10048000020291421FDC40F27042C4F20202914229
:1004900025D040F288421EE04022C4F2020291427E
:1004A0001DD0582217E040F24042C4F202029142AD
:1004B00015D040F258420EE0A022C4F2020291424E
:1004C0000DD0B82207E040F2B842C4F202029142D5
:1004D00005D040F2A042C4F2020291421AD1D0F8F3
:1004E00000C06FF00F024AF6AB2352FA8CF2CAF644
:1004F000AA23A2FB033109A35F2AC1F302115B5CAB
:1005000040F2FF312CEA0101C36588BF04318165E7
:1005100008467047016821F0FF01F8E70006101651
:10052000000610160000000010B545F257420168A1
:10053000C5F6020291420EDC45F22F42C5F60202D8
:10054000914217DC45F20842C5F60202914226D0DC
:1005500045F21C421FE045F27F42C5F6020291427D
:1005600011DC45F25842C5F60202914217D045F21D
:100570006C4210E045F23042C5F6020291420ED0C4
:1005800045F2444207E045F29442C5F60202914228
:1005900005D045F28042C5F60202914219D1017898
:1005A0004CF6CD42CCF6CC4245F600030839C5F6F0
:1005B0000203A1FB021203F18001120903EB820383
:1005C00002F01F0203660123416603FA02F181660D
:1005D00010BD02784AF6AB23CAF6AA234FF0080EE4
:1005E000103AA2FB032340F20F42C4F202024FEA88
:1005F000131C914202F1AA04624688BF0EEB13124B
:1006000040F60003A142C4F2020303F1800128BFB7
:100610006246D3E70000000010B50279511E072999
:1006200088BF10BD45F2574C45F6FC0E0368C5F671
:10063000020CC5F6020E63450EF1440C0EDC45F2C9
:100640002F44C5F60204A34217DC45F20844C5F660
:100650000204A34226D045F21C441FE045F27F4429
:10066000C5F60204A34211DC45F25844C5F6020463
:10067000A34217D045F26C4410E045F23044C5F671
:100680000204A3420ED045F2444407E045F2804400
:10069000C5F60204A34205D045F29444C5F602040F
:1006A000A34209D10EEB8202C2660122C0F870C0DB
:1006B00002FA01F1416710BD40F6FC0EC4F2020ED1
:1006C0000EF1440CEEE700008169B1F5005F07D040
:1006D00079B9816A022912D0012916D079B112E0C4
:1006E000816A03290FD8DFE801F0020A0210012015
:1006F0007047816A03293CBF0120704703D1C06A5B
:10070000C0F30060704700207047C06AA0F1C0705D
:10071000B0FA80F04009704770B540F26F44D0F8ED
:1007200000E0C4F20204D0F858C0A64519DC9F25A9
:10073000C4F20205AE4531DC5725C4F20205AE45D0
:1007400056DC1025C4F20205AE4500F09280282543
:10075000C4F20205AE4500F08C804025C4F20205CB
:1007600084E045F22F45C5F60205AE452BDC40F28C
:10077000B745C4F20205AE4548DC40F27045C4F20C
:100780000205AE4575D040F28845C4F20205AE457B
:100790006FD040F2A045C4F2020567E040F2274561
:1007A000C4F20205AE4540DCA025C4F20205AE4508
:1007B0005FD0B825C4F20205AE455AD040F21045CC
:1007C000C4F2020552E045F26B45C5F60205AE459E
:1007D0003CDC45F23045C5F60205AE4549D045F250
:1007E0004445C5F60205AE4543D045F258453BE0C9
:1007F0005825C4F20205AE453BD07025C4F202056F
:10080000AE4536D08825C4F202052FE040F2B84547
:10081000C4F20205AE452CD045F20845C5F60205E6
:10082000AE4526D045F21C451EE040F22845C4F2F4
:100830000205AE451DD040F24045C4F20205AE456A
:1008400017D040F25845C4F202050FE045F26C455E
:10085000C5F60205AE450CD045F29445C5F6020535
:10086000AE4506D045F28045C5F60205AE4540F0DE
:10087000C980456EC66E002E866E6E601CBFD0E9C4
:100880001C566E60A64515DC9F24C4F20204A645E2
:100890002BDC5724C4F20204A6454EDC1024C4F21B
:1008A0000204A64576D02824C4F20204A64571D0DD
:1008B00040246BE045F22F44C5F60204A64527DC30
:1008C00040F2B744C4F20204A64542DC40F2704450
:1008D000C4F20204A6455DD040F28844C4F202048A
:1008E000A64557D040F2A04450E040F22744C4F25D
:1008F0000204A6453CDCA024C4F20204A64549D06B
:10090000B824C4F20204A64544D040F210443DE0AD
:1009100045F26B44C5F60204A6454FDC45F230446F
:10092000C5F60204A6455BD045F24444C5F6020470
:10093000A64555D045F258444EE05824C4F202046E
:10094000A64527D07024C4F20204A64522D08824EC
:100950001CE040F2B844C4F20204A6451AD045F2A5
:100960000844C5F60204A6453AD045F21C4433E0DB
:1009700040F22844C4F20204A6450BD040F24044A1
:10098000C4F20204A64505D040F25844C4F2020461
:10099000A64537D104683F258668C06D00F01F006A
:1009A000402E05FA00F0CCF80800206820F48020E2
:1009B0002060636021D0A160E26070BD45F26C44AC
:1009C000C5F60204A6450BD045F28044C5F60204E4
:1009D000A64505D045F29444C5F60204A64511D1BA
:1009E0000468C66D806806F01F060125402805FAD8
:1009F00006F6CCF80460636002D1A260E16070BDCD
:100A0000A160E26070BD00007047000000000000BF
:100A1000EFF3108072B600BFFEE700000000000098
:100A20002DE9F041044601F0C7FF04B3054694F8F0
:100A3000350002281ED140F20F472068C4F2020799
:100A400040F26F48B842C4F2020817DC6F21C4F2CA
:100A50000201884223DC3F21C4F20201884239DCD2
:100A60001021C4F20201884258D0282151E001200F
:100A7000BDE8F081802060650120ABE240451ADCD2
:100A800040F23F41C4F2020188422ADC40F21041A8
:100A9000C4F20201884241D040F2284139E09F214E
:100AA000C4F20201884225DC7021C4F202018842AE
:100AB00034D088212DE040F29F41C4F202018842E7
:100AC0001FDC40F27041C4F20201884226D040F29D
:100AD00088411EE04021C4F2020188421ED0582104
:100AE00017E040F24041C4F20201884216D040F2C1
:100AF00058410EE0A021C4F2020188420ED0B82174
:100B000007E040F2B841C4F20201884206D040F248
:100B1000A041C4F20201884240F0EA8126683168AF
:100B200021F01E02314641F8142B6FF080020B6851
:100B3000404502EA03020A6019DC9F21C4F2020167
:100B4000884231DC5721C4F20201884256DC102170
:100B5000C4F20201884200F091802821C4F202010F
:100B6000884200F08B804021C4F2020184E045F20B
:100B70002F41C5F6020188422BDC40F2B741C4F296
:100B80000201884248DC40F27041C4F2020188420E
:100B900074D040F28841C4F2020188426ED040F223
:100BA000A041C4F2020167E040F22741C4F2020111
:100BB000884240DCA021C4F2020188425ED0B82104
:100BC000C4F20201884259D040F21041C4F202013D
:100BD00052E045F26B41C5F6020188423CDC45F229
:100BE0003041C5F60201884248D045F24441C5F67D
:100BF0000201884242D045F258413BE05821C4F2FC
:100C0000020188423AD07021C4F20201884235D0F4
:100C10008821C4F202012FE040F2B841C4F202017F
:100C200088422BD045F20841C5F60201884225D002
:100C300045F21C411EE040F22841C4F20201884204
:100C40001CD040F24041C4F20201884216D040F26A
:100C50005841C4F202010FE045F26C41C5F60201B1
:100C600088420BD045F29441C5F60201884205D076
:100C700045F28041C5F60201884269D1216EB84231
:100C80000A6822F480720A6010DC6F21C4F202014B
:100C900088421CDC3F21C4F20201884232DC102170
:100CA000C4F20201884252D028214AE040451ADCB1
:100CB00040F23F41C4F2020188422ADC40F2104176
:100CC000C4F20201884242D040F2284139E09F211B
:100CD000C4F20201884225DC7021C4F2020188427C
:100CE00035D088212DE040F29F41C4F202018842B4
:100CF0001FDC40F27041C4F20201884227D040F26A
:100D000088411EE04021C4F2020188421FD05821D0
:100D100017E040F24041C4F20201884217D040F28D
:100D200058410EE0A021C4F2020188420FD0B82140
:100D300007E040F2B841C4F20201884207D040F215
:100D4000A041C4F20201884208BF206800E0206888
:100D5000016821F0010101603068C0070BD001F08B
:100D60002BFE401B0628F7D320206065032084F863
:100D7000350001202EE12068B84210DC6F21C4F25A
:100D8000020188421CDC3F21C4F20201884232DCAD
:100D90001021C4F20201884250D028214AE0404587
:100DA0001ADC40F23F41C4F2020188422ADC40F2E0
:100DB0001041C4F20201884240D040F2284139E09B
:100DC0009F21C4F20201884225DC7021C4F2020195
:100DD000884233D088212DE040F29F41C4F20201C5
:100DE00088421FDC40F27041C4F20201884225D0E3
:100DF00040F288411EE04021C4F2020188421DD029
:100E0000582117E040F24041C4F20201884215D057
:100E100040F258410EE0A021C4F2020188420DD0F8
:100E2000B82107E040F2B841C4F20201884205D07F
:100E300040F2A041C4F2020188425ED1D4E9161208
:100E400002F01F023F2303FA02F28A6040455EDC93
:100E50009F21C4F20201884214DC5721C4F202012E
:100E6000884226DC1021C4F20201884200F0A280F0
:100E70002821C4F20201884200F09C804021C4F283
:100E8000020195E040F22741C4F2020188421EDCD3
:100E9000A021C4F20201884200F08C80B821C4F283
:100EA0000201884200F0868040F21041C4F2020143
:100EB0007EE05821C4F2020188427BD07021C4F246
:100EC0000201884276D08821C4F2020170E040F22B
:100ED0002841C4F2020188426CD040F24041C4F281
:100EE0000201884266D040F25841C4F202015FE03C
:100EF00021686FF00E020E4619E6D4E9161202F0D0
:100F00001F02012303FA02F24A604045A0DD45F2C8
:100F10002F41C5F60201884216DC40F2B741C4F207
:100F20000201884225DC40F27041C4F2020188428D
:100F300040D040F28841C4F2020188423AD040F2E7
:100F4000A041C4F2020133E045F26B41C5F6020153
:100F500088421DDC45F23041C5F60201884229D0A5
:100F600045F24441C5F60201884223D045F258417A
:100F70001CE040F2B841C4F2020188421AD045F2A6
:100F80000841C5F60201884214D045F21C410DE02B
:100F900045F26C41C5F6020188420BD045F29441FE
:100FA000C5F60201884205D045F28041C5F602012E
:100FB00088420BD1616EA26EE06E4A6030B101686A
:100FC00021F480710160D4E91C014160012084F8A2
:100FD00035000020002184F83410BDE8F0810000C5
:100FE00080B5D8B190F83510022919D140F20F42DE
:100FF0000168C4F20202914216DC6F23C4F20203BC
:10100000994226DC3F23C4F2020399423CDC1023C0
:10101000C4F2020399425AD0282354E0012080BD33
:1010200080214165012080BD40F26F43C4F202037C
:1010300099421ADC40F23F43C4F2020399422ADC8F
:1010400040F21043C4F20203994240D040F22843D8
:1010500039E09F23C4F20203994225DC7023C4F2D5
:101060000203994233D088232DE040F29F43C4F21B
:10107000020399421FDC40F27043C4F2020399421A
:1010800025D040F288431EE04023C4F20203994277
:101090001DD0582317E040F24043C4F202039942A6
:1010A00015D040F258430EE0A023C4F20203994247
:1010B0000DD0B82307E040F2B843C4F202039942CE
:1010C00005D040F2A043C4F20203994270D191428C
:1010D0004FF0040280F8352010DC6F22C4F20202C7
:1010E000914220DC3F22C4F20202914236DC1022FF
:1010F000C4F20202914254D028224EE040F26F42E4
:10110000C4F2020291421ADC40F23F42C4F20202EF
:1011100091422ADC40F21042C4F20202914240D0D5
:1011200040F2284239E09F22C4F20202914225DCBB
:101130007022C4F20202914233D088222DE040F2A4
:101140009F42C4F2020291421FDC40F27042C4F29C
:101150000202914225D040F288421EE04022C4F2B1
:10116000020291421DD0582217E040F24042C4F2E0
:101170000202914215D040F258420EE0A022C4F281
:10118000020291420DD0B82207E040F2B842C4F208
:101190000202914205D040F2A042C4F20202914202
:1011A00024D10068016821F001010160002080BDA8
:1011B0000268136823F00E03136045F25742C5F628
:1011C000020291420A6822F001020A6014DC45F230
:1011D0002F42C5F6020291421DDC45F20842C5F6D7
:1011E000020291422CD045F21C4225E0086820F012
:1011F00001000860002080BD45F27F42C5F6020272
:10120000914211DC45F25842C5F60202914217D0D4
:1012100045F26C4210E045F23042C5F602029142BE
:101220000ED045F2444207E045F29442C5F6020270
:10123000914205D045F28042C5F6020291421AD190
:10124000D0E9181CD0E916E30A6822F480720A601B
:1012500003F01F01012202FA01F1CEF80410816EA1
:10126000CCF80410C16E31B10A6822F480720A60B1
:10127000D0E91C124A60012180F83510026D00216E
:1012800080F834100AB190470021084680BD000064
:10129000406D7047000000002DE9F04381B000214F
:1012A000009140F200010446C2F2004140F26F4951
:1012B000A56DC4F20209086848F2B511C1F64E31B5
:1012C0002668A0FB01084E452F682A6815DC9F2080
:1012D000C4F2020086422BDC5720C4F20200864290
:1012E0004FDC1020C4F20200864278D02820C4F2DD
:1012F0000200864273D040206CE045F22F40C5F6D4
:101300000200864227DC40F2B740C4F20200864267
:1013100043DC40F27040C4F2020086425FD040F2EB
:101320008840C4F20200864259D040F2A04051E009
:1013300040F22740C4F2020086423DDCA020C4F205
:10134000020086424BD0B820C4F20200864246D04A
:1013500040F210403EE045F26B40C5F60200864286
:1013600074DC45F23040C5F60200864200F0818010
:1013700045F24440C5F6020086427AD045F2584014
:1013800072E05820C4F20200864228D07020C4F2D5
:101390000200864223D088201CE040F2B840C4F20C
:1013A000020086421BD045F20840C5F60200864284
:1013B0005FD045F21C4057E040F22840C4F20200E2
:1013C00086420CD040F24040C4F20200864206D071
:1013D00040F25840C4F20200864240F0ED84E06DD5
:1013E00000F01F01082000FA01F23A4200F01481D7
:1013F00040F20F40C4F20200864213DC6F20C4F2B8
:101400000200864200F38E803F20C4F20200864232
:1014100000F3CF801020C4F20200864200F0ED807D
:101420002820E5E04E4500F3898040F23F40C4F2B9
:101430000200864200F3C48040F21040C4F2020071
:10144000864200F0DA8040F22840D1E045F26C405C
:10145000C5F6020086420CD045F28040C5F6020077
:10146000864206D045F29440C5F60200864240F01E
:10147000A3842068E16D01F01F010368580727D598
:101480000420884010EA020722D01904686000F1A5
:101490008780980600F18C8440F20F40C4F202006D
:1014A000864200F3AB836F20C4F20200864200F351
:1014B000E6833F20C4F20200864200F350841020ED
:1014C000C4F20200864200F06D84282000F066BC61
:1014D000980742D50220884010EA02073DD019043F
:1014E000686000F10E83980600F1988440F20F4086
:1014F000C4F20200864200F3AF836F20C4F2020000
:10150000864200F311843F20C4F20200864200F3B9
:1015100056841020C4F20200864200F07384282012
:1015200000F06CBC9F20C4F20200864251DC7020A7
:10153000C4F20200864260D0882059E040F29F4009
:10154000C4F2020086424BDC40F27040C4F202005A
:10155000864252D040F288404AE0180740F12C847D
:1015600008208840104000F0278440F20F40C4F269
:101570000200864200F32C836F20C4F202008642F0
:1015800000F34F833F20C4F20200864200F39383AE
:101590001020C4F20200864200F0B1832820A9E3A3
:1015A000D80300F1B482A16C002940F00C8300F054
:1015B00003BC4020C4F2020086421ED0582017E02F
:1015C00040F24040C4F20200864216D040F2584039
:1015D0000EE0A020C4F2020086420ED0B82007E040
:1015E00040F2B840C4F20200864206D040F2A04069
:1015F000C4F20200864240F08E8220680423006814
:10160000184209D02068036823F004030360AA602D
:10161000606D40F001006065012000FA01F23A427D
:1016200070D040F20F40C4F20200864210DC6F20FE
:10163000C4F2020086421CDC3F20C4F20200864253
:1016400032DC1020C4F20200864251D028204AE049
:101650004E451ADC40F23F40C4F2020086422ADCCA
:1016600040F21040C4F20200864241D040F22840CD
:1016700039E09F20C4F20200864225DC7020C4F2CB
:101680000200864234D088202DE040F29F40C4F210
:10169000020086421FDC40F27040C4F20200864223
:1016A00026D040F288401EE04020C4F2020086426C
:1016B0001ED0582017E040F24040C4F2020086429B
:1016C00016D040F258400EE0A020C4F2020086423C
:1016D0000ED0B82007E040F2B840C4F202008642C3
:1016E00006D040F2A040C4F20200864240F01682CA
:1016F0002068406900F0800020B1AA60606D40F071
:1017000002006065042000FA01F23A4270D040F213
:101710000F40C4F20200864210DC6F20C4F20200C7
:1017200086421CDC3F20C4F20200864232DC1020DC
:10173000C4F20200864251D028204AE04E451ADC0D
:1017400040F23F40C4F2020086422ADC40F21040E0
:10175000C4F20200864241D040F2284039E09F2086
:10176000C4F20200864225DC7020C4F202008642E8
:1017700034D088202DE040F29F40C4F2020086421F
:101780001FDC40F27040C4F20200864226D040F2D4
:1017900088401EE04020C4F2020086421ED058203D
:1017A00017E040F24040C4F20200864216D040F2F8
:1017B00058400EE0A020C4F2020086420ED0B820AD
:1017C00007E040F2B840C4F20200864206D040F280
:1017D000A040C4F20200864240F0A6812068006862
:1017E00000F0020020B1AA60606D40F00400606566
:1017F000102000FA01F139427ED040F20F40C4F2CD
:101800000200864210DC6F20C4F2020086421CDC1B
:101810003F20C4F20200864232DC1020C4F20200F3
:10182000864251D028204AE04E451ADC40F23F4023
:10183000C4F2020086422ADC40F21040C4F20200E8
:10184000864241D040F2284039E09F20C4F2020095
:10185000864225DC7020C4F20200864234D0882003
:101860002DE040F29F40C4F2020086421FDC40F2AD
:101870007040C4F20200864226D040F288401EE04A
:101880004020C4F2020086421ED0582017E040F2E9
:101890004040C4F20200864216D040F258400EE0AA
:1018A000A020C4F2020086420ED0B82007E040F229
:1018B000B840C4F20200864206D040F2A040C4F212
:1018C0000200864240F036812668082230681042C5
:1018D00012D0A960206801684903016806D4C905CF
:1018E00006D4016821F00801016001E008034FD42B
:1018F000216C09B120468847E06D202100F01F00CF
:101900008140394200F0AE8040F20F432268C4F2B9
:1019100002039A4210DC6F23C4F202039A421CDCD9
:101920003F23C4F202039A4236DC1023C4F20203BE
:101930009A4255D028234EE04A451ADC40F23F43F4
:10194000C4F202039A422EDC40F21043C4F20203B6
:101950009A4245D040F228433DE09F23C4F202035F
:101960009A4229DC7023C4F202039A4238D08823B9
:1019700031E040F29F43C4F202039A4223DC40F27A
:101980007043C4F202039A422AD040F2884322E014
:10199000A16C0029AED1AFE74023C4F202039A4202
:1019A0001ED0582317E040F24043C4F202039A428B
:1019B00016D040F258430EE0A023C4F202039A422C
:1019C0000ED0B82307E040F2B843C4F202039A42B3
:1019D00006D040F2A043C4F202039A4240F0AC8029
:1019E0002268102312681A423CD0A96094F835206E
:1019F0002168042A0A681DD122F016020A604A6989
:101A000022F080024A61226C0AB9A26C1AB10A68FB
:101A100022F008020A603F2101FA00F0A8600120CC
:101A200084F83500216D0020002984F8340040F04E
:101A3000CA80C1E1500308680CD4C0050ED4086800
:101A400020F010000860012084F83500002084F8A0
:101A5000340003E0000301D4616C00E0E16B09B1E4
:101A600020468847606D002800F0A681606DC007A1
:101A700000F0A580042084F8350040F20F41206872
:101A8000C4F20201884210DC6F21C4F202018842D4
:101A90001CDC3F21C4F2020188424FDC1021C4F259
:101AA000020188426FD0282167E048451ADC40F2E5
:101AB0003F41C4F20201884247DC40F21041C4F2C7
:101AC000020188425FD040F2284156E09F21C4F2D3
:101AD0000201884242DC7021C4F20201884252D0E5
:101AE00088214AE040F29F41C4F2020188423CDC76
:101AF00040F27041C4F20201884244D040F2884171
:101B00003BE0D80376D4616C00295CD154E1216CB0
:101B1000002958D150E10823304670E53068002094
:101B200000287FF4EAADEDE53068002000287FF45E
:101B30005AAE5DE60422C9E6022353E74021C4F20F
:101B4000020188421FD0582117E040F24041C4F200
:101B50000201884217D040F258410EE0A021C4F2A1
:101B6000020188420FD0B82107E040F2B841C4F228
:101B70000201884207D040F2A041C4F2020188422B
:101B800008BF206800E020684FEA9821026822F030
:101B900001020260009801300090884203D820685A
:101BA0000068C007F6D120680068C0074FF0030046
:101BB00008BF012084F83500002084F83400E16C6F
:101BC000002900F0F9802046884701B0BDE8F08385
:101BD0004E4532DC40F23F40C4F20200864271DCE6
:101BE00040F21040C4F20200864200F0888040F2C9
:101BF00028407FE0E16B0029E5D1DDE04E454BDC7C
:101C000040F23F40C4F20200864200F3AF8040F24F
:101C10001040C4F20200864200F0C48040F2284026
:101C2000BCE09F20C4F20200864254DC7020C4F263
:101C30000200864263D088205CE040F29F40C4F2FC
:101C4000020086424EDC40F27040C4F2020086423E
:101C500055D040F288404DE04E4571DC40F23F40A7
:101C6000C4F20200864200F3B18040F21040C4F298
:101C70000200864200F0C68040F22840BEE09F206D
:101C8000C4F2020086427ADC7020C4F2020086426E
:101C900000F08880882081E040F29F40C4F202007A
:101CA000864273DC40F27040C4F20200864279D072
:101CB00040F2884072E04020C4F2020086421ED00A
:101CC000582017E040F24040C4F20200864216D08D
:101CD00040F258400EE0A020C4F2020086420ED02E
:101CE000B82007E040F2B840C4F20200864206D0B5
:101CF00040F2A040C4F20200864240F09480266880
:101D00006FF01C02306810403060012000FA01F1D1
:101D10006960606584F835000020E16C84F8340067
:101D200000297FF450AF47E09F20C4F202008642B2
:101D300055DC7020C4F20200864263D088205DE04A
:101D400040F29F40C4F2020086424FDC40F27040F5
:101D5000C4F20200864255D040F288404EE0402056
:101D6000C4F2020086421DD0582017E040F24040E5
:101D7000C4F20200864215D040F258400EE0A02086
:101D8000C4F2020086420DD0B82007E040F2B8400D
:101D9000C4F20200864205D040F2A040C4F2020024
:101DA000864243D126686FF00801306808403060F1
:101DB000216C00297FF407AF01B0BDE8F08340201B
:101DC000C4F2020086421DD0582017E040F2404085
:101DD000C4F20200864215D040F258400EE0A02026
:101DE000C4F2020086420DD0B82007E040F2B840AD
:101DF000C4F20200864205D040F2A040C4F20200C4
:101E0000864216D126686FF01401306808403060B1
:101E1000012084F83500002084F83400E16B0029AB
:101E20007FF4D1AEC8E76FF00E026BE76FF00401EC
:101E3000BBE76FF00A01E8E72DE9F04381B0044603
:101E400000F0BAFD002C00F0738140F26F480546A7
:101E50002068C4F20208404515DC9F21C4F202014B
:101E600088422BDC5721C4F20201884251DC102148
:101E7000C4F2020188427AD02821C4F202018842C9
:101E800075D040216EE045F22F41C5F6020188422F
:101E900027DC40F2B741C4F20201884245DC40F23F
:101EA0007041C4F20201884261D040F28841C4F21C
:101EB000020188425BD040F2A04153E040F227414A
:101EC000C4F2020188423FDCA021C4F20201884230
:101ED0004DD0B821C4F20201884248D040F21041EE
:101EE00040E045F26B41C5F60201884200F3908064
:101EF00045F23041C5F60201884200F09C8045F26F
:101F00004441C5F60201884200F0958045F25841EF
:101F10008CE05821C4F20201884228D07021C4F21A
:101F20000201884223D088211CE040F2B841C4F26B
:101F3000020188421BD045F20841C5F602018842E1
:101F400079D045F21C4171E040F22841C4F202010F
:101F500088420CD040F24041C4F20201884206D0CF
:101F600040F25841C4F20201884240F0118240F22E
:101F70000F420221C4F2020284F8351090424FF061
:101F8000000184F8341012DC6F21C4F2020188428F
:101F900020DC3F21C4F20201884200F3918010212D
:101FA000C4F20201884200F0B0802821A7E0404539
:101FB0001EDC40F23F41C4F20201884200F38780F8
:101FC00040F21041C4F20201884200F09E8040F2CB
:101FD000284194E09F21C4F20201884200F38080EE
:101FE0007021C4F20201884200F08F80882186E0CF
:101FF00040F29F41C4F20201884278DC40F2704115
:10200000C4F20201884200F0808040F2884176E00C
:1020100045F26C41C5F6020188420CD045F2804180
:10202000C5F60201884206D045F29441C5F6020188
:10203000884240F0AD8104F1080E022084F835009A
:1020400000209EE80640A1F1800384F83400B3FA32
:1020500083F320685B094029D4E90579D4E9076C4A
:1020600005684FEA83336FF3101508BF102345EA64
:10207000D2014AF6F8321943CAF2FD7241EADE0192
:102080004CF6CD4341EAD701024441EAD901CCF6EE
:10209000CC4341EAD601A2FB032341EA1C110160B3
:1020A0006FF0030000EA9300E0652046FEF7ACF90C
:1020B000E16D012201F01F0102FA01F141609BE094
:1020C0004021C4F2020188421FD0582117E040F29B
:1020D0004041C4F20201884217D040F258410EE05C
:1020E000A021C4F2020188420FD0B82107E040F2DB
:1020F000B841C4F20201884207D040F2A041C4F2C4
:102100000201884208BF206800E02068016821F0D1
:102110000101016027683868C0070DD000F04CFC51
:10212000401B0628F6D320206065032084F8350084
:10213000012001B0BDE8F08348F23F0104F1080539
:102140003868CFF6106108402ECD0843A1691043CE
:10215000E2691843236A0543606A2943042841EA77
:10216000020141EA030103D1D4E90B2311431943CE
:1021700041F20002C5F600421268B2F1005F17D3C7
:102180006268A2F12903202B06D23F25CCF2C0358C
:1021900025FA03F3DB0706D1A2F14F030022042B3B
:1021A00038BF012200E00122002A18BF41F480114B
:1021B00039600428796921F0070141EA000510D14E
:1021C000D4E90A1045EA010558B12046FEF77CFA29
:1021D00038B140206065012084F8350001B0BDE8C9
:1021E000F08320467D61FEF70FF9E16D3F2201F09B
:1021F0001F0102FA01F181602068404519DC9F212E
:10220000C4F20201884231DC5721C4F20201884243
:1022100056DC1021C4F20201884200F0918028218E
:10222000C4F20201884200F08B804021C4F2020116
:1022300084E045F22F41C5F6020188422BDC40F2D2
:10224000B741C4F20201884248DC40F27041C4F256
:102250000201884274D040F28841C4F202018842EF
:102260006ED040F2A041C4F2020167E040F2274183
:10227000C4F20201884240DCA021C4F2020188427B
:102280005ED0B821C4F20201884259D040F2104118
:10229000C4F2020152E045F26B41C5F602018842E8
:1022A0003CDC45F23041C5F60201884248D045F297
:1022B0004441C5F60201884242D045F258413BE014
:1022C0005821C4F2020188423AD07021C4F20201BE
:1022D000884235D08821C4F202012FE040F2B84193
:1022E000C4F2020188422BD045F20841C5F6020132
:1022F000884225D045F21C411EE040F22841C4F23C
:10230000020188421CD040F24041C4F202018842DE
:1023100016D040F25841C4F202010FE045F26C4180
:10232000C5F6020188420BD045F29441C5F6020180
:10233000884205D045F28041C5F6020188421FD18E
:102340002046FEF7F1F8A068802801D100206060E7
:1023500004F160036068C7B201380ECB07280F6034
:10236000536009D82046FEF757F904F16C020023A8
:1023700007CA03604A6003E000206067C4E91B00ED
:1023800000206065012184F8351001B0BDE8F083BC
:102390004020C9E600000000F0B581B0A8B30446B3
:1023A00090F83400012802D1022001B0F0BD0120D4
:1023B00084F8340094F83500012820D1022084F8F4
:1023C00035000020606540F20F462068C4F2020626
:1023D00040F26F47B042C4F2020719DC6F25C4F225
:1023E0000205A84225DC3F25C4F20205A8423BDCD9
:1023F0001025C4F20205A8425BD0282553E04FF413
:1024000000606065002084F83400012001B0F0BD58
:10241000B8421ADC40F23F45C4F20205A8422ADC69
:1024200040F21045C4F20205A84242D040F22845CD
:1024300039E09F25C4F20205A84225DC7025C4F2CC
:102440000205A84235D088252DE040F29F45C4F210
:102450000205A8421FDC40F27045C4F20205A84202
:1024600027D040F288451EE04025C4F20205A8426C
:102470001FD0582517E040F24045C4F20205A8429B
:1024800017D040F258450EE0A025C4F20205A8423C
:102490000FD0B82507E040F2B845C4F20205A842C3
:1024A00007D040F2A045C4F20205A84208BF206848
:1024B00000E02068056825F0010505602046FEF76C
:1024C0002BF92068B04210DC6F21C4F2020188426F
:1024D0001CDC3F21C4F20201884232DC1021C4F22C
:1024E0000201884251D028214AE0B8421ADC40F269
:1024F0003F41C4F2020188422ADC40F21041C4F29A
:102500000201884241D040F2284139E09F21C4F2C3
:102510000201884225DC7021C4F20201884234D0D5
:1025200088212DE040F29F41C4F2020188421FDC65
:1025300040F27041C4F20201884226D040F2884144
:102540001EE04021C4F2020188421ED0582117E04B
:1025500040F24041C4F20201884216D040F2584194
:102560000EE0A021C4F2020188420ED0B82107E09B
:1025700040F2B841C4F20201884206D040F2A041C4
:10258000C4F20201884240F0298121680B25226CA7
:102590000B6865F344030B601AB10A6842F0080245
:1025A0000A60B84219DC9F21C4F20201884231DC82
:1025B0005721C4F20201884256DC1021C4F2020104
:1025C000884200F091802821C4F20201884200F084
:1025D0008B804021C4F2020184E045F22F41C5F610
:1025E000020188422BDC40F2B741C4F2020188426A
:1025F00048DC40F27041C4F20201884274D040F2DB
:102600008841C4F2020188426ED040F2A041C4F277
:10261000020167E040F22741C4F20201884240DC37
:10262000A021C4F2020188425ED0B821C4F20201A6
:10263000884259D040F21041C4F2020152E045F202
:102640006B41C5F6020188423CDC45F23041C5F6DB
:102650000201884248D045F24441C5F60201884251
:1026600042D045F258413BE05821C4F20201884271
:102670003AD07021C4F20201884235D08821C4F2D8
:1026800002012FE040F2B841C4F2020188422BD08F
:1026900045F20841C5F60201884225D045F21C41A9
:1026A0001EE040F22841C4F2020188421CD040F2F0
:1026B0004041C4F20201884216D040F25841C4F2AF
:1026C00002010FE045F26C41C5F6020188420BD0D1
:1026D00045F29441C5F60201884205D045F2804199
:1026E000C5F60201884272D1216E0A68D20303D571
:1026F0000A6842F480720A60E16E19B10A6842F415
:1027000080720A60B04210DC6F21C4F2020188427C
:102710001CDC3F21C4F20201884232DC1021C4F2E9
:102720000201884252D028214AE0B8421ADC40F225
:102730003F41C4F2020188422ADC40F21041C4F257
:102740000201884242D040F2284139E09F21C4F280
:102750000201884225DC7021C4F20201884235D092
:1027600088212DE040F29F41C4F2020188421FDC23
:1027700040F27041C4F20201884227D040F2884101
:102780001EE04021C4F2020188421FD0582117E008
:1027900040F24041C4F20201884217D040F2584151
:1027A0000EE0A021C4F2020188420FD0B82107E058
:1027B00040F2B841C4F20201884207D040F2A04181
:1027C000C4F20201884208BF206800E02068016866
:1027D00041F001010160002001B0F0BD2168052534
:1027E000226C0B68002A65F343030B603FF4D9AEFB
:1027F0000A6842F00402D3E62DE9F04F83B00C687A
:10280000002C00F0C68000F1264242F2004702F19F
:10281000FF72C5F602074FEAB22201920A22B842BD
:1028200008BF0922002500274FF0010A009209E0A5
:102830000C68043734FA0AF20AF1010A05F10205BC
:1028400000F0A780AAF10109012202FA09FE14EAA8
:102850000E08EDD0D1F804B00BF00304A4F1010C84
:10286000BCF1010F11D803228668AA40CB6826EA82
:102870000202AB401A438260CBF30013426822EAA3
:102880000E0203FA09F31A434260032C1ED00323FD
:10289000C268AB40022C22EA03028B6803FA05F3FC
:1028A00042EA0302C26011D16FF0030207F01C0676
:1028B00002EA59020F23024403FA06F4D2F820C0B8
:1028C0000B692CEA0404B340234313620323026818
:1028D000AB404E689A4306F00303AB4016F4403F0A
:1028E00042EA03020260A3D044F2F44340F2084EED
:1028F000C5F60203C5F6000E1A6842F002021A601D
:102900001A6807F00C0302F002020292029A29F000
:102910000302019C009E092C38BF26460F2452F862
:102920000EC09C402CEA040406FA03F34FF0B04CAE
:10293000234342F80E30DCF800204B6842EA0806D8
:10294000DC0258BF22EA08069C02CCF8006040F284
:10295000040CC5F6000CDCF8002042EA080658BF5B
:1029600022EA08069C03CCF80060DCF8802042EAEA
:10297000080658BF22EA0806DB03CCF88060DCF8C2
:102980007C2042EA080658BF22EA0806CCF87C60A0
:102990004EE703B0BDE8F08F002A08BF090481614B
:1029A000704700000000000041F20000C5F6004042
:1029B0000068000C7047000040F25C60C2F200400A
:1029C000006870470000000040F2090040F25C61BE
:1029D000C2F20040C2F2004100780A681044086068
:1029E000704700000000000080B5032000F0D0F820
:1029F00001F0B6F844F2184146F61433C5F6020168
:102A0000C0F600030A68096801F00F01C2F303224F
:102A1000595C9A5C01F01F0102F01F02D04040F2A5
:102A20000402C2F2004220FA01F1116040F20001FA
:102A3000C2F2004108600F2000F00AF800281CBF15
:102A4000012080BD00F080F8002080BD0000000063
:102A5000B0B540F20901C2F20041097801B3044661
:102A600040F20000C2F200404FF47A72B2FBF1F182
:102A70000068B0FBF1F001F03BFC0F2C4FF00105BA
:102A80000CD858B94FF0FF3000222146002500F045
:102A90006FF840F20C00C2F2004004602846B0BD5E
:102AA0000120B0BD00000000B0B502784EF69C5C7D
:102AB000CEF2000C43784CF8043CF2B14368CCF8F9
:102AC0000030037BC17A90F80AE0457B447A42EA01
:102AD0000372837B42EA0161C27B41EACE41007A04
:102AE00041EA854141EA434141EA024141EA042188
:102AF00041EA4000CCF80400B0BD0020CCF8000052
:102B0000CCF80400B0BD00004EF62450CEF2000018
:102B1000BFF35F8F016821F48031016000210167FC
:102B200070470000000000004EF6245140F0010004
:102B3000CEF200010867086840F480300860BFF3F7
:102B40004F8FBFF36F8F704781B044F2F440C5F6EA
:102B50000200016841F002010160006800F002001B
:102B60000090009801B0704780B503F03DF980BD3A
:102B700070B514460D46064603F046F9294622462E
:102B800002F04EF90146304603F046F970BD0000F0
:102B900080B503F055F980BDB0B544F60C05C5F617
:102BA000020529684907296805D401F00701081AB8
:102BB00018BF0120B0BD21F0070108432860FFF7CE
:102BC000FBFE044655F8080C800407D4FFF7F4FE1A
:102BD000001BB0F57A7FF5D90120B0BD0020B0BD53
:102BE00080B500F06DFF44F2204146F61432C5F680
:102BF0000201C0F600020968C1F30211515C01F044
:102C00001F01C84080BD000080B544F2384EC5F6B3
:102C1000020E5EF8103C5EF8101CC1F3053C5EF835
:102C20000C1CBCF1000FDEF8042014D0C1F300111D
:102C3000C2F3CC02514300EE101A03F00301022943
:102C4000B8EE400A0CD071B95EF8381C89060DD474
:102C50009FED341A18E000218160C0E9001180BDA9
:102C60009FED2F1A10E09FED2D1A0DE05EF8381C35
:102C700049F20002C0F2D032C1F3C10122FA01F1DF
:102C800001EE101AB8EE411ADEF800109FED263A58
:102C90006FF35F2102EE101ADEF80010C1F3462137
:102CA000B8EE422A00EE032A00EE10CAB7EE003A50
:102CB000B8EE400A81EE000A32EE031A02EE101A54
:102CC000B8EE422A20EE010A32EE031A80EE011A13
:102CD000BCEEC11A80ED001ADEF80010C1F3064107
:102CE00001EE101AB8EE411A31EE031A80EE011A05
:102CF000BCEEC11A80ED011ADEF80010C1F30661C6
:102D000001EE101AB8EE411A31EE031A80EE010AF4
:102D1000BCEEC00A10EE101A816080BD0024744A17
:102D200020BCBE4B0024744C0000003900000000A1
:102D300080B544F2404EC5F6020E5EF8183C5EF8CF
:102D4000181CC1F3055C5EF8141CBCF1000FDEF822
:102D5000042014D0C1F30021C2F3CC02514300EE91
:102D6000101A03F003010229B8EE400A0CD071B921
:102D70005EF8401C89060DD49FED341A18E000213E
:102D80008160C0E9001180BD9FED2F1A10E09FED1A
:102D90002D1A0DE05EF8401C49F20002C0F2D0325C
:102DA000C1F3C10122FA01F101EE101AB8EE411A85
:102DB000DEF800109FED263A6FF35F2102EE101A45
:102DC000DEF80010C1F34621B8EE422A00EE032AD5
:102DD00000EE10CAB7EE003AB8EE400A81EE000AE3
:102DE00032EE031A02EE101AB8EE422A20EE010A61
:102DF00032EE031A80EE011ABCEEC11A80ED001A01
:102E0000DEF80010C1F3064101EE101AB8EE411AC7
:102E100031EE031A80EE011ABCEEC11A80ED011AE0
:102E2000DEF80010C1F3066101EE101AB8EE411A87
:102E300031EE031A80EE010ABCEEC00A10EE101A41
:102E4000816080BD0024744A20BCBE4B0024744CB9
:102E500000000039000000002DE9F04381B0044675
:102E6000C07844F22C490007C5F6020901D40025B8
:102E70002EE0A06E4FEA305003280DD80025DFE881
:102E800000F0020E1714D9F80000002540F40030BD
:102E9000C9F8000055B913E001253DB910E004F16F
:102EA0000800022101F0D8FF05464DB1A84611E007
:102EB00004F12800022102F05FF80546002DF5D14B
:102EC000D9F82400A16E20F440100843C9F824006A
:102ED0004FF000086078C00730D0A06D042807D8F4
:102EE000DFE800F00A131C030300FDB1A84625E04B
:102EF0000125002DFAD119E0D9F8000040F4003086
:102F0000C9F80000002DF1D110E004F10800002103
:102F100001F0A2FF0546002DE8D107E004F12800EA
:102F2000002102F029F80546002DDFD1D9F8240050
:102F3000A16D20F007000843C9F8240060788007DD
:102F400032D5E06D4FEAB010042807D8DFE800F072
:102F50000A131C030300FDB1A84625E00125002D3E
:102F6000FAD119E0D9F8000040F40030C9F80000A7
:102F7000002DF1D110E004F10800002101F06CFFF8
:102F80000546002DE8D107E004F12800002101F0FA
:102F9000F3FF0546002DDFD1D9F82400E16D20F4C0
:102FA000E0700843C9F824006078400734D5D4F8AD
:102FB000A8004FEA7050042807D8DFE800F00A1391
:102FC0001C030300FDB1A84626E00125002DFAD11F
:102FD00019E0D9F8000040F40030C9F80000002DD5
:102FE000F1D110E004F10800002101F035FF0546A1
:102FF000002DE8D107E004F12800002101F0BCFF1A
:103000000546002DDFD1D9F82C00D4F8A81020F403
:1030100060000843C9F82C006078000734D5D4F864
:10302000AC004FEA3060042807D8DFE800F00A134C
:103030001C030300FDB1A84626E00125002DFAD1AE
:1030400019E0D9F8000040F40030C9F80000002D64
:10305000F1D110E004F10800002101F0FDFE054669
:10306000002DE8D107E004F12800002101F084FFE1
:103070000546002DDFD1D9F82C00D4F8AC1020F093
:10308000E0600843C9F82C00E078800728D5E06CA0
:103090004FEA3010032806D8DFE800F002091202D8
:1030A000B5B1A8461CE00125002DFAD110E0D9F8F1
:1030B000000040F40030C9F80000002DF1D107E015
:1030C00004F10800022101F0C7FE0546002DE8D1F9
:1030D000D9F82000E16C20F030000843C9F8200046
:1030E0006078C00632D5206E4FEA3030042807D809
:1030F000DFE800F00A131C030300FDB1A84625E039
:103100000125002DFAD119E0D9F8000040F4003073
:10311000C9F80000002DF1D110E004F108000021F1
:1031200001F09AFE0546002DE8D107E004F12800E1
:10313000002101F021FF0546002DDFD1D9F8240040
:10314000216E20F4E0400843C9F82400607880062E
:1031500026D5606E4FEA3040052807D8DFE800F03A
:10316000030A100303039DB1A84619E00125002DB1
:10317000FAD10DE004F10800012101F06DFE04E038
:1031800004F12800012101F0F7FE0546002DEBD1E6
:10319000D9F82400616E20F4E0200843C9F8240027
:1031A0006078400628D5D4F8B0004FEA3070052882
:1031B00007D8DFE800F0030A100303039DB1A84617
:1031C0001AE00125002DFAD10DE004F108000121DB
:1031D00001F042FE04E004F12800012101F0CCFEE0
:1031E0000546002DEBD1D9F82C00D4F8B01020F012
:1031F000E0400843C9F82C006078000620D5206F15
:10320000D8B1B0F1005F12D0B0F1805F25D1D9F80C
:10321000000040F40030C9F8000085B9D9F8240056
:10322000216F20F040500843C9F8240008E004F161
:103230000800012101F010FE0546002DEED0A84641
:10324000E078C0072AD0A06C03280AD8DFE800F095
:10325000020D1602D5B1A84620E00125002DEED1C1
:10326000DCE70125002DF6D110E0D9F8000040F48C
:103270000030C9F80000002DEDD107E004F108008E
:10328000022101F0E9FD0546002DE4D1D9F8200026
:10329000A16C20F003000843C9F82000A078400684
:1032A00042D5D9F8D40340F48070C9F8D403FFF7AD
:1032B00083FB0646D9F8D403C00505D4FFF77CFB91
:1032C000801B6528F6D303256DBBD9F84410D4F8CC
:1032D000B400414011F4407F11D0D9F84410D9F81E
:1032E000442042F48032C9F84420D9F8442021F423
:1032F000407122F48032C9F84420C9F84410B0F576
:10330000807F0FD1FFF758FB064641F2893700BF97
:10331000D9F84400800705D4FFF74EFB801BB84264
:10332000F6D3032585B1A8462078C00742D0E06FC8
:103330004FEAF000052823D8DFE800F003262C032D
:1033400003037DB3A84635E04FF6CF73D4F8B4003D
:1033500059F81C2CC0F2FF0300F4407122F47C5297
:1033600003EA1013B1F5407F08BF1A436FF31F3013
:1033700049F81C2CD9F844100843C9F84400D3E795
:103380000125002DDED10DE004F10800012101F03E
:1033900063FD04E004F12800012101F0EDFD054684
:1033A000002DCFD1D9F82800E16F20F03800084374
:1033B000C9F828002078800724D5A06F052807D8F1
:1033C000DFE800F0030A100303039DB1A84619E0EB
:1033D0000125002DFAD10DE004F10800012101F0D2
:1033E0003BFD04E004F12800012101F0C5FD054684
:1033F000002DEBD1D9F82800A16F20F00700084379
:10340000C9F828002078400726D5D4F8940005286C
:1034100007D8DFE800F0030A100303039DB1A846B4
:103420001AE00125002DFAD10DE004F10800012178
:1034300001F012FD04E004F12800012101F09CFDDF
:103440000546002DEBD1D9F82C00D4F8941020F0CB
:1034500007000843C9F82C002078800628D5D4F846
:1034600090004FEA3070052807D8DFE800F0030A23
:10347000100303039DB1A8461AE00125002DFAD1DF
:103480000DE004F10800002101F0E6FC04E004F185
:103490002800022101F070FD0546002DEBD1D9F87E
:1034A0002800D4F8901020F0E0400843C9F8280024
:1034B0002078400628D5D4F89C004FEAB020052893
:1034C00007D8DFE800F0030A100303039DB1A84604
:1034D0001AE00125002DFAD10DE004F108000021C9
:1034E00001F0BAFC04E004F12800022101F044FDDF
:1034F0000546002DEBD1D9F82C00D4F89C1020F40F
:10350000E0500843C9F82C002078000628D5D4F8EC
:10351000A0004FEA7030052807D8DFE800F0030A62
:10352000100303039DB1A8461AE00125002DFAD12E
:103530000DE004F10800002101F08EFC04E004F12C
:103540002800022101F018FD0546002DEBD1D9F825
:103550002C00D4F8A01020F460400843C9F82C00D7
:103560002078000716D5D4F88400B0F5805F08D124
:1035700004F12800022101F0FFFC002818BF4FF0E1
:103580000108D9F82800D4F8841020F440500843EA
:10359000C9F828002078C00616D5D4F89800B0F5F0
:1035A000807F08D104F12800022101F0E5FC002809
:1035B00018BF4FF00108D9F82C00D4F8981020F467
:1035C00040700843C9F82C00A078000722D5D4F831
:1035D000A400B0F5003F1AD0B0F5803F11D0C8BBB1
:1035E00004F10800002101F037FC05468DB9D9F837
:1035F0002C00D4F8A41020F440300843C9F82C0063
:1036000008E004F12800022101F0B6FC0546002D77
:10361000EDD0A846A078400729D5D4F88800B0F5A9
:10362000401F21D0B0F5001F18D0B0F5801F40F02A
:10363000BF80D9F8000040F40030C9F80000ADB9EF
:10364000D9F82800D4F8881020F440100843C9F8AD
:1036500028000CE00125002DDBD1C8E704F128008B
:10366000012101F089FC0546002DE9D0A846A0788B
:10367000C00720D0206DB0F5803F10D0B8B9D9F880
:10368000000040F40030C9F800009DB9D9F82000CE
:10369000216D20F480300843C9F820000BE004F1CC
:1036A0000800022101F0D8FB05461DB9EEE701250F
:1036B000002DEBD0A846E078800608D504F128005C
:1036C000022101F059FC002818BF4FF00108D4E98D
:1036D00000108A037BD5D4F880206FF0010303EB40
:1036E0003223022B0AD34FEA32233BB1012B64D1A0
:1036F000D9F8003043F40033C9F80030002D5FD012
:10370000CA0267D4CA006FD48A0279D44A0000F191
:103710008280B1F1FF3F40F38F80090200F1978072
:10372000C00707D004F10800002101F095FB002834
:1037300018BF05462079800707D504F1080001214C
:1037400001F08AFB002818BF05462079400707D5FD
:1037500004F10800022101F07FFB002818BF054694
:103760002079000707D504F12800002101F004FCAE
:10377000002818BF05462079C00607D504F12800A7
:10378000012101F0F9FB002818BF054620798006C9
:1037900007D504F12800022101F0EEFB002818BF34
:1037A0000125002D18BF0125284601B0BDE8F08392
:1037B0000125002D7FF45AAF42E70125002D9FD14E
:1037C000D9F8283023F440731A43C9F82820454615
:1037D000CA0297D5D9F82420636F22F000421A4319
:1037E000C9F82420CA008FD559F81C2CD4F8B83059
:1037F00022F480421A4349F81C2C8A027FF586AFD6
:10380000D9F82420E36E22F080721A43C9F82420EC
:103810004A007FF57EAF59F81C2C22F4004249F88B
:103820001C2CD4F8BC2059F81C3C1A4349F81C2C19
:10383000B1F1FF3F3FF771AFD9F82020636D22F05F
:1038400040521A43C9F8202009027FF569AFD9F820
:103850002810D4F88C2021F440011143C9F8281015
:10386000C0077FF45FAF65E72DE9F04381B0002822
:1038700000F0F48042F200080446C5F200288946B0
:10388000D8F8000000F00F0088420ED2D8F80000EF
:1038900020F00F0040EA0900C8F80000D8F8000046
:1038A00000F00F00484540F0D980206844F21847E6
:1038B0004107C5F602070AD521693A6802F070028D
:1038C000914204D93A6822F070021143396001072D
:1038D0000AD561697A6802F07002914204D97A6867
:1038E00022F0700211437960C1060AD5A1697A6895
:1038F00002F4E062914204D97A6822F4E062114352
:10390000796081060AD5E169BA6802F070029142D5
:1039100004D9BA6822F070021143B96081070AD550
:10392000E1683A6802F00F02914204D93A6822F045
:103930000F0211433960C0077ED1206881070AD584
:10394000E1683A6802F00F02914204D23A6822F02C
:103950000F0211433960D8F8001001F00F014945FA
:103960000DD9D8F8001021F00F0141EA0901C8F87B
:103970000010D8F8001001F00F0149456ED1410741
:103980000AD521693A6802F07002914204D23A687D
:1039900022F070021143396001070AD561697A6823
:1039A00002F07002914204D27A6822F07002114350
:1039B0007960C1060AD5A1697A6802F4E062914291
:1039C00004D27A6822F4E0621143796080060AD555
:1039D000E069B96801F07001884204D2B96821F049
:1039E00070010843B86000F0BBF8396846F614323D
:1039F000C0F600023B68C1F3032103F00F03515CE2
:103A0000D25C01F01F01C84002F01F0140F2040225
:103A100020FA01F1C2F20042116040F2000140F2CE
:103A20000C02C2F20041C2F2004208601068FFF7C7
:103A30000FF801B0BDE8F083386820F47061D4E974
:103A40000102012841EA020139600BD003282BD082
:103A500002282ED157F8181C890307D4012001B081
:103A6000BDE8F08357F8181CC905F7D557F8081CAE
:103A700021F00701084347F8080CFEF79DFF0646B2
:103A800041F2883557F8080C616800F03800B0EB57
:103A9000C10F3FF452AFFEF78FFF801BA842F1D950
:103AA000032001B0BDE8F08357F8181C8901D5D573
:103AB000DCE757F8181C4907D0D5D7E7000000000D
:103AC00080B500F04DF844F2184146F61433C5F6BF
:103AD0000201C0F600030A68096801F00F01C2F391
:103AE0000322595C9A5C02F01F0220FA02F201F0F4
:103AF0001F0040F2040122FA00F0C2F20041086007
:103B000040F20001C2F200410A6080BD00000000E6
:103B100080B5FFF7D5FF44F21C4146F61432C5F6D6
:103B20000201C0F600020968C1F30211515C01F004
:103B30001F01C84080BD000080B5FFF7C1FF44F2FF
:103B40001C4146F61432C5F60201C0F600020968AF
:103B5000C1F30221515C01F01F01C84080BD00008B
:103B600044F20041C5F602010869C0F3C20003280F
:103B70000FD002282AD070BB0868800649F20000E6
:103B8000C0F2D03058BF70470968C1F3C101C840C6
:103B900070478A6A886AC0F3051CC86ABCF1000FC6
:103BA0004B6B1DD0C3F3CC0300F00100584302F06F
:103BB0000302022A00EE100AB8EE400A12D0A2B99F
:103BC0000868800614D49FED261A1EE047F64000D0
:103BD000C0F27D10704740F60010C0F23D00704703
:103BE000002070479FED1D1A0FE09FED1B1A0CE09F
:103BF000086849F20002C0F2D032C0F3C10022FAD4
:103C000000F001EE100AB8EE411A086B9FED153A6C
:103C10006FF35F2002EE100A086BC0F34620B8EE87
:103C2000422A013000EE032A00EE10CAB7EE003A35
:103C3000B8EE400A81EE000A32EE031A20EE010AC5
:103C400001EE100AB8EE411A80EE010ABCEEC00A7D
:103C500010EE100A704700BF0024744A20BCBE4B0F
:103C60000024744C000000392DE9F04381B0F8B114
:103C70008046007844F20049C007C5F602095AD0D0
:103C8000D9F8100000F03801D9F82800102905D023
:103C900018290FD100F0030002280BD1D9F8000039
:103CA000800344D5D8F80400002840D101272FE034
:103CB000012718E3D8F804402CB1B4F5A02F0DD09B
:103CC000B4F5803F10D0D9F8000020F48030C9F856
:103CD0000000D9F8000020F4802009E0D9F80000A5
:103CE00040F48020C9F80000D9F8000040F480308A
:103CF000C9F80000FEF760FE0546A4B1D9F800003F
:103D0000800314D4FEF758FE401B6428F6D903271D
:103D10000020002800F0E7820DE000BFFEF74CFE17
:103D2000401B6428F3D8D9F800008003F6D40120A2
:103D3000002800F0D88298F80000800740F18480C5
:103D4000D9F8100010F03801D9F828001CD0182933
:103D500008BF5FEA807017D0D8F80C00D9F80010BF
:103D6000002847D021F019010843C9F80000FEF7E8
:103D700023FE0546D9F8000040072AD4FEF71CFEB2
:103D8000401B0228F6D91EE0D9F80000400704D5F0
:103D9000D8F80C00002800F09681D9F80000D8F877
:103DA0000C1020F019000843C9F80000FEF704FECB
:103DB000054600BFD9F8000040070AD4FEF7FCFD15
:103DC000401B0228F6D903270024002C00F08B8228
:103DD0003AE0FEF7E9FD41F20301884223D8D8F822
:103DE0001000D9F80410402821F47C3124D141F48A
:103DF000003023E021F00100C9F80000FEF7DCFDEF
:103E000005460126D9F8000010F0040086EA900467
:103E100017D0FEF7D1FD401B0328F3D30327002C56
:103E200000F0618210E0D9F80400D8F8101020F0FA
:103E3000FE4040EA016001E041EA0030C9F80400B8
:103E40000124002C00F04F8298F80000C00674D5C1
:103E5000D9F8100000F03801D9F82800082905D059
:103E600018291CD100F00300012818D1D9F800004E
:103E7000C00503D5D8F81C00802859D1FEF794FD61
:103E800041F20301884222D8D8F82000D9F8041062
:103E9000202821F0F84142D141F0804041E0D8F89B
:103EA0001C000028D9F8000020D040F08000C9F89C
:103EB0000000FEF781FD0546D9F80000C005DDD4FD
:103EC000FEF77AFD401B0228F6D9032731E0D9F826
:103ED0000C00D8F8201020F07C50012440EA01604A
:103EE000C9F80C00002C00F0FE8126E020F08000D4
:103EF000C9F80000FEF760FD05460126D9F800006C
:103F000010F4807086EA10240ED0FEF755FD401B99
:103F10000328F3D30327002C00F0E5810DE041EAEC
:103F20008060C9F804000124002C00F0DC8104E06A
:103F300001270024002C00F0D68198F8000000072B
:103F40001CD498F80000800631D498F8000040078F
:103F500045D4D8F82440002C00F09180D9F8100006
:103F600000F03800182840F08C80012CD9F8281077
:103F7000D9F8300040F0A9800127B4E1D8F8140046
:103F80000028D9F874003ED040F00100C9F8740050
:103F9000FEF712FD054600BFD9F874008007D0D4A3
:103FA000FEF70AFD401B0228F6D903279BE1D8F84B
:103FB00018000028D9F800004DD040F48050C9F80E
:103FC0000000FEF7F9FC0546D9F800008004BCD4D7
:103FD000FEF7F2FC401B0228F6D9032783E1D9F84B
:103FE000000440F48070C9F80004FEF7E5FC0546C3
:103FF000D9F80004C0051AD4FEF7DEFC401B642883
:10400000F6D903276FE120F00100C9F87400FEF72C
:10401000D3FC0546032700BFD9F8740080077FF55D
:1040200090AFFEF7C9FC401B0228F5D95BE1D8F838
:1040300008402CB1052C00F08280012C00F0858016
:10404000D9F8700020F00100C9F87000D9F87000AC
:1040500020F004007DE020F48050C9F80000FEF755
:10406000ABFC0546032700BFD9F8000080047FF5AC
:104070006CAFFEF7A1FC401B0228F5D933E1002705
:1040800031E1D9F8000020F08070C9F80000FEF797
:1040900093FC022C05464FF0030709D1D9F8000024
:1040A000800178D5FEF788FC401B0228F6D91AE17A
:1040B000D9F80000800140F1E780FEF77DFC401B4D
:1040C0000228F5D90FE101277EE601F00302D8F8B6
:1040D00028309A4240F0DA80C1F30511D8F82C203C
:1040E000914240F0D7800146D8F830206FF35F212D
:1040F000013A914240F0D080C0F34622D8F8341003
:1041000001398A4240F0CA80C0F30642D8F838101C
:1041100001398A4240F0C480C0F30660D8F83C10F0
:104120000139884240F0BE80D9F83400D8F84810F0
:10413000C0F3CC00814240F0B7800027D3E0D9F82B
:10414000700040F00400C9F87000D9F8700040F029
:104150000100C9F87000FEF72FFC002C054641F263
:1041600088344FF0030711D0D9F8700080073FF56D
:10417000F0AEFEF721FC401BA042F5D9B3E000BF32
:10418000FEF71AFC401BA04200F2AD80D9F8700087
:104190008007F5D4DDE608F12807D9F8280040F2B9
:1041A000F33188438ECF0843591E40EA02104FF482
:1041B0007E426FF35F21C9F8280002EB47204FF4DD
:1041C000FE0280B2D8F83C300844D8F8381002EB30
:1041D00001414FF0FE4201F4FE0102EB036208448C
:1041E00002F0FE410844C9F83000D9F82C004FF61F
:1041F000F87120F00100C9F82C00D9F83400D8F883
:104200004820884340EAC200C9F83400D9F82C009D
:10421000D8F8401020F00C000843C9F82C00D9F859
:104220002C00D8F8441020F002000843C9F82C00F4
:10423000D9F82C0040F48030C9F82C00D9F82C00B3
:1042400040F40030C9F82C00D9F82C0040F480204C
:10425000C9F82C00D9F82C0040F00100C9F82C0056
:10426000D9F8000040F08070C9F80000FEF7A4FB08
:1042700004460327D9F80000800109D4FEF79CFB0F
:10428000001B0228F6D92EE000272CE001272AE0A7
:10429000002728E0012726E0012724E0012722E06B
:1042A000012720E001271EE0D9F82C0020F00100B2
:1042B000C9F82C00FEF780FB0546FEF77DFBA842FF
:1042C000FBD0D9F834004FF6F871D8F8482088436D
:1042D000002740EAC200C9F83400D9F82C0040F0A9
:1042E0000100C9F82C00F8B201B0BDE8F08300006D
:1042F00080B500F0D5FE80BD90F88410012901D171
:10430000022070472421C0F88810026813681168E1
:1043100023F0005321F00101116000214166136078
:104320002022C0F8882080F88410084670470000DA
:10433000704700000000000070470000000000000F
:10434000B0B5044690F88400012801D10220B0BD28
:10435000012084F884002420C4F8880020680568BF
:10436000026822F001020260826822F0606211435A
:104370008160204600F09CFF206805602020C4F882
:104380008800002084F88400B0BD00000000000018
:10439000B0B5044690F88400012801D10220B0BDD8
:1043A000012084F884002420C4F88800206805686F
:1043B000026822F001020260826822F0604211432A
:1043C0008160204600F074FF206805602020C4F85A
:1043D0008800002084F88400B0BD000000000000C8
:1043E000704700000000000070470000000000005F
:1043F000B0B504460068D4F88810D4F88C50212950
:1044000080681AD110F0800017D000BF206850E8F3
:10441000020F216820F0800041E80202002AF5D155
:10442000E06F38B1FCF7FCFA20B1E06FFCF730FF29
:10443000202823D0204601F033F92068222D8168FE
:104440004FF0000023D111F0400108BFB0BD00BF04
:10445000206850E8020F216820F0400041E8020285
:10446000002AF5D1D4F8800068B1FCF7D9FA50B130
:10447000D4F88000FCF70CFF202804D11020C4F8E9
:1044800090000320B0BD204601F0C6F80020B0BD6A
:104490007047000000000000B0B50368044640F615
:1044A0002F00D9691D680840D3F808E020280CD1F6
:1044B00005F020020EF08050801806D0616F0029B0
:1044C00000F0B38020468847B0BD40F60F0008409A
:1044D00000F09280012040F22012C1F20000C0F2F0
:1044E00000420EEA000C05EA020010EB0C0000F09E
:1044F0008380C80718BF15F4807007D001201862A8
:10450000D4F8900040F00100C4F8900088070EF045
:10451000010208D53AB102201862D4F8900040F0A8
:104520000400C4F89000480708D53AB10420186286
:10453000D4F8900040F00200C4F8900008070CD5B1
:1045400005F0200050EA0C0007D008201862D4F8CB
:10455000900040F00800C4F8900008050BD515F055
:10456000806008D04FF400601862D4F8900040F0EA
:104570002000C4F89000D4F89000002855D011F025
:10458000200009D005F020000EF08051401803D023
:10459000616F09B1204688472068D4F89010806880
:1045A00001F0280100F04000401800F0AE802046E5
:1045B00001F032F820688068400640F1968000BF24
:1045C000206850E8020F216820F0400041E8020214
:1045D000002AF5D1D4F88000002800F0868045F24A
:1045E000A141C0F600010165FCF7FAFCE8B1D4F87E
:1045F0008000016D8847B0BD05EA010CE26E5FEAFC
:10460000CC603ED5012A3CD1102018629868400643
:1046100043D4B4F85C00B4F85E10B4F85E20002A0D
:104620001CBF401A5FEA004100D1B0BD216851E8CB
:10463000001F226821F4907142E80013002BF5D18D
:104640004FF6FE71CEF6FF71226852E8022F236802
:104650000A4043E80225002DF6D12021C4F88C1031
:104660000021E166616700BF216851E8001F2268F0
:1046700021F0100142E80013002BF5D1022121673F
:10468000F9E0C80224D51EF4800021D04FF4801038
:1046900018622046FFF7A8FEB0BDD4F8800040F2B3
:1046A0000F42C4F202020168914235DC6F22C4F26B
:1046B0000202914249DC3F22C4F2020291426ADCCA
:1046C0001022C4F20202914200F08880282281E088
:1046D00008060ED505F080000EF40002801808D000
:1046E000A16F00297FF4EEAE9FE72046FFF7D0FED2
:1046F000B0BD5FEA4C6024D4080241D515F080407B
:104700003ED02046FFF76CFEB0BD2046FFF7C0FE4E
:104710000020C4F89000B0BD40F26F42C4F2020223
:1047200091421EDC40F23F42C4F20202914239DC67
:1047300040F21042C4F2020291424FD040F22842AD
:1047400048E0204600F098FFB0BD9F22C4F202026C
:10475000914230DC7022C4F2020291423ED08822A3
:1047600038E040F29F42C4F2020291422ADC40F259
:104770007042C4F20202914230D040F2884229E0F5
:10478000C8017FF552AFB5F1FF3FC8BFB0BD2046AD
:10479000FFF7D2FDB0BD4022C4F2020291421DD00B
:1047A000582217E040F24042C4F20202914215D072
:1047B00040F258420EE0A022C4F2020291420DD013
:1047C000B82207E040F2B842C4F20202914205D09A
:1047D00040F2A042C4F20202914202D1D4F8801009
:1047E0000968043109688AB2002A3FF41EAFB4F8A0
:1047F0005C309A42BFF419AFA4F85E10C069B0F5FE
:10480000807F31D0206850E8000F216820F480704C
:1048100041E80002002AF5D1206850E8020F216823
:1048200020F0010041E80202002AF5D1206850E89A
:10483000020F216820F0400041E80202002AF5D171
:104840002020C4F88C000020E06600BF206850E8FB
:10485000000F216820F0100041E80002002AF5D185
:10486000D4F88000FCF7DCF802202067B4F85C0084
:10487000B4F85E10401A81B22046FFF759FDB0BD72
:1048800010B541F200010446C4F2010100688842FB
:1048900000D010BDC969C90658BF10BD1021016202
:1048A0002046FFF7A5FD40F2F400C2F20040006888
:1048B0004068C0F58070010408D081B240F27820D1
:1048C000C2F200400022425401F0BAFF40F27821C7
:1048D0004FF48072C2F20041204600F0C1F810BDD2
:1048E00010B5B0B10446D0F8880028B9002084F88B
:1048F0008400204600F028F82420C4F888002068AE
:10490000016821F001010160204600F0E1FE01286C
:1049100001D1012010BDA06A10B1204600F0F4FCC6
:104920002068416821F490414160816821F02A01AA
:104930008160016841F001010160204600F054FDF2
:1049400010BD0000000000002DE9F041B8B00446A1
:1049500002A8C0210025CDE93655CDE9345533955F
:10496000FBF700FD41F200012068C4F2010188421A
:1049700002D038B0BDE8F0810120029002A8039572
:104980002195FEF769FA08B1FCF742F844F2E040DD
:1049900040F21008C5F602000026C4F202080169C0
:1049A00041F010010161016901F0100101910199CB
:1049B000016841F001010160006833A900F00100C5
:1049C000019001984FF4C06033900220349007208A
:1049D00037900020C5F6020035963696FDF70CFF9D
:1049E00040F2F4052920C2F200454FF48067C5E982
:1049F00001062846C5F80080EE60C5E90476C5E9E1
:104A00000666C5E90866FDF717FA08B1FCF700F875
:104A1000C4F8805008F11800AC6340F26C15C2F283
:104A2000004505F1080128602A2068604020C1C1C6
:104A300028466E62C5E90566C5E90766FDF7FCF91B
:104A400008B1FBF7E5FF252000210022E567AC63F4
:104A5000FEF78EF82520FEF787F838B0BDE8F08124
:104A600080B5D0F88C30202B06D10123002918BF47
:104A7000002A03D1184680BD022080BD0023C366F2
:104A800040F60043D0F800C0C5F600039C450FD0A7
:104A9000DCF804301B020BD5036853E800CFD0F8D4
:104AA00000E04CF080634EE8003CBCF1000FF3D115
:104AB00001F0D2F80346184680BD00000000000057
:104AC0007047000000000000704700000000000078
:104AD0002DE9F04182B00446D0F8880020283FD16B
:104AE0000E4600294FF001004BD01746002A48D04F
:104AF0001D464FF00008C4F890802120C4F88800BB
:104B0000FDF75AFFA4F85470A4F856700746A16840
:104B1000B1F5805F0FD12069002814BF3046B04640
:104B2000064608E0206816F8011B8162B4F85600BA
:104B30000138A4F85600B4F85600A8B1802100222C
:104B400020463B46009501F0DBF8E8B9002EE9D19C
:104B500038F8020B216800266FF35F208862E5E7D2
:104B6000022002B0BDE8F0814021002220463B46F1
:104B7000009501F0C5F820210028C4F8881018BF5E
:104B8000032002B0BDE8F0812020C4F88800032093
:104B900002B0BDE8F0810000B0B50446D0F888004E
:104BA000202831D100294FF001003ED0002A1346C1
:104BB00008BFB0BD21650025A4F854302120A4F819
:104BC0005630C4F89050C4F88800E06FF0B145F258
:104BD000B94245F2C15CC0F60002C264226845F2E7
:104BE000096E2832C0F6000CC0F6000E0565C0E95B
:104BF0000FCEFDF7D1FB48B11020C4F89000202063
:104C0000C4F888000120B0BD0220B0BD206840215A
:104C1000016200BF206850E8020F216840F0800068
:104C200041E80202002AF5D10020B0BD00000000DA
:104C300080B541F200010068C4F20101884218BF4A
:104C400080BD086820F04000086001F011FE0120DE
:104C500001F0C2F880BD00007047000000000000B5
:104C6000FEE700000000000010B584B00024CDE98C
:104C70000244CDE90044FDF747FF0120ADF80000F4
:104C800048F21F70029040F20110039068460194B0
:104C9000FDF70AFF0420FDF747FF04B010BD000038
:104CA00080B582B044F2D8400022C5F60200016807
:104CB00041F0010101600068002100F00100019055
:104CC00001980B20FDF754FF0B20FDF74DFF0C2042
:104CD00000210022FDF74CFF0C20FDF745FF02B03C
:104CE00080BD000000000000F0B587B044F2E04055
:104CF0000025C5F602000695CDE90455CDE902551B
:104D0000016840F6000441F0010101600168C5F648
:104D1000020401F0010101910199016841F00401CF
:104D200001600168012201F004010191019901680B
:104D300041F08001016000684FF4005100F08000F4
:104D40000190019820464FF400560127FDF724FEFC
:104D500002A92046CDE90267CDE90475FDF74CFDB7
:104D600007B0F0BD0000000080B540F2E41041F251
:104D70000001C2F20040C4F201010C2201604FF4B4
:104D8000E13141600021C0E902110161C0E9052162
:104D9000C0E90711C0E90911FFF7A2FD08B1FBF74F
:104DA00037FE40F2E4100021C2F20040FFF7F0FAB3
:104DB00008B1FBF72DFE40F2E4100021C2F20040E2
:104DC000FFF7BEFA08B1FBF723FE40F2E410C2F28F
:104DD0000040FFF791FA002808BF80BDFBF718FEDE
:104DE00080BD000000000000FEE7000000000000A1
:104DF00080B540F2E410C2F2004001680A6842F057
:104E000010020A6040F278214FF48072C2F2004131
:104E1000FFF726FE80BD0000FEE700000000000056
:104E200000F007004FF0FF3C80F00703042B28BF81
:104E30000423033838BF00200CFA03F399430CFA1B
:104E400000F301FA00F022EA030108437047000072
:104E50007047000000000000F0B581B044F22C471C
:104E6000C5F6020757F8042C02F00302032A02D108
:104E7000012001B0F0BD054657F82C0C0C4620F07F
:104E8000806047F82C0CFDF797FD064657F82C0C70
:104E9000000105D5FDF790FD801B0228F6D964E0DE
:104EA00057F8040CEE6895E80E0020F47C30012CD5
:104EB00040EA0130A2F101016FF35F214FF47E421D
:104EC00002EB432247F8040C92B24FF0FE4302EB90
:104ED00001004FF4FE012A6901EB064101F4FE01D5
:104EE00003EB0262084402F0FE410844F8603868AF
:104EF000696920F0C00040EA010038603868A9699B
:104F000020F0200040EA0100386038684FF6F87160
:104F100020F0100038603869EA6920EA01004FF497
:104F2000001140EAC2003861386808BF4FF48011B0
:104F300040F01000002C386008BF4FF400213868A2
:104F40000843386057F82C0C40F0806047F82C0C70
:104F5000FDF732FD044600BF57F82C0C000107D4C2
:104F6000FDF72AFD001B0328F6D3032001B0F0BD96
:104F7000002001B0F0BD0000F0B581B044F22C4734
:104F8000C5F6020757F8042C02F00302032A02D1E7
:104F9000012001B0F0BD054657F82C0C0C4620F05E
:104FA000805047F82C0CFDF707FD064657F82C0CEF
:104FB000800005D5FDF700FD801B0228F6D964E0CE
:104FC00057F8040CEE6895E80E0020F07C70012C78
:104FD00040EA0150A2F101016FF35F214FF47E42DC
:104FE00002EB432247F8040C92B24FF0FE4302EB6F
:104FF00001004FF4FE012A6901EB064101F4FE01B4
:1050000003EB0262084402F0FE410844786138680C
:10501000696920F4406040EA010038603868A96995
:1050200020F4007040EA0100386038684FF6F871EB
:1050300020F480703860B869EA6920EA01004FF016
:10504000807140EAC200B861386808BF4FF40001BF
:1050500040F48070002C386008BF4FF4800138683D
:105060000843386057F82C0C40F0805047F82C0C5F
:10507000FDF7A2FC044600BF57F82C0C800007D4B3
:10508000FDF79AFC001B0328F6D3032001B0F0BD06
:10509000002001B0F0BD00007047000000000000DB
:1050A000B0B501380024B4EB106F01D00120B0BDC1
:1050B0004EF210050F21CEF2000568604FF0FF3070
:1050C00000F0AAFEAC60072028602046B0BD0000BA
:1050D00080B5FDF779FC80BD70B59CB044F618042E
:1050E00040F22C4509A84C21C5F60204C5F600057E
:1050F000FBF738F902200026CDE90766CDE9056601
:10510000CDE90366CDE90166FDF746FD0096286806
:1051100020F001002860286800F00100009020685D
:1051200040F440402060206800F440400090009827
:1051300020688004FCD54FF6DC40CFF6FF70215884
:1051400041F002012150205800F002000090009828
:1051500000200090206840F440402060206800F467
:1051600040400090286840F001002860286800F066
:1051700001000090009800BF20688004FCD5012049
:1051800009904FF480300A9002200521CDE91200E9
:105190001491C021CDE91510CDE9170009A8082404
:1051A00019940025CDE91A55FEF75EFDA0B93F2000
:1051B000019003204FF48061CDE902054020049462
:1051C000CDE90500CDE9071001A80421FEF74CFB4D
:1051D000002804BF1CB070BDFBF71AFC00000000E3
:1051E0004EF6885042F2000CCEF20000C5F2002CC0
:1051F000016841F470010160DCF8000000F00F006C
:10520000062806D8DCF80000072161F30300CCF87B
:10521000000044F200404EF67F52C5F60200CEF682
:10522000F622016841F0010101600021016103687B
:105230001A400260DCF80020120706D5DCF80020D6
:10524000072363F30302CCF8002040F200228161BF
:10525000C161C0F20222016282620022C0F2FF122A
:10526000C26240F28022C0F2011202634163826393
:10527000C16302644164026822F480220260016614
:1052800041F20000C5F600400068B1EB507F05D147
:1052900048F208100121C5F20010016044F200003C
:1052A00043F2D201C5F20020016070470000000007
:1052B00010B5416E01B3016846F63C5CC0F6000CC7
:1052C00046F6445E8A68C0F6000E8968C2F3426200
:1052D0004C0F1CF802301EF802101A011EF80430A0
:1052E000B2FBF1F11CF80420A0F868101201B2FB27
:1052F000F3F2A0F86A2010BD0121A0F86A10A0F80E
:10530000681010BD00000000816ACA070CD18A072E
:1053100015D44A071ED40A0727D4CA0630D48A06F1
:1053200039D44A0655D541E00268D0F82CC05368FC
:1053300023F4003343EA0C0353608A07E9D502687B
:10534000D0F830C0536823F4803343EA0C03536031
:105350004A07E0D50268D0F834C0536823F48023AC
:1053600043EA0C0353600A07D7D50268D0F838C067
:10537000536823F4004343EA0C035360CA06CED5B6
:105380000268D0F83CC0936823F4805343EA0C03CE
:1053900093608A06C5D50268D0F840C0936823F4AC
:1053A000005343EA0C0393604A0612D50268D0F812
:1053B00044C0BCF5801F536823F4801343EA0C03F8
:1053C000536006D1536823F4C00C836C43EA0C038A
:1053D0005360090658BF70470168C06C4A6822F4E0
:1053E0000022104348607047B0B582B004460020E8
:1053F000C4F89000FDF7E0FA21680546096809073E
:1054000019D54FF4001100226FF07E400090204625
:105410002B4600F075FC70B1206850E8000F216841
:1054200020F0800041E80002002AF5D12020C4F8D5
:10543000880003202FE020680068400723D54FF440
:10544000800100226FF07E40009020462B4600F045
:1054500057FCC0B1206850E8000F216820F490701C
:1054600041E80002002AF5D1206850E8020F2168C7
:1054700020F0010041E80202002AF5D12020C4F802
:105480008C00032007E02020C4F88800C4F88C00BA
:105490000020E0662067002184F8841002B0B0BDCF
:1054A00080B5806B0021A0F85E10A0F85610FEF7C2
:1054B000EFFF80BD00000000B0B5846B2068D4F819
:1054C0008810D4F88C502129806808D110F0800011
:1054D00005D00020A4F85600204600F0E1F820682E
:1054E000222D806808D110F0400005D00020A4F8DB
:1054F0005E00204600F090F8D4F8900040F01000D4
:10550000C4F890002046FEF7C3FFB0BD00000000C5
:1055100080B5C169806BB1F5807F31D00021A0F8E2
:105520005E1000BF016851E8001F026821F480711D
:1055300042E80013002BF5D1016851E8021F026810
:1055400021F0010142E80213002BF5D1016851E876
:10555000021F026821F0400142E80213002BF5D13E
:105560002021C0F88C10C16E012909D1016851E8D1
:10557000001F026821F0100142E80013002BF5D152
:1055800000210167C16E012904D1B0F85C10FEF75B
:10559000CFFE80BDFFF794FA80BD00000000000040
:1055A00080B5806B01210167C16E012905D1B0F87A
:1055B0005C104908FEF7BCFE80BDFFF785FA80BD90
:1055C00080B5C169806BB1F5807F02D1FFF730FBF8
:1055D00016E00021A0F85610016851E8021F026889
:1055E00021F0800142E80213002BF5D1016851E857
:1055F000001F026841F0400142E80013002BF5D182
:1056000080BD00000000000080B5806BFFF724FB28
:1056100080BD000000000000016851E8001F026822
:1056200021F4907142E80013002BF5D14FF6FE7C77
:10563000CEF6FF7C026852E8022F036802EA0C02F1
:1056400043E802210029F5D1C16E01290AD100BF2A
:10565000016851E8001F026821F0100142E80013C0
:10566000002BF5D12021C0F88C100021C1664167C4
:10567000704700000000000080B500BF016851E8DD
:10568000001F026821F0400142E80013002BF5D111
:105690002021C0F8881000218167FFF7C9FA80BD7A
:1056A000016851E8001F026821F0C00142E80013C0
:1056B000002BF5D1016851E8021F026821F40001B6
:1056C00042E80213002BF5D12021C0F88810704762
:1056D000F0B583B004460368806846F6F316D4E953
:1056E0000312104362691043E2691F68CCF6FF762B
:1056F000104307EA06021043186058684FF2FF474C
:1057000020F4405240F6004011435960C5F60000B5
:10571000A1698342C1F2FF171CBF226A11439A6834
:1057200047F2FF763A40C4F2000611439960DA6A04
:1057300044F2544122F00F02676AC5F602013A436F
:10574000B342DA624FF0800225DD40F6FF77C4F203
:105750000107BB423FDD834200F0718041F2004708
:10576000C4F20107BB4200F0758041F20007C4F2A9
:105770000107BB4240F0A5800A68C2F3C203052BB3
:1057800000F296800122DFE813F09C009100950062
:10579000970099009B0044F6FF37C4F20007BB4214
:1057A00033DC44F20047C4F20007BB4200F05D80E6
:1057B00044F60007C4F20007BB4240F082800A684A
:1057C00002F00703052B00F273800022DFE803F0EC
:1057D000796E7274767847F60007C4F20007BB4210
:1057E00000F04E8047F60047C4F20007BB4240F08D
:1057F00068800A6802F00703052B00F25980002236
:10580000DFE803F05F54585A5C5E44F60047C4F288
:105810000007BB4200F03F8045F20007C4F20007DA
:10582000BB4240F04E800A6802F00703052B00F2ED
:105830003F800022DFE803F0453A3E4042444A6898
:1058400002F00703052B33D80222DFE803F03A2FDA
:10585000333537390A68C2F3C203052B28D8012231
:10586000DFE803F02F24282A2C2E0A6802F0070311
:10587000052B1DD80022DFE803F024191D1F21236A
:105880000A6802F00703052B12D80022DFE803F0B4
:10589000190E121416180A6802F00703052B07D810
:1058A0000022DFE803F00E0307090B0D042208E0D5
:1058B000802206E0082204E0102202E0202200E01C
:1058C00040222368834240F60010C0F23D0000F001
:1058D0005380E369B3F5004F40F07880402A00F22E
:1058E0001A810025DFE812F04100120117011701AB
:1058F0001B011701170117011F01170117011701DC
:1059000017011701170117012601170117011701C8
:1059100017011701170117011701170117011701C7
:10592000170117011701170134011701170117019A
:1059300017011701170117011701170117011701A7
:105940001701170117011701170117011701170197
:105950001701170117011701170117011701170187
:10596000170117011701170131010025FEF7D0F8C3
:10597000002840F0EF8049E1931E1E2B00F2748056
:105980000027DFE813F01F0077007A007700770028
:1059900077007E0077007700770077007700770048
:1059A0007700B800770077007700770077007700FE
:1059B000770077007700770077007700770077002F
:1059C000770083000027FDF70BF95FE0402A00F223
:1059D000E6800025DFE812F04100DE00E300E3008E
:1059E000E700E300E300E300EB00E300E300E30093
:1059F000E300E300E300E300F200E300E300E30080
:105A0000E300E300E300E300E300E300E300E3007E
:105A1000E300E300E300E3000001E300E300E30050
:105A2000E300E300E300E300E300E300E300E3005E
:105A3000E300E300E300E300E300E300E300E3004E
:105A4000E300E300E300E300E300E300E300E3003E
:105A5000E300E300E300E300FD000025FEF758F853
:105A6000002840F0BA80D1E0402A03D14FF4004032
:105A700000270BE00020012708E06846FDF7C4F886
:105A800002E06846FDF754F90027019878B3616A8F
:105A900046F62432C0F600026668012532F811206D
:105AA00006EB4603B0FBF2F19942C0F0AF8033033E
:105AB000994200F2AB8000210023FAF709FC0902A9
:105AC000002341EA10613246000210EB560041F11A
:105AD0000001FAF7FDFB4FF6FF42A0F54071C0F25E
