:020000040800F2
:10000000B0230024AD020008E96B0008C1640008B9
:10001000E16B0008A90A00085195000800000000E3
:10002000000000000000000000000000497100080E
:100030007111000800000000B96E00088971000805
:10004000C7020008C7020008C7020008C70200086C
:10005000C7020008C7020008C7020008C70200085C
:10006000C7020008C7020008C7020008510B0008B9
:10007000610B0008C7020008C7020008C702000899
:10008000C7020008C7020008C7020008C70200082C
:10009000C7020008C7020008C7020008C70200081C
:1000A000C7020008C7020008C7020008C70200080C
:1000B000C7020008C7020008C7020008C7020008FC
:1000C000C7020008C7020008C7020008C7020008EC
:1000D000C7020008C7020008C7020008C7020008DC
:1000E000C7020008C702000800000000C70200089D
:1000F000C7020008C7020008C7020008C7020008BC
:10010000C7020008C7020008C7020008C7020008AB
:10011000C7020008C7020008C7020008C70200089B
:10012000C7020008C7020008C7020008C70200088B
:10013000C7020008C7020008C7020008C70200087B
:1001400000000000000000000000000000000000AF
:10015000C7020008C7020008C7020008C70200085B
:10016000C7020008C7020008C7020008C70200084B
:10017000C7020008C7020008C7020008C70200083B
:10018000C7020008C7020008C7020008C70200082B
:10019000C7020008C7020008C7020008C70200081B
:1001A000C7020008C7020008C7020008C70200080B
:1001B000C7020008C7020008C7020008C7020008FB
:1001C000C7020008C7020008C7020008C7020008EB
:1001D000C7020008216C0008C7020008C702000817
:1001E000C7020008C7020008C7020008C7020008CB
:1001F000C7020008C7020008C7020008C7020008BB
:10020000C7020008C7020008C7020008C7020008AA
:10021000C7020008C7020008C7020008C70200089A
:10022000C7020008C7020008C7020008000000005B
:10023000C7020008C702000800000000C70200084B
:10024000C7020008C7020008C7020008C70200086A
:10025000C7020008C7020008C7020008C70200085A
:10026000C7020008C7020008C7020008C70200084A
:10027000C7020008C7020008C7020008000000000B
:10028000C7020008C7020008C702000800000000FB
:1002900000000000C7020008DFF80CD000F0A6FA4A
:1002A0000048004741960008B023002406488047D4
:1002B00006480047FEE7FEE7FEE7FEE7FEE7FEE74B
:1002C000FEE7FEE7FEE7FEE79972000899020008E4
:1002D000D2B201E000F8012B491EFBD27047002288
:1002E000F6E710B513460A4604461946FFF7F0FF35
:1002F000204610BDC1F30A52C1F3130140F2FF338F
:1003000041F480119A4202DA00200146704740F21F
:1003100033439A42A2F2334202DC524200F058B810
:1003200000F047B830B50B460146002020220124DA
:1003300009E021FA02F59D4205D303FA02F5491BB3
:1003400004FA02F52844151EA2F10102F1DC30BDC9
:100350002DE9F05F0546002092469B4688460646FA
:10036000814640241BE0284641464746224600F08D
:100370002FF853465A46C01A914110D311461846D9
:10038000224600F016F82D1A67EB01084F46224668
:100390000120002100F00DF817EB00094E41201E4E
:1003A000A4F10104DFDC484631462A464346BDE855
:1003B000F09F202A04DB203A00FA02F10020704767
:1003C0009140C2F1200320FA03F319439040704793
:1003D000202A04DB203A21FA02F00021704721FA9A
:1003E00002F3D040C2F12002914008431946704701
:1003F00010B5141E73F1000408DA401C41F100012D
:1004000092185B411A4301D120F0010010BD2DE983
:10041000F04D92469B4611B1B1FA81F202E0B0FA7A
:1004200080F220329046FFF7C4FF04460F4640EAB0
:100430000A0041EA0B0153465A46084313D01146BD
:1004400053EA010019D0C8F140025046FFF7C0FF3F
:1004500005460E46504659464246FFF7AAFF084356
:1004600005D0012004E020463946BDE8F08D00208B
:10047000054346EAE0762C4337430A986305E40ACD
:10048000A0EB08000022FD0A44EA47540A3002D5D6
:1004900000200146E9E7010510196941DDE9084539
:1004A00000196941BDE8F04DA2E72DE9FE4F8046F5
:1004B00081EA0300C00F0C46009021F0004123F0B8
:1004C0000045B8EB0200A94105D2404621469046BE
:1004D0001C460B46024623F00040104347D0270D30
:1004E000C7F30A00C3F30A510290401A0190402852
:1004F0006BDAC3F3130040F4801B0098924620B1DE
:100500000023D2EB030A63EB0B0B01985946C0F1B1
:1005100040025046FFF74DFF06460D4650465946ED
:10052000019A00F075F910EB08006141002487EA98
:10053000115284EAE7731A4340D0009A62B3019AD9
:10054000012A4FEA075215DC001B61EB02014FF054
:10055000004202EA0752CDE90042001C41F5801139
:1005600032462B46FFF753FF03B0BDE8F08F4046FD
:100570002146F9E7001B61EB0201001C41F58013E5
:1005800000185B412018A2F5001747EB030140EA71
:10059000D570B6196D4111E06D084FEA360645EA8F
:1005A000C0754FEA0752001B61EB0201001C41F5C8
:1005B000801149084FEA30000019514132462B465C
:1005C00003B0BDE8F04FFFF713BF009801224000D1
:1005D0000023D0EB020263EBE073009821464FEA60
:1005E000E074B8EB000061EB0401E9E783F000433D
:1005F0005BE781F0004158E72DE9FE4F81EA0304F3
:1006000004F0004421F0004100944FF0000B23F06F
:10061000004350EA01045ED052EA03045BD0C3F306
:100620000A54C1F30A552C44A4F2F3340194A0FBFC
:100630000254C1F3130141F48011C3F3130343F4D3
:10064000801301FB024400FB034E840A970A44EA2C
:10065000815447EA8357A4FB076802958D0A05FB7E
:1006600007854FEA932C04FB0C542705029D4FEAA3
:10067000065847EA1637B5EB08056EEB070C870EF0
:10068000920E47EA811742EA8312A7FB0201B6EBFA
:100690000B0164EB00042B0D43EA0C335E1844EBB2
:1006A0001C50DA465146E7FB0201C5F313044FEA3A
:1006B0000B3343EA14534FEA0432019C43EA060326
:1006C000A4F10C040294009CCDE900B4FFF79FFE56
:1006D00003B0BDE8F08F00200146F9E72DE9F04DA9
:1006E00081EA030404F0004B21F0004514464FF06A
:1006F000000A23F0004150EA050220D054EA01022A
:100700001DD0C5F30A570246C5F31303C1F3130006
:10071000C1F30A5640F4801543F48013A7EB060892
:10072000101BD64608F2FD3873EB050002D308F122
:10073000010801E092185B41B8F1000F03DA0020D4
:100740000146BDE8F08D00204FF480110646844636
:100750000EE0171B73EB050705D3121B63EB0503B4
:1007600006434CEA010C49084FEA300092185B41FD
:1007700050EA0107EDD152EA030012D082EA0400E8
:1007800083EA0501084305D0101BAB4106D20122C4
:10079000002306E000224FF0004302E06FF0010268
:1007A00053101AEB06004CEB085110EB0A0041EB1A
:1007B0000B01BDE8F04DFFF71BBE000030B5041E75
:1007C00071F1000404DB4FF00044404264EB01018E
:1007D000141E73F1000405DB1C464FF00043524227
:1007E00063EB0403994208BF904230BD064C074DAD
:1007F00006E0E06840F0010394E8070098471034F1
:10080000AC42F6D3FFF74CFDC8AB0008E8AB0008DC
:10081000202A06DBCB17203A41FA02F043EAE073C4
:1008200006E041FA02F3D040C2F1200291400843B1
:100830001946704700000000B0B50446006842F257
:10084000001140F48070C4F20201884204D142F2E7
:100850000830C4F2020003E046F20830C5F6020098
:10086000006810F4403F10D004F00EFE61680546A9
:10087000B1F5803F05D0B1F5403F22D0B1F5003F42
:1008800020D1080CB5FBF0F51CE04FF4002000214E
:1008900003F01AFE61680546A1F580224FEAB242D4
:1008A0000A2A0FD8DFE802F0060606060606494BBC
:1008B0004D4F51006FF0010000EA5140B5FBF0F5DB
:1008C00000E0AD0802F0C8FC41F2030188420DD8F7
:1008D000206842F60151C0F231118D4281682CBF6F
:1008E00041F4807121F480718160B0BD4BF62140EC
:1008F000C0F2BE00854205D82068816821F44071AD
:100900008160B0BD47F64100C0F27D10854203D83A
:1009100020680122816808E020684FF28101C0F25E
:10092000FA218D42816804D8022262F30921816094
:10093000B0BD41F440718160B0BD2D09C2E76D09C1
:10094000C0E7AD09BEE7ED09BCE72D0ABAE7000034
:1009500010B5846B616D11F0500F616D05D0C90643
:100960000ED4E16CC96C884710BD41F4007060651D
:1009700020680168090707D4C068800716D10AE01B
:10098000204600F039FE10BD05F0FEFD70B1206874
:10099000C06880040AD4606D20F480706065606D6A
:1009A000C00403D4606D40F001006065204600F093
:1009B0001BFE10BD0000000080B5806B416D41F052
:1009C00040014165816D41F00401816500F014FE34
:1009D00080BD00000000000080B5806B00F008FEC4
:1009E00080BD00000000000070B50446006805F0FE
:1009F000B7FD00281CBF002070BD20683F22C8F250
:100A000000028168114209D0606D40F010006065FD
:100A1000A06D40F00100A065012070BD05F078FDDB
:100A200002F022FC42F2000546F20031C4F2020557
:100A3000226805F5807605F54073C5F60201B242DD
:100A400008BF1946AA42054608BF1946084605F0E0
:100A50007BFD21680A46B14204BF42F20002C4F2A3
:100A60000202002818BF8A4203D121680868C00723
:100A700008D0002070BD00BF21680868C0074FF093
:100A8000000010D1084605F06BFD10B9206805F094
:100A90003FFD02F0E9FB401B0328EDD3206800680E
:100AA000C007E9D1B0E770BDFEE70000000000001C
:100AB0000020704700000000002070470000000088
:100AC00010B541F26C5440F66C51C2F20044C2F2CF
:100AD00000410022204607F0BFF840F26C5120464A
:100AE000C2F2004107F0A8F8002010BD000000008D
:100AF00010B541F26C540146C2F20044204607F0A2
:100B00009BF8204607F074F8002010BD000000009C
:100B1000002070470000000010B541F26C52C2F294
:100B20000042D2F8BC22D2F81422002A1CBF0120B5
:100B300010BD41F26C540A46C2F200440146204600
:100B400007F08AF8204607F027F910BD00000000E2
:100B500080B541F61010C2F2004000F0D1FF80BD18
:100B600080B541F68810C2F2004000F0C9FF80BD98
:100B700040F20F420168C4F20202914210DC6F227F
:100B8000C4F20202914220DC3F22C4F202029142EE
:100B900036DC1022C4F20202914254D028224EE0E8
:100BA00040F26F42C4F2020291421ADC40F23F422C
:100BB000C4F2020291422ADC40F21042C4F2020264
:100BC000914240D040F2284239E09F22C4F2020212
:100BD000914225DC7022C4F20202914233D0882275
:100BE0002DE040F29F42C4F2020291421FDC40F22B
:100BF0007042C4F20202914225D040F288421EE0C7
:100C00004022C4F2020291421DD0582217E040F265
:100C10004042C4F20202914215D040F258420EE026
:100C2000A022C4F2020291420DD0B82207E040F2A5
:100C3000B842C4F20202914205D040F2A042C4F28E
:100C4000020291421AD1D0F800C06FF00F024AF6AA
:100C5000AB2352FA8CF2CAF6AA23A2FB033109A3F2
:100C60005F2AC1F302115B5C40F2FF312CEA010103
:100C7000C36588BF0431816508467047016821F06B
:100C8000FF01F8E70006101600061016000000002D
:100C900010B545F257420168C5F6020291420EDCDA
:100CA00045F22F42C5F60202914217DC45F2084296
:100CB000C5F60202914226D045F21C421FE045F2E1
:100CC0007F42C5F60202914211DC45F25842C5F658
:100CD0000202914217D045F26C4210E045F23042D8
:100CE000C5F6020291420ED045F2444207E045F2B9
:100CF0009442C5F60202914205D045F28042C5F603
:100D00000202914219D101784CF6CD42CCF6CC4288
:100D100045F600030839C5F60203A1FB021203F1F0
:100D20008001120903EB820302F01F020366012314
:100D3000416603FA02F1816610BD02784AF6AB23E0
:100D4000CAF6AA234FF0080E103AA2FB032340F282
:100D50000F42C4F202024FEA131C914202F1AA04AC
:100D6000624688BF0EEB131240F60003A142C4F2A4
:100D7000020303F1800128BF6246D3E700000000B0
:100D800010B50279511E072988BF10BD45F2574C96
:100D900045F6FC0E0368C5F6020CC5F6020E634567
:100DA0000EF1440C0EDC45F22F44C5F60204A342BA
:100DB00017DC45F20844C5F60204A34226D045F2EA
:100DC0001C441FE045F27F44C5F60204A34211DC37
:100DD00045F25844C5F60204A34217D045F26C44CC
:100DE00010E045F23044C5F60204A3420ED045F2AD
:100DF000444407E045F28044C5F60204A34205D00E
:100E000045F29444C5F60204A34209D10EEB8202D6
:100E1000C2660122C0F870C002FA01F1416710BD3C
:100E200040F6FC0EC4F2020E0EF1440CEEE7000098
:100E30008169B1F5005F07D079B9816A022912D0C2
:100E4000012916D079B112E0816A03290FD8DFE8B1
:100E500001F0020A021001207047816A03293CBF99
:100E60000120704703D1C06AC0F3006070470020C2
:100E70007047C06AA0F1C070B0FA80F040097047B6
:100E800070B540F26F44D0F800E0C4F20204D0F82C
:100E900058C0A64519DC9F25C4F20205AE4531DCD9
:100EA0005725C4F20205AE4556DC1025C4F20205F2
:100EB000AE4500F092802825C4F20205AE4500F050
:100EC0008C804025C4F2020584E045F22F45C5F62A
:100ED0000205AE452BDC40F2B745C4F20205AE4533
:100EE00048DC40F27045C4F20205AE4575D040F2D0
:100EF0008845C4F20205AE456FD040F2A045C4F269
:100F0000020567E040F22745C4F20205AE4540DC29
:100F1000A025C4F20205AE455FD0B825C4F2020593
:100F2000AE455AD040F21045C4F2020552E045F2F7
:100F30006B45C5F60205AE453CDC45F23045C5F6CD
:100F40000205AE4549D045F24445C5F60205AE4519
:100F500043D045F258453BE05825C4F20205AE4562
:100F60003BD07025C4F20205AE4536D08825C4F2C8
:100F700002052FE040F2B845C4F20205AE452CD080
:100F800045F20845C5F60205AE4526D045F21C459A
:100F90001EE040F22845C4F20205AE451DD040F2E5
:100FA0004045C4F20205AE4517D040F25845C4F2A0
:100FB00002050FE045F26C45C5F60205AE450CD0C2
:100FC00045F29445C5F60205AE4506D045F280458A
:100FD000C5F60205AE4540F0C980456EC66E002ECE
:100FE000866E6E601CBFD0E91C566E60A64515DC8F
:100FF0009F24C4F20204A6452BDC5724C4F2020449
:10100000A6454EDC1024C4F20204A64576D028245E
:10101000C4F20204A64571D040246BE045F22F448F
:10102000C5F60204A64527DC40F2B744C4F2020428
:10103000A64542DC40F27044C4F20204A6455DD0ED
:1010400040F28844C4F20204A64557D040F2A044BE
:1010500050E040F22744C4F20204A6453CDCA02440
:10106000C4F20204A64549D0B824C4F20204A6453D
:1010700044D040F210443DE045F26B44C5F6020412
:10108000A6454FDC45F23044C5F60204A6455BD0C8
:1010900045F24444C5F60204A64555D045F25844ED
:1010A0004EE05824C4F20204A64527D07024C4F2AE
:1010B0000204A64522D088241CE040F2B844C4F2C1
:1010C0000204A6451AD045F20844C5F60204A64516
:1010D0003AD045F21C4433E040F22844C4F2020402
:1010E000A6450BD040F24044C4F20204A64505D008
:1010F00040F25844C4F20204A64537D104683F25A3
:101100008668C06D00F01F00402E05FA00F0CCF894
:101110000800206820F480202060636021D0A16056
:10112000E26070BD45F26C44C5F60204A6450BD0E2
:1011300045F28044C5F60204A64505D045F2944424
:10114000C5F60204A64511D10468C66D806806F094
:101150001F060125402805FA06F6CCF804606360F6
:1011600002D1A260E16070BDA160E26070BD0000CC
:101170007047000000000000EFF3108072B600BF5F
:10118000FEE7000000000000B0B54EF60001C1F619
:10119000F17108688A68801808BFB0BD40F2E005A8
:1011A0004C68C2F200450822A91C05F08DF905F132
:1011B00012010422204605F087F9B0BD00000000AE
:1011C0002DE9F04182B0044690F85000012803D187
:1011D000022002B0BDE8F081012084F85000002018
:1011E0000190009042F20007C4F202072068B84262
:1011F0000BD107F580780D46404605F0C1F906464B
:10120000206805F0BDF930430AD0606D40F0200041
:1012100060650120002184F8501002B0BDE8F08123
:1012200046F200002168C5F602004145064608BFA7
:101230003E46B94208BF0E462A6841F48071D6F88E
:101240000833002A23F4404215D042F2001C6B6898
:10125000C4F2020C614542EA0301C6F808131BD12F
:10126000384605F081F90746404605F07DF93843D8
:10127000B0B10020CEE742F20013C6F80823C4F252
:101280000203994216D1384605F06EF905464046EC
:1012900005F06AF928430FE005F066F90028E8D167
:1012A000D6F8080340F61F7188432968AA680843E6
:1012B000104309E005F058F908B10020AAE7D6F874
:1012C000080340F61F718843C6F808030020A1E711
:1012D0002DE9F04782B000220192044690F85000B8
:1012E000012803D1022002B0BDE8F08720680D4636
:1012F000012684F8506005F03FF928B1606D40F098
:10130000200060650120DEE02A6892FAA2F0B0FABF
:1013100080F3100308BF930E2068696803F01F0371
:1013200006FA03F3C7693B43C36105F03DF9206842
:1013300005F022F90646206805F00AF9304368D125
:1013400020682968AA6805F053F941F20000C5F643
:101350000040006800F07040B0F1805F06D1206866
:101360006A690E21C06801EA50030CE02068C16878
:101370006A69C068C9064FEA500002D400F00E0343
:1013800001E000F0080329692068042928D1016ED2
:101390002A6801F0F841B1EB826F4FEA826103D114
:1013A000026E22F000420266426E02F0F8428A4269
:1013B00003D1426E22F000424266826E02F0F84291
:1013C0008A4203D1826E22F000428266C26E02F02F
:1013D000F8428A421DD1C16E21F00041C16618E079
:1013E00002FA03F32A6805F04BF9687E0138B0FA77
:1013F00080F120684A092969D20705F04DF9287E55
:101400000138B0FA80F120684A092969D20205F052
:101410002BF9206805F0A4F808B1002053E02068FB
:101420002968EA6805F0F8F80021E868C4F2FF715D
:10143000884243D14FF6FF702968C0F20F004FF089
:10144000806711EA000C91FAA1F0B0FA80F213461D
:1014500008BF8B0E20685E1C07EB836306F01E0E30
:1014600006F01F060127BEF1090F03F0F84307FA43
:1014700006F60DD8BCF1000F08BF8A0E511C43EAD6
:10148000060201F01F0101EB410142EA015112E0A5
:10149000BCF1000F08BF8A0E511C002201F01F0191
:1014A000CFF6206201EB410102EB015146EA030253
:1014B000114341F00071AA6805F09AF82868B0F16C
:1014C000FF3F06DD0020002184F8501002B0BDE887
:1014D000F08746F2000842F20007C5F60208C4F29F
:1014E000020708F54079216807F5807607F5407214
:1014F0004846B14208BF1046B94208BF104605F041
:101500001FF8216842F2001241F48071C4F2020215
:101510009142824608D1384605F022F80746304607
:1015200005F01EF8384302E0404605F019F800289F
:101530007FF4E4AE5FEA0A20296809D40020CCF6E3
:101540008430814204D1206840451DD00020BAE794
:101550005FEACA1009D40020CCF25270814204D153
:101560002068404531D00020ADE75FEA4A204FF0C7
:101570000000A8D40022CCF6B8729142A3D1206812
:10158000404527D000209EE74AF40001484605F078
:1015900063F840F2240042F66351C2F20040C0F208
:1015A0003E5100688009A0FB01018809022101EB7E
:1015B00040000190019858B10198013801900198BC
:1015C00000284FF00000F7D17DE74AF0807103E07A
:1015D000002078E74AF48001484605F03DF80020F5
:1015E00071E70000000000007047000000000000EC
:1015F000704700000000000070470000000000007D
:10160000F0B581B0044600284FF00000009019D0DA
:10161000606D30B9204600F00BF90020A06584F819
:101620005000206804F098FF10B1206804F068FFB3
:10163000206804F09DFF38B1206804F099FFE0B104
:10164000002523E00125E3E0206804F06DFF40F26F
:10165000240042F66351C2F20040C0F23E510068DD
:101660008009A0FB0101012000EB9110009000987F
:101670000028E1D000980138F8E7606D012540F0BE
:1016800010006065A06D40F00100A065206804F0C6
:1016900073FF616D01F010010843606D03D040F0ED
:1016A00010000125B3E020F48170023060652068ED
:1016B00004F056FF58BB206842F2001140F48070DD
:1016C000C4F2020142F200068842C4F2020640F06F
:1016D000A280304604F044FF074606F5807004F00F
:1016E0003FFF384398B906F5807006F540722168CF
:1016F00046F20003C5F602038142104618BF03F507
:101700004070B142616808BF104604F09DFF01F0CF
:10171000A3FD41F2040188420CD3A068102809D12E
:10172000607D216B227F41EA403040EA024040F078
:101730001C0108E0607D216B227F41EA4030A168F6
:10174000084340EA0241207F012806D1206A002296
:10175000CFF6FE7202EB40400143606A28B100F40C
:101760007870A26A084340EA020120684CF2030341
:10177000CFF6F073C2681A401143C16004F0FCFE5A
:101780000646206804F0E4FE304331D1217D206814
:10179000E26A44F20307C36842EA813123EA07029E
:1017A0001143C16094F838100129016914D14FF632
:1017B0001E020027CFF60042CFF6FF771140D4E992
:1017C0000F231943636C07EB02421143A26C1943C8
:1017D000114341F0010101E021F0010101610169C2
:1017E000626B21F07041114301612046FFF724F83C
:1017F0002068E1680129026B22F00F0102D1A26981
:10180000013A114301630121606D61F301006065DC
:10181000284601B0F0BD46F20000C5F6020004F013
:101820009FFE00287FF473AF5DE70000000000001A
:101830002DE9F04186B042F2001204460068C4F27D
:10184000020290424FF00001CDE904110391CDE96D
:10185000011170D042F20001C4F20201884240F04E
:10186000C08040F2441144F2E040C2F20041C5F6AB
:1018700002000A68002A02F101020A600BD150F846
:10188000081C41F0200140F8081C50F8081C01F029
:10189000200100910099016840F2000841F0040124
:1018A00001600168C5F6020801F004010091009989
:1018B000016841F002010160006801AD00F0020022
:1018C000009000983020019008F500602946032719
:1018D00002970026039601F0D7FB08F580602946A1
:1018E000CDE90177039601F0CFFB41F610151020EA
:1018F000C2F20045C4F2020028600920C5E90106D1
:101900004FF4806028614FF4006068614FF400502C
:10191000A8614FF48070EE60C5E9070628466E6244
:1019200000F0BEFE00285AD0FFF726FC41F6101545
:10193000C2F2004553E040F2441144F2E040C2F2EA
:101940000041C5F602000A68002A02F101020A609D
:101950000BD150F8081C41F0200140F8081C50F849
:10196000081C01F02001009100990168002641F057
:1019700001010160006801A900F0010000900098D9
:1019800030200190032002900020C5F6020003964B
:1019900001F07AFB41F688151020C2F20045C4F22E
:1019A0000200183028600A20C5E901064FF4806063
:1019B00028614FF4006068614FF40050A8614FF453
:1019C0008070EE60C5E9070628466E6200F068FE8A
:1019D00028B1FFF7D1FB41F68815C2F20045E56456
:1019E000AC6306B0BDE8F0812DE9F04742F2000695
:1019F0000446C4F20206036846F2003006F580771A
:101A000006F54075C5F60200BB42904608BF284661
:101A1000B342894608BF284604F096FD82462068F6
:101A200004F0AAFD18B994F85000012802D1022050
:101A3000BDE8F087BAF1090F4FF0010084F85000BB
:101A400058D800FA0AF040F22121084252D020462C
:101A5000FEF7CAFF30B10546002084F85000284642
:101A6000BDE8F0872068616D40F60172B84221EA56
:101A7000020118BF0646BAF1000F01F580716165D9
:101A800018BF864203D1616D21F480116165616DDB
:101A900040F6D917C9044FF0000144BFA16D21F0F1
:101AA0000601C0F600070022A16540F65111E36C63
:101AB000C0F60001C3E90F1740F6B917E16AC0F696
:101AC0000007DF641C23036084F85020426842F062
:101AD0001002426004F060FD2168E06C40314A462B
:101AE000434601F08DF80546206804F075FD284650
:101AF000BDE8F087002084F850000120BDE8F087A1
:101B00002DE9F04381B00021009140F22401044608
:101B1000C2F2004140F26F49A56DC4F202090868A3
:101B200048F2B511C1F64E312668A0FB01084E45BA
:101B30002F682A6815DC9F20C4F2020086422BDC45
:101B40005720C4F2020086424FDC1020C4F202008B
:101B5000864278D02820C4F20200864273D040200A
:101B60006CE045F22F40C5F60200864227DC40F2C9
:101B7000B740C4F20200864243DC40F27040C4F237
:101B8000020086425FD040F28840C4F202008642E2
:101B900059D040F2A04051E040F22740C4F2020088
:101BA00086423DDCA020C4F2020086424BD0B82021
:101BB000C4F20200864246D040F210403EE045F2B8
:101BC0006B40C5F60200864274DC45F23040C5F633
:101BD0000200864200F0818045F24440C5F60200D2
:101BE00086427AD045F2584072E05820C4F2020092
:101BF000864228D07020C4F20200864223D088207A
:101C00001CE040F2B840C4F2020086421BD045F20C
:101C10000840C5F6020086425FD045F21C4057E0FE
:101C200040F22840C4F2020086420CD040F240400C
:101C3000C4F20200864206D040F25840C4F20200CC
:101C4000864240F0ED84E06D00F01F01082000FAAC
:101C500001F23A4200F0148140F20F40C4F2020057
:101C6000864213DC6F20C4F20200864200F38E80AD
:101C70003F20C4F20200864200F3CF801020C4F25D
:101C80000200864200F0ED802820E5E04E4500F39A
:101C9000898040F23F40C4F20200864200F3C480D3
:101CA00040F21040C4F20200864200F0DA8040F2B6
:101CB0002840D1E045F26C40C5F6020086420CD0C7
:101CC00045F28040C5F60200864206D045F29440B7
:101CD000C5F60200864240F0A3842068E16D01F061
:101CE0001F010368580727D50420884010EA02071F
:101CF00022D01904686000F18780980600F18C8476
:101D000040F20F40C4F20200864200F3AB836F2022
:101D1000C4F20200864200F3E6833F20C4F20200D0
:101D2000864200F350841020C4F20200864200F084
:101D30006D84282000F066BC980742D502208840B8
:101D400010EA02073DD01904686000F10E8398067E
:101D500000F1988440F20F40C4F20200864200F382
:101D6000AF836F20C4F20200864200F311843F204B
:101D7000C4F20200864200F356841020C4F202002E
:101D8000864200F07384282000F06CBC9F20C4F2CF
:101D90000200864251DC7020C4F20200864260D00C
:101DA000882059E040F29F40C4F2020086424BDC9A
:101DB00040F27040C4F20200864252D040F28840A5
:101DC0004AE0180740F12C8408208840104000F0B9
:101DD000278440F20F40C4F20200864200F32C83B5
:101DE0006F20C4F20200864200F34F833F20C4F20A
:101DF0000200864200F393831020C4F20200864260
:101E000000F0B1832820A9E3D80300F1B482A16CCB
:101E1000002940F00C8300F003BC4020C4F2020013
:101E200086421ED0582017E040F24040C4F2020023
:101E3000864216D040F258400EE0A020C4F20200C4
:101E400086420ED0B82007E040F2B840C4F202004B
:101E5000864206D040F2A040C4F20200864240F022
:101E60008E82206804230068184209D02068036825
:101E700023F004030360AA60606D40F00100606518
:101E8000012000FA01F23A4270D040F20F40C4F251
:101E90000200864210DC6F20C4F2020086421CDC85
:101EA0003F20C4F20200864232DC1020C4F202005D
:101EB000864251D028204AE04E451ADC40F23F408D
:101EC000C4F2020086422ADC40F21040C4F2020052
:101ED000864241D040F2284039E09F20C4F20200FF
:101EE000864225DC7020C4F20200864234D088206D
:101EF0002DE040F29F40C4F2020086421FDC40F217
:101F00007040C4F20200864226D040F288401EE0B3
:101F10004020C4F2020086421ED0582017E040F252
:101F20004040C4F20200864216D040F258400EE013
:101F3000A020C4F2020086420ED0B82007E040F292
:101F4000B840C4F20200864206D040F2A040C4F27B
:101F50000200864240F016822068406900F080004E
:101F600020B1AA60606D40F002006065042000FAB4
:101F700001F23A4270D040F20F40C4F202008642B1
:101F800010DC6F20C4F2020086421CDC3F20C4F249
:101F90000200864232DC1020C4F20200864251D098
:101FA00028204AE04E451ADC40F23F40C4F20200CD
:101FB00086422ADC40F21040C4F20200864241D040
:101FC00040F2284039E09F20C4F20200864225DC1E
:101FD0007020C4F20200864234D088202DE040F206
:101FE0009F40C4F2020086421FDC40F27040C4F2FF
:101FF0000200864226D040F288401EE04020C4F213
:10200000020086421ED0582017E040F24040C4F241
:102010000200864216D040F258400EE0A020C4F2E2
:10202000020086420ED0B82007E040F2B840C4F269
:102030000200864206D040F2A040C4F2020086426E
:1020400040F0A6812068006800F0020020B1AA607C
:10205000606D40F004006065102000FA01F1394223
:102060007ED040F20F40C4F20200864210DC6F20A6
:10207000C4F2020086421CDC3F20C4F20200864209
:1020800032DC1020C4F20200864251D028204AE0FF
:102090004E451ADC40F23F40C4F2020086422ADC80
:1020A00040F21040C4F20200864241D040F2284083
:1020B00039E09F20C4F20200864225DC7020C4F281
:1020C0000200864234D088202DE040F29F40C4F2C6
:1020D000020086421FDC40F27040C4F202008642D9
:1020E00026D040F288401EE04020C4F20200864222
:1020F0001ED0582017E040F24040C4F20200864251
:1021000016D040F258400EE0A020C4F202008642F1
:102110000ED0B82007E040F2B840C4F20200864278
:1021200006D040F2A040C4F20200864240F0368160
:10213000266808223068104212D0A9602068016821
:102140004903016806D4C90506D4016821F00801D5
:10215000016001E008034FD4216C09B12046884793
:10216000E06D202100F01F008140394200F0AE8078
:1021700040F20F432268C4F202039A4210DC6F233C
:10218000C4F202039A421CDC3F23C4F202039A42C7
:1021900036DC1023C4F202039A4255D028234EE0C5
:1021A0004A451ADC40F23F43C4F202039A422EDC55
:1021B00040F21043C4F202039A4245D040F2284351
:1021C0003DE09F23C4F202039A4229DC7023C4F24B
:1021D00002039A4238D0882331E040F29F43C4F290
:1021E00002039A4223DC40F27043C4F202039A4293
:1021F0002AD040F2884322E0A16C0029AED1AFE79B
:102200004023C4F202039A421ED0582317E040F242
:102210004043C4F202039A4216D040F258430EE003
:10222000A023C4F202039A420ED0B82307E040F282
:10223000B843C4F202039A4206D040F2A043C4F26B
:1022400002039A4240F0AC802268102312681A42BE
:102250003CD0A96094F835202168042A0A681DD171
:1022600022F016020A604A6922F080024A61226C5A
:102270000AB9A26C1AB10A6822F008020A603F216A
:1022800001FA00F0A860012084F83500216D0020DB
:10229000002984F8340040F0CA80C1E15003086886
:1022A0000CD4C0050ED4086820F01000086001208E
:1022B00084F83500002084F8340003E0000301D4E2
:1022C000616C00E0E16B09B120468847606D002831
:1022D00000F0A681606DC00700F0A580042084F89E
:1022E000350040F20F412068C4F20201884210DC40
:1022F0006F21C4F2020188421CDC3F21C4F20201BA
:1023000088424FDC1021C4F2020188426FD028219C
:1023100067E048451ADC40F23F41C4F202018842BE
:1023200047DC40F21041C4F2020188425FD040F223
:10233000284156E09F21C4F20201884242DC70210C
:10234000C4F20201884252D088214AE040F29F4103
:10235000C4F2020188423CDC40F27041C4F2020146
:10236000884244D040F288413BE0D80376D4616C87
:1023700000295CD154E1216C002958D150E1082397
:10238000304670E53068002000287FF4EAADEDE5C6
:102390003068002000287FF45AAE5DE60422C9E6CA
:1023A000022353E74021C4F2020188421FD0582182
:1023B00017E040F24041C4F20201884217D040F2D7
:1023C00058410EE0A021C4F2020188420FD0B8218A
:1023D00007E040F2B841C4F20201884207D040F25F
:1023E000A041C4F20201884208BF206800E02068D2
:1023F0004FEA9821026822F0010202600098013041
:102400000090884203D820680068C007F6D1206891
:102410000068C0074FF0030008BF012084F83500B2
:10242000002084F83400E16C002900F0F980204697
:10243000884701B0BDE8F0834E4532DC40F23F40B2
:10244000C4F20200864271DC40F21040C4F2020085
:10245000864200F0888040F228407FE0E16B00294E
:10246000E5D1DDE04E454BDC40F23F40C4F20200D6
:10247000864200F3AF8040F21040C4F20200864270
:1024800000F0C48040F22840BCE09F20C4F202006B
:10249000864254DC7020C4F20200864263D0882059
:1024A0005CE040F29F40C4F2020086424EDC40F203
:1024B0007040C4F20200864255D040F288404DE0A0
:1024C0004E4571DC40F23F40C4F20200864200F308
:1024D000B18040F21040C4F20200864200F0C68093
:1024E00040F22840BEE09F20C4F2020086427ADC1F
:1024F0007020C4F20200864200F08880882081E0CB
:1025000040F29F40C4F20200864273DC40F2704009
:10251000C4F20200864279D040F2884072E0402046
:10252000C4F2020086421ED0582017E040F240401C
:10253000C4F20200864216D040F258400EE0A020BD
:10254000C4F2020086420ED0B82007E040F2B84044
:10255000C4F20200864206D040F2A040C4F202005B
:10256000864240F0948026686FF01C02306810406C
:102570003060012000FA01F16960606584F835007F
:102580000020E16C84F8340000297FF450AF47E06C
:102590009F20C4F20200864255DC7020C4F2020083
:1025A000864263D088205DE040F29F40C4F2020082
:1025B00086424FDC40F27040C4F20200864255D0A1
:1025C00040F288404EE04020C4F2020086421DD016
:1025D000582017E040F24040C4F20200864215D075
:1025E00040F258400EE0A020C4F2020086420DD016
:1025F000B82007E040F2B840C4F20200864205D09D
:1026000040F2A040C4F20200864243D126686FF037
:102610000801306808403060216C00297FF407AF62
:1026200001B0BDE8F0834020C4F2020086421DD014
:10263000582017E040F24040C4F20200864215D014
:1026400040F258400EE0A020C4F2020086420DD0B5
:10265000B82007E040F2B840C4F20200864205D03C
:1026600040F2A040C4F20200864216D126686FF004
:102670001401306808403060012084F835000020E3
:1026800084F83400E16B00297FF4D1AEC8E76FF025
:102690000E026BE76FF00401BBE76FF00A01E8E799
:1026A0002DE9F04381B0044600F0DEFD002C00F07F
:1026B000738140F26F4805462068C4F20208404525
:1026C00015DC9F21C4F2020188422BDC5721C4F2A1
:1026D0000201884251DC1021C4F2020188427AD002
:1026E0002821C4F20201884275D040216EE045F2F3
:1026F0002F41C5F60201884227DC40F2B741C4F2FF
:102700000201884245DC40F27041C4F20201884275
:1027100061D040F28841C4F2020188425BD040F2AD
:10272000A04153E040F22741C4F2020188423FDC5D
:10273000A021C4F2020188424DD0B821C4F20201A6
:10274000884248D040F2104140E045F26B41C5F666
:102750000201884200F3908045F23041C5F6020143
:10276000884200F09C8045F24441C5F6020188424F
:1027700000F0958045F258418CE05821C4F20201E6
:10278000884228D07021C4F20201884223D08821D7
:102790001CE040F2B841C4F2020188421BD045F26D
:1027A0000841C5F60201884279D045F21C4171E02A
:1027B00040F22841C4F2020188420CD040F240416C
:1027C000C4F20201884206D040F25841C4F202012C
:1027D000884240F0118240F20F420221C4F202020C
:1027E00084F8351090424FF0000184F8341012DC68
:1027F0006F21C4F20201884220DC3F21C4F20201B1
:10280000884200F391801021C4F20201884200F056
:10281000B0802821A7E040451EDC40F23F41C4F2D1
:102820000201884200F3878040F21041C4F20201A5
:10283000884200F09E8040F2284194E09F21C4F23B
:102840000201884200F380807021C4F202018842B4
:1028500000F08F80882186E040F29F41C4F202019F
:10286000884278DC40F27041C4F20201884200F0F4
:10287000808040F2884176E045F26C41C5F6020165
:1028800088420CD045F28041C5F60201884206D04C
:1028900045F29441C5F60201884240F0AD8104F151
:1028A000080E022084F8350000209EE80640A1F1C1
:1028B000800384F83400B3FA83F320685B0940296D
:1028C000D4E90579D4E9076C05684FEA83336FF3DF
:1028D000101508BF102345EAD2014AF6F832194311
:1028E000CAF2FD7241EADE014CF6CD4341EAD7015E
:1028F000024441EAD901CCF6CC4341EAD601A2FB1D
:10290000032341EA1C1101606FF0030000EA930009
:10291000E0652046FEF72CF9E16D012201F01F0170
:1029200002FA01F141609BE04021C4F202018842B9
:102930001FD0582117E040F24041C4F20201884202
:1029400017D040F258410EE0A021C4F202018842A3
:102950000FD0B82107E040F2B841C4F2020188422A
:1029600007D040F2A041C4F20201884208BF2068AB
:1029700000E02068016821F00101016027683868E3
:10298000C0070DD000F070FC401B0628F6D32020B5
:102990006065032084F83500012001B0BDE8F083B4
:1029A00048F23F0104F108053868CFF6106108408D
:1029B0002ECD0843A1691043E2691843236A0543F9
:1029C000606A2943042841EA020141EA030103D174
:1029D000D4E90B231143194341F20002C5F600422A
:1029E0001268B2F1005F17D36268A2F12903202BAD
:1029F00006D23F25CCF2C03525FA03F3DB0706D11A
:102A0000A2F14F030022042B38BF012200E0012273
:102A1000002A18BF41F4801139600428796921F037
:102A2000070141EA000510D1D4E90A1045EA010581
:102A300058B12046FEF7FCF938B14020606501200E
:102A400084F8350001B0BDE8F08320467D61FEF7D3
:102A50008FF8E16D3F2201F01F0102FA01F1816060
:102A60002068404519DC9F21C4F20201884231DC14
:102A70005721C4F20201884256DC1021C4F202013F
:102A8000884200F091802821C4F20201884200F0BF
:102A90008B804021C4F2020184E045F22F41C5F64B
:102AA000020188422BDC40F2B741C4F202018842A5
:102AB00048DC40F27041C4F20201884274D040F216
:102AC0008841C4F2020188426ED040F2A041C4F2B3
:102AD000020167E040F22741C4F20201884240DC73
:102AE000A021C4F2020188425ED0B821C4F20201E2
:102AF000884259D040F21041C4F2020152E045F23E
:102B00006B41C5F6020188423CDC45F23041C5F616
:102B10000201884248D045F24441C5F6020188428C
:102B200042D045F258413BE05821C4F202018842AC
:102B30003AD07021C4F20201884235D08821C4F213
:102B400002012FE040F2B841C4F2020188422BD0CA
:102B500045F20841C5F60201884225D045F21C41E4
:102B60001EE040F22841C4F2020188421CD040F22B
:102B70004041C4F20201884216D040F25841C4F2EA
:102B800002010FE045F26C41C5F6020188420BD00C
:102B900045F29441C5F60201884205D045F28041D4
:102BA000C5F6020188421FD12046FEF771F8A068E1
:102BB000802801D10020606004F160036068C7B222
:102BC00001380ECB07280F60536009D82046FEF766
:102BD000D7F804F16C02002307CA03604A6003E0DF
:102BE00000206067C4E91B0000206065012184F8B3
:102BF000351001B0BDE8F0834020C9E600000000B8
:102C0000F0B581B0A8B3044690F83400012802D191
:102C1000022001B0F0BD012084F8340094F83500A2
:102C2000012820D1022084F835000020606540F2A0
:102C30000F462068C4F2020640F26F47B042C4F269
:102C4000020719DC6F25C4F20205A84225DC3F25E6
:102C5000C4F20205A8423BDC1025C4F20205A842DA
:102C60005BD0282553E04FF400606065002084F8B5
:102C70003400012001B0F0BDB8421ADC40F23F45FB
:102C8000C4F20205A8422ADC40F21045C4F2020553
:102C9000A84242D040F2284539E09F25C4F20205FF
:102CA000A84225DC7025C4F20205A84235D088254B
:102CB0002DE040F29F45C4F20205A8421FDC40F21D
:102CC0007045C4F20205A84227D040F288451EE0B4
:102CD0004025C4F20205A8421FD0582517E040F253
:102CE0004045C4F20205A84217D040F258450EE014
:102CF000A025C4F20205A8420FD0B82507E040F293
:102D0000B845C4F20205A84207D040F2A045C4F27B
:102D10000205A84208BF206800E02068056825F089
:102D2000010505602046FEF7ABF82068B04210DCD4
:102D30006F21C4F2020188421CDC3F21C4F202016F
:102D4000884232DC1021C4F20201884251D028218D
:102D50004AE0B8421ADC40F23F41C4F20201884224
:102D60002ADC40F21041C4F20201884241D040F214
:102D7000284139E09F21C4F20201884225DC7021FC
:102D8000C4F20201884234D088212DE040F29F41F4
:102D9000C4F2020188421FDC40F27041C4F2020119
:102DA000884226D040F288411EE04021C4F2020150
:102DB00088421ED0582117E040F24041C4F202017F
:102DC000884216D040F258410EE0A021C4F2020120
:102DD00088420ED0B82107E040F2B841C4F20201A7
:102DE000884206D040F2A041C4F20201884240F07D
:102DF000298121680B25226C0B6865F344030B6065
:102E00001AB10A6842F008020A60B84219DC9F2130
:102E1000C4F20201884231DC5721C4F20201884227
:102E200056DC1021C4F20201884200F09180282172
:102E3000C4F20201884200F08B804021C4F20201FA
:102E400084E045F22F41C5F6020188422BDC40F2B6
:102E5000B741C4F20201884248DC40F27041C4F23A
:102E60000201884274D040F28841C4F202018842D3
:102E70006ED040F2A041C4F2020167E040F2274167
:102E8000C4F20201884240DCA021C4F2020188425F
:102E90005ED0B821C4F20201884259D040F21041FC
:102EA000C4F2020152E045F26B41C5F602018842CC
:102EB0003CDC45F23041C5F60201884248D045F27B
:102EC0004441C5F60201884242D045F258413BE0F8
:102ED0005821C4F2020188423AD07021C4F20201A2
:102EE000884235D08821C4F202012FE040F2B84177
:102EF000C4F2020188422BD045F20841C5F6020116
:102F0000884225D045F21C411EE040F22841C4F21F
:102F1000020188421CD040F24041C4F202018842C2
:102F200016D040F25841C4F202010FE045F26C4164
:102F3000C5F6020188420BD045F29441C5F6020164
:102F4000884205D045F28041C5F60201884272D11F
:102F5000216E0A68D20303D50A6842F480720A60BF
:102F6000E16E19B10A6842F480720A60B04210DC66
:102F70006F21C4F2020188421CDC3F21C4F202012D
:102F8000884232DC1021C4F20201884252D028214A
:102F90004AE0B8421ADC40F23F41C4F202018842E2
:102FA0002ADC40F21041C4F20201884242D040F2D1
:102FB000284139E09F21C4F20201884225DC7021BA
:102FC000C4F20201884235D088212DE040F29F41B1
:102FD000C4F2020188421FDC40F27041C4F20201D7
:102FE000884227D040F288411EE04021C4F202010D
:102FF00088421FD0582117E040F24041C4F202013C
:10300000884217D040F258410EE0A021C4F20201DC
:1030100088420FD0B82107E040F2B841C4F2020163
:10302000884207D040F2A041C4F20201884208BFA2
:10303000206800E02068016841F001010160002083
:1030400001B0F0BD21680525226C0B68002A65F3EC
:1030500043030B603FF4D9AE0A6842F00402D3E6A2
:10306000B0B5044600F000F940F208110546C2F27E
:103070000041621C097818BF0C4400BF00F0F4F84E
:10308000401BA042FAD3B0BD2DE9F04F83B00C68CD
:10309000002C00F0C68000F1264242F2004702F107
:1030A000FF72C5F602074FEAB22201920A22B84225
:1030B00008BF0922002500274FF0010A009209E00D
:1030C0000C68043734FA0AF20AF1010A05F1020524
:1030D00000F0A780AAF10109012202FA09FE14EA10
:1030E0000E08EDD0D1F804B00BF00304A4F1010CEC
:1030F000BCF1010F11D803228668AA40CB6826EAEA
:103100000202AB401A438260CBF30013426822EA0A
:103110000E0203FA09F31A434260032C1ED0032364
:10312000C268AB40022C22EA03028B6803FA05F363
:1031300042EA0302C26011D16FF0030207F01C06DD
:1031400002EA59020F23024403FA06F4D2F820C01F
:103150000B692CEA0404B34023431362032302687F
:10316000AB404E689A4306F00303AB4016F4403F71
:1031700042EA03020260A3D044F2F44340F2084E54
:10318000C5F60203C5F6000E1A6842F002021A6084
:103190001A6807F00C0302F002020292029A29F068
:1031A0000302019C009E092C38BF26460F2452F8CA
:1031B0000EC09C402CEA040406FA03F34FF0B04C16
:1031C000234342F80E30DCF800204B6842EA080640
:1031D000DC0258BF22EA08069C02CCF8006040F2EC
:1031E000040CC5F6000CDCF8002042EA080658BFC3
:1031F00022EA08069C03CCF80060DCF8802042EA52
:10320000080658BF22EA0806DB03CCF88060DCF829
:103210007C2042EA080658BF22EA0806CCF87C6007
:103220004EE703B0BDE8F08F0069084018BF0120E9
:103230007047000000000000426902EA0103914368
:1032400041EA034181617047002A08BF0904816196
:10325000704700000000000041F20000C5F6004089
:103260000068000C7047000041F6A870C2F20040F0
:10327000006870470000000040F2081041F6A87195
:10328000C2F20040C2F2004100780A6810440860AF
:10329000704700000000000080B5032000F0D0F867
:1032A00002F02EF944F218414AF6B833C5F602018D
:1032B000C0F600030A68096801F00F01C2F3032297
:1032C000595C9A5C01F01F0102F01F02D04040F2ED
:1032D0002802C2F2004220FA01F1116040F22401FA
:1032E000C2F2004108600F2000F00AF800281CBF5D
:1032F000012080BD00F080F8002080BD00000000AB
:10330000B0B540F20811C2F20041097801B3044699
:1033100040F22400C2F200404FF47A72B2FBF1F1A5
:103320000068B0FBF1F002F0B3FC0F2C4FF0010588
:103330000CD858B94FF0FF3000222146002500F08C
:103340006FF840F20C10C2F2004004602846B0BD95
:103350000120B0BD00000000B0B502784EF69C5CC4
:10336000CEF2000C43784CF8043CF2B14368CCF840
:103370000030037BC17A90F80AE0457B447A42EA48
:103380000372837B42EA0161C27B41EACE41007A4B
:1033900041EA854141EA434141EA024141EA0421CF
:1033A00041EA4000CCF80400B0BD0020CCF8000099
:1033B000CCF80400B0BD00004EF62450CEF2000060
:1033C000BFF35F8F016821F4803101600021016744
:1033D00070470000000000004EF6245140F001004C
:1033E000CEF200010867086840F480300860BFF33F
:1033F0004F8FBFF36F8F704781B044F2F440C5F632
:103400000200016841F002010160006800F0020062
:103410000090009801B0704780B506F09DF880BD1F
:1034200070B514460D46064606F0A6F82946224613
:1034300003F0DEFB0146304606F0A6F870BD000042
:1034400080B506F0B5F880BD01680122C0F80025FE
:10345000002280F8F424886940F000608861486D9B
:1034600040F08052002042F003024A65704700009D
:1034700070470000000000000268002051627047A1
:1034800010B5D0F800C0DCF82400D9B1DCF8283041
:10349000B1F1010E00EB13430CD00021002000BF5E
:1034A0000CEB81010130D1F80441C1B28E4503EB30
:1034B0001443F5D80CEB8E0043EA0241C0F8041126
:1034C000002010BD40EA0240CCF82800002010BDCA
:1034D00080B5D0F8080504F05FFF80BD0000000053
:1034E00080B501EBC10200EB8202D0F80805926CB6
:1034F00004F0BEFE80BD000080B501EBC10200EB10
:103500008202D0F80805D2F8882204F009FF80BDB5
:1035100080B5D0F8080504F043FF80BD000000002E
:1035200080B501F00F02090602EBC20200EB820334
:1035300003F13C0258BF03F51F720068114605F005
:1035400007FE80BD0000000010B5044601F00F002A
:103550000A0600EBC00104EB810205D402F51F71DD
:10356000002382F87D3204E002F13C01012382F85D
:103570003D3094F8BC240870012A01D1022010BD0E
:10358000012084F8BC04206805F04EFB002084F87C
:10359000BC0410BD00000000B0B5044601F00F00EF
:1035A0006268904201D90120B0BD090609D400EB40
:1035B000C001002304EB810202F51F7182F87D3205
:1035C00008E000EBC001012304EB810202F13C01A1
:1035D00082F83D3094F8BC2400258D70012A0870D3
:1035E00001D10220B0BD012084F8BC04206805F0A0
:1035F0006BFC284684F8BC54B0BD000000000000FD
:1036000001F00F0101EBC10100EB8100D0F8900245
:103610007047000000000000B0B5054601F00F0043
:103620000C0600EBC00105EB810C05D40CF51F71F5
:1036300000248CF87D4204E00CF13C0101248CF85C
:103640003D404C7808708A60002C0B7118BF48838D
:10365000022B01D10020487195F8BC04012801D14A
:103660000220B0BD012085F8BC04286805F010FADE
:10367000002085F8BC04B0BD80B501F00F0E0EEB44
:10368000CE0100EB810C0021CCE9A331C368CCF85A
:1036900088228CF87D12012B8CF87CE20CF51F71CE
:1036A00008BFCCF89822DAB2006805F05DFC002073
:1036B00080BD000000000000B0B5044601F00F0519
:1036C0004068854201D90120B0BD080609D401EB4C
:1036D000C100002204EB800000F51F7180F87D22FC
:1036E00008E005EBC500012204EB800000F13C017D
:1036F00080F83D2094F8BC2401208870012A0D70C8
:1037000001D10220B0BD84F8BC04206805F004FC9F
:103710002DB9217B206804F2C44205F0A5FB0020EE
:1037200084F8BC04B0BD000080B501F00F0E0EEBB4
:10373000CE0100EB810C614601F83CEF4FF0000E2A
:10374000C1F814E04FF0010E81F801E0D0F80CE070
:10375000CA60BEF1010F0B6108BFCCF858205FFAB8
:103760008EF2006805F000FC002080BD0000000023
:103770002DE9F04F83B006688246304605F094FD8F
:1037800010B103B0BDE8F08FDAF8000005F0BCFD21
:103790000028F6D0D6F80808C0F30D20CAF8FC04BB
:1037A000DAF8000005F0B0FD800705D5DAF8000072
:1037B000416901F002014161DAF8000006F5006795
:1037C00005F0A2FDC00640D5DAF80000816921F0BD
:1037D00010018161346A04F00F05C4F343400628E8
:1037E0001CD002282BD147F6F070044027D005EBFF
:1037F000C50022090AEB80053046D5F8881205F08D
:1038000087FDD5F88802D5F8901200EB1410C5F8A2
:10381000880201EB1410C5F8900210E00AF2C441CE
:103820000822304605F074FD05EBC500C4F30A110B
:103830000AEB8000D0F890221144C0F89012DAF818
:103840000000816941F010018161DAF80000CDE9E2
:10385000017605F059FD000370D5DAF8000005F097
:103860002FFD00286AD00646029800F530654FF01B
:10387000000940F27F2400270BE000BFB9EB560F90
:1038800007F101074FEA560605F1200504F124046B
:1038900054D0F007F2D05FFA87F8DAF8000041461A
:1038A00005F02AFD8346C00710D15FEA0B7016D4DD
:1038B0005FEACB601CD45FEA8B701ED45FEA8B603A
:1038C00033D45FEA8B40D9D534E000BF0120A86033
:1038D0005046394603F0D4F95FEA0B70E8D508206A
:1038E000A8605046394603F0A3F95FEACB60E2D501
:1038F0001020A8605FEA8B70E0D50298406900064E
:1039000004D50199486840F4806048601AF80400C2
:10391000012805D1504641460AF8049000F050FABB
:103920000220A8605FEA8B60CBD52020A8605FEA08
:103930008B40A3D54FF40050A8609FE7DAF8000051
:1039400005F0E2FC400340F18780DAF8000005F062
:10395000AFFC002800F0808006460AF2C4400090C8
:10396000029800F510680AF13F0B4FF0000900279C
:103970000BE000BFB9EB560F07F101074FEA5606FF
:1039800008F120080BF1240B66D0F007F2D0FCB24E
:10399000DAF80000214605F09BFC0546C0070BD174
:1039A000280731D4E80634D4680637D4A8073AD4B7
:1039B0002806DFD54BE000BF019A07F00F00012376
:1039C00003FA00F0516B21EA00005063C8F8083098
:1039D000DAF80C00012811D1DBF80500DBF809103A
:1039E0000844CBF809004FB9DBF80D0030B9DAF81C
:1039F00000000121009A05F037FA00BF5046214629
:103A0000FFF76EFD2807CDD50820C8F80800E806A6
:103A1000CAD51020C8F808006806C7D54020C8F8E5
:103A20000800A807C4D50298394605F005FC9BF8A4
:103A30000000012805D1504621468BF8009000F087
:103A4000B7F90220C8F8080028067FF593AF504662
:103A5000394603F081F98DE7DAF8000005F054FCEF
:103A6000B0F1FF3FDDE901981ADCD9F8040020F03D
:103A70000100C9F804009AF8F404012807D10020D5
:103A80008AF8F40400215046FFF7F2FC02E05046A9
:103A900000F0AEFADAF80000416901F0004141613E
:103AA000DAF8000005F030FC00050CD5D9F8080064
:103AB000C00702D0504600F0EBFADAF80000416986
:103AC00001F400614161DAF8000005F01DFC00011D
:103AD00018D5DAF80000416901F0006141619AF8F7
:103AE000F41419B1504600F0D3FA0BE001218AF822
:103AF000F414406D0121C0F38300CAF8F804504665
:103B0000FFF7B6FCDAF8000005F0FEFBC00460D554
:103B1000D9F80400102120F00100C9F80400DAF8F7
:103B2000000005F089FBDAF80400F8B108F5106030
:103B3000DAF8041000224FF67F3300BF83600132B1
:103B400007688A4227F400170760C0F80832D0F8E7
:103B5000007227F40017C0F80072D0F8007247F026
:103B60000067C0F8007200F12000E7D3D9F81C000C
:103B700040F00110C9F81C00DAF8300040B1D9F863
:103B8000840040F00B00C9F8840009F1440008E00B
:103B9000D9F8140042F22B010843C9F8140009F1C6
:103BA000100001680AF2C44241F00B010160D9F82B
:103BB000000020F4FE60C9F800009AF80C10DAF852
:103BC000000005F051F9DAF80000416901F4805174
:103BD0004161DAF8000005F097FB80041CD5DAF8A3
:103BE000000004F0A1FFDAF8000005F04DFBCAF870
:103BF0001000DAF8004001F047FC9AF81020014666
:103C0000204605F0FDFB504600F0DAF9DAF8000036
:103C1000416901F400514161DAF8000005F074FBDC
:103C2000000708D5504600F0EBF9DAF800004169CA
:103C300001F008014161DAF8000005F065FB0006BB
:103C40001ED5D8F8180020F08000C8F81800DAF85F
:103C50000400022814D3012440F2A32507E000BF8A
:103C60000134DAF80400844205F1240508D21AF878
:103C700005000128F4D1E1B25046FFF751FCEFE70F
:103C8000DAF8000005F040FBC0022AD5DAF804009B
:103C9000022820D308F512640AF1640501260127E1
:103CA00009E000BF0137DAF80400874204F120047C
:103CB00005F124050FD22068B0F1FF3FF2DC28782F
:103CC0000128EFD147F0800005F8016CC1B25046E1
:103CD000FFF726FCE6E7DAF80000416901F48011FD
:103CE0004161DAF8000005F00FFB80023AD5DAF8FE
:103CF0000400022830D308F532600AF52971012248
:103D0000012308E00133DAF80470BB4200F120001F
:103D100001F1240120D20768B7F1FF3FF2DC0E78F1
:103D2000012EEFD1DAF8FC6407F4803706F00106C3
:103D3000B742E7D101F8012CD8F8187047F0800796
:103D4000C8F81870D8F814703F06DBD4D9F804000E
:103D500040F40070C9F80400DAF80000416901F489
:103D600000114161DAF8000005F0CEFA400008D5F4
:103D70005046FFF7ADFBDAF80000416901F08041E1
:103D80004161DAF8000005F0BFFA40077FF5F9ACB1
:103D9000DAF800004468600702D55046FFF7B8FB28
:103DA000DAF8000041682143416003B0BDE8F08FBC
:103DB00080B5D0F8080504F053FB80BD000000007A
:103DC00080B5D0F8080504F05FFB80BD000000005E
:103DD0002DE9F04F8BB0002800F08780044605687D
:103DE00090F8BD0428B9002084F8BC04204600F0F7
:103DF00093F8032084F8BD04E86BC00501D40020CB
:103E0000E060206805F028F820680A9004F1040EAC
:103E100004F11C0AD4E90C509EE80E589AE8C00739
:103E2000CDE9085003A88DE8005880E8C0070A983B
:103E300004F08AFE002855D120680021002505F0F5
:103E40008FFA6168C1B1616801200023002200BFC0
:103E500003EBC30304EB8307D3B287F83C200132A2
:103E6000A7F85630D3B287F83D00994287F8405002
:103E70007D64BD64FD64EBD8B1B100200023002255
:103E800003EBC30304EB830787F87C220132D3B230
:103E900087F87D02994287F88002C7F88402C7F844
:103EA0008802C7F88C02EBD804F1140E04F1240A3E
:103EB0002268A0680A90D4E903379EE840589AE83F
:103EC0000007D4E90C50CDE9085002A8CDE90076EE
:103ED00080E8005805A880E8000710460A9A04F018
:103EE0000BFF30B1022084F8BD0401200BB0BDE807
:103EF000F08F002084F83800012084F8BD04606A47
:103F0000012802D12046FFF79FFA206804F0E4FE62
:103F100000200BB0BDE8F08FB0B5B8B0044602A8E1
:103F2000C0210025CDE93655CDE934553395FCF750
:103F3000D6F900212068C4F20801884201D038B0C7
:103F4000B0BD4FF4802002904FF48010249002A85E
:103F5000039500F065FC08B1FDF70EF900F0D8F804
:103F600044F2D84433A9C5F60204A06840F0010029
:103F7000A060A06800F00100019001984FF4C050CB
:103F80003390022034900020CDE935000A2037908C
:103F90000020C5F60200FFF777F82068002140F006
:103FA000006020602068002200F00060019001980D
:103FB0006520FFF735FA6520FFF72EFA38B0B0BD5F
:103FC00010B50446006918B1022803D1012104E0AC
:103FD000002102E0FDF7D0F80121D4F8080504F033
:103FE000CBFAD4F8080504F077FA10BD0000000001
:103FF00080B5D0F8080504F0A3FA80BD00000000E9
:1040000080B5D0F8080504F0A7FA80BD00000000D4
:1040100010B5044690F8BC04012801D1022010BD5F
:10402000012084F8BC0484F83810206805F0CCF92D
:10403000002084F8BC0410BD80B5D0F8082500F23B
:10404000C441104604F0A4FA80BD00000000000046
:1040500010B5044690F8BC04012801D1022010BD1F
:104060002068012184F8BC14C16BC90506D4A16A7B
:10407000012903D1816B41F48031816305F0ACF8F3
:10408000206804F019FE002084F8BC0410BD000074
:1040900010B50446D0F8080504F0B6FA2068D0F848
:1040A000001E41F00101C0F8001E206A002808BF70
:1040B00010BD4EF61050CEF20000016841F006012E
:1040C000016010BD00000000B0B544F60C05C5F657
:1040D000020529684907296805D401F00701081A73
:1040E00018BF0120B0BD21F0070108432860FFF789
:1040F000BBF8044655F8080C800407D4FFF7B4F861
:10410000001BB0F57A7FF5D90120B0BD0020B0BD0D
:1041100044F60C00C5F60200016841F080710160B0
:10412000704700000000000080B501F0ADF944F2D6
:1041300020414AF6B832C5F60201C0F6000209680D
:10414000C1F30211515C01F01F01C84080BD0000A5
:1041500080B544F2304EC5F6020E5EF8083C5EF8BB
:10416000081CC1F3051C5EF8041CBCF1000FDEF84E
:10417000042016D0C2F3CC0201F00101514303F038
:104180000303022B00EE101AB8EE400A0ED0012BEA
:104190000FD01BB95EF8301C89060DD49FED341A80
:1041A00018E000218160C0E9001180BD9FED2F1A49
:1041B00010E09FED2D1A0DE05EF8301C49F2000270
:1041C000C0F2D032C1F3C10122FA01F101EE101A9E
:1041D000B8EE411ADEF800109FED263A6FF35F212A
:1041E00002EE101ADEF80010C1F34621B8EE422AA2
:1041F00000EE032A00EE10CAB7EE003AB8EE400A0D
:1042000081EE000A32EE031A02EE101AB8EE422ACC
:1042100020EE010A32EE031A80EE011ABCEEC11A3A
:1042200080ED001ADEF80010C1F3064101EE101A0D
:10423000B8EE411A31EE031A80EE011ABCEEC11A33
:1042400080ED011ADEF80010C1F3066101EE101ACC
:10425000B8EE411A31EE031A80EE010ABCEEC00A34
:1042600010EE101A816080BD0024744A20BCBE4B41
:104270000024744C0000003980B544F2384EC5F675
:10428000020E5EF8103C5EF8101CC1F3053C5EF8AF
:104290000C1CBCF1000FDEF8042014D0C1F3001197
:1042A000C2F3CC02514300EE101A03F003010229BD
:1042B000B8EE400A0CD071B95EF8381C89060DD4EE
:1042C0009FED341A18E000218160C0E9001180BD23
:1042D0009FED2F1A10E09FED2D1A0DE05EF8381CAF
:1042E00049F20002C0F2D032C1F3C10122FA01F159
:1042F00001EE101AB8EE411ADEF800109FED263AD2
:104300006FF35F2102EE101ADEF80010C1F34621B0
:10431000B8EE422A00EE032A00EE10CAB7EE003AC9
:10432000B8EE400A81EE000A32EE031A02EE101ACD
:10433000B8EE422A20EE010A32EE031A80EE011A8C
:10434000BCEEC11A80ED001ADEF80010C1F3064180
:1043500001EE101AB8EE411A31EE031A80EE011A7E
:10436000BCEEC11A80ED011ADEF80010C1F306613F
:1043700001EE101AB8EE411A31EE031A80EE010A6E
:10438000BCEEC00A10EE101A816080BD0024744A91
:1043900020BCBE4B0024744C00000039000000001B
:1043A00080B544F2404EC5F6020E5EF8183C5EF849
:1043B000181CC1F3055C5EF8141CBCF1000FDEF89C
:1043C000042014D0C1F30021C2F3CC02514300EE0B
:1043D000101A03F003010229B8EE400A0CD071B99B
:1043E0005EF8401C89060DD49FED341A18E00021B8
:1043F0008160C0E9001180BD9FED2F1A10E09FED94
:104400002D1A0DE05EF8401C49F20002C0F2D032D5
:10441000C1F3C10122FA01F101EE101AB8EE411AFE
:10442000DEF800109FED263A6FF35F2102EE101ABE
:10443000DEF80010C1F34621B8EE422A00EE032A4E
:1044400000EE10CAB7EE003AB8EE400A81EE000A5C
:1044500032EE031A02EE101AB8EE422A20EE010ADA
:1044600032EE031A80EE011ABCEEC11A80ED001A7A
:10447000DEF80010C1F3064101EE101AB8EE411A41
:1044800031EE031A80EE011ABCEEC11A80ED011A5A
:10449000DEF80010C1F3066101EE101AB8EE411A01
:1044A00031EE031A80EE010ABCEEC00A10EE101ABB
:1044B000816080BD0024744A20BCBE4B0024744C33
:1044C000000000390000000080B584B0024641F6CB
:1044D000FF7300209B1A70EB010329DB40F2FF33CE
:1044E0009B1A70EB01034FDA82F480630B4300F0F8
:1044F000AD8082F400630B4300F0BB8082F48052F5
:10450000114340F07A8144F20041C5F60201086D82
:10451000C0F30232042A00F25D8148F20000C0F2CA
:10452000BB00DFE812F0B900E000E7006A01F0002C
:1045300047F6FF739B1A70EB010343DA82F40043E2
:104540000B4300F0AD8082F480330B4300F0C08059
:1045500082F40022114340F0508144F20040C5F63D
:104560000200816D01F44031B1F5003F00F01A8185
:10457000B1F5803F00F02281002940F02B810068D6
:10458000000140F12781B1E082F480730B4335D004
:1045900082F40072114340F0308144F20041C5F6CC
:1045A0000201086DC0F38212042A00F2138148F25E
:1045B0000000C0F2BB00DFE812F06F0096009D0023
:1045C0002001A60082F400530B432CD082F48042D9
:1045D000114340F0128144F20040C5F60200816DA3
:1045E000C1F30271052900F2F580DFE801F003ACA8
:1045F000B3BAC86AFFF798FD04B080BD44F2004129
:10460000C5F60201086D00F00702042A00F2E280FC
:1046100048F20000C0F2BB00DFE812F03E00650087
:104620006C00EF00750044F20040C5F60200016D19
:10463000C1F30241052900F2CD80DFE801F00384D7
:104640008B92A04200F048FF04B080BD44F20041CC
:10465000C5F60201886DC0F34252042A00F2BA8006
:1046600048F20000C0F2BB00DFE802F0163D44C78C
:104670004D0044F20041C5F60201886DC0F30262AC
:10468000042A00F2A78048F20000C0F2BB00DFE875
:1046900002F0032A31B43A00086880017CD499E022
:1046A00044F20040C5F60200016D01F04051B1F145
:1046B000005F00F08C80B1F1805F6AD0002940F08B
:1046C0008980006847F640018003C0F27D115CE0FC
:1046D00044F20040C5F60200C16C0068C9032CD446
:1046E000800177D558E00868000173D501A8FFF76D
:1046F000C3FD05E0086880006CD501A8FFF750FEF7
:10470000019804B080BDC86C0B6810F04052086876
:1047100002D113F0040328D1B2F1805F02D110F46A
:10472000807060D1086810F400301CBF47F640006C
:10473000C0F27D10B2F1005F6BE000014AD501A824
:10474000FFF79AFD40E00068000143D501A8FFF79C
:1047500093FD24E0006880003CD501A8FFF720FE0F
:104760001DE00168490735D50068C0F3C10049F272
:104770000001C0F2D03121FA00F004B080BD006821
:1047800040F60011C005C0F23D0101EAE07004B03E
:1047900080BD006880011DD501A8FFF7D9FC0298F3
:1047A00004B080BDC16C036811F04051026814D19F
:1047B00013F0040311D0C2F3C100D8E700688000F1
:1047C00008D501A8FFF7ECFD039804B080BD006890
:1047D00000010ED4002004B080BDB1F1805F0ED185
:1047E00012F480720BD040F60010C0F23D0004B00D
:1047F00080BD01A8FFF740FD029804B080BD0068AD
:1048000010F400301CBF47F64000C0F27D10B1F13B
:10481000005F18BF002004B080BD00000000000051
:104820002DE9F04381B00446C07844F22C490007DA
:10483000C5F6020901D400252EE0A06E4FEA3050E3
:1048400003280DD80025DFE800F0020E1714D9F870
:104850000000002540F40030C9F8000055B913E00D
:1048600001253DB910E004F10800022102F04CFBE3
:1048700005464DB1A84611E004F12800022102F0DE
:10488000D3FB0546002DF5D1D9F82400A16E20F404
:1048900040100843C9F824004FF000086078C007B2
:1048A00030D0A06D042807D8DFE800F00A131C03FD
:1048B0000300FDB1A84625E00125002DFAD119E03D
:1048C000D9F8000040F40030C9F80000002DF1D103
:1048D00010E004F10800002102F016FB0546002D4F
:1048E000E8D107E004F12800002102F09DFB054615
:1048F000002DDFD1D9F82400A16D20F00700084376
:10490000C9F824006078800732D5E06D4FEAB01016
:10491000042807D8DFE800F00A131C030300FDB1E8
:10492000A84625E00125002DFAD119E0D9F80000AC
:1049300040F40030C9F80000002DF1D110E004F17E
:104940000800002102F0E0FA0546002DE8D107E05A
:1049500004F12800002102F067FB0546002DDFD19D
:10496000D9F82400E16D20F4E0700843C9F8240070
:104970006078400734D5D4F8A8004FEA7050042876
:1049800007D8DFE800F00A131C030300FDB1A846B6
:1049900026E00125002DFAD119E0D9F8000040F4F5
:1049A0000030C9F80000002DF1D110E004F108003A
:1049B000002102F0A9FA0546002DE8D107E004F134
:1049C0002800002102F030FB0546002DDFD1D9F888
:1049D0002C00D4F8A81020F460000843C9F82C007B
:1049E0006078000734D5D4F8AC004FEA3060042872
:1049F00007D8DFE800F00A131C030300FDB1A84646
:104A000026E00125002DFAD119E0D9F8000040F484
:104A10000030C9F80000002DF1D110E004F10800C9
:104A2000002102F071FA0546002DE8D107E004F1FB
:104A30002800002102F0F8FA0546002DDFD1D9F850
:104A40002C00D4F8AC1020F0E0600843C9F82C002A
:104A5000E078800728D5E06C4FEA3010032806D8AC
:104A6000DFE800F002091202B5B1A8461CE00125FA
:104A7000002DFAD110E0D9F8000040F40030C9F858
:104A80000000002DF1D107E004F10800022102F03E
:104A90003BFA0546002DE8D1D9F82000E16C20F062
:104AA00030000843C9F820006078C00632D5206E77
:104AB0004FEA3030042807D8DFE800F00A131C035F
:104AC0000300FDB1A84625E00125002DFAD119E02B
:104AD000D9F8000040F40030C9F80000002DF1D1F1
:104AE00010E004F10800002102F00EFA0546002D46
:104AF000E8D107E004F12800002102F095FA05460C
:104B0000002DDFD1D9F82400216E20F4E0400843C5
:104B1000C9F824006078800626D5606E4FEA3040E0
:104B2000052807D8DFE800F0030A100303039DB14E
:104B3000A84619E00125002DFAD10DE004F1080086
:104B4000012102F0E1F904E004F12800012102F062
:104B50006BFA0546002DEBD1D9F82400616E20F4E4
:104B6000E0200843C9F824006078400628D5D4F82E
:104B7000B0004FEA3070052807D8DFE800F0030ADC
:104B8000100303039DB1A8461AE00125002DFAD1B8
:104B90000DE004F10800012102F0B6F904E004F18F
:104BA0002800012102F040FA0546002DEBD1D9F88A
:104BB0002C00D4F8B01020F0E0400843C9F82C00D5
:104BC0006078000620D5206FD8B1B0F1005F12D018
:104BD000B0F1805F25D1D9F8000040F40030C9F869
:104BE000000085B9D9F82400216F20F04050084317
:104BF000C9F8240008E004F10800012102F084F95A
:104C00000546002DEED0A846E078C0072AD0A06C5B
:104C100003280AD8DFE800F0020D1602D5B1A84635
:104C200020E00125002DEED1DCE70125002DF6D195
:104C300010E0D9F8000040F40030C9F80000002D61
:104C4000EDD107E004F10800022102F05DF905460C
:104C5000002DE4D1D9F82000A16C20F00300084316
:104C6000C9F82000A078400642D5D9F8D40340F412
:104C70008070C9F8D403FEF7F7FA0646D9F8D403D2
:104C8000C00505D4FEF7F0FA801B6528F6D303258E
:104C90006DBBD9F84410D4F8B400414011F4407F02
:104CA00011D0D9F84410D9F8442042F48032C9F820
:104CB0004420D9F8442021F4407122F48032C9F80C
:104CC0004420C9F84410B0F5807F0FD1FEF7CCFA2C
:104CD000064641F2893700BFD9F84400800705D461
:104CE000FEF7C2FA801BB842F6D3032585B1A84669
:104CF0002078C00742D0E06F4FEAF000052823D8A3
:104D0000DFE800F003262C0303037DB3A84635E05B
:104D10004FF6CF73D4F8B40059F81C2CC0F2FF033F
:104D200000F4407122F47C5203EA1013B1F5407F85
:104D300008BF1A436FF31F3049F81C2CD9F84410F0
:104D40000843C9F84400D3E70125002DDED10DE06A
:104D500004F10800012102F0D7F804E004F1280072
:104D6000012102F061F90546002DCFD1D9F82800C4
:104D7000E16F20F038000843C9F828002078800748
:104D800024D5A06F052807D8DFE800F0030A100338
:104D900003039DB1A84619E00125002DFAD10DE0CD
:104DA00004F10800012102F0AFF804E004F128004A
:104DB000012102F039F90546002DEBD1D9F8280080
:104DC000A16F20F007000843C9F8280020784007A9
:104DD00026D5D4F89400052807D8DFE800F0030AA8
:104DE000100303039DB1A8461AE00125002DFAD156
:104DF0000DE004F10800012102F086F804E004F15E
:104E00002800012102F010F90546002DEBD1D9F858
:104E10002C00D4F8941020F007000843C9F82C00A7
:104E20002078800628D5D4F890004FEA3070052805
:104E300007D8DFE800F0030A100303039DB1A8467A
:104E40001AE00125002DFAD10DE004F1080000213F
:104E500002F05AF804E004F12800022102F0E4F81C
:104E60000546002DEBD1D9F82800D4F8901020F099
:104E7000E0400843C9F828002078400628D5D4F837
:104E80009C004FEAB020052807D8DFE800F0030AAD
:104E9000100303039DB1A8461AE00125002DFAD1A5
:104EA0000DE004F10800002102F02EF804E004F106
:104EB0002800022102F0B8F80546002DEBD1D9F800
:104EC0002C00D4F89C1020F4E0500843C9F82C00C2
:104ED0002078000628D5D4F8A0004FEA70300528C5
:104EE00007D8DFE800F0030A100303039DB1A846CA
:104EF0001AE00125002DFAD10DE004F1080000218F
:104F000002F002F804E004F12800022102F08CF81B
:104F10000546002DEBD1D9F82C00D4F8A01020F4D0
:104F200060400843C9F82C002078000716D5D4F853
:104F30008400B0F5805F08D104F12800022102F05E
:104F400073F8002818BF4FF00108D9F82800D4F8EA
:104F5000841020F440500843C9F828002078C00687
:104F600016D5D4F89800B0F5807F08D104F1280058
:104F7000022102F059F8002818BF4FF00108D9F8B3
:104F80002C00D4F8981020F440700843C9F82C0085
:104F9000A078000722D5D4F8A400B0F5003F1AD0BD
:104FA000B0F5803F11D0C8BB04F10800002101F02A
:104FB000ABFF05468DB9D9F82C00D4F8A41020F425
:104FC00040300843C9F82C0008E004F12800022111
:104FD00002F02AF80546002DEDD0A846A07840073B
:104FE00029D5D4F88800B0F5401F21D0B0F5001FB6
:104FF00018D0B0F5801F40F0BF80D9F8000040F411
:105000000030C9F80000ADB9D9F82800D4F88810EC
:1050100020F440100843C9F828000CE00125002DB9
:10502000DBD1C8E704F12800012101F0FDFF0546AE
:10503000002DE9D0A846A078C00720D0206DB0F59B
:10504000803F10D0B8B9D9F8000040F40030C9F85A
:1050500000009DB9D9F82000216D20F4803008436C
:10506000C9F820000BE004F10800022101F04CFF18
:1050700005461DB9EEE70125002DEBD0A846E078E6
:10508000800608D504F12800022101F0CDFF002898
:1050900018BF4FF00108D4E900108A037BD5D4F87B
:1050A00080206FF0010303EB3223022B0AD34FEA77
:1050B00032233BB1012B64D1D9F8003043F40033E3
:1050C000C9F80030002D5FD0CA0267D4CA006FD47F
:1050D0008A0279D44A0000F18280B1F1FF3F40F3A7
:1050E0008F80090200F19780C00707D004F1080003
:1050F000002101F009FF002818BF0546207980072C
:1051000007D504F10800012101F0FEFE002818BFB8
:1051100005462079400707D504F10800022101F077
:10512000F3FE002818BF05462079000707D504F1D3
:105130002800002101F078FF002818BF05462079DB
:10514000C00607D504F12800012101F06DFF0028F9
:1051500018BF05462079800607D504F128000221F2
:1051600001F062FF002818BF0125002D18BF01259E
:10517000284601B0BDE8F0830125002D7FF45AAF29
:1051800042E70125002D9FD1D9F8283023F4407340
:105190001A43C9F828204546CA0297D5D9F82420D1
:1051A000636F22F000421A43C9F82420CA008FD549
:1051B00059F81C2CD4F8B83022F480421A4349F82C
:1051C0001C2C8A027FF586AFD9F82420E36E22F0EA
:1051D00080721A43C9F824204A007FF57EAF59F83F
:1051E0001C2C22F4004249F81C2CD4F8BC2059F89D
:1051F0001C3C1A4349F81C2CB1F1FF3F3FF771AF3B
:10520000D9F82020636D22F040521A43C9F82020BB
:1052100009027FF569AFD9F82810D4F88C2021F461
:1052200040011143C9F82810C0077FF45FAF65E75C
:105230002DE9F04381B0002800F0F48042F200082C
:105240000446C5F200288946D8F8000000F00F0097
:1052500088420ED2D8F8000020F00F0040EA090082
:10526000C8F80000D8F8000000F00F00484540F0F2
:10527000D980206844F218474107C5F602070AD5CD
:1052800021693A6802F07002914204D93A6822F02A
:1052900070021143396001070AD561697A6802F02A
:1052A0007002914204D97A6822F070021143796049
:1052B000C1060AD5A1697A6802F4E062914204D974
:1052C0007A6822F4E0621143796081060AD5E169C7
:1052D000BA6802F07002914204D9BA6822F07002F2
:1052E0001143B96081070AD5E1683A6802F00F02FC
:1052F000914204D93A6822F00F0211433960C00785
:105300007ED1206881070AD5E1683A6802F00F0271
:10531000914204D23A6822F00F0211433960D8F862
:10532000001001F00F0149450DD9D8F8001021F007
:105330000F0141EA0901C8F80010D8F8001001F087
:105340000F0149456ED141070AD521693A6802F03B
:105350007002914204D23A6822F07002114339601F
:1053600001070AD561697A6802F07002914204D29D
:105370007A6822F0700211437960C1060AD5A169EA
:105380007A6802F4E062914204D27A6822F4E06220
:105390001143796080060AD5E069B96801F07001AF
:1053A000884204D2B96821F070010843B86000F067
:1053B000A7F839684AF6B832C0F600023B68C1F374
:1053C000032103F00F03515CD25C01F01F01C840C0
:1053D00002F01F0140F2280220FA01F1C2F200425D
:1053E000116040F2240140F20C12C2F20041C2F2FC
:1053F000004208601068FDF783FF01B0BDE8F0834C
:10540000386820F47061D4E90102012841EA020100
:1054100039600BD003282BD002282ED157F8181C46
:10542000890307D4012001B0BDE8F08357F8181CA8
:10543000C905F7D557F8081C21F00701084347F8BC
:10544000080CFDF711FF064641F2883557F8080CA5
:10545000616800F03800B0EBC10F3FF452AFFDF7C8
:1054600003FF801BA842F1D9032001B0BDE8F083FF
:1054700057F8181C8901D5D5DCE757F8181C4907DF
:10548000D0D5D7E70000000080B500F039F844F22D
:1054900018414AF6B833C5F60201C0F600030A689F
:1054A000096801F00F01C2F30322595C9A5C02F013
:1054B0001F0220FA02F201F01F0040F2280122FA36
:1054C00000F0C2F20041086040F22401C2F2004143
:1054D0000A6080BD0000000080B5FFF7D5FF44F2F0
:1054E0001C414AF6B832C5F60201C0F6000209684E
:1054F000C1F30211515C01F01F01C84080BD0000E2
:1055000044F20041C5F602010869C0F3C200032855
:105510000FD002282AD070BB0868800649F200002C
:10552000C0F2D03058BF70470968C1F3C101C8400C
:1055300070478A6A886AC0F3051CC86ABCF1000F0C
:105540004B6B1DD0C3F3CC0300F00100584302F0B5
:105550000302022A00EE100AB8EE400A12D0A2B9E5
:105560000868800614D49FED261A1EE047F6400016
:10557000C0F27D10704740F60010C0F23D00704749
:10558000002070479FED1D1A0FE09FED1B1A0CE0E5
:10559000086849F20002C0F2D032C0F3C10022FA1A
:1055A00000F001EE100AB8EE411A086B9FED153AB3
:1055B0006FF35F2002EE100A086BC0F34620B8EECE
:1055C000422A013000EE032A00EE10CAB7EE003A7C
:1055D000B8EE400A81EE000A32EE031A20EE010A0C
:1055E00001EE100AB8EE411A80EE010ABCEEC00AC4
:1055F00010EE100A704700BF0024744A20BCBE4B56
:105600000024744C000000392DE9F04381B0F8B15A
:105610008046007844F20049C007C5F602095AD016
:10562000D9F8100000F03801D9F82800102905D069
:1056300018290FD100F0030002280BD1D9F800007F
:10564000800344D5D8F80400002840D101272FE07A
:10565000012718E3D8F804402CB1B4F5A02F0DD0E1
:10566000B4F5803F10D0D9F8000020F48030C9F89C
:105670000000D9F8000020F4802009E0D9F80000EB
:1056800040F48020C9F80000D9F8000040F48030D0
:10569000C9F80000FDF7E8FD0546A4B1D9F80000FF
:1056A000800314D4FDF7E0FD401B6428F6D90327DE
:1056B0000020002800F0E7820DE000BFFDF7D4FDD8
:1056C000401B6428F3D8D9F800008003F6D40120E9
:1056D000002800F0D88298F80000800740F184800C
:1056E000D9F8100010F03801D9F828001CD018297A
:1056F00008BF5FEA807017D0D8F80C00D9F8001006
:10570000002847D021F019010843C9F80000FDF72F
:10571000ABFD0546D9F8000040072AD4FDF7A4FDEB
:10572000401B0228F6D91EE0D9F80000400704D536
:10573000D8F80C00002800F09681D9F80000D8F8BD
:105740000C1020F019000843C9F80000FDF78CFD8B
:10575000054600BFD9F8000040070AD4FDF784FDD4
:10576000401B0228F6D903270024002C00F08B826E
:105770003AE0FDF771FD41F20301884223D8D8F8E1
:105780001000D9F80410402821F47C3124D141F4D0
:10579000003023E021F00100C9F80000FDF764FDAE
:1057A00005460126D9F8000010F0040086EA9004AE
:1057B00017D0FDF759FD401B0328F3D30327002C16
:1057C00000F0618210E0D9F80400D8F8101020F041
:1057D000FE4040EA016001E041EA0030C9F80400FF
:1057E0000124002C00F04F8298F80000C00674D508
:1057F000D9F8100000F03801D9F82800082905D0A0
:1058000018291CD100F00300012818D1D9F8000094
:10581000C00503D5D8F81C00802859D1FDF71CFD20
:1058200041F20301884222D8D8F82000D9F80410A8
:10583000202821F0F84142D141F0804041E0D8F8E1
:105840001C000028D9F8000020D040F08000C9F8E2
:105850000000FDF709FD0546D9F80000C005DDD4BC
:10586000FDF702FD401B0228F6D9032731E0D9F8E5
:105870000C00D8F8201020F07C50012440EA016090
:10588000C9F80C00002C00F0FE8126E020F080001A
:10589000C9F80000FDF7E8FC05460126D9F800002C
:1058A00010F4807086EA10240ED0FDF7DDFC401B5A
:1058B0000328F3D30327002C00F0E5810DE041EA33
:1058C0008060C9F804000124002C00F0DC8104E0B1
:1058D00001270024002C00F0D68198F80000000772
:1058E0001CD498F80000800631D498F800004007D6
:1058F00045D4D8F82440002C00F09180D9F810004D
:1059000000F03800182840F08C80012CD9F82810BD
:10591000D9F8300040F0A9800127B4E1D8F814008C
:105920000028D9F874003ED040F00100C9F8740096
:10593000FDF79AFC054600BFD9F874008007D0D463
:10594000FDF792FC401B0228F6D903279BE1D8F80B
:1059500018000028D9F800004DD040F48050C9F854
:105960000000FDF781FC0546D9F800008004BCD496
:10597000FDF77AFC401B0228F6D9032783E1D9F80A
:10598000000440F48070C9F80004FDF76DFC054682
:10599000D9F80004C0051AD4FDF766FC401B642842
:1059A000F6D903276FE120F00100C9F87400FDF774
:1059B0005BFC0546032700BFD9F8740080077FF51C
:1059C00090AFFDF751FC401B0228F5D95BE1D8F8F8
:1059D00008402CB1052C00F08280012C00F085805D
:1059E000D9F8700020F00100C9F87000D9F87000F3
:1059F00020F004007DE020F48050C9F80000FDF79D
:105A000033FC0546032700BFD9F8000080047FF56A
:105A10006CAFFDF729FC401B0228F5D933E10027C4
:105A200031E1D9F8000020F08070C9F80000FDF7DE
:105A30001BFC022C05464FF0030709D1D9F80000E2
:105A4000800178D5FDF710FC401B0228F6D91AE139
:105A5000D9F80000800140F1E780FDF705FC401B0C
:105A60000228F5D90FE101277EE601F00302D8F8FC
:105A700028309A4240F0DA80C1F30511D8F82C2082
:105A8000914240F0D7800146D8F830206FF35F2173
:105A9000013A914240F0D080C0F34622D8F8341049
:105AA00001398A4240F0CA80C0F30642D8F8381063
:105AB00001398A4240F0C480C0F30660D8F83C1037
:105AC0000139884240F0BE80D9F83400D8F8481037
:105AD000C0F3CC00814240F0B7800027D3E0D9F872
