:020000040800F2
:10000000F0040024AD0200088127000861250008E3
:1000100079270008B9030008093A00080000000029
:10002000000000000000000000000000E12A0008BD
:10003000E90300080000000099280008192B0008B7
:10004000C7020008C7020008C7020008C70200086C
:10005000C7020008C7020008C7020008C70200085C
:10006000C7020008C7020008C7020008C70200084C
:10007000C7020008C7020008C7020008C70200083C
:10008000C7020008C7020008C7020008C70200082C
:10009000C7020008C7020008C7020008C70200081C
:1000A000C7020008C7020008C7020008C70200080C
:1000B000C7020008C7020008C7020008C7020008FC
:1000C000C7020008C7020008C7020008C7020008EC
:1000D000C7020008C7020008C7020008C7020008DC
:1000E000C7020008C702000800000000C70200089D
:1000F000C7020008C7020008C7020008C7020008BC
:10010000C7020008C7020008C7020008C7020008AB
:10011000C7020008C7020008C7020008C70200089B
:10012000C7020008C7020008C7020008C70200088B
:10013000C7020008C7020008C7020008C70200087B
:1001400000000000000000000000000000000000AF
:10015000C7020008C7020008C7020008C70200085B
:10016000C7020008C7020008C7020008C70200084B
:10017000C7020008C7020008C7020008C70200083B
:10018000C7020008C7020008C7020008C70200082B
:10019000C7020008C7020008C7020008C70200081B
:1001A000C7020008C7020008C7020008C70200080B
:1001B000C7020008C7020008C7020008C7020008FB
:1001C000C7020008C7020008C7020008C7020008EB
:1001D000C7020008C7020008C7020008C7020008DB
:1001E000C7020008C7020008C7020008C7020008CB
:1001F000C7020008C7020008C7020008C7020008BB
:10020000C7020008C7020008C7020008C7020008AA
:10021000C7020008C7020008C7020008C70200089A
:10022000C7020008C7020008C7020008000000005B
:10023000C7020008C702000800000000C70200084B
:10024000C7020008C7020008C7020008C70200086A
:10025000C7020008C7020008C7020008C70200085A
:10026000C7020008C7020008C7020008C70200084A
:10027000C7020008C7020008C7020008000000000B
:10028000C7020008C7020008C702000800000000FB
:1002900000000000C7020008DFF80CD000F07AF878
:1002A00000480047693A0008F004002406488047E7
:1002B00006480047FEE7FEE7FEE7FEE7FEE7FEE74B
:1002C000FEE7FEE7FEE7FEE7E12B000899020008E3
:1002D0002DE9F05F0546002092469B46884606467B
:1002E000814640241BE0284641464746224600F00E
:1002F00041F853465A46C01A914110D31146184648
:10030000224600F028F82D1A67EB01084F462246D6
:100310000120002100F01FF817EB00094E41201EBC
:10032000A4F10104DFDC484631462A464346BDE8D5
:10033000F09FD2B201E000F8012B491EFBD27047BA
:100340000022F6E710B513460A4604461946FFF7A1
:10035000F0FF204610BD202A04DB203A00FA02F10B
:10036000002070479140C2F1200320FA03F31943A3
:1003700090407047202A04DB203A21FA02F0002145
:10038000704721FA02F3D040C2F1200291400843A5
:1003900019467047064C074D06E0E06840F001033F
:1003A00094E8070098471034AC42F6D3FFF778FF83
:1003B000F83A0008183B0008FEE7000000000000C3
:1003C0004EF6FC50CEF20000016841F080710160F1
:1003D00041F200000021CEF200004160016841F0CE
:1003E000010101607047000070470000000000003C
:1003F000EFF3108072B600BFFEE7000000000000BF
:100400002DE9F04F83B00C68002C00F0C68000F19D
:10041000264242F2004702F1FF72C5F602074FEA98
:10042000B22201920A22B84208BF09220025002701
:100430004FF0010A009209E00C68043734FA0AF21E
:100440000AF1010A05F1020500F0A780AAF10109ED
:10045000012202FA09FE14EA0E08EDD0D1F804B028
:100460000BF00304A4F1010CBCF1010F11D803221D
:100470008668AA40CB6826EA0202AB401A43826033
:10048000CBF30013426822EA0E0203FA09F31A437F
:100490004260032C1ED00323C268AB40022C22EA28
:1004A00003028B6803FA05F342EA0302C26011D12A
:1004B0006FF0030207F01C0602EA59020F23024400
:1004C00003FA06F4D2F820C00B692CEA0404B34006
:1004D0002343136203230268AB404E689A4306F03D
:1004E0000303AB4016F4403F42EA03020260A3D08C
:1004F00044F2F44340F2084EC5F60203C5F6000E7E
:100500001A6842F002021A601A6807F00C0302F03F
:1005100002020292029A29F00302019C009E092C19
:1005200038BF26460F2452F80EC09C402CEA040423
:1005300006FA03F34FF0B04C234342F80E30DCF8D8
:1005400000204B6842EA0806DC0258BF22EA08068F
:100550009C02CCF8006040F2040CC5F6000CDCF8FC
:10056000002042EA080658BF22EA08069C03CCF89D
:100570000060DCF8802042EA080658BF22EA08063C
:10058000DB03CCF88060DCF87C2042EA080658BF28
:1005900022EA0806CCF87C604EE703B0BDE8F08F95
:1005A000002A08BF090481617047000000000000B4
:1005B00041F20000C5F600400068000C70470000E2
:1005C00040F2EC00C2F200400068704700000000FA
:1005D00040F2080040F2EC01C2F20040C2F20041D9
:1005E00000780A68104408607047000000000000AE
:1005F00080B5032000F0CCF801F05AF844F218411D
:1006000043F6C023C5F60201C0F600030A68096874
:1006100001F00F01C2F30322595C9A5C01F01F0143
:1006200002F01F02D04040F20402C2F2004220FA5F
:1006300001F1116040F20001C2F2004108600F2098
:1006400000F00AF800281CBF012080BD00F080F8EF
:10065000002080BD00000000B0B540F20801C2F2E9
:100660000041097801B3044640F20000C2F20040A4
:100670004FF47A72B2FBF1F10068B0FBF1F001F0D7
:10068000AFFB0F2C4FF001050CD858B94FF0FF30DD
:1006900000222146002500F06BF840F20C00C2F267
:1006A000004004602846B0BD0120B0BD000000003D
:1006B000B0B502784EF69C5CCEF2000C43784CF854
:1006C000043CF2B14368CCF80030037BC17A90F867
:1006D0000AE0457B447A42EA0372837B42EA016185
:1006E000C27B41EACE41007A41EA854141EA434179
:1006F00041EA024141EA042141EA4000CCF8040009
:10070000B0BD0020CCF80000CCF80400B0BD000063
:100710004EF62450CEF20000BFF35F8F016821F443
:100720008031016000210167704700000000000077
:100730004EF6245140F00100CEF20001086708682F
:1007400040F480300860BFF34F8FBFF36F8F704766
:1007500081B044F2F440C5F60200016841F00201A4
:100760000160006800F002000090009801B070473E
:1007700070B514460D46064603F04AF9294622464E
:1007800002F002F80146304603F04AF970BD00005D
:1007900080B503F059F980BDB0B544F60C05C5F637
:1007A000020529684907296805D401F00701081ADC
:1007B00018BF0120B0BD21F0070108432860FFF7F2
:1007C000FFFE044655F8080C800407D4FFF7F8FE36
:1007D000001BB0F57A7FF5D90120B0BD0020B0BD77
:1007E00080B500F015FF44F2204143F6C022C5F663
:1007F0000201C0F600020968C1F30211515C01F068
:100800001F01C84080BD000080B544F2384EC5F6D7
:10081000020E5EF8103C5EF8101CC1F3053C5EF859
:100820000C1CBCF1000FDEF8042014D0C1F3001141
:10083000C2F3CC02514300EE101A03F00301022967
:10084000B8EE400A0CD071B95EF8381C89060DD498
:100850009FED341A18E000218160C0E9001180BDCD
:100860009FED2F1A10E09FED2D1A0DE05EF8381C59
:1008700049F20002C0F2D032C1F3C10122FA01F103
:1008800001EE101AB8EE411ADEF800109FED263A7C
:100890006FF35F2102EE101ADEF80010C1F346215B
:1008A000B8EE422A00EE032A00EE10CAB7EE003A74
:1008B000B8EE400A81EE000A32EE031A02EE101A78
:1008C000B8EE422A20EE010A32EE031A80EE011A37
:1008D000BCEEC11A80ED001ADEF80010C1F306412B
:1008E00001EE101AB8EE411A31EE031A80EE011A29
:1008F000BCEEC11A80ED011ADEF80010C1F30661EA
:1009000001EE101AB8EE411A31EE031A80EE010A18
:10091000BCEEC00A10EE101A816080BD0024744A3B
:1009200020BCBE4B0024744C0000003900000000C5
:1009300080B544F2404EC5F6020E5EF8183C5EF8F3
:10094000181CC1F3055C5EF8141CBCF1000FDEF846
:10095000042014D0C1F30021C2F3CC02514300EEB5
:10096000101A03F003010229B8EE400A0CD071B945
:100970005EF8401C89060DD49FED341A18E0002162
:100980008160C0E9001180BD9FED2F1A10E09FED3E
:100990002D1A0DE05EF8401C49F20002C0F2D03280
:1009A000C1F3C10122FA01F101EE101AB8EE411AA9
:1009B000DEF800109FED263A6FF35F2102EE101A69
:1009C000DEF80010C1F34621B8EE422A00EE032AF9
:1009D00000EE10CAB7EE003AB8EE400A81EE000A07
:1009E00032EE031A02EE101AB8EE422A20EE010A85
:1009F00032EE031A80EE011ABCEEC11A80ED001A25
:100A0000DEF80010C1F3064101EE101AB8EE411AEB
:100A100031EE031A80EE011ABCEEC11A80ED011A04
:100A2000DEF80010C1F3066101EE101AB8EE411AAB
:100A300031EE031A80EE010ABCEEC00A10EE101A65
:100A4000816080BD0024744A20BCBE4B0024744CDD
:100A500000000039000000002DE9F04381B0044699
:100A6000C07844F22C490007C5F6020901D40026DB
:100A70002DE0606E4FEA305003280DD80026DFE8E5
:100A800000F0020E1613D9F80000002640F40030E2
:100A9000C9F800004EB912E0012636B90FE0201D5A
:100AA000022101F0FDFE06464EB1B04611E004F110
:100AB0002400022101F084FF0646002EF5D1D9F86A
:100AC0002400616E20F440100843C9F824004FF060
:100AD00000086078C0072FD0606D042807D8DFE8D1
:100AE00000F00A131B030300F6B1B04624E0012610
:100AF000002EFAD118E0D9F8000040F40030C9F80F
:100B00000000002EF1D10FE0201D002101F0C8FEF1
:100B10000646002EE9D107E004F12400002101F08F
:100B20004FFF0646002EE0D1D9F82400616D20F079
:100B300007000843C9F824006078800731D5A06D0C
:100B40004FEAB010042807D8DFE800F00A131B03AF
:100B50000300F6B1B04624E00126002EFAD118E0D9
:100B6000D9F8000040F40030C9F80000002EF1D19F
:100B70000FE0201D002101F093FE0646002EE9D172
:100B800007E004F12400002101F01AFF0646002EC0
:100B9000E0D1D9F82400A16D20F4E0700843C9F831
:100BA00024006078400733D5D4F8A4004FEA705091
:100BB000042807D8DFE800F00A131B030300F6B18E
:100BC000B04625E00126002EFAD118E0D9F8000041
:100BD00040F40030C9F80000002EF1D10FE0201DD4
:100BE000002101F05DFE0646002EE9D107E004F188
:100BF0002400002101F0E4FE0646002EE0D1D9F8E1
:100C00002C00D4F8A41020F460000843C9F82C008C
:100C10006078000733D5D4F8A8004FEA3060042884
:100C200007D8DFE800F00A131B030300F6B1B04653
:100C300025E00126002EFAD118E0D9F8000040F492
:100C40000030C9F80000002EF1D10FE0201D002176
:100C500001F026FE0646002EE9D107E004F124004B
:100C6000002101F0ADFE0646002EE0D1D9F82C009F
:100C7000D4F8A81020F0E0600843C9F82C00E07810
:100C8000800727D5A06C4FEA3010032806D8DFE88C
:100C900000F002091202AEB1B0461BE00126002EA0
:100CA000FAD10FE0D9F8000040F40030C9F8000094
:100CB000002EF1D106E0201D022101F0F1FD0646D3
:100CC000002EE9D1D9F82000A16C20F030000843B3
:100CD000C9F820006078C00631D5E06D4FEA3030A9
:100CE000042807D8DFE800F00A131B030300F6B15D
:100CF000B04624E00126002EFAD118E0D9F8000011
:100D000040F40030C9F80000002EF1D10FE0201DA2
:100D1000002101F0C5FD0646002EE9D107E004F1EF
:100D20002400002101F04CFE0646002EE0D1D9F847
:100D30002400E16D20F4E0400843C9F82400607805
:100D4000800625D5206E4FEA3040052807D8DFE819
:100D500000F0030A0F03030396B1B04618E0012622
:100D6000002EFAD10CE0201D012101F099FD04E0D4
:100D700004F12400012101F023FE0646002EECD1EF
:100D8000D9F82400216E20F4E0200843C9F824009B
:100D90006078400627D5D4F8AC004FEA30700528BB
:100DA00007D8DFE800F0030A0F03030396B1B0464B
:100DB00019E00126002EFAD10CE0201D012101F0DE
:100DC0006FFD04E004F12400012101F0F9FD064665
:100DD000002EECD1D9F82C00D4F8AC1020F0E04073
:100DE0000843C9F82C00607800061FD5E06ED0B12A
:100DF000B0F1005F12D0B0F1805F24D1D9F80000CB
:100E000040F40030C9F800007EB9D9F82400E16E42
:100E100020F040500843C9F8240007E0201D0121BC
:100E200001F03EFD0646002EEFD0B046E078C00748
:100E300029D0606C03280AD8DFE800F0020D160202
:100E4000CEB1B0461FE00126002EEED1DDE701262F
:100E5000002EF6D10FE0D9F8000040F40030C9F8B8
:100E60000000002EEDD106E0201D022101F018FD4A
:100E70000646002EE5D1D9F82000616C20F0030071
:100E80000843C9F82000A078400643D5D9F8D40318
:100E900040F48070C9F8D403FFF792FB074600BF07
:100EA000D9F8D403C00505D4FFF78AFBC01B652819
:100EB000F6D303266EBBD9F84410D4F8B0004140F5
:100EC00011F4407F11D0D9F84410D9F8442042F4ED
:100ED0008032C9F84420D9F8442021F4407122F42A
:100EE0008032C9F84420C9F84410B0F5807F0FD192
:100EF000FFF766FB074641F2893500BFD9F8440089
:100F0000800705D4FFF75CFBC01BA842F6D303267D
:100F100086B1B0462078C00741D0A06F4FEAF000FC
:100F2000052823D8DFE800F003262B03030376B35C
:100F3000B04634E04FF6CF73D4F8B00059F81C2C0B
:100F4000C0F2FF0300F4407122F47C5203EA101354
:100F5000B1F5407F08BF1A436FF31F3049F81C2CCE
:100F6000D9F844100843C9F84400D3E70126002EFD
:100F7000DED10CE0201D012101F092FC04E004F11F
:100F80002400012101F01CFD0646002ED0D1D9F825
:100F90002800A16F20F038000843C9F82800207805
:100FA000800723D5606F052807D8DFE800F0030A23
:100FB0000F03030396B1B04618E00126002EFAD1C4
:100FC0000CE0201D012101F06BFC04E004F1240081
:100FD000012101F0F5FC0646002EECD1D9F82800DD
:100FE000616F20F007000843C9F828002078400707
:100FF00025D5D4F89000052807D8DFE800F0030ACB
:101000000F03030396B1B04619E00126002EFAD172
:101010000CE0201D012101F043FC04E004F1240058
:10102000012101F0CDFC0646002EECD1D9F82C00B0
:10103000D4F8901020F007000843C9F82C0020785D
:10104000800627D5D4F88C004FEA3070052807D8E1
:10105000DFE800F0030A0F03030396B1B04619E07E
:101060000126002EFAD10CE0201D002101F018FC11
:1010700004E004F12400022101F0A2FC0646002E47
:10108000ECD1D9F82800D4F88C1020F0E0400843C7
:10109000C9F828002078400627D5D4F898004FEAF0
:1010A000B020052807D8DFE800F0030A0F03030388
:1010B00096B1B04619E00126002EFAD10CE0201DB1
:1010C000002101F0EDFB04E004F12400022101F015
:1010D00077FC0646002EECD1D9F82C00D4F89810F5
:1010E00020F4E0500843C9F82C002078000627D5EA
:1010F000D4F89C004FEA7030052807D8DFE800F0EC
:10110000030A0F03030396B1B04619E00126002E2F
:10111000FAD10CE0201D002101F0C2FB04E004F133
:101120002400022101F04CFC0646002EECD1D9F837
:101130002C00D4F89C1020F460400843C9F82C001F
:101140002078000716D5D4F88000B0F5805F08D16C
:1011500004F12400022101F033FC002818BF4FF0F5
:101160000108D9F82800D4F8801020F44050084332
:10117000C9F828002078C00616D5D4F89400B0F538
:10118000807F08D104F12400022101F019FC00281D
:1011900018BF4FF00108D9F82C00D4F8941020F4AF
:1011A00040700843C9F82C00A078000721D5D4F876
:1011B000A000B0F5003F19D0B0F5803F10D0C0BB03
:1011C000201D002101F06CFB06468EB9D9F82C00D9
:1011D000D4F8A01020F440300843C9F82C0008E0EF
:1011E00004F12400022101F0EBFB0646002EEDD0B5
:1011F000B046A078400729D5D4F88400B0F5401F48
:1012000021D0B0F5001F18D0B0F5801F40F0C1808C
:10121000D9F8000040F40030C9F80000AEB9D9F8A0
:101220002800D4F8841020F440100843C9F828009E
:101230000CE00126002EDBD1C8E704F124000121D7
:1012400001F0BEFB0646002EE9D0B046A078C007EC
:101250001FD0E06CB0F5803F10D0B0B9D9F80000D5
:1012600040F40030C9F8000096B9D9F82000E16CCC
:1012700020F480300843C9F820000AE0201D022134
:1012800001F00EFB06461EB9EFE70126002EECD05A
:10129000B046E078800608D504F12400022101F070
:1012A0008FFB002818BF4FF00108206881031ED46F
:1012B000C10234D4C1003CD4810245D441004DD494
:1012C000B0F1FF3F5ADD000208D5D9F82800D4F864
:1012D000881020F440000843C9F82800B8F1000F36
:1012E00018BF4FF00108404601B0BDE8F083E16F40
:1012F0006FF0010202EB3122022A0AD34FEA3122B7
:101300003AB1012A4AD1D9F8002042F40032C9F892
:101310000020002E45D04FF00108C102CAD5D9F8EF
:101320002410226F21F000411143C9F82410C1009C
:10133000C2D559F81C1CD4F8B42021F480411143C3
:1013400049F81C1C8102B9D5D9F82410A26E21F0ED
:1013500080711143C9F824104100B1D559F81C1C03
:1013600021F4004149F81C1CD4F8B81059F81C2C81
:10137000114349F81C1CB0F1FF3FA4DCD9F8201040
:10138000226D21F040511143C9F820100002A5D56B
:101390009BE70126002E7FF458AF40E70126002E80
:1013A000B9D1D9F8282022F440721143C9F8281085
:1013B000C1027FF57FAFB2E72DE9F04381B000288D
:1013C00000F0F48042F200080446C5F20028894685
:1013D000D8F8000000F00F0088420ED2D8F80000C4
:1013E00020F00F0040EA0900C8F80000D8F800001B
:1013F00000F00F00484540F0D980206844F21847BB
:101400004107C5F602070AD521693A6802F0700261
:10141000914204D93A6822F0700211433960010701
:101420000AD561697A6802F07002914204D97A683B
:1014300022F0700211437960C1060AD5A1697A6869
:1014400002F4E062914204D97A6822F4E062114326
:10145000796081060AD5E169BA6802F070029142AA
:1014600004D9BA6822F070021143B96081070AD525
:10147000E1683A6802F00F02914204D93A6822F01A
:101480000F0211433960C0077ED1206881070AD559
:10149000E1683A6802F00F02914204D23A6822F001
:1014A0000F0211433960D8F8001001F00F014945CF
:1014B0000DD9D8F8001021F00F0141EA0901C8F850
:1014C0000010D8F8001001F00F0149456ED1410716
:1014D0000AD521693A6802F07002914204D23A6852
:1014E00022F070021143396001070AD561697A68F8
:1014F00002F07002914204D27A6822F07002114325
:101500007960C1060AD5A1697A6802F4E062914265
:1015100004D27A6822F4E0621143796080060AD529
:10152000E069B96801F07001884204D2B96821F01D
:1015300070010843B86000F0BBF8396843F6C02278
:10154000C0F600023B68C1F3032103F00F03515CB6
:10155000D25C01F01F01C84002F01F0140F20402FA
:1015600020FA01F1C2F20042116040F2000140F2A3
:101570000C02C2F20041C2F2004208601068FFF79C
:101580006BF801B0BDE8F083386820F47061D4E9ED
:101590000102012841EA020139600BD003282BD057
:1015A00002282ED157F8181C890307D4012001B056
:1015B000BDE8F08357F8181CC905F7D557F8081C83
:1015C00021F00701084347F8080CFEF7F9FF06462B
:1015D00041F2883557F8080C616800F03800B0EB2C
:1015E000C10F3FF452AFFEF7EBFF801BA842F1D9C9
:1015F000032001B0BDE8F08357F8181C8901D5D548
:10160000DCE757F8181C4907D0D5D7E700000000E1
:1016100080B500F04DF844F2184143F6C023C5F6FA
:101620000201C0F600030A68096801F00F01C2F365
:101630000322595C9A5C02F01F0220FA02F201F0C8
:101640001F0040F2040122FA00F0C2F200410860DB
:1016500040F20001C2F200410A6080BD00000000BB
:1016600080B5FFF7D5FF44F21C4143F6C022C5F612
:101670000201C0F600020968C1F30211515C01F0D9
:101680001F01C84080BD000080B5FFF7C1FF44F2D4
:101690001C4143F6C022C5F60201C0F600020968EB
:1016A000C1F30221515C01F01F01C84080BD000060
:1016B00044F20041C5F602010869C0F3C2000328E4
:1016C0000FD002282AD070BB0868800649F20000BB
:1016D000C0F2D03058BF70470968C1F3C101C8409B
:1016E00070478A6A886AC0F3051CC86ABCF1000F9B
:1016F0004B6B1DD0C3F3CC0300F00100584302F044
:101700000302022A00EE100AB8EE400A12D0A2B973
:101710000868800614D49FED261A1EE047F64000A4
:10172000C0F27D10704740F60010C0F23D007047D7
:10173000002070479FED1D1A0FE09FED1B1A0CE073
:10174000086849F20002C0F2D032C0F3C10022FAA8
:1017500000F001EE100AB8EE411A086B9FED153A41
:101760006FF35F2002EE100A086BC0F34620B8EE5C
:10177000422A013000EE032A00EE10CAB7EE003A0A
:10178000B8EE400A81EE000A32EE031A20EE010A9A
:1017900001EE100AB8EE411A80EE010ABCEEC00A52
:1017A00010EE100A704700BF0024744A20BCBE4BE4
:1017B0000024744C000000392DE9F04381B0F8B1E9
:1017C0008046007844F20049C007C5F602095AD0A5
:1017D000D9F8100000F03801D9F82800102905D0F8
:1017E00018290FD100F0030002280BD1D9F800000E
:1017F000800344D5D8F80400002840D101272FE009
:10180000012735E2D8F804402CB1B4F5A02F0DD053
:10181000B4F5803F10D0D9F8000020F48030C9F82A
:101820000000D9F8000020F4802009E0D9F8000079
:1018300040F48020C9F80000D9F8000040F480305E
:10184000C9F80000FEF7BCFE0546A4B1D9F80000B7
:10185000800314D4FEF7B4FE401B6428F6D9032796
:101860000020002800F004820DE000BFFEF7A8FE73
:10187000401B6428F3D8D9F800008003F6D4012077
:10188000002800F0F58198F80000800740F184807E
:10189000D9F8100010F03801D9F828001CD0182908
:1018A00008BF5FEA807017D0D8F80C00D9F8001094
:1018B000002847D021F019010843C9F80000FEF7BD
:1018C0007FFE0546D9F8000040072AD4FEF778FECF
:1018D000401B0228F6D91EE0D9F80000400704D5C5
:1018E000D8F80C00002800F09181D9F80000D8F851
:1018F0000C1020F019000843C9F80000FEF760FE44
:10190000054600BFD9F8000040070AD4FEF758FE8C
:10191000401B0228F6D903270024002C00F0A881E0
:101920003AE0FEF745FE41F20301884223D8D8F899
:101930001000D9F80410402821F47C3124D141F45E
:10194000003023E021F00100C9F80000FEF738FE66
:1019500005460126D9F8000010F0040086EA90043C
:1019600017D0FEF72DFE401B0328F3D30327002CCE
:1019700000F07E8110E0D9F80400D8F8101020F0B3
:10198000FE4040EA016001E041EA0030C9F804008D
:101990000124002C00F06C8198F80000C00674D57A
:1019A000D9F8100000F03801D9F82800082905D02E
:1019B00018291CD100F00300012818D1D9F8000023
:1019C000C00503D5D8F81C00802859D1FEF7F0FDDA
:1019D00041F20301884222D8D8F82000D9F8041037
:1019E000202821F0F84142D141F0804041E0D8F870
:1019F0001C000028D9F8000020D040F08000C9F871
:101A00000000FEF7DDFD0546D9F80000C005DDD475
:101A1000FEF7D6FD401B0228F6D9032731E0D9F89E
:101A20000C00D8F8201020F07C50012440EA01601E
:101A3000C9F80C00002C00F01B8126E020F080008B
:101A4000C9F80000FEF7BCFD05460126D9F80000E4
:101A500010F4807086EA10240ED0FEF7B1FD401B12
:101A60000328F3D30327002C00F002810DE041EAA4
:101A70008060C9F804000124002C00F0F98004E023
:101A800001270024002C00F0F38098F800000007E4
:101A90001CD498F80000800631D498F80000400764
:101AA00045D4D8F82440002C00F0E180D9F810008B
:101AB00000F03800182840F08880012CD9F8281050
:101AC000D9F8300040F0A4800127D1E0D8F8140004
:101AD0000028D9F874003ED040F00100C9F8740025
:101AE000FEF76EFD054600BFD9F874008007D0D41C
:101AF000FEF766FD401B0228F6D90327B8E0D8F8A8
:101B000018000028D9F800004BD040F48050C9F8E4
:101B10000000FEF755FD0546D9F800008004BCD44E
:101B2000FEF74EFD401B0228F6D90327A0E0D9F8A6
:101B3000000440F48070C9F80004FEF741FD05463A
:101B4000D9F80004C0051AD4FEF73AFD401B6428FA
:101B5000F6D903278CE020F00100C9F87400FEF7E5
:101B60002FFD0546032700BFD9F8740080077FF5D5
:101B700090AFFEF725FD401B0228F5D978E0D8F894
:101B800008401CB1052C77D0012C7BD0D9F870000F
:101B900020F00100C9F87000D9F8700020F00400AE
:101BA00074E020F48050C9F80000FEF709FD0546F6
:101BB000032700BFD9F8000080047FF56EAFFEF761
:101BC000FFFC401B0228F5D952E0D9F8000020F0B4
:101BD0008070C9F80000FEF7F3FC022C05464FF0B8
:101BE000030709D1D9F80000800171D5FEF7E8FCA0
:101BF000401B0228F6D93BE0D9F80000800136D519
:101C0000FEF7DEFC401B0228F6D931E0012783E60F
:101C100001F00302D8F828309A4240F0D380C1F393
:101C20000511D8F82C20914240F0CE800146D8F81A
:101C300030206FF35F21013A914240F0C780C0F33A
:101C40004622D8F8341001398A4240F0C180C0F3EE
:101C50000642D8F8381001398A4240F0BB80C0F300
:101C60000660D8F83C100139884240F0B580002762
:101C7000F8B201B0BDE8F083D9F8700040F004007C
:101C8000C9F87000D9F8700040F00100C9F8700080
:101C9000FEF796FC002C054641F288344FF003070E
:101CA00011D000BFD9F8700080073FF5FAAEFEF7FB
:101CB00087FC401BA042F5D9DAE700BFFEF780FCA5
:101CC000401BA042D4D8D9F870008007F6D4E8E6CB
:101CD00008F12807D9F8280040F2F33188438ECF65
:101CE0000843591E40EA02104FF47E426FF35F2111
:101CF000C9F8280002EB47204FF4FE0280B2D8F862
:101D00003C300844D8F8381002EB01414FF0FE4255
:101D100001F4FE0102EB0362084402F0FE410844B4
:101D2000C9F83000D9F82C004FF6F87120F0010006
:101D3000C9F82C00D9F83400D8F84820884340EA84
:101D4000C200C9F83400D9F82C00D8F8401020F0AF
:101D50000C000843C9F82C00D9F82C00D8F844101E
:101D600020F002000843C9F82C00D9F82C0040F4F8
:101D70008030C9F82C00D9F82C0040F40030C9F8A4
:101D80002C00D9F82C0040F48020C9F82C00D9F898
:101D90002C0040F00100C9F82C00D9F8000040F0F8
:101DA0008070C9F80000FEF70BFC04460327D9F841
:101DB000000080013FF55BAFFEF702FC001B02282C
:101DC000F5D955E7012753E7012751E701274FE7E9
:101DD00001274DE701274BE7012749E700000000F5
:101DE00080B500F081FE80BD10B590F83C20012A3E
:101DF00001D1022010BDCB6848F2FF7ED1E901C2BB
:101E000023F47C5322F47052CFF6F07E1A430CEA8E
:101E10000E03D1F800C042EA030E2CF477230A69BE
:101E200043EA0E0322F47622D0F800E01A434B690D
:101E30001A434EF4806322F4742C40F20042C4F240
:101E400001028C6993428A6A22F470224FF00103E6
:101E500042EA0C0280F83C3042EA044310D140F2DE
:101E6000000C23F07C724B6ACFF6F04CCC690CEA84
:101E700003531A4324F00073096A1A4342EA010328
:101E80000021CEF8443080F83C10084610BD000018
:101E9000B0B590F83C20012A4FF002025CD001233B
:101EA00080F83C3080F83D2040F2004C0268C4F2DB
:101EB000010C42F4806363455368D2F808E002BF26
:101EC00023F470034C68234341F2FF740D68C4F29D
:101ED000000423F07003A24243EA050353600BDCC5
:101EE00040F2FF73C4F200039A4215DCB2F1804F56
:101EF00027D040F2004317E040F2FF33C4F2010361
:101F00009A4216DC41F60003C4F200039A4218D04C
:101F10000023C4F2010309E040F60003C4F2000309
:101F20009A420ED040F60043C4F200039A4208D011
:101F30000CE044F20003C4F201039A4201D062456E
:101F400004D12EF080038968194391600022012199
:101F500080F83D1080F83C201046B0BD0000000025
:101F600080B586B000220068C4F2010200219042D0
:101F70000591CDE903110291019101D006B080BD18
:101F800044F2E040C5F60200026842F0010202603D
:101F9000006800F00100009000984FF480700190FC
:101FA0000220CDE902010120059000200491C5F630
:101FB000020001A9FEF724FA06B080BD000000006F
:101FC000B0B5044690F83C00012801D10220B0BD14
:101FD0000D464FEAB20105294FF0010084F83C009C
:101FE00048D8DFE801F0030B131B23332068294690
:101FF00000F00EFF206850F8181F1EE020682946E8
:1020000000F06AFF206850F8181F26E02068294673
:1020100000F0BAFF206850F81C1F0EE02068294627
:1020200001F00AF8206850F81C1F16E020682946C5
:1020300001F046F8206850F8541F41F00801016093
:10204000016821F00401016029690FE02068294638
:1020500001F07AF8206850F8541F41F400610160E3
:10206000016821F480610160296909020268114355
:1020700001600020002184F83C10B0BD0000000089
:1020800060B310B5044690F83D0028B9002084F8EC
:102090003C00204600F024F8022084F83D0020682F
:1020A000211D00F005FE012084F8480084F83E0060
:1020B00084F83F0084F8400084F8410084F842002E
:1020C00084F8430084F8440084F8450084F846000E
:1020D00084F8470084F83D00002010BD01207047BF
:1020E00081B000210068C4F20101884201D001B032
:1020F000704744F2F040C5F60200016841F001016A
:102100000160006800F001000090009801B0704785
:1021100010B5044659B1081F4FEAB000032809D88A
:10212000DFE800F0020B0E1104F13F000DE004F1B6
:102130003E000AE004F1430007E004F1400004E03F
:1021400004F1410001E004F14200007801280DD1C2
:1021500071B1081F4FEAB00003280DD8DFE800F086
:1021600002101418022084F83F0014E0012010BD72
:10217000022084F83E000EE0022084F843000AE0CA
:10218000022084F8400006E0022084F8410002E0CA
:10219000022084F842002068012200F029FE4FF658
:1021A000FF702168C4F20000814216DC40F2FF702B
:1021B000C4F20000814240DD40F60000C4F200009D
:1021C000814267D040F60040C4F20000814261D0F5
:1021D00041F60000C4F200005AE043F6FF70C4F27A
:1021E000010081420EDD44F20000C4F20100814290
:1021F00013D044F60000C4F2010081420DD044F235
:10220000004006E00020C4F20100814205D040F207
:102210000040C4F20100814248D141F2FF704A6C93
:10222000C4F20000814242F4004048640DDC40F2F8
:10223000FF70C4F20000814215DCB1F1804F29D05B
:1022400040F20040C4F2000022E040F2FF30C4F24D
:102250000100814212DC41F60000C4F2000081421C
:1022600018D0002012E040F60000C4F200008142C5
:1022700010D040F60040C4F2000009E044F2000033
:10228000C4F20100814205D040F20040C4F20100D6
:1022900081420BD107228868C0F20102024000206F
:1022A000062A18BFB2F5803F00D110BD086840F083
:1022B00001000860002010BDB0B50446006800228F
:1022C0000D4600F095FD43F6FF712068C4F2010150
:1022D00088420EDD44F20001C4F20101884213D0AD
:1022E00044F60001C4F2010188420DD044F20041DD
:1022F00006E00021C4F20101884205D040F200410D
:10230000C4F2010188420DD1016A41F21112114259
:1023100008D1016A40F24442114203D1416C21F4D8
:1023200000414164016A41F21112114208D1016A6F
:1023300040F24442114203D1016821F001010160E1
:102340004FEAB500042809D8DFE800F0030D1217A2
:102350001C00012084F83E000020B0BD012084F85C
:1023600043000020B0BD012084F83F000020B0BD34
:10237000012084F840000020B0BD012084F8410015
:102380000020B0BD012084F842000020B0BD000054
:1023900090F88010012901D1022070472421C0F853
:1023A000841002681368116823F0005321F00101C2
:1023B00011600021416613602022C0F8842080F85B
:1023C0008010084670470000B0B5044690F88000C1
:1023D000012801D10220B0BD012084F88000242012
:1023E000C4F8840020680568026822F001020260D7
:1023F000826822F0606211438160204600F0F4FEA2
:10240000206805602020C4F88400002084F8800043
:10241000B0BD000000000000B0B5044690F8800098
:10242000012801D10220B0BD012084F880002420C1
:10243000C4F8840020680568026822F00102026086
:10244000826822F0604211438160204600F0CCFE99
:10245000206805602020C4F88400002084F88000F3
:10246000B0BD00000000000010B5B0B10446D0F8C7
:10247000840028B9002084F88000204600F028F865
:102480002420C4F884002068016821F00101016063
:10249000204600F07DFF012801D1012010BDA06A77
:1024A00010B1204600F0CCFE2068416821F4904134
:1024B0004160816821F02A018160016841F00101D9
:1024C0000160204600F02CFF10BD0000000000005D
:1024D000B0B5B6B0044602A8BC210025CDE93455FC
:1024E000CDE932553195FDF72BFF41F2000120680F
:1024F000C4F20101884201D036B0B0BD0120029083
:1025000002A82095FEF7A8FA08B1FDF771FF44F282
:10251000E040C5F60200016941F010010161016966
:1025200001F0100101910199016841F00101016080
:10253000006831A900F00100019001984FF4C060DB
:102540003190022032900020CDE9330007203590F1
:102550000020C5F60200FDF753FF36B0B0BD000005
:10256000FEE700000000000010B584B00024CDE9B3
:102570000244CDE90044FEF7CBF80120ADF800009D
:1025800048F21F70029040F20110039068460194D7
:10259000FEF78EF80420FEF7CBF804B010BD000063
:1025A000F0B587B044F2E0400025C5F6020006957C
:1025B000CDE90455CDE90255016840F6000441F02B
:1025C000010101600168C5F6020401F001010191F9
:1025D0000199016841F0040101600168012201F0E4
:1025E000040101910199016841F0800101600068D6
:1025F0004FF4005100F080000190019820464FF404
:1026000000560127FDF7CCFF02A92046CDE902675D
:10261000CDE90475FDF7F4FE07B0F0BD0000000041
:1026200010B596B001A82C210024CDE91444CDE9C1
:102630001244CDE91044CDE90E44CDE90C44FDF738
:102640007FFE40F210000021C2F20040C4F20101FE
:10265000C0E9001484604FF6FF71C0E90314C0E9BB
:102660000544FFF70DFD08B1FDF7C2FE40F2100072
:1026700013A9C2F200401594CDE91344FFF708FCFA
:1026800008B1FDF7B5FE60200C9000240220CDE9D2
:102690000E044FF480700CA9CDE9110440F2100033
:1026A0000022C2F200400D941094FFF789FC08B19B
:1026B000FDF79EFE4FF4005001A9CDE906044FF04E
:1026C00000700594CDE9090440F210000894C2F2AC
:1026D00000400B94CDE90344CDE90144FFF784FBAE
:1026E00008B1FDF785FE40F21000C2F20040FFF78E
:1026F00037FC16B010BD000080B540F25C0041F21E
:102700000001C2F20040C4F201010C2201604FF44A
:10271000E13141600021C0E902110161C0E90521F8
:10272000C0E90711C0E90911FFF79EFE08B1FDF7E6
:102730005FFE40F25C000021C2F20040FFF76CFE39
:1027400008B1FDF755FE40F25C000021C2F20040E6
:10275000FFF73AFE08B1FDF74BFE40F25C00C2F213
:102760000040FFF715FE002808BF80BDFDF740FEC2
:1027700080BD000000000000FEE700000000000037
:10278000FEE700000000000000F007004FF0FF3CF3
:1027900080F00703042B28BF0423033838BF002030
:1027A0000CFA03F399430CFA00F301FA00F022EA61
:1027B00003010843704700004FEAB101052938D8EA
:1027C0002DE9F04383B00446056840F200009146CD
:1027D000C2F20040984600684708DFE801F00306AF
:1027E000090C0F1205F134060DE005F138060AE078
:1027F00005F13C0607E005F1400604E005F1580646
:1028000001E005F15C0600212046FFF755FD05F1CA
:10281000280305F12C00CDE900063846494642461A
:1028200000F00AF800212046FFF772FC03B0BDE873
:10283000F04370470000000010B540F6B83C029C21
:1028400061454FF0010C38BF4FF0640C6429DDF88E
:102850000CE038BF42F2107CB0FBFCF0B0FBF1F0B2
:102860004243C3F800C041F2597C2060CDF2B71C4E
:10287000A2FB0C21480BCEF8000018680138186044
:10288000206801382060DEF800000138CEF8000032
:1028900010BD0000000000007047000000000000B4
:1028A000F0B581B044F22C47C5F6020757F8042C66
:1028B00002F00302032A02D1012001B0F0BD054657
:1028C00057F82C0C0C4620F0806047F82C0CFDF7D4
:1028D00077FE064657F82C0C000105D5FDF770FE73
:1028E000801B0228F6D964E057F8040CEE6895E8DE
:1028F0000E0020F47C30012C40EA0130A2F10101ED
:102900006FF35F214FF47E4202EB432247F8040C41
:1029100092B24FF0FE4302EB01004FF4FE012A6930
:1029200001EB064101F4FE0103EB0262084402F0F0
:10293000FE410844F8603868696920F0C00040EA48
:10294000010038603868A96920F0200040EA0100E1
:10295000386038684FF6F87120F010003860386938
:10296000EA6920EA01004FF4001140EAC200386130
:10297000386808BF4FF4801140F01000002C386018
:1029800008BF4FF4002138680843386057F82C0C12
:1029900040F0806047F82C0CFDF712FE044600BFA3
:1029A00057F82C0C000107D4FDF70AFE001B032882
:1029B000F6D3032001B0F0BD002001B0F0BD00004F
:1029C000F0B581B044F22C47C5F6020757F8042C45
:1029D00002F00302032A02D1012001B0F0BD054636
:1029E00057F82C0C0C4620F0805047F82C0CFDF7C3
:1029F000E7FD064657F82C0C800005D5FDF7E0FDF5
:102A0000801B0228F6D964E057F8040CEE6895E8BC
:102A10000E0020F07C70012C40EA0150A2F101016F
:102A20006FF35F214FF47E4202EB432247F8040C20
:102A300092B24FF0FE4302EB01004FF4FE012A690F
:102A400001EB064101F4FE0103EB0262084402F0CF
:102A5000FE41084478613868696920F4406040EAC2
:102A6000010038603868A96920F4007040EA01006C
:102A7000386038684FF6F87120F480703860B869B3
:102A8000EA6920EA01004FF0807140EAC200B861B3
:102A9000386808BF4FF4000140F48070002C3860A3
:102AA00008BF4FF4800138680843386057F82C0C91
:102AB00040F0805047F82C0CFDF782FD044600BF23
:102AC00057F82C0C800007D4FDF77AFD001B032873
:102AD000F6D3032001B0F0BD002001B0F0BD00002E
:102AE0007047000000000000B0B501380024B4EBCE
:102AF000106F01D00120B0BD4EF210050F21CEF2B3
:102B0000000568604FF0FF3000F08AFFAC600720DE
:102B100028602046B0BD000080B5FDF759FD80BD9E
:102B2000B0B59CB044F6180409A84C21C5F60204BF
:102B3000FDF706FC02200025CDE90755CDE9055536
:102B4000CDE90355CDE90155FDF726FE0095206836
:102B500040F440402060206800F44040009040F283
:102B60002C40C5F60000016841F0010101600068D9
:102B700000F001000090009820688004FCD501203E
:102B800009904FF480300A9002200521CDE912000F
:102B90001491C021CDE91510CDE9170009A808242A
:102BA00019940025CDE91A55FEF706FEA0B93F207D
:102BB000019003204FF48061CDE902054020049488
:102BC000CDE90500CDE9071001A80421FEF7F4FBCB
:102BD000002804BF1CB0B0BDFDF70AFC00000000D7
:102BE0004EF6885042F2000CCEF20000C5F2002CE6
:102BF000016841F470010160DCF8000000F00F0092
:102C0000062806D8DCF80000072161F30300CCF8A1
:102C1000000044F200404EF67F52C5F60200CEF6A8
:102C2000F622016841F001010160002101610368A1
:102C30001A400260DCF80020120706D5DCF80020FC
:102C4000072363F30302CCF8002040F200228161E5
:102C5000C161C0F20222016282620022C0F2FF1250
:102C6000C26240F28022C0F20112026341638263B9
:102C7000C16302644164026822F48022026001663A
:102C800041F20000C5F600400068B1EB507F05D16D
:102C900048F208100121C5F20010016044F2000062
:102CA00043F2D201C5F2002001607047000000002D
:102CB00010B540F6FF32C4F20002904202680FDC09
:102CC000B0F1804F1DD040F20043C4F2000398429F
:102CD00017D040F60003C4F20003984211D014E06C
:102CE00040F60043C4F2000398420AD040F2004389
:102CF000C4F20103984204D00023C4F201039842B5
:102D000003D122F070024B681A434FF6FF7343F66B
:102D1000FF7CC4F20003C4F2010C984210DD604550
:102D20001ADD44F20003C4F2010398422CD044F6A9
:102D30000003C4F20103984226D044F2004312E09B
:102D400040F2FF73C4F20003984211DCB0F1804FEF
:102D50001AD040F2004313E00023C4F2010398426A
:102D600012D040F20043C4F2010398420CD00FE0AD
:102D700040F60003C4F20003984205D040F6004339
:102D8000C4F20003984203D122F44072CB681A4384
:102D900022F080024C696045D1F800E08B6842EA7D
:102DA00004020260C362C0F828E00EDD44F20002B3
:102DB000C4F20102904213D044F60002C4F20102B0
:102DC00090420DD044F2004206E00022C4F201021B
:102DD000904205D040F20042C4F20102904201D17B
:102DE000096901630121416110BD0000000000007C
:102DF00001F01F01012303FA01FC036A23EA0C031B
:102E0000036202FA01F1026A114301627047000095
:102E100070B5026A43F6FF7522F001020262036A8E
:102E20004268D0F818E08C6823F00203C4F2010570
:102E3000234344F20004D1F800C0A842C4F20104C4
:102E40000ADDA04213D044F60006C4F20106B042E7
:102E50000DD044F2004606E00026C4F20106B0425E
:102E600005D040F20046C4F20106B04205D1CE685A
:102E700023F00C0326F004063343A8420ADDA042E7
:102E800013D044F60004C4F20104A0420DD044F271
:102E9000004406E00024C4F20104A04205D040F240
:102EA0000044C4F20104A04205D122F44072D1E9E9
:102EB000054522432A434FF68C744260CFF6FE74D8
:102EC0000EEA040646EA0C02826149684163036225
:102ED00070BD00000000000070B5026A40F20046BC
:102EE00022F010020262036A4268D0F818C08C68AF
:102EF00040F48065C4F2010623F02003B54243EAA2
:102F0000041307D1CD686FF0400423F0C00304EA36
:102F100005152B4343F6FF75D1F800E0C4F2010517
:102F2000A84212DD44F20004C4F20104A04213D00E
:102F300044F60004C4F20104A0420DD044F200445F
:102F4000C4F20104A04207D00EE00024C4F2010440
:102F5000A04201D0B04207D14C6922F440628D6991
:102F600042EA840242EA850248F6FF444260CFF614
:102F7000FF640CEA040646EA0E2282614968816316
:102F8000036270BD0000000070B5026A40F20046A6
:102F900022F480720262036A4268D0F81CC08C6816
:102FA00040F48065C4F2010623F40073B54243EA9D
:102FB000042307D1CD6840F2FF442D0223F440637F
:102FC000A5432B4343F6FF75D1F800E0C4F2010599
:102FD000A84212DD44F20004C4F20104A04213D05E
:102FE00044F60004C4F20104A0420DD044F20044AF
:102FF000C4F20104A04207D00EE00024C4F2010490
:10300000A04201D0B04207D14C6922F440528D69F0
:1030100042EA041242EA05124FF68C744260CFF67F
:10302000FE740CEA040646EA0E02C2614968C163F6
:10303000036270BD00000000B0B5026A22F4805245
:10304000026243F6FF72D0F820C0C4F20102436866
:10305000C46990420A68D1F808E00EDD44F2000528
:10306000C4F20105A84213D044F60005C4F20105DC
:10307000A8420DD044F2004506E00025C4F2010547
:10308000A84205D040F20045C4F20105A84204D18F
:103090004D6923F4804343EA851348F6FF454360B6
:1030A000CFF6FF652C402CF4005544EA0222C261A1
:1030B0004968016445EA0E310162B0BD00000000BC
:1030C000B0B5026A22F48032026243F6FF72D0F891
:1030D00020C0C4F201024368446D90420A68D1F8EE
:1030E00008E00EDD44F20005C4F20105A84213D049
:1030F00044F60005C4F20105A8420DD044F2004593
:1031000006E00025C4F20105A84205D040F20045C2
:10311000C4F20105A84204D14D6923F4803343EA87
:1031200005234FF68F754360CFF6FE752C402CF4C7
:103130000035224342654968816545EA0E410162D6
:10314000B0BD000000000000B0B5026A22F4801299
:10315000026243F6FF72D0F820C0C4F20102436855
:10316000446D90420A68D1F808E00EDD44F2000593
:10317000C4F20105A84213D044F60005C4F20105CB
:10318000A8420DD044F2004506E00025C4F2010536
:10319000A84205D040F20045C4F20105A84204D17E
:1031A0004D6923F4802343EA852348F6FF75436085
:1031B000CFF6FF652C402CF4001544EA022242654C
:1031C0004968C16545EA0E510162B0BD00000000CA
:1031D00045F200000021C5F600400160C0E902117F
:1031E000012101607047000010B5416E01B3016814
:1031F00043F6E82CC0F6000C43F6F02E8A68C0F6C1
:10320000000E8968C2F342624C0F1CF802301EF8AF
:1032100002101A011EF80430B2FBF1F11CF8042070
:10322000A0F868101201B2FBF3F2A0F86A2010BDFA
:103230000121A0F86A10A0F8681010BD000000007D
:10324000816ACA070CD18A0715D44A071ED40A0717
:1032500027D4CA0630D48A0639D44A0655D541E067
:103260000268D0F82CC0536823F4003343EA0C03FF
:1032700053608A07E9D50268D0F830C0536823F458
:10328000803343EA0C0353604A07E0D50268D0F864
:1032900034C0536823F4802343EA0C0353600A07C5
:1032A000D7D50268D0F838C0536823F4004343EA06
:1032B0000C035360CA06CED50268D0F83CC09368B0
:1032C00023F4805343EA0C0393608A06C5D5026851
:1032D000D0F840C0936823F4005343EA0C03936092
:1032E0004A0612D50268D0F844C0BCF5801F536866
:1032F00023F4801343EA0C03536006D1536823F48C
:10330000C00C836C43EA0C035360090658BF704736
:103310000168C06C4A6822F400221043486070477C
:10332000B0B582B004460020C4F88C00FDF748F91F
:1033300021680546096809070AD54FF400110022E3
:103340006FF07E40009020462B4600F0E5FA70B901
:103350002068006840070DD54FF4800100226FF00F
:103360007E40009020462B4600F0D6FA10B1032094
:1033700002B0B0BD2020C4F88400C4F8880000204A
:10338000E06684F8800002B0B0BD000000000000DC
:10339000F0B583B004460368806846F6F316D4E9B6
:1033A0000312104362691043E2691F68CCF6FF768E
:1033B000104307EA06021043186058684FF2FF47AF
:1033C00020F4405240F6004011435960C5F6000019
:1033D000A1698342C1F2FF171CBF226A11439A6898
:1033E00047F2FF763A40C4F2000611439960DA6A68
:1033F00044F2544122F00F02676AC5F602013A43D3
:10340000B342DA624FF0800225DD40F6FF77C4F266
:103410000107BB423FDD834200F0718041F200476B
:10342000C4F20107BB4200F0758041F20007C4F20C
:103430000107BB4240F0A5800A68C2F3C203052B16
:1034400000F296800122DFE813F09C0091009500C5
:10345000970099009B0044F6FF37C4F20007BB4277
:1034600033DC44F20047C4F20007BB4200F05D8049
:1034700044F60007C4F20007BB4240F082800A68AD
:1034800002F00703052B00F273800022DFE803F04F
:10349000796E7274767847F60007C4F20007BB4273
:1034A00000F04E8047F60047C4F20007BB4240F0F0
:1034B00068800A6802F00703052B00F25980002299
:1034C000DFE803F05F54585A5C5E44F60047C4F2EC
:1034D0000007BB4200F03F8045F20007C4F200073E
:1034E000BB4240F04E800A6802F00703052B00F251
:1034F0003F800022DFE803F0453A3E4042444A68FC
:1035000002F00703052B33D80222DFE803F03A2F3D
:10351000333537390A68C2F3C203052B28D8012294
:10352000DFE803F02F24282A2C2E0A6802F0070374
:10353000052B1DD80022DFE803F024191D1F2123CD
:103540000A6802F00703052B12D80022DFE803F017
:10355000190E121416180A6802F00703052B07D873
:103560000022DFE803F00E0307090B0D042208E038
:10357000802206E0082204E0102202E0202200E07F
:1035800040222368834240F60010C0F23D0000F064
:103590005380E369B3F5004F40F07880402A00F291
:1035A0001A810025DFE812F041001201170117010E
:1035B0001B011701170117011F011701170117013F
:1035C000170117011701170126011701170117012C
:1035D000170117011701170117011701170117012B
:1035E00017011701170117013401170117011701FE
:1035F000170117011701170117011701170117010B
:1036000017011701170117011701170117011701FA
:1036100017011701170117011701170117011701EA
:10362000170117011701170131010025FEF718F8DE
:10363000002840F0EF8049E1931E1E2B00F27480B9
:103640000027DFE813F01F0077007A00770077008B
:1036500077007E00770077007700770077007700AB
:103660007700B80077007700770077007700770061
:103670007700770077007700770077007700770092
:10368000770083000027FDF7ABF85FE0402A00F2E7
:10369000E6800025DFE812F04100DE00E300E300F1
:1036A000E700E300E300E300EB00E300E300E300F6
:1036B000E300E300E300E300F200E300E300E300E3
:1036C000E300E300E300E300E300E300E300E300E2
:1036D000E300E300E300E3000001E300E300E300B4
:1036E000E300E300E300E300E300E300E300E300C2
:1036F000E300E300E300E300E300E300E300E300B2
:10370000E300E300E300E300E300E300E300E300A1
:10371000E300E300E300E300FD000025FDF7A0FF68
:10372000002840F0BA80D1E0402A03D14FF4004095
:1037300000270BE00020012708E06846FDF764F849
:1037400002E06846FDF7F4F80027019878B3616A53
:1037500043F6D022C0F600026668012532F8112037
:1037600006EB4603B0FBF2F19942C0F0AF803303A1
:10377000994200F2AB8000210023FCF7A9FD090269
:10378000002341EA10613246000210EB560041F17D
:103790000001FCF79DFD4FF6FF42A0F54071C0F21D
:1037A0000F02914205D821683D46C8608EE03D4633
:1037B0008CE001258AE051F8540C800649F20000A3
:1037C000C0F2D03000F18B800027BFE70025FDF765
:1037D0005BFFF8B97AE000200125D8B976E06846A9
:1037E000FDF712F802E06846FDF7A2F800250198FF
:1037F00080B96BE051F8540C800649F20000C0F229
:10380000D03073D4002528B960E04FF40040002583
:1038100000285BD0616A43F6D022C0F6000232F87D
:1038200011106268B0FBF1F0510801EB4000B0FBF1
:10383000F2F0A0F110014FF6EF72914208D84FF666
:10384000F07122680140C0F342000844D0603DE0BE
:1038500001253BE00025FDF717FFF0B936E0002019
:103860000125D0B932E06846FCF7CEFF02E0684699
:10387000FDF75EF80025019878B927E051F8540C5F
:10388000800649F20000C0F2D03039D4002520B9BA
:103890001CE04FF400400025C0B1616A43F6D0221D
:1038A000C0F6000232F811106268B0FBF1F000EBD4
:1038B0005200B0FBF2F0A0F110014FF6EF7291420E
:1038C00003D880B22168C86000E001254FF00110E4
:1038D000A0660020C4E91C00284603B0F0BD51F8E2
:1038E000541C0027C1F3C101C8402FE751F8541CF4
:1038F0000025C1F3C101C84000287FF48BAFE5E784
:1039000051F8541C0025C1F3C101C8400028C4D19E
:10391000DCE70000000000002DE9F04381B0044620
:103920000068C0690840401AB0FA80F0400990422F
:1039300064D1DDF820800D461646994608F101074E
:1039400009E000BF2068C0692840401BB0FA80F041
:103950004009B04252D1002FF4D0FCF731FEB8F14B
:10396000000F2BD0A0EB0900404527D82068016844
:10397000490744BFC1695FEA0151E3D54FF40061D3
:10398000016200BF206850E8000F216820F4D07069
:1039900041E80002002AF5D1206850E8020F2168B2
:1039A00020F0010041E80202002AF5D12020C4F8ED
:1039B0008400C4F88800C4F88C0018E0206850E83F
:1039C000000F216820F4D07041E80002002AF5D1F0
:1039D000206850E8020F216820F0010041E802024F
:1039E000002AF5D12020C4F88400C4F88800002003
:1039F00084F88000032001B0BDE8F083002001B00E
:103A0000BDE8F08300000000FEE7000000000000B9
:103A10004EF60C50CEF200000068C0F30220704752
:103A20004EF6145300F00F02CEF20003B0F1FF3F48
:103A30001A4400F16043C8BF03F5644208011070E6
:103A400070470000000000004EF60C514FF6FF03D7
:103A5000CEF200010A681A4060F30A2242F0806048
:103A600040F0FD7008607047FEF77EFDFCF7C0FD7A
:103A7000FFF756F8FEF794FDFEF73EFEFEF7D0FD89
:103A8000FFF7A6FBFCF79CFC40F210000021C2F2FD
:103A9000004044F6206241F27073FEF78DFE00BFD5
:103AA000FEE702E008C8121F08C1002AFAD17047D9
:103AB0007047002001E001C1121F002AFBD17047AE
:103AC00000000000010203040102030406070809C4
:103AD000010002000400060008000A000C001000AB
:103AE00020004000800000010101010307010000E7
:103AF0000804020408010101183B0008000000242A
:103B000010000000A23A0008283B00081000002422
:103B1000E0040000B23A00080090D0030090D00307
:083B200001000000100000008C
:040000050800029954
:00000001FF
