:020000040800F2
:1000000008740024AD020008C154000871500008B3
:10001000B9540008590F00081966000800000000D4
:100020000000000000000000000000007157000800
:10003000C910000800000000C954000879570008E2
:10004000C7020008C7020008C7020008C70200086C
:10005000C7020008C7020008C7020008C70200085C
:10006000C7020008C7020008C7020008610F0008A5
:10007000710F0008C7020008C7020008C702000885
:10008000C7020008C7020008C7020008C70200082C
:10009000C7020008C7020008C7020008C70200081C
:1000A000C7020008C7020008C7020008C70200080C
:1000B000C7020008C7020008C7020008C7020008FC
:1000C000C7020008C7020008C7020008C7020008EC
:1000D000C7020008C7020008C7020008C7020008DC
:1000E000C7020008C702000800000000C70200089D
:1000F000C7020008C7020008C7020008C7020008BC
:10010000C7020008C7020008C7020008C7020008AB
:10011000C7020008C7020008C7020008C70200089B
:10012000C7020008C7020008C7020008C70200088B
:10013000C7020008C7020008C7020008C70200087B
:1001400000000000000000000000000000000000AF
:10015000C7020008C7020008C7020008C70200085B
:10016000C7020008C7020008C7020008C70200084B
:10017000C7020008C7020008C7020008C70200083B
:10018000C7020008C7020008C7020008C70200082B
:10019000C7020008C7020008C7020008C70200081B
:1001A000C7020008C7020008C7020008C70200080B
:1001B000C7020008C7020008C7020008C7020008FB
:1001C000C7020008C7020008C7020008C7020008EB
:1001D000C7020008C7020008C7020008C7020008DB
:1001E000C7020008C7020008C7020008C7020008CB
:1001F000C7020008C7020008C7020008C7020008BB
:10020000C7020008C7020008C7020008C7020008AA
:10021000C7020008C7020008C7020008C70200089A
:10022000C7020008C7020008C7020008000000005B
:10023000C7020008C702000800000000C70200084B
:10024000890F0008490F0008C7020008C70200080C
:10025000C7020008C7020008C7020008C70200085A
:10026000C7020008C7020008C7020008C70200084A
:10027000C7020008C7020008C7020008000000000B
:10028000C7020008C7020008C702000800000000FB
:1002900000000000C7020008DFF80CD000F0A6FA4A
:1002A00000480047818200080874002406488047FF
:1002B00006480047FEE7FEE7FEE7FEE7FEE7FEE74B
:1002C000FEE7FEE7FEE7FEE7C158000899020008D6
:1002D0002DE9F05F0546002092469B46884606467B
:1002E000814640241BE0284641464746224600F00E
:1002F0006FF853465A46C01A914110D3114618461A
:10030000224600F056F82D1A67EB01084F462246A8
:100310000120002100F04DF817EB00094E41201E8E
:10032000A4F10104DFDC484631462A464346BDE8D5
:10033000F09FD2B201E000F8012B491EFBD27047BA
:100340000022F6E710B513460A4604461946FFF7A1
:10035000F0FF204610BDC1F30A52C1F3130140F271
:10036000FF3341F480119A4202DA002001467047BF
:1003700040F233439A42A2F2334202DC524200F08E
:1003800027B800F016B830B50B46014600202022F1
:10039000012409E021FA02F59D4205D303FA02F592
:1003A000491B04FA02F52844151EA2F10102F1DCF2
:1003B00030BD202A04DB203A00FA02F10020704709
:1003C0009140C2F1200320FA03F319439040704793
:1003D000202A04DB203A21FA02F00021704721FA9A
:1003E00002F3D040C2F12002914008431946704701
:1003F00010B5141E73F1000408DA401C41F100012D
:1004000092185B411A4301D120F0010010BD2DE983
:10041000F04D92469B4611B1B1FA81F202E0B0FA7A
:1004200080F220329046FFF7C4FF04460F4640EAB0
:100430000A0041EA0B0153465A46084313D01146BD
:1004400053EA010019D0C8F140025046FFF7C0FF3F
:1004500005460E46504659464246FFF7AAFF084356
:1004600005D0012004E020463946BDE8F08D00208B
:10047000054346EAE0762C4337430A986305E40ACD
:10048000A0EB08000022FD0A44EA47540A3002D5D6
:1004900000200146E9E7010510196941DDE9084539
:1004A00000196941BDE8F04DA2E72DE9FE4F8046F5
:1004B00081EA0300C00F0C46009021F0004123F0B8
:1004C0000045B8EB0200A94105D2404621469046BE
:1004D0001C460B46024623F00040104347D0270D30
:1004E000C7F30A00C3F30A510290401A0190402852
:1004F0006BDAC3F3130040F4801B0098924620B1DE
:100500000023D2EB030A63EB0B0B01985946C0F1B1
:1005100040025046FFF74DFF06460D4650465946ED
:10052000019A00F075F910EB08006141002487EA98
:10053000115284EAE7731A4340D0009A62B3019AD9
:10054000012A4FEA075215DC001B61EB02014FF054
:10055000004202EA0752CDE90042001C41F5801139
:1005600032462B46FFF753FF03B0BDE8F08F4046FD
:100570002146F9E7001B61EB0201001C41F58013E5
:1005800000185B412018A2F5001747EB030140EA71
:10059000D570B6196D4111E06D084FEA360645EA8F
:1005A000C0754FEA0752001B61EB0201001C41F5C8
:1005B000801149084FEA30000019514132462B465C
:1005C00003B0BDE8F04FFFF713BF009801224000D1
:1005D0000023D0EB020263EBE073009821464FEA60
:1005E000E074B8EB000061EB0401E9E783F000433D
:1005F0005BE781F0004158E72DE9FE4F81EA0304F3
:1006000004F0004421F0004100944FF0000B23F06F
:10061000004350EA01045ED052EA03045BD0C3F306
:100620000A54C1F30A552C44A4F2F3340194A0FBFC
:100630000254C1F3130141F48011C3F3130343F4D3
:10064000801301FB024400FB034E840A970A44EA2C
:10065000815447EA8357A4FB076802958D0A05FB7E
:1006600007854FEA932C04FB0C542705029D4FEAA3
:10067000065847EA1637B5EB08056EEB070C870EF0
:10068000920E47EA811742EA8312A7FB0201B6EBFA
:100690000B0164EB00042B0D43EA0C335E1844EBB2
:1006A0001C50DA465146E7FB0201C5F313044FEA3A
:1006B0000B3343EA14534FEA0432019C43EA060326
:1006C000A4F10C040294009CCDE900B4FFF79FFE56
:1006D00003B0BDE8F08F00200146F9E72DE9F04DA9
:1006E00081EA030404F0004B21F0004514464FF06A
:1006F000000A23F0004150EA050220D054EA01022A
:100700001DD0C5F30A570246C5F31303C1F3130006
:10071000C1F30A5640F4801543F48013A7EB060892
:10072000101BD64608F2FD3873EB050002D308F122
:10073000010801E092185B41B8F1000F03DA0020D4
:100740000146BDE8F08D00204FF480110646844636
:100750000EE0171B73EB050705D3121B63EB0503B4
:1007600006434CEA010C49084FEA300092185B41FD
:1007700050EA0107EDD152EA030012D082EA0400E8
:1007800083EA0501084305D0101BAB4106D20122C4
:10079000002306E000224FF0004302E06FF0010268
:1007A00053101AEB06004CEB085110EB0A0041EB1A
:1007B0000B01BDE8F04DFFF71BBE000030B5041E75
:1007C00071F1000404DB4FF00044404264EB01018E
:1007D000141E73F1000405DB1C464FF00043524227
:1007E00063EB0403994208BF904230BD064C074DAD
:1007F00006E0E06840F0010394E8070098471034F1
:10080000AC42F6D3FFF74CFD30C9010850C90108CE
:10081000202A06DBCB17203A41FA02F043EAE073C4
:1008200006E041FA02F3D040C2F1200291400843B1
:1008300019467047000000002DE9F04F83B00020FA
:1008400040F22003C4F20200C2F2004301684905ED
:1008500026D40068000571D503F5BC60029003F54D
:10086000B860019003F5B460009003F5B06903F53A
:10087000AC6A03F5A86B03F5A46503F5A06603F560
:100880009C6703F5986203F5946003F5906103F5A6
:100890008C6403F5886C03F5846E03F5806320E0B7
:1008A00003F5F070029003F5E070019003F5D0704D
:1008B000009003F5C07903F5B07A03F5A07B03F54A
:1008C000907503F5807603F1E00703F1C00203F1B0
:1008D000A00003F1800103F1600403F1400C03F177
:1008E000200E4EF65C78CEF20008BFF34F8FC8F8AA
:1008F0000030C8F800E0C8F800C0C8F80040C8F8E8
:100900000010C8F80000C8F80020C8F80070C8F847
:100910000060C8F80050C8F800B0C8F800A0C8F8D7
:1009200000900098C8F800000198C8F800000298EC
:10093000C8F80000BFF34F8FBFF36F8F03B0BDE85F
:10094000F08F0000000000008CB0B0EE04CB41F648
:100950000810C2F2004000249FEDF59BA0F1200595
:10096000A0B205F1200600EE100A9FEDF3AB9FED5B
:10097000F4DBB8EE408BB0EE4D0B28EE0A1B01EE17
:10098000090B07F03DFD9FEDF0EB9FEDF1FB28EE2D
:100990000E1BB0EE4F8B9FEDF0AB00EE0C8BB0EE6C
:1009A0004A0B01EE090B07F02BFD44F0010080B269
:1009B00001EE100AB8EE41BB9FEDDF1B2BEE012BC1
:1009C000B0EE4D1B9FEDE6DB00EE0D8B02EE091B3A
:1009D000B7EEC80B85ED080AB0EE410B07F010FD2D
:1009E000B0EE4F8B2BEE0E1B00EE0C8BB0EE4A0BD5
:1009F00001EE090B07F004FD44F0020080B201EEA5
:100A0000100A9FEDF3DBB8EE41BB9FEDEF1B2BEE21
:100A1000012BB0EE4D1B02EE091B9FEDF12B00EEFA
:100A2000028BB7EEC80B85ED090AB0EE410B07F05B
:100A3000E7FCB0EE4F8B2BEE0E1BB0EE4FEB00EE53
:100A40000C8BB0EE4A0BB0EE4AFB01EE090B07F03F
:100A5000D7FC44F0030080B201EE100AB8EE41BBAF
:100A60009FEDD91B2BEE012BB0EE4D1B02EE091BA7
:100A70009FEDDB2B00EE028BB7EEC80B85ED0A0A6B
:100A8000B0EE410B07F0BCFCB0EE4E8B9FEDD2AB4D
:100A90002BEE0A1B00EE0C8BB0EE4F0B01EE090B98
:100AA00007F0AEFC44F0040080B201EE100AB8EE8C
:100AB00041BB9FEDC51B2BEE012BB0EE4D1B02EE93
:100AC000091B9FEDC72B00EE028BB7EEC80B85ED1F
:100AD0000B0AB0EE410B07F093FCB0EE4E8B2BEE01
:100AE0000A1B00EE0C8BB0EE4F0B01EE090B07F06A
:100AF00087FC44F0050080B201EE100AB8EE41BB5D
:100B00009FEDB11B2BEE012BB0EE4D1B02EE091B2E
:100B10009FEDB32B00EE028BB7EEC80B85ED0C0AF0
:100B2000B0EE410B07F06CFCB0EE4E8B2BEE0A1BC7
:100B300000EE0C8BB0EE4F0B01EE090B07F060FCE2
:100B400044F0060080B201EE100AB8EE41BB9FED02
:100B50009E1B2BEE012BB0EE4D1B9FEDA1DB00EE9B
:100B60000D8B02EE091BB7EEC80B85ED0D0AB0EE3A
:100B7000410B07F045FCB0EE4E8B2BEE0A1B00EE4E
:100B80000C8BB0EE4F0B01EE090B07F039FC00EEB9
:100B90000D8B44F0070087B201EE107AB7EEC80B58
:100BA00085ED0E0AB8EE41BB9FED871B2BEE012BA6
:100BB0009FED871B02EE091BB0EE410B07F020FCF6
:100BC0002BEE0A1B00EE0CEB01EE09FBB0EE4F0B17
:100BD00007F016FC00EE0DEBB7F5FF7F04F10804FB
:100BE000B7EECE0B85ED0F0A35467FF6B9AE06ACF3
:100BF0004FF40071204607F0D3FA40F6081541F68D
:100C00000811C2F20045C2F20041002320462A46E4
:100C1000002606F0F9FF42F208144FF40072C2F207
:100C200000442846214606F08FFB94ED000A9FED14
:100C3000728A20EE080A40F2FC7084ED000A9FEDF3
:100C40006F0A00BFA1191C36864291ED011A91ED81
:100C5000022A21EE001A91ED033A81ED011A22EEEB
:100C6000001A91ED044A81ED021A23EE001A91ED6B
:100C7000062A81ED031A24EE001A81ED041A91ED83
:100C8000051A21EE001A81ED051A22EE001A81EDF7
:100C9000061A91ED071A21EE001A81ED071AD1D13B
:100CA00042F60810B6EE009AC2F200406FF003065A
:100CB0009FED4DAB071FA5F108000DF114089FED46
:100CC00050BA40F2FC7900BF00F10805D0ED020AED
:100CD00090ED030A404605F0A3FC9DED050AA0191E
:100CE000B7EEC00A043690ED011A391DB4EE419AF0
:100CF000284620EE0A0BF1EE10FAB7EEC00B3BFED1
:100D0000000A4E4587ED010A0F46DDD142F2081672
:100D100042F608179FED369B0025C2F20046C2F24C
:100D200000479FED38AA9FED38BA38A423E000BFF2
:100D3000000000000000503FFAB836548CA2734007
:100D400087E5613352C1F03FFAB836548CA2834034
:100D5000333333333333F33F4AD8124DFB21E93F6A
:100D6000666666666666FE3F01350436B5F5807FC9
:100D700007F1040726D096ED000AB7EEC00AB4EEDC
:100D8000490BF1EE10FAEFDDA8B297ED001A21EE53
:100D90000A1A02EE100A53EC102B2046B8EE422A33
:100DA000B8FE411A22EE0B2A81EE0A1A22EE082A18
:100DB000B7EEC11AB7EEC22A8DEC041B07F0F8FAA1
:100DC000D2E700BFFEE700BFFAB836548CA27340EA
:100DD00087E5613352C1F03FFAB836548CA28340A4
:100DE000666666666666FE3FAA9F9622DCA54C4054
:100DF0009A9999999999B93F0000003B0000803B6E
:100E00000000000000401C460000804425662C20A5
:100E100025662C2025660A00B0B50446006842F21B
:100E2000001140F48070C4F20201884218D142F2ED
:100E30000830C4F20200006810F4403F18D003F0FC
:100E4000F7FA61680546B1F5803F05D0B1F5403F3E
:100E50002CD0B1F5003F2AD1080CB5FBF0F526E007
:100E600046F20830C5F60200006810F4403FE6D1B3
:100E70004FF40020002102F087F961680546A1F5D2
:100E800080224FEAB2420A2A11D8DFE802F00707AF
:100E90000707070751535557590000BF6FF001006E
:100EA00000EA5140B5FBF0F501E000BFAD0801F0EC
:100EB0003BFE41F2030188420ED8206842F6015100
:100EC000C0F231118D4281682CBF41F4807121F450
:100ED00080718160B0BD00BF4BF62140C0F2BE0002
:100EE000854205D82068816821F440718160B0BDD9
:100EF00047F64100C0F27D10854207D820680122E4
:100F0000816862F309218160B0BD00BF20684FF2A3
:100F10008101C0F2FA218D42816805D8022262F374
:100F200009218160B0BD00BF41F440718160B0BD56
:100F30002D09BCE76D09BAE7AD09B8E7ED09B6E7D9
:100F40002D0AB4E70000000043F2AC20C2F20040DA
:100F500000F08EBD00000000FEE700000000000071
:100F600040F63C00C2F2004000F082BD00000000EC
:100F700080B5FFF761FC43F23420C2F20040BDE8C7
:100F8000804000F075BD000043F2AC20C2F200408A
:100F900000F03ABD0000000040F20F42D0F800C05F
:100FA000C4F20202944511DC6F22C4F2020294459D
:100FB00022DC3F22C4F20202944539DC1022C4F242
:100FC000020294455AD0282254E000BF40F26F42FA
:100FD000C4F2020294451BDC40F23F42C4F202021A
:100FE00094452DDC40F21042C4F20202944545D0F3
:100FF00040F228423EE000BF9F22C4F20202944524
:1010000028DC7022C4F20202944537D0882231E0F5
:1010100040F29F42C4F20202944523DC40F2704247
:10102000C4F20202944529D040F2884222E000BF77
:101030004022C4F20202944520D058221AE000BF98
:1010400040F24042C4F20202944517D040F25842A6
:1010500010E000BFA022C4F2020294450ED0B822D4
:1010600008E000BF40F2B842C4F20202944505D045
:1010700040F2A042C4F20202944519D16FF00F026F
:101080004AF6AB2352FA8CF2CAF6AA23A2FB03312A
:101090000AA35F2AC1F302115B5C40F2FF312CEA24
:1010A0000101C36588BF043181650846704700BFF0
:1010B0002CF0FF0181650846704700BF000610163E
:1010C000000610160000000070470000000000003D
:1010D0007047000000000000EFF3108072B600BF00
:1010E000FEE7000000000000B0B582B090F850208C
:1010F000012A03D10221084602B0B0BD42F20832F3
:1011000000230193C4F202020093A2F54274036823
:10111000A34227D14FF6006C4FF60055CFF6FF7C67
:10112000CFF6FF7552F80C40535923435B0719D48F
:10113000D1F800E01368BEF1000F23F440441DD045
:101140004B6823431360535952F80C502B43DB0771
:1011500022D1136840F61F758968AB4341EA0E013E
:10116000194316E0416D41F0200141650121002243
:1011700080F85020084602B0B0BD00BF146051593D
:1011800052F80C301943C90708D1116840F61F7393
:10119000994311600021EAE70021E8E70021E6E732
:1011A0002DE9F04181B00022009290F85020012AF0
:1011B00004D10221084601B0BDE8F081076801238F
:1011C00080F85030BC68640700F176810C68250314
:1011D00094FAA4F2B2FA82F208BFA20EC4F38464B5
:1011E0004D6802F01F02C5F3012603FA02F2FB6903
:1011F0001A43FA6107EB860205F01F031F26156BE1
:101200009E4025EA060604FA03F333431363BA68E3
:10121000BB68DB0843EA9202D20740F07E800A688E
:1012200007258E68C2F34063C2F3045207EB8303C1
:1012300095405C6906FA02F224EA05052A435A61E0
:1012400041F20002C5F60042126802F07042B2F1AB
:10125000805F09D1D1F814C0FA680E2303EA520462
:101260000B69042B0DD13CE0FA68D1F814C0FB687F
:10127000D2064FEA53032FD403F00E040B69042B5C
:101280002FD007F160020D680CFA04F605F0F8455E
:1012900052F823402E4304F00044264342F82360D2
:1012A0000B694E7E52F82350012E25F0004508BFF1
:1012B00005F1004542F823500A7E0B693E69013A68
:1012C00003F01F03B2FA82F226F4F0465209D2026A
:1012D0009A4032433A6120E003F008040B69042B82
:1012E000CFD13A6E0B6802F0F842B2EB836F4FEA4F
:1012F000836345D07A6E02F0F8429A4249D0BA6EC2
:1013000002F0F8429A424DD0FA6E02F0F8429A4248
:1013100003D1FA6E22F00042FA66BA68D2072DD1E4
:101320004FF6FF72CE68C0F20F02D1F8008006F0CF
:10133000180308EA0204DA400023D7F8C050C4F2C8
:10134000FF73A54302EA08029E4242EA0502C7F87B
:10135000C02058D184B398FAA8F2B2FA82F20132CE
:1013600002F01E03092B02F01F032ED8012203EB0B
:1013700043069A4042EA065333E000BF0021A0E052
:101380003A6E22F000423A667A6E02F0F8429A42D1
:10139000B5D17A6E22F000427A66BA6E02F0F84257
:1013A0009A42B1D1BA6E22F00042BA66FA6E02F0E9
:1013B000F8429A42ADD0B0E7012202EB986202F007
:1013C0001E030A2B02F01F03D0D3012203EB4306B6
:1013D0009A400023CFF6206303EB06531A4342F0F2
:1013E0000073C3F340620725C3F304538E6807EB11
:1013F00082029D40546906FA03F324EA05052B4353
:101400005361D1F80080B8F1FF3F01DD002158E0C1
:1014100042F2000146F2083CC4F20201C5F6020C99
:1014200001F5807201F542739742624608BF1A4681
:101430008F4242F2001608BF1A4647F48073C4F286
:101440000206B342D2F800E02ED18A68D1F8081122
:101450001143C90730D100210EF0E074CCF684317D
:10146000884508BF1EF4000132D00021CCF2527131
:10147000884508BF1EF0807130D0ACF542718F42B4
:101480004FF000011DD10022CCF6B872904508BF84
:101490001EF4800215D1DCF8001021F0E071214328
:1014A00041F480015BE000BF4FF60051CFF6FF71C1
:1014B0005CF80110C907CED0416D41F020014165B3
:1014C0000121002280F85020084601B0BDE8F081DB
:1014D000ACF542718F4207D00021F2E7ACF54271C2
:1014E0008F4235D00021ECE7DCF8001042F6635261
:1014F00021F0E071C0F23E52214341F40001CCF8EA
:10150000001040F62401C2F2004109688909A1FBDC
:1015100002129109022202EB41010091009919B3D4
:10152000009901390091009901B3009901390091A6
:101530000099E9B10099013900910099D1B1009960
:1015400001390091009900294FF00001E8D1B8E776
:10155000DCF8001021F0E071214341F08071CCF8FB
:1015600000100021ADE700BF0021AAE70021A8E795
:101570000021A6E70021A4E7B0B582B00446002808
:101580004FF00000019009D0606D58B1206881686B
:10159000890012D48168C90019D54EE0012528467A
:1015A00002B0B0BD204600F027F90020A06584F805
:1015B0005000206881688900ECD54FF6C0728168C0
:1015C000C5F6FF72114081608168C90035D44FF6BD
:1015D000C0718268C5F6FF7101F18051114042F679
:1015E000635201F18051816040F62401C0F23E5205
:1015F000C2F2004109688909A1FB0212012101EB35
:10160000921101910199C1B1019901390191019999
:1016100000291FBF01990139019101991FBF0029BC
:101620000199013901911CBF0199002905D0019947
:101630000139019101990029E6D18168C90009D4D5
:10164000616D012541F010016165A16D41F001015D
:10165000A16500E000258168626D02F01002C1F30F
:1016600080018918616D07D041F010000125606587
:10167000284602B0B0BD00BF21F48171023161651E
:101680008168C90728D142F2001240F48071C4F287
:101690000202914242F20001C4F2020140F0A08035
:1016A0008A68D1F808311A43D20715D101F5807242
:1016B00001F5427346F2080C9042C5F6020C1A4638
:1016C00018BF0CF54072884208BF1A46606811685E
:1016D00021F47C110843106001F026FA617D41F28B
:1016E0000402A36890424FEA4131226B0AD3102BC7
:1016F00008D1207F114341EA004141F01C0101283B
:1017000007D00DE0207F1143194341EA0041012831
:1017100006D1206A0022CFF6FE7202EB4040014360
:10172000606A28B100F47870A26A084340EA0201B6
:1017300020684CF20303CFF6F073C2681A401143DD
:10174000C16081688268D20842EA9101C90733D139
:10175000217D44F2030CE26AC36842EA813123EA44
:101760000C021143C16094F838100129016917D1A6
:101770004FF61E02CFF6004201EA020C0021D4E926
:101780000F23CFF6FF7101EB02414CEA0302636CB9
:101790001143A26C1943114341F0010102E000BF63
:1017A00021F0010101610169626B21F07041114377
:1017B00001612046FFF730FB2068E1680129026BD8
:1017C00022F00F0102D1A269013A11430163012104
:1017D000606D61F301006065284602B0B0BD00BFD6
:1017E00046F20802C5F602021268D2073FF45EAF65
:1017F00072E7000000000000F0B587B046F200017B
:1018000004460068C5F6020100268842CDE9056657
:1018100004960396029661D042F20011C4F20201CE
:10182000884200F0978042F20001C4F2020188422F
:1018300040F0E88040F6380644F2E040C2F200464C
:10184000C5F602003168002901F1010131600BD1B8
:1018500050F8081C41F0200140F8081C50F8081C02
:1018600001F02001019101990168002741F0040174
:101870000160006802A900F00400019001980C20AA
:1018800002900320039040F60000C5F60200049782
:1018900001F04EF835461020C4F2020045F8040F5E
:1018A0000920C5E901074FF4806028614FF400600A
:1018B00068614FF40050A8614FF48070EF60C5E993
:1018C000070728466F6200F0EFFC002800F09680C2
:1018D000FFF702FC06F13C07351D91E044F2E047BA
:1018E00002A9C5F60207386840F080703860386891
:1018F00000F0807001900198386840F00400386072
:10190000386800F00400019001980620029003203E
:10191000CDE9030640F60000C5F6020001F008F824
:1019200043F2AC2507F62870C2F20045286011206A
:10193000C5E90106EE604FF4806028614FF4006055
:1019400068614FF40050A8614FF48070C5E9070644
:101950004BE000BF40F6380144F2E040C2F20041E3
:10196000C5F602000A68002A02F101020A600BD1E2
:1019700050F8081C41F0200140F8081C50F8081CE1
:1019800001F02001019101990168002641F0040154
:101990000160006802A900F0040001900198202075
:1019A00002900320039040F60000C5F60200049662
:1019B00000F0BEFF43F234251020C2F20045C4F20D
:1019C0000200183028600A20C5E90106EE604FF4D5
:1019D000806028614FF4006068614FF40050A86196
:1019E0004FF48070C5E907066E62284600F05CFC83
:1019F00005F1380720B1FFF76FFB01E005F138076B
:101A0000E5643C6007B0F0BD10B50446406EA26EC0
:101A100001680A4210D0236ED4F84CC0BCF1000F0C
:101A2000196821F4807119604260606D40F40070A3
:101A3000606501D02046E047E06EA8B1D4E91C12F1
:101A40000B681A4208BF10BD036823F4807303605B
:101A50004A60606D40F480606065E16C21B12046B1
:101A6000BDE81040084700BF10BD000000000000A6
:101A70002DE9F04782B00021019140F6240104468F
:101A8000C2F2004148F2B512C1F64E32A56D0968A6
:101A900040F26F490068C4F20209A1FB02184845F0
:101AA0002E68296816DC9F21C4F2020188422DDCD1
:101AB0005721C4F20201884252DC1021C4F2020113
:101AC00088427BD02821C4F20201884276D040218E
:101AD00070E000BF45F22F42C5F60202904229DCB9
:101AE00040F2B742C4F20202904245DC40F270413B
:101AF000C4F20201884261D040F28841C4F202017E
:101B000088425BD040F2A04154E000BF40F2274140
:101B1000C4F2020188423FDCA021C4F202018842E3
:101B20004CD0B821C4F20201884247D040F21041A3
:101B300040E000BF45F26B42C5F60202904275DC00
:101B400045F23042C5F60202904200F0818045F233
:101B50004442C5F6020290427AD045F2584273E000
:101B60005821C4F20201884228D07021C4F2020137
:101B7000884223D088211DE040F2B842C4F202021C
:101B800090421BD045F20842C5F6020290425FD057
:101B900045F21C4258E000BF40F22841C4F2020165
:101BA00088420BD040F24041C4F20201884205D085
:101BB00040F25841C4F20201884261D1E16D08222D
:101BC00001F01F0140F20F4A8A40C4F2020A324279
:101BD00000F0E98050454FF0040313DC6F27C4F296
:101BE0000207B8426CDC3F27C4F20207B84200F398
:101BF000A7801027C4F20207B84200F0C880282747
:101C0000C0E000BF484567DC40F23F47C4F202072E
:101C1000B84200F39D8040F21047C4F20207B84278
:101C200000F0B58040F22847ACE000BF45F26C42BE
:101C3000C5F6020290420BD045F28042C5F6020280
:101C4000904205D045F29442C5F60202904217D167
:101C50000268E36D570703F01F0315D504279F4063
:101C600017EA010610D011046F6045D4910603D421
:101C7000016821F004010160216C002940F0F68226
:101C800002B0BDE8F08700BF97073DD502279F400F
:101C900017EA010638D011046F6000F1ED82910659
:101CA00009D4016821F00A010160012084F835009F
:101CB000002084F83400E16B002940F0D782DFE790
:101CC0009F27C4F20207B8424CDC7027C4F2020717
:101CD000B8425CD0882755E040F29F47C4F2020723
:101CE000B84247DC40F27047C4F20207B8424ED017
:101CF00040F2884746E000BFD00300F1C382A16CE8
:101D0000002940F0B382BBE71207B9D508229A40F8
:101D10001140B5D0016821F00E010160012000FAE8
:101D200003F16960606584F835000020E16C84F897
:101D300034000029A4D02046884702B0BDE8F087CF
:101D40004027C4F20207B84221D058271AE000BF4A
:101D500040F24047C4F20207B84218D040F2584758
:101D600010E000BFA027C4F20207B8420FD0B82786
:101D700008E000BF40F2A047C4F20207B84206D014
:101D800040F2B847C4F20207B84218BF08230768F8
:101D90001F4208D0036823F004030360AA60626D49
:101DA00042F00102626501228A4032426FD0504502
:101DB00010DC6F23C4F2020398421DDC3F23C4F2FF
:101DC0000203984234DC1023C4F20203984256D036
:101DD00028234FE048451BDC40F23F43C4F2020396
:101DE00098422DDC40F21043C4F20203984246D0E0
:101DF00040F228433EE000BF9F23C4F20203984212
:101E000028DC7023C4F20203984238D0882331E0E2
:101E100040F29F43C4F20203984223DC40F2704335
:101E2000C4F2020398422AD040F2884322E000BF65
:101E30004023C4F20203984221D058231AE000BF85
:101E400040F24043C4F20203984218D040F2584393
:101E500010E000BFA023C4F2020398420FD0B823C1
:101E600008E000BF40F2A043C4F20203984206D04B
:101E700040F2B843C4F20203984240F00B82436937
:101E80001B0604D5AA60626D42F00202626504225C
:101E90008A4032426FD0504510DC6F23C4F20203F7
:101EA00098421DDC3F23C4F20203984234DC102325
:101EB000C4F20203984256D028234FE048451BDC69
:101EC00040F23F43C4F2020398422DDC40F210433B
:101ED000C4F20203984246D040F228433EE000BFDD
:101EE0009F23C4F20203984228DC7023C4F2020349
:101EF000984238D0882331E040F29F43C4F2020375
:101F0000984223DC40F27043C4F2020398422AD084
:101F100040F2884322E000BF4023C4F2020398420B
:101F200021D058231AE000BF40F24043C4F202031C
:101F3000984218D040F2584310E000BFA023C4F2EA
:101F4000020398420FD0B82308E000BF40F2A0433C
:101F5000C4F20203984206D040F2B843C4F202032E
:101F6000984240F09F8103689B0704D5AA60626D88
:101F700042F004026265102202FA01F1314200F0DF
:101F8000818050454FF0080210DC6F23C4F2020339
:101F900098421DDC3F23C4F20203984234DC102334
:101FA000C4F20203984256D028234FE048451BDC78
:101FB00040F23F43C4F2020398422DDC40F210434A
:101FC000C4F20203984246D040F228433EE000BFEC
:101FD0009F23C4F20203984228DC7023C4F2020358
:101FE000984238D0882331E040F29F43C4F2020384
:101FF000984223DC40F27043C4F2020398422AD094
:1020000040F2884322E000BF4023C4F2020398421A
:1020100021D058231AE000BF40F24043C4F202032B
:10202000984218D040F2584310E000BFA023C4F2F9
:10203000020398420FD0B82308E000BF40F2A0434B
:10204000C4F20203984206D040F2B843C4F202033D
:10205000984218BF04220368134213D0A960016894
:102060004903016808D4C90508D4016821F00801B2
:102070000160216C21B905E008034FD4216C09B13E
:1020800020468847E06D00F01F01202000FA01F291
:10209000324200F0AB8020681023504510DC6F27DF
:1020A000C4F20207B8421DDC3F27C4F20207B8425F
:1020B00038DC1027C4F20207B8425AD0282753E070
:1020C00048451BDC40F23F47C4F20207B84231DC0E
:1020D00040F21047C4F20207B8424AD040F2284703
:1020E00042E000BF9F27C4F20207B8422CDC7027F1
:1020F000C4F20207B8423CD0882735E040F29F473F
:10210000C4F20207B84227DC40F27047C4F202076B
:10211000B8422ED040F2884726E000BFA16C0029CB
:10212000AED1AFE74027C4F20207B84221D058270A
:102130001AE000BF40F24047C4F20207B84218D08C
:1021400040F2584710E000BFA027C4F20207B8428F
:102150000FD0B82708E000BF40F2A047C4F2020742
:10216000B84206D040F2B847C4F20207B84218BFDE
:10217000022307681F4239D0AA6094F83520042A48
:1021800002681BD122F016020260426922F080022E
:102190004261226C0AB9A26C1AB1026822F00802EC
:1021A00002603F208840A860012084F83500216D3E
:1021B0000020002984F8340058D161E551030168FA
:1021C0000CD4C9050ED4016821F010010160012072
:1021D00084F83500002084F8340003E0080301D4BB
:1021E000616C00E0E16B09B120468847606D002812
:1021F0003FF446AD606DC00734D0042084F835004C
:1022000020684FEA9821026822F001020260019AD8
:10221000013201928A421AD80268D20717D0019A75
:10222000013201928A4212D80268D2070FD0019A75
:10223000013201928A420AD80268D20707D0019A75
:10224000013201928A4202D80268D207DFD10068C7
:10225000C0074FF0030008BF012084F835000020BC
:1022600084F83400E16C00293FF40AAD2046884729
:1022700002B0BDE8F08700BFD00307D4616C00292D
:10228000F4D1FDE4216C0029F0D1F9E4E16B0029DF
:10229000ECD1F5E4026804228A4032427FF4FBADBF
:1022A00069E600BF026866E6F0B581B0044600F05A
:1022B00043FC002C00F0178140F26F470546206870
:1022C000C4F20207B84217DC9F21C4F2020188421F
:1022D0002EDC5721C4F20201884255DC1021C4F2E1
:1022E0000201884200F07F802821C4F20201884266
:1022F00079D0402172E000BF45F22F41C5F60201BE
:10230000884229DC40F2B741C4F20201884247DC2E
:1023100040F27041C4F20201884264D040F2884128
:10232000C4F2020188425ED040F2A04156E000BFF4
:1023300040F22741C4F20201884241DCA021C4F2EC
:10234000020188424FD0B821C4F2020188424AD02B
:1023500040F2104142E000BF45F26B41C5F6020178
:10236000884200F3C38045F23041C5F6020188423D
:1023700000F0CF8045F24441C5F60201884200F0EA
:10238000C88045F25841BFE05821C4F2020188429A
:1023900029D07021C4F20201884224D088211DE096
:1023A00040F2B841C4F2020188421CD045F2084113
:1023B000C5F60201884200F0AC8045F21C41A3E062
:1023C00040F22841C4F2020188420CD040F2404160
:1023D000C4F20201884206D040F25841C4F2020120
:1023E000884240F0A182022184F83510002184F84F
:1023F0003410016821F0010101600168C90709D0AA
:1024000000F09AFB401B052800F2688020680168F4
:10241000C907F5D148F23F0204F108060168CFF67A
:10242000106211406CCE1143A2691943E36929433C
:10243000256A0E43616A1643042943EA060343EA08
:10244000050303D1D4E90B6533432B4341F2000666
:10245000C5F600463668B6F1005F1DD36668A6F182
:102460002905292D18D8DFE805F0151515151515BE
:1024700017171717171717171717171717171717EC
:1024800015151515171717171515171717171717E8
:102490001515151543F4801303600429436923F0CF
:1024A000070341EA030140F0F180D4E90A53002B0D
:1024B00041EA050100F0EA80B2F5005F00F0CC804F
:1024C000002A40F0D580022D00F0D580012D00F0CB
:1024D000C980002D00F0CF80D8E000BF20206065CB
:1024E000032084F83500012001B0F0BD45F26C41B5
:1024F000C5F6020188420CD045F28041C5F60201C2
:10250000884206D045F29441C5F60201884240F067
:102510000B82022184F83510002184F83410016800
:10252000A268A2F18003E668B3FA83F3402A4FEA77
:1025300053134FEA83336FF3101108BF102322693E
:1025400041EAD60166691943A36941EAD201E26909
:1025500041EAD60141EAD3014CF6CD4341EAD2012A
:102560004AF6F832CAF2FD72266A0244CCF6CC432F
:10257000A2FB032341EA161101606FF0030000EA99
:102580009300E0652046FEF707FDE16D012201F0B2
:102590001F0102FA01F141602068B84240F38580D2
:1025A00045F22F41C5F60201884217DC40F2B741DF
:1025B000C4F20201884229DC40F27041C4F20201F7
:1025C000884200F0BC8040F28841C4F20201884297
:1025D00000F0B58040F2A041ACE000BF45F26B4195
:1025E000C5F60201884223DC45F23041C5F60201FE
:1025F000884200F0A48045F24441C5F602018842B9
:1026000000F09D8045F2584122E000BF40F2B84101
:10261000C4F20201884200F0928045F20841C5F6FA
:102620000201884200F08B8045F21C4110E000BF9F
:1026300045F26C41C5F60201884200F0808045F207
:102640009441C5F60201884200F0798045F280414C
:10265000C5F6020170E000BF032D17D8DFE805F0D2
:102660000E0B0E02A3F1C072B2FA82F2520904E01C
:10267000032D03D30AD1C3F300623AB14020606551
:10268000012084F8350001B0F0BD00BF4161204653
:10269000FEF782FCE16D3F2201F01F0102FA01F119
:1026A00081602068B8423FF77BAF9F21C4F20201EE
:1026B000884211DC5721C4F20201884220DC10213B
:1026C000C4F2020188423AD02821C4F202018842B1
:1026D00035D040212EE000BF40F22741C4F2020174
:1026E000884219DCA021C4F20201884227D0B82117
:1026F000C4F20201884222D040F210411AE000BF29
:102700005821C4F20201884219D07021C4F202019A
:10271000884214D088210DE040F22841C4F2020121
:1027200088420CD040F24041C4F20201884206D0F7
:1027300040F25841C4F20201884240F0ED8045F277
:10274000574C45F6FC0EC5F6020CC5F6020E604568
:1027500012DC45F22F41C5F60201884220DC45F229
:102760000841C5F60201884234D045F21C41C5F645
:10277000020188422ED085E045F27F41C5F6020174
:1027800088421BDC45F25841C5F60201884221D03F
:1027900045F26C41C5F6020188421BD072E000BFD1
:1027A00045F23041C5F60201884213D045F244415A
:1027B000C5F6020188420DD064E000BF45F29441A5
:1027C000C5F60201884205D045F28041C5F60201F6
:1027D000884257D16FF007014CF6CD4251FA80F193
:1027E000CCF6CC42A1FB0212AEF1FC05AEF17C06A8
:1027F0001309A26803F01F01802A4FF0010205EBC4
:102800008305256602FA01F26666A26602D10021FE
:10281000616000E06168CBB2013907292B6072600A
:1028200016D85E1E082E19D260450EF1440219DC3E
:1028300045F22F41C5F60201884245DC45F20841C8
:10284000C5F6020188425DD045F21C414EE000BF52
:1028500000206067C4E91B005EE000BFD4E91B02F2
:10286000616F56E045F27F41C5F60201884235DCD2
:1028700045F25841C5F60201884243D045F26C4109
:1028800034E000BF6FF00F014AF6AB2251FA80F13D
:10289000CAF6AA22A1FB021240F20F43C4F20203BD
:1028A00008251109984203F1AA060B4688BF05EBDB
:1028B000121340F60005B042C4F2020505F180068D
:1028C00028BF0B4695E700BF45F23041C5F602012F
:1028D000884217D045F2444108E000BF45F28041EC
:1028E000C5F6020188420DD045F29441C5F60201B9
:1028F000884207D040F60000C4F2020000F1FC0E4E
:1029000000F5A07201210EEB8300B140E066226762
:10291000616700230360516000206065012184F835
:10292000351001B0F0BD00BF4020D8E50000000028
:102930002DE9F04F85B00D680290002D00F0E68083
:1029400002988E4600F126420A2102F1FF7342F2FC
:102950000042C5F60202002490424FEAB32208BFAB
:102960000921092A4FF0010738BF4FEAB321002699
:102970004FF000080091CDF80CE00DE0DEF80050BB
:1029800008F1010835FA07F006F1020607F1010720
:1029900004F1040400F0BA80A7F1010A012000FA52
:1029A0000AF315EA0309E9D0DEF804B00BF00305D9
:1029B0006A1E012A22D802984FEA4801D0F808C0BE
:1029C0000191032101FA06F203992CEA020CD1F8D5
:1029D0000CE00EFA06F1DDF80CE041EA0C01816032
:1029E00041686FEA020CCBF3001299430346019849
:1029F00002FA0AF2114359600CE000BF0320032DD4
:102A000000FA06F0029B6FEA000C304602D1304615
:102A1000032526E0D968DEF8082001EA0C0182408F
:102A2000022D41EA0201D9601BD102466FF003007A
:102A300000EA5A010F20194404F01C0300FA03F5C0
:102A40001046D1F820E0039A2EEA0505DDF80CE0E7
:102A500012699A40029B2A430A62DEF804B00BF026
:102A60000305196805FA00F001EA0C011BF4403F68
:102A700040EA010018603FF481AF44F2F44140F2B3
:102A80000845C5F60201C5F600050F23086840F0A9
:102A900002000860086800F0020004902AF00300B9
:102AA000049904F00C0142598B409A43009B03FAAD
:102AB00001F1114341514FF0B0452868DEF8041090
:102AC00040EA0902CB0258BF20EA09028B022A60C1
:102AD00040F20405C5F60005286840EA090258BF1F
:102AE00020EA09028B032A60D5F8800040EA090237
:102AF00058BF20EA0902C903C5F88020E86F40EA00
:102B0000090258BF20EA0902EA6737E705B0BDE8C5
:102B1000F08F000000000000002A08BF0904816156
:102B2000704700000000000041F20000C5F60040C0
:102B30000068000C7047000043F20440C2F20040FD
:102B4000006870470000000040F62C0043F204418A
:102B5000C2F20040C2F2004100780A6810440860E6
:102B6000704700000000000080B5032000F0F8F876
:102B700001F0E6FC44F2184149F22043C5F6020197
:102B8000C0F600030A68096801F00F01C2F30322CE
:102B9000595C9A5C01F01F0102F01F02D04040F620
:102BA0002802C2F2004220FA01F1116040F624012D
:102BB000C2F2004108600F2000F00AF800281CBF94
:102BC000012080BD00F07CF8002080BD00000000E6
:102BD00070B540F62C06C2F200463178E1B10446E9
:102BE00040F62400C2F200404FF47A72B2FBF1F1D9
:102BF0000068B0FBF1F001F0DFFF0F2C4FF0010592
:102C000008D838B94FF0FF3000222146002500F0E7
:102C100077F87460284670BD012070BD0000000088
:102C2000B0B502784EF69C5CCEF2000C43784CF8BE
:102C3000043CFAB14368CCF80030037BC17A90F8C9
:102C40000AE0457B447A42EA0372837B42EA0161EF
:102C5000C27B41EACE41007A41EA854141EA4341E3
:102C600041EA024141EA042141EA4000CCF8040073
:102C7000B0BD00BF0020CCF80000CCF80400B0BD0F
:102C80004EF62450CEF20000BFF35F8F016821F4AE
:102C900080310160002101677047000000000000E2
:102CA0004EF6245140F00100CEF20001086708689A
:102CB00040F480300860BFF34F8FBFF36F8F7047D1
:102CC00081B044F2F440C5F60200016841F002010F
:102CD0000160006800F002000090009801B07047A9
:102CE000002848BF704700F01F01012202FA01F1DD
:102CF0004EF200124009CEF2000242F82010704756
:102D000070B54EF60C5C4FF0FF36CEF2000C00F1C1
:102D10006045DCF80030C3F3022E8EF00703042B6D
:102D200028BF0423BEF1030406FA03F321EA0301DA
:102D300000F00F0338BF0024043BB0F1FF3F6344B1
:102D400006FA04F003F10C0301FA04F1C8BF05F51B
:102D5000644322EA000008430001187070BD0000BF
:102D60004EF60C514FF6FF03CEF200010A681A40EE
:102D700060F30A2242F0806040F0FD700860704706
:102D8000B0B544F60C05C5F602052968490729685F
:102D900006D401F00701081A18BF0120B0BD00BF1A
:102DA00021F0070108432860FFF7C6FE044600BF74
:102DB00055F8080C800407D4FFF7BEFE001BB0F5E1
:102DC0007A7FF5D90120B0BD0020B0BD0000000021
:102DD00080B501F02DFB44F2204149F22042C5F6B6
:102DE0000201C0F600020968C1F30211515C01F052
:102DF0001F01C84080BD000080B544F2304EC5F6CA
:102E0000020E5EF8083C5EF8081CC1F3051C5EF873
:102E1000041CBCF1000FDEF8042017D0C2F3CC0272
:102E200001F00101514303F00303022B00EE101ADD
:102E3000B8EE400A10D0012B12D01BB95EF8301C3E
:102E4000890611D49FED361A1CE000BF0021816075
:102E5000C0E9001180BD00BF9FED301A12E000BF35
:102E60009FED2D1A0EE000BF5EF8301C49F2000203
:102E7000C0F2D032C1F3C10122FA01F101EE101A01
:102E8000B8EE411ADEF800109FED263A6FF35F218D
:102E900002EE101ADEF80010C1F34621B8EE422A05
:102EA00000EE032A00EE10CAB7EE003AB8EE400A70
:102EB00081EE000A32EE031A02EE101AB8EE422A30
:102EC00020EE010A32EE031A80EE011ABCEEC11A9E
:102ED00080ED001ADEF80010C1F3064101EE101A71
:102EE000B8EE411A31EE031A80EE011ABCEEC11A97
:102EF00080ED011ADEF80010C1F3066101EE101A30
:102F0000B8EE411A31EE031A80EE010ABCEEC00A97
:102F100010EE101A816080BD0024744A20BCBE4BA4
:102F20000024744C0000003980B544F2384EC5F6D8
:102F3000020E5EF8103C5EF8101CC1F3053C5EF812
:102F40000C1CBCF1000FDEF8042015D0C1F30011F9
:102F5000C2F3CC02514300EE101A03F00301022920
:102F6000B8EE400A0ED089B95EF8381C890611D433
:102F70009FED361A1CE000BF00218160C0E90011FE
:102F800080BD00BF9FED301A12E000BF9FED2D1AEB
:102F90000EE000BF5EF8381C49F20002C0F2D032E9
:102FA000C1F3C10122FA01F101EE101AB8EE411A83
:102FB000DEF800109FED263A6FF35F2102EE101A43
:102FC000DEF80010C1F34621B8EE422A00EE032AD3
:102FD00000EE10CAB7EE003AB8EE400A81EE000AE1
:102FE00032EE031A02EE101AB8EE422A20EE010A5F
:102FF00032EE031A80EE011ABCEEC11A80ED001AFF
:10300000DEF80010C1F3064101EE101AB8EE411AC5
:1030100031EE031A80EE011ABCEEC11A80ED011ADE
:10302000DEF80010C1F3066101EE101AB8EE411A85
:1030300031EE031A80EE010ABCEEC00A10EE101A3F
:10304000816080BD0024744A20BCBE4B0024744CB7
:10305000000000390000000080B544F2404EC5F683
:10306000020E5EF8183C5EF8181CC1F3055C5EF8B1
:10307000141CBCF1000FDEF8042015D0C1F30021B0
:10308000C2F3CC02514300EE101A03F003010229EF
:10309000B8EE400A0ED089B95EF8401C890611D4FA
:1030A0009FED361A1CE000BF00218160C0E90011CD
:1030B00080BD00BF9FED301A12E000BF9FED2D1ABA
:1030C0000EE000BF5EF8401C49F20002C0F2D032B0
:1030D000C1F3C10122FA01F101EE101AB8EE411A52
:1030E000DEF800109FED263A6FF35F2102EE101A12
:1030F000DEF80010C1F34621B8EE422A00EE032AA2
:1031000000EE10CAB7EE003AB8EE400A81EE000AAF
:1031100032EE031A02EE101AB8EE422A20EE010A2D
:1031200032EE031A80EE011ABCEEC11A80ED001ACD
:10313000DEF80010C1F3064101EE101AB8EE411A94
:1031400031EE031A80EE011ABCEEC11A80ED011AAD
:10315000DEF80010C1F3066101EE101AB8EE411A54
:1031600031EE031A80EE010ABCEEC00A10EE101A0E
:10317000816080BD0024744A20BCBE4B0024744C86
:10318000000000390000000010B584B0024641F68E
:10319000FF7300209B1A70EB01032FDB40F2FF331B
:1031A0009B1A70EB010355DA82F480630B4300F045
:1031B000D38082F400630B4300F0E88082F48052F5
:1031C000114340F04F8144F20041C5F60201086D01
:1031D000C0F30232042A00F2228248F20000C0F258
:1031E000BB00DFE812F00500410147013F014D013E
:1031F0000868800140F113820EE100BF47F6FF73BB
:103200009B1A70EB010349DA82F400430B4300F090
:10321000D78082F480330B4300F0E48082F40022F4
:10322000114340F01F8144F20040C5F60200816D59
:1032300001F44031B1F5003F00F0F480B1F5803F7A
:1032400000F0FE80002940F0EA810068000100F1F2
:103250008681E4E182F480730B434BD082F40072E8
:10326000114340F0FF8044F20041C5F60201086DB1
:10327000C0F38212042A00F2D28148F20000C0F2A8
:10328000BB00DFE812F0050011011701EF001D017E
:103290000868800140F1C381BEE000BF82F40053A2
:1032A0000B4343D082F48042114340F0DB8044F270
:1032B0000044C5F60204A06DC0F30270052800F2B8
:1032C000AE81DFE810F007007B017F0183018901F7
:1032D0008B0100BF01F0ACF8216A49F22042C0F630
:1032E0000002C1F30211515C01F01F01C84004B09B
:1032F00010BD00BF44F20041C5F60201086D00F0A8
:103300000702042A00F28B8148F20000C0F2BB00E1
:10331000DFE812F00600E800EE00A800F40000BFAD
:103320000868800140F17B8176E000BF44F20040F4
:10333000C5F60200016DC1F30241052900F26F815B
:10334000DFE811F00600560160016A0170014E00CD
:1033500001F096F804B010BD44F20041C5F6020138
:10336000886DC0F34252042A00F2598148F20000ED
:10337000C0F2BB00DFE802F004D4DA76DE0000BF62
:103380000868800140F14B8146E000BF44F20041F3
:10339000C5F60201886DC0F30262042A00F23F8183
:1033A00048F20000C0F2BB00DFE802F004D6E05CA7
:1033B000EA0000BF0868800140F131812CE000BFC5
:1033C00044F20040C5F60200016D01F04051B1F138
:1033D000005F3FD0B1F1805F1AD0002940F01F811B
:1033E0000068FCE044F20040C5F60200C16C0068D1
:1033F000C90303D4800140F112810DE0000140F1C6
:103400000E8101A8FFF790FD039804B010BD00BF26
:103410000068800140F1038101A8FFF7EDFC0298EC
:1034200004B010BDC16C036811F04051026840F057
:10343000038113F0040300F0FF80C2F3C1000AE12E
:103440000068800040F1EB8001A8FFF705FE0398BB
:1034500004B010BD0068000140F1E18001A8FFF751
:1034600063FD029804B010BD0868000140F1D780E8
:1034700075E000BF0868800040F1D18079E000BFAE
:10348000C86C0B6810F04052086803D113F00403B5
:1034900040F0DF80B2F1805F40F0818010F48070F6
:1034A00040F0D0807BE000BF0868000140F1B780A9
:1034B00055E000BF0868800040F1B18059E000BFCE
:1034C000C86C0B6810F04052086803D113F0040375
:1034D00040F0BF80B2F1805F61D110F4807040F0A5
:1034E000B1805CE00868000140F1998037E000BFDE
:1034F0000868800040F193803BE000BFC86C0B6817
:1035000010F04052086803D113F0040340F0A1808A
:10351000B2F1805F43D110F4807040F093803EE0C0
:103520000868000140F17B8019E000BF0868800056
:1035300075D51EE0C86C0B6810F04052086803D1C6
:1035400013F0040340F08580B2F1805F27D110F4BE
:10355000807077D123E000BF086800015FD501A823
:10356000FFF7E2FC019804B010BD00BF08688000BE
:1035700055D501A8FFF770FD019804B010BD00BF3C
:10358000C86C0B6810F04052086802D113F00403B5
:103590005FD1B2F1805F02D110F4807052D108681F
:1035A00010F400301CBF47F64000C0F27D10B2F1AD
:1035B000005F18BF002004B010BD00BF20680001EC
:1035C0002DD518E02068800029D51EE0206840072E
:1035D00025D520683DE000BF206824E0206847F63C
:1035E00040018003C0F27D1101EAE07004B010BD1B
:1035F0000068000113D501A8FFF796FC029804B0FB
:1036000010BD00BF0068800009D501A8FFF724FDA8
:10361000029804B010BD00BF0168490718D400200B
:1036200004B010BD006840F60011C005C0F23D01B5
:1036300001EAE07004B010BDB1F1805F14D112F462
:10364000807211D040F60010C0F23D0004B010BDF1
:103650000068C0F3C10049F20001C0F2D03121FA84
:1036600000F004B010BD00BF006810F400301CBFB3
:1036700047F64000C0F27D10B1F1005F18BF002096
:1036800004B010BD000000002DE9F0470446C078EA
:1036900044F22C480007C5F6020833D5A06E4FEA65
:1036A000305103290CD8DFE801F003111D2600BFBB
:1036B000D8F8001041F40031C8F800101BE000BF3A
:1036C00001266078C0070BD020E000BF04F108009D
:1036D000022101F025FF064660B16078C00715D1D0
:1036E000354646E004F12800022101F0ADFF064610
:1036F0000028F2D1A06ED8F8241021F4401108431C
:10370000C8F8240000266078C007E9D0A06D04281E
:103710000ED83546DFE800F00412181E1E0000BF68
:10372000D8F80000354640F40030C8F8000011E039
:1037300001250127607880071FD452E004F10800BA
:10374000002101F0EDFE04E004F12800002101F069
:103750007BFF05462F461DB1607880070DD440E001
:10376000D8F82400A16D20F0070000250843C8F810
:10377000240037466078800733D5E06D4FEAB010FB
:1037800004280DD8DFE800F00412181E1E0000BF48
:10379000D8F8000040F40030C8F8000012E000BF84
:1037A00001250126607840071FD455E004F1080088
:1037B000002101F0B5FE04E004F12800002101F031
:1037C00043FF05462E461DB1607840070DD443E007
:1037D000D8F82400E16D20F4E07000250843C8F813
:1037E00024003E466078400736D5D4F8A8004FEA5A
:1037F000705004280CD8DFE800F00313191F1F00D5
:10380000D8F8000040F40030C8F8000014E000BF11
:1038100001254FF001096078000721D456E000BF70
:1038200004F10800002101F07BFE04E004F128000F
:10383000002101F009FF0546A9461DB16078000787
:103840000ED443E0D8F82C00D4F8A81020F460007F
:1038500000250843C8F82C00B1466078000735D52C
:10386000D4F8AC004FEA306004280DD8DFE800F04F
:103870000412181E1E0000BFD8F8000040F40030EB
:10388000C8F8000012E000BF01250127E07880079A
:1038900020D44EE004F10800002101F041FE04E0D4
:1038A00004F12800002101F0CFFE05462F461DB18E
:1038B000E07880070ED43CE0D8F82C00D4F8AC10A7
:1038C00020F0E06000250843C8F82C004F46E0785F
:1038D00080072ED5E06C4FEA301003280ED8DFE8C1
:1038E00000F00903130900BFD8F8000040F40030CD
:1038F000C8F800002E467DB912E000BF0125012660
:103900006078C00619D44CE004F10800022101F0EF
:1039100007FE05462E461DB16078C0060DD440E076
:10392000D8F82000E16C20F0300000250843C8F8EA
:1039300020003E466078C00633D5206E4FEA303016
:1039400004280DD8DFE800F00412181E1E0000BF86
:10395000D8F8000040F40030C8F8000012E000BFC2
:1039600001250127607880061FD44EE004F108008D
:10397000002101F0D5FD04E004F12800002101F050
:1039800063FE05462F461DB1607880060DD43CE0ED
:10399000D8F82400216E20F4E04000250843C8F840
:1039A00024003746607880062FD5606E4FEA30409D
:1039B000052809D8DFE800F0040E1404040400BF51
:1039C0002E46ADB918E000BF0125012660784006FB
:1039D0001FD44FE004F10800012101F0A1FD04E033
:1039E00004F12800012101F02FFE05462E461DB1ED
:1039F000607840060DD43DE0D8F82400616E20F4D4
:103A0000E02000250843C8F824003E4660784006C0
:103A100030D5D4F8B0004FEA3070052808D8DFE878
:103A200000F0030D130303032F46ADB918E000BFE8
:103A3000012501276078000620D442E004F1080047
:103A4000012101F06DFD04E004F12800012101F0E5
:103A5000FBFD05462F461DB1607800060ED430E010
:103A6000D8F82C00D4F8B01020F0E040002508432E
:103A7000C8F82C0037466078000622D5206F58B170
:103A8000B0F1005F0CD0B0F1805F2FD1D8F800000A
:103A900040F40030C8F800002E469DB908E000BF91
:103AA00004F10800012101F03BFD05462E464DB909
:103AB000D8F82400216F20F0405000250843C8F8B2
:103AC00024003E46E078C00733D0A06C032813D80A
:103AD000DFE800F008021A08D8F8000040F40030CF
:103AE000C8F80000A946BDB91AE000BF01250126AB
:103AF000E078C007E9D11CE001254FF00109A0786A
:103B000040061AD51CE000BF04F10800022101F0B4
:103B100007FD0546A9461DB1A07840060DD50FE06A
:103B2000D8F82000A16C20F0030000250843C8F855
:103B30002000B146A078400602D44F4618E000BFEE
:103B4000D8F8D40340F48070C8F8D403FEF7F4FF2B
:103B5000064600BFD8F8D403C00507D4FEF7ECFF33
:103B6000801B6428F6D90325032701E02F468DB179
:103B70002078C00761D0E06F4FEAF00005283BD8FD
:103B8000DFE800F004404604040400BF002D2E4688
:103B900046D149E0D8F84410D4F8B400414011F4BB
:103BA000407F11D0D8F84410D8F8442042F4803235
:103BB000C8F84420D8F8442021F4407122F480321F
:103BC000C8F84420C8F84410B0F5807F40F0E08287
:103BD000FEF7B2FF064641F2883A0325032700BFED
:103BE000D8F84400800700F1D182FEF7A5FF801BC2
:103BF0005045F5D9BCE700BF012601252078800794
:103C00001FD44CE004F10800012101F089FC04E01C
:103C100004F12800012101F017FD05462E461DB1D3
:103C2000207880070DD43AE0D8F82800E16F20F022
:103C3000380000250843C8F828003E462078800751
:103C40002DD5A06F052809D8DFE800F0040E140474
:103C5000040400BF2F46ADB918E000BF01270125BD
:103C6000207840071FD44DE004F10800012101F045
:103C700057FC04E004F12800012101F0E5FC0546B1
:103C80002F461DB1207840070DD43BE0D8F828001E
:103C9000A16F20F0070000250843C8F82800374628
:103CA000207840072ED5D4F89400052808D8DFE8FE
:103CB00000F0030D130303032E46ADB918E000BF57
:103CC000012601252078800620D451E004F1080067
:103CD000012101F025FC04E004F12800012101F09C
:103CE000B3FC05462E461DB1207880060ED43FE079
:103CF000D8F82C00D4F8941020F0070000250843D1
:103D0000C8F82C003E462078800631D5D4F89000C3
:103D10004FEA3070052809D8DFE800F0040E1404DB
:103D2000040400BF2F46ADB918E000BF01270125EC
:103D30002078400620D451E004F10800002101F071
:103D4000EFFB04E004F12800022101F07DFC0546B0
:103D50002F461DB1207840060ED43FE0D8F8280049
:103D6000D4F8901020F0E04000250843C8F828005F
:103D700037462078400631D5D4F89C004FEAB02071
:103D8000052809D8DFE800F0040E1404040400BF7D
:103D90002E46ADB918E000BF0126012520780006A7
:103DA00020D454E004F10800002101F0B9FB04E044
:103DB00004F12800022101F047FC05462E461DB102
:103DC000207800060ED442E0D8F82C00D4F89C10DD
:103DD00020F4E05000250843C8F82C003E46207827
:103DE000000634D5D4F8A0004FEA703005280FD86B
:103DF000DFE800F004141A04040400BF2F46E5B104
:103E00002068010727D4C1063ED4000355D475E0CD
:103E10000127012520680107F5D51CE004F1080001
:103E2000002101F07DFB04E004F12800022101F0F3
:103E30000BFC0546002D2F46E2D1D8F82C00D4F813
:103E4000A01020F4604000250843C8F82C00374635
:103E500020680107D7D5D4F88410B1F5805F0AD166
:103E600004F12800022101F0EFFB002818BF012710
:103E70002068D4F88410D8F8282022F44052114346
:103E8000C8F82810C106C0D5D4F89810B1F5807FC5
:103E90000AD104F12800022101F0D6FB002818BF46
:103EA00001272068D4F89810D8F82C2022F440720A
:103EB0001143C8F82C10000320D5D4F8A400B0F5A5
:103EC000003F0FD0B0F5803F06D078BB04F108006A
:103ED000002101F025FB04E004F12800022101F09B
:103EE000B3FB05462E4655B9D8F82C00D4F8A410DB
:103EF00020F4403000250843C8F82C003E46A07846
:103F000040072BD5D4F88800B0F5401F0BD0B0F592
:103F1000001F11D0B0F5801F2AD1D8F8000040F45E
:103F20000030C8F800002F46CDB90DE0012601256C
:103F3000A0784007E6D411E004F12800012101F047
:103F400083FB05462F4655B9D8F82800D4F88810C9
:103F500020F4401000250843C8F828003746A07810
:103F6000C0070AD13E462168880016D533E000BF5D
:103F700001270125A078C007F4D0206DB0F5803F5F
:103F800010D018BBD8F8000040F40030C8F800008A
:103F90002E4685B1216888001DD460688A0326D426
:103FA0006BE000BF04F10800022101F0B9FA0546F8
:103FB000002D2E46EED1D8F82000216D20F480305F
:103FC00000250843C8F82000CCE700BF01260125E2
:103FD00021688800E1D504F12800022101F034FBBA
:103FE000002818BF0126D4E900108A0345D5D4F86B
:103FF00080206FF0010303EB3223022B0BD34FEA37
:10400000322343B1012B40F0BB80D8F8003043F499
:104010000033C8F800304DB3CA0231D4CA0039D4D5
:104020008A0242D44A004AD4B1F1FF3F57DD090267
:104030005FD4C10768D1810771D441077BD40107E0
:1040400000F18580C10600F18E80800607D504F15D
:104050002800022101F0F8FA002818BF0125002DE0
:1040600018BF01252846BDE8F08700BFD8F82830E2
:1040700023F440731A43C8F828203546CA02CDD528
:10408000D8F82420636F22F000421A43C8F8242095
:10409000CA00C5D558F81C2CD4F8B83022F4804298
:1040A0001A4348F81C2C8A02BCD5D8F82420E36EA9
:1040B00022F080721A43C8F824204A00B4D558F878
:1040C0001C2C22F4004248F81C2CD4F8BC2058F8D0
:1040D0001C3C1A4348F81C2CB1F1FF3FA7DCD8F870
:1040E0002020636D22F040521A43C8F820200902B4
:1040F0009FD5D8F82810D4F88C2021F44001114322
:10410000C8F82810C10796D004F10800002101F07A
:1041100007FA002818BF0546606881078DD504F1AD
:104120000800012101F0FCF9002818BF054660686D
:1041300041077FF584AF04F10800022101F0F0F996
:10414000002818BF0546606801077FF57BAF04F1C2
:104150002800002101F078FA002818BF05466068A1
:10416000C1067FF572AF04F12800012101F06CFA5D
:10417000002818BF0546606880067FF570AF66E7C7
:104180000125CA027FF54AAF7AE700BFD4F8B40030
:104190004FF6CF7358F81C2CC0F2FF0300F44071A7
:1041A00022F47C5203EA10136FF31F30B1F5407F05
:1041B00008BF1A43002548F81C2CD8F844100843BF
:1041C000C8F84400FFF7B9BC2DE9F04381B00028DE
:1041D00000F02A8142F200080446C5F20028894610
:1041E000D8F8000000F00F0088420ED2D8F8000086
:1041F00020F00F0040EA0900C8F80000D8F80000DD
:1042000000F00F00484540F00F81206844F2184745
:104210004107C5F602070AD521693A6802F0700223
:10422000914204D93A6822F07002114339600107C3
:104230000AD561697A6802F07002914204D97A68FD
:1042400022F0700211437960C1060AD5A1697A682B
:1042500002F4E062914204D97A6822F4E0621143E8
:10426000796081060AD5E169BA6802F0700291426C
:1042700004D9BA6822F070021143B96010F002014B
:104280000AD0E2683B6803F00F039A4204D93B6806
:1042900023F00F031A433A60C20746D0386820F46F
:1042A0007061D4E90102012841EA0201396009D0B4
:1042B00003280DD0022811D157F8181C890340F1AA
:1042C000B38010E057F8181CC90540F1AD800AE032
:1042D00057F8181C890140F1A78004E057F8181C12
:1042E000490740F1A18057F8081C21F00701084355
:1042F00047F8080CFEF720FC064641F2883500BF5F
:1043000057F8080C616800F03800B0EBC10F09D015
:10431000FEF712FC801BA842F2D9032001B0BDE8D1
:10432000F08300BF206800F0020151B1E1683A68F3
:1043300002F00F02914204D23A6822F00F021143B8
:104340003960D8F8001001F00F0149450DD9D8F8AF
:10435000001021F00F0141EA0901C8F80010D8F857
:10436000001001F00F0149455ED141070AD52169CE
:104370003A6802F07002914204D23A6822F0700268
:104380001143396001070AD561697A6802F0700249
:10439000914204D27A6822F0700211437960C1061A
:1043A0000AD5A1697A6802F4E062914204D27A687F
:1043B00022F4E0621143796080060AD5E069B968A9
:1043C00001F07001884204D2B96821F070010843FD
:1043D000B86000F0B5F8396849F220433A68C0F691
:1043E0000003C1F3032102F00F02595C9A5C01F053
:1043F0001F0120FA01F102F01F0040F6280221FA05
:1044000000F0C2F20042106040F6300040F6240294
:10441000C2F20040C2F200420068116001B0BDE883
:10442000F043FEF7D5BB00BF012001B0BDE8F0832B
:1044300080B500F085F844F2184149F22043C5F6F2
:104440000201C0F600030A68096801F00F01C2F317
:104450000322595C9A5C02F01F0220FA02F201F07A
:104460001F0040F6280122FA00F0C2F20041086065
:1044700040F62401C2F200410A6080BD0000000045
:1044800080B500F05DF844F2184C49F22041C5F6C1
:10449000020CC0F60001DCF80020DCF8003003F06C
:1044A0000F03C2F30322CB5C8A5C02F01F02D040F0
:1044B00003F01F0240F6280320FA02F2C2F2004382
:1044C0001A6040F62403C2F200431860DCF80400CE
:1044D000C0F30210085C00F01F0022FA00F080BD5B
:1044E00080B500F02DF844F2184C49F22041C5F691
:1044F000020CC0F60001DCF80020DCF8003003F00C
:104500000F03C2F30322CB5C8A5C02F01F02D0408F
:1045100003F01F0240F6280320FA02F2C2F2004321
:104520001A6040F62403C2F200431860DCF804006D
:10453000C0F30220085C00F01F0022FA00F080BDEA
:1045400044F20041C5F602010869C0F3C200032825
:1045500010D002282CD088BB0868800649F20000E1
:10456000C0F2D03058BF70470968C1F3C101C840DC
:10457000704700BF8A6A886AC0F3051CC86ABCF12C
:10458000000F4B6B20D0C3F3CC0300F00100584365
:1045900002F00302022A00EE100AB8EE400A15D01B
:1045A000C2B90868800619D49FED281A23E000BF1D
:1045B00047F64000C0F27D10704700BF40F6001083
:1045C000C0F23D00704700BF002070479FED1E1AEB
:1045D00011E000BF9FED1B1A0DE000BF086849F213
:1045E0000002C0F2D032C0F3C10022FA00F001EEA6
:1045F000100AB8EE411A086B9FED153A6FF35F2071
:1046000002EE100A086BC0F34620B8EE422A0130D1
:1046100000EE032A00EE10CAB7EE003AB8EE400AE8
:1046200081EE000A32EE031A20EE010A01EE100AB2
:10463000B8EE411A80EE010ABCEEC00A10EE100A74
:10464000704700BF0024744A20BCBE4B0024744C49
:104650000000003900000000F0B581B0002800F033
:1046600063810446007844F20046C007C5F602069E
:1046700022D12078800740F1BC80306910F03801E9
:10468000B06A3FD0182908BF5FEA80703AD0E0686E
:104690003168002862D021F0190108433060FEF72C
:1046A0004BFA05463068400748D4FEF745FA401BF0
:1046B0000228F7D977E100BF306900F03801B06A0D
:1046C000102905D018290BD100F00300022807D1CA
:1046D00030688003CDD560680028CAD124E100BFCE
:1046E000606800284CD0B0F5A02F61D0B0F5803FB5
:1046F00062D0306820F480303060306820F4802050
:104700005DE000BF30684007E06802D5002800F097
:104710000B81316821F0190108433060FEF70CFA73
:10472000054600BF3068400708D4FEF705FA401B75
:1047300002284FF00300F5D921E200BFFEF7F4F99B
:1047400041F20301884249D820697168402821F468
:104750007C314BD141F400304AE000BF21F0010030
:104760003060FEF7E9F905463068400741D5FEF7AD
:10477000E3F9401B02284FF00300F5D9FFE100BF29
:10478000306820F480303060306820F48020306061
:10479000FEF7D2F9054600BF306880037FF569AFA8
:1047A000FEF7CAF9401B64284FF00300F4D9E6E194
:1047B000306840F480203060306840F480303060F1
:1047C000FEF7BAF9054600BF306880033FF551AFE8
:1047D000FEF7B2F9401B6428F6D9E4E0706821695D
:1047E00020F0FE4040EA016002E000BF41EA0030F4
:1047F00070602078C00654D5306900F03801B06A86
:10480000082905D0182919D100F00300012815D175
:104810003068C00503D5E069802840F08580FEF748
:1048200083F941F2030188421ED8206A716820286A
:1048300021F0F84132D141F0804031E0E0690028B8
:10484000306819D040F080003060FEF775F90546F9
:104850003068C005E3D4FEF76FF9401B02284FF023
:104860000300F5D98BE100BFF068216A20F07C508D
:1048700040EA0160F06014E020F080003060FEF754
:104880005BF905463068C0050BD5FEF755F9401BAE
:1048900002284FF00300F5D971E100BF41EA8060C2
:1048A00070602078000743D42078800654D42078A4
:1048B000400765D4656A9DB3306900F03800182858
:1048C00040F0A880012DB16A306B2DD001F00302B9
:1048D000A36A9A4228D1C1F30511E26A914223D119
:1048E0000146226B6FF35F21013A91421CD1C0F364
:1048F0004622616B01398A4216D1C0F30642A16B90
:1049000001398A4210D1C0F30660E16B0139884257
:104910000AD1706BA16CC0F3CC00814240F03281AF
:10492000002001B0F0BD00BF012001B0F0BD00BF0C
:1049300060690028706F39D040F001007067FEF7A1
:10494000FBF80546706F8007AED4FEF7F5F8401B04
:104950000228F7D927E000BFA0690028306847D0B7
:1049600040F480503060FEF7E7F805463068800478
:104970009DD4FEF7E1F8401B0228F7D913E000BFF1
:10498000D6F8000440F48070C6F80004FEF7D4F8AE
:10499000054600BFD6F80004C00519D4FEF7CCF8D0
:1049A000401B6428F6D9032001B0F0BD20F00100BF
:1049B0007067FEF7C1F80546706F80077FF574AF2A
:1049C000FEF7BAF8401B02284FF00300F4D9D6E0F6
:1049D000A068002840D0052858D001285AD0306F50
:1049E00020F001003067306F20F0040055E000BF78
:1049F00020F480503060FEF79FF805463068800450
:104A00007FF555AFFEF798F8401B02284FF00300E2
:104A1000F4D9B4E0306820F080703060FEF78CF894
:104A2000022D05460CD100BF3068800148D5FEF745
:104A300083F8401B02284FF00300F5D99FE000BF28
:104A4000306880017FF56CAFFEF776F8401B0228D6
:104A50004FF00300F4D992E0306F20F0010030678E
:104A6000306F20F004003067FEF766F8054641F22B
:104A70008837306F80077FF51DAFFEF75DF8401B6C
:104A8000B8424FF00300F4D979E000BF306F40F036
:104A900004003067306F40F001003067FEF74CF8DB
:104AA000054641F2883700BF306F80073FF502AFFF
:104AB000FEF742F8401BB8424FF00300F4D95EE025
:104AC00004F12807B06A40F2F33188438ECF0843DF
:104AD000591E40EA02104FF47E426FF35F21B0622C
:104AE00002EB47204FF4FE0280B2E36B0844A16B57
:104AF00002EB01414FF0FE4201F4FE0102EB0362C2
:104B0000084402F0FE4108443063F06A4FF6F87141
:104B100020F00100F062706BA26C884340EAC20092
:104B20007063F06A216C20F00C000843F062F06AB8
:104B3000616C20F002000843F062F06A40F48030BB
:104B4000F062F06A40F40030F062F06A40F48020D5
:104B5000F062F06A40F00100F062306840F080706E
:104B60003060FDF7E9FF0446306880013FF5D8AEBC
:104B7000FDF7E2FF001B02284FF00300F4D901B05B
:104B8000F0BD00BFF06A20F00100F062FDF7D4FF35
:104B90000546FDF7D1FFA842FBD0706B4FF6F871C8
:104BA000A26C884340EAC2007063F06A40F00100E2
:104BB000F062002001B0F0BD411E0020B0EB116F8B
:104BC00002D00120704700BF4EF21002F023CEF257
:104BD000000251604EF62351CEF200010B70072106
:104BE0009060116070470000B0B590F83C20012A39
:104BF0004FF002025BD080F83D2040F2004C02688A
:104C0000C4F2010C42F4806363455368D2F808E0B3
:104C100002BF23F470034C68234341F2FF740D6814
:104C2000C4F2000423F07003A24243EA0503536078
:104C30000CDC40F2FF73C4F200039A4216DCB2F1BE
:104C4000804F29D040F2004318E000BF40F2FF330C
:104C5000C4F201039A4217DC41F60003C4F20003D8
:104C60009A4219D00023C4F2010309E040F6000380
:104C7000C4F200039A420FD040F60043C4F200038E
:104C80009A4209D00DE000BF44F20003C4F20103D0
:104C90009A4201D0624504D12EF0800389681943FD
:104CA00091600022012180F83D1080F83C201046E0
:104CB000B0BD00000000000060B310B5044690F8DD
:104CC0003D0028B9002084F83C00204600F024F87C
:104CD000022084F83D002068211D00F059FE0120CB
:104CE00084F8480084F83E0084F83F0084F84000CF
:104CF00084F8410084F8420084F8430084F84400BA
:104D000084F8450084F8460084F8470084F83D00A4
:104D1000002010BD0120704781B041F20001006801
:104D2000C4F20001884201D001B0704744F2E8406B
:104D3000C5F60200016841F010010160006800F052
:104D400010000090009801B07047000000000000C3
:104D500090F88410012901D1022070472421C0F865
:104D6000881002681368116823F0005321F00101D4
:104D700011600021416613602022C0F8882080F86D
:104D8000841008467047000070B590F88420012A0E
:104D900002D1022070BD00BF2422C0F88820026822
:104DA000D0F864E0BEF1000FD2F800C0136823F021
:104DB00001031360936823F0606341EA030191608B
:104DC0001AD091684CF6202E9368C0F6000E5B0F47
:104DD0004CF62825C1F34266C0F600051EF80340D4
:104DE000E95C2301B3FBF1F11EF80630AE5D1B0157
:104DF000B3FBF6F302E000BF01210123A0F86A1023
:104E00002021A0F86830C2F800C0C0F88810002146
:104E100080F88410084670BD70B590F88420012A8F
:104E200002D1022070BD00BF2422C0F88820026891
:104E3000D0F864E0BEF1000FD2F800C0136823F090
:104E400001031360936823F0604341EA030191601A
:104E50001AD091684CF6202E9368C0F6000E5B0FB6
:104E60004CF62825C1F34266C0F600051EF8034043
:104E7000E95C2301B3FBF1F11EF80630AE5D1B01C6
:104E8000B3FBF6F302E000BF01210123A0F86A1092
:104E90002021A0F86830C2F800C0C0F888100021B6
:104EA00080F88410084670BD10B5B0B10446D0F843
:104EB000880028B9002084F88400204600F028F8F3
:104EC0002420C4F888002068016821F001010160F5
:104ED000204600F035FF012802D1012010BD00BF9F
:104EE000A06A10B1204600F0FFFD2068416821F45F
:104EF00090414160816821F02A018160016841F0A0
:104F0000010101602046BDE8104000F05DBE0000D8
:104F1000B0B5B8B0044602A80830B82100253395D2
:104F2000CDE93655CDE93455FBF70AFA41F20001D7
:104F30002068C4F20101884202D038B0B0BD00BF81
:104F40000120029002A803952195FEF79DFB08B170
:104F5000FCF7C2F844F2E040C5F60200016941F0F6
:104F600010010161016901F01001019101990168CD
:104F700041F001010160006833A900F001000190D7
:104F800001984FF4C0603390022034900020CDE9A6
:104F90003500072037900020C5F60200FDF7C8FC59
:104FA00038B0B0BD000000002DE9F04182B00446E9
:104FB000D0F8880020283FD10E4600294FF001008C
:104FC0004BD01746002A48D01D464FF00008C4F8C1
:104FD00090802120C4F88800FDF7AEFDA4F854703D
:104FE000A4F856700746A168B1F5805F0FD120691B
:104FF000002814BF3046B046064608E0206816F880
:10500000011B8162B4F856000138A4F85600B4F8C8
:105010005600A8B18021002220463B46009501F0B1
:105020007FF9E8B9002EE9D138F8020B2168002693
:105030006FF35F208862E5E7022002B0BDE8F081EF
:105040004021002220463B46009501F069F92021CD
:105050000028C4F8881018BF032002B0BDE8F08112
:105060002020C4F88800032002B0BDE8F0810000D1
:10507000FEE700000000000010B58AB043F20810FF
:1050800042F20001C2F200400024CDE90844CDE91B
:105090000644CDE90444CDE90244CDE90044C4F21C
:1050A00002018460C0E900140121C1600422026190
:1050B0004FF4807282820222826104770322C0E967
:1050C0000944C2624FF48052C0E90C2480F83810C1
:1050D0004FF48062C2634FF4A072C0E9102481646F
:1050E000FCF74AFA08B1FBF7F7FF43F2081007A9EB
:1050F000C2F200400794FBF7F7FF08B1FBF7ECFFA3
:1051000041F200006946C3F2602000900620019041
:105110000720029040F2FF700390042004900020CA
:1051200005908DF8190043F20810C2F20040FCF718
:1051300037F808B1FBF7D0FF42F200006946C3F22E
:10514000906000900C20019043F20810C2F20040E1
:10515000FCF726F808B1FBF7BFFF0AB010BD00004E
:10516000B0B588B043F26C1042F20011C2F20040B8
:1051700000240794C4F20201CDE90544C0E90014FB
:10518000C0E90244042505618482012181614FF454
:10519000B461047741624FF4806181620321C1628E
:1051A0004FF48051C0E90C1480F83840FCF7E4F962
:1051B00008B1FBF791FF40F2001001A9C2F2801084
:1051C0000190062002900720039040F2FF700694A1
:1051D000CDE9040543F26C108DF81D40C2F2004089
:1051E000FBF7DEFF08B1FBF777FF08B0B0BD0000AA
:1051F000B0B588B043F2D01046F20001C2F20040D0
:1052000000240794C5F60201016001218460042591
:10521000C1604FF48071056181820321856104774B
:10522000C0E90944C1624FF48051C0E90C1480F810
:105230003840FCF7A1F908B1FBF74EFF40F600003B
:1052400001A9C2F630600190062002900720039069
:1052500040F2FF700694CDE9040543F2D0108DF8BA
:105260001D40C2F20040FBF79BFF08B1FBF734FF83
:1052700041F2000001A9C3F2602001900C200290CD
:1052800043F2D010C2F20040FBF78AFF08B1FBF7EF
:1052900023FF002001A9CCF6B870019012200290E3
:1052A00043F2D010C2F20040FBF77AFF08B1FBF7DF
:1052B00013FF002001A9CCF6843001901820029041
:1052C00043F2D010C2F20040FBF76AFF08B1FBF7CF
:1052D00003FF08B0B0BD000080B582B044F2E040EA
:1052E0000022C5F60200016841F400110160006867
:1052F000002100F40010019001988020FDF700FDCE
:105300008020FDF7EDFC812000210022FDF7F8FC54
:10531000812002B0BDE88040FDF7E2BC0000000043
:1053200080B582B044F2D8400022C5F60200016880
:1053300041F0010101600068002100F001000190CE
:1053400001980B20FDF7DCFC0B20FDF7C9FC0C20BD
:1053500000210022FDF7D4FC0C2002B0BDE8804003
:10536000FDF7BEBC00000000F0B587B044F2E0409D
:105370000025C5F60200069540F6000401220168EA
:10538000C5F6020441F00101016001684FF40056C6
:1053900001F0010101910199016841F004010160EE
:1053A0000168012701F0040101910199016841F0B0
:1053B0008001016000684FF4005100F0800001900E
:1053C00001982046FDF7A8FB02A92046CDE9026717
:1053D000CDE90475FDF7ACFA07B0F0BD00000000A0
:1053E00010B584B043F2243041F20001C2F2004013
:1053F00000240294C4F200010160EF21C0E901140D
:1054000040F2F311C16080218161FFF755FC08B1C2
:10541000FBF762FE2020019043F2243001A9C2F282
:1054200000400394FFF7E0FB08B1FBF755FE04B022
:1054300010BD00000000000080B543F2703041F262
:105440000001C2F20040C4F201010C2201604FF4DD
:10545000E13141600021C0E902110161C0E905218B
:10546000C0E90711C0E90911FFF71EFD08B1FBF7FC
:1054700033FE43F270300021C2F20040FFF7CCFC53
:1054800008B1FBF729FE43F270300021C2F2004060
:10549000FFF77AFC08B1FBF71FFE43F27030C2F24F
:1054A0000040FFF755FC002808BF80BDBDE88040E4
:1054B000FBF712BE00000000FEE700000000000045
:1054C000FEE7000000000000704700000000000040
:1054D00010B5B0B06C46982104F12800FAF730FFFF
:1054E000002001904FF400210091022102910C2232
:1054F0002990CDE90321CDE90511C0210791202193
:10550000CDE908102046FEF7BFF828B1EFF3108070
:1055100072B600BFFEE700BF30B010BD0000000053
:10552000F0B581B044F22C47C5F6020757F8042CB9
:1055300002F00302032A03D1012001B0F0BD00BF35
:10554000054657F82C0C0C4620F0806047F82C0CD0
:10555000FDF7F2FA064600BF57F82C0C000105D5FE
:10556000FDF7EAFA801B0228F6D964E057F8040C2C
:10557000EE6895E80E0020F47C30012C40EA013002
:10558000A2F101016FF35F214FF47E4202EB43224F
:1055900047F8040C92B24FF0FE4302EB01004FF4C7
:1055A000FE012A6901EB064101F4FE0103EB0262F0
:1055B000084402F0FE410844F8603868696920F048
:1055C000C00040EA010038603868A96920F0200076
:1055D00040EA0100386038684FF6F87120F010009A
:1055E00038603869EA6920EA01004FF4001140EAA6
:1055F000C2003861386808BF4FF4801140F01000D5
:10560000002C386008BF4FF4002138680843386028
:1056100057F82C0C40F0806047F82C0CFDF78CFA02
:10562000044600BF57F82C0C000107D4FDF784FA9C
:10563000001B0328F6D3032001B0F0BD002001B009
:10564000F0BD000000000000F0B581B044F22C472E
:10565000C5F6020757F8042C02F00302032A03D10F
:10566000012001B0F0BD00BF054657F82C0C0C46D8
:1056700020F0805047F82C0CFDF75EFA064600BF7C
:1056800057F82C0C800005D5FDF756FA801B022830
:10569000F6D964E057F8040CEE6895E80E0020F0A7
:1056A0007C70012C40EA0150A2F101016FF35F21EF
:1056B0004FF47E4202EB432247F8040C92B24FF0C3
:1056C000FE4302EB01004FF4FE012A6901EB0641A3
:1056D00001F4FE0103EB0262084402F0FE410844BB
:1056E00078613868696920F4406040EA01003860F8
:1056F0003868A96920F4007040EA01003860386811
:105700004FF6F87120F480703860B869EA6920EAD1
:1057100001004FF0807140EAC200B861386808BFEC
:105720004FF4000140F48070002C386008BF4FF443
:10573000800138680843386057F82C0C40F08050DE
:1057400047F82C0CFDF7F8F9044600BF57F82C0C6D
:10575000800007D4FDF7F0F9001B0328F6D30320DF
:1057600001B0F0BD002001B0F0BD0000000000005D
:105770007047000000000000FDF7E6B900000000DF
:1057800070B59CB044F6180440F22C4509A84C2191
:10579000C5F60204C5F60005FAF7D2FD0220002680
:1057A000CDE90766CDE90566CDE90366CDE9016679
:1057B000FDF7E6FA0096286820F0010028602868C6
:1057C00000F001000090206840F440402060206814
:1057D00000F4404000900098206880045FBF20687B
:1057E0005FEA804020685FEA804002D4206880043D
:1057F000F2D54FF6DC40CFF6FF70215841F00201A0
:105800002150205800F002000090009800200090E5
:10581000206840F440402060206800F44040009040
:10582000286840F001002860286800F0010000901E
:10583000009800BF206880045FBF20685FEA804056
:1058400020685FEA804002D420688004F2D50120FD
:1058500009904FF480300A9002200521CDE9120012
:105860001491C021CDE91510CDE9170009A808242D
:1058700019940025CDE91A55FEF7EEFE20B1EFF39D
:10588000108072B6FEE700BF3F20019003204FF466
:105890008061CDE9020540200494CDE90500CDE901
:1058A000071001A80421FEF78FFC28B1EFF3108048
:1058B00072B600BFFEE700BF1CB070BD0000000064
:1058C0004EF6885042F2000CCEF20000C5F2002CD9
:1058D000016841F470010160DCF8000000F00F0085
:1058E000062806D8DCF80000072161F30300CCF895
:1058F000000044F200404EF67F52C5F60200CEF69C
:10590000F622016841F00101016000210161036894
:105910001A400260DCF80020120706D5DCF80020EF
:10592000072363F30302CCF8002040F200228161D8
:10593000C161C0F20222016282620022C0F2FF1243
:10594000C26240F28022C0F20112026341638263AC
:10595000C16302644164026822F48022026001662D
:1059600041F20000C5F600400068B1EB507F05D160
:1059700048F208100121C5F20010016044F2000055
:1059800043F2D201C5F20020016070470000000020
:1059900010B540F6FF32C4F20002904202680FDCFC
:1059A000B0F1804F1DD040F20043C4F20003984292
:1059B00017D040F60003C4F20003984211D014E05F
:1059C00040F60043C4F2000398420AD040F200437C
:1059D000C4F20103984204D00023C4F201039842A8
:1059E00003D122F070024B681A434FF6FF7343F65F
:1059F000FF7CC4F20003C4F2010C984214DD604540
:105A000022DD44F20003C4F20103984234D044F68C
:105A10000003C4F2010398422ED044F20043C4F2C2
:105A20000103984228D02BE040F2FF73C4F2000338
:105A3000984215DCB0F1804F1ED040F20043C4F212
:105A40000003984218D01BE00023C4F201039842DF
:105A500012D040F20043C4F2010398420CD00FE090
:105A600040F60003C4F20003984205D040F600431C
:105A7000C4F20003984203D122F44072CB681A4367
:105A800022F080024C696045D1F800E08B6842EA60
:105A900004020260C362C0F828E015DD44F200028F
:105AA000C4F2010290421AD044F60002C4F201028C
:105AB000904214D044F20042C4F2010290420ED04F
:105AC0000121416110BD00BF0022C4F201029042D9
:105AD00005D040F20042C4F201029042F0D10969BF
